{
  "_format": "hh-sol-artifact-1",
  "contractName": "Bond",
  "sourceName": "contracts/Bond.sol",
  "abi": [
    {
      "inputs": [
        {
          "internalType": "address",
          "name": "_ORFI",
          "type": "address"
        },
        {
          "internalType": "address",
          "name": "_principle",
          "type": "address"
        },
        {
          "internalType": "address",
          "name": "_treasury",
          "type": "address"
        },
        {
          "internalType": "address",
          "name": "_DAO",
          "type": "address"
        }
      ],
      "stateMutability": "nonpayable",
      "type": "constructor"
    },
    {
      "anonymous": false,
      "inputs": [
        {
          "indexed": false,
          "internalType": "uint256",
          "name": "deposit",
          "type": "uint256"
        },
        {
          "indexed": true,
          "internalType": "uint256",
          "name": "payout",
          "type": "uint256"
        },
        {
          "indexed": true,
          "internalType": "uint256",
          "name": "expires",
          "type": "uint256"
        },
        {
          "indexed": true,
          "internalType": "uint256",
          "name": "priceInUSD",
          "type": "uint256"
        }
      ],
      "name": "BondCreated",
      "type": "event"
    },
    {
      "anonymous": false,
      "inputs": [
        {
          "indexed": true,
          "internalType": "uint256",
          "name": "priceInUSD",
          "type": "uint256"
        },
        {
          "indexed": true,
          "internalType": "uint256",
          "name": "internalPrice",
          "type": "uint256"
        },
        {
          "indexed": true,
          "internalType": "uint256",
          "name": "debtRatio",
          "type": "uint256"
        }
      ],
      "name": "BondPriceChanged",
      "type": "event"
    },
    {
      "anonymous": false,
      "inputs": [
        {
          "indexed": true,
          "internalType": "address",
          "name": "recipient",
          "type": "address"
        },
        {
          "indexed": false,
          "internalType": "uint256",
          "name": "payout",
          "type": "uint256"
        },
        {
          "indexed": false,
          "internalType": "uint256",
          "name": "remaining",
          "type": "uint256"
        }
      ],
      "name": "BondRedeemed",
      "type": "event"
    },
    {
      "anonymous": false,
      "inputs": [
        {
          "indexed": false,
          "internalType": "uint256",
          "name": "initialBCV",
          "type": "uint256"
        },
        {
          "indexed": false,
          "internalType": "uint256",
          "name": "newBCV",
          "type": "uint256"
        },
        {
          "indexed": false,
          "internalType": "uint256",
          "name": "adjustment",
          "type": "uint256"
        },
        {
          "indexed": false,
          "internalType": "bool",
          "name": "addition",
          "type": "bool"
        }
      ],
      "name": "ControlVariableAdjustment",
      "type": "event"
    },
    {
      "anonymous": false,
      "inputs": [
        {
          "components": [
            {
              "internalType": "uint256",
              "name": "controlVariable",
              "type": "uint256"
            },
            {
              "internalType": "uint256",
              "name": "minimumPrice",
              "type": "uint256"
            },
            {
              "internalType": "uint256",
              "name": "maxPayout",
              "type": "uint256"
            },
            {
              "internalType": "uint256",
              "name": "fee",
              "type": "uint256"
            },
            {
              "internalType": "uint256",
              "name": "maxDebt",
              "type": "uint256"
            },
            {
              "internalType": "uint32",
              "name": "vestingTerm",
              "type": "uint32"
            },
            {
              "internalType": "uint256",
              "name": "minimumPayout",
              "type": "uint256"
            }
          ],
          "indexed": false,
          "internalType": "struct Bond.Terms",
          "name": "terms",
          "type": "tuple"
        }
      ],
      "name": "InitTerms",
      "type": "event"
    },
    {
      "anonymous": false,
      "inputs": [
        {
          "indexed": true,
          "internalType": "address",
          "name": "tokenToRecover",
          "type": "address"
        },
        {
          "indexed": false,
          "internalType": "uint256",
          "name": "amount",
          "type": "uint256"
        }
      ],
      "name": "LogRecoverLostToken",
      "type": "event"
    },
    {
      "anonymous": false,
      "inputs": [
        {
          "components": [
            {
              "internalType": "bool",
              "name": "add",
              "type": "bool"
            },
            {
              "internalType": "uint256",
              "name": "rate",
              "type": "uint256"
            },
            {
              "internalType": "uint256",
              "name": "maxTarget",
              "type": "uint256"
            },
            {
              "internalType": "uint256",
              "name": "minTarget",
              "type": "uint256"
            },
            {
              "internalType": "uint32",
              "name": "buffer",
              "type": "uint32"
            },
            {
              "internalType": "uint32",
              "name": "lastTime",
              "type": "uint32"
            }
          ],
          "indexed": false,
          "internalType": "struct Bond.Adjust",
          "name": "adjust",
          "type": "tuple"
        }
      ],
      "name": "LogSetAdjustment",
      "type": "event"
    },
    {
      "anonymous": false,
      "inputs": [
        {
          "indexed": true,
          "internalType": "address",
          "name": "stakingContract",
          "type": "address"
        }
      ],
      "name": "LogSetStaking",
      "type": "event"
    },
    {
      "anonymous": false,
      "inputs": [
        {
          "indexed": false,
          "internalType": "enum Bond.PARAMETER",
          "name": "param",
          "type": "uint8"
        },
        {
          "indexed": false,
          "internalType": "uint256",
          "name": "value",
          "type": "uint256"
        }
      ],
      "name": "LogSetTerms",
      "type": "event"
    },
    {
      "anonymous": false,
      "inputs": [
        {
          "indexed": true,
          "internalType": "address",
          "name": "tavCalculatorContract",
          "type": "address"
        }
      ],
      "name": "LogTAVCalculator",
      "type": "event"
    },
    {
      "anonymous": false,
      "inputs": [
        {
          "indexed": true,
          "internalType": "address",
          "name": "previousOwner",
          "type": "address"
        },
        {
          "indexed": true,
          "internalType": "address",
          "name": "newOwner",
          "type": "address"
        }
      ],
      "name": "OwnershipTransferred",
      "type": "event"
    },
    {
      "inputs": [],
      "name": "DAO",
      "outputs": [
        {
          "internalType": "address",
          "name": "",
          "type": "address"
        }
      ],
      "stateMutability": "view",
      "type": "function"
    },
    {
      "inputs": [],
      "name": "ORFI",
      "outputs": [
        {
          "internalType": "contract IERC20",
          "name": "",
          "type": "address"
        }
      ],
      "stateMutability": "view",
      "type": "function"
    },
    {
      "inputs": [],
      "name": "adjustment",
      "outputs": [
        {
          "internalType": "bool",
          "name": "add",
          "type": "bool"
        },
        {
          "internalType": "uint256",
          "name": "rate",
          "type": "uint256"
        },
        {
          "internalType": "uint256",
          "name": "maxTarget",
          "type": "uint256"
        },
        {
          "internalType": "uint256",
          "name": "minTarget",
          "type": "uint256"
        },
        {
          "internalType": "uint32",
          "name": "buffer",
          "type": "uint32"
        },
        {
          "internalType": "uint32",
          "name": "lastTime",
          "type": "uint32"
        }
      ],
      "stateMutability": "view",
      "type": "function"
    },
    {
      "inputs": [
        {
          "internalType": "address",
          "name": "",
          "type": "address"
        }
      ],
      "name": "bondInfo",
      "outputs": [
        {
          "internalType": "uint256",
          "name": "payout",
          "type": "uint256"
        },
        {
          "internalType": "uint256",
          "name": "pricePaid",
          "type": "uint256"
        },
        {
          "internalType": "uint32",
          "name": "lastTime",
          "type": "uint32"
        },
        {
          "internalType": "uint32",
          "name": "vesting",
          "type": "uint32"
        }
      ],
      "stateMutability": "view",
      "type": "function"
    },
    {
      "inputs": [],
      "name": "bondPrice",
      "outputs": [
        {
          "internalType": "uint256",
          "name": "price_",
          "type": "uint256"
        }
      ],
      "stateMutability": "view",
      "type": "function"
    },
    {
      "inputs": [],
      "name": "bondPriceInUSD",
      "outputs": [
        {
          "internalType": "uint256",
          "name": "price_",
          "type": "uint256"
        }
      ],
      "stateMutability": "view",
      "type": "function"
    },
    {
      "inputs": [],
      "name": "currentDebt",
      "outputs": [
        {
          "internalType": "uint256",
          "name": "",
          "type": "uint256"
        }
      ],
      "stateMutability": "view",
      "type": "function"
    },
    {
      "inputs": [],
      "name": "debtDecay",
      "outputs": [
        {
          "internalType": "uint256",
          "name": "decay_",
          "type": "uint256"
        }
      ],
      "stateMutability": "view",
      "type": "function"
    },
    {
      "inputs": [],
      "name": "debtRatio",
      "outputs": [
        {
          "internalType": "uint256",
          "name": "debtRatio_",
          "type": "uint256"
        }
      ],
      "stateMutability": "view",
      "type": "function"
    },
    {
      "inputs": [
        {
          "internalType": "uint256",
          "name": "_amount",
          "type": "uint256"
        },
        {
          "internalType": "uint256",
          "name": "_maxPrice",
          "type": "uint256"
        },
        {
          "internalType": "address",
          "name": "_depositor",
          "type": "address"
        }
      ],
      "name": "deposit",
      "outputs": [
        {
          "internalType": "uint256",
          "name": "",
          "type": "uint256"
        }
      ],
      "stateMutability": "nonpayable",
      "type": "function"
    },
    {
      "inputs": [
        {
          "internalType": "uint256",
          "name": "_controlVariable",
          "type": "uint256"
        },
        {
          "internalType": "uint256",
          "name": "_minimumPrice",
          "type": "uint256"
        },
        {
          "internalType": "uint256",
          "name": "_maxPayout",
          "type": "uint256"
        },
        {
          "internalType": "uint256",
          "name": "_minPayout",
          "type": "uint256"
        },
        {
          "internalType": "uint256",
          "name": "_fee",
          "type": "uint256"
        },
        {
          "internalType": "uint256",
          "name": "_maxDebt",
          "type": "uint256"
        },
        {
          "internalType": "uint32",
          "name": "_vestingTerm",
          "type": "uint32"
        }
      ],
      "name": "initializeBondTerms",
      "outputs": [],
      "stateMutability": "nonpayable",
      "type": "function"
    },
    {
      "inputs": [],
      "name": "lastDecay",
      "outputs": [
        {
          "internalType": "uint32",
          "name": "",
          "type": "uint32"
        }
      ],
      "stateMutability": "view",
      "type": "function"
    },
    {
      "inputs": [],
      "name": "maxPayout",
      "outputs": [
        {
          "internalType": "uint256",
          "name": "",
          "type": "uint256"
        }
      ],
      "stateMutability": "view",
      "type": "function"
    },
    {
      "inputs": [],
      "name": "owner",
      "outputs": [
        {
          "internalType": "address",
          "name": "",
          "type": "address"
        }
      ],
      "stateMutability": "view",
      "type": "function"
    },
    {
      "inputs": [
        {
          "internalType": "uint256",
          "name": "_value",
          "type": "uint256"
        }
      ],
      "name": "payoutFor",
      "outputs": [
        {
          "internalType": "uint256",
          "name": "",
          "type": "uint256"
        }
      ],
      "stateMutability": "view",
      "type": "function"
    },
    {
      "inputs": [
        {
          "internalType": "address",
          "name": "_depositor",
          "type": "address"
        }
      ],
      "name": "pendingPayoutFor",
      "outputs": [
        {
          "internalType": "uint256",
          "name": "pendingPayout_",
          "type": "uint256"
        }
      ],
      "stateMutability": "view",
      "type": "function"
    },
    {
      "inputs": [
        {
          "internalType": "address",
          "name": "_depositor",
          "type": "address"
        }
      ],
      "name": "percentVestedFor",
      "outputs": [
        {
          "internalType": "uint256",
          "name": "percentVested_",
          "type": "uint256"
        }
      ],
      "stateMutability": "view",
      "type": "function"
    },
    {
      "inputs": [],
      "name": "principle",
      "outputs": [
        {
          "internalType": "contract IERC20",
          "name": "",
          "type": "address"
        }
      ],
      "stateMutability": "view",
      "type": "function"
    },
    {
      "inputs": [
        {
          "internalType": "contract IERC20",
          "name": "_token",
          "type": "address"
        }
      ],
      "name": "recoverLostToken",
      "outputs": [
        {
          "internalType": "bool",
          "name": "",
          "type": "bool"
        }
      ],
      "stateMutability": "nonpayable",
      "type": "function"
    },
    {
      "inputs": [
        {
          "internalType": "address",
          "name": "_recipient",
          "type": "address"
        },
        {
          "internalType": "bool",
          "name": "_stake",
          "type": "bool"
        }
      ],
      "name": "redeem",
      "outputs": [
        {
          "internalType": "uint256",
          "name": "",
          "type": "uint256"
        }
      ],
      "stateMutability": "nonpayable",
      "type": "function"
    },
    {
      "inputs": [],
      "name": "renounceOwnership",
      "outputs": [],
      "stateMutability": "nonpayable",
      "type": "function"
    },
    {
      "inputs": [
        {
          "internalType": "bool",
          "name": "_addition",
          "type": "bool"
        },
        {
          "internalType": "uint256",
          "name": "_increment",
          "type": "uint256"
        },
        {
          "internalType": "uint256",
          "name": "_maxTarget",
          "type": "uint256"
        },
        {
          "internalType": "uint256",
          "name": "_minTarget",
          "type": "uint256"
        },
        {
          "internalType": "uint32",
          "name": "_buffer",
          "type": "uint32"
        }
      ],
      "name": "setAdjustment",
      "outputs": [],
      "stateMutability": "nonpayable",
      "type": "function"
    },
    {
      "inputs": [
        {
          "internalType": "enum Bond.PARAMETER",
          "name": "_parameter",
          "type": "uint8"
        },
        {
          "internalType": "uint256",
          "name": "_input",
          "type": "uint256"
        }
      ],
      "name": "setBondTerms",
      "outputs": [],
      "stateMutability": "nonpayable",
      "type": "function"
    },
    {
      "inputs": [
        {
          "internalType": "address",
          "name": "_staking",
          "type": "address"
        }
      ],
      "name": "setStaking",
      "outputs": [],
      "stateMutability": "nonpayable",
      "type": "function"
    },
    {
      "inputs": [
        {
          "internalType": "address",
          "name": "_tavCalculator",
          "type": "address"
        }
      ],
      "name": "setTAVCalculator",
      "outputs": [],
      "stateMutability": "nonpayable",
      "type": "function"
    },
    {
      "inputs": [],
      "name": "staking",
      "outputs": [
        {
          "internalType": "contract IStaking",
          "name": "",
          "type": "address"
        }
      ],
      "stateMutability": "view",
      "type": "function"
    },
    {
      "inputs": [],
      "name": "tavCalculator",
      "outputs": [
        {
          "internalType": "contract ITAVCalculator",
          "name": "",
          "type": "address"
        }
      ],
      "stateMutability": "view",
      "type": "function"
    },
    {
      "inputs": [],
      "name": "terms",
      "outputs": [
        {
          "internalType": "uint256",
          "name": "controlVariable",
          "type": "uint256"
        },
        {
          "internalType": "uint256",
          "name": "minimumPrice",
          "type": "uint256"
        },
        {
          "internalType": "uint256",
          "name": "maxPayout",
          "type": "uint256"
        },
        {
          "internalType": "uint256",
          "name": "fee",
          "type": "uint256"
        },
        {
          "internalType": "uint256",
          "name": "maxDebt",
          "type": "uint256"
        },
        {
          "internalType": "uint32",
          "name": "vestingTerm",
          "type": "uint32"
        },
        {
          "internalType": "uint256",
          "name": "minimumPayout",
          "type": "uint256"
        }
      ],
      "stateMutability": "view",
      "type": "function"
    },
    {
      "inputs": [],
      "name": "totalDebt",
      "outputs": [
        {
          "internalType": "uint256",
          "name": "",
          "type": "uint256"
        }
      ],
      "stateMutability": "view",
      "type": "function"
    },
    {
      "inputs": [
        {
          "internalType": "address",
          "name": "newOwner",
          "type": "address"
        }
      ],
      "name": "transferOwnership",
      "outputs": [],
      "stateMutability": "nonpayable",
      "type": "function"
    },
    {
      "inputs": [],
      "name": "treasury",
      "outputs": [
        {
          "internalType": "contract ITreasury",
          "name": "",
          "type": "address"
        }
      ],
      "stateMutability": "view",
      "type": "function"
    }
  ],
  "bytecode": "0x60e06040523480156200001157600080fd5b5060405162005912380380620059128339818101604052810190620000379190620003f6565b620000576200004b620002fc60201b60201c565b6200030460201b60201c565b600073ffffffffffffffffffffffffffffffffffffffff168473ffffffffffffffffffffffffffffffffffffffff1614156200009257600080fd5b8373ffffffffffffffffffffffffffffffffffffffff1660808173ffffffffffffffffffffffffffffffffffffffff1660601b81525050600073ffffffffffffffffffffffffffffffffffffffff168373ffffffffffffffffffffffffffffffffffffffff1614156200010457600080fd5b82600160006101000a81548173ffffffffffffffffffffffffffffffffffffffff021916908373ffffffffffffffffffffffffffffffffffffffff160217905550600073ffffffffffffffffffffffffffffffffffffffff168273ffffffffffffffffffffffffffffffffffffffff1614156200018057600080fd5b8173ffffffffffffffffffffffffffffffffffffffff1660a08173ffffffffffffffffffffffffffffffffffffffff1660601b81525050600073ffffffffffffffffffffffffffffffffffffffff168173ffffffffffffffffffffffffffffffffffffffff161415620001f257600080fd5b8073ffffffffffffffffffffffffffffffffffffffff1660c08173ffffffffffffffffffffffffffffffffffffffff1660601b81525050600160009054906101000a900473ffffffffffffffffffffffffffffffffffffffff1673ffffffffffffffffffffffffffffffffffffffff1663095ea7b383722cd76fe086b93ce2f768a00b22a000000000006040518363ffffffff1660e01b81526004016200029b929190620004b0565b602060405180830381600087803b158015620002b657600080fd5b505af1158015620002cb573d6000803e3d6000fd5b505050506040513d601f19601f82011682018060405250810190620002f1919062000462565b50505050506200056f565b600033905090565b60008060009054906101000a900473ffffffffffffffffffffffffffffffffffffffff169050816000806101000a81548173ffffffffffffffffffffffffffffffffffffffff021916908373ffffffffffffffffffffffffffffffffffffffff1602179055508173ffffffffffffffffffffffffffffffffffffffff168173ffffffffffffffffffffffffffffffffffffffff167f8be0079c531659141344cd1fd0a4f28419497f9722a3daafe3b4186f6b6457e060405160405180910390a35050565b600081519050620003d9816200053b565b92915050565b600081519050620003f08162000555565b92915050565b600080600080608085870312156200040d57600080fd5b60006200041d87828801620003c8565b94505060206200043087828801620003c8565b93505060406200044387828801620003c8565b92505060606200045687828801620003c8565b91505092959194509250565b6000602082840312156200047557600080fd5b60006200048584828501620003df565b91505092915050565b6200049981620004dd565b82525050565b620004aa8162000527565b82525050565b6000604082019050620004c760008301856200048e565b620004d660208301846200049f565b9392505050565b6000620004ea82620004fd565b9050919050565b60008115159050919050565b600073ffffffffffffffffffffffffffffffffffffffff82169050919050565b6000819050919050565b600062000534826200051d565b9050919050565b6200054681620004dd565b81146200055257600080fd5b50565b6200056081620004f1565b81146200056c57600080fd5b50565b60805160601c60a05160601c60c05160601c61532b620005e7600039600081816118d801528181611dad0152611f83015260008181611136015261181c01526000818161115a015281816118fa01528181611c8401528181611dd301528181612076015281816125b301526129c2015261532b6000f3fe608060405234801561001057600080fd5b50600436106101e55760003560e01c80638da5cb5b1161010f578063d5025625116100a2578063f2fde38b11610071578063f2fde38b14610584578063f5c2ab5b146105a0578063fb87b272146105be578063fc7b9c18146105da576101e5565b8063d502562514610506578063d7ccfb0b1461052a578063e0176de814610548578063e392a26214610566576101e5565b8063b4abccba116100de578063b4abccba14610469578063cd1234b314610499578063cea55f57146104cc578063cf37a891146104ea576101e5565b80638da5cb5b146103e15780638dbdbe6d146103ff5780638ff390991461042f57806398fabd3a1461044b576101e5565b806361d027b3116101875780637927ebf8116101565780637927ebf81461035957806379cdf62014610389578063844b5c7c146103a7578063868a352b146103c5576101e5565b806361d027b3146102f55780636d90e5b814610313578063715018a614610331578063759076e51461033b576101e5565b80631feed31f116101c35780631feed31f14610254578063451ee4a1146102845780634cf088d9146102a7578063507930ec146102c5576101e5565b8063016a4284146101ea57806301b88ee8146102085780631e321a0f14610238575b600080fd5b6101f26105f8565b6040516101ff9190614342565b60405180910390f35b610222600480360381019061021d9190613926565b61061e565b60405161022f919061474f565b60405180910390f35b610252600480360381019061024d9190613a54565b6106ae565b005b61026e6004803603810190610269919061394f565b610b80565b60405161027b919061474f565b60405180910390f35b61028c610f95565b60405161029e969594939291906142e1565b60405180910390f35b6102af610fec565b6040516102bc919061435d565b60405180910390f35b6102df60048036038101906102da9190613926565b611012565b6040516102ec919061474f565b60405180910390f35b6102fd611134565b60405161030a9190614393565b60405180910390f35b61031b611158565b6040516103289190614342565b60405180910390f35b61033961117c565b005b610343611204565b604051610350919061474f565b60405180910390f35b610373600480360381019061036e9190613a90565b611227565b604051610380919061474f565b60405180910390f35b610391611283565b60405161039e9190614378565b60405180910390f35b6103af6112a9565b6040516103bc919061474f565b60405180910390f35b6103df60048036038101906103da91906139b4565b6112b8565b005b6103e961152f565b6040516103f69190614222565b60405180910390f35b61041960048036038101906104149190613ae2565b611558565b604051610426919061474f565b60405180910390f35b61044960048036038101906104449190613926565b611b55565b005b610453611dab565b6040516104609190614222565b60405180910390f35b610483600480360381019061047e9190613a2b565b611dcf565b60405161049091906142c6565b60405180910390f35b6104b360048036038101906104ae9190613926565b612021565b6040516104c394939291906148a7565b60405180910390f35b6104d4612071565b6040516104e1919061474f565b60405180910390f35b61050460048036038101906104ff9190613b31565b61215c565b005b61050e61243b565b6040516105219796959493929190614838565b60405180910390f35b61053261247b565b60405161053f919061474f565b60405180910390f35b6105506125a2565b60405161055d919061474f565b60405180910390f35b61056e61266c565b60405161057b919061474f565b60405180910390f35b61059e60048036038101906105999190613926565b6126f3565b005b6105a86127eb565b6040516105b591906148ec565b60405180910390f35b6105d860048036038101906105d39190613926565b612801565b005b6105e2612974565b6040516105ef919061474f565b60405180910390f35b600160009054906101000a900473ffffffffffffffffffffffffffffffffffffffff1681565b60008061062a83611012565b90506000601060008573ffffffffffffffffffffffffffffffffffffffff1673ffffffffffffffffffffffffffffffffffffffff1681526020019081526020016000206000015490506127108210610684578092506106a7565b61271061069a838361297a90919063ffffffff16565b6106a491906149c9565b92505b5050919050565b6106b66129b1565b73ffffffffffffffffffffffffffffffffffffffff166106d461152f565b73ffffffffffffffffffffffffffffffffffffffff161461072a576040517f08c379a000000000000000000000000000000000000000000000000000000000815260040161072190614599565b60405180910390fd5b60006005811115610764577f4e487b7100000000000000000000000000000000000000000000000000000000600052602160045260246000fd5b82600581111561079d577f4e487b7100000000000000000000000000000000000000000000000000000000600052602160045260246000fd5b1415610812576201fa408110156107e9576040517f08c379a00000000000000000000000000000000000000000000000000000000081526004016107e0906145d9565b60405180910390fd5b80600460050160006101000a81548163ffffffff021916908363ffffffff160217905550610b43565b6001600581111561084c577f4e487b7100000000000000000000000000000000000000000000000000000000600052602160045260246000fd5b826005811115610885577f4e487b7100000000000000000000000000000000000000000000000000000000600052602160045260246000fd5b14156108df576103e88111156108d0576040517f08c379a00000000000000000000000000000000000000000000000000000000081526004016108c790614479565b60405180910390fd5b80600460020181905550610b42565b60026005811115610919577f4e487b7100000000000000000000000000000000000000000000000000000000600052602160045260246000fd5b826005811115610952577f4e487b7100000000000000000000000000000000000000000000000000000000600052602160045260246000fd5b14156109ac5761271081111561099d576040517f08c379a0000000000000000000000000000000000000000000000000000000008152600401610994906143f9565b60405180910390fd5b80600460030181905550610b41565b600360058111156109e6577f4e487b7100000000000000000000000000000000000000000000000000000000600052602160045260246000fd5b826005811115610a1f577f4e487b7100000000000000000000000000000000000000000000000000000000600052602160045260246000fd5b1415610a3357806004800181905550610b40565b60046005811115610a6d577f4e487b7100000000000000000000000000000000000000000000000000000000600052602160045260246000fd5b826005811115610aa6577f4e487b7100000000000000000000000000000000000000000000000000000000600052602160045260246000fd5b1415610abb5780600460010181905550610b3f565b600580811115610af4577f4e487b7100000000000000000000000000000000000000000000000000000000600052602160045260246000fd5b826005811115610b2d577f4e487b7100000000000000000000000000000000000000000000000000000000600052602160045260246000fd5b1415610b3e57806004600601819055505b5b5b5b5b5b7f4e3705d256225a38255bfb7114e7fa4b6b2939ab1f71639f57e06928858646c58282604051610b749291906143ae565b60405180910390a15050565b60008273ffffffffffffffffffffffffffffffffffffffff163373ffffffffffffffffffffffffffffffffffffffff1614610bf0576040517f08c379a0000000000000000000000000000000000000000000000000000000008152600401610be790614699565b60405180910390fd5b6000601060008573ffffffffffffffffffffffffffffffffffffffff1673ffffffffffffffffffffffffffffffffffffffff16815260200190815260200160002060405180608001604052908160008201548152602001600182015481526020016002820160009054906101000a900463ffffffff1663ffffffff1663ffffffff1681526020016002820160049054906101000a900463ffffffff1663ffffffff1663ffffffff168152505090506000610ca985611012565b90506127108110610da157601060008673ffffffffffffffffffffffffffffffffffffffff1673ffffffffffffffffffffffffffffffffffffffff16815260200190815260200160002060008082016000905560018201600090556002820160006101000a81549063ffffffff02191690556002820160046101000a81549063ffffffff021916905550508473ffffffffffffffffffffffffffffffffffffffff167f51c99f515c87b0d95ba97f616edd182e8f161c4932eac17c6fefe9dab58b77b183600001516000604051610d819291906147a1565b60405180910390a2610d98858584600001516129b9565b92505050610f8f565b6000612710610dbd83856000015161297a90919063ffffffff16565b610dc791906149c9565b90506040518060800160405280610deb838660000151612b2e90919063ffffffff16565b8152602001846020015181526020014263ffffffff168152602001610e3f610e2686604001514263ffffffff16612b5190919063ffffffff16565b866060015163ffffffff16612b5190919063ffffffff16565b63ffffffff16815250601060008873ffffffffffffffffffffffffffffffffffffffff1673ffffffffffffffffffffffffffffffffffffffff168152602001908152602001600020600082015181600001556020820151816001015560408201518160020160006101000a81548163ffffffff021916908363ffffffff16021790555060608201518160020160046101000a81548163ffffffff021916908363ffffffff1602179055509050508573ffffffffffffffffffffffffffffffffffffffff167f51c99f515c87b0d95ba97f616edd182e8f161c4932eac17c6fefe9dab58b77b182601060008a73ffffffffffffffffffffffffffffffffffffffff1673ffffffffffffffffffffffffffffffffffffffff16815260200190815260200160002060000154604051610f769291906147ca565b60405180910390a2610f898686836129b9565b93505050505b92915050565b600b8060000160009054906101000a900460ff16908060010154908060020154908060030154908060040160009054906101000a900463ffffffff16908060040160049054906101000a900463ffffffff16905086565b600260009054906101000a900473ffffffffffffffffffffffffffffffffffffffff1681565b600080601060008473ffffffffffffffffffffffffffffffffffffffff1673ffffffffffffffffffffffffffffffffffffffff16815260200190815260200160002060405180608001604052908160008201548152602001600182015481526020016002820160009054906101000a900463ffffffff1663ffffffff1663ffffffff1681526020016002820160049054906101000a900463ffffffff1663ffffffff1663ffffffff1681525050905060006110e082604001514263ffffffff16612b5190919063ffffffff16565b63ffffffff1690506000826060015163ffffffff169050600081111561112757806111166127108461297a90919063ffffffff16565b61112091906149c9565b935061112c565b600093505b505050919050565b7f000000000000000000000000000000000000000000000000000000000000000081565b7f000000000000000000000000000000000000000000000000000000000000000081565b6111846129b1565b73ffffffffffffffffffffffffffffffffffffffff166111a261152f565b73ffffffffffffffffffffffffffffffffffffffff16146111f8576040517f08c379a00000000000000000000000000000000000000000000000000000000081526004016111ef90614599565b60405180910390fd5b6112026000612b80565b565b600061122261121161266c565b601154612b2e90919063ffffffff16565b905090565b600061127c633b9aca008061126461125f8661125a662386f26fc1000061124c61247b565b61297a90919063ffffffff16565b612c44565b612e4b565b61126e91906149c9565b61297a90919063ffffffff16565b9050919050565b600360009054906101000a900473ffffffffffffffffffffffffffffffffffffffff1681565b60006112b361247b565b905090565b6112c06129b1565b73ffffffffffffffffffffffffffffffffffffffff166112de61152f565b73ffffffffffffffffffffffffffffffffffffffff1614611334576040517f08c379a000000000000000000000000000000000000000000000000000000000815260040161132b90614599565b60405180910390fd5b6103e8611350601960046000015461297a90919063ffffffff16565b61135a91906149c9565b84111561139c576040517f08c379a0000000000000000000000000000000000000000000000000000000008152600401611393906144d9565b60405180910390fd5b60fa8310156113e0576040517f08c379a00000000000000000000000000000000000000000000000000000000081526004016113d790614419565b60405180910390fd5b60fa821115611424576040517f08c379a000000000000000000000000000000000000000000000000000000000815260040161141b90614419565b60405180910390fd5b6040518060c0016040528086151581526020018581526020018481526020018381526020018263ffffffff1681526020014263ffffffff16815250600b60008201518160000160006101000a81548160ff02191690831515021790555060208201518160010155604082015181600201556060820151816003015560808201518160040160006101000a81548163ffffffff021916908363ffffffff16021790555060a08201518160040160046101000a81548163ffffffff021916908363ffffffff1602179055509050507fa7baed62dbecf9e27c728fe789b5834dd9c642ff4df89d99851a735cc4a573da600b6040516115209190614719565b60405180910390a15050505050565b60008060009054906101000a900473ffffffffffffffffffffffffffffffffffffffff16905090565b60008073ffffffffffffffffffffffffffffffffffffffff168273ffffffffffffffffffffffffffffffffffffffff1614156115c9576040517f08c379a00000000000000000000000000000000000000000000000000000000081526004016115c090614439565b60405180910390fd5b8173ffffffffffffffffffffffffffffffffffffffff163373ffffffffffffffffffffffffffffffffffffffff1614611637576040517f08c379a000000000000000000000000000000000000000000000000000000000815260040161162e906146d9565b60405180910390fd5b61163f612e89565b60006116496112a9565b90508084101561168e576040517f08c379a0000000000000000000000000000000000000000000000000000000008152600401611685906145b9565b60405180910390fd5b600061169986611227565b905060048001546116b587601154612ece90919063ffffffff16565b11156116f6576040517f08c379a00000000000000000000000000000000000000000000000000000000081526004016116ed90614519565b60405180910390fd5b6116fe612ef1565b811015611740576040517f08c379a000000000000000000000000000000000000000000000000000000000815260040161173790614559565b60405180910390fd5b6117486125a2565b81111561178a576040517f08c379a000000000000000000000000000000000000000000000000000000000815260040161178190614679565b60405180910390fd5b6000620186a06117a86004600301548461297a90919063ffffffff16565b6117b291906149c9565b905060006117c98284612ece90919063ffffffff16565b905061181a33308a600160009054906101000a900473ffffffffffffffffffffffffffffffffffffffff1673ffffffffffffffffffffffffffffffffffffffff16612efe909392919063ffffffff16565b7f000000000000000000000000000000000000000000000000000000000000000073ffffffffffffffffffffffffffffffffffffffff1663bc157ac189600160009054906101000a900473ffffffffffffffffffffffffffffffffffffffff16846040518463ffffffff1660e01b81526004016118999392919061476a565b600060405180830381600087803b1580156118b357600080fd5b505af11580156118c7573d6000803e3d6000fd5b505050506000821461193f5761193e7f0000000000000000000000000000000000000000000000000000000000000000837f000000000000000000000000000000000000000000000000000000000000000073ffffffffffffffffffffffffffffffffffffffff16612f879092919063ffffffff16565b5b61195488601154612ece90919063ffffffff16565b60118190555060405180608001604052806119ba85601060008b73ffffffffffffffffffffffffffffffffffffffff1673ffffffffffffffffffffffffffffffffffffffff16815260200190815260200160002060000154612ece90919063ffffffff16565b81526020018581526020014263ffffffff168152602001600460050160009054906101000a900463ffffffff1663ffffffff16815250601060008873ffffffffffffffffffffffffffffffffffffffff1673ffffffffffffffffffffffffffffffffffffffff168152602001908152602001600020600082015181600001556020820151816001015560408201518160020160006101000a81548163ffffffff021916908363ffffffff16021790555060608201518160020160046101000a81548163ffffffff021916908363ffffffff16021790555090505083611ac3600460050160009054906101000a900463ffffffff1663ffffffff1642612ece90919063ffffffff16565b847f1fec6dc81f140574bf43f6b1e420ae1dd47928b9d57db8cbd7b8611063b85ae58b604051611af3919061474f565b60405180910390a4611b03612071565b611b0b61247b565b611b136112a9565b7f375b221f40939bfd8f49723a17cf7bc6d576ebf72efe2cc3e991826f5b3f390a60405160405180910390a4611b4761300d565b829450505050509392505050565b611b5d6129b1565b73ffffffffffffffffffffffffffffffffffffffff16611b7b61152f565b73ffffffffffffffffffffffffffffffffffffffff1614611bd1576040517f08c379a0000000000000000000000000000000000000000000000000000000008152600401611bc890614599565b60405180910390fd5b600073ffffffffffffffffffffffffffffffffffffffff168173ffffffffffffffffffffffffffffffffffffffff161415611c41576040517f08c379a0000000000000000000000000000000000000000000000000000000008152600401611c3890614579565b60405180910390fd5b80600260006101000a81548173ffffffffffffffffffffffffffffffffffffffff021916908373ffffffffffffffffffffffffffffffffffffffff1602179055507f000000000000000000000000000000000000000000000000000000000000000073ffffffffffffffffffffffffffffffffffffffff1663095ea7b3600260009054906101000a900473ffffffffffffffffffffffffffffffffffffffff16722cd76fe086b93ce2f768a00b22a000000000006040518363ffffffff1660e01b8152600401611d12929190614274565b602060405180830381600087803b158015611d2c57600080fd5b505af1158015611d40573d6000803e3d6000fd5b505050506040513d601f19601f82011682018060405250810190611d64919061398b565b508073ffffffffffffffffffffffffffffffffffffffff167f9d6a6595abf9295f9870c0d2d5760179d6f9ac798af8db39a9e3c9f2fbd2daa060405160405180910390a250565b7f000000000000000000000000000000000000000000000000000000000000000081565b60007f000000000000000000000000000000000000000000000000000000000000000073ffffffffffffffffffffffffffffffffffffffff168273ffffffffffffffffffffffffffffffffffffffff161415611e60576040517f08c379a0000000000000000000000000000000000000000000000000000000008152600401611e5790614659565b60405180910390fd5b600160009054906101000a900473ffffffffffffffffffffffffffffffffffffffff1673ffffffffffffffffffffffffffffffffffffffff168273ffffffffffffffffffffffffffffffffffffffff161415611ef1576040517f08c379a0000000000000000000000000000000000000000000000000000000008152600401611ee8906144f9565b60405180910390fd5b60008273ffffffffffffffffffffffffffffffffffffffff166370a08231306040518263ffffffff1660e01b8152600401611f2c9190614222565b60206040518083038186803b158015611f4457600080fd5b505afa158015611f58573d6000803e3d6000fd5b505050506040513d601f19601f82011682018060405250810190611f7c9190613ab9565b9050611fc97f0000000000000000000000000000000000000000000000000000000000000000828573ffffffffffffffffffffffffffffffffffffffff16612f879092919063ffffffff16565b8273ffffffffffffffffffffffffffffffffffffffff167f11f0a001971cc33b9a8651a3368b34900c22a665504b5cabc3e0e9fdf59d98468260405161200f919061474f565b60405180910390a26001915050919050565b60106020528060005260406000206000915090508060000154908060010154908060020160009054906101000a900463ffffffff16908060020160049054906101000a900463ffffffff16905084565b6000807f000000000000000000000000000000000000000000000000000000000000000073ffffffffffffffffffffffffffffffffffffffff166318160ddd6040518163ffffffff1660e01b815260040160206040518083038186803b1580156120da57600080fd5b505afa1580156120ee573d6000803e3d6000fd5b505050506040513d601f19601f820116820180604052508101906121129190613ab9565b9050670de0b6b3a764000061214c612147612141633b9aca00612133611204565b61297a90919063ffffffff16565b84612c44565b612e4b565b61215691906149c9565b91505090565b6121646129b1565b73ffffffffffffffffffffffffffffffffffffffff1661218261152f565b73ffffffffffffffffffffffffffffffffffffffff16146121d8576040517f08c379a00000000000000000000000000000000000000000000000000000000081526004016121cf90614599565b60405180910390fd5b600060046000015414612220576040517f08c379a000000000000000000000000000000000000000000000000000000000815260040161221790614639565b60405180910390fd5b6000871015612264576040517f08c379a000000000000000000000000000000000000000000000000000000000815260040161225b90614619565b60405180910390fd5b6127108511156122a9576040517f08c379a00000000000000000000000000000000000000000000000000000000081526004016122a090614479565b60405180910390fd5b600a8163ffffffff1610156122f3576040517f08c379a00000000000000000000000000000000000000000000000000000000081526004016122ea906145d9565b60405180910390fd5b612710831115612338576040517f08c379a000000000000000000000000000000000000000000000000000000000815260040161232f906143f9565b60405180910390fd5b6040518060e001604052808881526020018781526020018681526020018481526020018381526020018263ffffffff168152602001858152506004600082015181600001556020820151816001015560408201518160020155606082015181600301556080820151816004015560a08201518160050160006101000a81548163ffffffff021916908363ffffffff16021790555060c0820151816006015590505042601260006101000a81548163ffffffff021916908363ffffffff1602179055507f2899dec725ced4d577fb04c303b13b67b1be87910c7aa7e4343a6462ac24f252600460405161242a9190614734565b60405180910390a150505050505050565b60048060000154908060010154908060020154908060030154908060040154908060050160009054906101000a900463ffffffff16908060060154905087565b600080600360009054906101000a900473ffffffffffffffffffffffffffffffffffffffff1673ffffffffffffffffffffffffffffffffffffffff1663ac3b992a6040518163ffffffff1660e01b815260040160206040518083038186803b1580156124e657600080fd5b505afa1580156124fa573d6000803e3d6000fd5b505050506040513d601f19601f8201168201806040525081019061251e9190613ab9565b9050600061254161252d612071565b60046000015461297a90919063ffffffff16565b61256e620186a06125606004600301548661297a90919063ffffffff16565b6131d890919063ffffffff16565b6125789190614939565b9050629896806125918383612ece90919063ffffffff16565b61259b91906149c9565b9250505090565b6000620186a061265d6004600201547f000000000000000000000000000000000000000000000000000000000000000073ffffffffffffffffffffffffffffffffffffffff166318160ddd6040518163ffffffff1660e01b815260040160206040518083038186803b15801561261757600080fd5b505afa15801561262b573d6000803e3d6000fd5b505050506040513d601f19601f8201168201806040525081019061264f9190613ab9565b61297a90919063ffffffff16565b61266791906149c9565b905090565b60008061269a601260009054906101000a900463ffffffff164263ffffffff16612b5190919063ffffffff16565b9050600460050160009054906101000a900463ffffffff1663ffffffff166126d38263ffffffff1660115461297a90919063ffffffff16565b6126dd91906149c9565b91506011548211156126ef5760115491505b5090565b6126fb6129b1565b73ffffffffffffffffffffffffffffffffffffffff1661271961152f565b73ffffffffffffffffffffffffffffffffffffffff161461276f576040517f08c379a000000000000000000000000000000000000000000000000000000000815260040161276690614599565b60405180910390fd5b600073ffffffffffffffffffffffffffffffffffffffff168173ffffffffffffffffffffffffffffffffffffffff1614156127df576040517f08c379a00000000000000000000000000000000000000000000000000000000081526004016127d690614459565b60405180910390fd5b6127e881612b80565b50565b601260009054906101000a900463ffffffff1681565b6128096129b1565b73ffffffffffffffffffffffffffffffffffffffff1661282761152f565b73ffffffffffffffffffffffffffffffffffffffff161461287d576040517f08c379a000000000000000000000000000000000000000000000000000000000815260040161287490614599565b60405180910390fd5b600073ffffffffffffffffffffffffffffffffffffffff168173ffffffffffffffffffffffffffffffffffffffff1614156128ed576040517f08c379a00000000000000000000000000000000000000000000000000000000081526004016128e490614579565b60405180910390fd5b80600360006101000a81548173ffffffffffffffffffffffffffffffffffffffff021916908373ffffffffffffffffffffffffffffffffffffffff1602179055508073ffffffffffffffffffffffffffffffffffffffff167f9d6a6595abf9295f9870c0d2d5760179d6f9ac798af8db39a9e3c9f2fbd2daa060405160405180910390a250565b60115481565b6000808314806129a257508183838561299391906149fa565b9250826129a091906149c9565b145b6129ab57600080fd5b92915050565b600033905090565b600082612a73577f000000000000000000000000000000000000000000000000000000000000000073ffffffffffffffffffffffffffffffffffffffff1663a9059cbb85846040518363ffffffff1660e01b8152600401612a1b92919061429d565b602060405180830381600087803b158015612a3557600080fd5b505af1158015612a49573d6000803e3d6000fd5b505050506040513d601f19601f82011682018060405250810190612a6d919061398b565b50612b24565b600260009054906101000a900473ffffffffffffffffffffffffffffffffffffffff1673ffffffffffffffffffffffffffffffffffffffff1663adc9772e85846040518363ffffffff1660e01b8152600401612ad092919061429d565b602060405180830381600087803b158015612aea57600080fd5b505af1158015612afe573d6000803e3d6000fd5b505050506040513d601f19601f82011682018060405250810190612b229190613ab9565b505b8190509392505050565b6000828284612b3d9190614a54565b9150811115612b4b57600080fd5b92915050565b60008263ffffffff168284612b669190614a88565b91508163ffffffff161115612b7a57600080fd5b92915050565b60008060009054906101000a900473ffffffffffffffffffffffffffffffffffffffff169050816000806101000a81548173ffffffffffffffffffffffffffffffffffffffff021916908373ffffffffffffffffffffffffffffffffffffffff1602179055508173ffffffffffffffffffffffffffffffffffffffff168173ffffffffffffffffffffffffffffffffffffffff167f8be0079c531659141344cd1fd0a4f28419497f9722a3daafe3b4186f6b6457e060405160405180910390a35050565b612c4c61384d565b60008211612c8f576040517f08c379a0000000000000000000000000000000000000000000000000000000008152600401612c86906144b9565b60405180910390fd5b6000831415612ccd57604051806020016040528060007bffffffffffffffffffffffffffffffffffffffffffffffffffffffff168152509050612e45565b71ffffffffffffffffffffffffffffffffffff80168311612d9557600082607060ff1685901b612cfd91906149c9565b90507bffffffffffffffffffffffffffffffffffffffffffffffffffffffff8016811115612d60576040517f08c379a0000000000000000000000000000000000000000000000000000000008152600401612d57906145f9565b60405180910390fd5b6040518060200160405280827bffffffffffffffffffffffffffffffffffffffffffffffffffffffff16815250915050612e45565b6000612db1846e01000000000000000000000000000085613222565b90507bffffffffffffffffffffffffffffffffffffffffffffffffffffffff8016811115612e14576040517f08c379a0000000000000000000000000000000000000000000000000000000008152600401612e0b906145f9565b60405180910390fd5b6040518060200160405280827bffffffffffffffffffffffffffffffffffffffffffffffffffffffff168152509150505b92915050565b60006612725dd1d243ab82600001517bffffffffffffffffffffffffffffffffffffffffffffffffffffffff16612e8291906149c9565b9050919050565b612ea5612e9461266c565b601154612b2e90919063ffffffff16565b60118190555042601260006101000a81548163ffffffff021916908363ffffffff160217905550565b6000828284612edd9190614939565b9150811015612eeb57600080fd5b92915050565b6000600460060154905090565b612f81846323b872dd60e01b858585604051602401612f1f9392919061423d565b604051602081830303815290604052907bffffffffffffffffffffffffffffffffffffffffffffffffffffffff19166020820180517bffffffffffffffffffffffffffffffffffffffffffffffffffffffff83818316178352505050506132f0565b50505050565b6130088363a9059cbb60e01b8484604051602401612fa692919061429d565b604051602081830303815290604052907bffffffffffffffffffffffffffffffffffffffffffffffffffffffff19166020820180517bffffffffffffffffffffffffffffffffffffffffffffffffffffffff83818316178352505050506132f0565b505050565b6000613052600b60040160009054906101000a900463ffffffff16600b60040160049054906101000a900463ffffffff1663ffffffff166133b790919063ffffffff16565b63ffffffff1690506000600b60010154141580156130705750804210155b156131d557600060046000015490506000819050600b60000160009054906101000a900460ff16156130f8576130b4600b6001015482612ece90919063ffffffff16565b9050600b6002015481106130f357600b60000160009054906101000a900460ff1615600b60000160006101000a81548160ff0219169083151502179055505b613150565b613110600b6001015482612b2e90919063ffffffff16565b9050600b60030154811161314f57600b60000160009054906101000a900460ff1615600b60000160006101000a81548160ff0219169083151502179055505b5b8060046000018190555042600b60040160046101000a81548163ffffffff021916908363ffffffff1602179055507fb923e581a0f83128e9e1d8297aa52b18d6744310476e0b54509c054cd7a93b2a8282600b60010154600b60000160009054906101000a900460ff166040516131ca94939291906147f3565b60405180910390a150505b50565b600061321a83836040518060400160405280601a81526020017f536166654d6174683a206469766973696f6e206279207a65726f0000000000008152506133e6565b905092915050565b60008060006132318686613449565b915091506000848061326c577f4e487b7100000000000000000000000000000000000000000000000000000000600052601260045260246000fd5b868809905082811115613289576001826132869190614a54565b91505b80836132959190614a54565b92508482106132d9576040517f08c379a00000000000000000000000000000000000000000000000000000000081526004016132d090614539565b60405180910390fd5b6132e48383876134e4565b93505050509392505050565b6000613352826040518060400160405280602081526020017f5361666545524332303a206c6f772d6c6576656c2063616c6c206661696c65648152508573ffffffffffffffffffffffffffffffffffffffff166136979092919063ffffffff16565b90506000815111156133b25780806020019051810190613372919061398b565b6133b1576040517f08c379a00000000000000000000000000000000000000000000000000000000081526004016133a8906146f9565b60405180910390fd5b5b505050565b60008263ffffffff1682846133cc919061498f565b91508163ffffffff1610156133e057600080fd5b92915050565b6000808311829061342d576040517f08c379a000000000000000000000000000000000000000000000000000000000815260040161342491906143d7565b60405180910390fd5b506000838561343c91906149c9565b9050809150509392505050565b60008060007fffffffffffffffffffffffffffffffffffffffffffffffffffffffffffffffff806134a3577f4e487b7100000000000000000000000000000000000000000000000000000000600052601260045260246000fd5b848609905083856134b491906149fa565b925082816134c29190614a54565b9150828110156134dc576001826134d99190614a54565b91505b509250929050565b600080600183196134f59190614939565b83169050808361350591906149c9565b9250808561351391906149c9565b9450600181600183196135269190614939565b61353091906149c9565b61353a9190614939565b8461354591906149fa565b856135509190614939565b9450600060019050808461356491906149fa565b60026135709190614a54565b8161357b91906149fa565b9050808461358991906149fa565b60026135959190614a54565b816135a091906149fa565b905080846135ae91906149fa565b60026135ba9190614a54565b816135c591906149fa565b905080846135d391906149fa565b60026135df9190614a54565b816135ea91906149fa565b905080846135f891906149fa565b60026136049190614a54565b8161360f91906149fa565b9050808461361d91906149fa565b60026136299190614a54565b8161363491906149fa565b9050808461364291906149fa565b600261364e9190614a54565b8161365991906149fa565b9050808461366791906149fa565b60026136739190614a54565b8161367e91906149fa565b9050808661368c91906149fa565b925050509392505050565b60606136a684846000856136af565b90509392505050565b6060824710156136f4576040517f08c379a00000000000000000000000000000000000000000000000000000000081526004016136eb90614499565b60405180910390fd5b6136fd856137c3565b61373c576040517f08c379a0000000000000000000000000000000000000000000000000000000008152600401613733906146b9565b60405180910390fd5b6000808673ffffffffffffffffffffffffffffffffffffffff168587604051613765919061420b565b60006040518083038185875af1925050503d80600081146137a2576040519150601f19603f3d011682016040523d82523d6000602084013e6137a7565b606091505b50915091506137b78282866137e6565b92505050949350505050565b6000808273ffffffffffffffffffffffffffffffffffffffff163b119050919050565b606083156137f657829050613846565b6000835111156138095782518084602001fd5b816040517f08c379a000000000000000000000000000000000000000000000000000000000815260040161383d91906143d7565b60405180910390fd5b9392505050565b604051806020016040528060007bffffffffffffffffffffffffffffffffffffffffffffffffffffffff1681525090565b60008135905061388d81615272565b92915050565b6000813590506138a281615289565b92915050565b6000815190506138b781615289565b92915050565b6000813590506138cc816152a0565b92915050565b6000813590506138e1816152b7565b92915050565b6000813590506138f6816152c7565b92915050565b60008151905061390b816152c7565b92915050565b600081359050613920816152de565b92915050565b60006020828403121561393857600080fd5b60006139468482850161387e565b91505092915050565b6000806040838503121561396257600080fd5b60006139708582860161387e565b925050602061398185828601613893565b9150509250929050565b60006020828403121561399d57600080fd5b60006139ab848285016138a8565b91505092915050565b600080600080600060a086880312156139cc57600080fd5b60006139da88828901613893565b95505060206139eb888289016138e7565b94505060406139fc888289016138e7565b9350506060613a0d888289016138e7565b9250506080613a1e88828901613911565b9150509295509295909350565b600060208284031215613a3d57600080fd5b6000613a4b848285016138bd565b91505092915050565b60008060408385031215613a6757600080fd5b6000613a75858286016138d2565b9250506020613a86858286016138e7565b9150509250929050565b600060208284031215613aa257600080fd5b6000613ab0848285016138e7565b91505092915050565b600060208284031215613acb57600080fd5b6000613ad9848285016138fc565b91505092915050565b600080600060608486031215613af757600080fd5b6000613b05868287016138e7565b9350506020613b16868287016138e7565b9250506040613b278682870161387e565b9150509250925092565b600080600080600080600060e0888a031215613b4c57600080fd5b6000613b5a8a828b016138e7565b9750506020613b6b8a828b016138e7565b9650506040613b7c8a828b016138e7565b9550506060613b8d8a828b016138e7565b9450506080613b9e8a828b016138e7565b93505060a0613baf8a828b016138e7565b92505060c0613bc08a828b01613911565b91505092959891949750929550565b613bd881614ae3565b82525050565b613be781614af5565b82525050565b613bf681614af5565b82525050565b6000613c0782614907565b613c11818561491d565b9350613c21818560208601614c26565b80840191505092915050565b613c3681614b60565b82525050565b613c4581614b84565b82525050565b613c5481614ba8565b82525050565b613c6381614bcc565b82525050565b613c7281614bf0565b82525050565b613c8181614c02565b82525050565b613c9081614c14565b82525050565b6000613ca182614912565b613cab8185614928565b9350613cbb818560208601614c26565b613cc481614d4e565b840191505092915050565b6000613cdc601c83614928565b9150613ce782614d79565b602082019050919050565b6000613cff601f83614928565b9150613d0a82614da2565b602082019050919050565b6000613d22600f83614928565b9150613d2d82614dcb565b602082019050919050565b6000613d45602683614928565b9150613d5082614df4565b604082019050919050565b6000613d68602083614928565b9150613d7382614e43565b602082019050919050565b6000613d8b602683614928565b9150613d9682614e6c565b604082019050919050565b6000613dae602683614928565b9150613db982614ebb565b604082019050919050565b6000613dd1601383614928565b9150613ddc82614f0a565b602082019050919050565b6000613df4600383614928565b9150613dff82614f33565b602082019050919050565b6000613e17601483614928565b9150613e2282614f5c565b602082019050919050565b6000613e3a601a83614928565b9150613e4582614f85565b602082019050919050565b6000613e5d600e83614928565b9150613e6882614fae565b602082019050919050565b6000613e80600283614928565b9150613e8b82614fd7565b602082019050919050565b6000613ea3602083614928565b9150613eae82615000565b602082019050919050565b6000613ec6602383614928565b9150613ed182615029565b604082019050919050565b6000613ee9602483614928565b9150613ef482615078565b604082019050919050565b6000613f0c601e83614928565b9150613f17826150c7565b602082019050919050565b6000613f2f601383614928565b9150613f3a826150f0565b602082019050919050565b6000613f52602083614928565b9150613f5d82615119565b602082019050919050565b6000613f75600383614928565b9150613f8082615142565b602082019050919050565b6000613f98600e83614928565b9150613fa38261516b565b602082019050919050565b6000613fbb600283614928565b9150613fc682615194565b602082019050919050565b6000613fde601d83614928565b9150613fe9826151bd565b602082019050919050565b6000614001600483614928565b915061400c826151e6565b602082019050919050565b6000614024602a83614928565b915061402f8261520f565b604082019050919050565b60c08201600080830154905061404f81614c59565b61405c6000860182613bde565b506001830154905061406d81614c73565b61407a60208601826141cf565b506002830154905061408b81614c73565b61409860408601826141cf565b50600383015490506140a981614c73565b6140b660608601826141cf565b50600483015490506140c781614c8d565b6140d460808601826141ed565b506140de81614ca7565b6140eb60a08601826141ed565b5050505050565b60e08201600080830154905061410781614c73565b61411460008601826141cf565b506001830154905061412581614c73565b61413260208601826141cf565b506002830154905061414381614c73565b61415060408601826141cf565b506003830154905061416181614c73565b61416e60608601826141cf565b506004830154905061417f81614c73565b61418c60808601826141cf565b506005830154905061419d81614c8d565b6141aa60a08601826141ed565b50600683015490506141bb81614c73565b6141c860c08601826141cf565b5050505050565b6141d881614b46565b82525050565b6141e781614b46565b82525050565b6141f681614b50565b82525050565b61420581614b50565b82525050565b60006142178284613bfc565b915081905092915050565b60006020820190506142376000830184613bcf565b92915050565b60006060820190506142526000830186613bcf565b61425f6020830185613bcf565b61426c60408301846141de565b949350505050565b60006040820190506142896000830185613bcf565b6142966020830184613c87565b9392505050565b60006040820190506142b26000830185613bcf565b6142bf60208301846141de565b9392505050565b60006020820190506142db6000830184613bed565b92915050565b600060c0820190506142f66000830189613bed565b61430360208301886141de565b61431060408301876141de565b61431d60608301866141de565b61432a60808301856141fc565b61433760a08301846141fc565b979650505050505050565b60006020820190506143576000830184613c2d565b92915050565b60006020820190506143726000830184613c3c565b92915050565b600060208201905061438d6000830184613c4b565b92915050565b60006020820190506143a86000830184613c5a565b92915050565b60006040820190506143c36000830185613c69565b6143d060208301846141de565b9392505050565b600060208201905081810360008301526143f18184613c96565b905092915050565b6000602082019050818103600083015261441281613ccf565b9050919050565b6000602082019050818103600083015261443281613cf2565b9050919050565b6000602082019050818103600083015261445281613d15565b9050919050565b6000602082019050818103600083015261447281613d38565b9050919050565b6000602082019050818103600083015261449281613d5b565b9050919050565b600060208201905081810360008301526144b281613d7e565b9050919050565b600060208201905081810360008301526144d281613da1565b9050919050565b600060208201905081810360008301526144f281613dc4565b9050919050565b6000602082019050818103600083015261451281613de7565b9050919050565b6000602082019050818103600083015261453281613e0a565b9050919050565b6000602082019050818103600083015261455281613e2d565b9050919050565b6000602082019050818103600083015261457281613e50565b9050919050565b6000602082019050818103600083015261459281613e73565b9050919050565b600060208201905081810360008301526145b281613e96565b9050919050565b600060208201905081810360008301526145d281613eb9565b9050919050565b600060208201905081810360008301526145f281613edc565b9050919050565b6000602082019050818103600083015261461281613eff565b9050919050565b6000602082019050818103600083015261463281613f22565b9050919050565b6000602082019050818103600083015261465281613f45565b9050919050565b6000602082019050818103600083015261467281613f68565b9050919050565b6000602082019050818103600083015261469281613f8b565b9050919050565b600060208201905081810360008301526146b281613fae565b9050919050565b600060208201905081810360008301526146d281613fd1565b9050919050565b600060208201905081810360008301526146f281613ff4565b9050919050565b6000602082019050818103600083015261471281614017565b9050919050565b600060c08201905061472e600083018461403a565b92915050565b600060e08201905061474960008301846140f2565b92915050565b600060208201905061476460008301846141de565b92915050565b600060608201905061477f60008301866141de565b61478c6020830185613bcf565b61479960408301846141de565b949350505050565b60006040820190506147b660008301856141de565b6147c36020830184613c78565b9392505050565b60006040820190506147df60008301856141de565b6147ec60208301846141de565b9392505050565b600060808201905061480860008301876141de565b61481560208301866141de565b61482260408301856141de565b61482f6060830184613bed565b95945050505050565b600060e08201905061484d600083018a6141de565b61485a60208301896141de565b61486760408301886141de565b61487460608301876141de565b61488160808301866141de565b61488e60a08301856141fc565b61489b60c08301846141de565b98975050505050505050565b60006080820190506148bc60008301876141de565b6148c960208301866141de565b6148d660408301856141fc565b6148e360608301846141fc565b95945050505050565b600060208201905061490160008301846141fc565b92915050565b600081519050919050565b600081519050919050565b600081905092915050565b600082825260208201905092915050565b600061494482614b46565b915061494f83614b46565b9250827fffffffffffffffffffffffffffffffffffffffffffffffffffffffffffffffff0382111561498457614983614cc1565b5b828201905092915050565b600061499a82614b50565b91506149a583614b50565b92508263ffffffff038211156149be576149bd614cc1565b5b828201905092915050565b60006149d482614b46565b91506149df83614b46565b9250826149ef576149ee614cf0565b5b828204905092915050565b6000614a0582614b46565b9150614a1083614b46565b9250817fffffffffffffffffffffffffffffffffffffffffffffffffffffffffffffffff0483118215151615614a4957614a48614cc1565b5b828202905092915050565b6000614a5f82614b46565b9150614a6a83614b46565b925082821015614a7d57614a7c614cc1565b5b828203905092915050565b6000614a9382614b50565b9150614a9e83614b50565b925082821015614ab157614ab0614cc1565b5b828203905092915050565b600060ff82169050919050565b6000819050919050565b600063ffffffff82169050919050565b6000614aee82614b26565b9050919050565b60008115159050919050565b6000614b0c82614ae3565b9050919050565b6000819050614b218261525e565b919050565b600073ffffffffffffffffffffffffffffffffffffffff82169050919050565b6000819050919050565b600063ffffffff82169050919050565b6000614b6b82614b72565b9050919050565b6000614b7d82614b26565b9050919050565b6000614b8f82614b96565b9050919050565b6000614ba182614b26565b9050919050565b6000614bb382614bba565b9050919050565b6000614bc582614b26565b9050919050565b6000614bd782614bde565b9050919050565b6000614be982614b26565b9050919050565b6000614bfb82614b13565b9050919050565b6000614c0d82614b46565b9050919050565b6000614c1f82614b46565b9050919050565b60005b83811015614c44578082015181840152602081019050614c29565b83811115614c53576000848401525b50505050565b6000614c6c614c6783614d5f565b614abc565b9050919050565b6000614c86614c8183614d5f565b614ac9565b9050919050565b6000614ca0614c9b83614d5f565b614ad3565b9050919050565b6000614cba614cb583614d6c565b614ad3565b9050919050565b7f4e487b7100000000000000000000000000000000000000000000000000000000600052601160045260246000fd5b7f4e487b7100000000000000000000000000000000000000000000000000000000600052601260045260246000fd5b7f4e487b7100000000000000000000000000000000000000000000000000000000600052602160045260246000fd5b6000601f19601f8301169050919050565b60008160001c9050919050565b60008160201c9050919050565b7f44414f206665652063616e6e6f7420657863656564207061796f757400000000600082015250565b7f4e6578742041646a7573746d656e7420636f756c64206265206c6f636b656400600082015250565b7f496e76616c696420616464726573730000000000000000000000000000000000600082015250565b7f4f776e61626c653a206e6577206f776e657220697320746865207a65726f206160008201527f6464726573730000000000000000000000000000000000000000000000000000602082015250565b7f5061796f75742063616e6e6f742062652061626f766520312070657263656e74600082015250565b7f416464726573733a20696e73756666696369656e742062616c616e636520666f60008201527f722063616c6c0000000000000000000000000000000000000000000000000000602082015250565b7f4669786564506f696e743a3a6672616374696f6e3a206469766973696f6e206260008201527f79207a65726f0000000000000000000000000000000000000000000000000000602082015250565b7f496e6372656d656e7420746f6f206c6172676500000000000000000000000000600082015250565b7f4e41500000000000000000000000000000000000000000000000000000000000600082015250565b7f4d61782063617061636974792072656163686564000000000000000000000000600082015250565b7f46756c6c4d6174683a3a6d756c4469763a206f766572666c6f77000000000000600082015250565b7f426f6e6420746f6f20736d616c6c000000000000000000000000000000000000600082015250565b7f4941000000000000000000000000000000000000000000000000000000000000600082015250565b7f4f776e61626c653a2063616c6c6572206973206e6f7420746865206f776e6572600082015250565b7f536c697070616765206c696d69743a206d6f7265207468616e206d617820707260008201527f6963650000000000000000000000000000000000000000000000000000000000602082015250565b7f56657374696e67206d757374206265206c6f6e676572207468616e203336206860008201527f6f75727300000000000000000000000000000000000000000000000000000000602082015250565b7f4669786564506f696e743a3a6672616374696f6e3a206f766572666c6f770000600082015250565b7f43616e206c6f636b2061646a7573746d656e7400000000000000000000000000600082015250565b7f426f6e6473206d75737420626520696e697469616c697a65642066726f6d2030600082015250565b7f4e41540000000000000000000000000000000000000000000000000000000000600082015250565b7f426f6e6420746f6f206c61726765000000000000000000000000000000000000600082015250565b7f4e41000000000000000000000000000000000000000000000000000000000000600082015250565b7f416464726573733a2063616c6c20746f206e6f6e2d636f6e7472616374000000600082015250565b7f4c464e4100000000000000000000000000000000000000000000000000000000600082015250565b7f5361666545524332303a204552433230206f7065726174696f6e20646964206e60008201527f6f74207375636365656400000000000000000000000000000000000000000000602082015250565b6006811061526f5761526e614d1f565b5b50565b61527b81614ae3565b811461528657600080fd5b50565b61529281614af5565b811461529d57600080fd5b50565b6152a981614b01565b81146152b457600080fd5b50565b600681106152c457600080fd5b50565b6152d081614b46565b81146152db57600080fd5b50565b6152e781614b50565b81146152f257600080fd5b5056fea26469706673582212208d562e163760ae5bb8a621a52a7f7e5285f98f55a1de41cd0761eb2277a82a6864736f6c63430008040033",
  "linkReferences": {},
  "deployedLinkReferences": {}
}