{
  "_format": "hh-sol-artifact-1",
  "contractName": "Bond",
  "sourceName": "contracts/coreContracts/Bond.sol",
  "abi": [
    {
      "inputs": [
        {
          "internalType": "address",
          "name": "_ORFI",
          "type": "address"
        },
        {
          "internalType": "address",
          "name": "_principle",
          "type": "address"
        },
        {
          "internalType": "address",
          "name": "_treasury",
          "type": "address"
        },
        {
          "internalType": "address",
          "name": "_DAO",
          "type": "address"
        }
      ],
      "stateMutability": "nonpayable",
      "type": "constructor"
    },
    {
      "anonymous": false,
      "inputs": [
        {
          "indexed": false,
          "internalType": "uint256",
          "name": "deposit",
          "type": "uint256"
        },
        {
          "indexed": true,
          "internalType": "uint256",
          "name": "payout",
          "type": "uint256"
        },
        {
          "indexed": true,
          "internalType": "uint256",
          "name": "expires",
          "type": "uint256"
        },
        {
          "indexed": true,
          "internalType": "uint256",
          "name": "priceInUSD",
          "type": "uint256"
        }
      ],
      "name": "BondCreated",
      "type": "event"
    },
    {
      "anonymous": false,
      "inputs": [
        {
          "indexed": true,
          "internalType": "uint256",
          "name": "priceInUSD",
          "type": "uint256"
        },
        {
          "indexed": true,
          "internalType": "uint256",
          "name": "internalPrice",
          "type": "uint256"
        },
        {
          "indexed": true,
          "internalType": "uint256",
          "name": "debtRatio",
          "type": "uint256"
        }
      ],
      "name": "BondPriceChanged",
      "type": "event"
    },
    {
      "anonymous": false,
      "inputs": [
        {
          "indexed": true,
          "internalType": "address",
          "name": "recipient",
          "type": "address"
        },
        {
          "indexed": false,
          "internalType": "uint256",
          "name": "payout",
          "type": "uint256"
        },
        {
          "indexed": false,
          "internalType": "uint256",
          "name": "remaining",
          "type": "uint256"
        }
      ],
      "name": "BondRedeemed",
      "type": "event"
    },
    {
      "anonymous": false,
      "inputs": [
        {
          "indexed": false,
          "internalType": "uint256",
          "name": "initialBCV",
          "type": "uint256"
        },
        {
          "indexed": false,
          "internalType": "uint256",
          "name": "newBCV",
          "type": "uint256"
        },
        {
          "indexed": false,
          "internalType": "uint256",
          "name": "adjustment",
          "type": "uint256"
        },
        {
          "indexed": false,
          "internalType": "bool",
          "name": "addition",
          "type": "bool"
        }
      ],
      "name": "ControlVariableAdjustment",
      "type": "event"
    },
    {
      "anonymous": false,
      "inputs": [
        {
          "components": [
            {
              "internalType": "uint256",
              "name": "controlVariable",
              "type": "uint256"
            },
            {
              "internalType": "uint256",
              "name": "minimumPrice",
              "type": "uint256"
            },
            {
              "internalType": "uint256",
              "name": "maxPayout",
              "type": "uint256"
            },
            {
              "internalType": "uint256",
              "name": "fee",
              "type": "uint256"
            },
            {
              "internalType": "uint256",
              "name": "bondingRewardFee",
              "type": "uint256"
            },
            {
              "internalType": "uint256",
              "name": "maxDebt",
              "type": "uint256"
            },
            {
              "internalType": "uint32",
              "name": "vestingTerm",
              "type": "uint32"
            },
            {
              "internalType": "uint256",
              "name": "minimumPayout",
              "type": "uint256"
            }
          ],
          "indexed": false,
          "internalType": "struct Bond.Terms",
          "name": "terms",
          "type": "tuple"
        }
      ],
      "name": "InitTerms",
      "type": "event"
    },
    {
      "anonymous": false,
      "inputs": [
        {
          "indexed": true,
          "internalType": "address",
          "name": "tokenToRecover",
          "type": "address"
        },
        {
          "indexed": false,
          "internalType": "uint256",
          "name": "amount",
          "type": "uint256"
        }
      ],
      "name": "LogRecoverLostToken",
      "type": "event"
    },
    {
      "anonymous": false,
      "inputs": [
        {
          "components": [
            {
              "internalType": "bool",
              "name": "add",
              "type": "bool"
            },
            {
              "internalType": "uint256",
              "name": "rate",
              "type": "uint256"
            },
            {
              "internalType": "uint256",
              "name": "maxTarget",
              "type": "uint256"
            },
            {
              "internalType": "uint256",
              "name": "minTarget",
              "type": "uint256"
            },
            {
              "internalType": "uint32",
              "name": "buffer",
              "type": "uint32"
            },
            {
              "internalType": "uint32",
              "name": "lastTime",
              "type": "uint32"
            }
          ],
          "indexed": false,
          "internalType": "struct Bond.Adjust",
          "name": "adjust",
          "type": "tuple"
        }
      ],
      "name": "LogSetAdjustment",
      "type": "event"
    },
    {
      "anonymous": false,
      "inputs": [
        {
          "indexed": true,
          "internalType": "address",
          "name": "stakingContract",
          "type": "address"
        }
      ],
      "name": "LogSetStaking",
      "type": "event"
    },
    {
      "anonymous": false,
      "inputs": [
        {
          "indexed": false,
          "internalType": "enum Bond.PARAMETER",
          "name": "param",
          "type": "uint8"
        },
        {
          "indexed": false,
          "internalType": "uint256",
          "name": "value",
          "type": "uint256"
        }
      ],
      "name": "LogSetTerms",
      "type": "event"
    },
    {
      "anonymous": false,
      "inputs": [
        {
          "indexed": true,
          "internalType": "address",
          "name": "tavCalculatorContract",
          "type": "address"
        }
      ],
      "name": "LogTAVCalculator",
      "type": "event"
    },
    {
      "anonymous": false,
      "inputs": [
        {
          "indexed": true,
          "internalType": "address",
          "name": "previousOwner",
          "type": "address"
        },
        {
          "indexed": true,
          "internalType": "address",
          "name": "newOwner",
          "type": "address"
        }
      ],
      "name": "OwnershipTransferred",
      "type": "event"
    },
    {
      "inputs": [],
      "name": "DAO",
      "outputs": [
        {
          "internalType": "address",
          "name": "",
          "type": "address"
        }
      ],
      "stateMutability": "view",
      "type": "function"
    },
    {
      "inputs": [],
      "name": "ORFI",
      "outputs": [
        {
          "internalType": "contract IERC20",
          "name": "",
          "type": "address"
        }
      ],
      "stateMutability": "view",
      "type": "function"
    },
    {
      "inputs": [],
      "name": "adjustment",
      "outputs": [
        {
          "internalType": "bool",
          "name": "add",
          "type": "bool"
        },
        {
          "internalType": "uint256",
          "name": "rate",
          "type": "uint256"
        },
        {
          "internalType": "uint256",
          "name": "maxTarget",
          "type": "uint256"
        },
        {
          "internalType": "uint256",
          "name": "minTarget",
          "type": "uint256"
        },
        {
          "internalType": "uint32",
          "name": "buffer",
          "type": "uint32"
        },
        {
          "internalType": "uint32",
          "name": "lastTime",
          "type": "uint32"
        }
      ],
      "stateMutability": "view",
      "type": "function"
    },
    {
      "inputs": [
        {
          "internalType": "address",
          "name": "",
          "type": "address"
        }
      ],
      "name": "bondInfo",
      "outputs": [
        {
          "internalType": "uint256",
          "name": "payout",
          "type": "uint256"
        },
        {
          "internalType": "uint256",
          "name": "pricePaid",
          "type": "uint256"
        },
        {
          "internalType": "uint32",
          "name": "lastTime",
          "type": "uint32"
        },
        {
          "internalType": "uint32",
          "name": "vesting",
          "type": "uint32"
        }
      ],
      "stateMutability": "view",
      "type": "function"
    },
    {
      "inputs": [],
      "name": "bondPrice",
      "outputs": [
        {
          "internalType": "uint256",
          "name": "price_",
          "type": "uint256"
        }
      ],
      "stateMutability": "view",
      "type": "function"
    },
    {
      "inputs": [],
      "name": "bondPriceInUSD",
      "outputs": [
        {
          "internalType": "uint256",
          "name": "price_",
          "type": "uint256"
        }
      ],
      "stateMutability": "view",
      "type": "function"
    },
    {
      "inputs": [],
      "name": "bondingReward",
      "outputs": [
        {
          "internalType": "uint256",
          "name": "",
          "type": "uint256"
        }
      ],
      "stateMutability": "view",
      "type": "function"
    },
    {
      "inputs": [],
      "name": "calculateBondingReward",
      "outputs": [
        {
          "internalType": "uint256",
          "name": "bondingReward_",
          "type": "uint256"
        }
      ],
      "stateMutability": "view",
      "type": "function"
    },
    {
      "inputs": [],
      "name": "currentDebt",
      "outputs": [
        {
          "internalType": "uint256",
          "name": "",
          "type": "uint256"
        }
      ],
      "stateMutability": "view",
      "type": "function"
    },
    {
      "inputs": [],
      "name": "debtDecay",
      "outputs": [
        {
          "internalType": "uint256",
          "name": "decay_",
          "type": "uint256"
        }
      ],
      "stateMutability": "view",
      "type": "function"
    },
    {
      "inputs": [],
      "name": "debtRatio",
      "outputs": [
        {
          "internalType": "uint256",
          "name": "debtRatio_",
          "type": "uint256"
        }
      ],
      "stateMutability": "view",
      "type": "function"
    },
    {
      "inputs": [
        {
          "internalType": "uint256",
          "name": "_amount",
          "type": "uint256"
        },
        {
          "internalType": "uint256",
          "name": "_maxPrice",
          "type": "uint256"
        },
        {
          "internalType": "address",
          "name": "_depositor",
          "type": "address"
        }
      ],
      "name": "deposit",
      "outputs": [
        {
          "internalType": "uint256",
          "name": "",
          "type": "uint256"
        }
      ],
      "stateMutability": "nonpayable",
      "type": "function"
    },
    {
      "inputs": [
        {
          "internalType": "uint256",
          "name": "_controlVariable",
          "type": "uint256"
        },
        {
          "internalType": "uint256",
          "name": "_minimumPrice",
          "type": "uint256"
        },
        {
          "internalType": "uint256",
          "name": "_maxPayout",
          "type": "uint256"
        },
        {
          "internalType": "uint256",
          "name": "_minPayout",
          "type": "uint256"
        },
        {
          "internalType": "uint256",
          "name": "_fee",
          "type": "uint256"
        },
        {
          "internalType": "uint256",
          "name": "_bondingRewardFee",
          "type": "uint256"
        },
        {
          "internalType": "uint256",
          "name": "_maxDebt",
          "type": "uint256"
        },
        {
          "internalType": "uint32",
          "name": "_vestingTerm",
          "type": "uint32"
        }
      ],
      "name": "initializeBondTerms",
      "outputs": [],
      "stateMutability": "nonpayable",
      "type": "function"
    },
    {
      "inputs": [],
      "name": "lastDecay",
      "outputs": [
        {
          "internalType": "uint32",
          "name": "",
          "type": "uint32"
        }
      ],
      "stateMutability": "view",
      "type": "function"
    },
    {
      "inputs": [],
      "name": "maxPayout",
      "outputs": [
        {
          "internalType": "uint256",
          "name": "",
          "type": "uint256"
        }
      ],
      "stateMutability": "view",
      "type": "function"
    },
    {
      "inputs": [],
      "name": "owner",
      "outputs": [
        {
          "internalType": "address",
          "name": "",
          "type": "address"
        }
      ],
      "stateMutability": "view",
      "type": "function"
    },
    {
      "inputs": [
        {
          "internalType": "uint256",
          "name": "_value",
          "type": "uint256"
        }
      ],
      "name": "payoutFor",
      "outputs": [
        {
          "internalType": "uint256",
          "name": "",
          "type": "uint256"
        }
      ],
      "stateMutability": "view",
      "type": "function"
    },
    {
      "inputs": [
        {
          "internalType": "address",
          "name": "_depositor",
          "type": "address"
        }
      ],
      "name": "pendingPayoutFor",
      "outputs": [
        {
          "internalType": "uint256",
          "name": "pendingPayout_",
          "type": "uint256"
        }
      ],
      "stateMutability": "view",
      "type": "function"
    },
    {
      "inputs": [
        {
          "internalType": "address",
          "name": "_depositor",
          "type": "address"
        }
      ],
      "name": "percentVestedFor",
      "outputs": [
        {
          "internalType": "uint256",
          "name": "percentVested_",
          "type": "uint256"
        }
      ],
      "stateMutability": "view",
      "type": "function"
    },
    {
      "inputs": [],
      "name": "principle",
      "outputs": [
        {
          "internalType": "contract IERC20",
          "name": "",
          "type": "address"
        }
      ],
      "stateMutability": "view",
      "type": "function"
    },
    {
      "inputs": [
        {
          "internalType": "address",
          "name": "_token",
          "type": "address"
        }
      ],
      "name": "recoverLostToken",
      "outputs": [
        {
          "internalType": "bool",
          "name": "",
          "type": "bool"
        }
      ],
      "stateMutability": "nonpayable",
      "type": "function"
    },
    {
      "inputs": [
        {
          "internalType": "address",
          "name": "_recipient",
          "type": "address"
        },
        {
          "internalType": "bool",
          "name": "_stake",
          "type": "bool"
        }
      ],
      "name": "redeem",
      "outputs": [],
      "stateMutability": "nonpayable",
      "type": "function"
    },
    {
      "inputs": [],
      "name": "renounceOwnership",
      "outputs": [],
      "stateMutability": "nonpayable",
      "type": "function"
    },
    {
      "inputs": [
        {
          "internalType": "bool",
          "name": "_addition",
          "type": "bool"
        },
        {
          "internalType": "uint256",
          "name": "_increment",
          "type": "uint256"
        },
        {
          "internalType": "uint256",
          "name": "_maxTarget",
          "type": "uint256"
        },
        {
          "internalType": "uint256",
          "name": "_minTarget",
          "type": "uint256"
        },
        {
          "internalType": "uint32",
          "name": "_buffer",
          "type": "uint32"
        }
      ],
      "name": "setAdjustment",
      "outputs": [],
      "stateMutability": "nonpayable",
      "type": "function"
    },
    {
      "inputs": [
        {
          "internalType": "enum Bond.PARAMETER",
          "name": "_parameter",
          "type": "uint8"
        },
        {
          "internalType": "uint256",
          "name": "_input",
          "type": "uint256"
        }
      ],
      "name": "setBondTerms",
      "outputs": [],
      "stateMutability": "nonpayable",
      "type": "function"
    },
    {
      "inputs": [
        {
          "internalType": "address",
          "name": "_staking",
          "type": "address"
        }
      ],
      "name": "setStaking",
      "outputs": [],
      "stateMutability": "nonpayable",
      "type": "function"
    },
    {
      "inputs": [
        {
          "internalType": "address",
          "name": "_tavCalculator",
          "type": "address"
        }
      ],
      "name": "setTAVCalculator",
      "outputs": [],
      "stateMutability": "nonpayable",
      "type": "function"
    },
    {
      "inputs": [],
      "name": "staking",
      "outputs": [
        {
          "internalType": "contract IStaking",
          "name": "",
          "type": "address"
        }
      ],
      "stateMutability": "view",
      "type": "function"
    },
    {
      "inputs": [],
      "name": "tavCalculator",
      "outputs": [
        {
          "internalType": "contract ITAVCalculator",
          "name": "",
          "type": "address"
        }
      ],
      "stateMutability": "view",
      "type": "function"
    },
    {
      "inputs": [],
      "name": "terms",
      "outputs": [
        {
          "internalType": "uint256",
          "name": "controlVariable",
          "type": "uint256"
        },
        {
          "internalType": "uint256",
          "name": "minimumPrice",
          "type": "uint256"
        },
        {
          "internalType": "uint256",
          "name": "maxPayout",
          "type": "uint256"
        },
        {
          "internalType": "uint256",
          "name": "fee",
          "type": "uint256"
        },
        {
          "internalType": "uint256",
          "name": "bondingRewardFee",
          "type": "uint256"
        },
        {
          "internalType": "uint256",
          "name": "maxDebt",
          "type": "uint256"
        },
        {
          "internalType": "uint32",
          "name": "vestingTerm",
          "type": "uint32"
        },
        {
          "internalType": "uint256",
          "name": "minimumPayout",
          "type": "uint256"
        }
      ],
      "stateMutability": "view",
      "type": "function"
    },
    {
      "inputs": [],
      "name": "totalDebt",
      "outputs": [
        {
          "internalType": "uint256",
          "name": "",
          "type": "uint256"
        }
      ],
      "stateMutability": "view",
      "type": "function"
    },
    {
      "inputs": [
        {
          "internalType": "address",
          "name": "newOwner",
          "type": "address"
        }
      ],
      "name": "transferOwnership",
      "outputs": [],
      "stateMutability": "nonpayable",
      "type": "function"
    },
    {
      "inputs": [],
      "name": "treasury",
      "outputs": [
        {
          "internalType": "contract ITreasury",
          "name": "",
          "type": "address"
        }
      ],
      "stateMutability": "view",
      "type": "function"
    }
  ],
  "bytecode": "0x60e06040523480156200001157600080fd5b5060405162003117380380620031178339810160408190526200003491620001f1565b6200003f3362000184565b6001600160a01b0384166200005357600080fd5b6001600160601b0319606085901b166080526001600160a01b0383166200007957600080fd5b600180546001600160a01b0319166001600160a01b03858116919091179091558216620000a557600080fd5b6001600160601b0319606083901b1660a0526001600160a01b038116620000cb57600080fd5b606081901b6001600160601b03191660c05260015460405163095ea7b360e01b81526001600160a01b038481166004830152722cd76fe086b93ce2f768a00b22a0000000000060248301529091169063095ea7b390604401602060405180830381600087803b1580156200013e57600080fd5b505af115801562000153573d6000803e3d6000fd5b505050506040513d601f19601f820116820180604052508101906200017991906200024d565b505050505062000276565b600080546001600160a01b038381166001600160a01b0319831681178455604051919092169283917f8be0079c531659141344cd1fd0a4f28419497f9722a3daafe3b4186f6b6457e09190a35050565b80516001600160a01b0381168114620001ec57600080fd5b919050565b6000806000806080858703121562000207578384fd5b6200021285620001d4565b93506200022260208601620001d4565b92506200023260408601620001d4565b91506200024260608601620001d4565b905092959194509250565b6000602082840312156200025f578081fd5b815180151581146200026f578182fd5b9392505050565b60805160601c60a05160601c60c05160601c612e29620002ee600039600081816104040152818161164201526119b501526000818161031301526115ad01526000818161034d01528181611620015281816117fa0152818161188001528181611a2b01528181611bd50152611e550152612e296000f3fe608060405234801561001057600080fd5b50600436106101fb5760003560e01c8063844b5c7c1161011a578063cea55f57116100ad578063e392a2621161007c578063e392a2621461053a578063f2fde38b14610542578063f5c2ab5b14610555578063fb87b2721461057a578063fc7b9c181461058d57600080fd5b8063cea55f57146104b5578063d5025625146104bd578063d7ccfb0b1461052a578063e0176de81461053257600080fd5b80638ff39099116100e95780638ff39099146103ec57806398fabd3a146103ff578063b4abccba14610426578063cd1234b31461044957600080fd5b8063844b5c7c146103ad578063868a352b146103b55780638da5cb5b146103c85780638dbdbe6d146103d957600080fd5b806361d027b311610192578063759076e511610161578063759076e5146103775780637927ebf81461037f57806379cdf620146103925780638081caf4146103a557600080fd5b806361d027b31461030e57806368f33ff4146103355780636d90e5b814610348578063715018a61461036f57600080fd5b80632b303fe0116101ce5780632b303fe014610279578063451ee4a1146102825780634cf088d9146102e8578063507930ec146102fb57600080fd5b8063016a42841461020057806301b88ee8146102305780631e321a0f146102515780631feed31f14610266575b600080fd5b600154610213906001600160a01b031681565b6040516001600160a01b0390911681526020015b60405180910390f35b61024361023e366004612939565b610596565b604051908152602001610227565b61026461025f3660046129f6565b6105f0565b005b610264610274366004612953565b6108e3565b61024360145481565b600c54600d54600e54600f546010546102b09460ff169392919063ffffffff80821691600160201b90041686565b604080519615158752602087019590955293850192909252606084015263ffffffff90811660808401521660a082015260c001610227565b600254610213906001600160a01b031681565b610243610309366004612939565b610b5f565b6102137f000000000000000000000000000000000000000000000000000000000000000081565b610264610343366004612a88565b610c05565b6102137f000000000000000000000000000000000000000000000000000000000000000081565b610264610ecb565b610243610f01565b61024361038d366004612a24565b610f1c565b600354610213906001600160a01b031681565b610243610f61565b610243611052565b6102646103c33660046129a5565b61105c565b6000546001600160a01b0316610213565b6102436103e7366004612a54565b61126a565b6102646103fa366004612939565b611713565b6102137f000000000000000000000000000000000000000000000000000000000000000081565b610439610434366004612939565b61187c565b6040519015158152602001610227565b610489610457366004612939565b60116020526000908152604090208054600182015460029092015490919063ffffffff80821691600160201b90041684565b60408051948552602085019390935263ffffffff91821692840192909252166060820152608001610227565b610243611a26565b600454600554600654600754600854600954600a54600b546104e99796959493929163ffffffff169088565b604080519889526020890197909752958701949094526060860192909252608085015260a084015263ffffffff1660c083015260e082015261010001610227565b610243611af1565b610243611bc4565b610243611c6e565b610264610550366004612939565b611ccc565b6013546105659063ffffffff1681565b60405163ffffffff9091168152602001610227565b610264610588366004612939565b611d67565b61024360125481565b6000806105a283610b5f565b6001600160a01b03841660009081526011602052604090205490915061271082106105cf578092506105e9565b6127106105dc8284611e16565b6105e69190612c42565b92505b5050919050565b6000546001600160a01b031633146106235760405162461bcd60e51b815260040161061a90612b89565b60405180910390fd5b600082600681111561064557634e487b7160e01b600052602160045260246000fd5b1415610688576203f48081101561066e5760405162461bcd60e51b815260040161061a90612bbe565b600a805463ffffffff191663ffffffff83161790556108a6565b60018260068111156106aa57634e487b7160e01b600052602160045260246000fd5b141561070c576103e88111156107025760405162461bcd60e51b815260206004820181905260248201527f5061796f75742063616e6e6f742062652061626f766520312070657263656e74604482015260640161061a565b60068190556108a6565b600282600681111561072e57634e487b7160e01b600052602160045260246000fd5b14156107e2576127108111156107865760405162461bcd60e51b815260206004820152601960248201527f44414f206665652063616e6e6f74206578636565642031302500000000000000604482015260640161061a565b6107d08110156107d85760405162461bcd60e51b815260206004820152601a60248201527f44414f206665652063616e6e6f7420676f2062656c6f77203225000000000000604482015260640161061a565b60078190556108a6565b600382600681111561080457634e487b7160e01b600052602160045260246000fd5b14156108145760098190556108a6565b600482600681111561083657634e487b7160e01b600052602160045260246000fd5b14156108465760058190556108a6565b600582600681111561086857634e487b7160e01b600052602160045260246000fd5b141561087857600b8190556108a6565b600682600681111561089a57634e487b7160e01b600052602160045260246000fd5b14156108a65760088190555b7f4e3705d256225a38255bfb7114e7fa4b6b2939ab1f71639f57e06928858646c582826040516108d7929190612b2a565b60405180910390a15050565b336001600160a01b038316146109205760405162461bcd60e51b81526020600482015260026024820152614e4160f01b604482015260640161061a565b6001600160a01b03821660009081526011602090815260408083208151608081018352815481526001820154938101939093526002015463ffffffff80821692840192909252600160201b90041660608201529061097d84610b5f565b90506127108110610a10576001600160a01b03841660008181526011602052604080822082815560018101839055600201805467ffffffffffffffff19169055845190517f51c99f515c87b0d95ba97f616edd182e8f161c4932eac17c6fefe9dab58b77b1926109f4928252602082015260400190565b60405180910390a2610a0b84848460000151611e43565b610b59565b815160009061271090610a239084611e16565b610a2d9190612c42565b90506040518060800160405280610a51838660000151611f0790919063ffffffff16565b8152602001846020015181526020014263ffffffff168152602001610aa5610a8c86604001514263ffffffff16611f2290919063ffffffff16565b866060015163ffffffff16611f2290919063ffffffff16565b63ffffffff9081169091526001600160a01b038716600081815260116020908152604091829020855180825591860151600182015585830151600290910180546060909701518616600160201b0267ffffffffffffffff19909716919095161794909417909255905190917f51c99f515c87b0d95ba97f616edd182e8f161c4932eac17c6fefe9dab58b77b191610b4491858252602082015260400190565b60405180910390a2610b57858583611e43565b505b50505050565b6001600160a01b03811660009081526011602090815260408083208151608081018352815481526001820154938101939093526002015463ffffffff808216928401839052600160201b909104811660608401528391610bc4914281169190611f2216565b606083015163ffffffff9182169250168015610bf85780610be783612710611e16565b610bf19190612c42565b9350610bfd565b600093505b505050919050565b6000546001600160a01b03163314610c2f5760405162461bcd60e51b815260040161061a90612b89565b60045415610c7f5760405162461bcd60e51b815260206004820181905260248201527f426f6e6473206d75737420626520696e697469616c697a65642066726f6d2030604482015260640161061a565b6103e8861115610cd15760405162461bcd60e51b815260206004820181905260248201527f5061796f75742063616e6e6f742062652061626f766520312070657263656e74604482015260640161061a565b600a8163ffffffff161015610cf85760405162461bcd60e51b815260040161061a90612bbe565b612710841115610d4a5760405162461bcd60e51b815260206004820152601c60248201527f44414f206665652063616e6e6f7420657863656564207061796f757400000000604482015260640161061a565b612710831115610dab5760405162461bcd60e51b815260206004820152602660248201527f426f6e64696e6720726577617264206665652063616e6e6f742062652061626f60448201526576652031302560d01b606482015260840161061a565b604080516101008101825289815260208101899052808201889052606081018690526080810185905260a0810184905263ffffffff83811660c0830181905260e090920188905260048b815560058b905560068a9055600788905560088790556009869055600a805463ffffffff199081169094179055600b89905560138054909316429092169190911790915590517f374455252cd456bbe9a81a1506246bf0ac944729f3affdfab5814e6f56af332291610eb9918154815260018201546020820152600282015460408201526003820154606082015260048201546080820152600582015460a0820152600682015463ffffffff1660c082015260079091015460e08201526101000190565b60405180910390a15050505050505050565b6000546001600160a01b03163314610ef55760405162461bcd60e51b815260040161061a90612b89565b610eff6000611f49565b565b6000610f17610f0e611c6e565b60125490611f07565b905090565b6000610f5b633b9aca0080610f51610f4c86610f47662386f26fc10000610f41611af1565b90611e16565b611f99565b6120d4565b610f419190612c42565b92915050565b600080600360009054906101000a90046001600160a01b03166001600160a01b031663ac3b992a6040518163ffffffff1660e01b815260040160206040518083038186803b158015610fb257600080fd5b505afa158015610fc6573d6000803e3d6000fd5b505050506040513d601f19601f82011682018060405250810190610fea9190612a3c565b90506000611002610ff9611a26565b60045490611e16565b60075461101f90620186a090611019908690611e16565b906120f4565b6110299190612c02565b905061104b64e8d4a51000611019600480015484611e1690919063ffffffff16565b9250505090565b6000610f17611af1565b6000546001600160a01b031633146110865760405162461bcd60e51b815260040161061a90612b89565b6004546103e890611098906019611e16565b6110a29190612c42565b8411156110e75760405162461bcd60e51b8152602060048201526013602482015272496e6372656d656e7420746f6f206c6172676560681b604482015260640161061a565b60fa8310156111385760405162461bcd60e51b815260206004820152601f60248201527f4e6578742041646a7573746d656e7420636f756c64206265206c6f636b656400604482015260640161061a565b60fa8211156111895760405162461bcd60e51b815260206004820152601f60248201527f4e6578742041646a7573746d656e7420636f756c64206265206c6f636b656400604482015260640161061a565b6040805160c080820183528715158083526020808401899052838501889052606080850188905263ffffffff878116608080880182905242831660a0988901819052600c805460ff191688179055600d8e9055600e8d9055600f8c90556010805467ffffffffffffffff1916909317600160201b9091021791829055885160ff909616151586528585018d90529785018b905291840189905281811696840196909652901c909316918301919091527fa7baed62dbecf9e27c728fe789b5834dd9c642ff4df89d99851a735cc4a573da910160405180910390a15050505050565b60006001600160a01b0382166112b45760405162461bcd60e51b815260206004820152600f60248201526e496e76616c6964206164647265737360881b604482015260640161061a565b336001600160a01b038316146112f55760405162461bcd60e51b815260040161061a906020808252600490820152634c464e4160e01b604082015260600190565b6112fd612136565b60006113088561215b565b90506000611314611052565b905061132a611321610f61565b60145490612203565b601455808510156113895760405162461bcd60e51b815260206004820152602360248201527f536c697070616765206c696d69743a206d6f7265207468616e206d617820707260448201526269636560e81b606482015260840161061a565b600061139483610f1c565b600954601254919250906113a89085612203565b11156113ed5760405162461bcd60e51b815260206004820152601460248201527313585e0818d85c1858da5d1e481c995858da195960621b604482015260640161061a565b600b548110156114305760405162461bcd60e51b815260206004820152600e60248201526d109bdb99081d1bdbc81cdb585b1b60921b604482015260640161061a565b611438611bc4565b8111156114785760405162461bcd60e51b815260206004820152600e60248201526d426f6e6420746f6f206c6172676560901b604482015260640161061a565b600754600090620186a09061148e908490611e16565b6114989190612c42565b905060006114a68383612203565b6012549091506114b6908a612203565b601255604080516080810182526001600160a01b03891660009081526011602052919091205481906114e89086612203565b8152602080820187905263ffffffff428116604080850191909152600a5482166060948501526001600160a01b03808d166000908152601185528290208651815593860151600185810191909155918601516002909401805496909501518316600160201b0267ffffffffffffffff199096169383169390931794909417909255915461157d921690339030908d9061221e16565b60015460405163bc157ac160e01b8152600481018b90526001600160a01b039182166024820152604481018390527f00000000000000000000000000000000000000000000000000000000000000009091169063bc157ac190606401600060405180830381600087803b1580156115f357600080fd5b505af1158015611607573d6000803e3d6000fd5b5050505081600014611667576116676001600160a01b037f0000000000000000000000000000000000000000000000000000000000000000167f000000000000000000000000000000000000000000000000000000000000000084612289565b600a54849061168190429063ffffffff9081169061220316565b847f1fec6dc81f140574bf43f6b1e420ae1dd47928b9d57db8cbd7b8611063b85ae58c6040516116b391815260200190565b60405180910390a46116c3611a26565b6116cb611af1565b6116d3611052565b6040517f375b221f40939bfd8f49723a17cf7bc6d576ebf72efe2cc3e991826f5b3f390a90600090a46117046122b9565b509093505050505b9392505050565b6000546001600160a01b0316331461173d5760405162461bcd60e51b815260040161061a90612b89565b6001600160a01b0381166117785760405162461bcd60e51b8152602060048201526002602482015261494160f01b604482015260640161061a565b600280546001600160a01b0319166001600160a01b0383169081179091556040517f9d6a6595abf9295f9870c0d2d5760179d6f9ac798af8db39a9e3c9f2fbd2daa090600090a260025460405163095ea7b360e01b81526001600160a01b039182166004820152722cd76fe086b93ce2f768a00b22a0000000000060248201527f00000000000000000000000000000000000000000000000000000000000000009091169063095ea7b390604401602060405180830381600087803b15801561184057600080fd5b505af1158015611854573d6000803e3d6000fd5b505050506040513d601f19601f820116820180604052508101906118789190612989565b5050565b60007f00000000000000000000000000000000000000000000000000000000000000006001600160a01b0316826001600160a01b031614156118e65760405162461bcd60e51b815260206004820152600360248201526213905560ea1b604482015260640161061a565b6001546001600160a01b038381169116141561192a5760405162461bcd60e51b815260206004820152600360248201526204e41560ec1b604482015260640161061a565b6040516370a0823160e01b81523060048201526000906001600160a01b038416906370a082319060240160206040518083038186803b15801561196c57600080fd5b505afa158015611980573d6000803e3d6000fd5b505050506040513d601f19601f820116820180604052508101906119a49190612a3c565b90506119da6001600160a01b0384167f000000000000000000000000000000000000000000000000000000000000000083612289565b826001600160a01b03167f11f0a001971cc33b9a8651a3368b34900c22a665504b5cabc3e0e9fdf59d984682604051611a1591815260200190565b60405180910390a250600192915050565b6000807f00000000000000000000000000000000000000000000000000000000000000006001600160a01b03166318160ddd6040518163ffffffff1660e01b815260040160206040518083038186803b158015611a8257600080fd5b505afa158015611a96573d6000803e3d6000fd5b505050506040513d601f19601f82011682018060405250810190611aba9190612a3c565b9050670de0b6b3a7640000611ae1610f4c611adb633b9aca00610f41610f01565b84611f99565b611aeb9190612c42565b91505090565b600080600360009054906101000a90046001600160a01b03166001600160a01b031663ac3b992a6040518163ffffffff1660e01b815260040160206040518083038186803b158015611b4257600080fd5b505afa158015611b56573d6000803e3d6000fd5b505050506040513d601f19601f82011682018060405250810190611b7a9190612a3c565b90506000611b89610ff9611a26565b600754611ba090620186a090611019908690611e16565b611baa9190612c02565b905062989680611bba8284612203565b61104b9190612c42565b6000620186a0611c646004600201547f00000000000000000000000000000000000000000000000000000000000000006001600160a01b03166318160ddd6040518163ffffffff1660e01b815260040160206040518083038186803b158015611c2c57600080fd5b505afa158015611c40573d6000803e3d6000fd5b505050506040513d601f19601f82011682018060405250810190610f419190612a3c565b610f179190612c42565b6013546000908190611c8c9063ffffffff42811691811690611f2216565b600a5460125491925063ffffffff90811691611cac9180851690611e1616565b611cb69190612c42565b9150601254821115611cc85760125491505b5090565b6000546001600160a01b03163314611cf65760405162461bcd60e51b815260040161061a90612b89565b6001600160a01b038116611d5b5760405162461bcd60e51b815260206004820152602660248201527f4f776e61626c653a206e6577206f776e657220697320746865207a65726f206160448201526564647265737360d01b606482015260840161061a565b611d6481611f49565b50565b6000546001600160a01b03163314611d915760405162461bcd60e51b815260040161061a90612b89565b6001600160a01b038116611dcc5760405162461bcd60e51b8152602060048201526002602482015261494160f01b604482015260640161061a565b600380546001600160a01b0319166001600160a01b0383169081179091556040517f9d6a6595abf9295f9870c0d2d5760179d6f9ac798af8db39a9e3c9f2fbd2daa090600090a250565b6000821580611e3a57508183611e2c8282612d48565b9250611e389083612c42565b145b610f5b57600080fd5b81611e8157611e7c6001600160a01b037f0000000000000000000000000000000000000000000000000000000000000000168483612289565b505050565b6002546040516356e4bb9760e11b81526001600160a01b038581166004830152602482018490529091169063adc9772e90604401602060405180830381600087803b158015611ecf57600080fd5b505af1158015611ee3573d6000803e3d6000fd5b505050506040513d601f19601f82011682018060405250810190610b599190612a3c565b600082611f148382612d67565b9150811115610f5b57600080fd5b600063ffffffff8316611f358385612d7e565b91508163ffffffff161115610f5b57600080fd5b600080546001600160a01b038381166001600160a01b0319831681178455604051919092169283917f8be0079c531659141344cd1fd0a4f28419497f9722a3daafe3b4186f6b6457e09190a35050565b604080516020810190915260008152600082116120075760405162461bcd60e51b815260206004820152602660248201527f4669786564506f696e743a3a6672616374696f6e3a206469766973696f6e206260448201526579207a65726f60d01b606482015260840161061a565b826120215750604080516020810190915260008152610f5b565b71ffffffffffffffffffffffffffffffffffff83116120c357600061204a83607086901b612c42565b90506001600160e01b038111156120a35760405162461bcd60e51b815260206004820152601e60248201527f4669786564506f696e743a3a6672616374696f6e3a206f766572666c6f770000604482015260640161061a565b6040518060200160405280826001600160e01b0316815250915050610f5b565b600061204a84600160701b856123e8565b8051600090610f5b906612725dd1d243ab906001600160e01b0316612c42565b600061170c83836040518060400160405280601a81526020017f536166654d6174683a206469766973696f6e206279207a65726f0000000000008152506124a5565b612141610f0e611c6e565b6012556013805463ffffffff19164263ffffffff16179055565b6000610f5b600160009054906101000a90046001600160a01b03166001600160a01b031663313ce5676040518163ffffffff1660e01b815260040160206040518083038186803b1580156121ae57600080fd5b505afa1580156121c2573d6000803e3d6000fd5b505050506040513d601f19601f820116820180604052508101906121e69190612aed565b6121f190600a612c9d565b61101984670de0b6b3a7640000611e16565b6000826122108382612c02565b9150811015610f5b57600080fd5b6040516001600160a01b0380851660248301528316604482015260648101829052610b599085906323b872dd60e01b906084015b60408051601f198184030181529190526020810180516001600160e01b03166001600160e01b0319909316929092179091526124dc565b6040516001600160a01b038316602482015260448101829052611e7c90849063a9059cbb60e01b90606401612252565b6010546000906122db9063ffffffff600160201b82048116918116906125ae16565b63ffffffff169050600c600101546000141580156122f95750804210155b15611d6457600454600c54819060ff161561234057600d5461231c908290612203565b600e54909150811061233b57600c805460ff19811660ff909116151790555b61236d565b600d5461234e908290611f07565b600f54909150811161236d57600c805460ff19811660ff909116151790555b60048190556010805467ffffffff000000001916600160201b4263ffffffff1602179055600d54600c5460408051858152602081018590529081019290925260ff16151560608201527fb923e581a0f83128e9e1d8297aa52b18d6744310476e0b54509c054cd7a93b2a9060800160405180910390a1505050565b60008060006123f786866125d5565b915091506000848061241957634e487b7160e01b600052601260045260246000fd5b86880990508281111561243457612431600183612d67565b91505b61243e8184612d67565b925084821061248f5760405162461bcd60e51b815260206004820152601a60248201527f46756c6c4d6174683a3a6d756c4469763a206f766572666c6f77000000000000604482015260640161061a565b61249a838387612617565b979650505050505050565b600081836124c65760405162461bcd60e51b815260040161061a9190612b56565b5060006124d38486612c42565b95945050505050565b6000612531826040518060400160405280602081526020017f5361666545524332303a206c6f772d6c6576656c2063616c6c206661696c6564815250856001600160a01b03166127989092919063ffffffff16565b805190915015611e7c578080602001905181019061254f9190612989565b611e7c5760405162461bcd60e51b815260206004820152602a60248201527f5361666545524332303a204552433230206f7065726174696f6e20646964206e6044820152691bdd081cdd58d8d9595960b21b606482015260840161061a565b600063ffffffff83166125c18385612c1a565b91508163ffffffff161015610f5b57600080fd5b6000808060001984860990506125eb8486612d48565b92506125f78382612d67565b91508281101561260f5761260c600183612d67565b91505b509250929050565b60008061262683196001612c02565b831690506126348184612c42565b92506126408186612c42565b94508061264f81196001612c02565b6126599190612c42565b612664906001612c02565b61266e9085612d48565b6126789086612c02565b945060016126868185612d48565b612691906002612d67565b61269b9082612d48565b90506126a78185612d48565b6126b2906002612d67565b6126bc9082612d48565b90506126c88185612d48565b6126d3906002612d67565b6126dd9082612d48565b90506126e98185612d48565b6126f4906002612d67565b6126fe9082612d48565b905061270a8185612d48565b612715906002612d67565b61271f9082612d48565b905061272b8185612d48565b612736906002612d67565b6127409082612d48565b905061274c8185612d48565b612757906002612d67565b6127619082612d48565b905061276d8185612d48565b612778906002612d67565b6127829082612d48565b905061278e8187612d48565b9695505050505050565b60606127a784846000856127af565b949350505050565b6060824710156128105760405162461bcd60e51b815260206004820152602660248201527f416464726573733a20696e73756666696369656e742062616c616e636520666f6044820152651c8818d85b1b60d21b606482015260840161061a565b6001600160a01b0385163b6128675760405162461bcd60e51b815260206004820152601d60248201527f416464726573733a2063616c6c20746f206e6f6e2d636f6e7472616374000000604482015260640161061a565b600080866001600160a01b031685876040516128839190612b0e565b60006040518083038185875af1925050503d80600081146128c0576040519150601f19603f3d011682016040523d82523d6000602084013e6128c5565b606091505b509150915061249a828286606083156128df57508161170c565b8251156128ef5782518084602001fd5b8160405162461bcd60e51b815260040161061a9190612b56565b80356001600160a01b038116811461292057600080fd5b919050565b803563ffffffff8116811461292057600080fd5b60006020828403121561294a578081fd5b61170c82612909565b60008060408385031215612965578081fd5b61296e83612909565b9150602083013561297e81612de5565b809150509250929050565b60006020828403121561299a578081fd5b815161170c81612de5565b600080600080600060a086880312156129bc578081fd5b85356129c781612de5565b94506020860135935060408601359250606086013591506129ea60808701612925565b90509295509295909350565b60008060408385031215612a08578182fd5b823560078110612a16578283fd5b946020939093013593505050565b600060208284031215612a35578081fd5b5035919050565b600060208284031215612a4d578081fd5b5051919050565b600080600060608486031215612a68578283fd5b8335925060208401359150612a7f60408501612909565b90509250925092565b600080600080600080600080610100898b031215612aa4578283fd5b883597506020890135965060408901359550606089013594506080890135935060a0890135925060c08901359150612ade60e08a01612925565b90509295985092959890939650565b600060208284031215612afe578081fd5b815160ff8116811461170c578182fd5b60008251612b20818460208701612da3565b9190910192915050565b6040810160078410612b4c57634e487b7160e01b600052602160045260246000fd5b9281526020015290565b6020815260008251806020840152612b75816040850160208701612da3565b601f01601f19169190910160400192915050565b6020808252818101527f4f776e61626c653a2063616c6c6572206973206e6f7420746865206f776e6572604082015260600190565b60208082526024908201527f56657374696e67206d757374206265206c6f6e676572207468616e20333620686040820152636f75727360e01b606082015260800190565b60008219821115612c1557612c15612dcf565b500190565b600063ffffffff808316818516808303821115612c3957612c39612dcf565b01949350505050565b600082612c5d57634e487b7160e01b81526012600452602481fd5b500490565b600181815b8085111561260f578160001904821115612c8357612c83612dcf565b80851615612c9057918102915b93841c9390800290612c67565b600061170c60ff841683600082612cb657506001610f5b565b81612cc357506000610f5b565b8160018114612cd95760028114612ce357612cff565b6001915050610f5b565b60ff841115612cf457612cf4612dcf565b50506001821b610f5b565b5060208310610133831016604e8410600b8410161715612d22575081810a610f5b565b612d2c8383612c62565b8060001904821115612d4057612d40612dcf565b029392505050565b6000816000190483118215151615612d6257612d62612dcf565b500290565b600082821015612d7957612d79612dcf565b500390565b600063ffffffff83811690831681811015612d9b57612d9b612dcf565b039392505050565b60005b83811015612dbe578181015183820152602001612da6565b83811115610b595750506000910152565b634e487b7160e01b600052601160045260246000fd5b8015158114611d6457600080fdfea2646970667358221220f19269f256a44c17b8febe2e84533b32596e33855a3ab504353f811f39e92a6e64736f6c63430008040033",
  "linkReferences": {},
  "deployedLinkReferences": {}
}