{
  "_format": "hh-sol-artifact-1",
  "contractName": "Bond",
  "sourceName": "contracts/coreContracts/Bond.sol",
  "abi": [
    {
      "inputs": [
        {
          "internalType": "address",
          "name": "_ORFI",
          "type": "address"
        },
        {
          "internalType": "address",
          "name": "_principle",
          "type": "address"
        },
        {
          "internalType": "address",
          "name": "_treasury",
          "type": "address"
        },
        {
          "internalType": "address",
          "name": "_DAO",
          "type": "address"
        }
      ],
      "stateMutability": "nonpayable",
      "type": "constructor"
    },
    {
      "anonymous": false,
      "inputs": [
        {
          "indexed": false,
          "internalType": "uint256",
          "name": "deposit",
          "type": "uint256"
        },
        {
          "indexed": true,
          "internalType": "uint256",
          "name": "payout",
          "type": "uint256"
        },
        {
          "indexed": true,
          "internalType": "uint256",
          "name": "expires",
          "type": "uint256"
        },
        {
          "indexed": true,
          "internalType": "uint256",
          "name": "priceInUSD",
          "type": "uint256"
        }
      ],
      "name": "BondCreated",
      "type": "event"
    },
    {
      "anonymous": false,
      "inputs": [
        {
          "indexed": true,
          "internalType": "uint256",
          "name": "priceInUSD",
          "type": "uint256"
        },
        {
          "indexed": true,
          "internalType": "uint256",
          "name": "internalPrice",
          "type": "uint256"
        },
        {
          "indexed": true,
          "internalType": "uint256",
          "name": "debtRatio",
          "type": "uint256"
        }
      ],
      "name": "BondPriceChanged",
      "type": "event"
    },
    {
      "anonymous": false,
      "inputs": [
        {
          "indexed": true,
          "internalType": "address",
          "name": "recipient",
          "type": "address"
        },
        {
          "indexed": false,
          "internalType": "uint256",
          "name": "payout",
          "type": "uint256"
        },
        {
          "indexed": false,
          "internalType": "uint256",
          "name": "remaining",
          "type": "uint256"
        }
      ],
      "name": "BondRedeemed",
      "type": "event"
    },
    {
      "anonymous": false,
      "inputs": [
        {
          "indexed": false,
          "internalType": "uint256",
          "name": "initialBCV",
          "type": "uint256"
        },
        {
          "indexed": false,
          "internalType": "uint256",
          "name": "newBCV",
          "type": "uint256"
        },
        {
          "indexed": false,
          "internalType": "uint256",
          "name": "adjustment",
          "type": "uint256"
        },
        {
          "indexed": false,
          "internalType": "bool",
          "name": "addition",
          "type": "bool"
        }
      ],
      "name": "ControlVariableAdjustment",
      "type": "event"
    },
    {
      "anonymous": false,
      "inputs": [
        {
          "components": [
            {
              "internalType": "uint256",
              "name": "controlVariable",
              "type": "uint256"
            },
            {
              "internalType": "uint256",
              "name": "minimumPrice",
              "type": "uint256"
            },
            {
              "internalType": "uint256",
              "name": "maxPayout",
              "type": "uint256"
            },
            {
              "internalType": "uint256",
              "name": "fee",
              "type": "uint256"
            },
            {
              "internalType": "uint256",
              "name": "bondingRewardFee",
              "type": "uint256"
            },
            {
              "internalType": "uint256",
              "name": "maxDebt",
              "type": "uint256"
            },
            {
              "internalType": "uint32",
              "name": "vestingTerm",
              "type": "uint32"
            },
            {
              "internalType": "uint256",
              "name": "minimumPayout",
              "type": "uint256"
            }
          ],
          "indexed": false,
          "internalType": "struct Bond.Terms",
          "name": "terms",
          "type": "tuple"
        }
      ],
      "name": "InitTerms",
      "type": "event"
    },
    {
      "anonymous": false,
      "inputs": [
        {
          "indexed": true,
          "internalType": "address",
          "name": "tokenToRecover",
          "type": "address"
        },
        {
          "indexed": false,
          "internalType": "uint256",
          "name": "amount",
          "type": "uint256"
        }
      ],
      "name": "LogRecoverLostToken",
      "type": "event"
    },
    {
      "anonymous": false,
      "inputs": [
        {
          "components": [
            {
              "internalType": "bool",
              "name": "add",
              "type": "bool"
            },
            {
              "internalType": "uint256",
              "name": "rate",
              "type": "uint256"
            },
            {
              "internalType": "uint256",
              "name": "maxTarget",
              "type": "uint256"
            },
            {
              "internalType": "uint256",
              "name": "minTarget",
              "type": "uint256"
            },
            {
              "internalType": "uint32",
              "name": "buffer",
              "type": "uint32"
            },
            {
              "internalType": "uint32",
              "name": "lastTime",
              "type": "uint32"
            }
          ],
          "indexed": false,
          "internalType": "struct Bond.Adjust",
          "name": "adjust",
          "type": "tuple"
        }
      ],
      "name": "LogSetAdjustment",
      "type": "event"
    },
    {
      "anonymous": false,
      "inputs": [
        {
          "indexed": true,
          "internalType": "address",
          "name": "stakingContract",
          "type": "address"
        }
      ],
      "name": "LogSetStaking",
      "type": "event"
    },
    {
      "anonymous": false,
      "inputs": [
        {
          "indexed": false,
          "internalType": "enum Bond.PARAMETER",
          "name": "param",
          "type": "uint8"
        },
        {
          "indexed": false,
          "internalType": "uint256",
          "name": "value",
          "type": "uint256"
        }
      ],
      "name": "LogSetTerms",
      "type": "event"
    },
    {
      "anonymous": false,
      "inputs": [
        {
          "indexed": true,
          "internalType": "address",
          "name": "tavCalculatorContract",
          "type": "address"
        }
      ],
      "name": "LogTAVCalculator",
      "type": "event"
    },
    {
      "anonymous": false,
      "inputs": [
        {
          "indexed": true,
          "internalType": "address",
          "name": "previousOwner",
          "type": "address"
        },
        {
          "indexed": true,
          "internalType": "address",
          "name": "newOwner",
          "type": "address"
        }
      ],
      "name": "OwnershipTransferred",
      "type": "event"
    },
    {
      "inputs": [],
      "name": "DAO",
      "outputs": [
        {
          "internalType": "address",
          "name": "",
          "type": "address"
        }
      ],
      "stateMutability": "view",
      "type": "function"
    },
    {
      "inputs": [],
      "name": "ORFI",
      "outputs": [
        {
          "internalType": "contract IERC20",
          "name": "",
          "type": "address"
        }
      ],
      "stateMutability": "view",
      "type": "function"
    },
    {
      "inputs": [],
      "name": "adjustment",
      "outputs": [
        {
          "internalType": "bool",
          "name": "add",
          "type": "bool"
        },
        {
          "internalType": "uint256",
          "name": "rate",
          "type": "uint256"
        },
        {
          "internalType": "uint256",
          "name": "maxTarget",
          "type": "uint256"
        },
        {
          "internalType": "uint256",
          "name": "minTarget",
          "type": "uint256"
        },
        {
          "internalType": "uint32",
          "name": "buffer",
          "type": "uint32"
        },
        {
          "internalType": "uint32",
          "name": "lastTime",
          "type": "uint32"
        }
      ],
      "stateMutability": "view",
      "type": "function"
    },
    {
      "inputs": [
        {
          "internalType": "address",
          "name": "",
          "type": "address"
        }
      ],
      "name": "bondInfo",
      "outputs": [
        {
          "internalType": "uint256",
          "name": "payout",
          "type": "uint256"
        },
        {
          "internalType": "uint256",
          "name": "pricePaid",
          "type": "uint256"
        },
        {
          "internalType": "uint32",
          "name": "lastTime",
          "type": "uint32"
        },
        {
          "internalType": "uint32",
          "name": "vesting",
          "type": "uint32"
        }
      ],
      "stateMutability": "view",
      "type": "function"
    },
    {
      "inputs": [],
      "name": "bondPrice",
      "outputs": [
        {
          "internalType": "uint256",
          "name": "price_",
          "type": "uint256"
        }
      ],
      "stateMutability": "view",
      "type": "function"
    },
    {
      "inputs": [],
      "name": "bondPriceInUSD",
      "outputs": [
        {
          "internalType": "uint256",
          "name": "price_",
          "type": "uint256"
        }
      ],
      "stateMutability": "view",
      "type": "function"
    },
    {
      "inputs": [],
      "name": "bondingReward",
      "outputs": [
        {
          "internalType": "uint256",
          "name": "",
          "type": "uint256"
        }
      ],
      "stateMutability": "view",
      "type": "function"
    },
    {
      "inputs": [],
      "name": "calculateBondingReward",
      "outputs": [
        {
          "internalType": "uint256",
          "name": "bondingReward_",
          "type": "uint256"
        }
      ],
      "stateMutability": "view",
      "type": "function"
    },
    {
      "inputs": [],
      "name": "currentDebt",
      "outputs": [
        {
          "internalType": "uint256",
          "name": "",
          "type": "uint256"
        }
      ],
      "stateMutability": "view",
      "type": "function"
    },
    {
      "inputs": [],
      "name": "debtDecay",
      "outputs": [
        {
          "internalType": "uint256",
          "name": "decay_",
          "type": "uint256"
        }
      ],
      "stateMutability": "view",
      "type": "function"
    },
    {
      "inputs": [],
      "name": "debtRatio",
      "outputs": [
        {
          "internalType": "uint256",
          "name": "debtRatio_",
          "type": "uint256"
        }
      ],
      "stateMutability": "view",
      "type": "function"
    },
    {
      "inputs": [
        {
          "internalType": "uint256",
          "name": "_amount",
          "type": "uint256"
        },
        {
          "internalType": "uint256",
          "name": "_maxPrice",
          "type": "uint256"
        }
      ],
      "name": "deposit",
      "outputs": [
        {
          "internalType": "uint256",
          "name": "",
          "type": "uint256"
        }
      ],
      "stateMutability": "nonpayable",
      "type": "function"
    },
    {
      "inputs": [],
      "name": "floorPriceValue",
      "outputs": [
        {
          "internalType": "uint256",
          "name": "",
          "type": "uint256"
        }
      ],
      "stateMutability": "view",
      "type": "function"
    },
    {
      "inputs": [
        {
          "internalType": "uint256",
          "name": "_controlVariable",
          "type": "uint256"
        },
        {
          "internalType": "uint256",
          "name": "_minimumPrice",
          "type": "uint256"
        },
        {
          "internalType": "uint256",
          "name": "_maxPayout",
          "type": "uint256"
        },
        {
          "internalType": "uint256",
          "name": "_minPayout",
          "type": "uint256"
        },
        {
          "internalType": "uint256",
          "name": "_fee",
          "type": "uint256"
        },
        {
          "internalType": "uint256",
          "name": "_bondingRewardFee",
          "type": "uint256"
        },
        {
          "internalType": "uint256",
          "name": "_maxDebt",
          "type": "uint256"
        },
        {
          "internalType": "uint32",
          "name": "_vestingTerm",
          "type": "uint32"
        }
      ],
      "name": "initializeBondTerms",
      "outputs": [],
      "stateMutability": "nonpayable",
      "type": "function"
    },
    {
      "inputs": [],
      "name": "lastDecay",
      "outputs": [
        {
          "internalType": "uint32",
          "name": "",
          "type": "uint32"
        }
      ],
      "stateMutability": "view",
      "type": "function"
    },
    {
      "inputs": [],
      "name": "maxPayout",
      "outputs": [
        {
          "internalType": "uint256",
          "name": "",
          "type": "uint256"
        }
      ],
      "stateMutability": "view",
      "type": "function"
    },
    {
      "inputs": [],
      "name": "owner",
      "outputs": [
        {
          "internalType": "address",
          "name": "",
          "type": "address"
        }
      ],
      "stateMutability": "view",
      "type": "function"
    },
    {
      "inputs": [
        {
          "internalType": "uint256",
          "name": "_value",
          "type": "uint256"
        }
      ],
      "name": "payoutFor",
      "outputs": [
        {
          "internalType": "uint256",
          "name": "",
          "type": "uint256"
        }
      ],
      "stateMutability": "view",
      "type": "function"
    },
    {
      "inputs": [
        {
          "internalType": "address",
          "name": "_depositor",
          "type": "address"
        }
      ],
      "name": "pendingPayoutFor",
      "outputs": [
        {
          "internalType": "uint256",
          "name": "pendingPayout_",
          "type": "uint256"
        }
      ],
      "stateMutability": "view",
      "type": "function"
    },
    {
      "inputs": [
        {
          "internalType": "address",
          "name": "_depositor",
          "type": "address"
        }
      ],
      "name": "percentVestedFor",
      "outputs": [
        {
          "internalType": "uint256",
          "name": "percentVested_",
          "type": "uint256"
        }
      ],
      "stateMutability": "view",
      "type": "function"
    },
    {
      "inputs": [],
      "name": "principle",
      "outputs": [
        {
          "internalType": "contract IERC20",
          "name": "",
          "type": "address"
        }
      ],
      "stateMutability": "view",
      "type": "function"
    },
    {
      "inputs": [
        {
          "internalType": "address",
          "name": "_token",
          "type": "address"
        }
      ],
      "name": "recoverLostToken",
      "outputs": [
        {
          "internalType": "bool",
          "name": "",
          "type": "bool"
        }
      ],
      "stateMutability": "nonpayable",
      "type": "function"
    },
    {
      "inputs": [
        {
          "internalType": "address",
          "name": "_recipient",
          "type": "address"
        },
        {
          "internalType": "bool",
          "name": "_stake",
          "type": "bool"
        }
      ],
      "name": "redeem",
      "outputs": [],
      "stateMutability": "nonpayable",
      "type": "function"
    },
    {
      "inputs": [],
      "name": "renounceOwnership",
      "outputs": [],
      "stateMutability": "nonpayable",
      "type": "function"
    },
    {
      "inputs": [
        {
          "internalType": "bool",
          "name": "_addition",
          "type": "bool"
        },
        {
          "internalType": "uint256",
          "name": "_increment",
          "type": "uint256"
        },
        {
          "internalType": "uint256",
          "name": "_maxTarget",
          "type": "uint256"
        },
        {
          "internalType": "uint256",
          "name": "_minTarget",
          "type": "uint256"
        },
        {
          "internalType": "uint32",
          "name": "_buffer",
          "type": "uint32"
        }
      ],
      "name": "setAdjustment",
      "outputs": [],
      "stateMutability": "nonpayable",
      "type": "function"
    },
    {
      "inputs": [
        {
          "internalType": "enum Bond.PARAMETER",
          "name": "_parameter",
          "type": "uint8"
        },
        {
          "internalType": "uint256",
          "name": "_input",
          "type": "uint256"
        }
      ],
      "name": "setBondTerms",
      "outputs": [],
      "stateMutability": "nonpayable",
      "type": "function"
    },
    {
      "inputs": [
        {
          "internalType": "uint256",
          "name": "_value",
          "type": "uint256"
        }
      ],
      "name": "setFloorPriceValue",
      "outputs": [],
      "stateMutability": "nonpayable",
      "type": "function"
    },
    {
      "inputs": [
        {
          "internalType": "address",
          "name": "_staking",
          "type": "address"
        }
      ],
      "name": "setStaking",
      "outputs": [],
      "stateMutability": "nonpayable",
      "type": "function"
    },
    {
      "inputs": [
        {
          "internalType": "address",
          "name": "_tavCalculator",
          "type": "address"
        }
      ],
      "name": "setTAVCalculator",
      "outputs": [],
      "stateMutability": "nonpayable",
      "type": "function"
    },
    {
      "inputs": [],
      "name": "staking",
      "outputs": [
        {
          "internalType": "contract IStaking",
          "name": "",
          "type": "address"
        }
      ],
      "stateMutability": "view",
      "type": "function"
    },
    {
      "inputs": [],
      "name": "tavCalculator",
      "outputs": [
        {
          "internalType": "contract ITAVCalculator",
          "name": "",
          "type": "address"
        }
      ],
      "stateMutability": "view",
      "type": "function"
    },
    {
      "inputs": [],
      "name": "terms",
      "outputs": [
        {
          "internalType": "uint256",
          "name": "controlVariable",
          "type": "uint256"
        },
        {
          "internalType": "uint256",
          "name": "minimumPrice",
          "type": "uint256"
        },
        {
          "internalType": "uint256",
          "name": "maxPayout",
          "type": "uint256"
        },
        {
          "internalType": "uint256",
          "name": "fee",
          "type": "uint256"
        },
        {
          "internalType": "uint256",
          "name": "bondingRewardFee",
          "type": "uint256"
        },
        {
          "internalType": "uint256",
          "name": "maxDebt",
          "type": "uint256"
        },
        {
          "internalType": "uint32",
          "name": "vestingTerm",
          "type": "uint32"
        },
        {
          "internalType": "uint256",
          "name": "minimumPayout",
          "type": "uint256"
        }
      ],
      "stateMutability": "view",
      "type": "function"
    },
    {
      "inputs": [],
      "name": "totalDebt",
      "outputs": [
        {
          "internalType": "uint256",
          "name": "",
          "type": "uint256"
        }
      ],
      "stateMutability": "view",
      "type": "function"
    },
    {
      "inputs": [
        {
          "internalType": "address",
          "name": "newOwner",
          "type": "address"
        }
      ],
      "name": "transferOwnership",
      "outputs": [],
      "stateMutability": "nonpayable",
      "type": "function"
    },
    {
      "inputs": [],
      "name": "treasury",
      "outputs": [
        {
          "internalType": "contract ITreasury",
          "name": "",
          "type": "address"
        }
      ],
      "stateMutability": "view",
      "type": "function"
    }
  ],
  "bytecode": "0x60e06040523480156200001157600080fd5b5060405162005ed638038062005ed68339818101604052810190620000379190620003f6565b620000576200004b620002fc60201b60201c565b6200030460201b60201c565b600073ffffffffffffffffffffffffffffffffffffffff168473ffffffffffffffffffffffffffffffffffffffff1614156200009257600080fd5b8373ffffffffffffffffffffffffffffffffffffffff1660808173ffffffffffffffffffffffffffffffffffffffff1660601b81525050600073ffffffffffffffffffffffffffffffffffffffff168373ffffffffffffffffffffffffffffffffffffffff1614156200010457600080fd5b82600160006101000a81548173ffffffffffffffffffffffffffffffffffffffff021916908373ffffffffffffffffffffffffffffffffffffffff160217905550600073ffffffffffffffffffffffffffffffffffffffff168273ffffffffffffffffffffffffffffffffffffffff1614156200018057600080fd5b8173ffffffffffffffffffffffffffffffffffffffff1660a08173ffffffffffffffffffffffffffffffffffffffff1660601b81525050600073ffffffffffffffffffffffffffffffffffffffff168173ffffffffffffffffffffffffffffffffffffffff161415620001f257600080fd5b8073ffffffffffffffffffffffffffffffffffffffff1660c08173ffffffffffffffffffffffffffffffffffffffff1660601b81525050600160009054906101000a900473ffffffffffffffffffffffffffffffffffffffff1673ffffffffffffffffffffffffffffffffffffffff1663095ea7b383722cd76fe086b93ce2f768a00b22a000000000006040518363ffffffff1660e01b81526004016200029b929190620004b0565b602060405180830381600087803b158015620002b657600080fd5b505af1158015620002cb573d6000803e3d6000fd5b505050506040513d601f19601f82011682018060405250810190620002f1919062000462565b50505050506200056f565b600033905090565b60008060009054906101000a900473ffffffffffffffffffffffffffffffffffffffff169050816000806101000a81548173ffffffffffffffffffffffffffffffffffffffff021916908373ffffffffffffffffffffffffffffffffffffffff1602179055508173ffffffffffffffffffffffffffffffffffffffff168173ffffffffffffffffffffffffffffffffffffffff167f8be0079c531659141344cd1fd0a4f28419497f9722a3daafe3b4186f6b6457e060405160405180910390a35050565b600081519050620003d9816200053b565b92915050565b600081519050620003f08162000555565b92915050565b600080600080608085870312156200040d57600080fd5b60006200041d87828801620003c8565b94505060206200043087828801620003c8565b93505060406200044387828801620003c8565b92505060606200045687828801620003c8565b91505092959194509250565b6000602082840312156200047557600080fd5b60006200048584828501620003df565b91505092915050565b6200049981620004dd565b82525050565b620004aa8162000527565b82525050565b6000604082019050620004c760008301856200048e565b620004d660208301846200049f565b9392505050565b6000620004ea82620004fd565b9050919050565b60008115159050919050565b600073ffffffffffffffffffffffffffffffffffffffff82169050919050565b6000819050919050565b600062000534826200051d565b9050919050565b6200054681620004dd565b81146200055257600080fd5b50565b6200056081620004f1565b81146200056c57600080fd5b50565b60805160601c60a05160601c60c05160601c6158ef620005e760003960008181611d7c01528181611fe6015261283001526000818161128f01526127740152600081816115e901528181611c9601528181611e36015281816120d90152818161234f015281816128520152612cb101526158ef6000f3fe608060405234801561001057600080fd5b50600436106102115760003560e01c8063844b5c7c11610125578063d5025625116100ad578063e392a2621161007c578063e392a262146105f5578063f2fde38b14610613578063f5c2ab5b1461062f578063fb87b2721461064d578063fc7b9c181461066957610211565b8063d502562514610564578063d7ccfb0b14610589578063e0176de8146105a7578063e2bbb158146105c557610211565b806398fabd3a116100f457806398fabd3a146104a95780639b4b9010146104c7578063b4abccba146104e3578063cd1234b314610513578063cea55f571461054657610211565b8063844b5c7c14610435578063868a352b146104535780638da5cb5b1461046f5780638ff390991461048d57610211565b806361d027b3116101a8578063759076e511610177578063759076e51461038d5780637927ebf8146103ab57806379cdf620146103db5780637dec6d9a146103f95780638081caf41461041757610211565b806361d027b31461032b57806368f33ff4146103495780636d90e5b814610365578063715018a61461038357610211565b80632b303fe0116101e45780632b303fe01461029c578063451ee4a1146102ba5780634cf088d9146102dd578063507930ec146102fb57610211565b8063016a42841461021657806301b88ee8146102345780631e321a0f146102645780631feed31f14610280575b600080fd5b61021e610687565b60405161022b91906146e8565b60405180910390f35b61024e60048036038101906102499190613c89565b6106ad565b60405161025b9190614b16565b60405180910390f35b61027e60048036038101906102799190613d8e565b61073d565b005b61029a60048036038101906102959190613cb2565b610cdd565b005b6102a46110e8565b6040516102b19190614b16565b60405180910390f35b6102c26110ee565b6040516102d496959493929190614687565b60405180910390f35b6102e5611145565b6040516102f29190614703565b60405180910390f35b61031560048036038101906103109190613c89565b61116b565b6040516103229190614b16565b60405180910390f35b61033361128d565b6040516103409190614739565b60405180910390f35b610363600480360381019061035e9190613e58565b6112b1565b005b61036d6115e7565b60405161037a91906146e8565b60405180910390f35b61038b61160b565b005b610395611693565b6040516103a29190614b16565b60405180910390f35b6103c560048036038101906103c09190613dca565b6116b6565b6040516103d29190614b16565b60405180910390f35b6103e3611712565b6040516103f0919061471e565b60405180910390f35b610401611738565b60405161040e9190614b16565b60405180910390f35b61041f61173e565b60405161042c9190614b16565b60405180910390f35b61043d611872565b60405161044a9190614b16565b60405180910390f35b61046d60048036038101906104689190613d17565b611881565b005b610477611afb565b60405161048491906145c8565b60405180910390f35b6104a760048036038101906104a29190613c89565b611b24565b005b6104b1611d7a565b6040516104be91906145c8565b60405180910390f35b6104e160048036038101906104dc9190613dca565b611d9e565b005b6104fd60048036038101906104f89190613c89565b611e32565b60405161050a919061466c565b60405180910390f35b61052d60048036038101906105289190613c89565b612084565b60405161053d9493929190614c7d565b60405180910390f35b61054e6120d4565b60405161055b9190614b16565b60405180910390f35b61056c6121bf565b604051610580989796959493929190614bff565b60405180910390f35b610591612205565b60405161059e9190614b16565b60405180910390f35b6105af61233e565b6040516105bc9190614b16565b60405180910390f35b6105df60048036038101906105da9190613e1c565b612408565b6040516105ec9190614b16565b60405180910390f35b6105fd612958565b60405161060a9190614b16565b60405180910390f35b61062d60048036038101906106289190613c89565b6129df565b005b610637612ad7565b6040516106449190614cc2565b60405180910390f35b61066760048036038101906106629190613c89565b612aed565b005b610671612c60565b60405161067e9190614b16565b60405180910390f35b600160009054906101000a900473ffffffffffffffffffffffffffffffffffffffff1681565b6000806106b98361116b565b90506000601160008573ffffffffffffffffffffffffffffffffffffffff1673ffffffffffffffffffffffffffffffffffffffff168152602001908152602001600020600001549050612710821061071357809250610736565b6127106107298383612c6690919063ffffffff16565b6107339190614d9f565b92505b5050919050565b610745612c9d565b73ffffffffffffffffffffffffffffffffffffffff16610763611afb565b73ffffffffffffffffffffffffffffffffffffffff16146107b9576040517f08c379a00000000000000000000000000000000000000000000000000000000081526004016107b09061495f565b60405180910390fd5b600060068111156107f3577f4e487b7100000000000000000000000000000000000000000000000000000000600052602160045260246000fd5b82600681111561082c577f4e487b7100000000000000000000000000000000000000000000000000000000600052602160045260246000fd5b14156108a15762015180811015610878576040517f08c379a000000000000000000000000000000000000000000000000000000000815260040161086f906149bf565b60405180910390fd5b80600460060160006101000a81548163ffffffff021916908363ffffffff160217905550610ca0565b600160068111156108db577f4e487b7100000000000000000000000000000000000000000000000000000000600052602160045260246000fd5b826006811115610914577f4e487b7100000000000000000000000000000000000000000000000000000000600052602160045260246000fd5b141561096e5761271081111561095f576040517f08c379a0000000000000000000000000000000000000000000000000000000008152600401610956906147ff565b60405180910390fd5b80600460020181905550610c9f565b600260068111156109a8577f4e487b7100000000000000000000000000000000000000000000000000000000600052602160045260246000fd5b8260068111156109e1577f4e487b7100000000000000000000000000000000000000000000000000000000600052602160045260246000fd5b1415610a8057612710811115610a2c576040517f08c379a0000000000000000000000000000000000000000000000000000000008152600401610a239061497f565b60405180910390fd5b6107d0811015610a71576040517f08c379a0000000000000000000000000000000000000000000000000000000008152600401610a689061485f565b60405180910390fd5b80600460030181905550610c9e565b60036006811115610aba577f4e487b7100000000000000000000000000000000000000000000000000000000600052602160045260246000fd5b826006811115610af3577f4e487b7100000000000000000000000000000000000000000000000000000000600052602160045260246000fd5b1415610b085780600460050181905550610c9d565b60046006811115610b42577f4e487b7100000000000000000000000000000000000000000000000000000000600052602160045260246000fd5b826006811115610b7b577f4e487b7100000000000000000000000000000000000000000000000000000000600052602160045260246000fd5b1415610b905780600460010181905550610c9c565b60056006811115610bca577f4e487b7100000000000000000000000000000000000000000000000000000000600052602160045260246000fd5b826006811115610c03577f4e487b7100000000000000000000000000000000000000000000000000000000600052602160045260246000fd5b1415610c185780600460070181905550610c9b565b600680811115610c51577f4e487b7100000000000000000000000000000000000000000000000000000000600052602160045260246000fd5b826006811115610c8a577f4e487b7100000000000000000000000000000000000000000000000000000000600052602160045260246000fd5b1415610c9a578060048001819055505b5b5b5b5b5b5b7f4e3705d256225a38255bfb7114e7fa4b6b2939ab1f71639f57e06928858646c58282604051610cd1929190614754565b60405180910390a15050565b8173ffffffffffffffffffffffffffffffffffffffff163373ffffffffffffffffffffffffffffffffffffffff1614610d4b576040517f08c379a0000000000000000000000000000000000000000000000000000000008152600401610d4290614a7f565b60405180910390fd5b6000601160008473ffffffffffffffffffffffffffffffffffffffff1673ffffffffffffffffffffffffffffffffffffffff16815260200190815260200160002060405180608001604052908160008201548152602001600182015481526020016002820160009054906101000a900463ffffffff1663ffffffff1663ffffffff1681526020016002820160049054906101000a900463ffffffff1663ffffffff1663ffffffff168152505090506000610e048461116b565b90506127108110610ef857601160008573ffffffffffffffffffffffffffffffffffffffff1673ffffffffffffffffffffffffffffffffffffffff16815260200190815260200160002060008082016000905560018201600090556002820160006101000a81549063ffffffff02191690556002820160046101000a81549063ffffffff021916905550508373ffffffffffffffffffffffffffffffffffffffff167f51c99f515c87b0d95ba97f616edd182e8f161c4932eac17c6fefe9dab58b77b183600001516000604051610edc929190614b68565b60405180910390a2610ef384848460000151612ca5565b6110e2565b6000612710610f14838560000151612c6690919063ffffffff16565b610f1e9190614d9f565b90506040518060800160405280610f42838660000151612db090919063ffffffff16565b8152602001846020015181526020014263ffffffff168152602001610f96610f7d86604001514263ffffffff16612dd390919063ffffffff16565b866060015163ffffffff16612dd390919063ffffffff16565b63ffffffff16815250601160008773ffffffffffffffffffffffffffffffffffffffff1673ffffffffffffffffffffffffffffffffffffffff168152602001908152602001600020600082015181600001556020820151816001015560408201518160020160006101000a81548163ffffffff021916908363ffffffff16021790555060608201518160020160046101000a81548163ffffffff021916908363ffffffff1602179055509050508473ffffffffffffffffffffffffffffffffffffffff167f51c99f515c87b0d95ba97f616edd182e8f161c4932eac17c6fefe9dab58b77b182601160008973ffffffffffffffffffffffffffffffffffffffff1673ffffffffffffffffffffffffffffffffffffffff168152602001908152602001600020600001546040516110cd929190614b91565b60405180910390a26110e0858583612ca5565b505b50505050565b60145481565b600c8060000160009054906101000a900460ff16908060010154908060020154908060030154908060040160009054906101000a900463ffffffff16908060040160049054906101000a900463ffffffff16905086565b600260009054906101000a900473ffffffffffffffffffffffffffffffffffffffff1681565b600080601160008473ffffffffffffffffffffffffffffffffffffffff1673ffffffffffffffffffffffffffffffffffffffff16815260200190815260200160002060405180608001604052908160008201548152602001600182015481526020016002820160009054906101000a900463ffffffff1663ffffffff1663ffffffff1681526020016002820160049054906101000a900463ffffffff1663ffffffff1663ffffffff16815250509050600061123982604001514263ffffffff16612dd390919063ffffffff16565b63ffffffff1690506000826060015163ffffffff1690506000811115611280578061126f61271084612c6690919063ffffffff16565b6112799190614d9f565b9350611285565b600093505b505050919050565b7f000000000000000000000000000000000000000000000000000000000000000081565b6112b9612c9d565b73ffffffffffffffffffffffffffffffffffffffff166112d7611afb565b73ffffffffffffffffffffffffffffffffffffffff161461132d576040517f08c379a00000000000000000000000000000000000000000000000000000000081526004016113249061495f565b60405180910390fd5b600060046000015414611375576040517f08c379a000000000000000000000000000000000000000000000000000000000815260040161136c90614a1f565b60405180910390fd5b60008810156113b9576040517f08c379a00000000000000000000000000000000000000000000000000000000081526004016113b0906149ff565b60405180910390fd5b6127108611156113fe576040517f08c379a00000000000000000000000000000000000000000000000000000000081526004016113f5906147ff565b60405180910390fd5b600a8163ffffffff161015611448576040517f08c379a000000000000000000000000000000000000000000000000000000000815260040161143f906149bf565b60405180910390fd5b61271084111561148d576040517f08c379a00000000000000000000000000000000000000000000000000000000081526004016114849061479f565b60405180910390fd5b6127108311156114d2576040517f08c379a00000000000000000000000000000000000000000000000000000000081526004016114c99061481f565b60405180910390fd5b6040518061010001604052808981526020018881526020018781526020018581526020018481526020018381526020018263ffffffff168152602001868152506004600082015181600001556020820151816001015560408201518160020155606082015181600301556080820151816004015560a0820151816005015560c08201518160060160006101000a81548163ffffffff021916908363ffffffff16021790555060e0820151816007015590505042601360006101000a81548163ffffffff021916908363ffffffff1602179055507f374455252cd456bbe9a81a1506246bf0ac944729f3affdfab5814e6f56af332260046040516115d59190614afa565b60405180910390a15050505050505050565b7f000000000000000000000000000000000000000000000000000000000000000081565b611613612c9d565b73ffffffffffffffffffffffffffffffffffffffff16611631611afb565b73ffffffffffffffffffffffffffffffffffffffff1614611687576040517f08c379a000000000000000000000000000000000000000000000000000000000815260040161167e9061495f565b60405180910390fd5b6116916000612e02565b565b60006116b16116a0612958565b601254612db090919063ffffffff16565b905090565b600061170b633b9aca00806116f36116ee866116e9662386f26fc100006116db612205565b612c6690919063ffffffff16565b612ec6565b6130cd565b6116fd9190614d9f565b612c6690919063ffffffff16565b9050919050565b600360009054906101000a900473ffffffffffffffffffffffffffffffffffffffff1681565b60155481565b600080600360009054906101000a900473ffffffffffffffffffffffffffffffffffffffff1673ffffffffffffffffffffffffffffffffffffffff1663ac3b992a6040518163ffffffff1660e01b815260040160206040518083038186803b1580156117a957600080fd5b505afa1580156117bd573d6000803e3d6000fd5b505050506040513d601f19601f820116820180604052508101906117e19190613df3565b905060006118046117f06120d4565b600460000154612c6690919063ffffffff16565b611831620186a061182360046003015486612c6690919063ffffffff16565b61310b90919063ffffffff16565b61183b9190614d0f565b905061186b64e8d4a5100061185d600480015484612c6690919063ffffffff16565b61310b90919063ffffffff16565b9250505090565b600061187c612205565b905090565b611889612c9d565b73ffffffffffffffffffffffffffffffffffffffff166118a7611afb565b73ffffffffffffffffffffffffffffffffffffffff16146118fd576040517f08c379a00000000000000000000000000000000000000000000000000000000081526004016118f49061495f565b60405180910390fd5b6103e861191a6101f4600460000154612c6690919063ffffffff16565b6119249190614d9f565b841115611966576040517f08c379a000000000000000000000000000000000000000000000000000000000815260040161195d9061489f565b60405180910390fd5b6103e88310156119ab576040517f08c379a00000000000000000000000000000000000000000000000000000000081526004016119a2906147bf565b60405180910390fd5b6103e88211156119f0576040517f08c379a00000000000000000000000000000000000000000000000000000000081526004016119e7906147bf565b60405180910390fd5b6040518060c0016040528086151581526020018581526020018481526020018381526020018263ffffffff1681526020014263ffffffff16815250600c60008201518160000160006101000a81548160ff02191690831515021790555060208201518160010155604082015181600201556060820151816003015560808201518160040160006101000a81548163ffffffff021916908363ffffffff16021790555060a08201518160040160046101000a81548163ffffffff021916908363ffffffff1602179055509050507fa7baed62dbecf9e27c728fe789b5834dd9c642ff4df89d99851a735cc4a573da600c604051611aec9190614adf565b60405180910390a15050505050565b60008060009054906101000a900473ffffffffffffffffffffffffffffffffffffffff16905090565b611b2c612c9d565b73ffffffffffffffffffffffffffffffffffffffff16611b4a611afb565b73ffffffffffffffffffffffffffffffffffffffff1614611ba0576040517f08c379a0000000000000000000000000000000000000000000000000000000008152600401611b979061495f565b60405180910390fd5b600073ffffffffffffffffffffffffffffffffffffffff168173ffffffffffffffffffffffffffffffffffffffff161415611c10576040517f08c379a0000000000000000000000000000000000000000000000000000000008152600401611c079061493f565b60405180910390fd5b80600260006101000a81548173ffffffffffffffffffffffffffffffffffffffff021916908373ffffffffffffffffffffffffffffffffffffffff1602179055508073ffffffffffffffffffffffffffffffffffffffff167f9d6a6595abf9295f9870c0d2d5760179d6f9ac798af8db39a9e3c9f2fbd2daa060405160405180910390a27f000000000000000000000000000000000000000000000000000000000000000073ffffffffffffffffffffffffffffffffffffffff1663095ea7b3600260009054906101000a900473ffffffffffffffffffffffffffffffffffffffff16722cd76fe086b93ce2f768a00b22a000000000006040518363ffffffff1660e01b8152600401611d2492919061461a565b602060405180830381600087803b158015611d3e57600080fd5b505af1158015611d52573d6000803e3d6000fd5b505050506040513d601f19601f82011682018060405250810190611d769190613cee565b5050565b7f000000000000000000000000000000000000000000000000000000000000000081565b611da6612c9d565b73ffffffffffffffffffffffffffffffffffffffff16611dc4611afb565b73ffffffffffffffffffffffffffffffffffffffff1614611e1a576040517f08c379a0000000000000000000000000000000000000000000000000000000008152600401611e119061495f565b60405180910390fd5b6000811415611e2857600080fd5b8060158190555050565b60007f000000000000000000000000000000000000000000000000000000000000000073ffffffffffffffffffffffffffffffffffffffff168273ffffffffffffffffffffffffffffffffffffffff161415611ec3576040517f08c379a0000000000000000000000000000000000000000000000000000000008152600401611eba90614a3f565b60405180910390fd5b600160009054906101000a900473ffffffffffffffffffffffffffffffffffffffff1673ffffffffffffffffffffffffffffffffffffffff168273ffffffffffffffffffffffffffffffffffffffff161415611f54576040517f08c379a0000000000000000000000000000000000000000000000000000000008152600401611f4b906148bf565b60405180910390fd5b60008273ffffffffffffffffffffffffffffffffffffffff166370a08231306040518263ffffffff1660e01b8152600401611f8f91906145c8565b60206040518083038186803b158015611fa757600080fd5b505afa158015611fbb573d6000803e3d6000fd5b505050506040513d601f19601f82011682018060405250810190611fdf9190613df3565b905061202c7f0000000000000000000000000000000000000000000000000000000000000000828573ffffffffffffffffffffffffffffffffffffffff166131559092919063ffffffff16565b8273ffffffffffffffffffffffffffffffffffffffff167f11f0a001971cc33b9a8651a3368b34900c22a665504b5cabc3e0e9fdf59d9846826040516120729190614b16565b60405180910390a26001915050919050565b60116020528060005260406000206000915090508060000154908060010154908060020160009054906101000a900463ffffffff16908060020160049054906101000a900463ffffffff16905084565b6000807f000000000000000000000000000000000000000000000000000000000000000073ffffffffffffffffffffffffffffffffffffffff166318160ddd6040518163ffffffff1660e01b815260040160206040518083038186803b15801561213d57600080fd5b505afa158015612151573d6000803e3d6000fd5b505050506040513d601f19601f820116820180604052508101906121759190613df3565b9050670de0b6b3a76400006121af6121aa6121a4633b9aca00612196611693565b612c6690919063ffffffff16565b84612ec6565b6130cd565b6121b99190614d9f565b91505090565b60048060000154908060010154908060020154908060030154908060040154908060050154908060060160009054906101000a900463ffffffff16908060070154905088565b600080600360009054906101000a900473ffffffffffffffffffffffffffffffffffffffff1673ffffffffffffffffffffffffffffffffffffffff1663ac3b992a6040518163ffffffff1660e01b815260040160206040518083038186803b15801561227057600080fd5b505afa158015612284573d6000803e3d6000fd5b505050506040513d601f19601f820116820180604052508101906122a89190613df3565b905060006122cb6122b76120d4565b600460000154612c6690919063ffffffff16565b6122f8620186a06122ea60046003015486612c6690919063ffffffff16565b61310b90919063ffffffff16565b6123029190614d0f565b90506298968061232d601554841161231c5760155461231e565b835b836131db90919063ffffffff16565b6123379190614d9f565b9250505090565b6000620186a06123f96004600201547f000000000000000000000000000000000000000000000000000000000000000073ffffffffffffffffffffffffffffffffffffffff166318160ddd6040518163ffffffff1660e01b815260040160206040518083038186803b1580156123b357600080fd5b505afa1580156123c7573d6000803e3d6000fd5b505050506040513d601f19601f820116820180604052508101906123eb9190613df3565b612c6690919063ffffffff16565b6124039190614d9f565b905090565b60006124126131fe565b600061241d84613243565b90506000612429611872565b905061244761243661173e565b6014546131db90919063ffffffff16565b60148190555080841015612490576040517f08c379a00000000000000000000000000000000000000000000000000000000081526004016124879061499f565b60405180910390fd5b600061249b836116b6565b90506004600501546124b8846012546131db90919063ffffffff16565b11156124f9576040517f08c379a00000000000000000000000000000000000000000000000000000000081526004016124f0906148df565b60405180910390fd5b612501613324565b811015612543576040517f08c379a000000000000000000000000000000000000000000000000000000000815260040161253a9061491f565b60405180910390fd5b61254b61233e565b81111561258d576040517f08c379a000000000000000000000000000000000000000000000000000000000815260040161258490614a5f565b60405180910390fd5b6000620186a06125ab60046003015484612c6690919063ffffffff16565b6125b59190614d9f565b905060006125cc82846131db90919063ffffffff16565b90506125e3886012546131db90919063ffffffff16565b601281905550604051806080016040528061264985601160003373ffffffffffffffffffffffffffffffffffffffff1673ffffffffffffffffffffffffffffffffffffffff168152602001908152602001600020600001546131db90919063ffffffff16565b81526020018581526020014263ffffffff168152602001600460060160009054906101000a900463ffffffff1663ffffffff16815250601160003373ffffffffffffffffffffffffffffffffffffffff1673ffffffffffffffffffffffffffffffffffffffff168152602001908152602001600020600082015181600001556020820151816001015560408201518160020160006101000a81548163ffffffff021916908363ffffffff16021790555060608201518160020160046101000a81548163ffffffff021916908363ffffffff16021790555090505061277233308a600160009054906101000a900473ffffffffffffffffffffffffffffffffffffffff1673ffffffffffffffffffffffffffffffffffffffff16613331909392919063ffffffff16565b7f000000000000000000000000000000000000000000000000000000000000000073ffffffffffffffffffffffffffffffffffffffff1663bc157ac189600160009054906101000a900473ffffffffffffffffffffffffffffffffffffffff16846040518463ffffffff1660e01b81526004016127f193929190614b31565b600060405180830381600087803b15801561280b57600080fd5b505af115801561281f573d6000803e3d6000fd5b5050505060008214612897576128967f0000000000000000000000000000000000000000000000000000000000000000837f000000000000000000000000000000000000000000000000000000000000000073ffffffffffffffffffffffffffffffffffffffff166131559092919063ffffffff16565b5b836128c6600460060160009054906101000a900463ffffffff1663ffffffff16426131db90919063ffffffff16565b847f1fec6dc81f140574bf43f6b1e420ae1dd47928b9d57db8cbd7b8611063b85ae58b6040516128f69190614b16565b60405180910390a46129066120d4565b61290e612205565b612916611872565b7f375b221f40939bfd8f49723a17cf7bc6d576ebf72efe2cc3e991826f5b3f390a60405160405180910390a461294a6133ba565b829550505050505092915050565b600080612986601360009054906101000a900463ffffffff164263ffffffff16612dd390919063ffffffff16565b9050600460060160009054906101000a900463ffffffff1663ffffffff166129bf8263ffffffff16601254612c6690919063ffffffff16565b6129c99190614d9f565b91506012548211156129db5760125491505b5090565b6129e7612c9d565b73ffffffffffffffffffffffffffffffffffffffff16612a05611afb565b73ffffffffffffffffffffffffffffffffffffffff1614612a5b576040517f08c379a0000000000000000000000000000000000000000000000000000000008152600401612a529061495f565b60405180910390fd5b600073ffffffffffffffffffffffffffffffffffffffff168173ffffffffffffffffffffffffffffffffffffffff161415612acb576040517f08c379a0000000000000000000000000000000000000000000000000000000008152600401612ac2906147df565b60405180910390fd5b612ad481612e02565b50565b601360009054906101000a900463ffffffff1681565b612af5612c9d565b73ffffffffffffffffffffffffffffffffffffffff16612b13611afb565b73ffffffffffffffffffffffffffffffffffffffff1614612b69576040517f08c379a0000000000000000000000000000000000000000000000000000000008152600401612b609061495f565b60405180910390fd5b600073ffffffffffffffffffffffffffffffffffffffff168173ffffffffffffffffffffffffffffffffffffffff161415612bd9576040517f08c379a0000000000000000000000000000000000000000000000000000000008152600401612bd09061493f565b60405180910390fd5b80600360006101000a81548173ffffffffffffffffffffffffffffffffffffffff021916908373ffffffffffffffffffffffffffffffffffffffff1602179055508073ffffffffffffffffffffffffffffffffffffffff167f9d6a6595abf9295f9870c0d2d5760179d6f9ac798af8db39a9e3c9f2fbd2daa060405160405180910390a250565b60125481565b600080831480612c8e575081838385612c7f9190614f41565b925082612c8c9190614d9f565b145b612c9757600080fd5b92915050565b600033905090565b81612cfa57612cf583827f000000000000000000000000000000000000000000000000000000000000000073ffffffffffffffffffffffffffffffffffffffff166131559092919063ffffffff16565b612dab565b600260009054906101000a900473ffffffffffffffffffffffffffffffffffffffff1673ffffffffffffffffffffffffffffffffffffffff1663adc9772e84836040518363ffffffff1660e01b8152600401612d57929190614643565b602060405180830381600087803b158015612d7157600080fd5b505af1158015612d85573d6000803e3d6000fd5b505050506040513d601f19601f82011682018060405250810190612da99190613df3565b505b505050565b6000828284612dbf9190614f9b565b9150811115612dcd57600080fd5b92915050565b60008263ffffffff168284612de89190614fcf565b91508163ffffffff161115612dfc57600080fd5b92915050565b60008060009054906101000a900473ffffffffffffffffffffffffffffffffffffffff169050816000806101000a81548173ffffffffffffffffffffffffffffffffffffffff021916908373ffffffffffffffffffffffffffffffffffffffff1602179055508173ffffffffffffffffffffffffffffffffffffffff168173ffffffffffffffffffffffffffffffffffffffff167f8be0079c531659141344cd1fd0a4f28419497f9722a3daafe3b4186f6b6457e060405160405180910390a35050565b612ece613bb0565b60008211612f11576040517f08c379a0000000000000000000000000000000000000000000000000000000008152600401612f089061487f565b60405180910390fd5b6000831415612f4f57604051806020016040528060007bffffffffffffffffffffffffffffffffffffffffffffffffffffffff1681525090506130c7565b71ffffffffffffffffffffffffffffffffffff8016831161301757600082607060ff1685901b612f7f9190614d9f565b90507bffffffffffffffffffffffffffffffffffffffffffffffffffffffff8016811115612fe2576040517f08c379a0000000000000000000000000000000000000000000000000000000008152600401612fd9906149df565b60405180910390fd5b6040518060200160405280827bffffffffffffffffffffffffffffffffffffffffffffffffffffffff168152509150506130c7565b6000613033846e01000000000000000000000000000085613585565b90507bffffffffffffffffffffffffffffffffffffffffffffffffffffffff8016811115613096576040517f08c379a000000000000000000000000000000000000000000000000000000000815260040161308d906149df565b60405180910390fd5b6040518060200160405280827bffffffffffffffffffffffffffffffffffffffffffffffffffffffff168152509150505b92915050565b60006612725dd1d243ab82600001517bffffffffffffffffffffffffffffffffffffffffffffffffffffffff166131049190614d9f565b9050919050565b600061314d83836040518060400160405280601a81526020017f536166654d6174683a206469766973696f6e206279207a65726f000000000000815250613653565b905092915050565b6131d68363a9059cbb60e01b8484604051602401613174929190614643565b604051602081830303815290604052907bffffffffffffffffffffffffffffffffffffffffffffffffffffffff19166020820180517bffffffffffffffffffffffffffffffffffffffffffffffffffffffff83818316178352505050506136b6565b505050565b60008282846131ea9190614d0f565b91508110156131f857600080fd5b92915050565b61321a613209612958565b601254612db090919063ffffffff16565b60128190555042601360006101000a81548163ffffffff021916908363ffffffff160217905550565b600061331d600160009054906101000a900473ffffffffffffffffffffffffffffffffffffffff1673ffffffffffffffffffffffffffffffffffffffff1663313ce5676040518163ffffffff1660e01b815260040160206040518083038186803b1580156132b057600080fd5b505afa1580156132c4573d6000803e3d6000fd5b505050506040513d601f19601f820116820180604052508101906132e89190613f0a565b600a6132f49190614e23565b61330f670de0b6b3a764000085612c6690919063ffffffff16565b61310b90919063ffffffff16565b9050919050565b6000600460070154905090565b6133b4846323b872dd60e01b858585604051602401613352939291906145e3565b604051602081830303815290604052907bffffffffffffffffffffffffffffffffffffffffffffffffffffffff19166020820180517bffffffffffffffffffffffffffffffffffffffffffffffffffffffff83818316178352505050506136b6565b50505050565b60006133ff600c60040160009054906101000a900463ffffffff16600c60040160049054906101000a900463ffffffff1663ffffffff1661377d90919063ffffffff16565b63ffffffff1690506000600c600101541415801561341d5750804210155b1561358257600060046000015490506000819050600c60000160009054906101000a900460ff16156134a557613461600c60010154826131db90919063ffffffff16565b9050600c6002015481106134a057600c60000160009054906101000a900460ff1615600c60000160006101000a81548160ff0219169083151502179055505b6134fd565b6134bd600c6001015482612db090919063ffffffff16565b9050600c6003015481116134fc57600c60000160009054906101000a900460ff1615600c60000160006101000a81548160ff0219169083151502179055505b5b8060046000018190555042600c60040160046101000a81548163ffffffff021916908363ffffffff1602179055507fb923e581a0f83128e9e1d8297aa52b18d6744310476e0b54509c054cd7a93b2a8282600c60010154600c60000160009054906101000a900460ff166040516135779493929190614bba565b60405180910390a150505b50565b600080600061359486866137ac565b91509150600084806135cf577f4e487b7100000000000000000000000000000000000000000000000000000000600052601260045260246000fd5b8688099050828111156135ec576001826135e99190614f9b565b91505b80836135f89190614f9b565b925084821061363c576040517f08c379a0000000000000000000000000000000000000000000000000000000008152600401613633906148ff565b60405180910390fd5b613647838387613847565b93505050509392505050565b6000808311829061369a576040517f08c379a0000000000000000000000000000000000000000000000000000000008152600401613691919061477d565b60405180910390fd5b50600083856136a99190614d9f565b9050809150509392505050565b6000613718826040518060400160405280602081526020017f5361666545524332303a206c6f772d6c6576656c2063616c6c206661696c65648152508573ffffffffffffffffffffffffffffffffffffffff166139fa9092919063ffffffff16565b905060008151111561377857808060200190518101906137389190613cee565b613777576040517f08c379a000000000000000000000000000000000000000000000000000000000815260040161376e90614abf565b60405180910390fd5b5b505050565b60008263ffffffff1682846137929190614d65565b91508163ffffffff1610156137a657600080fd5b92915050565b60008060007fffffffffffffffffffffffffffffffffffffffffffffffffffffffffffffffff80613806577f4e487b7100000000000000000000000000000000000000000000000000000000600052601260045260246000fd5b848609905083856138179190614f41565b925082816138259190614f9b565b91508281101561383f5760018261383c9190614f9b565b91505b509250929050565b600080600183196138589190614d0f565b8316905080836138689190614d9f565b925080856138769190614d9f565b9450600181600183196138899190614d0f565b6138939190614d9f565b61389d9190614d0f565b846138a89190614f41565b856138b39190614d0f565b945060006001905080846138c79190614f41565b60026138d39190614f9b565b816138de9190614f41565b905080846138ec9190614f41565b60026138f89190614f9b565b816139039190614f41565b905080846139119190614f41565b600261391d9190614f9b565b816139289190614f41565b905080846139369190614f41565b60026139429190614f9b565b8161394d9190614f41565b9050808461395b9190614f41565b60026139679190614f9b565b816139729190614f41565b905080846139809190614f41565b600261398c9190614f9b565b816139979190614f41565b905080846139a59190614f41565b60026139b19190614f9b565b816139bc9190614f41565b905080846139ca9190614f41565b60026139d69190614f9b565b816139e19190614f41565b905080866139ef9190614f41565b925050509392505050565b6060613a098484600085613a12565b90509392505050565b606082471015613a57576040517f08c379a0000000000000000000000000000000000000000000000000000000008152600401613a4e9061483f565b60405180910390fd5b613a6085613b26565b613a9f576040517f08c379a0000000000000000000000000000000000000000000000000000000008152600401613a9690614a9f565b60405180910390fd5b6000808673ffffffffffffffffffffffffffffffffffffffff168587604051613ac891906145b1565b60006040518083038185875af1925050503d8060008114613b05576040519150601f19603f3d011682016040523d82523d6000602084013e613b0a565b606091505b5091509150613b1a828286613b49565b92505050949350505050565b6000808273ffffffffffffffffffffffffffffffffffffffff163b119050919050565b60608315613b5957829050613ba9565b600083511115613b6c5782518084602001fd5b816040517f08c379a0000000000000000000000000000000000000000000000000000000008152600401613ba0919061477d565b60405180910390fd5b9392505050565b604051806020016040528060007bffffffffffffffffffffffffffffffffffffffffffffffffffffffff1681525090565b600081359050613bf081615836565b92915050565b600081359050613c058161584d565b92915050565b600081519050613c1a8161584d565b92915050565b600081359050613c2f81615864565b92915050565b600081359050613c4481615874565b92915050565b600081519050613c5981615874565b92915050565b600081359050613c6e8161588b565b92915050565b600081519050613c83816158a2565b92915050565b600060208284031215613c9b57600080fd5b6000613ca984828501613be1565b91505092915050565b60008060408385031215613cc557600080fd5b6000613cd385828601613be1565b9250506020613ce485828601613bf6565b9150509250929050565b600060208284031215613d0057600080fd5b6000613d0e84828501613c0b565b91505092915050565b600080600080600060a08688031215613d2f57600080fd5b6000613d3d88828901613bf6565b9550506020613d4e88828901613c35565b9450506040613d5f88828901613c35565b9350506060613d7088828901613c35565b9250506080613d8188828901613c5f565b9150509295509295909350565b60008060408385031215613da157600080fd5b6000613daf85828601613c20565b9250506020613dc085828601613c35565b9150509250929050565b600060208284031215613ddc57600080fd5b6000613dea84828501613c35565b91505092915050565b600060208284031215613e0557600080fd5b6000613e1384828501613c4a565b91505092915050565b60008060408385031215613e2f57600080fd5b6000613e3d85828601613c35565b9250506020613e4e85828601613c35565b9150509250929050565b600080600080600080600080610100898b031215613e7557600080fd5b6000613e838b828c01613c35565b9850506020613e948b828c01613c35565b9750506040613ea58b828c01613c35565b9650506060613eb68b828c01613c35565b9550506080613ec78b828c01613c35565b94505060a0613ed88b828c01613c35565b93505060c0613ee98b828c01613c35565b92505060e0613efa8b828c01613c5f565b9150509295985092959890939650565b600060208284031215613f1c57600080fd5b6000613f2a84828501613c74565b91505092915050565b613f3c8161502a565b82525050565b613f4b8161503c565b82525050565b613f5a8161503c565b82525050565b6000613f6b82614cdd565b613f758185614cf3565b9350613f85818560208601615168565b80840191505092915050565b613f9a816150a2565b82525050565b613fa9816150c6565b82525050565b613fb8816150ea565b82525050565b613fc78161510e565b82525050565b613fd681615132565b82525050565b613fe581615144565b82525050565b613ff481615156565b82525050565b600061400582614ce8565b61400f8185614cfe565b935061401f818560208601615168565b61402881615290565b840191505092915050565b6000614040601c83614cfe565b915061404b826152c8565b602082019050919050565b6000614063601f83614cfe565b915061406e826152f1565b602082019050919050565b6000614086602683614cfe565b91506140918261531a565b604082019050919050565b60006140a9602183614cfe565b91506140b482615369565b604082019050919050565b60006140cc602683614cfe565b91506140d7826153b8565b604082019050919050565b60006140ef602683614cfe565b91506140fa82615407565b604082019050919050565b6000614112601a83614cfe565b915061411d82615456565b602082019050919050565b6000614135602683614cfe565b91506141408261547f565b604082019050919050565b6000614158601383614cfe565b9150614163826154ce565b602082019050919050565b600061417b600383614cfe565b9150614186826154f7565b602082019050919050565b600061419e601483614cfe565b91506141a982615520565b602082019050919050565b60006141c1601a83614cfe565b91506141cc82615549565b602082019050919050565b60006141e4600e83614cfe565b91506141ef82615572565b602082019050919050565b6000614207600283614cfe565b91506142128261559b565b602082019050919050565b600061422a602083614cfe565b9150614235826155c4565b602082019050919050565b600061424d601983614cfe565b9150614258826155ed565b602082019050919050565b6000614270602383614cfe565b915061427b82615616565b604082019050919050565b6000614293602483614cfe565b915061429e82615665565b604082019050919050565b60006142b6601e83614cfe565b91506142c1826156b4565b602082019050919050565b60006142d9601383614cfe565b91506142e4826156dd565b602082019050919050565b60006142fc602083614cfe565b915061430782615706565b602082019050919050565b600061431f600383614cfe565b915061432a8261572f565b602082019050919050565b6000614342600e83614cfe565b915061434d82615758565b602082019050919050565b6000614365600283614cfe565b915061437082615781565b602082019050919050565b6000614388601d83614cfe565b9150614393826157aa565b602082019050919050565b60006143ab602a83614cfe565b91506143b6826157d3565b604082019050919050565b60c0820160008083015490506143d68161519b565b6143e36000860182613f42565b50600183015490506143f4816151b5565b6144016020860182614575565b5060028301549050614412816151b5565b61441f6040860182614575565b5060038301549050614430816151b5565b61443d6060860182614575565b506004830154905061444e816151cf565b61445b6080860182614593565b50614465816151e9565b61447260a0860182614593565b5050505050565b6101008201600080830154905061448f816151b5565b61449c6000860182614575565b50600183015490506144ad816151b5565b6144ba6020860182614575565b50600283015490506144cb816151b5565b6144d86040860182614575565b50600383015490506144e9816151b5565b6144f66060860182614575565b5060048301549050614507816151b5565b6145146080860182614575565b5060058301549050614525816151b5565b61453260a0860182614575565b5060068301549050614543816151cf565b61455060c0860182614593565b5060078301549050614561816151b5565b61456e60e0860182614575565b5050505050565b61457e8161507b565b82525050565b61458d8161507b565b82525050565b61459c81615085565b82525050565b6145ab81615085565b82525050565b60006145bd8284613f60565b915081905092915050565b60006020820190506145dd6000830184613f33565b92915050565b60006060820190506145f86000830186613f33565b6146056020830185613f33565b6146126040830184614584565b949350505050565b600060408201905061462f6000830185613f33565b61463c6020830184613feb565b9392505050565b60006040820190506146586000830185613f33565b6146656020830184614584565b9392505050565b60006020820190506146816000830184613f51565b92915050565b600060c08201905061469c6000830189613f51565b6146a96020830188614584565b6146b66040830187614584565b6146c36060830186614584565b6146d060808301856145a2565b6146dd60a08301846145a2565b979650505050505050565b60006020820190506146fd6000830184613f91565b92915050565b60006020820190506147186000830184613fa0565b92915050565b60006020820190506147336000830184613faf565b92915050565b600060208201905061474e6000830184613fbe565b92915050565b60006040820190506147696000830185613fcd565b6147766020830184614584565b9392505050565b600060208201905081810360008301526147978184613ffa565b905092915050565b600060208201905081810360008301526147b881614033565b9050919050565b600060208201905081810360008301526147d881614056565b9050919050565b600060208201905081810360008301526147f881614079565b9050919050565b600060208201905081810360008301526148188161409c565b9050919050565b60006020820190508181036000830152614838816140bf565b9050919050565b60006020820190508181036000830152614858816140e2565b9050919050565b6000602082019050818103600083015261487881614105565b9050919050565b6000602082019050818103600083015261489881614128565b9050919050565b600060208201905081810360008301526148b88161414b565b9050919050565b600060208201905081810360008301526148d88161416e565b9050919050565b600060208201905081810360008301526148f881614191565b9050919050565b60006020820190508181036000830152614918816141b4565b9050919050565b60006020820190508181036000830152614938816141d7565b9050919050565b60006020820190508181036000830152614958816141fa565b9050919050565b600060208201905081810360008301526149788161421d565b9050919050565b6000602082019050818103600083015261499881614240565b9050919050565b600060208201905081810360008301526149b881614263565b9050919050565b600060208201905081810360008301526149d881614286565b9050919050565b600060208201905081810360008301526149f8816142a9565b9050919050565b60006020820190508181036000830152614a18816142cc565b9050919050565b60006020820190508181036000830152614a38816142ef565b9050919050565b60006020820190508181036000830152614a5881614312565b9050919050565b60006020820190508181036000830152614a7881614335565b9050919050565b60006020820190508181036000830152614a9881614358565b9050919050565b60006020820190508181036000830152614ab88161437b565b9050919050565b60006020820190508181036000830152614ad88161439e565b9050919050565b600060c082019050614af460008301846143c1565b92915050565b600061010082019050614b106000830184614479565b92915050565b6000602082019050614b2b6000830184614584565b92915050565b6000606082019050614b466000830186614584565b614b536020830185613f33565b614b606040830184614584565b949350505050565b6000604082019050614b7d6000830185614584565b614b8a6020830184613fdc565b9392505050565b6000604082019050614ba66000830185614584565b614bb36020830184614584565b9392505050565b6000608082019050614bcf6000830187614584565b614bdc6020830186614584565b614be96040830185614584565b614bf66060830184613f51565b95945050505050565b600061010082019050614c15600083018b614584565b614c22602083018a614584565b614c2f6040830189614584565b614c3c6060830188614584565b614c496080830187614584565b614c5660a0830186614584565b614c6360c08301856145a2565b614c7060e0830184614584565b9998505050505050505050565b6000608082019050614c926000830187614584565b614c9f6020830186614584565b614cac60408301856145a2565b614cb960608301846145a2565b95945050505050565b6000602082019050614cd760008301846145a2565b92915050565b600081519050919050565b600081519050919050565b600081905092915050565b600082825260208201905092915050565b6000614d1a8261507b565b9150614d258361507b565b9250827fffffffffffffffffffffffffffffffffffffffffffffffffffffffffffffffff03821115614d5a57614d59615203565b5b828201905092915050565b6000614d7082615085565b9150614d7b83615085565b92508263ffffffff03821115614d9457614d93615203565b5b828201905092915050565b6000614daa8261507b565b9150614db58361507b565b925082614dc557614dc4615232565b5b828204905092915050565b6000808291508390505b6001851115614e1a57808604811115614df657614df5615203565b5b6001851615614e055780820291505b8081029050614e13856152ae565b9450614dda565b94509492505050565b6000614e2e8261507b565b9150614e3983615095565b9250614e667fffffffffffffffffffffffffffffffffffffffffffffffffffffffffffffffff8484614e6e565b905092915050565b600082614e7e5760019050614f3a565b81614e8c5760009050614f3a565b8160018114614ea25760028114614eac57614edb565b6001915050614f3a565b60ff841115614ebe57614ebd615203565b5b8360020a915084821115614ed557614ed4615203565b5b50614f3a565b5060208310610133831016604e8410600b8410161715614f105782820a905083811115614f0b57614f0a615203565b5b614f3a565b614f1d8484846001614dd0565b92509050818404811115614f3457614f33615203565b5b81810290505b9392505050565b6000614f4c8261507b565b9150614f578361507b565b9250817fffffffffffffffffffffffffffffffffffffffffffffffffffffffffffffffff0483118215151615614f9057614f8f615203565b5b828202905092915050565b6000614fa68261507b565b9150614fb18361507b565b925082821015614fc457614fc3615203565b5b828203905092915050565b6000614fda82615085565b9150614fe583615085565b925082821015614ff857614ff7615203565b5b828203905092915050565b600060ff82169050919050565b6000819050919050565b600063ffffffff82169050919050565b60006150358261505b565b9050919050565b60008115159050919050565b600081905061505682615822565b919050565b600073ffffffffffffffffffffffffffffffffffffffff82169050919050565b6000819050919050565b600063ffffffff82169050919050565b600060ff82169050919050565b60006150ad826150b4565b9050919050565b60006150bf8261505b565b9050919050565b60006150d1826150d8565b9050919050565b60006150e38261505b565b9050919050565b60006150f5826150fc565b9050919050565b60006151078261505b565b9050919050565b600061511982615120565b9050919050565b600061512b8261505b565b9050919050565b600061513d82615048565b9050919050565b600061514f8261507b565b9050919050565b60006151618261507b565b9050919050565b60005b8381101561518657808201518184015260208101905061516b565b83811115615195576000848401525b50505050565b60006151ae6151a9836152a1565b615003565b9050919050565b60006151c86151c3836152a1565b615010565b9050919050565b60006151e26151dd836152a1565b61501a565b9050919050565b60006151fc6151f7836152bb565b61501a565b9050919050565b7f4e487b7100000000000000000000000000000000000000000000000000000000600052601160045260246000fd5b7f4e487b7100000000000000000000000000000000000000000000000000000000600052601260045260246000fd5b7f4e487b7100000000000000000000000000000000000000000000000000000000600052602160045260246000fd5b6000601f19601f8301169050919050565b60008160001c9050919050565b60008160011c9050919050565b60008160201c9050919050565b7f44414f206665652063616e6e6f7420657863656564207061796f757400000000600082015250565b7f4e6578742041646a7573746d656e7420636f756c64206265206c6f636b656400600082015250565b7f4f776e61626c653a206e6577206f776e657220697320746865207a65726f206160008201527f6464726573730000000000000000000000000000000000000000000000000000602082015250565b7f5061796f75742063616e6e6f742062652061626f76652031302070657263656e60008201527f7400000000000000000000000000000000000000000000000000000000000000602082015250565b7f426f6e64696e6720726577617264206665652063616e6e6f742062652061626f60008201527f7665203130250000000000000000000000000000000000000000000000000000602082015250565b7f416464726573733a20696e73756666696369656e742062616c616e636520666f60008201527f722063616c6c0000000000000000000000000000000000000000000000000000602082015250565b7f44414f206665652063616e6e6f7420676f2062656c6f77203225000000000000600082015250565b7f4669786564506f696e743a3a6672616374696f6e3a206469766973696f6e206260008201527f79207a65726f0000000000000000000000000000000000000000000000000000602082015250565b7f496e6372656d656e7420746f6f206c6172676500000000000000000000000000600082015250565b7f4e41500000000000000000000000000000000000000000000000000000000000600082015250565b7f4d61782063617061636974792072656163686564000000000000000000000000600082015250565b7f46756c6c4d6174683a3a6d756c4469763a206f766572666c6f77000000000000600082015250565b7f426f6e6420746f6f20736d616c6c000000000000000000000000000000000000600082015250565b7f4941000000000000000000000000000000000000000000000000000000000000600082015250565b7f4f776e61626c653a2063616c6c6572206973206e6f7420746865206f776e6572600082015250565b7f44414f206665652063616e6e6f74206578636565642031302500000000000000600082015250565b7f536c697070616765206c696d69743a206d6f7265207468616e206d617820707260008201527f6963650000000000000000000000000000000000000000000000000000000000602082015250565b7f56657374696e67206d757374206265206c6f6e676572207468616e203336206860008201527f6f75727300000000000000000000000000000000000000000000000000000000602082015250565b7f4669786564506f696e743a3a6672616374696f6e3a206f766572666c6f770000600082015250565b7f43616e206c6f636b2061646a7573746d656e7400000000000000000000000000600082015250565b7f426f6e6473206d75737420626520696e697469616c697a65642066726f6d2030600082015250565b7f4e41540000000000000000000000000000000000000000000000000000000000600082015250565b7f426f6e6420746f6f206c61726765000000000000000000000000000000000000600082015250565b7f4e41000000000000000000000000000000000000000000000000000000000000600082015250565b7f416464726573733a2063616c6c20746f206e6f6e2d636f6e7472616374000000600082015250565b7f5361666545524332303a204552433230206f7065726174696f6e20646964206e60008201527f6f74207375636365656400000000000000000000000000000000000000000000602082015250565b6007811061583357615832615261565b5b50565b61583f8161502a565b811461584a57600080fd5b50565b6158568161503c565b811461586157600080fd5b50565b6007811061587157600080fd5b50565b61587d8161507b565b811461588857600080fd5b50565b61589481615085565b811461589f57600080fd5b50565b6158ab81615095565b81146158b657600080fd5b5056fea2646970667358221220222021b418466624638055fd249aaad93920c8ec6afa4668ab6ed6d10519451864736f6c63430008040033",
  "linkReferences": {},
  "deployedLinkReferences": {}
}