{
  "_format": "hh-sol-artifact-1",
  "contractName": "Bond",
  "sourceName": "contracts/coreContracts/Bond.sol",
  "abi": [
    {
      "inputs": [
        {
          "internalType": "address",
          "name": "_ORFI",
          "type": "address"
        },
        {
          "internalType": "address",
          "name": "_principle",
          "type": "address"
        },
        {
          "internalType": "address",
          "name": "_treasury",
          "type": "address"
        },
        {
          "internalType": "address",
          "name": "_DAO",
          "type": "address"
        }
      ],
      "stateMutability": "nonpayable",
      "type": "constructor"
    },
    {
      "anonymous": false,
      "inputs": [
        {
          "indexed": false,
          "internalType": "uint256",
          "name": "deposit",
          "type": "uint256"
        },
        {
          "indexed": true,
          "internalType": "uint256",
          "name": "payout",
          "type": "uint256"
        },
        {
          "indexed": true,
          "internalType": "uint256",
          "name": "expires",
          "type": "uint256"
        },
        {
          "indexed": true,
          "internalType": "uint256",
          "name": "priceInUSD",
          "type": "uint256"
        }
      ],
      "name": "BondCreated",
      "type": "event"
    },
    {
      "anonymous": false,
      "inputs": [
        {
          "indexed": true,
          "internalType": "uint256",
          "name": "priceInUSD",
          "type": "uint256"
        },
        {
          "indexed": true,
          "internalType": "uint256",
          "name": "internalPrice",
          "type": "uint256"
        },
        {
          "indexed": true,
          "internalType": "uint256",
          "name": "debtRatio",
          "type": "uint256"
        }
      ],
      "name": "BondPriceChanged",
      "type": "event"
    },
    {
      "anonymous": false,
      "inputs": [
        {
          "indexed": true,
          "internalType": "address",
          "name": "recipient",
          "type": "address"
        },
        {
          "indexed": false,
          "internalType": "uint256",
          "name": "payout",
          "type": "uint256"
        },
        {
          "indexed": false,
          "internalType": "uint256",
          "name": "remaining",
          "type": "uint256"
        }
      ],
      "name": "BondRedeemed",
      "type": "event"
    },
    {
      "anonymous": false,
      "inputs": [
        {
          "indexed": false,
          "internalType": "uint256",
          "name": "initialBCV",
          "type": "uint256"
        },
        {
          "indexed": false,
          "internalType": "uint256",
          "name": "newBCV",
          "type": "uint256"
        },
        {
          "indexed": false,
          "internalType": "uint256",
          "name": "adjustment",
          "type": "uint256"
        },
        {
          "indexed": false,
          "internalType": "bool",
          "name": "addition",
          "type": "bool"
        }
      ],
      "name": "ControlVariableAdjustment",
      "type": "event"
    },
    {
      "anonymous": false,
      "inputs": [
        {
          "components": [
            {
              "internalType": "uint256",
              "name": "controlVariable",
              "type": "uint256"
            },
            {
              "internalType": "uint256",
              "name": "minimumPrice",
              "type": "uint256"
            },
            {
              "internalType": "uint256",
              "name": "maxPayout",
              "type": "uint256"
            },
            {
              "internalType": "uint256",
              "name": "fee",
              "type": "uint256"
            },
            {
              "internalType": "uint256",
              "name": "bondingRewardFee",
              "type": "uint256"
            },
            {
              "internalType": "uint256",
              "name": "maxDebt",
              "type": "uint256"
            },
            {
              "internalType": "uint32",
              "name": "vestingTerm",
              "type": "uint32"
            },
            {
              "internalType": "uint256",
              "name": "minimumPayout",
              "type": "uint256"
            }
          ],
          "indexed": false,
          "internalType": "struct Bond.Terms",
          "name": "terms",
          "type": "tuple"
        }
      ],
      "name": "InitTerms",
      "type": "event"
    },
    {
      "anonymous": false,
      "inputs": [
        {
          "indexed": true,
          "internalType": "address",
          "name": "tokenToRecover",
          "type": "address"
        },
        {
          "indexed": false,
          "internalType": "uint256",
          "name": "amount",
          "type": "uint256"
        }
      ],
      "name": "LogRecoverLostToken",
      "type": "event"
    },
    {
      "anonymous": false,
      "inputs": [
        {
          "components": [
            {
              "internalType": "bool",
              "name": "add",
              "type": "bool"
            },
            {
              "internalType": "uint256",
              "name": "rate",
              "type": "uint256"
            },
            {
              "internalType": "uint256",
              "name": "maxTarget",
              "type": "uint256"
            },
            {
              "internalType": "uint256",
              "name": "minTarget",
              "type": "uint256"
            },
            {
              "internalType": "uint32",
              "name": "buffer",
              "type": "uint32"
            },
            {
              "internalType": "uint32",
              "name": "lastTime",
              "type": "uint32"
            }
          ],
          "indexed": false,
          "internalType": "struct Bond.Adjust",
          "name": "adjust",
          "type": "tuple"
        }
      ],
      "name": "LogSetAdjustment",
      "type": "event"
    },
    {
      "anonymous": false,
      "inputs": [
        {
          "indexed": true,
          "internalType": "address",
          "name": "stakingContract",
          "type": "address"
        }
      ],
      "name": "LogSetStaking",
      "type": "event"
    },
    {
      "anonymous": false,
      "inputs": [
        {
          "indexed": false,
          "internalType": "enum Bond.PARAMETER",
          "name": "param",
          "type": "uint8"
        },
        {
          "indexed": false,
          "internalType": "uint256",
          "name": "value",
          "type": "uint256"
        }
      ],
      "name": "LogSetTerms",
      "type": "event"
    },
    {
      "anonymous": false,
      "inputs": [
        {
          "indexed": true,
          "internalType": "address",
          "name": "tavCalculatorContract",
          "type": "address"
        }
      ],
      "name": "LogTAVCalculator",
      "type": "event"
    },
    {
      "anonymous": false,
      "inputs": [
        {
          "indexed": true,
          "internalType": "address",
          "name": "previousOwner",
          "type": "address"
        },
        {
          "indexed": true,
          "internalType": "address",
          "name": "newOwner",
          "type": "address"
        }
      ],
      "name": "OwnershipTransferred",
      "type": "event"
    },
    {
      "inputs": [],
      "name": "DAO",
      "outputs": [
        {
          "internalType": "address",
          "name": "",
          "type": "address"
        }
      ],
      "stateMutability": "view",
      "type": "function"
    },
    {
      "inputs": [],
      "name": "ORFI",
      "outputs": [
        {
          "internalType": "contract IERC20",
          "name": "",
          "type": "address"
        }
      ],
      "stateMutability": "view",
      "type": "function"
    },
    {
      "inputs": [],
      "name": "adjustment",
      "outputs": [
        {
          "internalType": "bool",
          "name": "add",
          "type": "bool"
        },
        {
          "internalType": "uint256",
          "name": "rate",
          "type": "uint256"
        },
        {
          "internalType": "uint256",
          "name": "maxTarget",
          "type": "uint256"
        },
        {
          "internalType": "uint256",
          "name": "minTarget",
          "type": "uint256"
        },
        {
          "internalType": "uint32",
          "name": "buffer",
          "type": "uint32"
        },
        {
          "internalType": "uint32",
          "name": "lastTime",
          "type": "uint32"
        }
      ],
      "stateMutability": "view",
      "type": "function"
    },
    {
      "inputs": [
        {
          "internalType": "address",
          "name": "",
          "type": "address"
        }
      ],
      "name": "bondInfo",
      "outputs": [
        {
          "internalType": "uint256",
          "name": "payout",
          "type": "uint256"
        },
        {
          "internalType": "uint256",
          "name": "pricePaid",
          "type": "uint256"
        },
        {
          "internalType": "uint32",
          "name": "lastTime",
          "type": "uint32"
        },
        {
          "internalType": "uint32",
          "name": "vesting",
          "type": "uint32"
        }
      ],
      "stateMutability": "view",
      "type": "function"
    },
    {
      "inputs": [],
      "name": "bondPrice",
      "outputs": [
        {
          "internalType": "uint256",
          "name": "price_",
          "type": "uint256"
        }
      ],
      "stateMutability": "view",
      "type": "function"
    },
    {
      "inputs": [],
      "name": "bondPriceInUSD",
      "outputs": [
        {
          "internalType": "uint256",
          "name": "price_",
          "type": "uint256"
        }
      ],
      "stateMutability": "view",
      "type": "function"
    },
    {
      "inputs": [],
      "name": "bondingReward",
      "outputs": [
        {
          "internalType": "uint256",
          "name": "",
          "type": "uint256"
        }
      ],
      "stateMutability": "view",
      "type": "function"
    },
    {
      "inputs": [],
      "name": "calculateBondingReward",
      "outputs": [
        {
          "internalType": "uint256",
          "name": "bondingReward_",
          "type": "uint256"
        }
      ],
      "stateMutability": "view",
      "type": "function"
    },
    {
      "inputs": [],
      "name": "currentDebt",
      "outputs": [
        {
          "internalType": "uint256",
          "name": "",
          "type": "uint256"
        }
      ],
      "stateMutability": "view",
      "type": "function"
    },
    {
      "inputs": [],
      "name": "debtDecay",
      "outputs": [
        {
          "internalType": "uint256",
          "name": "decay_",
          "type": "uint256"
        }
      ],
      "stateMutability": "view",
      "type": "function"
    },
    {
      "inputs": [],
      "name": "debtRatio",
      "outputs": [
        {
          "internalType": "uint256",
          "name": "debtRatio_",
          "type": "uint256"
        }
      ],
      "stateMutability": "view",
      "type": "function"
    },
    {
      "inputs": [
        {
          "internalType": "uint256",
          "name": "_amount",
          "type": "uint256"
        },
        {
          "internalType": "uint256",
          "name": "_maxPrice",
          "type": "uint256"
        }
      ],
      "name": "deposit",
      "outputs": [
        {
          "internalType": "uint256",
          "name": "",
          "type": "uint256"
        }
      ],
      "stateMutability": "nonpayable",
      "type": "function"
    },
    {
      "inputs": [],
      "name": "floorPriceValue",
      "outputs": [
        {
          "internalType": "uint256",
          "name": "",
          "type": "uint256"
        }
      ],
      "stateMutability": "view",
      "type": "function"
    },
    {
      "inputs": [
        {
          "internalType": "uint256",
          "name": "_controlVariable",
          "type": "uint256"
        },
        {
          "internalType": "uint256",
          "name": "_minimumPrice",
          "type": "uint256"
        },
        {
          "internalType": "uint256",
          "name": "_maxPayout",
          "type": "uint256"
        },
        {
          "internalType": "uint256",
          "name": "_minPayout",
          "type": "uint256"
        },
        {
          "internalType": "uint256",
          "name": "_fee",
          "type": "uint256"
        },
        {
          "internalType": "uint256",
          "name": "_bondingRewardFee",
          "type": "uint256"
        },
        {
          "internalType": "uint256",
          "name": "_maxDebt",
          "type": "uint256"
        },
        {
          "internalType": "uint32",
          "name": "_vestingTerm",
          "type": "uint32"
        }
      ],
      "name": "initializeBondTerms",
      "outputs": [],
      "stateMutability": "nonpayable",
      "type": "function"
    },
    {
      "inputs": [],
      "name": "lastDecay",
      "outputs": [
        {
          "internalType": "uint32",
          "name": "",
          "type": "uint32"
        }
      ],
      "stateMutability": "view",
      "type": "function"
    },
    {
      "inputs": [],
      "name": "maxPayout",
      "outputs": [
        {
          "internalType": "uint256",
          "name": "",
          "type": "uint256"
        }
      ],
      "stateMutability": "view",
      "type": "function"
    },
    {
      "inputs": [],
      "name": "owner",
      "outputs": [
        {
          "internalType": "address",
          "name": "",
          "type": "address"
        }
      ],
      "stateMutability": "view",
      "type": "function"
    },
    {
      "inputs": [
        {
          "internalType": "uint256",
          "name": "_value",
          "type": "uint256"
        }
      ],
      "name": "payoutFor",
      "outputs": [
        {
          "internalType": "uint256",
          "name": "",
          "type": "uint256"
        }
      ],
      "stateMutability": "view",
      "type": "function"
    },
    {
      "inputs": [
        {
          "internalType": "address",
          "name": "_depositor",
          "type": "address"
        }
      ],
      "name": "pendingPayoutFor",
      "outputs": [
        {
          "internalType": "uint256",
          "name": "pendingPayout_",
          "type": "uint256"
        }
      ],
      "stateMutability": "view",
      "type": "function"
    },
    {
      "inputs": [
        {
          "internalType": "address",
          "name": "_depositor",
          "type": "address"
        }
      ],
      "name": "percentVestedFor",
      "outputs": [
        {
          "internalType": "uint256",
          "name": "percentVested_",
          "type": "uint256"
        }
      ],
      "stateMutability": "view",
      "type": "function"
    },
    {
      "inputs": [],
      "name": "principle",
      "outputs": [
        {
          "internalType": "contract IERC20",
          "name": "",
          "type": "address"
        }
      ],
      "stateMutability": "view",
      "type": "function"
    },
    {
      "inputs": [
        {
          "internalType": "address",
          "name": "_token",
          "type": "address"
        }
      ],
      "name": "recoverLostToken",
      "outputs": [
        {
          "internalType": "bool",
          "name": "",
          "type": "bool"
        }
      ],
      "stateMutability": "nonpayable",
      "type": "function"
    },
    {
      "inputs": [
        {
          "internalType": "address",
          "name": "_recipient",
          "type": "address"
        },
        {
          "internalType": "bool",
          "name": "_stake",
          "type": "bool"
        }
      ],
      "name": "redeem",
      "outputs": [],
      "stateMutability": "nonpayable",
      "type": "function"
    },
    {
      "inputs": [],
      "name": "renounceOwnership",
      "outputs": [],
      "stateMutability": "nonpayable",
      "type": "function"
    },
    {
      "inputs": [
        {
          "internalType": "bool",
          "name": "_addition",
          "type": "bool"
        },
        {
          "internalType": "uint256",
          "name": "_increment",
          "type": "uint256"
        },
        {
          "internalType": "uint256",
          "name": "_maxTarget",
          "type": "uint256"
        },
        {
          "internalType": "uint256",
          "name": "_minTarget",
          "type": "uint256"
        },
        {
          "internalType": "uint32",
          "name": "_buffer",
          "type": "uint32"
        }
      ],
      "name": "setAdjustment",
      "outputs": [],
      "stateMutability": "nonpayable",
      "type": "function"
    },
    {
      "inputs": [
        {
          "internalType": "enum Bond.PARAMETER",
          "name": "_parameter",
          "type": "uint8"
        },
        {
          "internalType": "uint256",
          "name": "_input",
          "type": "uint256"
        }
      ],
      "name": "setBondTerms",
      "outputs": [],
      "stateMutability": "nonpayable",
      "type": "function"
    },
    {
      "inputs": [
        {
          "internalType": "uint256",
          "name": "_value",
          "type": "uint256"
        }
      ],
      "name": "setFloorPriceValue",
      "outputs": [],
      "stateMutability": "nonpayable",
      "type": "function"
    },
    {
      "inputs": [
        {
          "internalType": "address",
          "name": "_staking",
          "type": "address"
        }
      ],
      "name": "setStaking",
      "outputs": [],
      "stateMutability": "nonpayable",
      "type": "function"
    },
    {
      "inputs": [
        {
          "internalType": "address",
          "name": "_tavCalculator",
          "type": "address"
        }
      ],
      "name": "setTAVCalculator",
      "outputs": [],
      "stateMutability": "nonpayable",
      "type": "function"
    },
    {
      "inputs": [],
      "name": "staking",
      "outputs": [
        {
          "internalType": "contract IStaking",
          "name": "",
          "type": "address"
        }
      ],
      "stateMutability": "view",
      "type": "function"
    },
    {
      "inputs": [],
      "name": "tavCalculator",
      "outputs": [
        {
          "internalType": "contract ITAVCalculator",
          "name": "",
          "type": "address"
        }
      ],
      "stateMutability": "view",
      "type": "function"
    },
    {
      "inputs": [],
      "name": "terms",
      "outputs": [
        {
          "internalType": "uint256",
          "name": "controlVariable",
          "type": "uint256"
        },
        {
          "internalType": "uint256",
          "name": "minimumPrice",
          "type": "uint256"
        },
        {
          "internalType": "uint256",
          "name": "maxPayout",
          "type": "uint256"
        },
        {
          "internalType": "uint256",
          "name": "fee",
          "type": "uint256"
        },
        {
          "internalType": "uint256",
          "name": "bondingRewardFee",
          "type": "uint256"
        },
        {
          "internalType": "uint256",
          "name": "maxDebt",
          "type": "uint256"
        },
        {
          "internalType": "uint32",
          "name": "vestingTerm",
          "type": "uint32"
        },
        {
          "internalType": "uint256",
          "name": "minimumPayout",
          "type": "uint256"
        }
      ],
      "stateMutability": "view",
      "type": "function"
    },
    {
      "inputs": [],
      "name": "totalDebt",
      "outputs": [
        {
          "internalType": "uint256",
          "name": "",
          "type": "uint256"
        }
      ],
      "stateMutability": "view",
      "type": "function"
    },
    {
      "inputs": [
        {
          "internalType": "address",
          "name": "newOwner",
          "type": "address"
        }
      ],
      "name": "transferOwnership",
      "outputs": [],
      "stateMutability": "nonpayable",
      "type": "function"
    },
    {
      "inputs": [],
      "name": "treasury",
      "outputs": [
        {
          "internalType": "contract ITreasury",
          "name": "",
          "type": "address"
        }
      ],
      "stateMutability": "view",
      "type": "function"
    }
  ],
  "bytecode": "0x60e06040523480156200001157600080fd5b5060405162005fa138038062005fa18339818101604052810190620000379190620003f6565b620000576200004b620002fc60201b60201c565b6200030460201b60201c565b600073ffffffffffffffffffffffffffffffffffffffff168473ffffffffffffffffffffffffffffffffffffffff1614156200009257600080fd5b8373ffffffffffffffffffffffffffffffffffffffff1660808173ffffffffffffffffffffffffffffffffffffffff1660601b81525050600073ffffffffffffffffffffffffffffffffffffffff168373ffffffffffffffffffffffffffffffffffffffff1614156200010457600080fd5b82600160006101000a81548173ffffffffffffffffffffffffffffffffffffffff021916908373ffffffffffffffffffffffffffffffffffffffff160217905550600073ffffffffffffffffffffffffffffffffffffffff168273ffffffffffffffffffffffffffffffffffffffff1614156200018057600080fd5b8173ffffffffffffffffffffffffffffffffffffffff1660a08173ffffffffffffffffffffffffffffffffffffffff1660601b81525050600073ffffffffffffffffffffffffffffffffffffffff168173ffffffffffffffffffffffffffffffffffffffff161415620001f257600080fd5b8073ffffffffffffffffffffffffffffffffffffffff1660c08173ffffffffffffffffffffffffffffffffffffffff1660601b81525050600160009054906101000a900473ffffffffffffffffffffffffffffffffffffffff1673ffffffffffffffffffffffffffffffffffffffff1663095ea7b383722cd76fe086b93ce2f768a00b22a000000000006040518363ffffffff1660e01b81526004016200029b929190620004b0565b602060405180830381600087803b158015620002b657600080fd5b505af1158015620002cb573d6000803e3d6000fd5b505050506040513d601f19601f82011682018060405250810190620002f1919062000462565b50505050506200056f565b600033905090565b60008060009054906101000a900473ffffffffffffffffffffffffffffffffffffffff169050816000806101000a81548173ffffffffffffffffffffffffffffffffffffffff021916908373ffffffffffffffffffffffffffffffffffffffff1602179055508173ffffffffffffffffffffffffffffffffffffffff168173ffffffffffffffffffffffffffffffffffffffff167f8be0079c531659141344cd1fd0a4f28419497f9722a3daafe3b4186f6b6457e060405160405180910390a35050565b600081519050620003d9816200053b565b92915050565b600081519050620003f08162000555565b92915050565b600080600080608085870312156200040d57600080fd5b60006200041d87828801620003c8565b94505060206200043087828801620003c8565b93505060406200044387828801620003c8565b92505060606200045687828801620003c8565b91505092959194509250565b6000602082840312156200047557600080fd5b60006200048584828501620003df565b91505092915050565b6200049981620004dd565b82525050565b620004aa8162000527565b82525050565b6000604082019050620004c760008301856200048e565b620004d660208301846200049f565b9392505050565b6000620004ea82620004fd565b9050919050565b60008115159050919050565b600073ffffffffffffffffffffffffffffffffffffffff82169050919050565b6000819050919050565b600062000534826200051d565b9050919050565b6200054681620004dd565b81146200055257600080fd5b50565b6200056081620004f1565b81146200056c57600080fd5b50565b60805160601c60a05160601c60c05160601c6159ba620005e760003960008181611d7c01528181611fe6015261283901526000818161128f015261277d0152600081816115e901528181611c9601528181611e36015281816120d90152818161234f0152818161285b0152612cba01526159ba6000f3fe608060405234801561001057600080fd5b50600436106102115760003560e01c8063844b5c7c11610125578063d5025625116100ad578063e392a2621161007c578063e392a262146105f5578063f2fde38b14610613578063f5c2ab5b1461062f578063fb87b2721461064d578063fc7b9c181461066957610211565b8063d502562514610564578063d7ccfb0b14610589578063e0176de8146105a7578063e2bbb158146105c557610211565b806398fabd3a116100f457806398fabd3a146104a95780639b4b9010146104c7578063b4abccba146104e3578063cd1234b314610513578063cea55f571461054657610211565b8063844b5c7c14610435578063868a352b146104535780638da5cb5b1461046f5780638ff390991461048d57610211565b806361d027b3116101a8578063759076e511610177578063759076e51461038d5780637927ebf8146103ab57806379cdf620146103db5780637dec6d9a146103f95780638081caf41461041757610211565b806361d027b31461032b57806368f33ff4146103495780636d90e5b814610365578063715018a61461038357610211565b80632b303fe0116101e45780632b303fe01461029c578063451ee4a1146102ba5780634cf088d9146102dd578063507930ec146102fb57610211565b8063016a42841461021657806301b88ee8146102345780631e321a0f146102645780631feed31f14610280575b600080fd5b61021e610687565b60405161022b91906147b3565b60405180910390f35b61024e60048036038101906102499190613d54565b6106ad565b60405161025b9190614be1565b60405180910390f35b61027e60048036038101906102799190613e59565b61073d565b005b61029a60048036038101906102959190613d7d565b610cdd565b005b6102a46110e8565b6040516102b19190614be1565b60405180910390f35b6102c26110ee565b6040516102d496959493929190614752565b60405180910390f35b6102e5611145565b6040516102f291906147ce565b60405180910390f35b61031560048036038101906103109190613d54565b61116b565b6040516103229190614be1565b60405180910390f35b61033361128d565b6040516103409190614804565b60405180910390f35b610363600480360381019061035e9190613f23565b6112b1565b005b61036d6115e7565b60405161037a91906147b3565b60405180910390f35b61038b61160b565b005b610395611693565b6040516103a29190614be1565b60405180910390f35b6103c560048036038101906103c09190613e95565b6116b6565b6040516103d29190614be1565b60405180910390f35b6103e3611712565b6040516103f091906147e9565b60405180910390f35b610401611738565b60405161040e9190614be1565b60405180910390f35b61041f61173e565b60405161042c9190614be1565b60405180910390f35b61043d611872565b60405161044a9190614be1565b60405180910390f35b61046d60048036038101906104689190613de2565b611881565b005b610477611afb565b6040516104849190614693565b60405180910390f35b6104a760048036038101906104a29190613d54565b611b24565b005b6104b1611d7a565b6040516104be9190614693565b60405180910390f35b6104e160048036038101906104dc9190613e95565b611d9e565b005b6104fd60048036038101906104f89190613d54565b611e32565b60405161050a9190614737565b60405180910390f35b61052d60048036038101906105289190613d54565b612084565b60405161053d9493929190614d48565b60405180910390f35b61054e6120d4565b60405161055b9190614be1565b60405180910390f35b61056c6121bf565b604051610580989796959493929190614cca565b60405180910390f35b610591612205565b60405161059e9190614be1565b60405180910390f35b6105af61233e565b6040516105bc9190614be1565b60405180910390f35b6105df60048036038101906105da9190613ee7565b612408565b6040516105ec9190614be1565b60405180910390f35b6105fd612961565b60405161060a9190614be1565b60405180910390f35b61062d60048036038101906106289190613d54565b6129e8565b005b610637612ae0565b6040516106449190614d8d565b60405180910390f35b61066760048036038101906106629190613d54565b612af6565b005b610671612c69565b60405161067e9190614be1565b60405180910390f35b600160009054906101000a900473ffffffffffffffffffffffffffffffffffffffff1681565b6000806106b98361116b565b90506000601160008573ffffffffffffffffffffffffffffffffffffffff1673ffffffffffffffffffffffffffffffffffffffff168152602001908152602001600020600001549050612710821061071357809250610736565b6127106107298383612c6f90919063ffffffff16565b6107339190614e6a565b92505b5050919050565b610745612ca6565b73ffffffffffffffffffffffffffffffffffffffff16610763611afb565b73ffffffffffffffffffffffffffffffffffffffff16146107b9576040517f08c379a00000000000000000000000000000000000000000000000000000000081526004016107b090614a2a565b60405180910390fd5b600060068111156107f3577f4e487b7100000000000000000000000000000000000000000000000000000000600052602160045260246000fd5b82600681111561082c577f4e487b7100000000000000000000000000000000000000000000000000000000600052602160045260246000fd5b14156108a15762015180811015610878576040517f08c379a000000000000000000000000000000000000000000000000000000000815260040161086f90614a8a565b60405180910390fd5b80600460060160006101000a81548163ffffffff021916908363ffffffff160217905550610ca0565b600160068111156108db577f4e487b7100000000000000000000000000000000000000000000000000000000600052602160045260246000fd5b826006811115610914577f4e487b7100000000000000000000000000000000000000000000000000000000600052602160045260246000fd5b141561096e5761271081111561095f576040517f08c379a0000000000000000000000000000000000000000000000000000000008152600401610956906148ca565b60405180910390fd5b80600460020181905550610c9f565b600260068111156109a8577f4e487b7100000000000000000000000000000000000000000000000000000000600052602160045260246000fd5b8260068111156109e1577f4e487b7100000000000000000000000000000000000000000000000000000000600052602160045260246000fd5b1415610a8057612710811115610a2c576040517f08c379a0000000000000000000000000000000000000000000000000000000008152600401610a2390614a4a565b60405180910390fd5b6107d0811015610a71576040517f08c379a0000000000000000000000000000000000000000000000000000000008152600401610a689061492a565b60405180910390fd5b80600460030181905550610c9e565b60036006811115610aba577f4e487b7100000000000000000000000000000000000000000000000000000000600052602160045260246000fd5b826006811115610af3577f4e487b7100000000000000000000000000000000000000000000000000000000600052602160045260246000fd5b1415610b085780600460050181905550610c9d565b60046006811115610b42577f4e487b7100000000000000000000000000000000000000000000000000000000600052602160045260246000fd5b826006811115610b7b577f4e487b7100000000000000000000000000000000000000000000000000000000600052602160045260246000fd5b1415610b905780600460010181905550610c9c565b60056006811115610bca577f4e487b7100000000000000000000000000000000000000000000000000000000600052602160045260246000fd5b826006811115610c03577f4e487b7100000000000000000000000000000000000000000000000000000000600052602160045260246000fd5b1415610c185780600460070181905550610c9b565b600680811115610c51577f4e487b7100000000000000000000000000000000000000000000000000000000600052602160045260246000fd5b826006811115610c8a577f4e487b7100000000000000000000000000000000000000000000000000000000600052602160045260246000fd5b1415610c9a578060048001819055505b5b5b5b5b5b5b7f4e3705d256225a38255bfb7114e7fa4b6b2939ab1f71639f57e06928858646c58282604051610cd192919061481f565b60405180910390a15050565b8173ffffffffffffffffffffffffffffffffffffffff163373ffffffffffffffffffffffffffffffffffffffff1614610d4b576040517f08c379a0000000000000000000000000000000000000000000000000000000008152600401610d4290614b4a565b60405180910390fd5b6000601160008473ffffffffffffffffffffffffffffffffffffffff1673ffffffffffffffffffffffffffffffffffffffff16815260200190815260200160002060405180608001604052908160008201548152602001600182015481526020016002820160009054906101000a900463ffffffff1663ffffffff1663ffffffff1681526020016002820160049054906101000a900463ffffffff1663ffffffff1663ffffffff168152505090506000610e048461116b565b90506127108110610ef857601160008573ffffffffffffffffffffffffffffffffffffffff1673ffffffffffffffffffffffffffffffffffffffff16815260200190815260200160002060008082016000905560018201600090556002820160006101000a81549063ffffffff02191690556002820160046101000a81549063ffffffff021916905550508373ffffffffffffffffffffffffffffffffffffffff167f51c99f515c87b0d95ba97f616edd182e8f161c4932eac17c6fefe9dab58b77b183600001516000604051610edc929190614c33565b60405180910390a2610ef384848460000151612cae565b6110e2565b6000612710610f14838560000151612c6f90919063ffffffff16565b610f1e9190614e6a565b90506040518060800160405280610f42838660000151612db990919063ffffffff16565b8152602001846020015181526020014263ffffffff168152602001610f96610f7d86604001514263ffffffff16612ddc90919063ffffffff16565b866060015163ffffffff16612ddc90919063ffffffff16565b63ffffffff16815250601160008773ffffffffffffffffffffffffffffffffffffffff1673ffffffffffffffffffffffffffffffffffffffff168152602001908152602001600020600082015181600001556020820151816001015560408201518160020160006101000a81548163ffffffff021916908363ffffffff16021790555060608201518160020160046101000a81548163ffffffff021916908363ffffffff1602179055509050508473ffffffffffffffffffffffffffffffffffffffff167f51c99f515c87b0d95ba97f616edd182e8f161c4932eac17c6fefe9dab58b77b182601160008973ffffffffffffffffffffffffffffffffffffffff1673ffffffffffffffffffffffffffffffffffffffff168152602001908152602001600020600001546040516110cd929190614c5c565b60405180910390a26110e0858583612cae565b505b50505050565b60145481565b600c8060000160009054906101000a900460ff16908060010154908060020154908060030154908060040160009054906101000a900463ffffffff16908060040160049054906101000a900463ffffffff16905086565b600260009054906101000a900473ffffffffffffffffffffffffffffffffffffffff1681565b600080601160008473ffffffffffffffffffffffffffffffffffffffff1673ffffffffffffffffffffffffffffffffffffffff16815260200190815260200160002060405180608001604052908160008201548152602001600182015481526020016002820160009054906101000a900463ffffffff1663ffffffff1663ffffffff1681526020016002820160049054906101000a900463ffffffff1663ffffffff1663ffffffff16815250509050600061123982604001514263ffffffff16612ddc90919063ffffffff16565b63ffffffff1690506000826060015163ffffffff1690506000811115611280578061126f61271084612c6f90919063ffffffff16565b6112799190614e6a565b9350611285565b600093505b505050919050565b7f000000000000000000000000000000000000000000000000000000000000000081565b6112b9612ca6565b73ffffffffffffffffffffffffffffffffffffffff166112d7611afb565b73ffffffffffffffffffffffffffffffffffffffff161461132d576040517f08c379a000000000000000000000000000000000000000000000000000000000815260040161132490614a2a565b60405180910390fd5b600060046000015414611375576040517f08c379a000000000000000000000000000000000000000000000000000000000815260040161136c90614aea565b60405180910390fd5b60008810156113b9576040517f08c379a00000000000000000000000000000000000000000000000000000000081526004016113b090614aca565b60405180910390fd5b6127108611156113fe576040517f08c379a00000000000000000000000000000000000000000000000000000000081526004016113f5906148ca565b60405180910390fd5b600a8163ffffffff161015611448576040517f08c379a000000000000000000000000000000000000000000000000000000000815260040161143f90614a8a565b60405180910390fd5b61271084111561148d576040517f08c379a00000000000000000000000000000000000000000000000000000000081526004016114849061486a565b60405180910390fd5b6127108311156114d2576040517f08c379a00000000000000000000000000000000000000000000000000000000081526004016114c9906148ea565b60405180910390fd5b6040518061010001604052808981526020018881526020018781526020018581526020018481526020018381526020018263ffffffff168152602001868152506004600082015181600001556020820151816001015560408201518160020155606082015181600301556080820151816004015560a0820151816005015560c08201518160060160006101000a81548163ffffffff021916908363ffffffff16021790555060e0820151816007015590505042601360006101000a81548163ffffffff021916908363ffffffff1602179055507f374455252cd456bbe9a81a1506246bf0ac944729f3affdfab5814e6f56af332260046040516115d59190614bc5565b60405180910390a15050505050505050565b7f000000000000000000000000000000000000000000000000000000000000000081565b611613612ca6565b73ffffffffffffffffffffffffffffffffffffffff16611631611afb565b73ffffffffffffffffffffffffffffffffffffffff1614611687576040517f08c379a000000000000000000000000000000000000000000000000000000000815260040161167e90614a2a565b60405180910390fd5b6116916000612e0b565b565b60006116b16116a0612961565b601254612db990919063ffffffff16565b905090565b600061170b633b9aca00806116f36116ee866116e9662386f26fc100006116db612205565b612c6f90919063ffffffff16565b612ecf565b6130d6565b6116fd9190614e6a565b612c6f90919063ffffffff16565b9050919050565b600360009054906101000a900473ffffffffffffffffffffffffffffffffffffffff1681565b60155481565b600080600360009054906101000a900473ffffffffffffffffffffffffffffffffffffffff1673ffffffffffffffffffffffffffffffffffffffff1663ac3b992a6040518163ffffffff1660e01b815260040160206040518083038186803b1580156117a957600080fd5b505afa1580156117bd573d6000803e3d6000fd5b505050506040513d601f19601f820116820180604052508101906117e19190613ebe565b905060006118046117f06120d4565b600460000154612c6f90919063ffffffff16565b611831620186a061182360046003015486612c6f90919063ffffffff16565b61311490919063ffffffff16565b61183b9190614dda565b905061186b64e8d4a5100061185d600480015484612c6f90919063ffffffff16565b61311490919063ffffffff16565b9250505090565b600061187c612205565b905090565b611889612ca6565b73ffffffffffffffffffffffffffffffffffffffff166118a7611afb565b73ffffffffffffffffffffffffffffffffffffffff16146118fd576040517f08c379a00000000000000000000000000000000000000000000000000000000081526004016118f490614a2a565b60405180910390fd5b6103e861191a6101f4600460000154612c6f90919063ffffffff16565b6119249190614e6a565b841115611966576040517f08c379a000000000000000000000000000000000000000000000000000000000815260040161195d9061496a565b60405180910390fd5b6103e88310156119ab576040517f08c379a00000000000000000000000000000000000000000000000000000000081526004016119a29061488a565b60405180910390fd5b6103e88211156119f0576040517f08c379a00000000000000000000000000000000000000000000000000000000081526004016119e79061488a565b60405180910390fd5b6040518060c0016040528086151581526020018581526020018481526020018381526020018263ffffffff1681526020014263ffffffff16815250600c60008201518160000160006101000a81548160ff02191690831515021790555060208201518160010155604082015181600201556060820151816003015560808201518160040160006101000a81548163ffffffff021916908363ffffffff16021790555060a08201518160040160046101000a81548163ffffffff021916908363ffffffff1602179055509050507fa7baed62dbecf9e27c728fe789b5834dd9c642ff4df89d99851a735cc4a573da600c604051611aec9190614baa565b60405180910390a15050505050565b60008060009054906101000a900473ffffffffffffffffffffffffffffffffffffffff16905090565b611b2c612ca6565b73ffffffffffffffffffffffffffffffffffffffff16611b4a611afb565b73ffffffffffffffffffffffffffffffffffffffff1614611ba0576040517f08c379a0000000000000000000000000000000000000000000000000000000008152600401611b9790614a2a565b60405180910390fd5b600073ffffffffffffffffffffffffffffffffffffffff168173ffffffffffffffffffffffffffffffffffffffff161415611c10576040517f08c379a0000000000000000000000000000000000000000000000000000000008152600401611c0790614a0a565b60405180910390fd5b80600260006101000a81548173ffffffffffffffffffffffffffffffffffffffff021916908373ffffffffffffffffffffffffffffffffffffffff1602179055508073ffffffffffffffffffffffffffffffffffffffff167f9d6a6595abf9295f9870c0d2d5760179d6f9ac798af8db39a9e3c9f2fbd2daa060405160405180910390a27f000000000000000000000000000000000000000000000000000000000000000073ffffffffffffffffffffffffffffffffffffffff1663095ea7b3600260009054906101000a900473ffffffffffffffffffffffffffffffffffffffff16722cd76fe086b93ce2f768a00b22a000000000006040518363ffffffff1660e01b8152600401611d249291906146e5565b602060405180830381600087803b158015611d3e57600080fd5b505af1158015611d52573d6000803e3d6000fd5b505050506040513d601f19601f82011682018060405250810190611d769190613db9565b5050565b7f000000000000000000000000000000000000000000000000000000000000000081565b611da6612ca6565b73ffffffffffffffffffffffffffffffffffffffff16611dc4611afb565b73ffffffffffffffffffffffffffffffffffffffff1614611e1a576040517f08c379a0000000000000000000000000000000000000000000000000000000008152600401611e1190614a2a565b60405180910390fd5b6000811415611e2857600080fd5b8060158190555050565b60007f000000000000000000000000000000000000000000000000000000000000000073ffffffffffffffffffffffffffffffffffffffff168273ffffffffffffffffffffffffffffffffffffffff161415611ec3576040517f08c379a0000000000000000000000000000000000000000000000000000000008152600401611eba90614b0a565b60405180910390fd5b600160009054906101000a900473ffffffffffffffffffffffffffffffffffffffff1673ffffffffffffffffffffffffffffffffffffffff168273ffffffffffffffffffffffffffffffffffffffff161415611f54576040517f08c379a0000000000000000000000000000000000000000000000000000000008152600401611f4b9061498a565b60405180910390fd5b60008273ffffffffffffffffffffffffffffffffffffffff166370a08231306040518263ffffffff1660e01b8152600401611f8f9190614693565b60206040518083038186803b158015611fa757600080fd5b505afa158015611fbb573d6000803e3d6000fd5b505050506040513d601f19601f82011682018060405250810190611fdf9190613ebe565b905061202c7f0000000000000000000000000000000000000000000000000000000000000000828573ffffffffffffffffffffffffffffffffffffffff1661315e9092919063ffffffff16565b8273ffffffffffffffffffffffffffffffffffffffff167f11f0a001971cc33b9a8651a3368b34900c22a665504b5cabc3e0e9fdf59d9846826040516120729190614be1565b60405180910390a26001915050919050565b60116020528060005260406000206000915090508060000154908060010154908060020160009054906101000a900463ffffffff16908060020160049054906101000a900463ffffffff16905084565b6000807f000000000000000000000000000000000000000000000000000000000000000073ffffffffffffffffffffffffffffffffffffffff166318160ddd6040518163ffffffff1660e01b815260040160206040518083038186803b15801561213d57600080fd5b505afa158015612151573d6000803e3d6000fd5b505050506040513d601f19601f820116820180604052508101906121759190613ebe565b9050670de0b6b3a76400006121af6121aa6121a4633b9aca00612196611693565b612c6f90919063ffffffff16565b84612ecf565b6130d6565b6121b99190614e6a565b91505090565b60048060000154908060010154908060020154908060030154908060040154908060050154908060060160009054906101000a900463ffffffff16908060070154905088565b600080600360009054906101000a900473ffffffffffffffffffffffffffffffffffffffff1673ffffffffffffffffffffffffffffffffffffffff1663ac3b992a6040518163ffffffff1660e01b815260040160206040518083038186803b15801561227057600080fd5b505afa158015612284573d6000803e3d6000fd5b505050506040513d601f19601f820116820180604052508101906122a89190613ebe565b905060006122cb6122b76120d4565b600460000154612c6f90919063ffffffff16565b6122f8620186a06122ea60046003015486612c6f90919063ffffffff16565b61311490919063ffffffff16565b6123029190614dda565b90506298968061232d601554841161231c5760155461231e565b835b836131e490919063ffffffff16565b6123379190614e6a565b9250505090565b6000620186a06123f96004600201547f000000000000000000000000000000000000000000000000000000000000000073ffffffffffffffffffffffffffffffffffffffff166318160ddd6040518163ffffffff1660e01b815260040160206040518083038186803b1580156123b357600080fd5b505afa1580156123c7573d6000803e3d6000fd5b505050506040513d601f19601f820116820180604052508101906123eb9190613ebe565b612c6f90919063ffffffff16565b6124039190614e6a565b905090565b6000612412613207565b600061241d8461324c565b90506000612429611872565b905061244761243661173e565b6014546131e490919063ffffffff16565b6014819055506124568161332d565b80841015612499576040517f08c379a000000000000000000000000000000000000000000000000000000000815260040161249090614a6a565b60405180910390fd5b60006124a4836116b6565b90506004600501546124c1846012546131e490919063ffffffff16565b1115612502576040517f08c379a00000000000000000000000000000000000000000000000000000000081526004016124f9906149aa565b60405180910390fd5b61250a6133c6565b81101561254c576040517f08c379a0000000000000000000000000000000000000000000000000000000008152600401612543906149ea565b60405180910390fd5b61255461233e565b811115612596576040517f08c379a000000000000000000000000000000000000000000000000000000000815260040161258d90614b2a565b60405180910390fd5b6000620186a06125b460046003015484612c6f90919063ffffffff16565b6125be9190614e6a565b905060006125d582846131e490919063ffffffff16565b90506125ec886012546131e490919063ffffffff16565b601281905550604051806080016040528061265285601160003373ffffffffffffffffffffffffffffffffffffffff1673ffffffffffffffffffffffffffffffffffffffff168152602001908152602001600020600001546131e490919063ffffffff16565b81526020018581526020014263ffffffff168152602001600460060160009054906101000a900463ffffffff1663ffffffff16815250601160003373ffffffffffffffffffffffffffffffffffffffff1673ffffffffffffffffffffffffffffffffffffffff168152602001908152602001600020600082015181600001556020820151816001015560408201518160020160006101000a81548163ffffffff021916908363ffffffff16021790555060608201518160020160046101000a81548163ffffffff021916908363ffffffff16021790555090505061277b33308a600160009054906101000a900473ffffffffffffffffffffffffffffffffffffffff1673ffffffffffffffffffffffffffffffffffffffff166133d3909392919063ffffffff16565b7f000000000000000000000000000000000000000000000000000000000000000073ffffffffffffffffffffffffffffffffffffffff1663bc157ac189600160009054906101000a900473ffffffffffffffffffffffffffffffffffffffff16846040518463ffffffff1660e01b81526004016127fa93929190614bfc565b600060405180830381600087803b15801561281457600080fd5b505af1158015612828573d6000803e3d6000fd5b50505050600082146128a05761289f7f0000000000000000000000000000000000000000000000000000000000000000837f000000000000000000000000000000000000000000000000000000000000000073ffffffffffffffffffffffffffffffffffffffff1661315e9092919063ffffffff16565b5b836128cf600460060160009054906101000a900463ffffffff1663ffffffff16426131e490919063ffffffff16565b847f1fec6dc81f140574bf43f6b1e420ae1dd47928b9d57db8cbd7b8611063b85ae58b6040516128ff9190614be1565b60405180910390a461290f6120d4565b612917612205565b61291f611872565b7f375b221f40939bfd8f49723a17cf7bc6d576ebf72efe2cc3e991826f5b3f390a60405160405180910390a461295361345c565b829550505050505092915050565b60008061298f601360009054906101000a900463ffffffff164263ffffffff16612ddc90919063ffffffff16565b9050600460060160009054906101000a900463ffffffff1663ffffffff166129c88263ffffffff16601254612c6f90919063ffffffff16565b6129d29190614e6a565b91506012548211156129e45760125491505b5090565b6129f0612ca6565b73ffffffffffffffffffffffffffffffffffffffff16612a0e611afb565b73ffffffffffffffffffffffffffffffffffffffff1614612a64576040517f08c379a0000000000000000000000000000000000000000000000000000000008152600401612a5b90614a2a565b60405180910390fd5b600073ffffffffffffffffffffffffffffffffffffffff168173ffffffffffffffffffffffffffffffffffffffff161415612ad4576040517f08c379a0000000000000000000000000000000000000000000000000000000008152600401612acb906148aa565b60405180910390fd5b612add81612e0b565b50565b601360009054906101000a900463ffffffff1681565b612afe612ca6565b73ffffffffffffffffffffffffffffffffffffffff16612b1c611afb565b73ffffffffffffffffffffffffffffffffffffffff1614612b72576040517f08c379a0000000000000000000000000000000000000000000000000000000008152600401612b6990614a2a565b60405180910390fd5b600073ffffffffffffffffffffffffffffffffffffffff168173ffffffffffffffffffffffffffffffffffffffff161415612be2576040517f08c379a0000000000000000000000000000000000000000000000000000000008152600401612bd990614a0a565b60405180910390fd5b80600360006101000a81548173ffffffffffffffffffffffffffffffffffffffff021916908373ffffffffffffffffffffffffffffffffffffffff1602179055508073ffffffffffffffffffffffffffffffffffffffff167f9d6a6595abf9295f9870c0d2d5760179d6f9ac798af8db39a9e3c9f2fbd2daa060405160405180910390a250565b60125481565b600080831480612c97575081838385612c88919061500c565b925082612c959190614e6a565b145b612ca057600080fd5b92915050565b600033905090565b81612d0357612cfe83827f000000000000000000000000000000000000000000000000000000000000000073ffffffffffffffffffffffffffffffffffffffff1661315e9092919063ffffffff16565b612db4565b600260009054906101000a900473ffffffffffffffffffffffffffffffffffffffff1673ffffffffffffffffffffffffffffffffffffffff1663adc9772e84836040518363ffffffff1660e01b8152600401612d6092919061470e565b602060405180830381600087803b158015612d7a57600080fd5b505af1158015612d8e573d6000803e3d6000fd5b505050506040513d601f19601f82011682018060405250810190612db29190613ebe565b505b505050565b6000828284612dc89190615066565b9150811115612dd657600080fd5b92915050565b60008263ffffffff168284612df1919061509a565b91508163ffffffff161115612e0557600080fd5b92915050565b60008060009054906101000a900473ffffffffffffffffffffffffffffffffffffffff169050816000806101000a81548173ffffffffffffffffffffffffffffffffffffffff021916908373ffffffffffffffffffffffffffffffffffffffff1602179055508173ffffffffffffffffffffffffffffffffffffffff168173ffffffffffffffffffffffffffffffffffffffff167f8be0079c531659141344cd1fd0a4f28419497f9722a3daafe3b4186f6b6457e060405160405180910390a35050565b612ed7613c7b565b60008211612f1a576040517f08c379a0000000000000000000000000000000000000000000000000000000008152600401612f119061494a565b60405180910390fd5b6000831415612f5857604051806020016040528060007bffffffffffffffffffffffffffffffffffffffffffffffffffffffff1681525090506130d0565b71ffffffffffffffffffffffffffffffffffff8016831161302057600082607060ff1685901b612f889190614e6a565b90507bffffffffffffffffffffffffffffffffffffffffffffffffffffffff8016811115612feb576040517f08c379a0000000000000000000000000000000000000000000000000000000008152600401612fe290614aaa565b60405180910390fd5b6040518060200160405280827bffffffffffffffffffffffffffffffffffffffffffffffffffffffff168152509150506130d0565b600061303c846e01000000000000000000000000000085613627565b90507bffffffffffffffffffffffffffffffffffffffffffffffffffffffff801681111561309f576040517f08c379a000000000000000000000000000000000000000000000000000000000815260040161309690614aaa565b60405180910390fd5b6040518060200160405280827bffffffffffffffffffffffffffffffffffffffffffffffffffffffff168152509150505b92915050565b60006612725dd1d243ab82600001517bffffffffffffffffffffffffffffffffffffffffffffffffffffffff1661310d9190614e6a565b9050919050565b600061315683836040518060400160405280601a81526020017f536166654d6174683a206469766973696f6e206279207a65726f0000000000008152506136f5565b905092915050565b6131df8363a9059cbb60e01b848460405160240161317d92919061470e565b604051602081830303815290604052907bffffffffffffffffffffffffffffffffffffffffffffffffffffffff19166020820180517bffffffffffffffffffffffffffffffffffffffffffffffffffffffff8381831617835250505050613758565b505050565b60008282846131f39190614dda565b915081101561320157600080fd5b92915050565b613223613212612961565b601254612db990919063ffffffff16565b60128190555042601360006101000a81548163ffffffff021916908363ffffffff160217905550565b6000613326600160009054906101000a900473ffffffffffffffffffffffffffffffffffffffff1673ffffffffffffffffffffffffffffffffffffffff1663313ce5676040518163ffffffff1660e01b815260040160206040518083038186803b1580156132b957600080fd5b505afa1580156132cd573d6000803e3d6000fd5b505050506040513d601f19601f820116820180604052508101906132f19190613fd5565b600a6132fd9190614eee565b613318670de0b6b3a764000085612c6f90919063ffffffff16565b61311490919063ffffffff16565b9050919050565b6133c3816040516024016133419190614be1565b6040516020818303038152906040527ff5b1bba9000000000000000000000000000000000000000000000000000000007bffffffffffffffffffffffffffffffffffffffffffffffffffffffff19166020820180517bffffffffffffffffffffffffffffffffffffffffffffffffffffffff838183161783525050505061381f565b50565b6000600460070154905090565b613456846323b872dd60e01b8585856040516024016133f4939291906146ae565b604051602081830303815290604052907bffffffffffffffffffffffffffffffffffffffffffffffffffffffff19166020820180517bffffffffffffffffffffffffffffffffffffffffffffffffffffffff8381831617835250505050613758565b50505050565b60006134a1600c60040160009054906101000a900463ffffffff16600c60040160049054906101000a900463ffffffff1663ffffffff1661384890919063ffffffff16565b63ffffffff1690506000600c60010154141580156134bf5750804210155b1561362457600060046000015490506000819050600c60000160009054906101000a900460ff161561354757613503600c60010154826131e490919063ffffffff16565b9050600c60020154811061354257600c60000160009054906101000a900460ff1615600c60000160006101000a81548160ff0219169083151502179055505b61359f565b61355f600c6001015482612db990919063ffffffff16565b9050600c60030154811161359e57600c60000160009054906101000a900460ff1615600c60000160006101000a81548160ff0219169083151502179055505b5b8060046000018190555042600c60040160046101000a81548163ffffffff021916908363ffffffff1602179055507fb923e581a0f83128e9e1d8297aa52b18d6744310476e0b54509c054cd7a93b2a8282600c60010154600c60000160009054906101000a900460ff166040516136199493929190614c85565b60405180910390a150505b50565b60008060006136368686613877565b9150915060008480613671577f4e487b7100000000000000000000000000000000000000000000000000000000600052601260045260246000fd5b86880990508281111561368e5760018261368b9190615066565b91505b808361369a9190615066565b92508482106136de576040517f08c379a00000000000000000000000000000000000000000000000000000000081526004016136d5906149ca565b60405180910390fd5b6136e9838387613912565b93505050509392505050565b6000808311829061373c576040517f08c379a00000000000000000000000000000000000000000000000000000000081526004016137339190614848565b60405180910390fd5b506000838561374b9190614e6a565b9050809150509392505050565b60006137ba826040518060400160405280602081526020017f5361666545524332303a206c6f772d6c6576656c2063616c6c206661696c65648152508573ffffffffffffffffffffffffffffffffffffffff16613ac59092919063ffffffff16565b905060008151111561381a57808060200190518101906137da9190613db9565b613819576040517f08c379a000000000000000000000000000000000000000000000000000000000815260040161381090614b8a565b60405180910390fd5b5b505050565b60008151905060006a636f6e736f6c652e6c6f679050602083016000808483855afa5050505050565b60008263ffffffff16828461385d9190614e30565b91508163ffffffff16101561387157600080fd5b92915050565b60008060007fffffffffffffffffffffffffffffffffffffffffffffffffffffffffffffffff806138d1577f4e487b7100000000000000000000000000000000000000000000000000000000600052601260045260246000fd5b848609905083856138e2919061500c565b925082816138f09190615066565b91508281101561390a576001826139079190615066565b91505b509250929050565b600080600183196139239190614dda565b8316905080836139339190614e6a565b925080856139419190614e6a565b9450600181600183196139549190614dda565b61395e9190614e6a565b6139689190614dda565b84613973919061500c565b8561397e9190614dda565b94506000600190508084613992919061500c565b600261399e9190615066565b816139a9919061500c565b905080846139b7919061500c565b60026139c39190615066565b816139ce919061500c565b905080846139dc919061500c565b60026139e89190615066565b816139f3919061500c565b90508084613a01919061500c565b6002613a0d9190615066565b81613a18919061500c565b90508084613a26919061500c565b6002613a329190615066565b81613a3d919061500c565b90508084613a4b919061500c565b6002613a579190615066565b81613a62919061500c565b90508084613a70919061500c565b6002613a7c9190615066565b81613a87919061500c565b90508084613a95919061500c565b6002613aa19190615066565b81613aac919061500c565b90508086613aba919061500c565b925050509392505050565b6060613ad48484600085613add565b90509392505050565b606082471015613b22576040517f08c379a0000000000000000000000000000000000000000000000000000000008152600401613b199061490a565b60405180910390fd5b613b2b85613bf1565b613b6a576040517f08c379a0000000000000000000000000000000000000000000000000000000008152600401613b6190614b6a565b60405180910390fd5b6000808673ffffffffffffffffffffffffffffffffffffffff168587604051613b93919061467c565b60006040518083038185875af1925050503d8060008114613bd0576040519150601f19603f3d011682016040523d82523d6000602084013e613bd5565b606091505b5091509150613be5828286613c14565b92505050949350505050565b6000808273ffffffffffffffffffffffffffffffffffffffff163b119050919050565b60608315613c2457829050613c74565b600083511115613c375782518084602001fd5b816040517f08c379a0000000000000000000000000000000000000000000000000000000008152600401613c6b9190614848565b60405180910390fd5b9392505050565b604051806020016040528060007bffffffffffffffffffffffffffffffffffffffffffffffffffffffff1681525090565b600081359050613cbb81615901565b92915050565b600081359050613cd081615918565b92915050565b600081519050613ce581615918565b92915050565b600081359050613cfa8161592f565b92915050565b600081359050613d0f8161593f565b92915050565b600081519050613d248161593f565b92915050565b600081359050613d3981615956565b92915050565b600081519050613d4e8161596d565b92915050565b600060208284031215613d6657600080fd5b6000613d7484828501613cac565b91505092915050565b60008060408385031215613d9057600080fd5b6000613d9e85828601613cac565b9250506020613daf85828601613cc1565b9150509250929050565b600060208284031215613dcb57600080fd5b6000613dd984828501613cd6565b91505092915050565b600080600080600060a08688031215613dfa57600080fd5b6000613e0888828901613cc1565b9550506020613e1988828901613d00565b9450506040613e2a88828901613d00565b9350506060613e3b88828901613d00565b9250506080613e4c88828901613d2a565b9150509295509295909350565b60008060408385031215613e6c57600080fd5b6000613e7a85828601613ceb565b9250506020613e8b85828601613d00565b9150509250929050565b600060208284031215613ea757600080fd5b6000613eb584828501613d00565b91505092915050565b600060208284031215613ed057600080fd5b6000613ede84828501613d15565b91505092915050565b60008060408385031215613efa57600080fd5b6000613f0885828601613d00565b9250506020613f1985828601613d00565b9150509250929050565b600080600080600080600080610100898b031215613f4057600080fd5b6000613f4e8b828c01613d00565b9850506020613f5f8b828c01613d00565b9750506040613f708b828c01613d00565b9650506060613f818b828c01613d00565b9550506080613f928b828c01613d00565b94505060a0613fa38b828c01613d00565b93505060c0613fb48b828c01613d00565b92505060e0613fc58b828c01613d2a565b9150509295985092959890939650565b600060208284031215613fe757600080fd5b6000613ff584828501613d3f565b91505092915050565b614007816150f5565b82525050565b61401681615107565b82525050565b61402581615107565b82525050565b600061403682614da8565b6140408185614dbe565b9350614050818560208601615233565b80840191505092915050565b6140658161516d565b82525050565b61407481615191565b82525050565b614083816151b5565b82525050565b614092816151d9565b82525050565b6140a1816151fd565b82525050565b6140b08161520f565b82525050565b6140bf81615221565b82525050565b60006140d082614db3565b6140da8185614dc9565b93506140ea818560208601615233565b6140f38161535b565b840191505092915050565b600061410b601c83614dc9565b915061411682615393565b602082019050919050565b600061412e601f83614dc9565b9150614139826153bc565b602082019050919050565b6000614151602683614dc9565b915061415c826153e5565b604082019050919050565b6000614174602183614dc9565b915061417f82615434565b604082019050919050565b6000614197602683614dc9565b91506141a282615483565b604082019050919050565b60006141ba602683614dc9565b91506141c5826154d2565b604082019050919050565b60006141dd601a83614dc9565b91506141e882615521565b602082019050919050565b6000614200602683614dc9565b915061420b8261554a565b604082019050919050565b6000614223601383614dc9565b915061422e82615599565b602082019050919050565b6000614246600383614dc9565b9150614251826155c2565b602082019050919050565b6000614269601483614dc9565b9150614274826155eb565b602082019050919050565b600061428c601a83614dc9565b915061429782615614565b602082019050919050565b60006142af600e83614dc9565b91506142ba8261563d565b602082019050919050565b60006142d2600283614dc9565b91506142dd82615666565b602082019050919050565b60006142f5602083614dc9565b91506143008261568f565b602082019050919050565b6000614318601983614dc9565b9150614323826156b8565b602082019050919050565b600061433b602383614dc9565b9150614346826156e1565b604082019050919050565b600061435e602483614dc9565b915061436982615730565b604082019050919050565b6000614381601e83614dc9565b915061438c8261577f565b602082019050919050565b60006143a4601383614dc9565b91506143af826157a8565b602082019050919050565b60006143c7602083614dc9565b91506143d2826157d1565b602082019050919050565b60006143ea600383614dc9565b91506143f5826157fa565b602082019050919050565b600061440d600e83614dc9565b915061441882615823565b602082019050919050565b6000614430600283614dc9565b915061443b8261584c565b602082019050919050565b6000614453601d83614dc9565b915061445e82615875565b602082019050919050565b6000614476602a83614dc9565b91506144818261589e565b604082019050919050565b60c0820160008083015490506144a181615266565b6144ae600086018261400d565b50600183015490506144bf81615280565b6144cc6020860182614640565b50600283015490506144dd81615280565b6144ea6040860182614640565b50600383015490506144fb81615280565b6145086060860182614640565b50600483015490506145198161529a565b614526608086018261465e565b50614530816152b4565b61453d60a086018261465e565b5050505050565b6101008201600080830154905061455a81615280565b6145676000860182614640565b506001830154905061457881615280565b6145856020860182614640565b506002830154905061459681615280565b6145a36040860182614640565b50600383015490506145b481615280565b6145c16060860182614640565b50600483015490506145d281615280565b6145df6080860182614640565b50600583015490506145f081615280565b6145fd60a0860182614640565b506006830154905061460e8161529a565b61461b60c086018261465e565b506007830154905061462c81615280565b61463960e0860182614640565b5050505050565b61464981615146565b82525050565b61465881615146565b82525050565b61466781615150565b82525050565b61467681615150565b82525050565b6000614688828461402b565b915081905092915050565b60006020820190506146a86000830184613ffe565b92915050565b60006060820190506146c36000830186613ffe565b6146d06020830185613ffe565b6146dd604083018461464f565b949350505050565b60006040820190506146fa6000830185613ffe565b61470760208301846140b6565b9392505050565b60006040820190506147236000830185613ffe565b614730602083018461464f565b9392505050565b600060208201905061474c600083018461401c565b92915050565b600060c082019050614767600083018961401c565b614774602083018861464f565b614781604083018761464f565b61478e606083018661464f565b61479b608083018561466d565b6147a860a083018461466d565b979650505050505050565b60006020820190506147c8600083018461405c565b92915050565b60006020820190506147e3600083018461406b565b92915050565b60006020820190506147fe600083018461407a565b92915050565b60006020820190506148196000830184614089565b92915050565b60006040820190506148346000830185614098565b614841602083018461464f565b9392505050565b6000602082019050818103600083015261486281846140c5565b905092915050565b60006020820190508181036000830152614883816140fe565b9050919050565b600060208201905081810360008301526148a381614121565b9050919050565b600060208201905081810360008301526148c381614144565b9050919050565b600060208201905081810360008301526148e381614167565b9050919050565b600060208201905081810360008301526149038161418a565b9050919050565b60006020820190508181036000830152614923816141ad565b9050919050565b60006020820190508181036000830152614943816141d0565b9050919050565b60006020820190508181036000830152614963816141f3565b9050919050565b6000602082019050818103600083015261498381614216565b9050919050565b600060208201905081810360008301526149a381614239565b9050919050565b600060208201905081810360008301526149c38161425c565b9050919050565b600060208201905081810360008301526149e38161427f565b9050919050565b60006020820190508181036000830152614a03816142a2565b9050919050565b60006020820190508181036000830152614a23816142c5565b9050919050565b60006020820190508181036000830152614a43816142e8565b9050919050565b60006020820190508181036000830152614a638161430b565b9050919050565b60006020820190508181036000830152614a838161432e565b9050919050565b60006020820190508181036000830152614aa381614351565b9050919050565b60006020820190508181036000830152614ac381614374565b9050919050565b60006020820190508181036000830152614ae381614397565b9050919050565b60006020820190508181036000830152614b03816143ba565b9050919050565b60006020820190508181036000830152614b23816143dd565b9050919050565b60006020820190508181036000830152614b4381614400565b9050919050565b60006020820190508181036000830152614b6381614423565b9050919050565b60006020820190508181036000830152614b8381614446565b9050919050565b60006020820190508181036000830152614ba381614469565b9050919050565b600060c082019050614bbf600083018461448c565b92915050565b600061010082019050614bdb6000830184614544565b92915050565b6000602082019050614bf6600083018461464f565b92915050565b6000606082019050614c11600083018661464f565b614c1e6020830185613ffe565b614c2b604083018461464f565b949350505050565b6000604082019050614c48600083018561464f565b614c5560208301846140a7565b9392505050565b6000604082019050614c71600083018561464f565b614c7e602083018461464f565b9392505050565b6000608082019050614c9a600083018761464f565b614ca7602083018661464f565b614cb4604083018561464f565b614cc1606083018461401c565b95945050505050565b600061010082019050614ce0600083018b61464f565b614ced602083018a61464f565b614cfa604083018961464f565b614d07606083018861464f565b614d14608083018761464f565b614d2160a083018661464f565b614d2e60c083018561466d565b614d3b60e083018461464f565b9998505050505050505050565b6000608082019050614d5d600083018761464f565b614d6a602083018661464f565b614d77604083018561466d565b614d84606083018461466d565b95945050505050565b6000602082019050614da2600083018461466d565b92915050565b600081519050919050565b600081519050919050565b600081905092915050565b600082825260208201905092915050565b6000614de582615146565b9150614df083615146565b9250827fffffffffffffffffffffffffffffffffffffffffffffffffffffffffffffffff03821115614e2557614e246152ce565b5b828201905092915050565b6000614e3b82615150565b9150614e4683615150565b92508263ffffffff03821115614e5f57614e5e6152ce565b5b828201905092915050565b6000614e7582615146565b9150614e8083615146565b925082614e9057614e8f6152fd565b5b828204905092915050565b6000808291508390505b6001851115614ee557808604811115614ec157614ec06152ce565b5b6001851615614ed05780820291505b8081029050614ede85615379565b9450614ea5565b94509492505050565b6000614ef982615146565b9150614f0483615160565b9250614f317fffffffffffffffffffffffffffffffffffffffffffffffffffffffffffffffff8484614f39565b905092915050565b600082614f495760019050615005565b81614f575760009050615005565b8160018114614f6d5760028114614f7757614fa6565b6001915050615005565b60ff841115614f8957614f886152ce565b5b8360020a915084821115614fa057614f9f6152ce565b5b50615005565b5060208310610133831016604e8410600b8410161715614fdb5782820a905083811115614fd657614fd56152ce565b5b615005565b614fe88484846001614e9b565b92509050818404811115614fff57614ffe6152ce565b5b81810290505b9392505050565b600061501782615146565b915061502283615146565b9250817fffffffffffffffffffffffffffffffffffffffffffffffffffffffffffffffff048311821515161561505b5761505a6152ce565b5b828202905092915050565b600061507182615146565b915061507c83615146565b92508282101561508f5761508e6152ce565b5b828203905092915050565b60006150a582615150565b91506150b083615150565b9250828210156150c3576150c26152ce565b5b828203905092915050565b600060ff82169050919050565b6000819050919050565b600063ffffffff82169050919050565b600061510082615126565b9050919050565b60008115159050919050565b6000819050615121826158ed565b919050565b600073ffffffffffffffffffffffffffffffffffffffff82169050919050565b6000819050919050565b600063ffffffff82169050919050565b600060ff82169050919050565b60006151788261517f565b9050919050565b600061518a82615126565b9050919050565b600061519c826151a3565b9050919050565b60006151ae82615126565b9050919050565b60006151c0826151c7565b9050919050565b60006151d282615126565b9050919050565b60006151e4826151eb565b9050919050565b60006151f682615126565b9050919050565b600061520882615113565b9050919050565b600061521a82615146565b9050919050565b600061522c82615146565b9050919050565b60005b83811015615251578082015181840152602081019050615236565b83811115615260576000848401525b50505050565b60006152796152748361536c565b6150ce565b9050919050565b600061529361528e8361536c565b6150db565b9050919050565b60006152ad6152a88361536c565b6150e5565b9050919050565b60006152c76152c283615386565b6150e5565b9050919050565b7f4e487b7100000000000000000000000000000000000000000000000000000000600052601160045260246000fd5b7f4e487b7100000000000000000000000000000000000000000000000000000000600052601260045260246000fd5b7f4e487b7100000000000000000000000000000000000000000000000000000000600052602160045260246000fd5b6000601f19601f8301169050919050565b60008160001c9050919050565b60008160011c9050919050565b60008160201c9050919050565b7f44414f206665652063616e6e6f7420657863656564207061796f757400000000600082015250565b7f4e6578742041646a7573746d656e7420636f756c64206265206c6f636b656400600082015250565b7f4f776e61626c653a206e6577206f776e657220697320746865207a65726f206160008201527f6464726573730000000000000000000000000000000000000000000000000000602082015250565b7f5061796f75742063616e6e6f742062652061626f76652031302070657263656e60008201527f7400000000000000000000000000000000000000000000000000000000000000602082015250565b7f426f6e64696e6720726577617264206665652063616e6e6f742062652061626f60008201527f7665203130250000000000000000000000000000000000000000000000000000602082015250565b7f416464726573733a20696e73756666696369656e742062616c616e636520666f60008201527f722063616c6c0000000000000000000000000000000000000000000000000000602082015250565b7f44414f206665652063616e6e6f7420676f2062656c6f77203225000000000000600082015250565b7f4669786564506f696e743a3a6672616374696f6e3a206469766973696f6e206260008201527f79207a65726f0000000000000000000000000000000000000000000000000000602082015250565b7f496e6372656d656e7420746f6f206c6172676500000000000000000000000000600082015250565b7f4e41500000000000000000000000000000000000000000000000000000000000600082015250565b7f4d61782063617061636974792072656163686564000000000000000000000000600082015250565b7f46756c6c4d6174683a3a6d756c4469763a206f766572666c6f77000000000000600082015250565b7f426f6e6420746f6f20736d616c6c000000000000000000000000000000000000600082015250565b7f4941000000000000000000000000000000000000000000000000000000000000600082015250565b7f4f776e61626c653a2063616c6c6572206973206e6f7420746865206f776e6572600082015250565b7f44414f206665652063616e6e6f74206578636565642031302500000000000000600082015250565b7f536c697070616765206c696d69743a206d6f7265207468616e206d617820707260008201527f6963650000000000000000000000000000000000000000000000000000000000602082015250565b7f56657374696e67206d757374206265206c6f6e676572207468616e203336206860008201527f6f75727300000000000000000000000000000000000000000000000000000000602082015250565b7f4669786564506f696e743a3a6672616374696f6e3a206f766572666c6f770000600082015250565b7f43616e206c6f636b2061646a7573746d656e7400000000000000000000000000600082015250565b7f426f6e6473206d75737420626520696e697469616c697a65642066726f6d2030600082015250565b7f4e41540000000000000000000000000000000000000000000000000000000000600082015250565b7f426f6e6420746f6f206c61726765000000000000000000000000000000000000600082015250565b7f4e41000000000000000000000000000000000000000000000000000000000000600082015250565b7f416464726573733a2063616c6c20746f206e6f6e2d636f6e7472616374000000600082015250565b7f5361666545524332303a204552433230206f7065726174696f6e20646964206e60008201527f6f74207375636365656400000000000000000000000000000000000000000000602082015250565b600781106158fe576158fd61532c565b5b50565b61590a816150f5565b811461591557600080fd5b50565b61592181615107565b811461592c57600080fd5b50565b6007811061593c57600080fd5b50565b61594881615146565b811461595357600080fd5b50565b61595f81615150565b811461596a57600080fd5b50565b61597681615160565b811461598157600080fd5b5056fea2646970667358221220681987277498597eb7811f383d031c3a93edc310de98dbf1683ebd9273db6cb764736f6c63430008040033",
  "linkReferences": {},
  "deployedLinkReferences": {}
}