{
  "_format": "hh-sol-artifact-1",
  "contractName": "Bond",
  "sourceName": "contracts/Bond.sol",
  "abi": [
    {
      "inputs": [
        {
          "internalType": "address",
          "name": "_ORCL",
          "type": "address"
        },
        {
          "internalType": "address",
          "name": "_principle",
          "type": "address"
        },
        {
          "internalType": "address",
          "name": "_treasury",
          "type": "address"
        },
        {
          "internalType": "address",
          "name": "_DAO",
          "type": "address"
        },
        {
          "internalType": "address",
          "name": "_bondCalculator",
          "type": "address"
        }
      ],
      "stateMutability": "nonpayable",
      "type": "constructor"
    },
    {
      "anonymous": false,
      "inputs": [
        {
          "indexed": false,
          "internalType": "uint256",
          "name": "deposit",
          "type": "uint256"
        },
        {
          "indexed": true,
          "internalType": "uint256",
          "name": "payout",
          "type": "uint256"
        },
        {
          "indexed": true,
          "internalType": "uint256",
          "name": "expires",
          "type": "uint256"
        },
        {
          "indexed": true,
          "internalType": "uint256",
          "name": "priceInUSD",
          "type": "uint256"
        }
      ],
      "name": "BondCreated",
      "type": "event"
    },
    {
      "anonymous": false,
      "inputs": [
        {
          "indexed": true,
          "internalType": "uint256",
          "name": "priceInUSD",
          "type": "uint256"
        },
        {
          "indexed": true,
          "internalType": "uint256",
          "name": "internalPrice",
          "type": "uint256"
        },
        {
          "indexed": true,
          "internalType": "uint256",
          "name": "debtRatio",
          "type": "uint256"
        }
      ],
      "name": "BondPriceChanged",
      "type": "event"
    },
    {
      "anonymous": false,
      "inputs": [
        {
          "indexed": true,
          "internalType": "address",
          "name": "recipient",
          "type": "address"
        },
        {
          "indexed": false,
          "internalType": "uint256",
          "name": "payout",
          "type": "uint256"
        },
        {
          "indexed": false,
          "internalType": "uint256",
          "name": "remaining",
          "type": "uint256"
        }
      ],
      "name": "BondRedeemed",
      "type": "event"
    },
    {
      "anonymous": false,
      "inputs": [
        {
          "indexed": false,
          "internalType": "uint256",
          "name": "initialBCV",
          "type": "uint256"
        },
        {
          "indexed": false,
          "internalType": "uint256",
          "name": "newBCV",
          "type": "uint256"
        },
        {
          "indexed": false,
          "internalType": "uint256",
          "name": "adjustment",
          "type": "uint256"
        },
        {
          "indexed": false,
          "internalType": "bool",
          "name": "addition",
          "type": "bool"
        }
      ],
      "name": "ControlVariableAdjustment",
      "type": "event"
    },
    {
      "anonymous": false,
      "inputs": [
        {
          "components": [
            {
              "internalType": "uint256",
              "name": "controlVariable",
              "type": "uint256"
            },
            {
              "internalType": "uint256",
              "name": "minimumPrice",
              "type": "uint256"
            },
            {
              "internalType": "uint256",
              "name": "maxPayout",
              "type": "uint256"
            },
            {
              "internalType": "uint256",
              "name": "fee",
              "type": "uint256"
            },
            {
              "internalType": "uint256",
              "name": "maxDebt",
              "type": "uint256"
            },
            {
              "internalType": "uint32",
              "name": "vestingTerm",
              "type": "uint32"
            },
            {
              "internalType": "uint256",
              "name": "minimumPayout",
              "type": "uint256"
            }
          ],
          "indexed": false,
          "internalType": "struct Bond.Terms",
          "name": "terms",
          "type": "tuple"
        }
      ],
      "name": "InitTerms",
      "type": "event"
    },
    {
      "anonymous": false,
      "inputs": [
        {
          "indexed": true,
          "internalType": "address",
          "name": "tokenToRecover",
          "type": "address"
        },
        {
          "indexed": false,
          "internalType": "uint256",
          "name": "amount",
          "type": "uint256"
        }
      ],
      "name": "LogRecoverLostToken",
      "type": "event"
    },
    {
      "anonymous": false,
      "inputs": [
        {
          "components": [
            {
              "internalType": "bool",
              "name": "add",
              "type": "bool"
            },
            {
              "internalType": "uint256",
              "name": "rate",
              "type": "uint256"
            },
            {
              "internalType": "uint256",
              "name": "maxTarget",
              "type": "uint256"
            },
            {
              "internalType": "uint256",
              "name": "minTarget",
              "type": "uint256"
            },
            {
              "internalType": "uint32",
              "name": "buffer",
              "type": "uint32"
            },
            {
              "internalType": "uint32",
              "name": "lastTime",
              "type": "uint32"
            }
          ],
          "indexed": false,
          "internalType": "struct Bond.Adjust",
          "name": "adjust",
          "type": "tuple"
        }
      ],
      "name": "LogSetAdjustment",
      "type": "event"
    },
    {
      "anonymous": false,
      "inputs": [
        {
          "indexed": true,
          "internalType": "address",
          "name": "stakingContract",
          "type": "address"
        }
      ],
      "name": "LogSetStaking",
      "type": "event"
    },
    {
      "anonymous": false,
      "inputs": [
        {
          "indexed": false,
          "internalType": "enum Bond.PARAMETER",
          "name": "param",
          "type": "uint8"
        },
        {
          "indexed": false,
          "internalType": "uint256",
          "name": "value",
          "type": "uint256"
        }
      ],
      "name": "LogSetTerms",
      "type": "event"
    },
    {
      "anonymous": false,
      "inputs": [
        {
          "indexed": true,
          "internalType": "address",
          "name": "tavCalculatorContract",
          "type": "address"
        }
      ],
      "name": "LogTAVCalculator",
      "type": "event"
    },
    {
      "anonymous": false,
      "inputs": [
        {
          "indexed": true,
          "internalType": "address",
          "name": "previousOwner",
          "type": "address"
        },
        {
          "indexed": true,
          "internalType": "address",
          "name": "newOwner",
          "type": "address"
        }
      ],
      "name": "OwnershipTransferred",
      "type": "event"
    },
    {
      "inputs": [],
      "name": "DAO",
      "outputs": [
        {
          "internalType": "address",
          "name": "",
          "type": "address"
        }
      ],
      "stateMutability": "view",
      "type": "function"
    },
    {
      "inputs": [],
      "name": "ORCL",
      "outputs": [
        {
          "internalType": "contract IERC20",
          "name": "",
          "type": "address"
        }
      ],
      "stateMutability": "view",
      "type": "function"
    },
    {
      "inputs": [],
      "name": "adjustment",
      "outputs": [
        {
          "internalType": "bool",
          "name": "add",
          "type": "bool"
        },
        {
          "internalType": "uint256",
          "name": "rate",
          "type": "uint256"
        },
        {
          "internalType": "uint256",
          "name": "maxTarget",
          "type": "uint256"
        },
        {
          "internalType": "uint256",
          "name": "minTarget",
          "type": "uint256"
        },
        {
          "internalType": "uint32",
          "name": "buffer",
          "type": "uint32"
        },
        {
          "internalType": "uint32",
          "name": "lastTime",
          "type": "uint32"
        }
      ],
      "stateMutability": "view",
      "type": "function"
    },
    {
      "inputs": [],
      "name": "bondCalculator",
      "outputs": [
        {
          "internalType": "contract IBondCalculator",
          "name": "",
          "type": "address"
        }
      ],
      "stateMutability": "view",
      "type": "function"
    },
    {
      "inputs": [
        {
          "internalType": "address",
          "name": "",
          "type": "address"
        }
      ],
      "name": "bondInfo",
      "outputs": [
        {
          "internalType": "uint256",
          "name": "payout",
          "type": "uint256"
        },
        {
          "internalType": "uint256",
          "name": "pricePaid",
          "type": "uint256"
        },
        {
          "internalType": "uint32",
          "name": "lastTime",
          "type": "uint32"
        },
        {
          "internalType": "uint32",
          "name": "vesting",
          "type": "uint32"
        }
      ],
      "stateMutability": "view",
      "type": "function"
    },
    {
      "inputs": [],
      "name": "bondPrice",
      "outputs": [
        {
          "internalType": "uint256",
          "name": "price_",
          "type": "uint256"
        }
      ],
      "stateMutability": "view",
      "type": "function"
    },
    {
      "inputs": [],
      "name": "bondPriceInUSD",
      "outputs": [
        {
          "internalType": "uint256",
          "name": "price_",
          "type": "uint256"
        }
      ],
      "stateMutability": "view",
      "type": "function"
    },
    {
      "inputs": [],
      "name": "currentDebt",
      "outputs": [
        {
          "internalType": "uint256",
          "name": "",
          "type": "uint256"
        }
      ],
      "stateMutability": "view",
      "type": "function"
    },
    {
      "inputs": [],
      "name": "debtDecay",
      "outputs": [
        {
          "internalType": "uint256",
          "name": "decay_",
          "type": "uint256"
        }
      ],
      "stateMutability": "view",
      "type": "function"
    },
    {
      "inputs": [],
      "name": "debtRatio",
      "outputs": [
        {
          "internalType": "uint256",
          "name": "debtRatio_",
          "type": "uint256"
        }
      ],
      "stateMutability": "view",
      "type": "function"
    },
    {
      "inputs": [
        {
          "internalType": "uint256",
          "name": "_amount",
          "type": "uint256"
        },
        {
          "internalType": "uint256",
          "name": "_maxPrice",
          "type": "uint256"
        },
        {
          "internalType": "address",
          "name": "_depositor",
          "type": "address"
        }
      ],
      "name": "deposit",
      "outputs": [
        {
          "internalType": "uint256",
          "name": "",
          "type": "uint256"
        }
      ],
      "stateMutability": "nonpayable",
      "type": "function"
    },
    {
      "inputs": [
        {
          "internalType": "uint256",
          "name": "_controlVariable",
          "type": "uint256"
        },
        {
          "internalType": "uint256",
          "name": "_minimumPrice",
          "type": "uint256"
        },
        {
          "internalType": "uint256",
          "name": "_maxPayout",
          "type": "uint256"
        },
        {
          "internalType": "uint256",
          "name": "_minPayout",
          "type": "uint256"
        },
        {
          "internalType": "uint256",
          "name": "_fee",
          "type": "uint256"
        },
        {
          "internalType": "uint256",
          "name": "_maxDebt",
          "type": "uint256"
        },
        {
          "internalType": "uint32",
          "name": "_vestingTerm",
          "type": "uint32"
        }
      ],
      "name": "initializeBondTerms",
      "outputs": [],
      "stateMutability": "nonpayable",
      "type": "function"
    },
    {
      "inputs": [],
      "name": "isLiquidityBond",
      "outputs": [
        {
          "internalType": "bool",
          "name": "",
          "type": "bool"
        }
      ],
      "stateMutability": "view",
      "type": "function"
    },
    {
      "inputs": [],
      "name": "lastDecay",
      "outputs": [
        {
          "internalType": "uint32",
          "name": "",
          "type": "uint32"
        }
      ],
      "stateMutability": "view",
      "type": "function"
    },
    {
      "inputs": [],
      "name": "maxPayout",
      "outputs": [
        {
          "internalType": "uint256",
          "name": "",
          "type": "uint256"
        }
      ],
      "stateMutability": "view",
      "type": "function"
    },
    {
      "inputs": [],
      "name": "owner",
      "outputs": [
        {
          "internalType": "address",
          "name": "",
          "type": "address"
        }
      ],
      "stateMutability": "view",
      "type": "function"
    },
    {
      "inputs": [
        {
          "internalType": "uint256",
          "name": "_value",
          "type": "uint256"
        }
      ],
      "name": "payoutFor",
      "outputs": [
        {
          "internalType": "uint256",
          "name": "",
          "type": "uint256"
        }
      ],
      "stateMutability": "view",
      "type": "function"
    },
    {
      "inputs": [
        {
          "internalType": "address",
          "name": "_depositor",
          "type": "address"
        }
      ],
      "name": "pendingPayoutFor",
      "outputs": [
        {
          "internalType": "uint256",
          "name": "pendingPayout_",
          "type": "uint256"
        }
      ],
      "stateMutability": "view",
      "type": "function"
    },
    {
      "inputs": [
        {
          "internalType": "address",
          "name": "_depositor",
          "type": "address"
        }
      ],
      "name": "percentVestedFor",
      "outputs": [
        {
          "internalType": "uint256",
          "name": "percentVested_",
          "type": "uint256"
        }
      ],
      "stateMutability": "view",
      "type": "function"
    },
    {
      "inputs": [],
      "name": "principle",
      "outputs": [
        {
          "internalType": "contract IERC20",
          "name": "",
          "type": "address"
        }
      ],
      "stateMutability": "view",
      "type": "function"
    },
    {
      "inputs": [
        {
          "internalType": "contract IERC20",
          "name": "_token",
          "type": "address"
        }
      ],
      "name": "recoverLostToken",
      "outputs": [
        {
          "internalType": "bool",
          "name": "",
          "type": "bool"
        }
      ],
      "stateMutability": "nonpayable",
      "type": "function"
    },
    {
      "inputs": [
        {
          "internalType": "address",
          "name": "_recipient",
          "type": "address"
        },
        {
          "internalType": "bool",
          "name": "_stake",
          "type": "bool"
        }
      ],
      "name": "redeem",
      "outputs": [
        {
          "internalType": "uint256",
          "name": "",
          "type": "uint256"
        }
      ],
      "stateMutability": "nonpayable",
      "type": "function"
    },
    {
      "inputs": [],
      "name": "renounceOwnership",
      "outputs": [],
      "stateMutability": "nonpayable",
      "type": "function"
    },
    {
      "inputs": [
        {
          "internalType": "bool",
          "name": "_addition",
          "type": "bool"
        },
        {
          "internalType": "uint256",
          "name": "_increment",
          "type": "uint256"
        },
        {
          "internalType": "uint256",
          "name": "_maxTarget",
          "type": "uint256"
        },
        {
          "internalType": "uint256",
          "name": "_minTarget",
          "type": "uint256"
        },
        {
          "internalType": "uint32",
          "name": "_buffer",
          "type": "uint32"
        }
      ],
      "name": "setAdjustment",
      "outputs": [],
      "stateMutability": "nonpayable",
      "type": "function"
    },
    {
      "inputs": [
        {
          "internalType": "enum Bond.PARAMETER",
          "name": "_parameter",
          "type": "uint8"
        },
        {
          "internalType": "uint256",
          "name": "_input",
          "type": "uint256"
        }
      ],
      "name": "setBondTerms",
      "outputs": [],
      "stateMutability": "nonpayable",
      "type": "function"
    },
    {
      "inputs": [
        {
          "internalType": "address",
          "name": "_staking",
          "type": "address"
        }
      ],
      "name": "setStaking",
      "outputs": [],
      "stateMutability": "nonpayable",
      "type": "function"
    },
    {
      "inputs": [
        {
          "internalType": "address",
          "name": "_tavCalculator",
          "type": "address"
        }
      ],
      "name": "setTAVCalculator",
      "outputs": [],
      "stateMutability": "nonpayable",
      "type": "function"
    },
    {
      "inputs": [],
      "name": "staking",
      "outputs": [
        {
          "internalType": "contract IStaking",
          "name": "",
          "type": "address"
        }
      ],
      "stateMutability": "view",
      "type": "function"
    },
    {
      "inputs": [],
      "name": "tavCalculator",
      "outputs": [
        {
          "internalType": "contract ITAVCalculator",
          "name": "",
          "type": "address"
        }
      ],
      "stateMutability": "view",
      "type": "function"
    },
    {
      "inputs": [],
      "name": "terms",
      "outputs": [
        {
          "internalType": "uint256",
          "name": "controlVariable",
          "type": "uint256"
        },
        {
          "internalType": "uint256",
          "name": "minimumPrice",
          "type": "uint256"
        },
        {
          "internalType": "uint256",
          "name": "maxPayout",
          "type": "uint256"
        },
        {
          "internalType": "uint256",
          "name": "fee",
          "type": "uint256"
        },
        {
          "internalType": "uint256",
          "name": "maxDebt",
          "type": "uint256"
        },
        {
          "internalType": "uint32",
          "name": "vestingTerm",
          "type": "uint32"
        },
        {
          "internalType": "uint256",
          "name": "minimumPayout",
          "type": "uint256"
        }
      ],
      "stateMutability": "view",
      "type": "function"
    },
    {
      "inputs": [],
      "name": "totalDebt",
      "outputs": [
        {
          "internalType": "uint256",
          "name": "",
          "type": "uint256"
        }
      ],
      "stateMutability": "view",
      "type": "function"
    },
    {
      "inputs": [
        {
          "internalType": "address",
          "name": "newOwner",
          "type": "address"
        }
      ],
      "name": "transferOwnership",
      "outputs": [],
      "stateMutability": "nonpayable",
      "type": "function"
    },
    {
      "inputs": [],
      "name": "treasury",
      "outputs": [
        {
          "internalType": "contract ITreasury",
          "name": "",
          "type": "address"
        }
      ],
      "stateMutability": "view",
      "type": "function"
    }
  ],
  "bytecode": "0x6101206040523480156200001257600080fd5b5060405162005ce638038062005ce683398181016040528101906200003891906200046f565b620000586200004c6200037560201b60201c565b6200037d60201b60201c565b600073ffffffffffffffffffffffffffffffffffffffff168573ffffffffffffffffffffffffffffffffffffffff1614156200009357600080fd5b8473ffffffffffffffffffffffffffffffffffffffff1660808173ffffffffffffffffffffffffffffffffffffffff1660601b81525050600073ffffffffffffffffffffffffffffffffffffffff168473ffffffffffffffffffffffffffffffffffffffff1614156200010557600080fd5b83600160006101000a81548173ffffffffffffffffffffffffffffffffffffffff021916908373ffffffffffffffffffffffffffffffffffffffff160217905550600073ffffffffffffffffffffffffffffffffffffffff168373ffffffffffffffffffffffffffffffffffffffff1614156200018157600080fd5b8273ffffffffffffffffffffffffffffffffffffffff1660a08173ffffffffffffffffffffffffffffffffffffffff1660601b81525050600073ffffffffffffffffffffffffffffffffffffffff168273ffffffffffffffffffffffffffffffffffffffff161415620001f357600080fd5b8173ffffffffffffffffffffffffffffffffffffffff1660c08173ffffffffffffffffffffffffffffffffffffffff1660601b815250508073ffffffffffffffffffffffffffffffffffffffff166101008173ffffffffffffffffffffffffffffffffffffffff1660601b81525050600073ffffffffffffffffffffffffffffffffffffffff168173ffffffffffffffffffffffffffffffffffffffff161415151560e081151560f81b81525050600160009054906101000a900473ffffffffffffffffffffffffffffffffffffffff1673ffffffffffffffffffffffffffffffffffffffff1663095ea7b384722cd76fe086b93ce2f768a00b22a000000000006040518363ffffffff1660e01b8152600401620003139291906200053f565b602060405180830381600087803b1580156200032e57600080fd5b505af115801562000343573d6000803e3d6000fd5b505050506040513d601f19601f82011682018060405250810190620003699190620004f1565b505050505050620005fe565b600033905090565b60008060009054906101000a900473ffffffffffffffffffffffffffffffffffffffff169050816000806101000a81548173ffffffffffffffffffffffffffffffffffffffff021916908373ffffffffffffffffffffffffffffffffffffffff1602179055508173ffffffffffffffffffffffffffffffffffffffff168173ffffffffffffffffffffffffffffffffffffffff167f8be0079c531659141344cd1fd0a4f28419497f9722a3daafe3b4186f6b6457e060405160405180910390a35050565b6000815190506200045281620005ca565b92915050565b6000815190506200046981620005e4565b92915050565b600080600080600060a086880312156200048857600080fd5b6000620004988882890162000441565b9550506020620004ab8882890162000441565b9450506040620004be8882890162000441565b9350506060620004d18882890162000441565b9250506080620004e48882890162000441565b9150509295509295909350565b6000602082840312156200050457600080fd5b6000620005148482850162000458565b91505092915050565b62000528816200056c565b82525050565b6200053981620005b6565b82525050565b60006040820190506200055660008301856200051d565b6200056560208301846200052e565b9392505050565b600062000579826200058c565b9050919050565b60008115159050919050565b600073ffffffffffffffffffffffffffffffffffffffff82169050919050565b6000819050919050565b6000620005c382620005ac565b9050919050565b620005d5816200056c565b8114620005e157600080fd5b50565b620005ef8162000580565b8114620005fb57600080fd5b50565b60805160601c60a05160601c60c05160601c60e05160f81c6101005160601c615639620006ad6000396000818161132a01526122700152600081816112ff01526126ee015260008181611b2301528181611ffa01526121d00152600081816111ac015281816118060152611a67015260008181610fe901528181611b4501528181611ed101528181612020015281816122e70152818161282701528181612c360152612ce901526156396000f3fe608060405234801561001057600080fd5b50600436106101fb5760003560e01c80638dbdbe6d1161011a578063d5025625116100ad578063e392a2621161007c578063e392a262146105b8578063f2fde38b146105d6578063f5c2ab5b146105f2578063fb87b27214610610578063fc7b9c181461062c576101fb565b8063d50256251461053a578063d79690601461055e578063d7ccfb0b1461057c578063e0176de81461059a576101fb565b8063c5332b7c116100e9578063c5332b7c146104af578063cd1234b3146104cd578063cea55f5714610500578063cf37a8911461051e576101fb565b80638dbdbe6d146104155780638ff390991461044557806398fabd3a14610461578063b4abccba1461047f576101fb565b806361d027b31161019257806379cdf6201161016157806379cdf6201461039f578063844b5c7c146103bd578063868a352b146103db5780638da5cb5b146103f7576101fb565b806361d027b314610329578063715018a614610347578063759076e5146103515780637927ebf81461036f576101fb565b806333483ffd116101ce57806333483ffd1461029a578063451ee4a1146102b85780634cf088d9146102db578063507930ec146102f9576101fb565b8063016a42841461020057806301b88ee81461021e5780631e321a0f1461024e5780631feed31f1461026a575b600080fd5b61020861064a565b6040516102159190614603565b60405180910390f35b61023860048036038101906102339190613b78565b610670565b6040516102459190614a10565b60405180910390f35b61026860048036038101906102639190613ca6565b610700565b005b610284600480360381019061027f9190613ba1565b610bd2565b6040516102919190614a10565b60405180910390f35b6102a2610fe7565b6040516102af9190614603565b60405180910390f35b6102c061100b565b6040516102d296959493929190614587565b60405180910390f35b6102e3611062565b6040516102f0919061461e565b60405180910390f35b610313600480360381019061030e9190613b78565b611088565b6040516103209190614a10565b60405180910390f35b6103316111aa565b60405161033e9190614654565b60405180910390f35b61034f6111ce565b005b610359611256565b6040516103669190614a10565b60405180910390f35b61038960048036038101906103849190613ce2565b611279565b6040516103969190614a10565b60405180910390f35b6103a76112d5565b6040516103b49190614639565b60405180910390f35b6103c56112fb565b6040516103d29190614a10565b60405180910390f35b6103f560048036038101906103f09190613c06565b611428565b005b6103ff61169f565b60405161040c9190614483565b60405180910390f35b61042f600480360381019061042a9190613d34565b6116c8565b60405161043c9190614a10565b60405180910390f35b61045f600480360381019061045a9190613b78565b611da2565b005b610469611ff8565b6040516104769190614483565b60405180910390f35b61049960048036038101906104949190613c7d565b61201c565b6040516104a6919061456c565b60405180910390f35b6104b761226e565b6040516104c491906145e8565b60405180910390f35b6104e760048036038101906104e29190613b78565b612292565b6040516104f79493929190614b91565b60405180910390f35b6105086122e2565b6040516105159190614a10565b60405180910390f35b61053860048036038101906105339190613d83565b6123cd565b005b6105426126ac565b6040516105559796959493929190614b22565b60405180910390f35b6105666126ec565b604051610573919061456c565b60405180910390f35b610584612710565b6040516105919190614a10565b60405180910390f35b6105a2612816565b6040516105af9190614a10565b60405180910390f35b6105c06128e0565b6040516105cd9190614a10565b60405180910390f35b6105f060048036038101906105eb9190613b78565b612967565b005b6105fa612a5f565b6040516106079190614bd6565b60405180910390f35b61062a60048036038101906106259190613b78565b612a75565b005b610634612be8565b6040516106419190614a10565b60405180910390f35b600160009054906101000a900473ffffffffffffffffffffffffffffffffffffffff1681565b60008061067c83611088565b90506000601060008573ffffffffffffffffffffffffffffffffffffffff1673ffffffffffffffffffffffffffffffffffffffff16815260200190815260200160002060000154905061271082106106d6578092506106f9565b6127106106ec8383612bee90919063ffffffff16565b6106f69190614cb3565b92505b5050919050565b610708612c25565b73ffffffffffffffffffffffffffffffffffffffff1661072661169f565b73ffffffffffffffffffffffffffffffffffffffff161461077c576040517f08c379a00000000000000000000000000000000000000000000000000000000081526004016107739061485a565b60405180910390fd5b600060058111156107b6577f4e487b7100000000000000000000000000000000000000000000000000000000600052602160045260246000fd5b8260058111156107ef577f4e487b7100000000000000000000000000000000000000000000000000000000600052602160045260246000fd5b1415610864576201fa4081101561083b576040517f08c379a00000000000000000000000000000000000000000000000000000000081526004016108329061489a565b60405180910390fd5b80600460050160006101000a81548163ffffffff021916908363ffffffff160217905550610b95565b6001600581111561089e577f4e487b7100000000000000000000000000000000000000000000000000000000600052602160045260246000fd5b8260058111156108d7577f4e487b7100000000000000000000000000000000000000000000000000000000600052602160045260246000fd5b1415610931576103e8811115610922576040517f08c379a00000000000000000000000000000000000000000000000000000000081526004016109199061473a565b60405180910390fd5b80600460020181905550610b94565b6002600581111561096b577f4e487b7100000000000000000000000000000000000000000000000000000000600052602160045260246000fd5b8260058111156109a4577f4e487b7100000000000000000000000000000000000000000000000000000000600052602160045260246000fd5b14156109fe576127108111156109ef576040517f08c379a00000000000000000000000000000000000000000000000000000000081526004016109e6906146ba565b60405180910390fd5b80600460030181905550610b93565b60036005811115610a38577f4e487b7100000000000000000000000000000000000000000000000000000000600052602160045260246000fd5b826005811115610a71577f4e487b7100000000000000000000000000000000000000000000000000000000600052602160045260246000fd5b1415610a8557806004800181905550610b92565b60046005811115610abf577f4e487b7100000000000000000000000000000000000000000000000000000000600052602160045260246000fd5b826005811115610af8577f4e487b7100000000000000000000000000000000000000000000000000000000600052602160045260246000fd5b1415610b0d5780600460010181905550610b91565b600580811115610b46577f4e487b7100000000000000000000000000000000000000000000000000000000600052602160045260246000fd5b826005811115610b7f577f4e487b7100000000000000000000000000000000000000000000000000000000600052602160045260246000fd5b1415610b9057806004600601819055505b5b5b5b5b5b7f4e3705d256225a38255bfb7114e7fa4b6b2939ab1f71639f57e06928858646c58282604051610bc692919061466f565b60405180910390a15050565b60008273ffffffffffffffffffffffffffffffffffffffff163373ffffffffffffffffffffffffffffffffffffffff1614610c42576040517f08c379a0000000000000000000000000000000000000000000000000000000008152600401610c399061495a565b60405180910390fd5b6000601060008573ffffffffffffffffffffffffffffffffffffffff1673ffffffffffffffffffffffffffffffffffffffff16815260200190815260200160002060405180608001604052908160008201548152602001600182015481526020016002820160009054906101000a900463ffffffff1663ffffffff1663ffffffff1681526020016002820160049054906101000a900463ffffffff1663ffffffff1663ffffffff168152505090506000610cfb85611088565b90506127108110610df357601060008673ffffffffffffffffffffffffffffffffffffffff1673ffffffffffffffffffffffffffffffffffffffff16815260200190815260200160002060008082016000905560018201600090556002820160006101000a81549063ffffffff02191690556002820160046101000a81549063ffffffff021916905550508473ffffffffffffffffffffffffffffffffffffffff167f51c99f515c87b0d95ba97f616edd182e8f161c4932eac17c6fefe9dab58b77b183600001516000604051610dd3929190614a8b565b60405180910390a2610dea85858460000151612c2d565b92505050610fe1565b6000612710610e0f838560000151612bee90919063ffffffff16565b610e199190614cb3565b90506040518060800160405280610e3d838660000151612e7290919063ffffffff16565b8152602001846020015181526020014263ffffffff168152602001610e91610e7886604001514263ffffffff16612e9590919063ffffffff16565b866060015163ffffffff16612e9590919063ffffffff16565b63ffffffff16815250601060008873ffffffffffffffffffffffffffffffffffffffff1673ffffffffffffffffffffffffffffffffffffffff168152602001908152602001600020600082015181600001556020820151816001015560408201518160020160006101000a81548163ffffffff021916908363ffffffff16021790555060608201518160020160046101000a81548163ffffffff021916908363ffffffff1602179055509050508573ffffffffffffffffffffffffffffffffffffffff167f51c99f515c87b0d95ba97f616edd182e8f161c4932eac17c6fefe9dab58b77b182601060008a73ffffffffffffffffffffffffffffffffffffffff1673ffffffffffffffffffffffffffffffffffffffff16815260200190815260200160002060000154604051610fc8929190614ab4565b60405180910390a2610fdb868683612c2d565b93505050505b92915050565b7f000000000000000000000000000000000000000000000000000000000000000081565b600b8060000160009054906101000a900460ff16908060010154908060020154908060030154908060040160009054906101000a900463ffffffff16908060040160049054906101000a900463ffffffff16905086565b600260009054906101000a900473ffffffffffffffffffffffffffffffffffffffff1681565b600080601060008473ffffffffffffffffffffffffffffffffffffffff1673ffffffffffffffffffffffffffffffffffffffff16815260200190815260200160002060405180608001604052908160008201548152602001600182015481526020016002820160009054906101000a900463ffffffff1663ffffffff1663ffffffff1681526020016002820160049054906101000a900463ffffffff1663ffffffff1663ffffffff16815250509050600061115682604001514263ffffffff16612e9590919063ffffffff16565b63ffffffff1690506000826060015163ffffffff169050600081111561119d578061118c61271084612bee90919063ffffffff16565b6111969190614cb3565b93506111a2565b600093505b505050919050565b7f000000000000000000000000000000000000000000000000000000000000000081565b6111d6612c25565b73ffffffffffffffffffffffffffffffffffffffff166111f461169f565b73ffffffffffffffffffffffffffffffffffffffff161461124a576040517f08c379a00000000000000000000000000000000000000000000000000000000081526004016112419061485a565b60405180910390fd5b6112546000612ec4565b565b60006112746112636128e0565b601154612e7290919063ffffffff16565b905090565b60006112ce633b9aca00806112b66112b1866112ac662386f26fc1000061129e612710565b612bee90919063ffffffff16565b612f88565b61318f565b6112c09190614cb3565b612bee90919063ffffffff16565b9050919050565b600360009054906101000a900473ffffffffffffffffffffffffffffffffffffffff1681565b60007f00000000000000000000000000000000000000000000000000000000000000001561141a5760646114097f000000000000000000000000000000000000000000000000000000000000000073ffffffffffffffffffffffffffffffffffffffff166332da80a3600160009054906101000a900473ffffffffffffffffffffffffffffffffffffffff166040518263ffffffff1660e01b81526004016113a39190614483565b60206040518083038186803b1580156113bb57600080fd5b505afa1580156113cf573d6000803e3d6000fd5b505050506040513d601f19601f820116820180604052508101906113f39190613d0b565b6113fb612710565b612bee90919063ffffffff16565b6114139190614cb3565b9050611425565b611422612710565b90505b90565b611430612c25565b73ffffffffffffffffffffffffffffffffffffffff1661144e61169f565b73ffffffffffffffffffffffffffffffffffffffff16146114a4576040517f08c379a000000000000000000000000000000000000000000000000000000000815260040161149b9061485a565b60405180910390fd5b6103e86114c06019600460000154612bee90919063ffffffff16565b6114ca9190614cb3565b84111561150c576040517f08c379a00000000000000000000000000000000000000000000000000000000081526004016115039061479a565b60405180910390fd5b6028831015611550576040517f08c379a0000000000000000000000000000000000000000000000000000000008152600401611547906146da565b60405180910390fd5b600a821115611594576040517f08c379a000000000000000000000000000000000000000000000000000000000815260040161158b906146da565b60405180910390fd5b6040518060c0016040528086151581526020018581526020018481526020018381526020018263ffffffff1681526020014263ffffffff16815250600b60008201518160000160006101000a81548160ff02191690831515021790555060208201518160010155604082015181600201556060820151816003015560808201518160040160006101000a81548163ffffffff021916908363ffffffff16021790555060a08201518160040160046101000a81548163ffffffff021916908363ffffffff1602179055509050507fa7baed62dbecf9e27c728fe789b5834dd9c642ff4df89d99851a735cc4a573da600b60405161169091906149da565b60405180910390a15050505050565b60008060009054906101000a900473ffffffffffffffffffffffffffffffffffffffff16905090565b60008073ffffffffffffffffffffffffffffffffffffffff168273ffffffffffffffffffffffffffffffffffffffff161415611739576040517f08c379a0000000000000000000000000000000000000000000000000000000008152600401611730906146fa565b60405180910390fd5b8173ffffffffffffffffffffffffffffffffffffffff163373ffffffffffffffffffffffffffffffffffffffff16146117a7576040517f08c379a000000000000000000000000000000000000000000000000000000000815260040161179e9061499a565b60405180910390fd5b60006117b16112fb565b905060006117bd612710565b905080851015611802576040517f08c379a00000000000000000000000000000000000000000000000000000000081526004016117f99061487a565b60405180910390fd5b60007f000000000000000000000000000000000000000000000000000000000000000073ffffffffffffffffffffffffffffffffffffffff1663f2079623600160009054906101000a900473ffffffffffffffffffffffffffffffffffffffff1689600160006040518563ffffffff1660e01b81526004016118879493929190614527565b60206040518083038186803b15801561189f57600080fd5b505afa1580156118b3573d6000803e3d6000fd5b505050506040513d601f19601f820116820180604052508101906118d79190613d0b565b905060006118e482611279565b90506004800154611900836011546131cd90919063ffffffff16565b1115611941576040517f08c379a0000000000000000000000000000000000000000000000000000000008152600401611938906147da565b60405180910390fd5b6119496131f0565b81101561198b576040517f08c379a00000000000000000000000000000000000000000000000000000000081526004016119829061481a565b60405180910390fd5b611993612816565b8111156119d5576040517f08c379a00000000000000000000000000000000000000000000000000000000081526004016119cc9061493a565b60405180910390fd5b6000620186a06119f360046003015484612bee90919063ffffffff16565b6119fd9190614cb3565b90506000611a1482846131cd90919063ffffffff16565b9050611a6533308c600160009054906101000a900473ffffffffffffffffffffffffffffffffffffffff1673ffffffffffffffffffffffffffffffffffffffff166131fd909392919063ffffffff16565b7f000000000000000000000000000000000000000000000000000000000000000073ffffffffffffffffffffffffffffffffffffffff1663bc157ac18b600160009054906101000a900473ffffffffffffffffffffffffffffffffffffffff16846040518463ffffffff1660e01b8152600401611ae493929190614a54565b600060405180830381600087803b158015611afe57600080fd5b505af1158015611b12573d6000803e3d6000fd5b5050505060008214611b8a57611b897f0000000000000000000000000000000000000000000000000000000000000000837f000000000000000000000000000000000000000000000000000000000000000073ffffffffffffffffffffffffffffffffffffffff166132869092919063ffffffff16565b5b611b9f846011546131cd90919063ffffffff16565b6011819055506040518060800160405280611c0585601060008d73ffffffffffffffffffffffffffffffffffffffff1673ffffffffffffffffffffffffffffffffffffffff168152602001908152602001600020600001546131cd90919063ffffffff16565b81526020018781526020014263ffffffff168152602001600460050160009054906101000a900463ffffffff1663ffffffff16815250601060008a73ffffffffffffffffffffffffffffffffffffffff1673ffffffffffffffffffffffffffffffffffffffff168152602001908152602001600020600082015181600001556020820151816001015560408201518160020160006101000a81548163ffffffff021916908363ffffffff16021790555060608201518160020160046101000a81548163ffffffff021916908363ffffffff16021790555090505085611d0e600460050160009054906101000a900463ffffffff1663ffffffff16426131cd90919063ffffffff16565b847f1fec6dc81f140574bf43f6b1e420ae1dd47928b9d57db8cbd7b8611063b85ae58d604051611d3e9190614a10565b60405180910390a4611d4e6122e2565b611d56612710565b611d5e6112fb565b7f375b221f40939bfd8f49723a17cf7bc6d576ebf72efe2cc3e991826f5b3f390a60405160405180910390a4611d9261330c565b8296505050505050509392505050565b611daa612c25565b73ffffffffffffffffffffffffffffffffffffffff16611dc861169f565b73ffffffffffffffffffffffffffffffffffffffff1614611e1e576040517f08c379a0000000000000000000000000000000000000000000000000000000008152600401611e159061485a565b60405180910390fd5b600073ffffffffffffffffffffffffffffffffffffffff168173ffffffffffffffffffffffffffffffffffffffff161415611e8e576040517f08c379a0000000000000000000000000000000000000000000000000000000008152600401611e859061483a565b60405180910390fd5b80600260006101000a81548173ffffffffffffffffffffffffffffffffffffffff021916908373ffffffffffffffffffffffffffffffffffffffff1602179055507f000000000000000000000000000000000000000000000000000000000000000073ffffffffffffffffffffffffffffffffffffffff1663095ea7b3600260009054906101000a900473ffffffffffffffffffffffffffffffffffffffff16722cd76fe086b93ce2f768a00b22a000000000006040518363ffffffff1660e01b8152600401611f5f9291906144d5565b602060405180830381600087803b158015611f7957600080fd5b505af1158015611f8d573d6000803e3d6000fd5b505050506040513d601f19601f82011682018060405250810190611fb19190613bdd565b508073ffffffffffffffffffffffffffffffffffffffff167f9d6a6595abf9295f9870c0d2d5760179d6f9ac798af8db39a9e3c9f2fbd2daa060405160405180910390a250565b7f000000000000000000000000000000000000000000000000000000000000000081565b60007f000000000000000000000000000000000000000000000000000000000000000073ffffffffffffffffffffffffffffffffffffffff168273ffffffffffffffffffffffffffffffffffffffff1614156120ad576040517f08c379a00000000000000000000000000000000000000000000000000000000081526004016120a49061491a565b60405180910390fd5b600160009054906101000a900473ffffffffffffffffffffffffffffffffffffffff1673ffffffffffffffffffffffffffffffffffffffff168273ffffffffffffffffffffffffffffffffffffffff16141561213e576040517f08c379a0000000000000000000000000000000000000000000000000000000008152600401612135906147ba565b60405180910390fd5b60008273ffffffffffffffffffffffffffffffffffffffff166370a08231306040518263ffffffff1660e01b81526004016121799190614483565b60206040518083038186803b15801561219157600080fd5b505afa1580156121a5573d6000803e3d6000fd5b505050506040513d601f19601f820116820180604052508101906121c99190613d0b565b90506122167f0000000000000000000000000000000000000000000000000000000000000000828573ffffffffffffffffffffffffffffffffffffffff166132869092919063ffffffff16565b8273ffffffffffffffffffffffffffffffffffffffff167f11f0a001971cc33b9a8651a3368b34900c22a665504b5cabc3e0e9fdf59d98468260405161225c9190614a10565b60405180910390a26001915050919050565b7f000000000000000000000000000000000000000000000000000000000000000081565b60106020528060005260406000206000915090508060000154908060010154908060020160009054906101000a900463ffffffff16908060020160049054906101000a900463ffffffff16905084565b6000807f000000000000000000000000000000000000000000000000000000000000000073ffffffffffffffffffffffffffffffffffffffff166318160ddd6040518163ffffffff1660e01b815260040160206040518083038186803b15801561234b57600080fd5b505afa15801561235f573d6000803e3d6000fd5b505050506040513d601f19601f820116820180604052508101906123839190613d0b565b9050670de0b6b3a76400006123bd6123b86123b2633b9aca006123a4611256565b612bee90919063ffffffff16565b84612f88565b61318f565b6123c79190614cb3565b91505090565b6123d5612c25565b73ffffffffffffffffffffffffffffffffffffffff166123f361169f565b73ffffffffffffffffffffffffffffffffffffffff1614612449576040517f08c379a00000000000000000000000000000000000000000000000000000000081526004016124409061485a565b60405180910390fd5b600060046000015414612491576040517f08c379a0000000000000000000000000000000000000000000000000000000008152600401612488906148fa565b60405180910390fd5b60008710156124d5576040517f08c379a00000000000000000000000000000000000000000000000000000000081526004016124cc906148da565b60405180910390fd5b61271085111561251a576040517f08c379a00000000000000000000000000000000000000000000000000000000081526004016125119061473a565b60405180910390fd5b600a8163ffffffff161015612564576040517f08c379a000000000000000000000000000000000000000000000000000000000815260040161255b9061489a565b60405180910390fd5b6127108311156125a9576040517f08c379a00000000000000000000000000000000000000000000000000000000081526004016125a0906146ba565b60405180910390fd5b6040518060e001604052808881526020018781526020018681526020018481526020018381526020018263ffffffff168152602001858152506004600082015181600001556020820151816001015560408201518160020155606082015181600301556080820151816004015560a08201518160050160006101000a81548163ffffffff021916908363ffffffff16021790555060c0820151816006015590505042601260006101000a81548163ffffffff021916908363ffffffff1602179055507f2899dec725ced4d577fb04c303b13b67b1be87910c7aa7e4343a6462ac24f252600460405161269b91906149f5565b60405180910390a150505050505050565b60048060000154908060010154908060020154908060030154908060040154908060050160009054906101000a900463ffffffff16908060060154905087565b7f000000000000000000000000000000000000000000000000000000000000000081565b60008061273261271e6122e2565b600460000154612bee90919063ffffffff16565b90506000600360009054906101000a900473ffffffffffffffffffffffffffffffffffffffff1673ffffffffffffffffffffffffffffffffffffffff1663ac3b992a6040518163ffffffff1660e01b815260040160206040518083038186803b15801561279e57600080fd5b505afa1580156127b2573d6000803e3d6000fd5b505050506040513d601f19601f820116820180604052508101906127d69190613d0b565b90506004600101548210156127ee5760046001015491505b6298968061280582846131cd90919063ffffffff16565b61280f9190614cb3565b9250505090565b6000620186a06128d16004600201547f000000000000000000000000000000000000000000000000000000000000000073ffffffffffffffffffffffffffffffffffffffff166318160ddd6040518163ffffffff1660e01b815260040160206040518083038186803b15801561288b57600080fd5b505afa15801561289f573d6000803e3d6000fd5b505050506040513d601f19601f820116820180604052508101906128c39190613d0b565b612bee90919063ffffffff16565b6128db9190614cb3565b905090565b60008061290e601260009054906101000a900463ffffffff164263ffffffff16612e9590919063ffffffff16565b9050600460050160009054906101000a900463ffffffff1663ffffffff166129478263ffffffff16601154612bee90919063ffffffff16565b6129519190614cb3565b91506011548211156129635760115491505b5090565b61296f612c25565b73ffffffffffffffffffffffffffffffffffffffff1661298d61169f565b73ffffffffffffffffffffffffffffffffffffffff16146129e3576040517f08c379a00000000000000000000000000000000000000000000000000000000081526004016129da9061485a565b60405180910390fd5b600073ffffffffffffffffffffffffffffffffffffffff168173ffffffffffffffffffffffffffffffffffffffff161415612a53576040517f08c379a0000000000000000000000000000000000000000000000000000000008152600401612a4a9061471a565b60405180910390fd5b612a5c81612ec4565b50565b601260009054906101000a900463ffffffff1681565b612a7d612c25565b73ffffffffffffffffffffffffffffffffffffffff16612a9b61169f565b73ffffffffffffffffffffffffffffffffffffffff1614612af1576040517f08c379a0000000000000000000000000000000000000000000000000000000008152600401612ae89061485a565b60405180910390fd5b600073ffffffffffffffffffffffffffffffffffffffff168173ffffffffffffffffffffffffffffffffffffffff161415612b61576040517f08c379a0000000000000000000000000000000000000000000000000000000008152600401612b589061483a565b60405180910390fd5b80600360006101000a81548173ffffffffffffffffffffffffffffffffffffffff021916908373ffffffffffffffffffffffffffffffffffffffff1602179055508073ffffffffffffffffffffffffffffffffffffffff167f9d6a6595abf9295f9870c0d2d5760179d6f9ac798af8db39a9e3c9f2fbd2daa060405160405180910390a250565b60115481565b600080831480612c16575081838385612c079190614ce4565b925082612c149190614cb3565b145b612c1f57600080fd5b92915050565b600033905090565b600082612ce7577f000000000000000000000000000000000000000000000000000000000000000073ffffffffffffffffffffffffffffffffffffffff1663a9059cbb85846040518363ffffffff1660e01b8152600401612c8f9291906144fe565b602060405180830381600087803b158015612ca957600080fd5b505af1158015612cbd573d6000803e3d6000fd5b505050506040513d601f19601f82011682018060405250810190612ce19190613bdd565b50612e68565b7f000000000000000000000000000000000000000000000000000000000000000073ffffffffffffffffffffffffffffffffffffffff1663095ea7b3600260009054906101000a900473ffffffffffffffffffffffffffffffffffffffff16846040518363ffffffff1660e01b8152600401612d649291906144fe565b602060405180830381600087803b158015612d7e57600080fd5b505af1158015612d92573d6000803e3d6000fd5b505050506040513d601f19601f82011682018060405250810190612db69190613bdd565b50600260009054906101000a900473ffffffffffffffffffffffffffffffffffffffff1673ffffffffffffffffffffffffffffffffffffffff16637acb775783866040518363ffffffff1660e01b8152600401612e14929190614a2b565b602060405180830381600087803b158015612e2e57600080fd5b505af1158015612e42573d6000803e3d6000fd5b505050506040513d601f19601f82011682018060405250810190612e669190613bdd565b505b8190509392505050565b6000828284612e819190614d3e565b9150811115612e8f57600080fd5b92915050565b60008263ffffffff168284612eaa9190614d72565b91508163ffffffff161115612ebe57600080fd5b92915050565b60008060009054906101000a900473ffffffffffffffffffffffffffffffffffffffff169050816000806101000a81548173ffffffffffffffffffffffffffffffffffffffff021916908373ffffffffffffffffffffffffffffffffffffffff1602179055508173ffffffffffffffffffffffffffffffffffffffff168173ffffffffffffffffffffffffffffffffffffffff167f8be0079c531659141344cd1fd0a4f28419497f9722a3daafe3b4186f6b6457e060405160405180910390a35050565b612f90613a9f565b60008211612fd3576040517f08c379a0000000000000000000000000000000000000000000000000000000008152600401612fca9061477a565b60405180910390fd5b600083141561301157604051806020016040528060007bffffffffffffffffffffffffffffffffffffffffffffffffffffffff168152509050613189565b71ffffffffffffffffffffffffffffffffffff801683116130d957600082607060ff1685901b6130419190614cb3565b90507bffffffffffffffffffffffffffffffffffffffffffffffffffffffff80168111156130a4576040517f08c379a000000000000000000000000000000000000000000000000000000000815260040161309b906148ba565b60405180910390fd5b6040518060200160405280827bffffffffffffffffffffffffffffffffffffffffffffffffffffffff16815250915050613189565b60006130f5846e010000000000000000000000000000856134d7565b90507bffffffffffffffffffffffffffffffffffffffffffffffffffffffff8016811115613158576040517f08c379a000000000000000000000000000000000000000000000000000000000815260040161314f906148ba565b60405180910390fd5b6040518060200160405280827bffffffffffffffffffffffffffffffffffffffffffffffffffffffff168152509150505b92915050565b60006612725dd1d243ab82600001517bffffffffffffffffffffffffffffffffffffffffffffffffffffffff166131c69190614cb3565b9050919050565b60008282846131dc9190614c23565b91508110156131ea57600080fd5b92915050565b6000600460060154905090565b613280846323b872dd60e01b85858560405160240161321e9392919061449e565b604051602081830303815290604052907bffffffffffffffffffffffffffffffffffffffffffffffffffffffff19166020820180517bffffffffffffffffffffffffffffffffffffffffffffffffffffffff83818316178352505050506135a5565b50505050565b6133078363a9059cbb60e01b84846040516024016132a59291906144fe565b604051602081830303815290604052907bffffffffffffffffffffffffffffffffffffffffffffffffffffffff19166020820180517bffffffffffffffffffffffffffffffffffffffffffffffffffffffff83818316178352505050506135a5565b505050565b6000613351600b60040160009054906101000a900463ffffffff16600b60040160049054906101000a900463ffffffff1663ffffffff1661366c90919063ffffffff16565b63ffffffff1690506000600b600101541415801561336f5750804210155b156134d457600060046000015490506000819050600b60000160009054906101000a900460ff16156133f7576133b3600b60010154826131cd90919063ffffffff16565b9050600b6002015481106133f257600b60000160009054906101000a900460ff1615600b60000160006101000a81548160ff0219169083151502179055505b61344f565b61340f600b6001015482612e7290919063ffffffff16565b9050600b60030154811161344e57600b60000160009054906101000a900460ff1615600b60000160006101000a81548160ff0219169083151502179055505b5b8060046000018190555042600b60040160046101000a81548163ffffffff021916908363ffffffff1602179055507fb923e581a0f83128e9e1d8297aa52b18d6744310476e0b54509c054cd7a93b2a8282600b60010154600b60000160009054906101000a900460ff166040516134c99493929190614add565b60405180910390a150505b50565b60008060006134e6868661369b565b9150915060008480613521577f4e487b7100000000000000000000000000000000000000000000000000000000600052601260045260246000fd5b86880990508281111561353e5760018261353b9190614d3e565b91505b808361354a9190614d3e565b925084821061358e576040517f08c379a0000000000000000000000000000000000000000000000000000000008152600401613585906147fa565b60405180910390fd5b613599838387613736565b93505050509392505050565b6000613607826040518060400160405280602081526020017f5361666545524332303a206c6f772d6c6576656c2063616c6c206661696c65648152508573ffffffffffffffffffffffffffffffffffffffff166138e99092919063ffffffff16565b905060008151111561366757808060200190518101906136279190613bdd565b613666576040517f08c379a000000000000000000000000000000000000000000000000000000000815260040161365d906149ba565b60405180910390fd5b5b505050565b60008263ffffffff1682846136819190614c79565b91508163ffffffff16101561369557600080fd5b92915050565b60008060007fffffffffffffffffffffffffffffffffffffffffffffffffffffffffffffffff806136f5577f4e487b7100000000000000000000000000000000000000000000000000000000600052601260045260246000fd5b848609905083856137069190614ce4565b925082816137149190614d3e565b91508281101561372e5760018261372b9190614d3e565b91505b509250929050565b600080600183196137479190614c23565b8316905080836137579190614cb3565b925080856137659190614cb3565b9450600181600183196137789190614c23565b6137829190614cb3565b61378c9190614c23565b846137979190614ce4565b856137a29190614c23565b945060006001905080846137b69190614ce4565b60026137c29190614d3e565b816137cd9190614ce4565b905080846137db9190614ce4565b60026137e79190614d3e565b816137f29190614ce4565b905080846138009190614ce4565b600261380c9190614d3e565b816138179190614ce4565b905080846138259190614ce4565b60026138319190614d3e565b8161383c9190614ce4565b9050808461384a9190614ce4565b60026138569190614d3e565b816138619190614ce4565b9050808461386f9190614ce4565b600261387b9190614d3e565b816138869190614ce4565b905080846138949190614ce4565b60026138a09190614d3e565b816138ab9190614ce4565b905080846138b99190614ce4565b60026138c59190614d3e565b816138d09190614ce4565b905080866138de9190614ce4565b925050509392505050565b60606138f88484600085613901565b90509392505050565b606082471015613946576040517f08c379a000000000000000000000000000000000000000000000000000000000815260040161393d9061475a565b60405180910390fd5b61394f85613a15565b61398e576040517f08c379a00000000000000000000000000000000000000000000000000000000081526004016139859061497a565b60405180910390fd5b6000808673ffffffffffffffffffffffffffffffffffffffff1685876040516139b7919061446c565b60006040518083038185875af1925050503d80600081146139f4576040519150601f19603f3d011682016040523d82523d6000602084013e6139f9565b606091505b5091509150613a09828286613a38565b92505050949350505050565b6000808273ffffffffffffffffffffffffffffffffffffffff163b119050919050565b60608315613a4857829050613a98565b600083511115613a5b5782518084602001fd5b816040517f08c379a0000000000000000000000000000000000000000000000000000000008152600401613a8f9190614698565b60405180910390fd5b9392505050565b604051806020016040528060007bffffffffffffffffffffffffffffffffffffffffffffffffffffffff1681525090565b600081359050613adf81615580565b92915050565b600081359050613af481615597565b92915050565b600081519050613b0981615597565b92915050565b600081359050613b1e816155ae565b92915050565b600081359050613b33816155c5565b92915050565b600081359050613b48816155d5565b92915050565b600081519050613b5d816155d5565b92915050565b600081359050613b72816155ec565b92915050565b600060208284031215613b8a57600080fd5b6000613b9884828501613ad0565b91505092915050565b60008060408385031215613bb457600080fd5b6000613bc285828601613ad0565b9250506020613bd385828601613ae5565b9150509250929050565b600060208284031215613bef57600080fd5b6000613bfd84828501613afa565b91505092915050565b600080600080600060a08688031215613c1e57600080fd5b6000613c2c88828901613ae5565b9550506020613c3d88828901613b39565b9450506040613c4e88828901613b39565b9350506060613c5f88828901613b39565b9250506080613c7088828901613b63565b9150509295509295909350565b600060208284031215613c8f57600080fd5b6000613c9d84828501613b0f565b91505092915050565b60008060408385031215613cb957600080fd5b6000613cc785828601613b24565b9250506020613cd885828601613b39565b9150509250929050565b600060208284031215613cf457600080fd5b6000613d0284828501613b39565b91505092915050565b600060208284031215613d1d57600080fd5b6000613d2b84828501613b4e565b91505092915050565b600080600060608486031215613d4957600080fd5b6000613d5786828701613b39565b9350506020613d6886828701613b39565b9250506040613d7986828701613ad0565b9150509250925092565b600080600080600080600060e0888a031215613d9e57600080fd5b6000613dac8a828b01613b39565b9750506020613dbd8a828b01613b39565b9650506040613dce8a828b01613b39565b9550506060613ddf8a828b01613b39565b9450506080613df08a828b01613b39565b93505060a0613e018a828b01613b39565b92505060c0613e128a828b01613b63565b91505092959891949750929550565b613e2a81614dcd565b82525050565b613e3981614ddf565b82525050565b613e4881614ddf565b82525050565b6000613e5982614bf1565b613e638185614c07565b9350613e73818560208601614f34565b80840191505092915050565b613e8881614e4a565b82525050565b613e9781614e6e565b82525050565b613ea681614e92565b82525050565b613eb581614eb6565b82525050565b613ec481614eda565b82525050565b613ed381614efe565b82525050565b613ee281614f10565b82525050565b613ef181614f22565b82525050565b6000613f0282614bfc565b613f0c8185614c12565b9350613f1c818560208601614f34565b613f258161505c565b840191505092915050565b6000613f3d601c83614c12565b9150613f4882615087565b602082019050919050565b6000613f60601f83614c12565b9150613f6b826150b0565b602082019050919050565b6000613f83600f83614c12565b9150613f8e826150d9565b602082019050919050565b6000613fa6602683614c12565b9150613fb182615102565b604082019050919050565b6000613fc9602083614c12565b9150613fd482615151565b602082019050919050565b6000613fec602683614c12565b9150613ff78261517a565b604082019050919050565b600061400f602683614c12565b915061401a826151c9565b604082019050919050565b6000614032601383614c12565b915061403d82615218565b602082019050919050565b6000614055600383614c12565b915061406082615241565b602082019050919050565b6000614078601483614c12565b91506140838261526a565b602082019050919050565b600061409b601a83614c12565b91506140a682615293565b602082019050919050565b60006140be600e83614c12565b91506140c9826152bc565b602082019050919050565b60006140e1600283614c12565b91506140ec826152e5565b602082019050919050565b6000614104602083614c12565b915061410f8261530e565b602082019050919050565b6000614127602383614c12565b915061413282615337565b604082019050919050565b600061414a602483614c12565b915061415582615386565b604082019050919050565b600061416d601e83614c12565b9150614178826153d5565b602082019050919050565b6000614190601383614c12565b915061419b826153fe565b602082019050919050565b60006141b3602083614c12565b91506141be82615427565b602082019050919050565b60006141d6600383614c12565b91506141e182615450565b602082019050919050565b60006141f9600e83614c12565b915061420482615479565b602082019050919050565b600061421c600283614c12565b9150614227826154a2565b602082019050919050565b600061423f601d83614c12565b915061424a826154cb565b602082019050919050565b6000614262600483614c12565b915061426d826154f4565b602082019050919050565b6000614285602a83614c12565b91506142908261551d565b604082019050919050565b60c0820160008083015490506142b081614f67565b6142bd6000860182613e30565b50600183015490506142ce81614f81565b6142db6020860182614430565b50600283015490506142ec81614f81565b6142f96040860182614430565b506003830154905061430a81614f81565b6143176060860182614430565b506004830154905061432881614f9b565b614335608086018261444e565b5061433f81614fb5565b61434c60a086018261444e565b5050505050565b60e08201600080830154905061436881614f81565b6143756000860182614430565b506001830154905061438681614f81565b6143936020860182614430565b50600283015490506143a481614f81565b6143b16040860182614430565b50600383015490506143c281614f81565b6143cf6060860182614430565b50600483015490506143e081614f81565b6143ed6080860182614430565b50600583015490506143fe81614f9b565b61440b60a086018261444e565b506006830154905061441c81614f81565b61442960c0860182614430565b5050505050565b61443981614e30565b82525050565b61444881614e30565b82525050565b61445781614e3a565b82525050565b61446681614e3a565b82525050565b60006144788284613e4e565b915081905092915050565b60006020820190506144986000830184613e21565b92915050565b60006060820190506144b36000830186613e21565b6144c06020830185613e21565b6144cd604083018461443f565b949350505050565b60006040820190506144ea6000830185613e21565b6144f76020830184613ee8565b9392505050565b60006040820190506145136000830185613e21565b614520602083018461443f565b9392505050565b600060808201905061453c6000830187613e21565b614549602083018661443f565b6145566040830185613e3f565b6145636060830184613e3f565b95945050505050565b60006020820190506145816000830184613e3f565b92915050565b600060c08201905061459c6000830189613e3f565b6145a9602083018861443f565b6145b6604083018761443f565b6145c3606083018661443f565b6145d0608083018561445d565b6145dd60a083018461445d565b979650505050505050565b60006020820190506145fd6000830184613e7f565b92915050565b60006020820190506146186000830184613e8e565b92915050565b60006020820190506146336000830184613e9d565b92915050565b600060208201905061464e6000830184613eac565b92915050565b60006020820190506146696000830184613ebb565b92915050565b60006040820190506146846000830185613eca565b614691602083018461443f565b9392505050565b600060208201905081810360008301526146b28184613ef7565b905092915050565b600060208201905081810360008301526146d381613f30565b9050919050565b600060208201905081810360008301526146f381613f53565b9050919050565b6000602082019050818103600083015261471381613f76565b9050919050565b6000602082019050818103600083015261473381613f99565b9050919050565b6000602082019050818103600083015261475381613fbc565b9050919050565b6000602082019050818103600083015261477381613fdf565b9050919050565b6000602082019050818103600083015261479381614002565b9050919050565b600060208201905081810360008301526147b381614025565b9050919050565b600060208201905081810360008301526147d381614048565b9050919050565b600060208201905081810360008301526147f38161406b565b9050919050565b600060208201905081810360008301526148138161408e565b9050919050565b60006020820190508181036000830152614833816140b1565b9050919050565b60006020820190508181036000830152614853816140d4565b9050919050565b60006020820190508181036000830152614873816140f7565b9050919050565b600060208201905081810360008301526148938161411a565b9050919050565b600060208201905081810360008301526148b38161413d565b9050919050565b600060208201905081810360008301526148d381614160565b9050919050565b600060208201905081810360008301526148f381614183565b9050919050565b60006020820190508181036000830152614913816141a6565b9050919050565b60006020820190508181036000830152614933816141c9565b9050919050565b60006020820190508181036000830152614953816141ec565b9050919050565b600060208201905081810360008301526149738161420f565b9050919050565b6000602082019050818103600083015261499381614232565b9050919050565b600060208201905081810360008301526149b381614255565b9050919050565b600060208201905081810360008301526149d381614278565b9050919050565b600060c0820190506149ef600083018461429b565b92915050565b600060e082019050614a0a6000830184614353565b92915050565b6000602082019050614a25600083018461443f565b92915050565b6000604082019050614a40600083018561443f565b614a4d6020830184613e21565b9392505050565b6000606082019050614a69600083018661443f565b614a766020830185613e21565b614a83604083018461443f565b949350505050565b6000604082019050614aa0600083018561443f565b614aad6020830184613ed9565b9392505050565b6000604082019050614ac9600083018561443f565b614ad6602083018461443f565b9392505050565b6000608082019050614af2600083018761443f565b614aff602083018661443f565b614b0c604083018561443f565b614b196060830184613e3f565b95945050505050565b600060e082019050614b37600083018a61443f565b614b44602083018961443f565b614b51604083018861443f565b614b5e606083018761443f565b614b6b608083018661443f565b614b7860a083018561445d565b614b8560c083018461443f565b98975050505050505050565b6000608082019050614ba6600083018761443f565b614bb3602083018661443f565b614bc0604083018561445d565b614bcd606083018461445d565b95945050505050565b6000602082019050614beb600083018461445d565b92915050565b600081519050919050565b600081519050919050565b600081905092915050565b600082825260208201905092915050565b6000614c2e82614e30565b9150614c3983614e30565b9250827fffffffffffffffffffffffffffffffffffffffffffffffffffffffffffffffff03821115614c6e57614c6d614fcf565b5b828201905092915050565b6000614c8482614e3a565b9150614c8f83614e3a565b92508263ffffffff03821115614ca857614ca7614fcf565b5b828201905092915050565b6000614cbe82614e30565b9150614cc983614e30565b925082614cd957614cd8614ffe565b5b828204905092915050565b6000614cef82614e30565b9150614cfa83614e30565b9250817fffffffffffffffffffffffffffffffffffffffffffffffffffffffffffffffff0483118215151615614d3357614d32614fcf565b5b828202905092915050565b6000614d4982614e30565b9150614d5483614e30565b925082821015614d6757614d66614fcf565b5b828203905092915050565b6000614d7d82614e3a565b9150614d8883614e3a565b925082821015614d9b57614d9a614fcf565b5b828203905092915050565b600060ff82169050919050565b6000819050919050565b600063ffffffff82169050919050565b6000614dd882614e10565b9050919050565b60008115159050919050565b6000614df682614dcd565b9050919050565b6000819050614e0b8261556c565b919050565b600073ffffffffffffffffffffffffffffffffffffffff82169050919050565b6000819050919050565b600063ffffffff82169050919050565b6000614e5582614e5c565b9050919050565b6000614e6782614e10565b9050919050565b6000614e7982614e80565b9050919050565b6000614e8b82614e10565b9050919050565b6000614e9d82614ea4565b9050919050565b6000614eaf82614e10565b9050919050565b6000614ec182614ec8565b9050919050565b6000614ed382614e10565b9050919050565b6000614ee582614eec565b9050919050565b6000614ef782614e10565b9050919050565b6000614f0982614dfd565b9050919050565b6000614f1b82614e30565b9050919050565b6000614f2d82614e30565b9050919050565b60005b83811015614f52578082015181840152602081019050614f37565b83811115614f61576000848401525b50505050565b6000614f7a614f758361506d565b614da6565b9050919050565b6000614f94614f8f8361506d565b614db3565b9050919050565b6000614fae614fa98361506d565b614dbd565b9050919050565b6000614fc8614fc38361507a565b614dbd565b9050919050565b7f4e487b7100000000000000000000000000000000000000000000000000000000600052601160045260246000fd5b7f4e487b7100000000000000000000000000000000000000000000000000000000600052601260045260246000fd5b7f4e487b7100000000000000000000000000000000000000000000000000000000600052602160045260246000fd5b6000601f19601f8301169050919050565b60008160001c9050919050565b60008160201c9050919050565b7f44414f206665652063616e6e6f7420657863656564207061796f757400000000600082015250565b7f4e6578742041646a7573746d656e7420636f756c64206265206c6f636b656400600082015250565b7f496e76616c696420616464726573730000000000000000000000000000000000600082015250565b7f4f776e61626c653a206e6577206f776e657220697320746865207a65726f206160008201527f6464726573730000000000000000000000000000000000000000000000000000602082015250565b7f5061796f75742063616e6e6f742062652061626f766520312070657263656e74600082015250565b7f416464726573733a20696e73756666696369656e742062616c616e636520666f60008201527f722063616c6c0000000000000000000000000000000000000000000000000000602082015250565b7f4669786564506f696e743a3a6672616374696f6e3a206469766973696f6e206260008201527f79207a65726f0000000000000000000000000000000000000000000000000000602082015250565b7f496e6372656d656e7420746f6f206c6172676500000000000000000000000000600082015250565b7f4e41500000000000000000000000000000000000000000000000000000000000600082015250565b7f4d61782063617061636974792072656163686564000000000000000000000000600082015250565b7f46756c6c4d6174683a3a6d756c4469763a206f766572666c6f77000000000000600082015250565b7f426f6e6420746f6f20736d616c6c000000000000000000000000000000000000600082015250565b7f4941000000000000000000000000000000000000000000000000000000000000600082015250565b7f4f776e61626c653a2063616c6c6572206973206e6f7420746865206f776e6572600082015250565b7f536c697070616765206c696d69743a206d6f7265207468616e206d617820707260008201527f6963650000000000000000000000000000000000000000000000000000000000602082015250565b7f56657374696e67206d757374206265206c6f6e676572207468616e203336206860008201527f6f75727300000000000000000000000000000000000000000000000000000000602082015250565b7f4669786564506f696e743a3a6672616374696f6e3a206f766572666c6f770000600082015250565b7f43616e206c6f636b2061646a7573746d656e7400000000000000000000000000600082015250565b7f426f6e6473206d75737420626520696e697469616c697a65642066726f6d2030600082015250565b7f4e41540000000000000000000000000000000000000000000000000000000000600082015250565b7f426f6e6420746f6f206c61726765000000000000000000000000000000000000600082015250565b7f4e41000000000000000000000000000000000000000000000000000000000000600082015250565b7f416464726573733a2063616c6c20746f206e6f6e2d636f6e7472616374000000600082015250565b7f4c464e4100000000000000000000000000000000000000000000000000000000600082015250565b7f5361666545524332303a204552433230206f7065726174696f6e20646964206e60008201527f6f74207375636365656400000000000000000000000000000000000000000000602082015250565b6006811061557d5761557c61502d565b5b50565b61558981614dcd565b811461559457600080fd5b50565b6155a081614ddf565b81146155ab57600080fd5b50565b6155b781614deb565b81146155c257600080fd5b50565b600681106155d257600080fd5b50565b6155de81614e30565b81146155e957600080fd5b50565b6155f581614e3a565b811461560057600080fd5b5056fea2646970667358221220e2a79037a3dd22785e477c42cdeb704fadb434c258f7f0e8c1e954604021350964736f6c63430008040033",
  "linkReferences": {},
  "deployedLinkReferences": {}
}