{
  "_format": "hh-sol-artifact-1",
  "contractName": "ChrfFaucet",
  "sourceName": "contracts/OrfiFaucet.sol",
  "abi": [
    {
      "inputs": [
        {
          "internalType": "address",
          "name": "chrfAddress",
          "type": "address"
        }
      ],
      "stateMutability": "nonpayable",
      "type": "constructor"
    },
    {
      "inputs": [],
      "name": "chrfContract",
      "outputs": [
        {
          "internalType": "contract IERC20",
          "name": "",
          "type": "address"
        }
      ],
      "stateMutability": "view",
      "type": "function"
    },
    {
      "inputs": [
        {
          "internalType": "address",
          "name": "to_",
          "type": "address"
        }
      ],
      "name": "faucet",
      "outputs": [],
      "stateMutability": "nonpayable",
      "type": "function"
    }
  ],
  "bytecode": "0x60a060405234801561001057600080fd5b506040516107b33803806107b3833981810160405281019061003291906100be565b600073ffffffffffffffffffffffffffffffffffffffff168173ffffffffffffffffffffffffffffffffffffffff16141561006c57600080fd5b8073ffffffffffffffffffffffffffffffffffffffff1660808173ffffffffffffffffffffffffffffffffffffffff1660601b8152505050610130565b6000815190506100b881610119565b92915050565b6000602082840312156100d057600080fd5b60006100de848285016100a9565b91505092915050565b60006100f2826100f9565b9050919050565b600073ffffffffffffffffffffffffffffffffffffffff82169050919050565b610122816100e7565b811461012d57600080fd5b50565b60805160601c61065761015c600039600081816101430152818161022d01526102e701526106576000f3fe608060405234801561001057600080fd5b50600436106100365760003560e01c8063b86d1d631461003b578063d3a2e81814610057575b600080fd5b61005560048036038101906100509190610348565b610075565b005b61005f6102e5565b60405161006c919061047a565b60405180910390f35b600073ffffffffffffffffffffffffffffffffffffffff168173ffffffffffffffffffffffffffffffffffffffff1614156100af57600080fd5b678ac7230489e800006000808373ffffffffffffffffffffffffffffffffffffffff1673ffffffffffffffffffffffffffffffffffffffff1681526020019081526020016000205410610137576040517f08c379a000000000000000000000000000000000000000000000000000000000815260040161012e90610495565b60405180910390fd5b68056bc75e2d631000007f000000000000000000000000000000000000000000000000000000000000000073ffffffffffffffffffffffffffffffffffffffff166370a08231306040518263ffffffff1660e01b815260040161019a9190610436565b60206040518083038186803b1580156101b257600080fd5b505afa1580156101c6573d6000803e3d6000fd5b505050506040513d601f19601f820116820180604052508101906101ea919061039a565b101561022b576040517f08c379a0000000000000000000000000000000000000000000000000000000008152600401610222906104b5565b60405180910390fd5b7f000000000000000000000000000000000000000000000000000000000000000073ffffffffffffffffffffffffffffffffffffffff1663a9059cbb8268056bc75e2d631000006040518363ffffffff1660e01b815260040161028f929190610451565b602060405180830381600087803b1580156102a957600080fd5b505af11580156102bd573d6000803e3d6000fd5b505050506040513d601f19601f820116820180604052508101906102e19190610371565b5050565b7f000000000000000000000000000000000000000000000000000000000000000081565b600081359050610318816105dc565b92915050565b60008151905061032d816105f3565b92915050565b6000815190506103428161060a565b92915050565b60006020828403121561035a57600080fd5b600061036884828501610309565b91505092915050565b60006020828403121561038357600080fd5b60006103918482850161031e565b91505092915050565b6000602082840312156103ac57600080fd5b60006103ba84828501610333565b91505092915050565b6103cc816104e6565b82525050565b6103db8161052e565b82525050565b6103ea81610552565b82525050565b60006103fd600d836104d5565b915061040882610564565b602082019050919050565b6000610420602c836104d5565b915061042b8261058d565b604082019050919050565b600060208201905061044b60008301846103c3565b92915050565b600060408201905061046660008301856103c3565b61047360208301846103e1565b9392505050565b600060208201905061048f60008301846103d2565b92915050565b600060208201905081810360008301526104ae816103f0565b9050919050565b600060208201905081810360008301526104ce81610413565b9050919050565b600082825260208201905092915050565b60006104f182610504565b9050919050565b60008115159050919050565b600073ffffffffffffffffffffffffffffffffffffffff82169050919050565b6000819050919050565b600061053982610540565b9050919050565b600061054b82610504565b9050919050565b600061055d82610524565b9050919050565b7f5573657220686173204348524600000000000000000000000000000000000000600082015250565b7f496e73756666696369656e7420434852462062616c616e636520696e2066617560008201527f63657420636f6e74726163740000000000000000000000000000000000000000602082015250565b6105e5816104e6565b81146105f057600080fd5b50565b6105fc816104f8565b811461060757600080fd5b50565b61061381610524565b811461061e57600080fd5b5056fea2646970667358221220c0eee7a1a66b182a66f6f5ac590d9e4724043d4008ba8774b878880bd82461be64736f6c63430008040033",
  "linkReferences": {},
  "deployedLinkReferences": {}
}