{
  "_format": "hh-sol-artifact-1",
  "contractName": "LpAsset",
  "sourceName": "contracts/coreContracts/LpAsset.sol",
  "abi": [
    {
      "inputs": [
        {
          "internalType": "address",
          "name": "lpAddress_",
          "type": "address"
        },
        {
          "internalType": "address",
          "name": "principal_",
          "type": "address"
        }
      ],
      "stateMutability": "nonpayable",
      "type": "constructor"
    },
    {
      "anonymous": false,
      "inputs": [
        {
          "indexed": true,
          "internalType": "address",
          "name": "account",
          "type": "address"
        },
        {
          "indexed": false,
          "internalType": "uint256",
          "name": "amount",
          "type": "uint256"
        },
        {
          "indexed": false,
          "internalType": "uint256",
          "name": "price",
          "type": "uint256"
        }
      ],
      "name": "LpDeposited",
      "type": "event"
    },
    {
      "anonymous": false,
      "inputs": [
        {
          "indexed": true,
          "internalType": "address",
          "name": "account",
          "type": "address"
        },
        {
          "indexed": false,
          "internalType": "uint256",
          "name": "amount",
          "type": "uint256"
        }
      ],
      "name": "LpManaged",
      "type": "event"
    },
    {
      "anonymous": false,
      "inputs": [
        {
          "indexed": true,
          "internalType": "address",
          "name": "previousOwner",
          "type": "address"
        },
        {
          "indexed": true,
          "internalType": "address",
          "name": "newOwner",
          "type": "address"
        }
      ],
      "name": "OwnershipTransferred",
      "type": "event"
    },
    {
      "inputs": [
        {
          "internalType": "address",
          "name": "_manager",
          "type": "address"
        }
      ],
      "name": "addManager",
      "outputs": [],
      "stateMutability": "nonpayable",
      "type": "function"
    },
    {
      "inputs": [
        {
          "internalType": "uint256",
          "name": "amount_",
          "type": "uint256"
        }
      ],
      "name": "deposit",
      "outputs": [],
      "stateMutability": "nonpayable",
      "type": "function"
    },
    {
      "inputs": [],
      "name": "lpAddress",
      "outputs": [
        {
          "internalType": "contract ISwapPair",
          "name": "",
          "type": "address"
        }
      ],
      "stateMutability": "view",
      "type": "function"
    },
    {
      "inputs": [
        {
          "internalType": "uint256",
          "name": "amount_",
          "type": "uint256"
        }
      ],
      "name": "manage",
      "outputs": [],
      "stateMutability": "nonpayable",
      "type": "function"
    },
    {
      "inputs": [],
      "name": "owner",
      "outputs": [
        {
          "internalType": "address",
          "name": "",
          "type": "address"
        }
      ],
      "stateMutability": "view",
      "type": "function"
    },
    {
      "inputs": [],
      "name": "principal",
      "outputs": [
        {
          "internalType": "contract IERC20",
          "name": "",
          "type": "address"
        }
      ],
      "stateMutability": "view",
      "type": "function"
    },
    {
      "inputs": [
        {
          "internalType": "address",
          "name": "_manager",
          "type": "address"
        }
      ],
      "name": "removeManager",
      "outputs": [],
      "stateMutability": "nonpayable",
      "type": "function"
    },
    {
      "inputs": [],
      "name": "renounceOwnership",
      "outputs": [],
      "stateMutability": "nonpayable",
      "type": "function"
    },
    {
      "inputs": [],
      "name": "totalInvestedAmount",
      "outputs": [
        {
          "internalType": "uint256",
          "name": "totalInvestmentAmount_",
          "type": "uint256"
        }
      ],
      "stateMutability": "pure",
      "type": "function"
    },
    {
      "inputs": [],
      "name": "totalLpTokens",
      "outputs": [
        {
          "internalType": "uint256",
          "name": "",
          "type": "uint256"
        }
      ],
      "stateMutability": "view",
      "type": "function"
    },
    {
      "inputs": [],
      "name": "totalReserves",
      "outputs": [
        {
          "internalType": "uint256",
          "name": "reserves_",
          "type": "uint256"
        }
      ],
      "stateMutability": "view",
      "type": "function"
    },
    {
      "inputs": [
        {
          "internalType": "address",
          "name": "newOwner",
          "type": "address"
        }
      ],
      "name": "transferOwnership",
      "outputs": [],
      "stateMutability": "nonpayable",
      "type": "function"
    }
  ],
  "bytecode": "0x60806040523480156200001157600080fd5b5060405162001d0738038062001d07833981810160405281019062000037919062000292565b620000576200004b620001af60201b60201c565b620001b760201b60201c565b600073ffffffffffffffffffffffffffffffffffffffff168273ffffffffffffffffffffffffffffffffffffffff1614156200009257600080fd5b600073ffffffffffffffffffffffffffffffffffffffff168173ffffffffffffffffffffffffffffffffffffffff161415620000cd57600080fd5b81600160006101000a81548173ffffffffffffffffffffffffffffffffffffffff021916908373ffffffffffffffffffffffffffffffffffffffff16021790555080600260006101000a81548173ffffffffffffffffffffffffffffffffffffffff021916908373ffffffffffffffffffffffffffffffffffffffff1602179055506001600360003373ffffffffffffffffffffffffffffffffffffffff1673ffffffffffffffffffffffffffffffffffffffff16815260200190815260200160002060006101000a81548160ff021916908315150217905550505062000321565b600033905090565b60008060009054906101000a900473ffffffffffffffffffffffffffffffffffffffff169050816000806101000a81548173ffffffffffffffffffffffffffffffffffffffff021916908373ffffffffffffffffffffffffffffffffffffffff1602179055508173ffffffffffffffffffffffffffffffffffffffff168173ffffffffffffffffffffffffffffffffffffffff167f8be0079c531659141344cd1fd0a4f28419497f9722a3daafe3b4186f6b6457e060405160405180910390a35050565b6000815190506200028c8162000307565b92915050565b60008060408385031215620002a657600080fd5b6000620002b6858286016200027b565b9250506020620002c9858286016200027b565b9150509250929050565b6000620002e082620002e7565b9050919050565b600073ffffffffffffffffffffffffffffffffffffffff82169050919050565b6200031281620002d3565b81146200031e57600080fd5b50565b6119d680620003316000396000f3fe608060405234801561001057600080fd5b50600436106100b45760003560e01c80639b4dc8cc116100715780639b4dc8cc14610157578063ac18de4314610175578063b6b55f2514610191578063ba5d3078146101ad578063ee0c4be3146101cb578063f2fde38b146101e7576100b4565b80632d06177a146100b957806343214521146100d5578063715018a6146100f3578063868c844f146100fd5780638da5cb5b1461011b5780638f840ddd14610139575b600080fd5b6100d360048036038101906100ce9190610fe6565b610203565b005b6100dd610314565b6040516100ea91906113ed565b60405180910390f35b6100fb610319565b005b6101056103a1565b60405161011291906113ed565b60405180910390f35b6101236103a7565b604051610130919061125c565b60405180910390f35b6101416103d0565b60405161014e91906113ed565b60405180910390f35b61015f6105b7565b60405161016c91906112f2565b60405180910390f35b61018f600480360381019061018a9190610fe6565b6105dd565b005b6101ab60048036038101906101a691906110b0565b6106ab565b005b6101b5610959565b6040516101c291906112d7565b60405180910390f35b6101e560048036038101906101e091906110b0565b61097f565b005b61020160048036038101906101fc9190610fe6565b610c57565b005b61020b610d4f565b73ffffffffffffffffffffffffffffffffffffffff166102296103a7565b73ffffffffffffffffffffffffffffffffffffffff161461027f576040517f08c379a00000000000000000000000000000000000000000000000000000000081526004016102769061136d565b60405180910390fd5b600073ffffffffffffffffffffffffffffffffffffffff168173ffffffffffffffffffffffffffffffffffffffff1614156102b957600080fd5b6001600360008373ffffffffffffffffffffffffffffffffffffffff1673ffffffffffffffffffffffffffffffffffffffff16815260200190815260200160002060006101000a81548160ff02191690831515021790555050565b600090565b610321610d4f565b73ffffffffffffffffffffffffffffffffffffffff1661033f6103a7565b73ffffffffffffffffffffffffffffffffffffffff1614610395576040517f08c379a000000000000000000000000000000000000000000000000000000000815260040161038c9061136d565b60405180910390fd5b61039f6000610d57565b565b60045481565b60008060009054906101000a900473ffffffffffffffffffffffffffffffffffffffff16905090565b6000806000600160009054906101000a900473ffffffffffffffffffffffffffffffffffffffff1673ffffffffffffffffffffffffffffffffffffffff16630902f1ac6040518163ffffffff1660e01b815260040160606040518083038186803b15801561043d57600080fd5b505afa158015610451573d6000803e3d6000fd5b505050506040513d601f19601f820116820180604052508101906104759190611061565b50915091506000600260009054906101000a900473ffffffffffffffffffffffffffffffffffffffff1673ffffffffffffffffffffffffffffffffffffffff16600160009054906101000a900473ffffffffffffffffffffffffffffffffffffffff1673ffffffffffffffffffffffffffffffffffffffff16630dfe16816040518163ffffffff1660e01b815260040160206040518083038186803b15801561051d57600080fd5b505afa158015610531573d6000803e3d6000fd5b505050506040513d601f19601f82011682018060405250810190610555919061100f565b73ffffffffffffffffffffffffffffffffffffffff161461057757818361057a565b82825b5090506000610598826dffffffffffffffffffffffffffff16610e1b565b90506105ae600282610efc90919063ffffffff16565b94505050505090565b600160009054906101000a900473ffffffffffffffffffffffffffffffffffffffff1681565b6105e5610d4f565b73ffffffffffffffffffffffffffffffffffffffff166106036103a7565b73ffffffffffffffffffffffffffffffffffffffff1614610659576040517f08c379a00000000000000000000000000000000000000000000000000000000081526004016106509061136d565b60405180910390fd5b600360008273ffffffffffffffffffffffffffffffffffffffff1673ffffffffffffffffffffffffffffffffffffffff16815260200190815260200160002060006101000a81549060ff021916905550565b600081116106ee576040517f08c379a00000000000000000000000000000000000000000000000000000000081526004016106e5906113cd565b60405180910390fd5b80600160009054906101000a900473ffffffffffffffffffffffffffffffffffffffff1673ffffffffffffffffffffffffffffffffffffffff166370a08231336040518263ffffffff1660e01b815260040161074a919061125c565b60206040518083038186803b15801561076257600080fd5b505afa158015610776573d6000803e3d6000fd5b505050506040513d601f19601f8201168201806040525081019061079a91906110d9565b10156107db576040517f08c379a00000000000000000000000000000000000000000000000000000000081526004016107d29061134d565b60405180910390fd5b80600460008282546107ed9190611419565b92505081905550600160009054906101000a900473ffffffffffffffffffffffffffffffffffffffff1673ffffffffffffffffffffffffffffffffffffffff1663095ea7b330836040518363ffffffff1660e01b81526004016108519291906112ae565b602060405180830381600087803b15801561086b57600080fd5b505af115801561087f573d6000803e3d6000fd5b505050506040513d601f19601f820116820180604052508101906108a39190611038565b50600160009054906101000a900473ffffffffffffffffffffffffffffffffffffffff1673ffffffffffffffffffffffffffffffffffffffff166323b872dd3330846040518463ffffffff1660e01b815260040161090393929190611277565b602060405180830381600087803b15801561091d57600080fd5b505af1158015610931573d6000803e3d6000fd5b505050506040513d601f19601f820116820180604052508101906109559190611038565b5050565b600260009054906101000a900473ffffffffffffffffffffffffffffffffffffffff1681565b600360003373ffffffffffffffffffffffffffffffffffffffff1673ffffffffffffffffffffffffffffffffffffffff16815260200190815260200160002060009054906101000a900460ff16610a0b576040517f08c379a0000000000000000000000000000000000000000000000000000000008152600401610a02906113ad565b60405180910390fd5b60008111610a4e576040517f08c379a0000000000000000000000000000000000000000000000000000000008152600401610a459061138d565b60405180910390fd5b80600160009054906101000a900473ffffffffffffffffffffffffffffffffffffffff1673ffffffffffffffffffffffffffffffffffffffff166370a08231306040518263ffffffff1660e01b8152600401610aaa919061125c565b60206040518083038186803b158015610ac257600080fd5b505afa158015610ad6573d6000803e3d6000fd5b505050506040513d601f19601f82011682018060405250810190610afa91906110d9565b1015610b3b576040517f08c379a0000000000000000000000000000000000000000000000000000000008152600401610b329061130d565b60405180910390fd5b610b5081600454610f1290919063ffffffff16565b6004819055503373ffffffffffffffffffffffffffffffffffffffff167fa98200753dad20266bd66f20f43bc1941d0fb5dacb87c8e2df46a25d40f8ba6682604051610b9c91906113ed565b60405180910390a2600160009054906101000a900473ffffffffffffffffffffffffffffffffffffffff1673ffffffffffffffffffffffffffffffffffffffff1663a9059cbb33836040518363ffffffff1660e01b8152600401610c019291906112ae565b602060405180830381600087803b158015610c1b57600080fd5b505af1158015610c2f573d6000803e3d6000fd5b505050506040513d601f19601f82011682018060405250810190610c539190611038565b5050565b610c5f610d4f565b73ffffffffffffffffffffffffffffffffffffffff16610c7d6103a7565b73ffffffffffffffffffffffffffffffffffffffff1614610cd3576040517f08c379a0000000000000000000000000000000000000000000000000000000008152600401610cca9061136d565b60405180910390fd5b600073ffffffffffffffffffffffffffffffffffffffff168173ffffffffffffffffffffffffffffffffffffffff161415610d43576040517f08c379a0000000000000000000000000000000000000000000000000000000008152600401610d3a9061132d565b60405180910390fd5b610d4c81610d57565b50565b600033905090565b60008060009054906101000a900473ffffffffffffffffffffffffffffffffffffffff169050816000806101000a81548173ffffffffffffffffffffffffffffffffffffffff021916908373ffffffffffffffffffffffffffffffffffffffff1602179055508173ffffffffffffffffffffffffffffffffffffffff168173ffffffffffffffffffffffffffffffffffffffff167f8be0079c531659141344cd1fd0a4f28419497f9722a3daafe3b4186f6b6457e060405160405180910390a35050565b6000610ef5600260009054906101000a900473ffffffffffffffffffffffffffffffffffffffff1673ffffffffffffffffffffffffffffffffffffffff1663313ce5676040518163ffffffff1660e01b815260040160206040518083038186803b158015610e8857600080fd5b505afa158015610e9c573d6000803e3d6000fd5b505050506040513d601f19601f82011682018060405250810190610ec09190611102565b600a610ecc91906114f3565b610ee7670de0b6b3a764000085610efc90919063ffffffff16565b610f2890919063ffffffff16565b9050919050565b60008183610f0a9190611611565b905092915050565b60008183610f20919061166b565b905092915050565b60008183610f36919061146f565b905092915050565b600081359050610f4d81611916565b92915050565b600081519050610f6281611916565b92915050565b600081519050610f778161192d565b92915050565b600081519050610f8c81611944565b92915050565b600081359050610fa18161195b565b92915050565b600081519050610fb68161195b565b92915050565b600081519050610fcb81611972565b92915050565b600081519050610fe081611989565b92915050565b600060208284031215610ff857600080fd5b600061100684828501610f3e565b91505092915050565b60006020828403121561102157600080fd5b600061102f84828501610f53565b91505092915050565b60006020828403121561104a57600080fd5b600061105884828501610f68565b91505092915050565b60008060006060848603121561107657600080fd5b600061108486828701610f7d565b935050602061109586828701610f7d565b92505060406110a686828701610fbc565b9150509250925092565b6000602082840312156110c257600080fd5b60006110d084828501610f92565b91505092915050565b6000602082840312156110eb57600080fd5b60006110f984828501610fa7565b91505092915050565b60006020828403121561111457600080fd5b600061112284828501610fd1565b91505092915050565b6111348161169f565b82525050565b6111438161171e565b82525050565b61115281611742565b82525050565b6000611165602083611408565b9150611170826117d1565b602082019050919050565b6000611188602683611408565b9150611193826117fa565b604082019050919050565b60006111ab602083611408565b91506111b682611849565b602082019050919050565b60006111ce602083611408565b91506111d982611872565b602082019050919050565b60006111f1601583611408565b91506111fc8261189b565b602082019050919050565b6000611214601583611408565b915061121f826118c4565b602082019050919050565b6000611237601283611408565b9150611242826118ed565b602082019050919050565b611256816116f7565b82525050565b6000602082019050611271600083018461112b565b92915050565b600060608201905061128c600083018661112b565b611299602083018561112b565b6112a6604083018461124d565b949350505050565b60006040820190506112c3600083018561112b565b6112d0602083018461124d565b9392505050565b60006020820190506112ec600083018461113a565b92915050565b60006020820190506113076000830184611149565b92915050565b6000602082019050818103600083015261132681611158565b9050919050565b600060208201905081810360008301526113468161117b565b9050919050565b600060208201905081810360008301526113668161119e565b9050919050565b60006020820190508181036000830152611386816111c1565b9050919050565b600060208201905081810360008301526113a6816111e4565b9050919050565b600060208201905081810360008301526113c681611207565b9050919050565b600060208201905081810360008301526113e68161122a565b9050919050565b6000602082019050611402600083018461124d565b92915050565b600082825260208201905092915050565b6000611424826116f7565b915061142f836116f7565b9250827fffffffffffffffffffffffffffffffffffffffffffffffffffffffffffffffff0382111561146457611463611766565b5b828201905092915050565b600061147a826116f7565b9150611485836116f7565b92508261149557611494611795565b5b828204905092915050565b6000808291508390505b60018511156114ea578086048111156114c6576114c5611766565b5b60018516156114d55780820291505b80810290506114e3856117c4565b94506114aa565b94509492505050565b60006114fe826116f7565b915061150983611711565b92506115367fffffffffffffffffffffffffffffffffffffffffffffffffffffffffffffffff848461153e565b905092915050565b60008261154e576001905061160a565b8161155c576000905061160a565b8160018114611572576002811461157c576115ab565b600191505061160a565b60ff84111561158e5761158d611766565b5b8360020a9150848211156115a5576115a4611766565b5b5061160a565b5060208310610133831016604e8410600b84101617156115e05782820a9050838111156115db576115da611766565b5b61160a565b6115ed84848460016114a0565b9250905081840481111561160457611603611766565b5b81810290505b9392505050565b600061161c826116f7565b9150611627836116f7565b9250817fffffffffffffffffffffffffffffffffffffffffffffffffffffffffffffffff04831182151516156116605761165f611766565b5b828202905092915050565b6000611676826116f7565b9150611681836116f7565b92508282101561169457611693611766565b5b828203905092915050565b60006116aa826116d7565b9050919050565b60008115159050919050565b60006dffffffffffffffffffffffffffff82169050919050565b600073ffffffffffffffffffffffffffffffffffffffff82169050919050565b6000819050919050565b600063ffffffff82169050919050565b600060ff82169050919050565b600061172982611730565b9050919050565b600061173b826116d7565b9050919050565b600061174d82611754565b9050919050565b600061175f826116d7565b9050919050565b7f4e487b7100000000000000000000000000000000000000000000000000000000600052601160045260246000fd5b7f4e487b7100000000000000000000000000000000000000000000000000000000600052601260045260246000fd5b60008160011c9050919050565b7f496e73756666696369656e742042616c616e636520696e20636f6e7472616374600082015250565b7f4f776e61626c653a206e6577206f776e657220697320746865207a65726f206160008201527f6464726573730000000000000000000000000000000000000000000000000000602082015250565b7f5573657220646f65736e2774206861766520656e746572656420616d6f756e74600082015250565b7f4f776e61626c653a2063616c6c6572206973206e6f7420746865206f776e6572600082015250565b7f416d6f756e742073686f756c6420626520475420300000000000000000000000600082015250565b7f43616c6c6572206973206e6f74206d616e616765720000000000000000000000600082015250565b7f616d6f756e742063616e6e6f7420626520300000000000000000000000000000600082015250565b61191f8161169f565b811461192a57600080fd5b50565b611936816116b1565b811461194157600080fd5b50565b61194d816116bd565b811461195857600080fd5b50565b611964816116f7565b811461196f57600080fd5b50565b61197b81611701565b811461198657600080fd5b50565b61199281611711565b811461199d57600080fd5b5056fea2646970667358221220c5045e9fcfff57fa2e180cb9616e0ffe253629296e1c9a326c58a20ec868713664736f6c63430008040033",
  "linkReferences": {},
  "deployedLinkReferences": {}
}