{
  "_format": "hh-sol-artifact-1",
  "contractName": "LpManager",
  "sourceName": "contracts/coreContracts/LpManager.sol",
  "abi": [
    {
      "inputs": [],
      "stateMutability": "nonpayable",
      "type": "constructor"
    },
    {
      "anonymous": false,
      "inputs": [
        {
          "indexed": true,
          "internalType": "address",
          "name": "lpAssetAddress",
          "type": "address"
        }
      ],
      "name": "LpAssetAdded",
      "type": "event"
    },
    {
      "anonymous": false,
      "inputs": [
        {
          "indexed": true,
          "internalType": "address",
          "name": "previousOwner",
          "type": "address"
        },
        {
          "indexed": true,
          "internalType": "address",
          "name": "newOwner",
          "type": "address"
        }
      ],
      "name": "OwnershipTransferred",
      "type": "event"
    },
    {
      "inputs": [
        {
          "internalType": "address",
          "name": "lpAssetContractAddress_",
          "type": "address"
        }
      ],
      "name": "addLpAssetManager",
      "outputs": [],
      "stateMutability": "nonpayable",
      "type": "function"
    },
    {
      "inputs": [
        {
          "internalType": "address",
          "name": "account_",
          "type": "address"
        }
      ],
      "name": "blacklistAddress",
      "outputs": [],
      "stateMutability": "nonpayable",
      "type": "function"
    },
    {
      "inputs": [],
      "name": "owner",
      "outputs": [
        {
          "internalType": "address",
          "name": "",
          "type": "address"
        }
      ],
      "stateMutability": "view",
      "type": "function"
    },
    {
      "inputs": [],
      "name": "renounceOwnership",
      "outputs": [],
      "stateMutability": "nonpayable",
      "type": "function"
    },
    {
      "inputs": [],
      "name": "totalInvestedAmounts",
      "outputs": [
        {
          "internalType": "uint256",
          "name": "",
          "type": "uint256"
        }
      ],
      "stateMutability": "view",
      "type": "function"
    },
    {
      "inputs": [],
      "name": "totalReserves",
      "outputs": [
        {
          "internalType": "uint256",
          "name": "",
          "type": "uint256"
        }
      ],
      "stateMutability": "view",
      "type": "function"
    },
    {
      "inputs": [
        {
          "internalType": "address",
          "name": "newOwner",
          "type": "address"
        }
      ],
      "name": "transferOwnership",
      "outputs": [],
      "stateMutability": "nonpayable",
      "type": "function"
    },
    {
      "inputs": [
        {
          "internalType": "address",
          "name": "account_",
          "type": "address"
        }
      ],
      "name": "whitelistAddress",
      "outputs": [],
      "stateMutability": "nonpayable",
      "type": "function"
    }
  ],
  "bytecode": "0x608060405234801561001057600080fd5b5061002d61002261003260201b60201c565b61003a60201b60201c565b6100fe565b600033905090565b60008060009054906101000a900473ffffffffffffffffffffffffffffffffffffffff169050816000806101000a81548173ffffffffffffffffffffffffffffffffffffffff021916908373ffffffffffffffffffffffffffffffffffffffff1602179055508173ffffffffffffffffffffffffffffffffffffffff168173ffffffffffffffffffffffffffffffffffffffff167f8be0079c531659141344cd1fd0a4f28419497f9722a3daafe3b4186f6b6457e060405160405180910390a35050565b610e498061010d6000396000f3fe608060405234801561001057600080fd5b50600436106100885760003560e01c80638f840ddd1161005b5780638f840ddd146100ed5780639fa199aa1461010b578063f2fde38b14610129578063f3290d751461014557610088565b8063415665851461008d57806369b4fbf0146100a9578063715018a6146100c55780638da5cb5b146100cf575b600080fd5b6100a760048036038101906100a29190610b38565b610161565b005b6100c360048036038101906100be9190610b38565b610269565b005b6100cd6103c8565b005b6100d7610450565b6040516100e49190610bee565b60405180910390f35b6100f5610479565b6040516101029190610c49565b60405180910390f35b610113610659565b6040516101209190610c49565b60405180910390f35b610143600480360381019061013e9190610b38565b610839565b005b61015f600480360381019061015a9190610b38565b610931565b005b610169610a42565b73ffffffffffffffffffffffffffffffffffffffff16610187610450565b73ffffffffffffffffffffffffffffffffffffffff16146101dd576040517f08c379a00000000000000000000000000000000000000000000000000000000081526004016101d490610c29565b60405180910390fd5b600073ffffffffffffffffffffffffffffffffffffffff168173ffffffffffffffffffffffffffffffffffffffff16141561021757600080fd5b600260008273ffffffffffffffffffffffffffffffffffffffff1673ffffffffffffffffffffffffffffffffffffffff16815260200190815260200160002060006101000a81549060ff021916905550565b610271610a42565b73ffffffffffffffffffffffffffffffffffffffff1661028f610450565b73ffffffffffffffffffffffffffffffffffffffff16146102e5576040517f08c379a00000000000000000000000000000000000000000000000000000000081526004016102dc90610c29565b60405180910390fd5b600073ffffffffffffffffffffffffffffffffffffffff168173ffffffffffffffffffffffffffffffffffffffff16141561031f57600080fd5b8073ffffffffffffffffffffffffffffffffffffffff167f839ba2ece8d70913cf7096c3345cbd431828b69c050f46f43393b332d660a63360405160405180910390a26001819080600181540180825580915050600190039060005260206000200160009091909190916101000a81548173ffffffffffffffffffffffffffffffffffffffff021916908373ffffffffffffffffffffffffffffffffffffffff16021790555050565b6103d0610a42565b73ffffffffffffffffffffffffffffffffffffffff166103ee610450565b73ffffffffffffffffffffffffffffffffffffffff1614610444576040517f08c379a000000000000000000000000000000000000000000000000000000000815260040161043b90610c29565b60405180910390fd5b61044e6000610a4a565b565b60008060009054906101000a900473ffffffffffffffffffffffffffffffffffffffff16905090565b6000806000905060005b6001805490508160ff161015610651576002600060018360ff16815481106104d4577f4e487b7100000000000000000000000000000000000000000000000000000000600052603260045260246000fd5b9060005260206000200160009054906101000a900473ffffffffffffffffffffffffffffffffffffffff1673ffffffffffffffffffffffffffffffffffffffff1673ffffffffffffffffffffffffffffffffffffffff16815260200190815260200160002060009054906101000a900460ff1661063e5760018160ff1681548110610588577f4e487b7100000000000000000000000000000000000000000000000000000000600052603260045260246000fd5b9060005260206000200160009054906101000a900473ffffffffffffffffffffffffffffffffffffffff1673ffffffffffffffffffffffffffffffffffffffff16638f840ddd6040518163ffffffff1660e01b815260040160206040518083038186803b1580156105f857600080fd5b505afa15801561060c573d6000803e3d6000fd5b505050506040513d601f19601f820116820180604052508101906106309190610b61565b8261063b9190610c75565b91505b808061064990610d14565b915050610483565b508091505090565b6000806000905060005b6001805490508160ff161015610831576002600060018360ff16815481106106b4577f4e487b7100000000000000000000000000000000000000000000000000000000600052603260045260246000fd5b9060005260206000200160009054906101000a900473ffffffffffffffffffffffffffffffffffffffff1673ffffffffffffffffffffffffffffffffffffffff1673ffffffffffffffffffffffffffffffffffffffff16815260200190815260200160002060009054906101000a900460ff1661081e5760018160ff1681548110610768577f4e487b7100000000000000000000000000000000000000000000000000000000600052603260045260246000fd5b9060005260206000200160009054906101000a900473ffffffffffffffffffffffffffffffffffffffff1673ffffffffffffffffffffffffffffffffffffffff1663432145216040518163ffffffff1660e01b815260040160206040518083038186803b1580156107d857600080fd5b505afa1580156107ec573d6000803e3d6000fd5b505050506040513d601f19601f820116820180604052508101906108109190610b61565b8261081b9190610c75565b91505b808061082990610d14565b915050610663565b508091505090565b610841610a42565b73ffffffffffffffffffffffffffffffffffffffff1661085f610450565b73ffffffffffffffffffffffffffffffffffffffff16146108b5576040517f08c379a00000000000000000000000000000000000000000000000000000000081526004016108ac90610c29565b60405180910390fd5b600073ffffffffffffffffffffffffffffffffffffffff168173ffffffffffffffffffffffffffffffffffffffff161415610925576040517f08c379a000000000000000000000000000000000000000000000000000000000815260040161091c90610c09565b60405180910390fd5b61092e81610a4a565b50565b610939610a42565b73ffffffffffffffffffffffffffffffffffffffff16610957610450565b73ffffffffffffffffffffffffffffffffffffffff16146109ad576040517f08c379a00000000000000000000000000000000000000000000000000000000081526004016109a490610c29565b60405180910390fd5b600073ffffffffffffffffffffffffffffffffffffffff168173ffffffffffffffffffffffffffffffffffffffff1614156109e757600080fd5b6001600260008373ffffffffffffffffffffffffffffffffffffffff1673ffffffffffffffffffffffffffffffffffffffff16815260200190815260200160002060006101000a81548160ff02191690831515021790555050565b600033905090565b60008060009054906101000a900473ffffffffffffffffffffffffffffffffffffffff169050816000806101000a81548173ffffffffffffffffffffffffffffffffffffffff021916908373ffffffffffffffffffffffffffffffffffffffff1602179055508173ffffffffffffffffffffffffffffffffffffffff168173ffffffffffffffffffffffffffffffffffffffff167f8be0079c531659141344cd1fd0a4f28419497f9722a3daafe3b4186f6b6457e060405160405180910390a35050565b600081359050610b1d81610de5565b92915050565b600081519050610b3281610dfc565b92915050565b600060208284031215610b4a57600080fd5b6000610b5884828501610b0e565b91505092915050565b600060208284031215610b7357600080fd5b6000610b8184828501610b23565b91505092915050565b610b9381610ccb565b82525050565b6000610ba6602683610c64565b9150610bb182610d6d565b604082019050919050565b6000610bc9602083610c64565b9150610bd482610dbc565b602082019050919050565b610be881610cfd565b82525050565b6000602082019050610c036000830184610b8a565b92915050565b60006020820190508181036000830152610c2281610b99565b9050919050565b60006020820190508181036000830152610c4281610bbc565b9050919050565b6000602082019050610c5e6000830184610bdf565b92915050565b600082825260208201905092915050565b6000610c8082610cfd565b9150610c8b83610cfd565b9250827fffffffffffffffffffffffffffffffffffffffffffffffffffffffffffffffff03821115610cc057610cbf610d3e565b5b828201905092915050565b6000610cd682610cdd565b9050919050565b600073ffffffffffffffffffffffffffffffffffffffff82169050919050565b6000819050919050565b600060ff82169050919050565b6000610d1f82610d07565b915060ff821415610d3357610d32610d3e565b5b600182019050919050565b7f4e487b7100000000000000000000000000000000000000000000000000000000600052601160045260246000fd5b7f4f776e61626c653a206e6577206f776e657220697320746865207a65726f206160008201527f6464726573730000000000000000000000000000000000000000000000000000602082015250565b7f4f776e61626c653a2063616c6c6572206973206e6f7420746865206f776e6572600082015250565b610dee81610ccb565b8114610df957600080fd5b50565b610e0581610cfd565b8114610e1057600080fd5b5056fea26469706673582212203163c246531cbd3db4e60f833933d03f907391aa1c57238ca0f037404768e6aa64736f6c63430008040033",
  "linkReferences": {},
  "deployedLinkReferences": {}
}