{
  "_format": "hh-sol-artifact-1",
  "contractName": "MIM",
  "sourceName": "contracts/mockStableCoin/MIM.sol",
  "abi": [
    {
      "inputs": [],
      "stateMutability": "nonpayable",
      "type": "constructor"
    },
    {
      "anonymous": false,
      "inputs": [
        {
          "indexed": true,
          "internalType": "address",
          "name": "owner",
          "type": "address"
        },
        {
          "indexed": true,
          "internalType": "address",
          "name": "spender",
          "type": "address"
        },
        {
          "indexed": false,
          "internalType": "uint256",
          "name": "value",
          "type": "uint256"
        }
      ],
      "name": "Approval",
      "type": "event"
    },
    {
      "anonymous": false,
      "inputs": [
        {
          "indexed": true,
          "internalType": "address",
          "name": "previousOwner",
          "type": "address"
        },
        {
          "indexed": true,
          "internalType": "address",
          "name": "newOwner",
          "type": "address"
        }
      ],
      "name": "OwnershipTransferred",
      "type": "event"
    },
    {
      "anonymous": false,
      "inputs": [
        {
          "indexed": true,
          "internalType": "address",
          "name": "from",
          "type": "address"
        },
        {
          "indexed": true,
          "internalType": "address",
          "name": "to",
          "type": "address"
        },
        {
          "indexed": false,
          "internalType": "uint256",
          "name": "value",
          "type": "uint256"
        }
      ],
      "name": "Transfer",
      "type": "event"
    },
    {
      "inputs": [
        {
          "internalType": "address",
          "name": "owner",
          "type": "address"
        },
        {
          "internalType": "address",
          "name": "spender",
          "type": "address"
        }
      ],
      "name": "allowance",
      "outputs": [
        {
          "internalType": "uint256",
          "name": "",
          "type": "uint256"
        }
      ],
      "stateMutability": "view",
      "type": "function"
    },
    {
      "inputs": [
        {
          "internalType": "address",
          "name": "spender",
          "type": "address"
        },
        {
          "internalType": "uint256",
          "name": "amount",
          "type": "uint256"
        }
      ],
      "name": "approve",
      "outputs": [
        {
          "internalType": "bool",
          "name": "",
          "type": "bool"
        }
      ],
      "stateMutability": "nonpayable",
      "type": "function"
    },
    {
      "inputs": [
        {
          "internalType": "address",
          "name": "account",
          "type": "address"
        }
      ],
      "name": "balanceOf",
      "outputs": [
        {
          "internalType": "uint256",
          "name": "",
          "type": "uint256"
        }
      ],
      "stateMutability": "view",
      "type": "function"
    },
    {
      "inputs": [],
      "name": "decimals",
      "outputs": [
        {
          "internalType": "uint8",
          "name": "",
          "type": "uint8"
        }
      ],
      "stateMutability": "view",
      "type": "function"
    },
    {
      "inputs": [
        {
          "internalType": "address",
          "name": "spender",
          "type": "address"
        },
        {
          "internalType": "uint256",
          "name": "subtractedValue",
          "type": "uint256"
        }
      ],
      "name": "decreaseAllowance",
      "outputs": [
        {
          "internalType": "bool",
          "name": "",
          "type": "bool"
        }
      ],
      "stateMutability": "nonpayable",
      "type": "function"
    },
    {
      "inputs": [
        {
          "internalType": "address",
          "name": "spender",
          "type": "address"
        },
        {
          "internalType": "uint256",
          "name": "addedValue",
          "type": "uint256"
        }
      ],
      "name": "increaseAllowance",
      "outputs": [
        {
          "internalType": "bool",
          "name": "",
          "type": "bool"
        }
      ],
      "stateMutability": "nonpayable",
      "type": "function"
    },
    {
      "inputs": [
        {
          "internalType": "address",
          "name": "account",
          "type": "address"
        },
        {
          "internalType": "uint256",
          "name": "amount",
          "type": "uint256"
        }
      ],
      "name": "mint",
      "outputs": [],
      "stateMutability": "nonpayable",
      "type": "function"
    },
    {
      "inputs": [],
      "name": "name",
      "outputs": [
        {
          "internalType": "string",
          "name": "",
          "type": "string"
        }
      ],
      "stateMutability": "view",
      "type": "function"
    },
    {
      "inputs": [],
      "name": "owner",
      "outputs": [
        {
          "internalType": "address",
          "name": "",
          "type": "address"
        }
      ],
      "stateMutability": "view",
      "type": "function"
    },
    {
      "inputs": [],
      "name": "renounceOwnership",
      "outputs": [],
      "stateMutability": "nonpayable",
      "type": "function"
    },
    {
      "inputs": [],
      "name": "symbol",
      "outputs": [
        {
          "internalType": "string",
          "name": "",
          "type": "string"
        }
      ],
      "stateMutability": "view",
      "type": "function"
    },
    {
      "inputs": [],
      "name": "totalSupply",
      "outputs": [
        {
          "internalType": "uint256",
          "name": "",
          "type": "uint256"
        }
      ],
      "stateMutability": "view",
      "type": "function"
    },
    {
      "inputs": [
        {
          "internalType": "address",
          "name": "to",
          "type": "address"
        },
        {
          "internalType": "uint256",
          "name": "amount",
          "type": "uint256"
        }
      ],
      "name": "transfer",
      "outputs": [
        {
          "internalType": "bool",
          "name": "",
          "type": "bool"
        }
      ],
      "stateMutability": "nonpayable",
      "type": "function"
    },
    {
      "inputs": [
        {
          "internalType": "address",
          "name": "from",
          "type": "address"
        },
        {
          "internalType": "address",
          "name": "to",
          "type": "address"
        },
        {
          "internalType": "uint256",
          "name": "amount",
          "type": "uint256"
        }
      ],
      "name": "transferFrom",
      "outputs": [
        {
          "internalType": "bool",
          "name": "",
          "type": "bool"
        }
      ],
      "stateMutability": "nonpayable",
      "type": "function"
    },
    {
      "inputs": [
        {
          "internalType": "address",
          "name": "newOwner",
          "type": "address"
        }
      ],
      "name": "transferOwnership",
      "outputs": [],
      "stateMutability": "nonpayable",
      "type": "function"
    }
  ],
  "bytecode": "0x60806040523480156200001157600080fd5b506040518060400160405280600381526020017f4d494d00000000000000000000000000000000000000000000000000000000008152506040518060400160405280600381526020017f4d494d00000000000000000000000000000000000000000000000000000000008152506200009e62000092620000d860201b60201c565b620000e060201b60201c565b8160049080519060200190620000b6929190620001a4565b508060059080519060200190620000cf929190620001a4565b505050620002b9565b600033905090565b60008060009054906101000a900473ffffffffffffffffffffffffffffffffffffffff169050816000806101000a81548173ffffffffffffffffffffffffffffffffffffffff021916908373ffffffffffffffffffffffffffffffffffffffff1602179055508173ffffffffffffffffffffffffffffffffffffffff168173ffffffffffffffffffffffffffffffffffffffff167f8be0079c531659141344cd1fd0a4f28419497f9722a3daafe3b4186f6b6457e060405160405180910390a35050565b828054620001b29062000254565b90600052602060002090601f016020900481019282620001d6576000855562000222565b82601f10620001f157805160ff191683800117855562000222565b8280016001018555821562000222579182015b828111156200022157825182559160200191906001019062000204565b5b50905062000231919062000235565b5090565b5b808211156200025057600081600090555060010162000236565b5090565b600060028204905060018216806200026d57607f821691505b602082108114156200028457620002836200028a565b5b50919050565b7f4e487b7100000000000000000000000000000000000000000000000000000000600052602260045260246000fd5b6119d580620002c96000396000f3fe608060405234801561001057600080fd5b50600436106100f55760003560e01c806370a0823111610097578063a457c2d711610066578063a457c2d714610276578063a9059cbb146102a6578063dd62ed3e146102d6578063f2fde38b14610306576100f5565b806370a0823114610200578063715018a6146102305780638da5cb5b1461023a57806395d89b4114610258576100f5565b806323b872dd116100d357806323b872dd14610166578063313ce5671461019657806339509351146101b457806340c10f19146101e4576100f5565b806306fdde03146100fa578063095ea7b31461011857806318160ddd14610148575b600080fd5b610102610322565b60405161010f919061139a565b60405180910390f35b610132600480360381019061012d9190611155565b6103b4565b60405161013f919061137f565b60405180910390f35b6101506103d7565b60405161015d91906114fc565b60405180910390f35b610180600480360381019061017b9190611106565b6103e1565b60405161018d919061137f565b60405180910390f35b61019e610410565b6040516101ab9190611517565b60405180910390f35b6101ce60048036038101906101c99190611155565b610419565b6040516101db919061137f565b60405180910390f35b6101fe60048036038101906101f99190611155565b6104c3565b005b61021a600480360381019061021591906110a1565b61054d565b60405161022791906114fc565b60405180910390f35b610238610596565b005b61024261061e565b60405161024f9190611364565b60405180910390f35b610260610647565b60405161026d919061139a565b60405180910390f35b610290600480360381019061028b9190611155565b6106d9565b60405161029d919061137f565b60405180910390f35b6102c060048036038101906102bb9190611155565b6107c3565b6040516102cd919061137f565b60405180910390f35b6102f060048036038101906102eb91906110ca565b6107e6565b6040516102fd91906114fc565b60405180910390f35b610320600480360381019061031b91906110a1565b61086d565b005b6060600480546103319061162c565b80601f016020809104026020016040519081016040528092919081815260200182805461035d9061162c565b80156103aa5780601f1061037f576101008083540402835291602001916103aa565b820191906000526020600020905b81548152906001019060200180831161038d57829003601f168201915b5050505050905090565b6000806103bf610965565b90506103cc81858561096d565b600191505092915050565b6000600354905090565b6000806103ec610965565b90506103f9858285610b38565b610404858585610bc4565b60019150509392505050565b60006012905090565b600080610424610965565b90506104b8818585600260008673ffffffffffffffffffffffffffffffffffffffff1673ffffffffffffffffffffffffffffffffffffffff16815260200190815260200160002060008973ffffffffffffffffffffffffffffffffffffffff1673ffffffffffffffffffffffffffffffffffffffff168152602001908152602001600020546104b3919061154e565b61096d565b600191505092915050565b6104cb610965565b73ffffffffffffffffffffffffffffffffffffffff166104e961061e565b73ffffffffffffffffffffffffffffffffffffffff161461053f576040517f08c379a00000000000000000000000000000000000000000000000000000000081526004016105369061145c565b60405180910390fd5b6105498282610e48565b5050565b6000600160008373ffffffffffffffffffffffffffffffffffffffff1673ffffffffffffffffffffffffffffffffffffffff168152602001908152602001600020549050919050565b61059e610965565b73ffffffffffffffffffffffffffffffffffffffff166105bc61061e565b73ffffffffffffffffffffffffffffffffffffffff1614610612576040517f08c379a00000000000000000000000000000000000000000000000000000000081526004016106099061145c565b60405180910390fd5b61061c6000610fa9565b565b60008060009054906101000a900473ffffffffffffffffffffffffffffffffffffffff16905090565b6060600580546106569061162c565b80601f01602080910402602001604051908101604052809291908181526020018280546106829061162c565b80156106cf5780601f106106a4576101008083540402835291602001916106cf565b820191906000526020600020905b8154815290600101906020018083116106b257829003601f168201915b5050505050905090565b6000806106e4610965565b90506000600260008373ffffffffffffffffffffffffffffffffffffffff1673ffffffffffffffffffffffffffffffffffffffff16815260200190815260200160002060008673ffffffffffffffffffffffffffffffffffffffff1673ffffffffffffffffffffffffffffffffffffffff168152602001908152602001600020549050838110156107aa576040517f08c379a00000000000000000000000000000000000000000000000000000000081526004016107a1906114bc565b60405180910390fd5b6107b7828686840361096d565b60019250505092915050565b6000806107ce610965565b90506107db818585610bc4565b600191505092915050565b6000600260008473ffffffffffffffffffffffffffffffffffffffff1673ffffffffffffffffffffffffffffffffffffffff16815260200190815260200160002060008373ffffffffffffffffffffffffffffffffffffffff1673ffffffffffffffffffffffffffffffffffffffff16815260200190815260200160002054905092915050565b610875610965565b73ffffffffffffffffffffffffffffffffffffffff1661089361061e565b73ffffffffffffffffffffffffffffffffffffffff16146108e9576040517f08c379a00000000000000000000000000000000000000000000000000000000081526004016108e09061145c565b60405180910390fd5b600073ffffffffffffffffffffffffffffffffffffffff168173ffffffffffffffffffffffffffffffffffffffff161415610959576040517f08c379a0000000000000000000000000000000000000000000000000000000008152600401610950906113dc565b60405180910390fd5b61096281610fa9565b50565b600033905090565b600073ffffffffffffffffffffffffffffffffffffffff168373ffffffffffffffffffffffffffffffffffffffff1614156109dd576040517f08c379a00000000000000000000000000000000000000000000000000000000081526004016109d49061149c565b60405180910390fd5b600073ffffffffffffffffffffffffffffffffffffffff168273ffffffffffffffffffffffffffffffffffffffff161415610a4d576040517f08c379a0000000000000000000000000000000000000000000000000000000008152600401610a44906113fc565b60405180910390fd5b80600260008573ffffffffffffffffffffffffffffffffffffffff1673ffffffffffffffffffffffffffffffffffffffff16815260200190815260200160002060008473ffffffffffffffffffffffffffffffffffffffff1673ffffffffffffffffffffffffffffffffffffffff168152602001908152602001600020819055508173ffffffffffffffffffffffffffffffffffffffff168373ffffffffffffffffffffffffffffffffffffffff167f8c5be1e5ebec7d5bd14f71427d1e84f3dd0314c0f7b2291e5b200ac8c7c3b92583604051610b2b91906114fc565b60405180910390a3505050565b6000610b4484846107e6565b90507fffffffffffffffffffffffffffffffffffffffffffffffffffffffffffffffff8114610bbe5781811015610bb0576040517f08c379a0000000000000000000000000000000000000000000000000000000008152600401610ba79061141c565b60405180910390fd5b610bbd848484840361096d565b5b50505050565b600073ffffffffffffffffffffffffffffffffffffffff168373ffffffffffffffffffffffffffffffffffffffff161415610c34576040517f08c379a0000000000000000000000000000000000000000000000000000000008152600401610c2b9061147c565b60405180910390fd5b600073ffffffffffffffffffffffffffffffffffffffff168273ffffffffffffffffffffffffffffffffffffffff161415610ca4576040517f08c379a0000000000000000000000000000000000000000000000000000000008152600401610c9b906113bc565b60405180910390fd5b610caf83838361106d565b6000600160008573ffffffffffffffffffffffffffffffffffffffff1673ffffffffffffffffffffffffffffffffffffffff16815260200190815260200160002054905081811015610d36576040517f08c379a0000000000000000000000000000000000000000000000000000000008152600401610d2d9061143c565b60405180910390fd5b818103600160008673ffffffffffffffffffffffffffffffffffffffff1673ffffffffffffffffffffffffffffffffffffffff1681526020019081526020016000208190555081600160008573ffffffffffffffffffffffffffffffffffffffff1673ffffffffffffffffffffffffffffffffffffffff1681526020019081526020016000206000828254610dcb919061154e565b925050819055508273ffffffffffffffffffffffffffffffffffffffff168473ffffffffffffffffffffffffffffffffffffffff167fddf252ad1be2c89b69c2b068fc378daa952ba7f163c4a11628f55a4df523b3ef84604051610e2f91906114fc565b60405180910390a3610e42848484611072565b50505050565b600073ffffffffffffffffffffffffffffffffffffffff168273ffffffffffffffffffffffffffffffffffffffff161415610eb8576040517f08c379a0000000000000000000000000000000000000000000000000000000008152600401610eaf906114dc565b60405180910390fd5b610ec46000838361106d565b8060036000828254610ed6919061154e565b9250508190555080600160008473ffffffffffffffffffffffffffffffffffffffff1673ffffffffffffffffffffffffffffffffffffffff1681526020019081526020016000206000828254610f2c919061154e565b925050819055508173ffffffffffffffffffffffffffffffffffffffff16600073ffffffffffffffffffffffffffffffffffffffff167fddf252ad1be2c89b69c2b068fc378daa952ba7f163c4a11628f55a4df523b3ef83604051610f9191906114fc565b60405180910390a3610fa560008383611072565b5050565b60008060009054906101000a900473ffffffffffffffffffffffffffffffffffffffff169050816000806101000a81548173ffffffffffffffffffffffffffffffffffffffff021916908373ffffffffffffffffffffffffffffffffffffffff1602179055508173ffffffffffffffffffffffffffffffffffffffff168173ffffffffffffffffffffffffffffffffffffffff167f8be0079c531659141344cd1fd0a4f28419497f9722a3daafe3b4186f6b6457e060405160405180910390a35050565b505050565b505050565b60008135905061108681611971565b92915050565b60008135905061109b81611988565b92915050565b6000602082840312156110b357600080fd5b60006110c184828501611077565b91505092915050565b600080604083850312156110dd57600080fd5b60006110eb85828601611077565b92505060206110fc85828601611077565b9150509250929050565b60008060006060848603121561111b57600080fd5b600061112986828701611077565b935050602061113a86828701611077565b925050604061114b8682870161108c565b9150509250925092565b6000806040838503121561116857600080fd5b600061117685828601611077565b92505060206111878582860161108c565b9150509250929050565b61119a816115a4565b82525050565b6111a9816115b6565b82525050565b60006111ba82611532565b6111c4818561153d565b93506111d48185602086016115f9565b6111dd816116bc565b840191505092915050565b60006111f560238361153d565b9150611200826116cd565b604082019050919050565b600061121860268361153d565b91506112238261171c565b604082019050919050565b600061123b60228361153d565b91506112468261176b565b604082019050919050565b600061125e601d8361153d565b9150611269826117ba565b602082019050919050565b600061128160268361153d565b915061128c826117e3565b604082019050919050565b60006112a460208361153d565b91506112af82611832565b602082019050919050565b60006112c760258361153d565b91506112d28261185b565b604082019050919050565b60006112ea60248361153d565b91506112f5826118aa565b604082019050919050565b600061130d60258361153d565b9150611318826118f9565b604082019050919050565b6000611330601f8361153d565b915061133b82611948565b602082019050919050565b61134f816115e2565b82525050565b61135e816115ec565b82525050565b60006020820190506113796000830184611191565b92915050565b600060208201905061139460008301846111a0565b92915050565b600060208201905081810360008301526113b481846111af565b905092915050565b600060208201905081810360008301526113d5816111e8565b9050919050565b600060208201905081810360008301526113f58161120b565b9050919050565b600060208201905081810360008301526114158161122e565b9050919050565b6000602082019050818103600083015261143581611251565b9050919050565b6000602082019050818103600083015261145581611274565b9050919050565b6000602082019050818103600083015261147581611297565b9050919050565b60006020820190508181036000830152611495816112ba565b9050919050565b600060208201905081810360008301526114b5816112dd565b9050919050565b600060208201905081810360008301526114d581611300565b9050919050565b600060208201905081810360008301526114f581611323565b9050919050565b60006020820190506115116000830184611346565b92915050565b600060208201905061152c6000830184611355565b92915050565b600081519050919050565b600082825260208201905092915050565b6000611559826115e2565b9150611564836115e2565b9250827fffffffffffffffffffffffffffffffffffffffffffffffffffffffffffffffff038211156115995761159861165e565b5b828201905092915050565b60006115af826115c2565b9050919050565b60008115159050919050565b600073ffffffffffffffffffffffffffffffffffffffff82169050919050565b6000819050919050565b600060ff82169050919050565b60005b838110156116175780820151818401526020810190506115fc565b83811115611626576000848401525b50505050565b6000600282049050600182168061164457607f821691505b602082108114156116585761165761168d565b5b50919050565b7f4e487b7100000000000000000000000000000000000000000000000000000000600052601160045260246000fd5b7f4e487b7100000000000000000000000000000000000000000000000000000000600052602260045260246000fd5b6000601f19601f8301169050919050565b7f45524332303a207472616e7366657220746f20746865207a65726f206164647260008201527f6573730000000000000000000000000000000000000000000000000000000000602082015250565b7f4f776e61626c653a206e6577206f776e657220697320746865207a65726f206160008201527f6464726573730000000000000000000000000000000000000000000000000000602082015250565b7f45524332303a20617070726f766520746f20746865207a65726f20616464726560008201527f7373000000000000000000000000000000000000000000000000000000000000602082015250565b7f45524332303a20696e73756666696369656e7420616c6c6f77616e6365000000600082015250565b7f45524332303a207472616e7366657220616d6f756e742065786365656473206260008201527f616c616e63650000000000000000000000000000000000000000000000000000602082015250565b7f4f776e61626c653a2063616c6c6572206973206e6f7420746865206f776e6572600082015250565b7f45524332303a207472616e736665722066726f6d20746865207a65726f20616460008201527f6472657373000000000000000000000000000000000000000000000000000000602082015250565b7f45524332303a20617070726f76652066726f6d20746865207a65726f2061646460008201527f7265737300000000000000000000000000000000000000000000000000000000602082015250565b7f45524332303a2064656372656173656420616c6c6f77616e63652062656c6f7760008201527f207a65726f000000000000000000000000000000000000000000000000000000602082015250565b7f45524332303a206d696e7420746f20746865207a65726f206164647265737300600082015250565b61197a816115a4565b811461198557600080fd5b50565b611991816115e2565b811461199c57600080fd5b5056fea26469706673582212202640a6c34b2d78e792cc9d41a4bfcc9acb3b5a8c3e4003144b47149ea51bd4df64736f6c63430008040033",
  "linkReferences": {},
  "deployedLinkReferences": {}
}