{
  "_format": "hh-sol-artifact-1",
  "contractName": "MIMFaucet",
  "sourceName": "contracts/MIMFaucet.sol",
  "abi": [
    {
      "inputs": [
        {
          "internalType": "address",
          "name": "mimAddress",
          "type": "address"
        }
      ],
      "stateMutability": "nonpayable",
      "type": "constructor"
    },
    {
      "inputs": [
        {
          "internalType": "address",
          "name": "to_",
          "type": "address"
        }
      ],
      "name": "faucet",
      "outputs": [],
      "stateMutability": "nonpayable",
      "type": "function"
    },
    {
      "inputs": [],
      "name": "mimContract",
      "outputs": [
        {
          "internalType": "contract IERC20",
          "name": "",
          "type": "address"
        }
      ],
      "stateMutability": "view",
      "type": "function"
    }
  ],
  "bytecode": "0x60a060405234801561001057600080fd5b5060405161040738038061040783398101604081905261002f91610057565b6001600160a01b03811661004257600080fd5b60601b6001600160601b031916608052610085565b600060208284031215610068578081fd5b81516001600160a01b038116811461007e578182fd5b9392505050565b60805160601c6103576100b06000396000818160550152818161012a015261023b01526103576000f3fe608060405234801561001057600080fd5b50600436106100365760003560e01c8063b86d1d631461003b578063ce03df2914610050575b600080fd5b61004e6100493660046102bb565b610093565b005b6100777f000000000000000000000000000000000000000000000000000000000000000081565b6040516001600160a01b03909116815260200160405180910390f35b6001600160a01b0381166100a657600080fd5b6001600160a01b038116600090815260208190526040902054670de0b6b3a7640000101561010a5760405162461bcd60e51b815260206004820152600c60248201526b5573657220686173204d494d60a01b60448201526064015b60405180910390fd5b6040516370a0823160e01b815230600482015268056bc75e2d63100000907f00000000000000000000000000000000000000000000000000000000000000006001600160a01b0316906370a082319060240160206040518083038186803b15801561017457600080fd5b505afa158015610188573d6000803e3d6000fd5b505050506040513d601f19601f820116820180604052508101906101ac9190610309565b101561020e5760405162461bcd60e51b815260206004820152602b60248201527f496e73756666696369656e74204d494d2062616c616e636520696e206661756360448201526a195d0818dbdb9d1c9858dd60aa1b6064820152608401610101565b60405163a9059cbb60e01b81526001600160a01b038281166004830152678ac7230489e8000060248301527f0000000000000000000000000000000000000000000000000000000000000000169063a9059cbb90604401602060405180830381600087803b15801561027f57600080fd5b505af1158015610293573d6000803e3d6000fd5b505050506040513d601f19601f820116820180604052508101906102b791906102e9565b5050565b6000602082840312156102cc578081fd5b81356001600160a01b03811681146102e2578182fd5b9392505050565b6000602082840312156102fa578081fd5b815180151581146102e2578182fd5b60006020828403121561031a578081fd5b505191905056fea26469706673582212207d65255850118a4634d8987699f7ebff6b975c6caa032b933edcc6f09907bbe164736f6c63430008040033",
  "linkReferences": {},
  "deployedLinkReferences": {}
}