{
  "_format": "hh-sol-artifact-1",
  "contractName": "MIMFaucet",
  "sourceName": "contracts/MIMFaucet.sol",
  "abi": [
    {
      "inputs": [
        {
          "internalType": "address",
          "name": "mimAddress",
          "type": "address"
        }
      ],
      "stateMutability": "nonpayable",
      "type": "constructor"
    },
    {
      "inputs": [
        {
          "internalType": "address",
          "name": "to_",
          "type": "address"
        }
      ],
      "name": "faucet",
      "outputs": [],
      "stateMutability": "nonpayable",
      "type": "function"
    },
    {
      "inputs": [],
      "name": "mimContract",
      "outputs": [
        {
          "internalType": "contract IERC20",
          "name": "",
          "type": "address"
        }
      ],
      "stateMutability": "view",
      "type": "function"
    }
  ],
  "bytecode": "0x60a060405234801561001057600080fd5b506040516107a53803806107a5833981810160405281019061003291906100be565b600073ffffffffffffffffffffffffffffffffffffffff168173ffffffffffffffffffffffffffffffffffffffff16141561006c57600080fd5b8073ffffffffffffffffffffffffffffffffffffffff1660808173ffffffffffffffffffffffffffffffffffffffff1660601b8152505050610130565b6000815190506100b881610119565b92915050565b6000602082840312156100d057600080fd5b60006100de848285016100a9565b91505092915050565b60006100f2826100f9565b9050919050565b600073ffffffffffffffffffffffffffffffffffffffff82169050919050565b610122816100e7565b811461012d57600080fd5b50565b60805160601c61064961015c6000396000818161013a0152818161022401526102d901526106496000f3fe608060405234801561001057600080fd5b50600436106100365760003560e01c8063b86d1d631461003b578063ce03df2914610057575b600080fd5b6100556004803603810190610050919061033a565b610075565b005b61005f6102d7565b60405161006c919061046c565b60405180910390f35b600073ffffffffffffffffffffffffffffffffffffffff168173ffffffffffffffffffffffffffffffffffffffff1614156100af57600080fd5b629896806000808373ffffffffffffffffffffffffffffffffffffffff1673ffffffffffffffffffffffffffffffffffffffff168152602001908152602001600020541115610133576040517f08c379a000000000000000000000000000000000000000000000000000000000815260040161012a90610487565b60405180910390fd5b6305f5e1007f000000000000000000000000000000000000000000000000000000000000000073ffffffffffffffffffffffffffffffffffffffff166370a08231306040518263ffffffff1660e01b81526004016101919190610428565b60206040518083038186803b1580156101a957600080fd5b505afa1580156101bd573d6000803e3d6000fd5b505050506040513d601f19601f820116820180604052508101906101e1919061038c565b1015610222576040517f08c379a0000000000000000000000000000000000000000000000000000000008152600401610219906104a7565b60405180910390fd5b7f000000000000000000000000000000000000000000000000000000000000000073ffffffffffffffffffffffffffffffffffffffff1663a9059cbb826305f5e1006040518363ffffffff1660e01b8152600401610281929190610443565b602060405180830381600087803b15801561029b57600080fd5b505af11580156102af573d6000803e3d6000fd5b505050506040513d601f19601f820116820180604052508101906102d39190610363565b5050565b7f000000000000000000000000000000000000000000000000000000000000000081565b60008135905061030a816105ce565b92915050565b60008151905061031f816105e5565b92915050565b600081519050610334816105fc565b92915050565b60006020828403121561034c57600080fd5b600061035a848285016102fb565b91505092915050565b60006020828403121561037557600080fd5b600061038384828501610310565b91505092915050565b60006020828403121561039e57600080fd5b60006103ac84828501610325565b91505092915050565b6103be816104d8565b82525050565b6103cd81610520565b82525050565b6103dc81610544565b82525050565b60006103ef6016836104c7565b91506103fa82610556565b602082019050919050565b6000610412602e836104c7565b915061041d8261057f565b604082019050919050565b600060208201905061043d60008301846103b5565b92915050565b600060408201905061045860008301856103b5565b61046560208301846103d3565b9392505050565b600060208201905061048160008301846103c4565b92915050565b600060208201905081810360008301526104a0816103e2565b9050919050565b600060208201905081810360008301526104c081610405565b9050919050565b600082825260208201905092915050565b60006104e3826104f6565b9050919050565b60008115159050919050565b600073ffffffffffffffffffffffffffffffffffffffff82169050919050565b6000819050919050565b600061052b82610532565b9050919050565b600061053d826104f6565b9050919050565b600061054f82610516565b9050919050565b7f55736572206861732066617563657420746f6b656e7300000000000000000000600082015250565b7f496e73756666696369656e7420746f6b656e732062616c616e636520696e206660008201527f617563657420636f6e7472616374000000000000000000000000000000000000602082015250565b6105d7816104d8565b81146105e257600080fd5b50565b6105ee816104ea565b81146105f957600080fd5b50565b61060581610516565b811461061057600080fd5b5056fea2646970667358221220f264fda4abcc11b8c3dbade94f33aaae3137187f7cfc0c898f833194d3b337aa64736f6c63430008040033",
  "linkReferences": {},
  "deployedLinkReferences": {}
}