{
  "_format": "hh-sol-artifact-1",
  "contractName": "NTT",
  "sourceName": "contracts/Launch/NTT.sol",
  "abi": [
    {
      "inputs": [],
      "stateMutability": "nonpayable",
      "type": "constructor"
    },
    {
      "anonymous": false,
      "inputs": [
        {
          "indexed": true,
          "internalType": "address",
          "name": "owner",
          "type": "address"
        },
        {
          "indexed": true,
          "internalType": "address",
          "name": "spender",
          "type": "address"
        },
        {
          "indexed": false,
          "internalType": "uint256",
          "name": "value",
          "type": "uint256"
        }
      ],
      "name": "Approval",
      "type": "event"
    },
    {
      "anonymous": false,
      "inputs": [
        {
          "indexed": true,
          "internalType": "address",
          "name": "previousOwner",
          "type": "address"
        },
        {
          "indexed": true,
          "internalType": "address",
          "name": "newOwner",
          "type": "address"
        }
      ],
      "name": "OwnershipTransferred",
      "type": "event"
    },
    {
      "anonymous": false,
      "inputs": [
        {
          "indexed": true,
          "internalType": "address",
          "name": "account",
          "type": "address"
        },
        {
          "indexed": false,
          "internalType": "uint256",
          "name": "amount",
          "type": "uint256"
        }
      ],
      "name": "Redeemed",
      "type": "event"
    },
    {
      "anonymous": false,
      "inputs": [
        {
          "indexed": false,
          "internalType": "bool",
          "name": "redeemableStatus",
          "type": "bool"
        }
      ],
      "name": "RedeemedStatus",
      "type": "event"
    },
    {
      "anonymous": false,
      "inputs": [
        {
          "indexed": true,
          "internalType": "address",
          "name": "from",
          "type": "address"
        },
        {
          "indexed": true,
          "internalType": "address",
          "name": "to",
          "type": "address"
        },
        {
          "indexed": false,
          "internalType": "uint256",
          "name": "value",
          "type": "uint256"
        }
      ],
      "name": "Transfer",
      "type": "event"
    },
    {
      "inputs": [
        {
          "internalType": "address",
          "name": "owner",
          "type": "address"
        },
        {
          "internalType": "address",
          "name": "spender",
          "type": "address"
        }
      ],
      "name": "allowance",
      "outputs": [
        {
          "internalType": "uint256",
          "name": "",
          "type": "uint256"
        }
      ],
      "stateMutability": "view",
      "type": "function"
    },
    {
      "inputs": [
        {
          "internalType": "address",
          "name": "spender",
          "type": "address"
        },
        {
          "internalType": "uint256",
          "name": "amount",
          "type": "uint256"
        }
      ],
      "name": "approve",
      "outputs": [
        {
          "internalType": "bool",
          "name": "",
          "type": "bool"
        }
      ],
      "stateMutability": "nonpayable",
      "type": "function"
    },
    {
      "inputs": [
        {
          "internalType": "address",
          "name": "account_",
          "type": "address"
        }
      ],
      "name": "approveAddressForTransfer",
      "outputs": [],
      "stateMutability": "nonpayable",
      "type": "function"
    },
    {
      "inputs": [
        {
          "internalType": "address",
          "name": "account",
          "type": "address"
        }
      ],
      "name": "balanceOf",
      "outputs": [
        {
          "internalType": "uint256",
          "name": "",
          "type": "uint256"
        }
      ],
      "stateMutability": "view",
      "type": "function"
    },
    {
      "inputs": [
        {
          "internalType": "uint256",
          "name": "amount_",
          "type": "uint256"
        }
      ],
      "name": "burn",
      "outputs": [],
      "stateMutability": "nonpayable",
      "type": "function"
    },
    {
      "inputs": [],
      "name": "decimals",
      "outputs": [
        {
          "internalType": "uint8",
          "name": "",
          "type": "uint8"
        }
      ],
      "stateMutability": "view",
      "type": "function"
    },
    {
      "inputs": [
        {
          "internalType": "address",
          "name": "spender",
          "type": "address"
        },
        {
          "internalType": "uint256",
          "name": "subtractedValue",
          "type": "uint256"
        }
      ],
      "name": "decreaseAllowance",
      "outputs": [
        {
          "internalType": "bool",
          "name": "",
          "type": "bool"
        }
      ],
      "stateMutability": "nonpayable",
      "type": "function"
    },
    {
      "inputs": [
        {
          "internalType": "address",
          "name": "spender",
          "type": "address"
        },
        {
          "internalType": "uint256",
          "name": "addedValue",
          "type": "uint256"
        }
      ],
      "name": "increaseAllowance",
      "outputs": [
        {
          "internalType": "bool",
          "name": "",
          "type": "bool"
        }
      ],
      "stateMutability": "nonpayable",
      "type": "function"
    },
    {
      "inputs": [
        {
          "internalType": "address",
          "name": "account",
          "type": "address"
        },
        {
          "internalType": "uint256",
          "name": "amount",
          "type": "uint256"
        }
      ],
      "name": "mint",
      "outputs": [],
      "stateMutability": "nonpayable",
      "type": "function"
    },
    {
      "inputs": [],
      "name": "name",
      "outputs": [
        {
          "internalType": "string",
          "name": "",
          "type": "string"
        }
      ],
      "stateMutability": "view",
      "type": "function"
    },
    {
      "inputs": [],
      "name": "owner",
      "outputs": [
        {
          "internalType": "address",
          "name": "",
          "type": "address"
        }
      ],
      "stateMutability": "view",
      "type": "function"
    },
    {
      "inputs": [
        {
          "internalType": "uint256",
          "name": "amount_",
          "type": "uint256"
        }
      ],
      "name": "redeemORFI",
      "outputs": [],
      "stateMutability": "nonpayable",
      "type": "function"
    },
    {
      "inputs": [],
      "name": "redeemable",
      "outputs": [
        {
          "internalType": "bool",
          "name": "",
          "type": "bool"
        }
      ],
      "stateMutability": "view",
      "type": "function"
    },
    {
      "inputs": [
        {
          "internalType": "address",
          "name": "account_",
          "type": "address"
        }
      ],
      "name": "removeAddressForTransfer",
      "outputs": [],
      "stateMutability": "nonpayable",
      "type": "function"
    },
    {
      "inputs": [],
      "name": "renounceOwnership",
      "outputs": [],
      "stateMutability": "nonpayable",
      "type": "function"
    },
    {
      "inputs": [
        {
          "internalType": "address",
          "name": "orfiAddress_",
          "type": "address"
        }
      ],
      "name": "setOrfiAddress",
      "outputs": [],
      "stateMutability": "nonpayable",
      "type": "function"
    },
    {
      "inputs": [],
      "name": "symbol",
      "outputs": [
        {
          "internalType": "string",
          "name": "",
          "type": "string"
        }
      ],
      "stateMutability": "view",
      "type": "function"
    },
    {
      "inputs": [],
      "name": "toggleRedeemFlag",
      "outputs": [],
      "stateMutability": "nonpayable",
      "type": "function"
    },
    {
      "inputs": [],
      "name": "totalNTTMinted",
      "outputs": [
        {
          "internalType": "uint256",
          "name": "",
          "type": "uint256"
        }
      ],
      "stateMutability": "view",
      "type": "function"
    },
    {
      "inputs": [],
      "name": "totalNTTSupply",
      "outputs": [
        {
          "internalType": "uint256",
          "name": "",
          "type": "uint256"
        }
      ],
      "stateMutability": "view",
      "type": "function"
    },
    {
      "inputs": [],
      "name": "totalSupply",
      "outputs": [
        {
          "internalType": "uint256",
          "name": "",
          "type": "uint256"
        }
      ],
      "stateMutability": "view",
      "type": "function"
    },
    {
      "inputs": [
        {
          "internalType": "address",
          "name": "to",
          "type": "address"
        },
        {
          "internalType": "uint256",
          "name": "amount",
          "type": "uint256"
        }
      ],
      "name": "transfer",
      "outputs": [
        {
          "internalType": "bool",
          "name": "",
          "type": "bool"
        }
      ],
      "stateMutability": "nonpayable",
      "type": "function"
    },
    {
      "inputs": [
        {
          "internalType": "address",
          "name": "",
          "type": "address"
        }
      ],
      "name": "transferApprovedAddress",
      "outputs": [
        {
          "internalType": "bool",
          "name": "",
          "type": "bool"
        }
      ],
      "stateMutability": "view",
      "type": "function"
    },
    {
      "inputs": [
        {
          "internalType": "address",
          "name": "from",
          "type": "address"
        },
        {
          "internalType": "address",
          "name": "to",
          "type": "address"
        },
        {
          "internalType": "uint256",
          "name": "amount",
          "type": "uint256"
        }
      ],
      "name": "transferFrom",
      "outputs": [
        {
          "internalType": "bool",
          "name": "",
          "type": "bool"
        }
      ],
      "stateMutability": "nonpayable",
      "type": "function"
    },
    {
      "inputs": [
        {
          "internalType": "address",
          "name": "newOwner",
          "type": "address"
        }
      ],
      "name": "transferOwnership",
      "outputs": [],
      "stateMutability": "nonpayable",
      "type": "function"
    }
  ],
  "bytecode": "0x60806040523480156200001157600080fd5b506040518060400160405280600a81526020017f4f7261636c65204e5454000000000000000000000000000000000000000000008152506040518060400160405280600581526020017f6e4f5246490000000000000000000000000000000000000000000000000000008152506200009e620000926200016560201b60201c565b6200016d60201b60201c565b8160049080519060200190620000b692919062000231565b508060059080519060200190620000cf92919062000231565b5050506000600660006101000a81548160ff0219169083151502179055506001600860003373ffffffffffffffffffffffffffffffffffffffff1673ffffffffffffffffffffffffffffffffffffffff16815260200190815260200160002060006101000a81548160ff0219169083151502179055506a0422ca8b0a00a4250000006009819055506000600a8190555062000346565b600033905090565b60008060009054906101000a900473ffffffffffffffffffffffffffffffffffffffff169050816000806101000a81548173ffffffffffffffffffffffffffffffffffffffff021916908373ffffffffffffffffffffffffffffffffffffffff1602179055508173ffffffffffffffffffffffffffffffffffffffff168173ffffffffffffffffffffffffffffffffffffffff167f8be0079c531659141344cd1fd0a4f28419497f9722a3daafe3b4186f6b6457e060405160405180910390a35050565b8280546200023f90620002e1565b90600052602060002090601f016020900481019282620002635760008555620002af565b82601f106200027e57805160ff1916838001178555620002af565b82800160010185558215620002af579182015b82811115620002ae57825182559160200191906001019062000291565b5b509050620002be9190620002c2565b5090565b5b80821115620002dd576000816000905550600101620002c3565b5090565b60006002820490506001821680620002fa57607f821691505b6020821081141562000311576200031062000317565b5b50919050565b7f4e487b7100000000000000000000000000000000000000000000000000000000600052602260045260246000fd5b61273780620003566000396000f3fe608060405234801561001057600080fd5b50600436106101735760003560e01c806370a08231116100de5780639751383c11610097578063b9a4b67b11610071578063b9a4b67b1461043c578063bab2858f14610458578063dd62ed3e14610474578063f2fde38b146104a457610173565b80639751383c146103c0578063a457c2d7146103dc578063a9059cbb1461040c57610173565b806370a0823114610310578063715018a61461034057806382f0e1101461034a57806388820db8146103545780638da5cb5b1461038457806395d89b41146103a257610173565b8063313ce56711610130578063313ce56714610250578063395093511461026e57806340c10f191461029e57806342966c68146102ba5780635dade9ce146102d657806364aa4724146102f457610173565b806306fdde0314610178578063095ea7b31461019657806318160ddd146101c657806323b872dd146101e4578063270e43f1146102145780632d7ecd1114610232575b600080fd5b6101806104c0565b60405161018d9190611ed2565b60405180910390f35b6101b060048036038101906101ab9190611b63565b610552565b6040516101bd9190611eb7565b60405180910390f35b6101ce610575565b6040516101db91906120d4565b60405180910390f35b6101fe60048036038101906101f99190611b14565b61057f565b60405161020b9190611eb7565b60405180910390f35b61021c6105ae565b60405161022991906120d4565b60405180910390f35b61023a6105b4565b6040516102479190611eb7565b60405180910390f35b6102586105c7565b60405161026591906120ef565b60405180910390f35b61028860048036038101906102839190611b63565b6105d0565b6040516102959190611eb7565b60405180910390f35b6102b860048036038101906102b39190611b63565b61067a565b005b6102d460048036038101906102cf9190611bc8565b61076f565b005b6102de61077c565b6040516102eb91906120d4565b60405180910390f35b61030e60048036038101906103099190611bc8565b610782565b005b61032a60048036038101906103259190611aaf565b6108f5565b60405161033791906120d4565b60405180910390f35b61034861093e565b005b6103526109c6565b005b61036e60048036038101906103699190611aaf565b610ab4565b60405161037b9190611eb7565b60405180910390f35b61038c610ad4565b6040516103999190611e73565b60405180910390f35b6103aa610afd565b6040516103b79190611ed2565b60405180910390f35b6103da60048036038101906103d59190611aaf565b610b8f565b005b6103f660048036038101906103f19190611b63565b610c66565b6040516104039190611eb7565b60405180910390f35b61042660048036038101906104219190611b63565b610d50565b6040516104339190611eb7565b60405180910390f35b61045660048036038101906104519190611aaf565b610d73565b005b610472600480360381019061046d9190611aaf565b610e4a565b005b61048e60048036038101906104899190611ad8565b610f0a565b60405161049b91906120d4565b60405180910390f35b6104be60048036038101906104b99190611aaf565b610f91565b005b6060600480546104cf90612238565b80601f01602080910402602001604051908101604052809291908181526020018280546104fb90612238565b80156105485780601f1061051d57610100808354040283529160200191610548565b820191906000526020600020905b81548152906001019060200180831161052b57829003601f168201915b5050505050905090565b60008061055d611089565b905061056a818585611091565b600191505092915050565b6000600354905090565b60008061058a611089565b905061059785828561125c565b6105a28585856112e8565b60019150509392505050565b60095481565b600660009054906101000a900460ff1681565b60006012905090565b6000806105db611089565b905061066f818585600260008673ffffffffffffffffffffffffffffffffffffffff1673ffffffffffffffffffffffffffffffffffffffff16815260200190815260200160002060008973ffffffffffffffffffffffffffffffffffffffff1673ffffffffffffffffffffffffffffffffffffffff1681526020019081526020016000205461066a9190612126565b611091565b600191505092915050565b610682611089565b73ffffffffffffffffffffffffffffffffffffffff166106a0610ad4565b73ffffffffffffffffffffffffffffffffffffffff16146106f6576040517f08c379a00000000000000000000000000000000000000000000000000000000081526004016106ed90611fd4565b60405180910390fd5b60095481600a546107079190612126565b1115610748576040517f08c379a000000000000000000000000000000000000000000000000000000000815260040161073f90612074565b60405180910390fd5b80600a600082825461075a9190612126565b9250508190555061076b828261156c565b5050565b61077933826116cd565b50565b600a5481565b600660009054906101000a900460ff166107d1576040517f08c379a00000000000000000000000000000000000000000000000000000000081526004016107c890611f94565b60405180910390fd5b6107db33826116cd565b80600760008282546107ed9190612126565b92505081905550600660019054906101000a900473ffffffffffffffffffffffffffffffffffffffff1673ffffffffffffffffffffffffffffffffffffffff1663a9059cbb33836040518363ffffffff1660e01b8152600401610851929190611e8e565b602060405180830381600087803b15801561086b57600080fd5b505af115801561087f573d6000803e3d6000fd5b505050506040513d601f19601f820116820180604052508101906108a39190611b9f565b503373ffffffffffffffffffffffffffffffffffffffff167f4896181ff8f4543cc00db9fe9b6fb7e6f032b7eb772c72ab1ec1b4d2e03b9369826040516108ea91906120d4565b60405180910390a250565b6000600160008373ffffffffffffffffffffffffffffffffffffffff1673ffffffffffffffffffffffffffffffffffffffff168152602001908152602001600020549050919050565b610946611089565b73ffffffffffffffffffffffffffffffffffffffff16610964610ad4565b73ffffffffffffffffffffffffffffffffffffffff16146109ba576040517f08c379a00000000000000000000000000000000000000000000000000000000081526004016109b190611fd4565b60405180910390fd5b6109c460006118a6565b565b6109ce611089565b73ffffffffffffffffffffffffffffffffffffffff166109ec610ad4565b73ffffffffffffffffffffffffffffffffffffffff1614610a42576040517f08c379a0000000000000000000000000000000000000000000000000000000008152600401610a3990611fd4565b60405180910390fd5b600660009054906101000a900460ff1615600660006101000a81548160ff0219169083151502179055507f9fbb1b3e30c9f82432c5340967186949474974b31c976512014740a98eb28091600660009054906101000a900460ff16604051610aaa9190611eb7565b60405180910390a1565b60086020528060005260406000206000915054906101000a900460ff1681565b60008060009054906101000a900473ffffffffffffffffffffffffffffffffffffffff16905090565b606060058054610b0c90612238565b80601f0160208091040260200160405190810160405280929190818152602001828054610b3890612238565b8015610b855780601f10610b5a57610100808354040283529160200191610b85565b820191906000526020600020905b815481529060010190602001808311610b6857829003601f168201915b5050505050905090565b610b97611089565b73ffffffffffffffffffffffffffffffffffffffff16610bb5610ad4565b73ffffffffffffffffffffffffffffffffffffffff1614610c0b576040517f08c379a0000000000000000000000000000000000000000000000000000000008152600401610c0290611fd4565b60405180910390fd5b6001600860008373ffffffffffffffffffffffffffffffffffffffff1673ffffffffffffffffffffffffffffffffffffffff16815260200190815260200160002060006101000a81548160ff02191690831515021790555050565b600080610c71611089565b90506000600260008373ffffffffffffffffffffffffffffffffffffffff1673ffffffffffffffffffffffffffffffffffffffff16815260200190815260200160002060008673ffffffffffffffffffffffffffffffffffffffff1673ffffffffffffffffffffffffffffffffffffffff16815260200190815260200160002054905083811015610d37576040517f08c379a0000000000000000000000000000000000000000000000000000000008152600401610d2e90612094565b60405180910390fd5b610d448286868403611091565b60019250505092915050565b600080610d5b611089565b9050610d688185856112e8565b600191505092915050565b610d7b611089565b73ffffffffffffffffffffffffffffffffffffffff16610d99610ad4565b73ffffffffffffffffffffffffffffffffffffffff1614610def576040517f08c379a0000000000000000000000000000000000000000000000000000000008152600401610de690611fd4565b60405180910390fd5b6000600860008373ffffffffffffffffffffffffffffffffffffffff1673ffffffffffffffffffffffffffffffffffffffff16815260200190815260200160002060006101000a81548160ff02191690831515021790555050565b610e52611089565b73ffffffffffffffffffffffffffffffffffffffff16610e70610ad4565b73ffffffffffffffffffffffffffffffffffffffff1614610ec6576040517f08c379a0000000000000000000000000000000000000000000000000000000008152600401610ebd90611fd4565b60405180910390fd5b80600660016101000a81548173ffffffffffffffffffffffffffffffffffffffff021916908373ffffffffffffffffffffffffffffffffffffffff16021790555050565b6000600260008473ffffffffffffffffffffffffffffffffffffffff1673ffffffffffffffffffffffffffffffffffffffff16815260200190815260200160002060008373ffffffffffffffffffffffffffffffffffffffff1673ffffffffffffffffffffffffffffffffffffffff16815260200190815260200160002054905092915050565b610f99611089565b73ffffffffffffffffffffffffffffffffffffffff16610fb7610ad4565b73ffffffffffffffffffffffffffffffffffffffff161461100d576040517f08c379a000000000000000000000000000000000000000000000000000000000815260040161100490611fd4565b60405180910390fd5b600073ffffffffffffffffffffffffffffffffffffffff168173ffffffffffffffffffffffffffffffffffffffff16141561107d576040517f08c379a000000000000000000000000000000000000000000000000000000000815260040161107490611f34565b60405180910390fd5b611086816118a6565b50565b600033905090565b600073ffffffffffffffffffffffffffffffffffffffff168373ffffffffffffffffffffffffffffffffffffffff161415611101576040517f08c379a00000000000000000000000000000000000000000000000000000000081526004016110f890612054565b60405180910390fd5b600073ffffffffffffffffffffffffffffffffffffffff168273ffffffffffffffffffffffffffffffffffffffff161415611171576040517f08c379a000000000000000000000000000000000000000000000000000000000815260040161116890611f54565b60405180910390fd5b80600260008573ffffffffffffffffffffffffffffffffffffffff1673ffffffffffffffffffffffffffffffffffffffff16815260200190815260200160002060008473ffffffffffffffffffffffffffffffffffffffff1673ffffffffffffffffffffffffffffffffffffffff168152602001908152602001600020819055508173ffffffffffffffffffffffffffffffffffffffff168373ffffffffffffffffffffffffffffffffffffffff167f8c5be1e5ebec7d5bd14f71427d1e84f3dd0314c0f7b2291e5b200ac8c7c3b9258360405161124f91906120d4565b60405180910390a3505050565b60006112688484610f0a565b90507fffffffffffffffffffffffffffffffffffffffffffffffffffffffffffffffff81146112e257818110156112d4576040517f08c379a00000000000000000000000000000000000000000000000000000000081526004016112cb90611f74565b60405180910390fd5b6112e18484848403611091565b5b50505050565b600073ffffffffffffffffffffffffffffffffffffffff168373ffffffffffffffffffffffffffffffffffffffff161415611358576040517f08c379a000000000000000000000000000000000000000000000000000000000815260040161134f90612034565b60405180910390fd5b600073ffffffffffffffffffffffffffffffffffffffff168273ffffffffffffffffffffffffffffffffffffffff1614156113c8576040517f08c379a00000000000000000000000000000000000000000000000000000000081526004016113bf90611ef4565b60405180910390fd5b6113d383838361196a565b6000600160008573ffffffffffffffffffffffffffffffffffffffff1673ffffffffffffffffffffffffffffffffffffffff1681526020019081526020016000205490508181101561145a576040517f08c379a000000000000000000000000000000000000000000000000000000000815260040161145190611fb4565b60405180910390fd5b818103600160008673ffffffffffffffffffffffffffffffffffffffff1673ffffffffffffffffffffffffffffffffffffffff1681526020019081526020016000208190555081600160008573ffffffffffffffffffffffffffffffffffffffff1673ffffffffffffffffffffffffffffffffffffffff16815260200190815260200160002060008282546114ef9190612126565b925050819055508273ffffffffffffffffffffffffffffffffffffffff168473ffffffffffffffffffffffffffffffffffffffff167fddf252ad1be2c89b69c2b068fc378daa952ba7f163c4a11628f55a4df523b3ef8460405161155391906120d4565b60405180910390a3611566848484611a6b565b50505050565b600073ffffffffffffffffffffffffffffffffffffffff168273ffffffffffffffffffffffffffffffffffffffff1614156115dc576040517f08c379a00000000000000000000000000000000000000000000000000000000081526004016115d3906120b4565b60405180910390fd5b6115e86000838361196a565b80600360008282546115fa9190612126565b9250508190555080600160008473ffffffffffffffffffffffffffffffffffffffff1673ffffffffffffffffffffffffffffffffffffffff16815260200190815260200160002060008282546116509190612126565b925050819055508173ffffffffffffffffffffffffffffffffffffffff16600073ffffffffffffffffffffffffffffffffffffffff167fddf252ad1be2c89b69c2b068fc378daa952ba7f163c4a11628f55a4df523b3ef836040516116b591906120d4565b60405180910390a36116c960008383611a6b565b5050565b600073ffffffffffffffffffffffffffffffffffffffff168273ffffffffffffffffffffffffffffffffffffffff16141561173d576040517f08c379a000000000000000000000000000000000000000000000000000000000815260040161173490612014565b60405180910390fd5b6117498260008361196a565b6000600160008473ffffffffffffffffffffffffffffffffffffffff1673ffffffffffffffffffffffffffffffffffffffff168152602001908152602001600020549050818110156117d0576040517f08c379a00000000000000000000000000000000000000000000000000000000081526004016117c790611f14565b60405180910390fd5b818103600160008573ffffffffffffffffffffffffffffffffffffffff1673ffffffffffffffffffffffffffffffffffffffff168152602001908152602001600020819055508160036000828254611828919061217c565b92505081905550600073ffffffffffffffffffffffffffffffffffffffff168373ffffffffffffffffffffffffffffffffffffffff167fddf252ad1be2c89b69c2b068fc378daa952ba7f163c4a11628f55a4df523b3ef8460405161188d91906120d4565b60405180910390a36118a183600084611a6b565b505050565b60008060009054906101000a900473ffffffffffffffffffffffffffffffffffffffff169050816000806101000a81548173ffffffffffffffffffffffffffffffffffffffff021916908373ffffffffffffffffffffffffffffffffffffffff1602179055508173ffffffffffffffffffffffffffffffffffffffff168173ffffffffffffffffffffffffffffffffffffffff167f8be0079c531659141344cd1fd0a4f28419497f9722a3daafe3b4186f6b6457e060405160405180910390a35050565b600073ffffffffffffffffffffffffffffffffffffffff168373ffffffffffffffffffffffffffffffffffffffff16141580156119d45750600073ffffffffffffffffffffffffffffffffffffffff168273ffffffffffffffffffffffffffffffffffffffff1614155b15611a6657600860008473ffffffffffffffffffffffffffffffffffffffff1673ffffffffffffffffffffffffffffffffffffffff16815260200190815260200160002060009054906101000a900460ff16611a65576040517f08c379a0000000000000000000000000000000000000000000000000000000008152600401611a5c90611ff4565b60405180910390fd5b5b505050565b505050565b600081359050611a7f816126bc565b92915050565b600081519050611a94816126d3565b92915050565b600081359050611aa9816126ea565b92915050565b600060208284031215611ac157600080fd5b6000611acf84828501611a70565b91505092915050565b60008060408385031215611aeb57600080fd5b6000611af985828601611a70565b9250506020611b0a85828601611a70565b9150509250929050565b600080600060608486031215611b2957600080fd5b6000611b3786828701611a70565b9350506020611b4886828701611a70565b9250506040611b5986828701611a9a565b9150509250925092565b60008060408385031215611b7657600080fd5b6000611b8485828601611a70565b9250506020611b9585828601611a9a565b9150509250929050565b600060208284031215611bb157600080fd5b6000611bbf84828501611a85565b91505092915050565b600060208284031215611bda57600080fd5b6000611be884828501611a9a565b91505092915050565b611bfa816121b0565b82525050565b611c09816121c2565b82525050565b6000611c1a8261210a565b611c248185612115565b9350611c34818560208601612205565b611c3d816122c8565b840191505092915050565b6000611c55602383612115565b9150611c60826122d9565b604082019050919050565b6000611c78602283612115565b9150611c8382612328565b604082019050919050565b6000611c9b602683612115565b9150611ca682612377565b604082019050919050565b6000611cbe602283612115565b9150611cc9826123c6565b604082019050919050565b6000611ce1601d83612115565b9150611cec82612415565b602082019050919050565b6000611d04601583612115565b9150611d0f8261243e565b602082019050919050565b6000611d27602683612115565b9150611d3282612467565b604082019050919050565b6000611d4a602083612115565b9150611d55826124b6565b602082019050919050565b6000611d6d601e83612115565b9150611d78826124df565b602082019050919050565b6000611d90602183612115565b9150611d9b82612508565b604082019050919050565b6000611db3602583612115565b9150611dbe82612557565b604082019050919050565b6000611dd6602483612115565b9150611de1826125a6565b604082019050919050565b6000611df9602583612115565b9150611e04826125f5565b604082019050919050565b6000611e1c602583612115565b9150611e2782612644565b604082019050919050565b6000611e3f601f83612115565b9150611e4a82612693565b602082019050919050565b611e5e816121ee565b82525050565b611e6d816121f8565b82525050565b6000602082019050611e886000830184611bf1565b92915050565b6000604082019050611ea36000830185611bf1565b611eb06020830184611e55565b9392505050565b6000602082019050611ecc6000830184611c00565b92915050565b60006020820190508181036000830152611eec8184611c0f565b905092915050565b60006020820190508181036000830152611f0d81611c48565b9050919050565b60006020820190508181036000830152611f2d81611c6b565b9050919050565b60006020820190508181036000830152611f4d81611c8e565b9050919050565b60006020820190508181036000830152611f6d81611cb1565b9050919050565b60006020820190508181036000830152611f8d81611cd4565b9050919050565b60006020820190508181036000830152611fad81611cf7565b9050919050565b60006020820190508181036000830152611fcd81611d1a565b9050919050565b60006020820190508181036000830152611fed81611d3d565b9050919050565b6000602082019050818103600083015261200d81611d60565b9050919050565b6000602082019050818103600083015261202d81611d83565b9050919050565b6000602082019050818103600083015261204d81611da6565b9050919050565b6000602082019050818103600083015261206d81611dc9565b9050919050565b6000602082019050818103600083015261208d81611dec565b9050919050565b600060208201905081810360008301526120ad81611e0f565b9050919050565b600060208201905081810360008301526120cd81611e32565b9050919050565b60006020820190506120e96000830184611e55565b92915050565b60006020820190506121046000830184611e64565b92915050565b600081519050919050565b600082825260208201905092915050565b6000612131826121ee565b915061213c836121ee565b9250827fffffffffffffffffffffffffffffffffffffffffffffffffffffffffffffffff038211156121715761217061226a565b5b828201905092915050565b6000612187826121ee565b9150612192836121ee565b9250828210156121a5576121a461226a565b5b828203905092915050565b60006121bb826121ce565b9050919050565b60008115159050919050565b600073ffffffffffffffffffffffffffffffffffffffff82169050919050565b6000819050919050565b600060ff82169050919050565b60005b83811015612223578082015181840152602081019050612208565b83811115612232576000848401525b50505050565b6000600282049050600182168061225057607f821691505b6020821081141561226457612263612299565b5b50919050565b7f4e487b7100000000000000000000000000000000000000000000000000000000600052601160045260246000fd5b7f4e487b7100000000000000000000000000000000000000000000000000000000600052602260045260246000fd5b6000601f19601f8301169050919050565b7f45524332303a207472616e7366657220746f20746865207a65726f206164647260008201527f6573730000000000000000000000000000000000000000000000000000000000602082015250565b7f45524332303a206275726e20616d6f756e7420657863656564732062616c616e60008201527f6365000000000000000000000000000000000000000000000000000000000000602082015250565b7f4f776e61626c653a206e6577206f776e657220697320746865207a65726f206160008201527f6464726573730000000000000000000000000000000000000000000000000000602082015250565b7f45524332303a20617070726f766520746f20746865207a65726f20616464726560008201527f7373000000000000000000000000000000000000000000000000000000000000602082015250565b7f45524332303a20696e73756666696369656e7420616c6c6f77616e6365000000600082015250565b7f52656465656d206973206e6f7420616c6c6f7765640000000000000000000000600082015250565b7f45524332303a207472616e7366657220616d6f756e742065786365656473206260008201527f616c616e63650000000000000000000000000000000000000000000000000000602082015250565b7f4f776e61626c653a2063616c6c6572206973206e6f7420746865206f776e6572600082015250565b7f5472616e73666572206e6f7420616c6c6f7765642062792063616c6c65720000600082015250565b7f45524332303a206275726e2066726f6d20746865207a65726f2061646472657360008201527f7300000000000000000000000000000000000000000000000000000000000000602082015250565b7f45524332303a207472616e736665722066726f6d20746865207a65726f20616460008201527f6472657373000000000000000000000000000000000000000000000000000000602082015250565b7f45524332303a20617070726f76652066726f6d20746865207a65726f2061646460008201527f7265737300000000000000000000000000000000000000000000000000000000602082015250565b7f546f74616c20737570706c792077696c6c206578706563746564204e5454207360008201527f7570706c79000000000000000000000000000000000000000000000000000000602082015250565b7f45524332303a2064656372656173656420616c6c6f77616e63652062656c6f7760008201527f207a65726f000000000000000000000000000000000000000000000000000000602082015250565b7f45524332303a206d696e7420746f20746865207a65726f206164647265737300600082015250565b6126c5816121b0565b81146126d057600080fd5b50565b6126dc816121c2565b81146126e757600080fd5b50565b6126f3816121ee565b81146126fe57600080fd5b5056fea2646970667358221220d43de9bb8929b918f9fb72239b22e02d622bb52990d85de664263253d9b3603d64736f6c63430008040033",
  "linkReferences": {},
  "deployedLinkReferences": {}
}