{
  "_format": "hh-sol-artifact-1",
  "contractName": "ORFI",
  "sourceName": "contracts/coreContracts/ORFI.sol",
  "abi": [
    {
      "inputs": [
        {
          "internalType": "address",
          "name": "_mim",
          "type": "address"
        }
      ],
      "stateMutability": "nonpayable",
      "type": "constructor"
    },
    {
      "anonymous": false,
      "inputs": [
        {
          "indexed": true,
          "internalType": "address",
          "name": "owner",
          "type": "address"
        },
        {
          "indexed": true,
          "internalType": "address",
          "name": "spender",
          "type": "address"
        },
        {
          "indexed": false,
          "internalType": "uint256",
          "name": "value",
          "type": "uint256"
        }
      ],
      "name": "Approval",
      "type": "event"
    },
    {
      "anonymous": false,
      "inputs": [
        {
          "indexed": true,
          "internalType": "address",
          "name": "previousOwner",
          "type": "address"
        },
        {
          "indexed": true,
          "internalType": "address",
          "name": "newOwner",
          "type": "address"
        }
      ],
      "name": "OwnershipTransferred",
      "type": "event"
    },
    {
      "anonymous": false,
      "inputs": [
        {
          "indexed": true,
          "internalType": "address",
          "name": "from",
          "type": "address"
        },
        {
          "indexed": true,
          "internalType": "address",
          "name": "to",
          "type": "address"
        },
        {
          "indexed": false,
          "internalType": "uint256",
          "name": "value",
          "type": "uint256"
        }
      ],
      "name": "Transfer",
      "type": "event"
    },
    {
      "anonymous": false,
      "inputs": [
        {
          "indexed": true,
          "internalType": "address",
          "name": "newVault",
          "type": "address"
        }
      ],
      "name": "VaultTransferred",
      "type": "event"
    },
    {
      "inputs": [
        {
          "internalType": "address",
          "name": "lpAddress",
          "type": "address"
        }
      ],
      "name": "addLpContractAddress",
      "outputs": [],
      "stateMutability": "nonpayable",
      "type": "function"
    },
    {
      "inputs": [
        {
          "internalType": "address",
          "name": "_add",
          "type": "address"
        }
      ],
      "name": "addTaxExempt",
      "outputs": [],
      "stateMutability": "nonpayable",
      "type": "function"
    },
    {
      "inputs": [
        {
          "internalType": "address",
          "name": "owner",
          "type": "address"
        },
        {
          "internalType": "address",
          "name": "spender",
          "type": "address"
        }
      ],
      "name": "allowance",
      "outputs": [
        {
          "internalType": "uint256",
          "name": "",
          "type": "uint256"
        }
      ],
      "stateMutability": "view",
      "type": "function"
    },
    {
      "inputs": [
        {
          "internalType": "address",
          "name": "spender",
          "type": "address"
        },
        {
          "internalType": "uint256",
          "name": "amount",
          "type": "uint256"
        }
      ],
      "name": "approve",
      "outputs": [
        {
          "internalType": "bool",
          "name": "",
          "type": "bool"
        }
      ],
      "stateMutability": "nonpayable",
      "type": "function"
    },
    {
      "inputs": [
        {
          "internalType": "address",
          "name": "account",
          "type": "address"
        }
      ],
      "name": "balanceOf",
      "outputs": [
        {
          "internalType": "uint256",
          "name": "",
          "type": "uint256"
        }
      ],
      "stateMutability": "view",
      "type": "function"
    },
    {
      "inputs": [],
      "name": "baseSellTax",
      "outputs": [
        {
          "internalType": "uint256",
          "name": "",
          "type": "uint256"
        }
      ],
      "stateMutability": "view",
      "type": "function"
    },
    {
      "inputs": [
        {
          "internalType": "address",
          "name": "account_",
          "type": "address"
        },
        {
          "internalType": "uint256",
          "name": "amount_",
          "type": "uint256"
        }
      ],
      "name": "burnFrom",
      "outputs": [],
      "stateMutability": "nonpayable",
      "type": "function"
    },
    {
      "inputs": [],
      "name": "decimals",
      "outputs": [
        {
          "internalType": "uint8",
          "name": "",
          "type": "uint8"
        }
      ],
      "stateMutability": "view",
      "type": "function"
    },
    {
      "inputs": [
        {
          "internalType": "address",
          "name": "spender",
          "type": "address"
        },
        {
          "internalType": "uint256",
          "name": "subtractedValue",
          "type": "uint256"
        }
      ],
      "name": "decreaseAllowance",
      "outputs": [
        {
          "internalType": "bool",
          "name": "",
          "type": "bool"
        }
      ],
      "stateMutability": "nonpayable",
      "type": "function"
    },
    {
      "inputs": [
        {
          "internalType": "uint256",
          "name": "amount",
          "type": "uint256"
        }
      ],
      "name": "getCurrentSellTax",
      "outputs": [
        {
          "internalType": "uint256",
          "name": "",
          "type": "uint256"
        }
      ],
      "stateMutability": "view",
      "type": "function"
    },
    {
      "inputs": [
        {
          "internalType": "address",
          "name": "spender",
          "type": "address"
        },
        {
          "internalType": "uint256",
          "name": "addedValue",
          "type": "uint256"
        }
      ],
      "name": "increaseAllowance",
      "outputs": [
        {
          "internalType": "bool",
          "name": "",
          "type": "bool"
        }
      ],
      "stateMutability": "nonpayable",
      "type": "function"
    },
    {
      "inputs": [
        {
          "internalType": "address",
          "name": "account",
          "type": "address"
        },
        {
          "internalType": "uint256",
          "name": "amount",
          "type": "uint256"
        }
      ],
      "name": "mint",
      "outputs": [],
      "stateMutability": "nonpayable",
      "type": "function"
    },
    {
      "inputs": [],
      "name": "multiplier",
      "outputs": [
        {
          "internalType": "uint256",
          "name": "",
          "type": "uint256"
        }
      ],
      "stateMutability": "view",
      "type": "function"
    },
    {
      "inputs": [],
      "name": "name",
      "outputs": [
        {
          "internalType": "string",
          "name": "",
          "type": "string"
        }
      ],
      "stateMutability": "view",
      "type": "function"
    },
    {
      "inputs": [],
      "name": "owner",
      "outputs": [
        {
          "internalType": "address",
          "name": "",
          "type": "address"
        }
      ],
      "stateMutability": "view",
      "type": "function"
    },
    {
      "inputs": [],
      "name": "pair",
      "outputs": [
        {
          "internalType": "address",
          "name": "",
          "type": "address"
        }
      ],
      "stateMutability": "view",
      "type": "function"
    },
    {
      "inputs": [
        {
          "internalType": "address",
          "name": "_add",
          "type": "address"
        }
      ],
      "name": "removeTaxExempt",
      "outputs": [],
      "stateMutability": "nonpayable",
      "type": "function"
    },
    {
      "inputs": [],
      "name": "renounceOwnership",
      "outputs": [],
      "stateMutability": "nonpayable",
      "type": "function"
    },
    {
      "inputs": [],
      "name": "routerAddress",
      "outputs": [
        {
          "internalType": "address",
          "name": "",
          "type": "address"
        }
      ],
      "stateMutability": "view",
      "type": "function"
    },
    {
      "inputs": [
        {
          "internalType": "uint256",
          "name": "_baseSellTax",
          "type": "uint256"
        }
      ],
      "name": "setBaseSellTax",
      "outputs": [],
      "stateMutability": "nonpayable",
      "type": "function"
    },
    {
      "inputs": [
        {
          "internalType": "uint256",
          "name": "_multiplier",
          "type": "uint256"
        }
      ],
      "name": "setMultiplier",
      "outputs": [],
      "stateMutability": "nonpayable",
      "type": "function"
    },
    {
      "inputs": [
        {
          "internalType": "address",
          "name": "_router",
          "type": "address"
        }
      ],
      "name": "setRouter",
      "outputs": [],
      "stateMutability": "nonpayable",
      "type": "function"
    },
    {
      "inputs": [
        {
          "internalType": "uint256",
          "name": "_transferTax",
          "type": "uint256"
        }
      ],
      "name": "setTransferTax",
      "outputs": [],
      "stateMutability": "nonpayable",
      "type": "function"
    },
    {
      "inputs": [
        {
          "internalType": "address",
          "name": "vault_",
          "type": "address"
        }
      ],
      "name": "setVault",
      "outputs": [],
      "stateMutability": "nonpayable",
      "type": "function"
    },
    {
      "inputs": [],
      "name": "symbol",
      "outputs": [
        {
          "internalType": "string",
          "name": "",
          "type": "string"
        }
      ],
      "stateMutability": "view",
      "type": "function"
    },
    {
      "inputs": [],
      "name": "totalSupply",
      "outputs": [
        {
          "internalType": "uint256",
          "name": "",
          "type": "uint256"
        }
      ],
      "stateMutability": "view",
      "type": "function"
    },
    {
      "inputs": [
        {
          "internalType": "address",
          "name": "to",
          "type": "address"
        },
        {
          "internalType": "uint256",
          "name": "amount",
          "type": "uint256"
        }
      ],
      "name": "transfer",
      "outputs": [
        {
          "internalType": "bool",
          "name": "",
          "type": "bool"
        }
      ],
      "stateMutability": "nonpayable",
      "type": "function"
    },
    {
      "inputs": [
        {
          "internalType": "address",
          "name": "from",
          "type": "address"
        },
        {
          "internalType": "address",
          "name": "to",
          "type": "address"
        },
        {
          "internalType": "uint256",
          "name": "amount",
          "type": "uint256"
        }
      ],
      "name": "transferFrom",
      "outputs": [
        {
          "internalType": "bool",
          "name": "",
          "type": "bool"
        }
      ],
      "stateMutability": "nonpayable",
      "type": "function"
    },
    {
      "inputs": [
        {
          "internalType": "address",
          "name": "newOwner",
          "type": "address"
        }
      ],
      "name": "transferOwnership",
      "outputs": [],
      "stateMutability": "nonpayable",
      "type": "function"
    },
    {
      "inputs": [],
      "name": "transferTax",
      "outputs": [
        {
          "internalType": "uint256",
          "name": "",
          "type": "uint256"
        }
      ],
      "stateMutability": "view",
      "type": "function"
    },
    {
      "inputs": [],
      "name": "vault",
      "outputs": [
        {
          "internalType": "address",
          "name": "",
          "type": "address"
        }
      ],
      "stateMutability": "view",
      "type": "function"
    }
  ],
  "bytecode": "0x60806040523480156200001157600080fd5b506040516200199738038062001997833981016040819052620000349162000310565b6200003f336200021a565b604080518082019091526006808252654f7261636c6560d01b60209092019182526200006e916005916200026a565b50604080518082019091526004808252634f52464960e01b60209092019182526200009c916006916200026a565b506012600a556005600b819055600c556040805163c45a015560e01b8152905173a5e0829caced8ffdd4de3c43696c57f7d7a678ff91829163c45a015591600480820192602092909190829003018186803b158015620000fb57600080fd5b505afa15801562000110573d6000803e3d6000fd5b505050506040513d601f19601f8201168201806040525081019062000136919062000310565b6040516364e329cb60e11b81526001600160a01b038481166004830152306024830152919091169063c9c6539690604401602060405180830381600087803b1580156200018257600080fd5b505af115801562000197573d6000803e3d6000fd5b505050506040513d601f19601f82011682018060405250810190620001bd919062000310565b600980546001600160a01b0319166001600160a01b039290921691821790556000908152600760209081526040808320805460ff1990811660019081179092553385526008909352922080549091169091179055506200037d9050565b600080546001600160a01b038381166001600160a01b0319831681178455604051919092169283917f8be0079c531659141344cd1fd0a4f28419497f9722a3daafe3b4186f6b6457e09190a35050565b828054620002789062000340565b90600052602060002090601f0160209004810192826200029c5760008555620002e7565b82601f10620002b757805160ff1916838001178555620002e7565b82800160010185558215620002e7579182015b82811115620002e7578251825591602001919060010190620002ca565b50620002f5929150620002f9565b5090565b5b80821115620002f55760008155600101620002fa565b60006020828403121562000322578081fd5b81516001600160a01b038116811462000339578182fd5b9392505050565b600181811c908216806200035557607f821691505b602082108114156200037757634e487b7160e01b600052602260045260246000fd5b50919050565b61160a806200038d6000396000f3fe608060405234801561001057600080fd5b50600436106101e55760003560e01c806379cc67901161010f578063a8aa1b31116100a2578063da8da65511610071578063da8da655146103fb578063dd62ed3e1461040e578063f2fde38b14610421578063fbfa77cf1461043457600080fd5b8063a8aa1b31146103af578063a9059cbb146103c2578063c0d78655146103d5578063cd43c751146103e857600080fd5b806395d89b41116100de57806395d89b411461036e5780639ff0ebc914610376578063a3ffb19814610389578063a457c2d71461039c57600080fd5b806379cc67901461032e5780638124f7ac146103415780638b5259031461034a5780638da5cb5b1461035d57600080fd5b8063395093511161018757806366e670fe1161015657806366e670fe146102d75780636817031b146102ea57806370a08231146102fd578063715018a61461032657600080fd5b8063395093511461029357806340c10f19146102a65780635b683e66146102bb578063641579a6146102c457600080fd5b80631b3ed722116101c35780631b3ed7221461023d57806323b872dd14610246578063313ce567146102595780633268cc561461026857600080fd5b806306fdde03146101ea578063095ea7b31461020857806318160ddd1461022b575b600080fd5b6101f2610445565b6040516101ff919061146d565b60405180910390f35b61021b61021636600461142c565b6104d7565b60405190151581526020016101ff565b6004545b6040519081526020016101ff565b61022f600b5481565b61021b6102543660046113f1565b6104ef565b604051601281526020016101ff565b600d5461027b906001600160a01b031681565b6040516001600160a01b0390911681526020016101ff565b61021b6102a136600461142c565b610515565b6102b96102b436600461142c565b610554565b005b61022f600a5481565b6102b96102d2366004611455565b6105cd565b6102b96102e53660046113a5565b610643565b6102b96102f83660046113a5565b6106d9565b61022f61030b3660046113a5565b6001600160a01b031660009081526002602052604090205490565b6102b9610789565b6102b961033c36600461142c565b6107bf565b61022f600c5481565b6102b9610358366004611455565b6107c9565b6000546001600160a01b031661027b565b6101f2610840565b6102b96103843660046113a5565b61084f565b6102b9610397366004611455565b6108e2565b61021b6103aa36600461142c565b61095b565b60095461027b906001600160a01b031681565b61021b6103d036600461142c565b6109f8565b6102b96103e33660046113a5565b610a06565b61022f6103f6366004611455565b610a52565b6102b96104093660046113a5565b610ae5565b61022f61041c3660046113bf565b610b7e565b6102b961042f3660046113a5565b610ba9565b6001546001600160a01b031661027b565b60606005805461045490611563565b80601f016020809104026020016040519081016040528092919081815260200182805461048090611563565b80156104cd5780601f106104a2576101008083540402835291602001916104cd565b820191906000526020600020905b8154815290600101906020018083116104b057829003601f168201915b5050505050905090565b6000336104e5818585610c44565b5060019392505050565b6000336104fd858285610d68565b610508858585610de2565b60019150505b9392505050565b3360008181526003602090815260408083206001600160a01b03871684529091528120549091906104e5908290869061054f9087906114f5565b610c44565b6001546001600160a01b031633146105bf5760405162461bcd60e51b815260206004820152602360248201527f5661756c744f776e65643a2063616c6c6572206973206e6f74207468652056616044820152621d5b1d60ea1b60648201526084015b60405180910390fd5b6105c98282610fbe565b5050565b6000546001600160a01b031633146105f75760405162461bcd60e51b81526004016105b6906114c0565b600f81111561063e5760405162461bcd60e51b815260206004820152601360248201527209aead8e8d2a0d8d2cae440a8dede4090d2ced606b1b60448201526064016105b6565b600b55565b6000546001600160a01b0316331461066d5760405162461bcd60e51b81526004016105b6906114c0565b6001600160a01b0381166106b55760405162461bcd60e51b815260206004820152600f60248201526e61646472657373206973207a65726f60881b60448201526064016105b6565b6001600160a01b03166000908152600860205260409020805460ff19166001179055565b6000546001600160a01b031633146107035760405162461bcd60e51b81526004016105b6906114c0565b6001600160a01b03811661073f5760405162461bcd60e51b815260206004820152600360248201526204941360ec1b60448201526064016105b6565b600180546001600160a01b0319166001600160a01b0383169081179091556040517f3811c8bde9c524fca0e85a90109ab6e776e4f6e675fa7b219c7973abeacb6b2790600090a250565b6000546001600160a01b031633146107b35760405162461bcd60e51b81526004016105b6906114c0565b6107bd600061108b565b565b6105c982826110db565b6000546001600160a01b031633146107f35760405162461bcd60e51b81526004016105b6906114c0565b600a81111561083b5760405162461bcd60e51b81526020600482015260146024820152730a8c2dce6cccae440a8c2f040a8dede4090d2ced60631b60448201526064016105b6565b600c55565b60606006805461045490611563565b6000546001600160a01b031633146108795760405162461bcd60e51b81526004016105b6906114c0565b6001600160a01b0381166108c15760405162461bcd60e51b815260206004820152600f60248201526e61646472657373206973207a65726f60881b60448201526064016105b6565b6001600160a01b03166000908152600860205260409020805460ff19169055565b6000546001600160a01b0316331461090c5760405162461bcd60e51b81526004016105b6906114c0565b601e8111156109565760405162461bcd60e51b8152602060048201526016602482015275084c2e6ca40a6cad8d840a8c2f040a8dede4090d2ced60531b60448201526064016105b6565b600a55565b3360008181526003602090815260408083206001600160a01b0387168452909152812054909190838110156109e05760405162461bcd60e51b815260206004820152602560248201527f45524332303a2064656372656173656420616c6c6f77616e63652062656c6f77604482015264207a65726f60d81b60648201526084016105b6565b6109ed8286868403610c44565b506001949350505050565b6000336104e5818585610de2565b6000546001600160a01b03163314610a305760405162461bcd60e51b81526004016105b6906114c0565b600d80546001600160a01b0319166001600160a01b0392909216919091179055565b60008068056bc75e2d631000008311610a6e5750600a54610adf565b683635c9adc5dea000008311610a9557600b54600a54610a8e91906114f5565b9050610adf565b69021e19e0c9bab24000008311610ac157600b54610ab490600261152d565b600a54610a8e91906114f5565b600b54610acf90600361152d565b600a54610adc91906114f5565b90505b92915050565b6000546001600160a01b03163314610b0f5760405162461bcd60e51b81526004016105b6906114c0565b6001600160a01b038116610b5a5760405162461bcd60e51b81526020600482015260126024820152716c702061646472657373206973207a65726f60701b60448201526064016105b6565b6001600160a01b03166000908152600760205260409020805460ff19166001179055565b6001600160a01b03918216600090815260036020908152604080832093909416825291909152205490565b6000546001600160a01b03163314610bd35760405162461bcd60e51b81526004016105b6906114c0565b6001600160a01b038116610c385760405162461bcd60e51b815260206004820152602660248201527f4f776e61626c653a206e6577206f776e657220697320746865207a65726f206160448201526564647265737360d01b60648201526084016105b6565b610c418161108b565b50565b6001600160a01b038316610ca65760405162461bcd60e51b8152602060048201526024808201527f45524332303a20617070726f76652066726f6d20746865207a65726f206164646044820152637265737360e01b60648201526084016105b6565b6001600160a01b038216610d075760405162461bcd60e51b815260206004820152602260248201527f45524332303a20617070726f766520746f20746865207a65726f206164647265604482015261737360f01b60648201526084016105b6565b6001600160a01b0383811660008181526003602090815260408083209487168084529482529182902085905590518481527f8c5be1e5ebec7d5bd14f71427d1e84f3dd0314c0f7b2291e5b200ac8c7c3b925910160405180910390a3505050565b6000610d748484610b7e565b90506000198114610ddc5781811015610dcf5760405162461bcd60e51b815260206004820152601d60248201527f45524332303a20696e73756666696369656e7420616c6c6f77616e636500000060448201526064016105b6565b610ddc8484848403610c44565b50505050565b6001600160a01b038316610e465760405162461bcd60e51b815260206004820152602560248201527f45524332303a207472616e736665722066726f6d20746865207a65726f206164604482015264647265737360d81b60648201526084016105b6565b6001600160a01b038216610ea85760405162461bcd60e51b815260206004820152602360248201527f45524332303a207472616e7366657220746f20746865207a65726f206164647260448201526265737360e81b60648201526084016105b6565b6001600160a01b03831660009081526002602052604090205481811015610f205760405162461bcd60e51b815260206004820152602660248201527f45524332303a207472616e7366657220616d6f756e7420657863656564732062604482015265616c616e636560d01b60648201526084016105b6565b6001600160a01b03841660009081526002602052604081208383039055610f4885858561110d565b6001600160a01b038516600090815260026020526040812080549293508392909190610f759084906114f5565b92505081905550836001600160a01b0316856001600160a01b03166000805160206115b583398151915283604051610faf91815260200190565b60405180910390a35050505050565b6001600160a01b0382166110145760405162461bcd60e51b815260206004820152601f60248201527f45524332303a206d696e7420746f20746865207a65726f20616464726573730060448201526064016105b6565b806004600082825461102691906114f5565b90915550506001600160a01b038216600090815260026020526040812080548392906110539084906114f5565b90915550506040518181526001600160a01b038316906000906000805160206115b58339815191529060200160405180910390a35050565b600080546001600160a01b038381166001600160a01b0319831681178455604051919092169283917f8be0079c531659141344cd1fd0a4f28419497f9722a3daafe3b4186f6b6457e09190a35050565b60006110f1826110eb8533610b7e565b90611229565b90506110fe833383610c44565b6111088383611235565b505050565b6001600160a01b03831660009081526008602052604081205460ff168061114c57506001600160a01b03831660009081526008602052604090205460ff165b1561115857508061050e565b6001600160a01b03831660009081526007602052604081205460ff16156111895761118283610a52565b905061118e565b50600c545b8061119c578291505061050e565b60006111b360646111ad8685611371565b9061137d565b306000908152600260205260408120805492935083929091906111d79084906114f5565b909155506111e790503082611235565b60405181815230906001600160a01b038816906000805160206115b58339815191529060200160405180910390a361121f8482611229565b9695505050505050565b6000610adc828461154c565b6001600160a01b0382166112955760405162461bcd60e51b815260206004820152602160248201527f45524332303a206275726e2066726f6d20746865207a65726f206164647265736044820152607360f81b60648201526084016105b6565b6001600160a01b038216600090815260026020526040902054818110156113095760405162461bcd60e51b815260206004820152602260248201527f45524332303a206275726e20616d6f756e7420657863656564732062616c616e604482015261636560f01b60648201526084016105b6565b6001600160a01b038316600090815260026020526040812083830390556004805484929061133890849061154c565b90915550506040518281526000906001600160a01b038516906000805160206115b58339815191529060200160405180910390a3505050565b6000610adc828461152d565b6000610adc828461150d565b80356001600160a01b03811681146113a057600080fd5b919050565b6000602082840312156113b6578081fd5b610adc82611389565b600080604083850312156113d1578081fd5b6113da83611389565b91506113e860208401611389565b90509250929050565b600080600060608486031215611405578081fd5b61140e84611389565b925061141c60208501611389565b9150604084013590509250925092565b6000806040838503121561143e578182fd5b61144783611389565b946020939093013593505050565b600060208284031215611466578081fd5b5035919050565b6000602080835283518082850152825b818110156114995785810183015185820160400152820161147d565b818111156114aa5783604083870101525b50601f01601f1916929092016040019392505050565b6020808252818101527f4f776e61626c653a2063616c6c6572206973206e6f7420746865206f776e6572604082015260600190565b600082198211156115085761150861159e565b500190565b60008261152857634e487b7160e01b81526012600452602481fd5b500490565b60008160001904831182151516156115475761154761159e565b500290565b60008282101561155e5761155e61159e565b500390565b600181811c9082168061157757607f821691505b6020821081141561159857634e487b7160e01b600052602260045260246000fd5b50919050565b634e487b7160e01b600052601160045260246000fdfeddf252ad1be2c89b69c2b068fc378daa952ba7f163c4a11628f55a4df523b3efa2646970667358221220698581cc2badf3ecb457e983b273a0abce47c4416094ce59fd7fd0d0a7d45e7c64736f6c63430008040033",
  "linkReferences": {},
  "deployedLinkReferences": {}
}