{
  "_format": "hh-sol-artifact-1",
  "contractName": "CHRF",
  "sourceName": "contracts/coreContracts/CHRF.sol",
  "abi": [
    {
      "inputs": [],
      "stateMutability": "nonpayable",
      "type": "constructor"
    },
    {
      "anonymous": false,
      "inputs": [
        {
          "indexed": true,
          "internalType": "address",
          "name": "owner",
          "type": "address"
        },
        {
          "indexed": true,
          "internalType": "address",
          "name": "spender",
          "type": "address"
        },
        {
          "indexed": false,
          "internalType": "uint256",
          "name": "value",
          "type": "uint256"
        }
      ],
      "name": "Approval",
      "type": "event"
    },
    {
      "anonymous": false,
      "inputs": [
        {
          "indexed": true,
          "internalType": "address",
          "name": "previousOwner",
          "type": "address"
        },
        {
          "indexed": true,
          "internalType": "address",
          "name": "newOwner",
          "type": "address"
        }
      ],
      "name": "OwnershipTransferred",
      "type": "event"
    },
    {
      "anonymous": false,
      "inputs": [
        {
          "indexed": true,
          "internalType": "address",
          "name": "from",
          "type": "address"
        },
        {
          "indexed": true,
          "internalType": "address",
          "name": "to",
          "type": "address"
        },
        {
          "indexed": false,
          "internalType": "uint256",
          "name": "value",
          "type": "uint256"
        }
      ],
      "name": "Transfer",
      "type": "event"
    },
    {
      "anonymous": false,
      "inputs": [
        {
          "indexed": true,
          "internalType": "address",
          "name": "newVault",
          "type": "address"
        }
      ],
      "name": "VaultTransferred",
      "type": "event"
    },
    {
      "inputs": [
        {
          "internalType": "address",
          "name": "lpAddress",
          "type": "address"
        }
      ],
      "name": "addLpContractAddress",
      "outputs": [],
      "stateMutability": "nonpayable",
      "type": "function"
    },
    {
      "inputs": [
        {
          "internalType": "address",
          "name": "_add",
          "type": "address"
        }
      ],
      "name": "addTaxExempt",
      "outputs": [],
      "stateMutability": "nonpayable",
      "type": "function"
    },
    {
      "inputs": [
        {
          "internalType": "address",
          "name": "owner",
          "type": "address"
        },
        {
          "internalType": "address",
          "name": "spender",
          "type": "address"
        }
      ],
      "name": "allowance",
      "outputs": [
        {
          "internalType": "uint256",
          "name": "",
          "type": "uint256"
        }
      ],
      "stateMutability": "view",
      "type": "function"
    },
    {
      "inputs": [
        {
          "internalType": "address",
          "name": "spender",
          "type": "address"
        },
        {
          "internalType": "uint256",
          "name": "amount",
          "type": "uint256"
        }
      ],
      "name": "approve",
      "outputs": [
        {
          "internalType": "bool",
          "name": "",
          "type": "bool"
        }
      ],
      "stateMutability": "nonpayable",
      "type": "function"
    },
    {
      "inputs": [
        {
          "internalType": "address",
          "name": "account",
          "type": "address"
        }
      ],
      "name": "balanceOf",
      "outputs": [
        {
          "internalType": "uint256",
          "name": "",
          "type": "uint256"
        }
      ],
      "stateMutability": "view",
      "type": "function"
    },
    {
      "inputs": [],
      "name": "baseSellTax",
      "outputs": [
        {
          "internalType": "uint256",
          "name": "",
          "type": "uint256"
        }
      ],
      "stateMutability": "view",
      "type": "function"
    },
    {
      "inputs": [
        {
          "internalType": "uint256",
          "name": "amount_",
          "type": "uint256"
        }
      ],
      "name": "burn",
      "outputs": [],
      "stateMutability": "nonpayable",
      "type": "function"
    },
    {
      "inputs": [
        {
          "internalType": "address",
          "name": "account_",
          "type": "address"
        },
        {
          "internalType": "uint256",
          "name": "amount_",
          "type": "uint256"
        }
      ],
      "name": "burnFrom",
      "outputs": [],
      "stateMutability": "nonpayable",
      "type": "function"
    },
    {
      "inputs": [],
      "name": "decimals",
      "outputs": [
        {
          "internalType": "uint8",
          "name": "",
          "type": "uint8"
        }
      ],
      "stateMutability": "view",
      "type": "function"
    },
    {
      "inputs": [
        {
          "internalType": "address",
          "name": "spender",
          "type": "address"
        },
        {
          "internalType": "uint256",
          "name": "subtractedValue",
          "type": "uint256"
        }
      ],
      "name": "decreaseAllowance",
      "outputs": [
        {
          "internalType": "bool",
          "name": "",
          "type": "bool"
        }
      ],
      "stateMutability": "nonpayable",
      "type": "function"
    },
    {
      "inputs": [
        {
          "internalType": "uint256",
          "name": "amount",
          "type": "uint256"
        }
      ],
      "name": "getCurrentSellTax",
      "outputs": [
        {
          "internalType": "uint256",
          "name": "",
          "type": "uint256"
        }
      ],
      "stateMutability": "view",
      "type": "function"
    },
    {
      "inputs": [
        {
          "internalType": "address",
          "name": "spender",
          "type": "address"
        },
        {
          "internalType": "uint256",
          "name": "addedValue",
          "type": "uint256"
        }
      ],
      "name": "increaseAllowance",
      "outputs": [
        {
          "internalType": "bool",
          "name": "",
          "type": "bool"
        }
      ],
      "stateMutability": "nonpayable",
      "type": "function"
    },
    {
      "inputs": [
        {
          "internalType": "address",
          "name": "account",
          "type": "address"
        },
        {
          "internalType": "uint256",
          "name": "amount",
          "type": "uint256"
        }
      ],
      "name": "mint",
      "outputs": [],
      "stateMutability": "nonpayable",
      "type": "function"
    },
    {
      "inputs": [],
      "name": "multiplier",
      "outputs": [
        {
          "internalType": "uint256",
          "name": "",
          "type": "uint256"
        }
      ],
      "stateMutability": "view",
      "type": "function"
    },
    {
      "inputs": [],
      "name": "name",
      "outputs": [
        {
          "internalType": "string",
          "name": "",
          "type": "string"
        }
      ],
      "stateMutability": "view",
      "type": "function"
    },
    {
      "inputs": [],
      "name": "owner",
      "outputs": [
        {
          "internalType": "address",
          "name": "",
          "type": "address"
        }
      ],
      "stateMutability": "view",
      "type": "function"
    },
    {
      "inputs": [
        {
          "internalType": "address",
          "name": "_add",
          "type": "address"
        }
      ],
      "name": "removeTaxExempt",
      "outputs": [],
      "stateMutability": "nonpayable",
      "type": "function"
    },
    {
      "inputs": [],
      "name": "renounceOwnership",
      "outputs": [],
      "stateMutability": "nonpayable",
      "type": "function"
    },
    {
      "inputs": [
        {
          "internalType": "uint256",
          "name": "_baseSellTax",
          "type": "uint256"
        }
      ],
      "name": "setBaseSellTax",
      "outputs": [],
      "stateMutability": "nonpayable",
      "type": "function"
    },
    {
      "inputs": [
        {
          "internalType": "uint256",
          "name": "_multiplier",
          "type": "uint256"
        }
      ],
      "name": "setMultiplier",
      "outputs": [],
      "stateMutability": "nonpayable",
      "type": "function"
    },
    {
      "inputs": [
        {
          "internalType": "address",
          "name": "vault_",
          "type": "address"
        }
      ],
      "name": "setVault",
      "outputs": [],
      "stateMutability": "nonpayable",
      "type": "function"
    },
    {
      "inputs": [],
      "name": "symbol",
      "outputs": [
        {
          "internalType": "string",
          "name": "",
          "type": "string"
        }
      ],
      "stateMutability": "view",
      "type": "function"
    },
    {
      "inputs": [],
      "name": "totalSupply",
      "outputs": [
        {
          "internalType": "uint256",
          "name": "",
          "type": "uint256"
        }
      ],
      "stateMutability": "view",
      "type": "function"
    },
    {
      "inputs": [
        {
          "internalType": "address",
          "name": "to",
          "type": "address"
        },
        {
          "internalType": "uint256",
          "name": "amount",
          "type": "uint256"
        }
      ],
      "name": "transfer",
      "outputs": [
        {
          "internalType": "bool",
          "name": "",
          "type": "bool"
        }
      ],
      "stateMutability": "nonpayable",
      "type": "function"
    },
    {
      "inputs": [
        {
          "internalType": "address",
          "name": "from",
          "type": "address"
        },
        {
          "internalType": "address",
          "name": "to",
          "type": "address"
        },
        {
          "internalType": "uint256",
          "name": "amount",
          "type": "uint256"
        }
      ],
      "name": "transferFrom",
      "outputs": [
        {
          "internalType": "bool",
          "name": "",
          "type": "bool"
        }
      ],
      "stateMutability": "nonpayable",
      "type": "function"
    },
    {
      "inputs": [
        {
          "internalType": "address",
          "name": "newOwner",
          "type": "address"
        }
      ],
      "name": "transferOwnership",
      "outputs": [],
      "stateMutability": "nonpayable",
      "type": "function"
    },
    {
      "inputs": [],
      "name": "vault",
      "outputs": [
        {
          "internalType": "address",
          "name": "",
          "type": "address"
        }
      ],
      "stateMutability": "view",
      "type": "function"
    }
  ],
  "bytecode": "0x60806040523480156200001157600080fd5b5062000032620000266200013c60201b60201c565b6200014460201b60201c565b6040518060400160405280600681526020017f4f7261636c650000000000000000000000000000000000000000000000000000815250600590805190602001906200007f92919062000208565b506040518060400160405280600481526020017f4f5246490000000000000000000000000000000000000000000000000000000081525060069080519060200190620000cd92919062000208565b5060126009819055506005600a819055506001600860003373ffffffffffffffffffffffffffffffffffffffff1673ffffffffffffffffffffffffffffffffffffffff16815260200190815260200160002060006101000a81548160ff0219169083151502179055506200031d565b600033905090565b60008060009054906101000a900473ffffffffffffffffffffffffffffffffffffffff169050816000806101000a81548173ffffffffffffffffffffffffffffffffffffffff021916908373ffffffffffffffffffffffffffffffffffffffff1602179055508173ffffffffffffffffffffffffffffffffffffffff168173ffffffffffffffffffffffffffffffffffffffff167f8be0079c531659141344cd1fd0a4f28419497f9722a3daafe3b4186f6b6457e060405160405180910390a35050565b8280546200021690620002b8565b90600052602060002090601f0160209004810192826200023a576000855562000286565b82601f106200025557805160ff191683800117855562000286565b8280016001018555821562000286579182015b828111156200028557825182559160200191906001019062000268565b5b50905062000295919062000299565b5090565b5b80821115620002b45760008160009055506001016200029a565b5090565b60006002820490506001821680620002d157607f821691505b60208210811415620002e857620002e7620002ee565b5b50919050565b7f4e487b7100000000000000000000000000000000000000000000000000000000600052602260045260246000fd5b612d03806200032d6000396000f3fe608060405234801561001057600080fd5b50600436106101a95760003560e01c806370a08231116100f9578063a457c2d711610097578063da8da65511610071578063da8da655146104ba578063dd62ed3e146104d6578063f2fde38b14610506578063fbfa77cf14610522576101a9565b8063a457c2d71461042a578063a9059cbb1461045a578063cd43c7511461048a576101a9565b80638da5cb5b116100d35780638da5cb5b146103b657806395d89b41146103d45780639ff0ebc9146103f2578063a3ffb1981461040e576101a9565b806370a0823114610360578063715018a61461039057806379cc67901461039a576101a9565b806339509351116101665780635b683e66116101405780635b683e66146102ee578063641579a61461030c57806366e670fe146103285780636817031b14610344576101a9565b8063395093511461028657806340c10f19146102b657806342966c68146102d2576101a9565b806306fdde03146101ae578063095ea7b3146101cc57806318160ddd146101fc5780631b3ed7221461021a57806323b872dd14610238578063313ce56714610268575b600080fd5b6101b6610540565b6040516101c39190612320565b60405180910390f35b6101e660048036038101906101e19190611f9a565b6105d2565b6040516101f39190612305565b60405180910390f35b6102046105f5565b6040516102119190612582565b60405180910390f35b6102226105ff565b60405161022f9190612582565b60405180910390f35b610252600480360381019061024d9190611f4b565b610605565b60405161025f9190612305565b60405180910390f35b610270610634565b60405161027d919061259d565b60405180910390f35b6102a0600480360381019061029b9190611f9a565b61063d565b6040516102ad9190612305565b60405180910390f35b6102d060048036038101906102cb9190611f9a565b6106e7565b005b6102ec60048036038101906102e79190611fd6565b610785565b005b6102f6610792565b6040516103039190612582565b60405180910390f35b61032660048036038101906103219190611fd6565b610798565b005b610342600480360381019061033d9190611ee6565b610862565b005b61035e60048036038101906103599190611ee6565b6109a9565b005b61037a60048036038101906103759190611ee6565b610b3e565b6040516103879190612582565b60405180910390f35b610398610b87565b005b6103b460048036038101906103af9190611f9a565b610c0f565b005b6103be610c1d565b6040516103cb91906122ea565b60405180910390f35b6103dc610c46565b6040516103e99190612320565b60405180910390f35b61040c60048036038101906104079190611ee6565b610cd8565b005b61042860048036038101906104239190611fd6565b610e16565b005b610444600480360381019061043f9190611f9a565b610ee0565b6040516104519190612305565b60405180910390f35b610474600480360381019061046f9190611f9a565b610fca565b6040516104819190612305565b60405180910390f35b6104a4600480360381019061049f9190611fd6565b610fed565b6040516104b19190612582565b60405180910390f35b6104d460048036038101906104cf9190611ee6565b61108f565b005b6104f060048036038101906104eb9190611f0f565b6111d6565b6040516104fd9190612582565b60405180910390f35b610520600480360381019061051b9190611ee6565b61125d565b005b61052a611355565b60405161053791906122ea565b60405180910390f35b60606005805461054f90612771565b80601f016020809104026020016040519081016040528092919081815260200182805461057b90612771565b80156105c85780601f1061059d576101008083540402835291602001916105c8565b820191906000526020600020905b8154815290600101906020018083116105ab57829003601f168201915b5050505050905090565b6000806105dd61137f565b90506105ea818585611387565b600191505092915050565b6000600454905090565b600a5481565b60008061061061137f565b905061061d858285611552565b6106288585856115de565b60019150509392505050565b60006012905090565b60008061064861137f565b90506106dc818585600360008673ffffffffffffffffffffffffffffffffffffffff1673ffffffffffffffffffffffffffffffffffffffff16815260200190815260200160002060008973ffffffffffffffffffffffffffffffffffffffff1673ffffffffffffffffffffffffffffffffffffffff168152602001908152602001600020546106d791906125d4565b611387565b600191505092915050565b3373ffffffffffffffffffffffffffffffffffffffff16600160009054906101000a900473ffffffffffffffffffffffffffffffffffffffff1673ffffffffffffffffffffffffffffffffffffffff1614610777576040517f08c379a000000000000000000000000000000000000000000000000000000000815260040161076e90612482565b60405180910390fd5b6107818282611872565b5050565b61078f33826119d3565b50565b60095481565b6107a061137f565b73ffffffffffffffffffffffffffffffffffffffff166107be610c1d565b73ffffffffffffffffffffffffffffffffffffffff1614610814576040517f08c379a000000000000000000000000000000000000000000000000000000000815260040161080b906124a2565b60405180910390fd5b600f811115610858576040517f08c379a000000000000000000000000000000000000000000000000000000000815260040161084f906123c2565b60405180910390fd5b80600a8190555050565b61086a61137f565b73ffffffffffffffffffffffffffffffffffffffff16610888610c1d565b73ffffffffffffffffffffffffffffffffffffffff16146108de576040517f08c379a00000000000000000000000000000000000000000000000000000000081526004016108d5906124a2565b60405180910390fd5b600073ffffffffffffffffffffffffffffffffffffffff168173ffffffffffffffffffffffffffffffffffffffff16141561094e576040517f08c379a000000000000000000000000000000000000000000000000000000000815260040161094590612442565b60405180910390fd5b6001600860008373ffffffffffffffffffffffffffffffffffffffff1673ffffffffffffffffffffffffffffffffffffffff16815260200190815260200160002060006101000a81548160ff02191690831515021790555050565b6109b161137f565b73ffffffffffffffffffffffffffffffffffffffff166109cf610c1d565b73ffffffffffffffffffffffffffffffffffffffff1614610a25576040517f08c379a0000000000000000000000000000000000000000000000000000000008152600401610a1c906124a2565b60405180910390fd5b600073ffffffffffffffffffffffffffffffffffffffff168173ffffffffffffffffffffffffffffffffffffffff161415610a95576040517f08c379a0000000000000000000000000000000000000000000000000000000008152600401610a8c90612422565b60405180910390fd5b80600160006101000a81548173ffffffffffffffffffffffffffffffffffffffff021916908373ffffffffffffffffffffffffffffffffffffffff160217905550600160009054906101000a900473ffffffffffffffffffffffffffffffffffffffff1673ffffffffffffffffffffffffffffffffffffffff167f3811c8bde9c524fca0e85a90109ab6e776e4f6e675fa7b219c7973abeacb6b2760405160405180910390a250565b6000600260008373ffffffffffffffffffffffffffffffffffffffff1673ffffffffffffffffffffffffffffffffffffffff168152602001908152602001600020549050919050565b610b8f61137f565b73ffffffffffffffffffffffffffffffffffffffff16610bad610c1d565b73ffffffffffffffffffffffffffffffffffffffff1614610c03576040517f08c379a0000000000000000000000000000000000000000000000000000000008152600401610bfa906124a2565b60405180910390fd5b610c0d6000611bac565b565b610c198282611c70565b5050565b60008060009054906101000a900473ffffffffffffffffffffffffffffffffffffffff16905090565b606060068054610c5590612771565b80601f0160208091040260200160405190810160405280929190818152602001828054610c8190612771565b8015610cce5780601f10610ca357610100808354040283529160200191610cce565b820191906000526020600020905b815481529060010190602001808311610cb157829003601f168201915b5050505050905090565b610ce061137f565b73ffffffffffffffffffffffffffffffffffffffff16610cfe610c1d565b73ffffffffffffffffffffffffffffffffffffffff1614610d54576040517f08c379a0000000000000000000000000000000000000000000000000000000008152600401610d4b906124a2565b60405180910390fd5b600073ffffffffffffffffffffffffffffffffffffffff168173ffffffffffffffffffffffffffffffffffffffff161415610dc4576040517f08c379a0000000000000000000000000000000000000000000000000000000008152600401610dbb90612442565b60405180910390fd5b600860008273ffffffffffffffffffffffffffffffffffffffff1673ffffffffffffffffffffffffffffffffffffffff16815260200190815260200160002060006101000a81549060ff021916905550565b610e1e61137f565b73ffffffffffffffffffffffffffffffffffffffff16610e3c610c1d565b73ffffffffffffffffffffffffffffffffffffffff1614610e92576040517f08c379a0000000000000000000000000000000000000000000000000000000008152600401610e89906124a2565b60405180910390fd5b601e811115610ed6576040517f08c379a0000000000000000000000000000000000000000000000000000000008152600401610ecd90612522565b60405180910390fd5b8060098190555050565b600080610eeb61137f565b90506000600360008373ffffffffffffffffffffffffffffffffffffffff1673ffffffffffffffffffffffffffffffffffffffff16815260200190815260200160002060008673ffffffffffffffffffffffffffffffffffffffff1673ffffffffffffffffffffffffffffffffffffffff16815260200190815260200160002054905083811015610fb1576040517f08c379a0000000000000000000000000000000000000000000000000000000008152600401610fa890612542565b60405180910390fd5b610fbe8286868403611387565b60019250505092915050565b600080610fd561137f565b9050610fe28185856115de565b600191505092915050565b60008068056bc75e2d63100000831161100a576009549050611086565b683635c9adc5dea00000831161103157600a5460095461102a91906125d4565b9050611085565b69021e19e0c9bab24000008311611065576002600a54611051919061265b565b60095461105e91906125d4565b9050611084565b6003600a54611074919061265b565b60095461108191906125d4565b90505b5b5b80915050919050565b61109761137f565b73ffffffffffffffffffffffffffffffffffffffff166110b5610c1d565b73ffffffffffffffffffffffffffffffffffffffff161461110b576040517f08c379a0000000000000000000000000000000000000000000000000000000008152600401611102906124a2565b60405180910390fd5b600073ffffffffffffffffffffffffffffffffffffffff168173ffffffffffffffffffffffffffffffffffffffff16141561117b576040517f08c379a000000000000000000000000000000000000000000000000000000000815260040161117290612462565b60405180910390fd5b6001600760008373ffffffffffffffffffffffffffffffffffffffff1673ffffffffffffffffffffffffffffffffffffffff16815260200190815260200160002060006101000a81548160ff02191690831515021790555050565b6000600360008473ffffffffffffffffffffffffffffffffffffffff1673ffffffffffffffffffffffffffffffffffffffff16815260200190815260200160002060008373ffffffffffffffffffffffffffffffffffffffff1673ffffffffffffffffffffffffffffffffffffffff16815260200190815260200160002054905092915050565b61126561137f565b73ffffffffffffffffffffffffffffffffffffffff16611283610c1d565b73ffffffffffffffffffffffffffffffffffffffff16146112d9576040517f08c379a00000000000000000000000000000000000000000000000000000000081526004016112d0906124a2565b60405180910390fd5b600073ffffffffffffffffffffffffffffffffffffffff168173ffffffffffffffffffffffffffffffffffffffff161415611349576040517f08c379a000000000000000000000000000000000000000000000000000000000815260040161134090612382565b60405180910390fd5b61135281611bac565b50565b6000600160009054906101000a900473ffffffffffffffffffffffffffffffffffffffff16905090565b600033905090565b600073ffffffffffffffffffffffffffffffffffffffff168373ffffffffffffffffffffffffffffffffffffffff1614156113f7576040517f08c379a00000000000000000000000000000000000000000000000000000000081526004016113ee90612502565b60405180910390fd5b600073ffffffffffffffffffffffffffffffffffffffff168273ffffffffffffffffffffffffffffffffffffffff161415611467576040517f08c379a000000000000000000000000000000000000000000000000000000000815260040161145e906123a2565b60405180910390fd5b80600360008573ffffffffffffffffffffffffffffffffffffffff1673ffffffffffffffffffffffffffffffffffffffff16815260200190815260200160002060008473ffffffffffffffffffffffffffffffffffffffff1673ffffffffffffffffffffffffffffffffffffffff168152602001908152602001600020819055508173ffffffffffffffffffffffffffffffffffffffff168373ffffffffffffffffffffffffffffffffffffffff167f8c5be1e5ebec7d5bd14f71427d1e84f3dd0314c0f7b2291e5b200ac8c7c3b925836040516115459190612582565b60405180910390a3505050565b600061155e84846111d6565b90507fffffffffffffffffffffffffffffffffffffffffffffffffffffffffffffffff81146115d857818110156115ca576040517f08c379a00000000000000000000000000000000000000000000000000000000081526004016115c1906123e2565b60405180910390fd5b6115d78484848403611387565b5b50505050565b600073ffffffffffffffffffffffffffffffffffffffff168373ffffffffffffffffffffffffffffffffffffffff16141561164e576040517f08c379a0000000000000000000000000000000000000000000000000000000008152600401611645906124e2565b60405180910390fd5b600073ffffffffffffffffffffffffffffffffffffffff168273ffffffffffffffffffffffffffffffffffffffff1614156116be576040517f08c379a00000000000000000000000000000000000000000000000000000000081526004016116b590612342565b60405180910390fd5b6116c9838383611caa565b6000600260008573ffffffffffffffffffffffffffffffffffffffff1673ffffffffffffffffffffffffffffffffffffffff16815260200190815260200160002054905081811015611750576040517f08c379a000000000000000000000000000000000000000000000000000000000815260040161174790612402565b60405180910390fd5b818103600260008673ffffffffffffffffffffffffffffffffffffffff1673ffffffffffffffffffffffffffffffffffffffff1681526020019081526020016000208190555060006117a3858585611caf565b905080600260008673ffffffffffffffffffffffffffffffffffffffff1673ffffffffffffffffffffffffffffffffffffffff16815260200190815260200160002060008282546117f491906125d4565b925050819055508373ffffffffffffffffffffffffffffffffffffffff168573ffffffffffffffffffffffffffffffffffffffff167fddf252ad1be2c89b69c2b068fc378daa952ba7f163c4a11628f55a4df523b3ef836040516118589190612582565b60405180910390a361186b858583611e75565b5050505050565b600073ffffffffffffffffffffffffffffffffffffffff168273ffffffffffffffffffffffffffffffffffffffff1614156118e2576040517f08c379a00000000000000000000000000000000000000000000000000000000081526004016118d990612562565b60405180910390fd5b6118ee60008383611caa565b806004600082825461190091906125d4565b9250508190555080600260008473ffffffffffffffffffffffffffffffffffffffff1673ffffffffffffffffffffffffffffffffffffffff168152602001908152602001600020600082825461195691906125d4565b925050819055508173ffffffffffffffffffffffffffffffffffffffff16600073ffffffffffffffffffffffffffffffffffffffff167fddf252ad1be2c89b69c2b068fc378daa952ba7f163c4a11628f55a4df523b3ef836040516119bb9190612582565b60405180910390a36119cf60008383611e75565b5050565b600073ffffffffffffffffffffffffffffffffffffffff168273ffffffffffffffffffffffffffffffffffffffff161415611a43576040517f08c379a0000000000000000000000000000000000000000000000000000000008152600401611a3a906124c2565b60405180910390fd5b611a4f82600083611caa565b6000600260008473ffffffffffffffffffffffffffffffffffffffff1673ffffffffffffffffffffffffffffffffffffffff16815260200190815260200160002054905081811015611ad6576040517f08c379a0000000000000000000000000000000000000000000000000000000008152600401611acd90612362565b60405180910390fd5b818103600260008573ffffffffffffffffffffffffffffffffffffffff1673ffffffffffffffffffffffffffffffffffffffff168152602001908152602001600020819055508160046000828254611b2e91906126b5565b92505081905550600073ffffffffffffffffffffffffffffffffffffffff168373ffffffffffffffffffffffffffffffffffffffff167fddf252ad1be2c89b69c2b068fc378daa952ba7f163c4a11628f55a4df523b3ef84604051611b939190612582565b60405180910390a3611ba783600084611e75565b505050565b60008060009054906101000a900473ffffffffffffffffffffffffffffffffffffffff169050816000806101000a81548173ffffffffffffffffffffffffffffffffffffffff021916908373ffffffffffffffffffffffffffffffffffffffff1602179055508173ffffffffffffffffffffffffffffffffffffffff168173ffffffffffffffffffffffffffffffffffffffff167f8be0079c531659141344cd1fd0a4f28419497f9722a3daafe3b4186f6b6457e060405160405180910390a35050565b6000611c8e82611c8085336111d6565b611e7a90919063ffffffff16565b9050611c9b833383611387565b611ca583836119d3565b505050565b505050565b6000600860008573ffffffffffffffffffffffffffffffffffffffff1673ffffffffffffffffffffffffffffffffffffffff16815260200190815260200160002060009054906101000a900460ff1680611d535750600760008473ffffffffffffffffffffffffffffffffffffffff1673ffffffffffffffffffffffffffffffffffffffff16815260200190815260200160002060009054906101000a900460ff16155b15611d6057819050611e6e565b6000611d906064611d82611d7386610fed565b86611e9090919063ffffffff16565b611ea690919063ffffffff16565b905080600260003073ffffffffffffffffffffffffffffffffffffffff1673ffffffffffffffffffffffffffffffffffffffff1681526020019081526020016000206000828254611de191906125d4565b92505081905550611df230826119d3565b3073ffffffffffffffffffffffffffffffffffffffff168573ffffffffffffffffffffffffffffffffffffffff167fddf252ad1be2c89b69c2b068fc378daa952ba7f163c4a11628f55a4df523b3ef83604051611e4f9190612582565b60405180910390a3611e6a8184611e7a90919063ffffffff16565b9150505b9392505050565b505050565b60008183611e8891906126b5565b905092915050565b60008183611e9e919061265b565b905092915050565b60008183611eb4919061262a565b905092915050565b600081359050611ecb81612c9f565b92915050565b600081359050611ee081612cb6565b92915050565b600060208284031215611ef857600080fd5b6000611f0684828501611ebc565b91505092915050565b60008060408385031215611f2257600080fd5b6000611f3085828601611ebc565b9250506020611f4185828601611ebc565b9150509250929050565b600080600060608486031215611f6057600080fd5b6000611f6e86828701611ebc565b9350506020611f7f86828701611ebc565b9250506040611f9086828701611ed1565b9150509250925092565b60008060408385031215611fad57600080fd5b6000611fbb85828601611ebc565b9250506020611fcc85828601611ed1565b9150509250929050565b600060208284031215611fe857600080fd5b6000611ff684828501611ed1565b91505092915050565b612008816126e9565b82525050565b612017816126fb565b82525050565b6000612028826125b8565b61203281856125c3565b935061204281856020860161273e565b61204b81612830565b840191505092915050565b60006120636023836125c3565b915061206e82612841565b604082019050919050565b60006120866022836125c3565b915061209182612890565b604082019050919050565b60006120a96026836125c3565b91506120b4826128df565b604082019050919050565b60006120cc6022836125c3565b91506120d78261292e565b604082019050919050565b60006120ef6013836125c3565b91506120fa8261297d565b602082019050919050565b6000612112601d836125c3565b915061211d826129a6565b602082019050919050565b60006121356026836125c3565b9150612140826129cf565b604082019050919050565b60006121586003836125c3565b915061216382612a1e565b602082019050919050565b600061217b600f836125c3565b915061218682612a47565b602082019050919050565b600061219e6012836125c3565b91506121a982612a70565b602082019050919050565b60006121c16023836125c3565b91506121cc82612a99565b604082019050919050565b60006121e46020836125c3565b91506121ef82612ae8565b602082019050919050565b60006122076021836125c3565b915061221282612b11565b604082019050919050565b600061222a6025836125c3565b915061223582612b60565b604082019050919050565b600061224d6024836125c3565b915061225882612baf565b604082019050919050565b60006122706016836125c3565b915061227b82612bfe565b602082019050919050565b60006122936025836125c3565b915061229e82612c27565b604082019050919050565b60006122b6601f836125c3565b91506122c182612c76565b602082019050919050565b6122d581612727565b82525050565b6122e481612731565b82525050565b60006020820190506122ff6000830184611fff565b92915050565b600060208201905061231a600083018461200e565b92915050565b6000602082019050818103600083015261233a818461201d565b905092915050565b6000602082019050818103600083015261235b81612056565b9050919050565b6000602082019050818103600083015261237b81612079565b9050919050565b6000602082019050818103600083015261239b8161209c565b9050919050565b600060208201905081810360008301526123bb816120bf565b9050919050565b600060208201905081810360008301526123db816120e2565b9050919050565b600060208201905081810360008301526123fb81612105565b9050919050565b6000602082019050818103600083015261241b81612128565b9050919050565b6000602082019050818103600083015261243b8161214b565b9050919050565b6000602082019050818103600083015261245b8161216e565b9050919050565b6000602082019050818103600083015261247b81612191565b9050919050565b6000602082019050818103600083015261249b816121b4565b9050919050565b600060208201905081810360008301526124bb816121d7565b9050919050565b600060208201905081810360008301526124db816121fa565b9050919050565b600060208201905081810360008301526124fb8161221d565b9050919050565b6000602082019050818103600083015261251b81612240565b9050919050565b6000602082019050818103600083015261253b81612263565b9050919050565b6000602082019050818103600083015261255b81612286565b9050919050565b6000602082019050818103600083015261257b816122a9565b9050919050565b600060208201905061259760008301846122cc565b92915050565b60006020820190506125b260008301846122db565b92915050565b600081519050919050565b600082825260208201905092915050565b60006125df82612727565b91506125ea83612727565b9250827fffffffffffffffffffffffffffffffffffffffffffffffffffffffffffffffff0382111561261f5761261e6127a3565b5b828201905092915050565b600061263582612727565b915061264083612727565b9250826126505761264f6127d2565b5b828204905092915050565b600061266682612727565b915061267183612727565b9250817fffffffffffffffffffffffffffffffffffffffffffffffffffffffffffffffff04831182151516156126aa576126a96127a3565b5b828202905092915050565b60006126c082612727565b91506126cb83612727565b9250828210156126de576126dd6127a3565b5b828203905092915050565b60006126f482612707565b9050919050565b60008115159050919050565b600073ffffffffffffffffffffffffffffffffffffffff82169050919050565b6000819050919050565b600060ff82169050919050565b60005b8381101561275c578082015181840152602081019050612741565b8381111561276b576000848401525b50505050565b6000600282049050600182168061278957607f821691505b6020821081141561279d5761279c612801565b5b50919050565b7f4e487b7100000000000000000000000000000000000000000000000000000000600052601160045260246000fd5b7f4e487b7100000000000000000000000000000000000000000000000000000000600052601260045260246000fd5b7f4e487b7100000000000000000000000000000000000000000000000000000000600052602260045260246000fd5b6000601f19601f8301169050919050565b7f45524332303a207472616e7366657220746f20746865207a65726f206164647260008201527f6573730000000000000000000000000000000000000000000000000000000000602082015250565b7f45524332303a206275726e20616d6f756e7420657863656564732062616c616e60008201527f6365000000000000000000000000000000000000000000000000000000000000602082015250565b7f4f776e61626c653a206e6577206f776e657220697320746865207a65726f206160008201527f6464726573730000000000000000000000000000000000000000000000000000602082015250565b7f45524332303a20617070726f766520746f20746865207a65726f20616464726560008201527f7373000000000000000000000000000000000000000000000000000000000000602082015250565b7f4d756c7469706c69657220546f6f204869676800000000000000000000000000600082015250565b7f45524332303a20696e73756666696369656e7420616c6c6f77616e6365000000600082015250565b7f45524332303a207472616e7366657220616d6f756e742065786365656473206260008201527f616c616e63650000000000000000000000000000000000000000000000000000602082015250565b7f4941300000000000000000000000000000000000000000000000000000000000600082015250565b7f61646472657373206973207a65726f0000000000000000000000000000000000600082015250565b7f6c702061646472657373206973207a65726f0000000000000000000000000000600082015250565b7f5661756c744f776e65643a2063616c6c6572206973206e6f742074686520566160008201527f756c740000000000000000000000000000000000000000000000000000000000602082015250565b7f4f776e61626c653a2063616c6c6572206973206e6f7420746865206f776e6572600082015250565b7f45524332303a206275726e2066726f6d20746865207a65726f2061646472657360008201527f7300000000000000000000000000000000000000000000000000000000000000602082015250565b7f45524332303a207472616e736665722066726f6d20746865207a65726f20616460008201527f6472657373000000000000000000000000000000000000000000000000000000602082015250565b7f45524332303a20617070726f76652066726f6d20746865207a65726f2061646460008201527f7265737300000000000000000000000000000000000000000000000000000000602082015250565b7f426173652053656c6c2054617820546f6f204869676800000000000000000000600082015250565b7f45524332303a2064656372656173656420616c6c6f77616e63652062656c6f7760008201527f207a65726f000000000000000000000000000000000000000000000000000000602082015250565b7f45524332303a206d696e7420746f20746865207a65726f206164647265737300600082015250565b612ca8816126e9565b8114612cb357600080fd5b50565b612cbf81612727565b8114612cca57600080fd5b5056fea26469706673582212203c18aa66aace011e1b9eef6e52c73dbccf9c1feb3788eb21e51dc0b5bb6e0eea64736f6c63430008040033",
  "linkReferences": {},
  "deployedLinkReferences": {}
}