{
  "_format": "hh-sol-artifact-1",
  "contractName": "OrfiFaucet",
  "sourceName": "contracts/OrfiFaucet.sol",
  "abi": [
    {
      "inputs": [
        {
          "internalType": "address",
          "name": "orfiAddress",
          "type": "address"
        }
      ],
      "stateMutability": "nonpayable",
      "type": "constructor"
    },
    {
      "inputs": [
        {
          "internalType": "address",
          "name": "to_",
          "type": "address"
        }
      ],
      "name": "faucet",
      "outputs": [],
      "stateMutability": "nonpayable",
      "type": "function"
    },
    {
      "inputs": [],
      "name": "orfiContract",
      "outputs": [
        {
          "internalType": "contract IERC20",
          "name": "",
          "type": "address"
        }
      ],
      "stateMutability": "view",
      "type": "function"
    }
  ],
  "bytecode": "0x60a060405234801561001057600080fd5b5060405161040938038061040983398101604081905261002f91610057565b6001600160a01b03811661004257600080fd5b60601b6001600160601b031916608052610085565b600060208284031215610068578081fd5b81516001600160a01b038116811461007e578182fd5b9392505050565b60805160601c6103596100b06000396000818160400152818161012a015261023d01526103596000f3fe608060405234801561001057600080fd5b50600436106100365760003560e01c806370fb25451461003b578063b86d1d631461007e575b600080fd5b6100627f000000000000000000000000000000000000000000000000000000000000000081565b6040516001600160a01b03909116815260200160405180910390f35b61009161008c3660046102bd565b610093565b005b6001600160a01b0381166100a657600080fd5b6001600160a01b038116600090815260208190526040902054678ac7230489e800001161010a5760405162461bcd60e51b815260206004820152600d60248201526c5573657220686173204f52464960981b60448201526064015b60405180910390fd5b6040516370a0823160e01b815230600482015268056bc75e2d63100000907f00000000000000000000000000000000000000000000000000000000000000006001600160a01b0316906370a082319060240160206040518083038186803b15801561017457600080fd5b505afa158015610188573d6000803e3d6000fd5b505050506040513d601f19601f820116820180604052508101906101ac919061030b565b101561020f5760405162461bcd60e51b815260206004820152602c60248201527f496e73756666696369656e74204f5246492062616c616e636520696e2066617560448201526b18d95d0818dbdb9d1c9858dd60a21b6064820152608401610101565b60405163a9059cbb60e01b81526001600160a01b03828116600483015268056bc75e2d6310000060248301527f0000000000000000000000000000000000000000000000000000000000000000169063a9059cbb90604401602060405180830381600087803b15801561028157600080fd5b505af1158015610295573d6000803e3d6000fd5b505050506040513d601f19601f820116820180604052508101906102b991906102eb565b5050565b6000602082840312156102ce578081fd5b81356001600160a01b03811681146102e4578182fd5b9392505050565b6000602082840312156102fc578081fd5b815180151581146102e4578182fd5b60006020828403121561031c578081fd5b505191905056fea26469706673582212207aadd6e716d6e6a34a597ad598c2f823d0dc783320121989dd0438a9e4f102ca64736f6c63430008040033",
  "linkReferences": {},
  "deployedLinkReferences": {}
}