{
  "_format": "hh-sol-artifact-1",
  "contractName": "ORFI",
  "sourceName": "contracts/coreContracts/ORFI.sol",
  "abi": [
    {
      "inputs": [],
      "stateMutability": "nonpayable",
      "type": "constructor"
    },
    {
      "anonymous": false,
      "inputs": [
        {
          "indexed": true,
          "internalType": "address",
          "name": "owner",
          "type": "address"
        },
        {
          "indexed": true,
          "internalType": "address",
          "name": "spender",
          "type": "address"
        },
        {
          "indexed": false,
          "internalType": "uint256",
          "name": "value",
          "type": "uint256"
        }
      ],
      "name": "Approval",
      "type": "event"
    },
    {
      "anonymous": false,
      "inputs": [
        {
          "indexed": true,
          "internalType": "address",
          "name": "previousOwner",
          "type": "address"
        },
        {
          "indexed": true,
          "internalType": "address",
          "name": "newOwner",
          "type": "address"
        }
      ],
      "name": "OwnershipTransferred",
      "type": "event"
    },
    {
      "anonymous": false,
      "inputs": [
        {
          "indexed": true,
          "internalType": "address",
          "name": "from",
          "type": "address"
        },
        {
          "indexed": true,
          "internalType": "address",
          "name": "to",
          "type": "address"
        },
        {
          "indexed": false,
          "internalType": "uint256",
          "name": "value",
          "type": "uint256"
        }
      ],
      "name": "Transfer",
      "type": "event"
    },
    {
      "anonymous": false,
      "inputs": [
        {
          "indexed": true,
          "internalType": "address",
          "name": "newVault",
          "type": "address"
        }
      ],
      "name": "VaultTransferred",
      "type": "event"
    },
    {
      "inputs": [
        {
          "internalType": "address",
          "name": "lpAddress",
          "type": "address"
        }
      ],
      "name": "addLpContractAddress",
      "outputs": [],
      "stateMutability": "nonpayable",
      "type": "function"
    },
    {
      "inputs": [
        {
          "internalType": "address",
          "name": "_add",
          "type": "address"
        }
      ],
      "name": "addTaxExempt",
      "outputs": [],
      "stateMutability": "nonpayable",
      "type": "function"
    },
    {
      "inputs": [
        {
          "internalType": "address",
          "name": "owner",
          "type": "address"
        },
        {
          "internalType": "address",
          "name": "spender",
          "type": "address"
        }
      ],
      "name": "allowance",
      "outputs": [
        {
          "internalType": "uint256",
          "name": "",
          "type": "uint256"
        }
      ],
      "stateMutability": "view",
      "type": "function"
    },
    {
      "inputs": [
        {
          "internalType": "address",
          "name": "spender",
          "type": "address"
        },
        {
          "internalType": "uint256",
          "name": "amount",
          "type": "uint256"
        }
      ],
      "name": "approve",
      "outputs": [
        {
          "internalType": "bool",
          "name": "",
          "type": "bool"
        }
      ],
      "stateMutability": "nonpayable",
      "type": "function"
    },
    {
      "inputs": [
        {
          "internalType": "address",
          "name": "account",
          "type": "address"
        }
      ],
      "name": "balanceOf",
      "outputs": [
        {
          "internalType": "uint256",
          "name": "",
          "type": "uint256"
        }
      ],
      "stateMutability": "view",
      "type": "function"
    },
    {
      "inputs": [],
      "name": "baseSellTax",
      "outputs": [
        {
          "internalType": "uint256",
          "name": "",
          "type": "uint256"
        }
      ],
      "stateMutability": "view",
      "type": "function"
    },
    {
      "inputs": [
        {
          "internalType": "uint256",
          "name": "amount_",
          "type": "uint256"
        }
      ],
      "name": "burn",
      "outputs": [],
      "stateMutability": "nonpayable",
      "type": "function"
    },
    {
      "inputs": [],
      "name": "decimals",
      "outputs": [
        {
          "internalType": "uint8",
          "name": "",
          "type": "uint8"
        }
      ],
      "stateMutability": "view",
      "type": "function"
    },
    {
      "inputs": [
        {
          "internalType": "address",
          "name": "spender",
          "type": "address"
        },
        {
          "internalType": "uint256",
          "name": "subtractedValue",
          "type": "uint256"
        }
      ],
      "name": "decreaseAllowance",
      "outputs": [
        {
          "internalType": "bool",
          "name": "",
          "type": "bool"
        }
      ],
      "stateMutability": "nonpayable",
      "type": "function"
    },
    {
      "inputs": [
        {
          "internalType": "uint256",
          "name": "amount",
          "type": "uint256"
        }
      ],
      "name": "getCurrentSellTax",
      "outputs": [
        {
          "internalType": "uint256",
          "name": "",
          "type": "uint256"
        }
      ],
      "stateMutability": "view",
      "type": "function"
    },
    {
      "inputs": [
        {
          "internalType": "address",
          "name": "spender",
          "type": "address"
        },
        {
          "internalType": "uint256",
          "name": "addedValue",
          "type": "uint256"
        }
      ],
      "name": "increaseAllowance",
      "outputs": [
        {
          "internalType": "bool",
          "name": "",
          "type": "bool"
        }
      ],
      "stateMutability": "nonpayable",
      "type": "function"
    },
    {
      "inputs": [
        {
          "internalType": "address",
          "name": "account",
          "type": "address"
        },
        {
          "internalType": "uint256",
          "name": "amount",
          "type": "uint256"
        }
      ],
      "name": "mint",
      "outputs": [],
      "stateMutability": "nonpayable",
      "type": "function"
    },
    {
      "inputs": [],
      "name": "multiplier",
      "outputs": [
        {
          "internalType": "uint256",
          "name": "",
          "type": "uint256"
        }
      ],
      "stateMutability": "view",
      "type": "function"
    },
    {
      "inputs": [],
      "name": "name",
      "outputs": [
        {
          "internalType": "string",
          "name": "",
          "type": "string"
        }
      ],
      "stateMutability": "view",
      "type": "function"
    },
    {
      "inputs": [],
      "name": "owner",
      "outputs": [
        {
          "internalType": "address",
          "name": "",
          "type": "address"
        }
      ],
      "stateMutability": "view",
      "type": "function"
    },
    {
      "inputs": [
        {
          "internalType": "address",
          "name": "_add",
          "type": "address"
        }
      ],
      "name": "removeTaxExempt",
      "outputs": [],
      "stateMutability": "nonpayable",
      "type": "function"
    },
    {
      "inputs": [],
      "name": "renounceOwnership",
      "outputs": [],
      "stateMutability": "nonpayable",
      "type": "function"
    },
    {
      "inputs": [
        {
          "internalType": "uint256",
          "name": "_baseSellTax",
          "type": "uint256"
        }
      ],
      "name": "setBaseSellTax",
      "outputs": [],
      "stateMutability": "nonpayable",
      "type": "function"
    },
    {
      "inputs": [
        {
          "internalType": "uint256",
          "name": "_multiplier",
          "type": "uint256"
        }
      ],
      "name": "setMultiplier",
      "outputs": [],
      "stateMutability": "nonpayable",
      "type": "function"
    },
    {
      "inputs": [
        {
          "internalType": "address",
          "name": "vault_",
          "type": "address"
        }
      ],
      "name": "setVault",
      "outputs": [],
      "stateMutability": "nonpayable",
      "type": "function"
    },
    {
      "inputs": [],
      "name": "symbol",
      "outputs": [
        {
          "internalType": "string",
          "name": "",
          "type": "string"
        }
      ],
      "stateMutability": "view",
      "type": "function"
    },
    {
      "inputs": [],
      "name": "totalSupply",
      "outputs": [
        {
          "internalType": "uint256",
          "name": "",
          "type": "uint256"
        }
      ],
      "stateMutability": "view",
      "type": "function"
    },
    {
      "inputs": [
        {
          "internalType": "address",
          "name": "to",
          "type": "address"
        },
        {
          "internalType": "uint256",
          "name": "amount",
          "type": "uint256"
        }
      ],
      "name": "transfer",
      "outputs": [
        {
          "internalType": "bool",
          "name": "",
          "type": "bool"
        }
      ],
      "stateMutability": "nonpayable",
      "type": "function"
    },
    {
      "inputs": [
        {
          "internalType": "address",
          "name": "from",
          "type": "address"
        },
        {
          "internalType": "address",
          "name": "to",
          "type": "address"
        },
        {
          "internalType": "uint256",
          "name": "amount",
          "type": "uint256"
        }
      ],
      "name": "transferFrom",
      "outputs": [
        {
          "internalType": "bool",
          "name": "",
          "type": "bool"
        }
      ],
      "stateMutability": "nonpayable",
      "type": "function"
    },
    {
      "inputs": [
        {
          "internalType": "address",
          "name": "newOwner",
          "type": "address"
        }
      ],
      "name": "transferOwnership",
      "outputs": [],
      "stateMutability": "nonpayable",
      "type": "function"
    },
    {
      "inputs": [],
      "name": "vault",
      "outputs": [
        {
          "internalType": "address",
          "name": "",
          "type": "address"
        }
      ],
      "stateMutability": "view",
      "type": "function"
    }
  ],
  "bytecode": "0x60806040523480156200001157600080fd5b5062000032620000266200013c60201b60201c565b6200014460201b60201c565b6040518060400160405280600681526020017f4f7261636c650000000000000000000000000000000000000000000000000000815250600590805190602001906200007f92919062000208565b506040518060400160405280600481526020017f4f5246490000000000000000000000000000000000000000000000000000000081525060069080519060200190620000cd92919062000208565b5060126009819055506005600a819055506001600860003373ffffffffffffffffffffffffffffffffffffffff1673ffffffffffffffffffffffffffffffffffffffff16815260200190815260200160002060006101000a81548160ff0219169083151502179055506200031d565b600033905090565b60008060009054906101000a900473ffffffffffffffffffffffffffffffffffffffff169050816000806101000a81548173ffffffffffffffffffffffffffffffffffffffff021916908373ffffffffffffffffffffffffffffffffffffffff1602179055508173ffffffffffffffffffffffffffffffffffffffff168173ffffffffffffffffffffffffffffffffffffffff167f8be0079c531659141344cd1fd0a4f28419497f9722a3daafe3b4186f6b6457e060405160405180910390a35050565b8280546200021690620002b8565b90600052602060002090601f0160209004810192826200023a576000855562000286565b82601f106200025557805160ff191683800117855562000286565b8280016001018555821562000286579182015b828111156200028557825182559160200191906001019062000268565b5b50905062000295919062000299565b5090565b5b80821115620002b45760008160009055506001016200029a565b5090565b60006002820490506001821680620002d157607f821691505b60208210811415620002e857620002e7620002ee565b5b50919050565b7f4e487b7100000000000000000000000000000000000000000000000000000000600052602260045260246000fd5b612c84806200032d6000396000f3fe608060405234801561001057600080fd5b506004361061018e5760003560e01c806370a08231116100de578063a457c2d711610097578063da8da65511610071578063da8da65514610483578063dd62ed3e1461049f578063f2fde38b146104cf578063fbfa77cf146104eb5761018e565b8063a457c2d7146103f3578063a9059cbb14610423578063cd43c751146104535761018e565b806370a0823114610345578063715018a6146103755780638da5cb5b1461037f57806395d89b411461039d5780639ff0ebc9146103bb578063a3ffb198146103d75761018e565b8063395093511161014b5780635b683e66116101255780635b683e66146102d3578063641579a6146102f157806366e670fe1461030d5780636817031b146103295761018e565b8063395093511461026b57806340c10f191461029b57806342966c68146102b75761018e565b806306fdde0314610193578063095ea7b3146101b157806318160ddd146101e15780631b3ed722146101ff57806323b872dd1461021d578063313ce5671461024d575b600080fd5b61019b610509565b6040516101a891906122a1565b60405180910390f35b6101cb60048036038101906101c69190611f1b565b61059b565b6040516101d89190612286565b60405180910390f35b6101e96105be565b6040516101f69190612503565b60405180910390f35b6102076105c8565b6040516102149190612503565b60405180910390f35b61023760048036038101906102329190611ecc565b6105ce565b6040516102449190612286565b60405180910390f35b6102556105fd565b604051610262919061251e565b60405180910390f35b61028560048036038101906102809190611f1b565b610606565b6040516102929190612286565b60405180910390f35b6102b560048036038101906102b09190611f1b565b6106b0565b005b6102d160048036038101906102cc9190611f57565b61074e565b005b6102db61075b565b6040516102e89190612503565b60405180910390f35b61030b60048036038101906103069190611f57565b610761565b005b61032760048036038101906103229190611e67565b61082b565b005b610343600480360381019061033e9190611e67565b610972565b005b61035f600480360381019061035a9190611e67565b610b07565b60405161036c9190612503565b60405180910390f35b61037d610b50565b005b610387610bd8565b604051610394919061226b565b60405180910390f35b6103a5610c01565b6040516103b291906122a1565b60405180910390f35b6103d560048036038101906103d09190611e67565b610c93565b005b6103f160048036038101906103ec9190611f57565b610dd1565b005b61040d60048036038101906104089190611f1b565b610e9b565b60405161041a9190612286565b60405180910390f35b61043d60048036038101906104389190611f1b565b610f85565b60405161044a9190612286565b60405180910390f35b61046d60048036038101906104689190611f57565b610fa8565b60405161047a9190612503565b60405180910390f35b61049d60048036038101906104989190611e67565b61104a565b005b6104b960048036038101906104b49190611e90565b611191565b6040516104c69190612503565b60405180910390f35b6104e960048036038101906104e49190611e67565b611218565b005b6104f3611310565b604051610500919061226b565b60405180910390f35b606060058054610518906126f2565b80601f0160208091040260200160405190810160405280929190818152602001828054610544906126f2565b80156105915780601f1061056657610100808354040283529160200191610591565b820191906000526020600020905b81548152906001019060200180831161057457829003601f168201915b5050505050905090565b6000806105a661133a565b90506105b3818585611342565b600191505092915050565b6000600454905090565b600a5481565b6000806105d961133a565b90506105e685828561150d565b6105f1858585611599565b60019150509392505050565b60006012905090565b60008061061161133a565b90506106a5818585600360008673ffffffffffffffffffffffffffffffffffffffff1673ffffffffffffffffffffffffffffffffffffffff16815260200190815260200160002060008973ffffffffffffffffffffffffffffffffffffffff1673ffffffffffffffffffffffffffffffffffffffff168152602001908152602001600020546106a09190612555565b611342565b600191505092915050565b3373ffffffffffffffffffffffffffffffffffffffff16600160009054906101000a900473ffffffffffffffffffffffffffffffffffffffff1673ffffffffffffffffffffffffffffffffffffffff1614610740576040517f08c379a000000000000000000000000000000000000000000000000000000000815260040161073790612403565b60405180910390fd5b61074a828261182d565b5050565b610758338261198e565b50565b60095481565b61076961133a565b73ffffffffffffffffffffffffffffffffffffffff16610787610bd8565b73ffffffffffffffffffffffffffffffffffffffff16146107dd576040517f08c379a00000000000000000000000000000000000000000000000000000000081526004016107d490612423565b60405180910390fd5b600f811115610821576040517f08c379a000000000000000000000000000000000000000000000000000000000815260040161081890612343565b60405180910390fd5b80600a8190555050565b61083361133a565b73ffffffffffffffffffffffffffffffffffffffff16610851610bd8565b73ffffffffffffffffffffffffffffffffffffffff16146108a7576040517f08c379a000000000000000000000000000000000000000000000000000000000815260040161089e90612423565b60405180910390fd5b600073ffffffffffffffffffffffffffffffffffffffff168173ffffffffffffffffffffffffffffffffffffffff161415610917576040517f08c379a000000000000000000000000000000000000000000000000000000000815260040161090e906123c3565b60405180910390fd5b6001600860008373ffffffffffffffffffffffffffffffffffffffff1673ffffffffffffffffffffffffffffffffffffffff16815260200190815260200160002060006101000a81548160ff02191690831515021790555050565b61097a61133a565b73ffffffffffffffffffffffffffffffffffffffff16610998610bd8565b73ffffffffffffffffffffffffffffffffffffffff16146109ee576040517f08c379a00000000000000000000000000000000000000000000000000000000081526004016109e590612423565b60405180910390fd5b600073ffffffffffffffffffffffffffffffffffffffff168173ffffffffffffffffffffffffffffffffffffffff161415610a5e576040517f08c379a0000000000000000000000000000000000000000000000000000000008152600401610a55906123a3565b60405180910390fd5b80600160006101000a81548173ffffffffffffffffffffffffffffffffffffffff021916908373ffffffffffffffffffffffffffffffffffffffff160217905550600160009054906101000a900473ffffffffffffffffffffffffffffffffffffffff1673ffffffffffffffffffffffffffffffffffffffff167f3811c8bde9c524fca0e85a90109ab6e776e4f6e675fa7b219c7973abeacb6b2760405160405180910390a250565b6000600260008373ffffffffffffffffffffffffffffffffffffffff1673ffffffffffffffffffffffffffffffffffffffff168152602001908152602001600020549050919050565b610b5861133a565b73ffffffffffffffffffffffffffffffffffffffff16610b76610bd8565b73ffffffffffffffffffffffffffffffffffffffff1614610bcc576040517f08c379a0000000000000000000000000000000000000000000000000000000008152600401610bc390612423565b60405180910390fd5b610bd66000611b67565b565b60008060009054906101000a900473ffffffffffffffffffffffffffffffffffffffff16905090565b606060068054610c10906126f2565b80601f0160208091040260200160405190810160405280929190818152602001828054610c3c906126f2565b8015610c895780601f10610c5e57610100808354040283529160200191610c89565b820191906000526020600020905b815481529060010190602001808311610c6c57829003601f168201915b5050505050905090565b610c9b61133a565b73ffffffffffffffffffffffffffffffffffffffff16610cb9610bd8565b73ffffffffffffffffffffffffffffffffffffffff1614610d0f576040517f08c379a0000000000000000000000000000000000000000000000000000000008152600401610d0690612423565b60405180910390fd5b600073ffffffffffffffffffffffffffffffffffffffff168173ffffffffffffffffffffffffffffffffffffffff161415610d7f576040517f08c379a0000000000000000000000000000000000000000000000000000000008152600401610d76906123c3565b60405180910390fd5b600860008273ffffffffffffffffffffffffffffffffffffffff1673ffffffffffffffffffffffffffffffffffffffff16815260200190815260200160002060006101000a81549060ff021916905550565b610dd961133a565b73ffffffffffffffffffffffffffffffffffffffff16610df7610bd8565b73ffffffffffffffffffffffffffffffffffffffff1614610e4d576040517f08c379a0000000000000000000000000000000000000000000000000000000008152600401610e4490612423565b60405180910390fd5b601e811115610e91576040517f08c379a0000000000000000000000000000000000000000000000000000000008152600401610e88906124a3565b60405180910390fd5b8060098190555050565b600080610ea661133a565b90506000600360008373ffffffffffffffffffffffffffffffffffffffff1673ffffffffffffffffffffffffffffffffffffffff16815260200190815260200160002060008673ffffffffffffffffffffffffffffffffffffffff1673ffffffffffffffffffffffffffffffffffffffff16815260200190815260200160002054905083811015610f6c576040517f08c379a0000000000000000000000000000000000000000000000000000000008152600401610f63906124c3565b60405180910390fd5b610f798286868403611342565b60019250505092915050565b600080610f9061133a565b9050610f9d818585611599565b600191505092915050565b60008068056bc75e2d631000008311610fc5576009549050611041565b683635c9adc5dea000008311610fec57600a54600954610fe59190612555565b9050611040565b69021e19e0c9bab24000008311611020576002600a5461100c91906125dc565b6009546110199190612555565b905061103f565b6003600a5461102f91906125dc565b60095461103c9190612555565b90505b5b5b80915050919050565b61105261133a565b73ffffffffffffffffffffffffffffffffffffffff16611070610bd8565b73ffffffffffffffffffffffffffffffffffffffff16146110c6576040517f08c379a00000000000000000000000000000000000000000000000000000000081526004016110bd90612423565b60405180910390fd5b600073ffffffffffffffffffffffffffffffffffffffff168173ffffffffffffffffffffffffffffffffffffffff161415611136576040517f08c379a000000000000000000000000000000000000000000000000000000000815260040161112d906123e3565b60405180910390fd5b6001600760008373ffffffffffffffffffffffffffffffffffffffff1673ffffffffffffffffffffffffffffffffffffffff16815260200190815260200160002060006101000a81548160ff02191690831515021790555050565b6000600360008473ffffffffffffffffffffffffffffffffffffffff1673ffffffffffffffffffffffffffffffffffffffff16815260200190815260200160002060008373ffffffffffffffffffffffffffffffffffffffff1673ffffffffffffffffffffffffffffffffffffffff16815260200190815260200160002054905092915050565b61122061133a565b73ffffffffffffffffffffffffffffffffffffffff1661123e610bd8565b73ffffffffffffffffffffffffffffffffffffffff1614611294576040517f08c379a000000000000000000000000000000000000000000000000000000000815260040161128b90612423565b60405180910390fd5b600073ffffffffffffffffffffffffffffffffffffffff168173ffffffffffffffffffffffffffffffffffffffff161415611304576040517f08c379a00000000000000000000000000000000000000000000000000000000081526004016112fb90612303565b60405180910390fd5b61130d81611b67565b50565b6000600160009054906101000a900473ffffffffffffffffffffffffffffffffffffffff16905090565b600033905090565b600073ffffffffffffffffffffffffffffffffffffffff168373ffffffffffffffffffffffffffffffffffffffff1614156113b2576040517f08c379a00000000000000000000000000000000000000000000000000000000081526004016113a990612483565b60405180910390fd5b600073ffffffffffffffffffffffffffffffffffffffff168273ffffffffffffffffffffffffffffffffffffffff161415611422576040517f08c379a000000000000000000000000000000000000000000000000000000000815260040161141990612323565b60405180910390fd5b80600360008573ffffffffffffffffffffffffffffffffffffffff1673ffffffffffffffffffffffffffffffffffffffff16815260200190815260200160002060008473ffffffffffffffffffffffffffffffffffffffff1673ffffffffffffffffffffffffffffffffffffffff168152602001908152602001600020819055508173ffffffffffffffffffffffffffffffffffffffff168373ffffffffffffffffffffffffffffffffffffffff167f8c5be1e5ebec7d5bd14f71427d1e84f3dd0314c0f7b2291e5b200ac8c7c3b925836040516115009190612503565b60405180910390a3505050565b60006115198484611191565b90507fffffffffffffffffffffffffffffffffffffffffffffffffffffffffffffffff81146115935781811015611585576040517f08c379a000000000000000000000000000000000000000000000000000000000815260040161157c90612363565b60405180910390fd5b6115928484848403611342565b5b50505050565b600073ffffffffffffffffffffffffffffffffffffffff168373ffffffffffffffffffffffffffffffffffffffff161415611609576040517f08c379a000000000000000000000000000000000000000000000000000000000815260040161160090612463565b60405180910390fd5b600073ffffffffffffffffffffffffffffffffffffffff168273ffffffffffffffffffffffffffffffffffffffff161415611679576040517f08c379a0000000000000000000000000000000000000000000000000000000008152600401611670906122c3565b60405180910390fd5b611684838383611c2b565b6000600260008573ffffffffffffffffffffffffffffffffffffffff1673ffffffffffffffffffffffffffffffffffffffff1681526020019081526020016000205490508181101561170b576040517f08c379a000000000000000000000000000000000000000000000000000000000815260040161170290612383565b60405180910390fd5b818103600260008673ffffffffffffffffffffffffffffffffffffffff1673ffffffffffffffffffffffffffffffffffffffff16815260200190815260200160002081905550600061175e858585611c30565b905080600260008673ffffffffffffffffffffffffffffffffffffffff1673ffffffffffffffffffffffffffffffffffffffff16815260200190815260200160002060008282546117af9190612555565b925050819055508373ffffffffffffffffffffffffffffffffffffffff168573ffffffffffffffffffffffffffffffffffffffff167fddf252ad1be2c89b69c2b068fc378daa952ba7f163c4a11628f55a4df523b3ef836040516118139190612503565b60405180910390a3611826858583611df6565b5050505050565b600073ffffffffffffffffffffffffffffffffffffffff168273ffffffffffffffffffffffffffffffffffffffff16141561189d576040517f08c379a0000000000000000000000000000000000000000000000000000000008152600401611894906124e3565b60405180910390fd5b6118a960008383611c2b565b80600460008282546118bb9190612555565b9250508190555080600260008473ffffffffffffffffffffffffffffffffffffffff1673ffffffffffffffffffffffffffffffffffffffff16815260200190815260200160002060008282546119119190612555565b925050819055508173ffffffffffffffffffffffffffffffffffffffff16600073ffffffffffffffffffffffffffffffffffffffff167fddf252ad1be2c89b69c2b068fc378daa952ba7f163c4a11628f55a4df523b3ef836040516119769190612503565b60405180910390a361198a60008383611df6565b5050565b600073ffffffffffffffffffffffffffffffffffffffff168273ffffffffffffffffffffffffffffffffffffffff1614156119fe576040517f08c379a00000000000000000000000000000000000000000000000000000000081526004016119f590612443565b60405180910390fd5b611a0a82600083611c2b565b6000600260008473ffffffffffffffffffffffffffffffffffffffff1673ffffffffffffffffffffffffffffffffffffffff16815260200190815260200160002054905081811015611a91576040517f08c379a0000000000000000000000000000000000000000000000000000000008152600401611a88906122e3565b60405180910390fd5b818103600260008573ffffffffffffffffffffffffffffffffffffffff1673ffffffffffffffffffffffffffffffffffffffff168152602001908152602001600020819055508160046000828254611ae99190612636565b92505081905550600073ffffffffffffffffffffffffffffffffffffffff168373ffffffffffffffffffffffffffffffffffffffff167fddf252ad1be2c89b69c2b068fc378daa952ba7f163c4a11628f55a4df523b3ef84604051611b4e9190612503565b60405180910390a3611b6283600084611df6565b505050565b60008060009054906101000a900473ffffffffffffffffffffffffffffffffffffffff169050816000806101000a81548173ffffffffffffffffffffffffffffffffffffffff021916908373ffffffffffffffffffffffffffffffffffffffff1602179055508173ffffffffffffffffffffffffffffffffffffffff168173ffffffffffffffffffffffffffffffffffffffff167f8be0079c531659141344cd1fd0a4f28419497f9722a3daafe3b4186f6b6457e060405160405180910390a35050565b505050565b6000600860008573ffffffffffffffffffffffffffffffffffffffff1673ffffffffffffffffffffffffffffffffffffffff16815260200190815260200160002060009054906101000a900460ff1680611cd45750600760008473ffffffffffffffffffffffffffffffffffffffff1673ffffffffffffffffffffffffffffffffffffffff16815260200190815260200160002060009054906101000a900460ff16155b15611ce157819050611def565b6000611d116064611d03611cf486610fa8565b86611dfb90919063ffffffff16565b611e1190919063ffffffff16565b905080600260003073ffffffffffffffffffffffffffffffffffffffff1673ffffffffffffffffffffffffffffffffffffffff1681526020019081526020016000206000828254611d629190612555565b92505081905550611d73308261198e565b3073ffffffffffffffffffffffffffffffffffffffff168573ffffffffffffffffffffffffffffffffffffffff167fddf252ad1be2c89b69c2b068fc378daa952ba7f163c4a11628f55a4df523b3ef83604051611dd09190612503565b60405180910390a3611deb8184611e2790919063ffffffff16565b9150505b9392505050565b505050565b60008183611e0991906125dc565b905092915050565b60008183611e1f91906125ab565b905092915050565b60008183611e359190612636565b905092915050565b600081359050611e4c81612c20565b92915050565b600081359050611e6181612c37565b92915050565b600060208284031215611e7957600080fd5b6000611e8784828501611e3d565b91505092915050565b60008060408385031215611ea357600080fd5b6000611eb185828601611e3d565b9250506020611ec285828601611e3d565b9150509250929050565b600080600060608486031215611ee157600080fd5b6000611eef86828701611e3d565b9350506020611f0086828701611e3d565b9250506040611f1186828701611e52565b9150509250925092565b60008060408385031215611f2e57600080fd5b6000611f3c85828601611e3d565b9250506020611f4d85828601611e52565b9150509250929050565b600060208284031215611f6957600080fd5b6000611f7784828501611e52565b91505092915050565b611f898161266a565b82525050565b611f988161267c565b82525050565b6000611fa982612539565b611fb38185612544565b9350611fc38185602086016126bf565b611fcc816127b1565b840191505092915050565b6000611fe4602383612544565b9150611fef826127c2565b604082019050919050565b6000612007602283612544565b915061201282612811565b604082019050919050565b600061202a602683612544565b915061203582612860565b604082019050919050565b600061204d602283612544565b9150612058826128af565b604082019050919050565b6000612070601383612544565b915061207b826128fe565b602082019050919050565b6000612093601d83612544565b915061209e82612927565b602082019050919050565b60006120b6602683612544565b91506120c182612950565b604082019050919050565b60006120d9600383612544565b91506120e48261299f565b602082019050919050565b60006120fc600f83612544565b9150612107826129c8565b602082019050919050565b600061211f601283612544565b915061212a826129f1565b602082019050919050565b6000612142602383612544565b915061214d82612a1a565b604082019050919050565b6000612165602083612544565b915061217082612a69565b602082019050919050565b6000612188602183612544565b915061219382612a92565b604082019050919050565b60006121ab602583612544565b91506121b682612ae1565b604082019050919050565b60006121ce602483612544565b91506121d982612b30565b604082019050919050565b60006121f1601683612544565b91506121fc82612b7f565b602082019050919050565b6000612214602583612544565b915061221f82612ba8565b604082019050919050565b6000612237601f83612544565b915061224282612bf7565b602082019050919050565b612256816126a8565b82525050565b612265816126b2565b82525050565b60006020820190506122806000830184611f80565b92915050565b600060208201905061229b6000830184611f8f565b92915050565b600060208201905081810360008301526122bb8184611f9e565b905092915050565b600060208201905081810360008301526122dc81611fd7565b9050919050565b600060208201905081810360008301526122fc81611ffa565b9050919050565b6000602082019050818103600083015261231c8161201d565b9050919050565b6000602082019050818103600083015261233c81612040565b9050919050565b6000602082019050818103600083015261235c81612063565b9050919050565b6000602082019050818103600083015261237c81612086565b9050919050565b6000602082019050818103600083015261239c816120a9565b9050919050565b600060208201905081810360008301526123bc816120cc565b9050919050565b600060208201905081810360008301526123dc816120ef565b9050919050565b600060208201905081810360008301526123fc81612112565b9050919050565b6000602082019050818103600083015261241c81612135565b9050919050565b6000602082019050818103600083015261243c81612158565b9050919050565b6000602082019050818103600083015261245c8161217b565b9050919050565b6000602082019050818103600083015261247c8161219e565b9050919050565b6000602082019050818103600083015261249c816121c1565b9050919050565b600060208201905081810360008301526124bc816121e4565b9050919050565b600060208201905081810360008301526124dc81612207565b9050919050565b600060208201905081810360008301526124fc8161222a565b9050919050565b6000602082019050612518600083018461224d565b92915050565b6000602082019050612533600083018461225c565b92915050565b600081519050919050565b600082825260208201905092915050565b6000612560826126a8565b915061256b836126a8565b9250827fffffffffffffffffffffffffffffffffffffffffffffffffffffffffffffffff038211156125a05761259f612724565b5b828201905092915050565b60006125b6826126a8565b91506125c1836126a8565b9250826125d1576125d0612753565b5b828204905092915050565b60006125e7826126a8565b91506125f2836126a8565b9250817fffffffffffffffffffffffffffffffffffffffffffffffffffffffffffffffff048311821515161561262b5761262a612724565b5b828202905092915050565b6000612641826126a8565b915061264c836126a8565b92508282101561265f5761265e612724565b5b828203905092915050565b600061267582612688565b9050919050565b60008115159050919050565b600073ffffffffffffffffffffffffffffffffffffffff82169050919050565b6000819050919050565b600060ff82169050919050565b60005b838110156126dd5780820151818401526020810190506126c2565b838111156126ec576000848401525b50505050565b6000600282049050600182168061270a57607f821691505b6020821081141561271e5761271d612782565b5b50919050565b7f4e487b7100000000000000000000000000000000000000000000000000000000600052601160045260246000fd5b7f4e487b7100000000000000000000000000000000000000000000000000000000600052601260045260246000fd5b7f4e487b7100000000000000000000000000000000000000000000000000000000600052602260045260246000fd5b6000601f19601f8301169050919050565b7f45524332303a207472616e7366657220746f20746865207a65726f206164647260008201527f6573730000000000000000000000000000000000000000000000000000000000602082015250565b7f45524332303a206275726e20616d6f756e7420657863656564732062616c616e60008201527f6365000000000000000000000000000000000000000000000000000000000000602082015250565b7f4f776e61626c653a206e6577206f776e657220697320746865207a65726f206160008201527f6464726573730000000000000000000000000000000000000000000000000000602082015250565b7f45524332303a20617070726f766520746f20746865207a65726f20616464726560008201527f7373000000000000000000000000000000000000000000000000000000000000602082015250565b7f4d756c7469706c69657220546f6f204869676800000000000000000000000000600082015250565b7f45524332303a20696e73756666696369656e7420616c6c6f77616e6365000000600082015250565b7f45524332303a207472616e7366657220616d6f756e742065786365656473206260008201527f616c616e63650000000000000000000000000000000000000000000000000000602082015250565b7f4941300000000000000000000000000000000000000000000000000000000000600082015250565b7f61646472657373206973207a65726f0000000000000000000000000000000000600082015250565b7f6c702061646472657373206973207a65726f0000000000000000000000000000600082015250565b7f5661756c744f776e65643a2063616c6c6572206973206e6f742074686520566160008201527f756c740000000000000000000000000000000000000000000000000000000000602082015250565b7f4f776e61626c653a2063616c6c6572206973206e6f7420746865206f776e6572600082015250565b7f45524332303a206275726e2066726f6d20746865207a65726f2061646472657360008201527f7300000000000000000000000000000000000000000000000000000000000000602082015250565b7f45524332303a207472616e736665722066726f6d20746865207a65726f20616460008201527f6472657373000000000000000000000000000000000000000000000000000000602082015250565b7f45524332303a20617070726f76652066726f6d20746865207a65726f2061646460008201527f7265737300000000000000000000000000000000000000000000000000000000602082015250565b7f426173652053656c6c2054617820546f6f204869676800000000000000000000600082015250565b7f45524332303a2064656372656173656420616c6c6f77616e63652062656c6f7760008201527f207a65726f000000000000000000000000000000000000000000000000000000602082015250565b7f45524332303a206d696e7420746f20746865207a65726f206164647265737300600082015250565b612c298161266a565b8114612c3457600080fd5b50565b612c40816126a8565b8114612c4b57600080fd5b5056fea26469706673582212208477fead03c1008f3aaab22d69e42d74236206814cc5193a95eff03721116b2264736f6c63430008040033",
  "linkReferences": {},
  "deployedLinkReferences": {}
}