{
  "_format": "hh-sol-artifact-1",
  "contractName": "ProjectManagement",
  "sourceName": "contracts/Launch/ProjectManagement.sol",
  "abi": [
    {
      "inputs": [
        {
          "internalType": "address",
          "name": "nttAddress_",
          "type": "address"
        }
      ],
      "stateMutability": "nonpayable",
      "type": "constructor"
    },
    {
      "anonymous": false,
      "inputs": [
        {
          "indexed": true,
          "internalType": "address",
          "name": "account",
          "type": "address"
        },
        {
          "indexed": false,
          "internalType": "uint256",
          "name": "payout",
          "type": "uint256"
        }
      ],
      "name": "BlacklistedMember",
      "type": "event"
    },
    {
      "anonymous": false,
      "inputs": [
        {
          "indexed": true,
          "internalType": "address",
          "name": "account",
          "type": "address"
        },
        {
          "indexed": false,
          "internalType": "uint256",
          "name": "payout",
          "type": "uint256"
        },
        {
          "indexed": false,
          "internalType": "uint256",
          "name": "remaining",
          "type": "uint256"
        }
      ],
      "name": "MarketingTokenRedeemed",
      "type": "event"
    },
    {
      "anonymous": false,
      "inputs": [
        {
          "indexed": true,
          "internalType": "address",
          "name": "account",
          "type": "address"
        },
        {
          "indexed": false,
          "internalType": "uint256",
          "name": "amount",
          "type": "uint256"
        },
        {
          "indexed": false,
          "internalType": "uint32",
          "name": "vestingPeriod",
          "type": "uint32"
        }
      ],
      "name": "MemberInfoAdded",
      "type": "event"
    },
    {
      "anonymous": false,
      "inputs": [
        {
          "indexed": true,
          "internalType": "address",
          "name": "previousOwner",
          "type": "address"
        },
        {
          "indexed": true,
          "internalType": "address",
          "name": "newOwner",
          "type": "address"
        }
      ],
      "name": "OwnershipTransferred",
      "type": "event"
    },
    {
      "anonymous": false,
      "inputs": [
        {
          "indexed": true,
          "internalType": "address",
          "name": "account",
          "type": "address"
        },
        {
          "indexed": false,
          "internalType": "uint256",
          "name": "payout",
          "type": "uint256"
        },
        {
          "indexed": false,
          "internalType": "uint256",
          "name": "remaining",
          "type": "uint256"
        }
      ],
      "name": "TeamTokenRedeemed",
      "type": "event"
    },
    {
      "inputs": [
        {
          "internalType": "address",
          "name": "account_",
          "type": "address"
        }
      ],
      "name": "blacklistAndRedeem",
      "outputs": [],
      "stateMutability": "nonpayable",
      "type": "function"
    },
    {
      "inputs": [
        {
          "internalType": "address",
          "name": "account_",
          "type": "address"
        }
      ],
      "name": "checkPayout",
      "outputs": [
        {
          "internalType": "uint256",
          "name": "",
          "type": "uint256"
        }
      ],
      "stateMutability": "view",
      "type": "function"
    },
    {
      "inputs": [
        {
          "internalType": "address",
          "name": "account_",
          "type": "address"
        }
      ],
      "name": "checkPercentVested",
      "outputs": [
        {
          "internalType": "uint32",
          "name": "percentVested_",
          "type": "uint32"
        }
      ],
      "stateMutability": "view",
      "type": "function"
    },
    {
      "inputs": [
        {
          "internalType": "address",
          "name": "account_",
          "type": "address"
        }
      ],
      "name": "checkRemainingVestingPeriod",
      "outputs": [
        {
          "internalType": "uint32",
          "name": "",
          "type": "uint32"
        }
      ],
      "stateMutability": "view",
      "type": "function"
    },
    {
      "inputs": [
        {
          "internalType": "address",
          "name": "account_",
          "type": "address"
        }
      ],
      "name": "isWhitelisted",
      "outputs": [
        {
          "internalType": "bool",
          "name": "",
          "type": "bool"
        }
      ],
      "stateMutability": "view",
      "type": "function"
    },
    {
      "inputs": [
        {
          "internalType": "address",
          "name": "",
          "type": "address"
        }
      ],
      "name": "marketingManager",
      "outputs": [
        {
          "internalType": "bool",
          "name": "",
          "type": "bool"
        }
      ],
      "stateMutability": "view",
      "type": "function"
    },
    {
      "inputs": [],
      "name": "owner",
      "outputs": [
        {
          "internalType": "address",
          "name": "",
          "type": "address"
        }
      ],
      "stateMutability": "view",
      "type": "function"
    },
    {
      "inputs": [
        {
          "internalType": "address",
          "name": "account_",
          "type": "address"
        }
      ],
      "name": "redeem",
      "outputs": [],
      "stateMutability": "nonpayable",
      "type": "function"
    },
    {
      "inputs": [
        {
          "internalType": "address",
          "name": "account_",
          "type": "address"
        },
        {
          "internalType": "uint256",
          "name": "amount",
          "type": "uint256"
        }
      ],
      "name": "redeemTokenForMarketing",
      "outputs": [],
      "stateMutability": "nonpayable",
      "type": "function"
    },
    {
      "inputs": [],
      "name": "renounceOwnership",
      "outputs": [],
      "stateMutability": "nonpayable",
      "type": "function"
    },
    {
      "inputs": [
        {
          "internalType": "address",
          "name": "account_",
          "type": "address"
        }
      ],
      "name": "setMarketingManager",
      "outputs": [],
      "stateMutability": "nonpayable",
      "type": "function"
    },
    {
      "inputs": [
        {
          "internalType": "address",
          "name": "account_",
          "type": "address"
        },
        {
          "internalType": "uint256",
          "name": "amount_",
          "type": "uint256"
        },
        {
          "internalType": "uint32",
          "name": "vestingPeriod_",
          "type": "uint32"
        },
        {
          "internalType": "bool",
          "name": "forTeam",
          "type": "bool"
        }
      ],
      "name": "setMemberInfo",
      "outputs": [],
      "stateMutability": "nonpayable",
      "type": "function"
    },
    {
      "inputs": [],
      "name": "totalRemainingMarketingToken",
      "outputs": [
        {
          "internalType": "uint256",
          "name": "",
          "type": "uint256"
        }
      ],
      "stateMutability": "view",
      "type": "function"
    },
    {
      "inputs": [],
      "name": "totalRemainingTeamToken",
      "outputs": [
        {
          "internalType": "uint256",
          "name": "",
          "type": "uint256"
        }
      ],
      "stateMutability": "view",
      "type": "function"
    },
    {
      "inputs": [
        {
          "internalType": "address",
          "name": "newOwner",
          "type": "address"
        }
      ],
      "name": "transferOwnership",
      "outputs": [],
      "stateMutability": "nonpayable",
      "type": "function"
    }
  ],
  "bytecode": "0x60806040523480156200001157600080fd5b5060405162002468380380620024688339818101604052810190620000379190620001df565b620000576200004b620000fc60201b60201c565b6200010460201b60201c565b600073ffffffffffffffffffffffffffffffffffffffff168173ffffffffffffffffffffffffffffffffffffffff1614156200009257600080fd5b69d3c21bcecceda10000006005819055506969e10de76676d080000060068190555080600760006101000a81548173ffffffffffffffffffffffffffffffffffffffff021916908373ffffffffffffffffffffffffffffffffffffffff1602179055505062000259565b600033905090565b60008060009054906101000a900473ffffffffffffffffffffffffffffffffffffffff169050816000806101000a81548173ffffffffffffffffffffffffffffffffffffffff021916908373ffffffffffffffffffffffffffffffffffffffff1602179055508173ffffffffffffffffffffffffffffffffffffffff168173ffffffffffffffffffffffffffffffffffffffff167f8be0079c531659141344cd1fd0a4f28419497f9722a3daafe3b4186f6b6457e060405160405180910390a35050565b600081519050620001d9816200023f565b92915050565b600060208284031215620001f257600080fd5b60006200020284828501620001c8565b91505092915050565b600062000218826200021f565b9050919050565b600073ffffffffffffffffffffffffffffffffffffffff82169050919050565b6200024a816200020b565b81146200025657600080fd5b50565b6121ff80620002696000396000f3fe608060405234801561001057600080fd5b50600436106100f55760003560e01c80637653a3441161009757806390b793fb1161006657806390b793fb1461028457806395a2251f146102a2578063b1e2794e146102be578063f2fde38b146102da576100f5565b80637653a344146101d65780637ca36d07146102065780638da5cb5b146102365780638f2d392814610254576100f5565b80633d7fc836116100d35780633d7fc83614610162578063459b135e1461019257806356228b61146101ae578063715018a6146101cc576100f5565b8063037aae45146100fa5780630e5d3d9e146101165780633af32abf14610132575b600080fd5b610114600480360381019061010f91906119e2565b6102f6565b005b610130600480360381019061012b9190611a47565b610407565b005b61014c600480360381019061014791906119e2565b610759565b6040516101599190611c34565b60405180910390f35b61017c600480360381019061017791906119e2565b61082b565b6040516101899190611c34565b60405180910390f35b6101ac60048036038101906101a791906119e2565b61084b565b005b6101b6610b7f565b6040516101c39190611d0f565b60405180910390f35b6101d4610b89565b005b6101f060048036038101906101eb91906119e2565b610c11565b6040516101fd9190611d0f565b60405180910390f35b610220600480360381019061021b91906119e2565b610cd9565b60405161022d9190611da5565b60405180910390f35b61023e610dc1565b60405161024b9190611bf0565b60405180910390f35b61026e600480360381019061026991906119e2565b610dea565b60405161027b9190611da5565b60405180910390f35b61028c610f35565b6040516102999190611d0f565b60405180910390f35b6102bc60048036038101906102b791906119e2565b610f3f565b005b6102d860048036038101906102d39190611a0b565b611468565b005b6102f460048036038101906102ef91906119e2565b61160c565b005b6102fe611704565b73ffffffffffffffffffffffffffffffffffffffff1661031c610dc1565b73ffffffffffffffffffffffffffffffffffffffff1614610372576040517f08c379a000000000000000000000000000000000000000000000000000000000815260040161036990611ccf565b60405180910390fd5b600073ffffffffffffffffffffffffffffffffffffffff168173ffffffffffffffffffffffffffffffffffffffff1614156103ac57600080fd5b6001600360008373ffffffffffffffffffffffffffffffffffffffff1673ffffffffffffffffffffffffffffffffffffffff16815260200190815260200160002060006101000a81548160ff02191690831515021790555050565b61040f611704565b73ffffffffffffffffffffffffffffffffffffffff1661042d610dc1565b73ffffffffffffffffffffffffffffffffffffffff1614610483576040517f08c379a000000000000000000000000000000000000000000000000000000000815260040161047a90611ccf565b60405180910390fd5b600073ffffffffffffffffffffffffffffffffffffffff168473ffffffffffffffffffffffffffffffffffffffff1614156104bd57600080fd5b600083116104ca57600080fd5b60008263ffffffff16116104dd57600080fd5b80156105015782600560008282546104f59190611f21565b9250508190555061051b565b82600660008282546105139190611f21565b925050819055505b60006006541015610561576040517f08c379a000000000000000000000000000000000000000000000000000000000815260040161055890611c6f565b60405180910390fd5b600060055410156105a7576040517f08c379a000000000000000000000000000000000000000000000000000000000815260040161059e90611c6f565b60405180910390fd5b60018060008673ffffffffffffffffffffffffffffffffffffffff1673ffffffffffffffffffffffffffffffffffffffff16815260200190815260200160002060006101000a81548160ff0219169083151502179055506040518060a001604052808481526020018363ffffffff1681526020014263ffffffff1681526020014263ffffffff1681526020016000815250600260008673ffffffffffffffffffffffffffffffffffffffff1673ffffffffffffffffffffffffffffffffffffffff1681526020019081526020016000206000820151816000015560208201518160010160006101000a81548163ffffffff021916908363ffffffff16021790555060408201518160010160046101000a81548163ffffffff021916908363ffffffff16021790555060608201518160010160086101000a81548163ffffffff021916908363ffffffff160217905550608082015181600201559050508373ffffffffffffffffffffffffffffffffffffffff167ff93b16776f36acac478282532261fe30abbf9abb48ae1caeea7c48b7ab978e42848460405161074b929190611d7c565b60405180910390a250505050565b6000610763611704565b73ffffffffffffffffffffffffffffffffffffffff16610781610dc1565b73ffffffffffffffffffffffffffffffffffffffff16146107d7576040517f08c379a00000000000000000000000000000000000000000000000000000000081526004016107ce90611ccf565b60405180910390fd5b600160008373ffffffffffffffffffffffffffffffffffffffff1673ffffffffffffffffffffffffffffffffffffffff16815260200190815260200160002060009054906101000a900460ff169050919050565b60036020528060005260406000206000915054906101000a900460ff1681565b610853611704565b73ffffffffffffffffffffffffffffffffffffffff16610871610dc1565b73ffffffffffffffffffffffffffffffffffffffff16146108c7576040517f08c379a00000000000000000000000000000000000000000000000000000000081526004016108be90611ccf565b60405180910390fd5b6000600260008373ffffffffffffffffffffffffffffffffffffffff1673ffffffffffffffffffffffffffffffffffffffff1681526020019081526020016000206040518060a0016040529081600082015481526020016001820160009054906101000a900463ffffffff1663ffffffff1663ffffffff1681526020016001820160049054906101000a900463ffffffff1663ffffffff1663ffffffff1681526020016001820160089054906101000a900463ffffffff1663ffffffff1663ffffffff16815260200160028201548152505090506000816000015114156109ae5750610b7c565b6000600160008473ffffffffffffffffffffffffffffffffffffffff1673ffffffffffffffffffffffffffffffffffffffff16815260200190815260200160002060006101000a81548160ff0219169083151502179055506000610a1183610dea565b90506000612710610a358363ffffffff16856000015161170c90919063ffffffff16565b610a3f9190611e27565b90508060046000828254610a539190611dd1565b92505081905550610a7181846000015161174390919063ffffffff16565b60056000828254610a829190611dd1565b92505081905550600260008573ffffffffffffffffffffffffffffffffffffffff1673ffffffffffffffffffffffffffffffffffffffff1681526020019081526020016000206000808201600090556001820160006101000a81549063ffffffff02191690556001820160046101000a81549063ffffffff02191690556001820160086101000a81549063ffffffff0219169055600282016000905550508373ffffffffffffffffffffffffffffffffffffffff167fd442aca1fb18672e6741b73f3c884a3170c9403594e2295a96d35655ae1a384c82604051610b669190611d0f565b60405180910390a2610b788482611766565b5050505b50565b6000600654905090565b610b91611704565b73ffffffffffffffffffffffffffffffffffffffff16610baf610dc1565b73ffffffffffffffffffffffffffffffffffffffff1614610c05576040517f08c379a0000000000000000000000000000000000000000000000000000000008152600401610bfc90611ccf565b60405180910390fd5b610c0f600061181a565b565b6000610c1b611704565b73ffffffffffffffffffffffffffffffffffffffff16610c39610dc1565b73ffffffffffffffffffffffffffffffffffffffff1614610c8f576040517f08c379a0000000000000000000000000000000000000000000000000000000008152600401610c8690611ccf565b60405180910390fd5b600260008373ffffffffffffffffffffffffffffffffffffffff1673ffffffffffffffffffffffffffffffffffffffff168152602001908152602001600020600001549050919050565b6000600160003373ffffffffffffffffffffffffffffffffffffffff1673ffffffffffffffffffffffffffffffffffffffff16815260200190815260200160002060009054906101000a900460ff16610d67576040517f08c379a0000000000000000000000000000000000000000000000000000000008152600401610d5e90611caf565b60405180910390fd5b600260008373ffffffffffffffffffffffffffffffffffffffff1673ffffffffffffffffffffffffffffffffffffffff16815260200190815260200160002060010160009054906101000a900463ffffffff169050919050565b60008060009054906101000a900473ffffffffffffffffffffffffffffffffffffffff16905090565b600080600260008473ffffffffffffffffffffffffffffffffffffffff1673ffffffffffffffffffffffffffffffffffffffff1681526020019081526020016000206040518060a0016040529081600082015481526020016001820160009054906101000a900463ffffffff1663ffffffff1663ffffffff1681526020016001820160049054906101000a900463ffffffff1663ffffffff1663ffffffff1681526020016001820160089054906101000a900463ffffffff1663ffffffff1663ffffffff16815260200160028201548152505090506000610ede82606001514263ffffffff166118de90919063ffffffff16565b9050816020015163ffffffff168163ffffffff1610610f01576127109250610f2e565b8160200151610f216127108363ffffffff1661190d90919063ffffffff16565b610f2b9190611e58565b92505b5050919050565b6000600554905090565b600160003373ffffffffffffffffffffffffffffffffffffffff1673ffffffffffffffffffffffffffffffffffffffff16815260200190815260200160002060009054906101000a900460ff16610fcb576040517f08c379a0000000000000000000000000000000000000000000000000000000008152600401610fc290611caf565b60405180910390fd5b600073ffffffffffffffffffffffffffffffffffffffff168173ffffffffffffffffffffffffffffffffffffffff16141561100557600080fd5b600061101082610dea565b90506000600260008473ffffffffffffffffffffffffffffffffffffffff1673ffffffffffffffffffffffffffffffffffffffff1681526020019081526020016000206040518060a0016040529081600082015481526020016001820160009054906101000a900463ffffffff1663ffffffff1663ffffffff1681526020016001820160049054906101000a900463ffffffff1663ffffffff1663ffffffff1681526020016001820160089054906101000a900463ffffffff1663ffffffff1663ffffffff16815260200160028201548152505090506127108263ffffffff1614156112125780600001516004600082825461110c9190611dd1565b92505081905550600260008473ffffffffffffffffffffffffffffffffffffffff1673ffffffffffffffffffffffffffffffffffffffff1681526020019081526020016000206000808201600090556001820160006101000a81549063ffffffff02191690556001820160046101000a81549063ffffffff02191690556001820160086101000a81549063ffffffff0219169055600282016000905550508273ffffffffffffffffffffffffffffffffffffffff167f42d4c54385359f09565f7dc0de5f0ac263ad9857153d0c146c2c397d8be34739826000015160006040516111f7929190611d2a565b60405180910390a261120d838260000151611766565b611463565b60006127106112348463ffffffff16846000015161170c90919063ffffffff16565b61123e9190611e27565b905080600460008282546112529190611dd1565b925050819055506040518060a0016040528061127b83856000015161174390919063ffffffff16565b81526020016112b96112a085606001514263ffffffff166118de90919063ffffffff16565b856020015163ffffffff166118de90919063ffffffff16565b63ffffffff168152602001836040015163ffffffff1681526020014263ffffffff1681526020016112f784608001518461195690919063ffffffff16565b815250600260008673ffffffffffffffffffffffffffffffffffffffff1673ffffffffffffffffffffffffffffffffffffffff1681526020019081526020016000206000820151816000015560208201518160010160006101000a81548163ffffffff021916908363ffffffff16021790555060408201518160010160046101000a81548163ffffffff021916908363ffffffff16021790555060608201518160010160086101000a81548163ffffffff021916908363ffffffff160217905550608082015181600201559050508373ffffffffffffffffffffffffffffffffffffffff167f42d4c54385359f09565f7dc0de5f0ac263ad9857153d0c146c2c397d8be3473982600260008873ffffffffffffffffffffffffffffffffffffffff1673ffffffffffffffffffffffffffffffffffffffff1681526020019081526020016000206000015460405161144f929190611d53565b60405180910390a26114618482611766565b505b505050565b600073ffffffffffffffffffffffffffffffffffffffff168273ffffffffffffffffffffffffffffffffffffffff1614156114a257600080fd5b600081116114af57600080fd5b600360003373ffffffffffffffffffffffffffffffffffffffff1673ffffffffffffffffffffffffffffffffffffffff16815260200190815260200160002060009054906101000a900460ff1661153b576040517f08c379a000000000000000000000000000000000000000000000000000000000815260040161153290611c8f565b60405180910390fd5b60006115528260065461174390919063ffffffff16565b1015611593576040517f08c379a000000000000000000000000000000000000000000000000000000000815260040161158a90611cef565b60405180910390fd5b80600660008282546115a59190611f21565b925050819055508173ffffffffffffffffffffffffffffffffffffffff167f54d9cea211d58a24306832c3e066100027cd3efcb429876cf40f1cf19322c2e6826006546040516115f6929190611d53565b60405180910390a26116088282611766565b5050565b611614611704565b73ffffffffffffffffffffffffffffffffffffffff16611632610dc1565b73ffffffffffffffffffffffffffffffffffffffff1614611688576040517f08c379a000000000000000000000000000000000000000000000000000000000815260040161167f90611ccf565b60405180910390fd5b600073ffffffffffffffffffffffffffffffffffffffff168173ffffffffffffffffffffffffffffffffffffffff1614156116f8576040517f08c379a00000000000000000000000000000000000000000000000000000000081526004016116ef90611c4f565b60405180910390fd5b6117018161181a565b50565b600033905090565b6000808314806117345750818383856117259190611e89565b9250826117329190611e27565b145b61173d57600080fd5b92915050565b60008282846117529190611f21565b915081111561176057600080fd5b92915050565b600760009054906101000a900473ffffffffffffffffffffffffffffffffffffffff1673ffffffffffffffffffffffffffffffffffffffff1663a9059cbb83836040518363ffffffff1660e01b81526004016117c3929190611c0b565b602060405180830381600087803b1580156117dd57600080fd5b505af11580156117f1573d6000803e3d6000fd5b505050506040513d601f19601f820116820180604052508101906118159190611aaa565b505050565b60008060009054906101000a900473ffffffffffffffffffffffffffffffffffffffff169050816000806101000a81548173ffffffffffffffffffffffffffffffffffffffff021916908373ffffffffffffffffffffffffffffffffffffffff1602179055508173ffffffffffffffffffffffffffffffffffffffff168173ffffffffffffffffffffffffffffffffffffffff167f8be0079c531659141344cd1fd0a4f28419497f9722a3daafe3b4186f6b6457e060405160405180910390a35050565b60008263ffffffff1682846118f39190611f55565b91508163ffffffff16111561190757600080fd5b92915050565b6000808363ffffffff16148061194757508163ffffffff168383856119329190611ee3565b92508261193f9190611e58565b63ffffffff16145b61195057600080fd5b92915050565b60008282846119659190611dd1565b915081101561197357600080fd5b92915050565b6000813590506119888161216d565b92915050565b60008135905061199d81612184565b92915050565b6000815190506119b281612184565b92915050565b6000813590506119c78161219b565b92915050565b6000813590506119dc816121b2565b92915050565b6000602082840312156119f457600080fd5b6000611a0284828501611979565b91505092915050565b60008060408385031215611a1e57600080fd5b6000611a2c85828601611979565b9250506020611a3d858286016119b8565b9150509250929050565b60008060008060808587031215611a5d57600080fd5b6000611a6b87828801611979565b9450506020611a7c878288016119b8565b9350506040611a8d878288016119cd565b9250506060611a9e8782880161198e565b91505092959194509250565b600060208284031215611abc57600080fd5b6000611aca848285016119a3565b91505092915050565b611adc81611f89565b82525050565b611aeb81611f9b565b82525050565b611afa81611fe1565b82525050565b6000611b0d602683611dc0565b9150611b1882612051565b604082019050919050565b6000611b30601c83611dc0565b9150611b3b826120a0565b602082019050919050565b6000611b53601783611dc0565b9150611b5e826120c9565b602082019050919050565b6000611b76601183611dc0565b9150611b81826120f2565b602082019050919050565b6000611b99602083611dc0565b9150611ba48261211b565b602082019050919050565b6000611bbc601c83611dc0565b9150611bc782612144565b602082019050919050565b611bdb81611fc7565b82525050565b611bea81611fd1565b82525050565b6000602082019050611c056000830184611ad3565b92915050565b6000604082019050611c206000830185611ad3565b611c2d6020830184611bd2565b9392505050565b6000602082019050611c496000830184611ae2565b92915050565b60006020820190508181036000830152611c6881611b00565b9050919050565b60006020820190508181036000830152611c8881611b23565b9050919050565b60006020820190508181036000830152611ca881611b46565b9050919050565b60006020820190508181036000830152611cc881611b69565b9050919050565b60006020820190508181036000830152611ce881611b8c565b9050919050565b60006020820190508181036000830152611d0881611baf565b9050919050565b6000602082019050611d246000830184611bd2565b92915050565b6000604082019050611d3f6000830185611bd2565b611d4c6020830184611af1565b9392505050565b6000604082019050611d686000830185611bd2565b611d756020830184611bd2565b9392505050565b6000604082019050611d916000830185611bd2565b611d9e6020830184611be1565b9392505050565b6000602082019050611dba6000830184611be1565b92915050565b600082825260208201905092915050565b6000611ddc82611fc7565b9150611de783611fc7565b9250827fffffffffffffffffffffffffffffffffffffffffffffffffffffffffffffffff03821115611e1c57611e1b611ff3565b5b828201905092915050565b6000611e3282611fc7565b9150611e3d83611fc7565b925082611e4d57611e4c612022565b5b828204905092915050565b6000611e6382611fd1565b9150611e6e83611fd1565b925082611e7e57611e7d612022565b5b828204905092915050565b6000611e9482611fc7565b9150611e9f83611fc7565b9250817fffffffffffffffffffffffffffffffffffffffffffffffffffffffffffffffff0483118215151615611ed857611ed7611ff3565b5b828202905092915050565b6000611eee82611fd1565b9150611ef983611fd1565b92508163ffffffff0483118215151615611f1657611f15611ff3565b5b828202905092915050565b6000611f2c82611fc7565b9150611f3783611fc7565b925082821015611f4a57611f49611ff3565b5b828203905092915050565b6000611f6082611fd1565b9150611f6b83611fd1565b925082821015611f7e57611f7d611ff3565b5b828203905092915050565b6000611f9482611fa7565b9050919050565b60008115159050919050565b600073ffffffffffffffffffffffffffffffffffffffff82169050919050565b6000819050919050565b600063ffffffff82169050919050565b6000611fec82611fc7565b9050919050565b7f4e487b7100000000000000000000000000000000000000000000000000000000600052601160045260246000fd5b7f4e487b7100000000000000000000000000000000000000000000000000000000600052601260045260246000fd5b7f4f776e61626c653a206e6577206f776e657220697320746865207a65726f206160008201527f6464726573730000000000000000000000000000000000000000000000000000602082015250565b7f496e73756666696369656e7420546f6b656e7320746f20616c6c6f7400000000600082015250565b7f4e6f742061206d61726b6574696e67204d616e61676572000000000000000000600082015250565b7f4e6f742061207465616d206d656d626572000000000000000000000000000000600082015250565b7f4f776e61626c653a2063616c6c6572206973206e6f7420746865206f776e6572600082015250565b7f496e73756666696369656e7420616d6f756e7420746f20616c6c6f7400000000600082015250565b61217681611f89565b811461218157600080fd5b50565b61218d81611f9b565b811461219857600080fd5b50565b6121a481611fc7565b81146121af57600080fd5b50565b6121bb81611fd1565b81146121c657600080fd5b5056fea2646970667358221220061c465d985117c077de525ae59902866a8516e1ef3e1928d9b7da9b976b4a1464736f6c63430008040033",
  "linkReferences": {},
  "deployedLinkReferences": {}
}