{
  "_format": "hh-sol-artifact-1",
  "contractName": "RewardDistributor",
  "sourceName": "contracts/coreContracts/RewardDistributor.sol",
  "abi": [
    {
      "inputs": [
        {
          "internalType": "address",
          "name": "stakingContract_",
          "type": "address"
        },
        {
          "internalType": "address",
          "name": "stakedOrfiAddress_",
          "type": "address"
        }
      ],
      "stateMutability": "nonpayable",
      "type": "constructor"
    },
    {
      "anonymous": false,
      "inputs": [
        {
          "indexed": true,
          "internalType": "address",
          "name": "previousOwner",
          "type": "address"
        },
        {
          "indexed": true,
          "internalType": "address",
          "name": "newOwner",
          "type": "address"
        }
      ],
      "name": "OwnershipTransferred",
      "type": "event"
    },
    {
      "anonymous": false,
      "inputs": [
        {
          "indexed": true,
          "internalType": "address",
          "name": "account",
          "type": "address"
        },
        {
          "indexed": false,
          "internalType": "uint256",
          "name": "amount",
          "type": "uint256"
        },
        {
          "indexed": false,
          "internalType": "uint256",
          "name": "rewardCycle",
          "type": "uint256"
        }
      ],
      "name": "RedeemedRewards",
      "type": "event"
    },
    {
      "anonymous": false,
      "inputs": [
        {
          "indexed": false,
          "internalType": "uint256",
          "name": "allocatedRewards",
          "type": "uint256"
        },
        {
          "indexed": false,
          "internalType": "uint256",
          "name": "totalStakedOrfi",
          "type": "uint256"
        },
        {
          "indexed": false,
          "internalType": "uint8",
          "name": "rewardCycle",
          "type": "uint8"
        }
      ],
      "name": "RewardCycleCompleted",
      "type": "event"
    },
    {
      "anonymous": false,
      "inputs": [
        {
          "indexed": true,
          "internalType": "address",
          "name": "account",
          "type": "address"
        },
        {
          "indexed": false,
          "internalType": "uint256",
          "name": "amount",
          "type": "uint256"
        },
        {
          "indexed": false,
          "internalType": "uint256",
          "name": "averageTime",
          "type": "uint256"
        }
      ],
      "name": "StakeBalanceUpdated",
      "type": "event"
    },
    {
      "anonymous": false,
      "inputs": [
        {
          "indexed": true,
          "internalType": "address",
          "name": "account",
          "type": "address"
        },
        {
          "indexed": false,
          "internalType": "uint256",
          "name": "amount",
          "type": "uint256"
        },
        {
          "indexed": false,
          "internalType": "uint256",
          "name": "averageTime",
          "type": "uint256"
        }
      ],
      "name": "UnstakeBalanceUpdated",
      "type": "event"
    },
    {
      "inputs": [
        {
          "internalType": "address",
          "name": "",
          "type": "address"
        },
        {
          "internalType": "uint8",
          "name": "",
          "type": "uint8"
        }
      ],
      "name": "_userStakeInfoToRewardCycleMapping",
      "outputs": [
        {
          "internalType": "uint256",
          "name": "stakedOrfiAmount",
          "type": "uint256"
        },
        {
          "internalType": "uint32",
          "name": "averageInvestedTime",
          "type": "uint32"
        },
        {
          "internalType": "uint8",
          "name": "rewardCycle",
          "type": "uint8"
        },
        {
          "internalType": "bool",
          "name": "redeemed",
          "type": "bool"
        }
      ],
      "stateMutability": "view",
      "type": "function"
    },
    {
      "inputs": [
        {
          "internalType": "uint256",
          "name": "rewardAmount",
          "type": "uint256"
        }
      ],
      "name": "completeRewardCycle",
      "outputs": [],
      "stateMutability": "nonpayable",
      "type": "function"
    },
    {
      "inputs": [],
      "name": "currentRewardCycle",
      "outputs": [
        {
          "internalType": "uint8",
          "name": "",
          "type": "uint8"
        }
      ],
      "stateMutability": "view",
      "type": "function"
    },
    {
      "inputs": [
        {
          "internalType": "uint8",
          "name": "rewardCycleId",
          "type": "uint8"
        }
      ],
      "name": "getRewardCycleTimeWindow",
      "outputs": [
        {
          "internalType": "uint32",
          "name": "startTime_",
          "type": "uint32"
        },
        {
          "internalType": "uint32",
          "name": "endTime_",
          "type": "uint32"
        }
      ],
      "stateMutability": "view",
      "type": "function"
    },
    {
      "inputs": [
        {
          "internalType": "uint8",
          "name": "rewardCycleId",
          "type": "uint8"
        }
      ],
      "name": "getTotalRewardsForCycle",
      "outputs": [
        {
          "internalType": "uint256",
          "name": "",
          "type": "uint256"
        }
      ],
      "stateMutability": "view",
      "type": "function"
    },
    {
      "inputs": [
        {
          "internalType": "address",
          "name": "account_",
          "type": "address"
        }
      ],
      "name": "getTotalRewardsForUser",
      "outputs": [
        {
          "internalType": "uint256",
          "name": "",
          "type": "uint256"
        }
      ],
      "stateMutability": "view",
      "type": "function"
    },
    {
      "inputs": [],
      "name": "owner",
      "outputs": [
        {
          "internalType": "address",
          "name": "",
          "type": "address"
        }
      ],
      "stateMutability": "view",
      "type": "function"
    },
    {
      "inputs": [
        {
          "internalType": "address",
          "name": "account_",
          "type": "address"
        },
        {
          "internalType": "uint8",
          "name": "rewardCycle_",
          "type": "uint8"
        }
      ],
      "name": "redeemRewardsForACycle",
      "outputs": [],
      "stateMutability": "nonpayable",
      "type": "function"
    },
    {
      "inputs": [
        {
          "internalType": "address",
          "name": "account_",
          "type": "address"
        }
      ],
      "name": "redeemTotalRewardsForUser",
      "outputs": [],
      "stateMutability": "nonpayable",
      "type": "function"
    },
    {
      "inputs": [],
      "name": "renounceOwnership",
      "outputs": [],
      "stateMutability": "nonpayable",
      "type": "function"
    },
    {
      "inputs": [
        {
          "internalType": "address",
          "name": "account_",
          "type": "address"
        },
        {
          "internalType": "uint8",
          "name": "rewardCycle_",
          "type": "uint8"
        }
      ],
      "name": "rewardsForACycle",
      "outputs": [
        {
          "internalType": "uint256",
          "name": "",
          "type": "uint256"
        }
      ],
      "stateMutability": "view",
      "type": "function"
    },
    {
      "inputs": [
        {
          "internalType": "address",
          "name": "stableCoinAddress_",
          "type": "address"
        }
      ],
      "name": "setStableCoinAddress",
      "outputs": [],
      "stateMutability": "nonpayable",
      "type": "function"
    },
    {
      "inputs": [
        {
          "internalType": "address",
          "name": "treasuryAddress_",
          "type": "address"
        }
      ],
      "name": "setTreasuryAddress",
      "outputs": [],
      "stateMutability": "nonpayable",
      "type": "function"
    },
    {
      "inputs": [
        {
          "internalType": "address",
          "name": "to_",
          "type": "address"
        },
        {
          "internalType": "uint256",
          "name": "amount",
          "type": "uint256"
        }
      ],
      "name": "stake",
      "outputs": [],
      "stateMutability": "nonpayable",
      "type": "function"
    },
    {
      "inputs": [],
      "name": "stakedOrfiAddress",
      "outputs": [
        {
          "internalType": "address",
          "name": "",
          "type": "address"
        }
      ],
      "stateMutability": "view",
      "type": "function"
    },
    {
      "inputs": [],
      "name": "stakingContract",
      "outputs": [
        {
          "internalType": "address",
          "name": "",
          "type": "address"
        }
      ],
      "stateMutability": "view",
      "type": "function"
    },
    {
      "inputs": [
        {
          "internalType": "address",
          "name": "newOwner",
          "type": "address"
        }
      ],
      "name": "transferOwnership",
      "outputs": [],
      "stateMutability": "nonpayable",
      "type": "function"
    },
    {
      "inputs": [
        {
          "internalType": "address",
          "name": "to_",
          "type": "address"
        },
        {
          "internalType": "uint256",
          "name": "amount",
          "type": "uint256"
        }
      ],
      "name": "unstake",
      "outputs": [],
      "stateMutability": "nonpayable",
      "type": "function"
    }
  ],
  "bytecode": "0x60806040523480156200001157600080fd5b5060405162001c3a38038062001c3a833981016040819052620000349162000145565b6200003f33620000d8565b6001600160a01b0382166200005357600080fd5b6001600160a01b0381166200006757600080fd5b6000805460ff60a01b1916600160a01b90811780835560088390550460ff168152600160205260409020805463ffffffff421663ffffffff19909116179055600480546001600160a01b039384166001600160a01b031991821617909155600580549290931691161790556200017c565b600080546001600160a01b038381166001600160a01b0319831681178455604051919092169283917f8be0079c531659141344cd1fd0a4f28419497f9722a3daafe3b4186f6b6457e09190a35050565b80516001600160a01b03811681146200014057600080fd5b919050565b6000806040838503121562000158578182fd5b620001638362000128565b9150620001736020840162000128565b90509250929050565b611aae806200018c6000396000f3fe608060405234801561001057600080fd5b50600436106101165760003560e01c806388d1940f116100a2578063c2a672e011610071578063c2a672e0146102fb578063ce7ae0e61461030e578063ee99205c14610321578063f2fde38b14610332578063fa38cdc51461034557600080fd5b806388d1940f1461028c5780638da5cb5b146102b1578063adc9772e146102c2578063b5185df6146102d557600080fd5b806366503312116100e957806366503312146101815780636bb65afa146101a25780636cc81cc4146101b55780636e93e9f214610232578063715018a61461028457600080fd5b806344879b3b1461011b57806344a71036146101305780634dd7dee0146101435780636605bfda1461016e575b600080fd5b61012e6101293660046117f7565b610358565b005b61012e61013e36600461183a565b6103c0565b60005461015790600160a01b900460ff1681565b60405160ff90911681526020015b60405180910390f35b61012e61017c3660046117f7565b61050e565b61019461018f3660046117f7565b61056d565b604051908152602001610165565b6101946101b036600461183a565b6105f5565b6102036101c336600461183a565b60036020908152600092835260408084209091529082529020805460019091015463ffffffff81169060ff600160201b8204811691600160281b90041684565b6040805194855263ffffffff909316602085015260ff9091169183019190915215156060820152608001610165565b6102676102403660046118bc565b60ff1660009081526001602052604090205463ffffffff80821692600160201b9092041690565b6040805163ffffffff938416815292909116602083015201610165565b61012e61080c565b6005546001600160a01b03165b6040516001600160a01b039091168152602001610165565b6000546001600160a01b0316610299565b61012e6102d0366004611811565b610842565b6101946102e33660046118bc565b60ff1660009081526001602052604090206002015490565b61012e610309366004611811565b610893565b61012e61031c36600461188c565b6108df565b6004546001600160a01b0316610299565b61012e6103403660046117f7565b610b0b565b61012e6103533660046117f7565b610ba6565b6000546001600160a01b0316331461038b5760405162461bcd60e51b815260040161038290611925565b60405180910390fd5b6001600160a01b03811661039e57600080fd5b600680546001600160a01b0319166001600160a01b0392909216919091179055565b60006103cc83836105f5565b6001600160a01b038416600090815260036020908152604080832060ff871684529091528120600101805465ff00000000001916600160281b17905560088054929350839290919061041f9084906119d6565b90915550506001600160a01b0383811660009081526002602052604090819020805460ff191660ff8616179055600754600654915162b0eee360e41b815291831660048301526024820184905290911690630b0eee3090604401600060405180830381600087803b15801561049357600080fd5b505af11580156104a7573d6000803e3d6000fd5b50506006546104c392506001600160a01b031690508483610c1b565b6040805182815260ff841660208201526001600160a01b038516917f29f54648bf4cdde44fd5ab419946327cf486052f3f89c2a5d87470351ce2850d910160405180910390a2505050565b6000546001600160a01b031633146105385760405162461bcd60e51b815260040161038290611925565b6001600160a01b03811661054b57600080fd5b600780546001600160a01b0319166001600160a01b0392909216919091179055565b60006001600160a01b03821661058257600080fd5b6001600160a01b03821660009081526002602052604081205481906105ab9060ff166001611972565b90505b60005460ff600160a01b909104811690821610156105ee576105d084826105f5565b6105da908361195a565b9150806105e681611a42565b9150506105ae565b5092915050565b60006001600160a01b03831661060a57600080fd5b60005460ff600160a01b9091048116908316106106605760405162461bcd60e51b8152602060048201526014602482015273496e76616c696420526577617264204379636c6560601b6044820152606401610382565b6001600160a01b038316600090815260036020908152604080832060ff80871685529083529281902081516080810183528154815260019091015463ffffffff811693820193909352600160201b8304841691810191909152600160281b90910490911615801560608301526107185760405162461bcd60e51b815260206004820152601960248201527f557365722048617320616c72656164792052656465656d6564000000000000006044820152606401610382565b805161075b5760405162461bcd60e51b815260206004820152601260248201527105374616b656420416d6f756e7420697320360741b6044820152606401610382565b60ff831660009081526001602081815260408084208151608081018352815463ffffffff808216808452600160201b90920481169583018690529583015493820193909352600290910154606082015293926107b9929190610c6d16565b905060006107d78263ffffffff16856020015163ffffffff16610c94565b905060006107ed85600001518560400151610cd4565b90506107fe82828660600151610cef565b955050505050505b92915050565b6000546001600160a01b031633146108365760405162461bcd60e51b815260040161038290611925565b6108406000610d20565b565b6004546001600160a01b031633146108825760405162461bcd60e51b81526020600482015260036024820152624f534360e81b6044820152606401610382565b61088e82826001610d70565b505050565b6004546001600160a01b031633146108d35760405162461bcd60e51b81526020600482015260036024820152624f534360e81b6044820152606401610382565b61088e82826000610d70565b6000546001600160a01b031633146109095760405162461bcd60e51b815260040161038290611925565b6000811161091657600080fd5b60008054600160a01b900460ff168152600160208181526040928390208351608081018552815463ffffffff90811682529190930154838501524216828201526060820184905260055483516318160ddd60e01b8152935192936001600160a01b03909116926318160ddd92600480840193919291829003018186803b15801561099f57600080fd5b505afa1580156109b3573d6000803e3d6000fd5b505050506040513d601f19601f820116820180604052508101906109d791906118a4565b60408083019182526000805460ff600160a01b91829004811683526001602081815285852088518154928a015163ffffffff908116600160201b0267ffffffffffffffff1990941691161791909117815595519086018190556060870151600290960195909555915492517fb5a927304116e39aa3a6faa912604add4565a926be6ec77c5caa602e5811b5bf94610a89948894919390041690928352602083019190915260ff16604082015260600190565b60405180910390a160008054600160a01b900460ff16906014610aab83611a42565b91906101000a81548160ff021916908360ff160217905550508160086000828254610ad6919061195a565b909155505060008054600160a01b900460ff168152600160205260409020805463ffffffff19164263ffffffff161790555050565b6000546001600160a01b03163314610b355760405162461bcd60e51b815260040161038290611925565b6001600160a01b038116610b9a5760405162461bcd60e51b815260206004820152602660248201527f4f776e61626c653a206e6577206f776e657220697320746865207a65726f206160448201526564647265737360d01b6064820152608401610382565b610ba381610d20565b50565b6001600160a01b038116610bb957600080fd5b6001600160a01b038116600090815260026020526040812054610be09060ff166001611972565b90505b60005460ff600160a01b90910481169082161015610c1757610c0582826103c0565b80610c0f81611a42565b915050610be3565b5050565b604080516001600160a01b038416602482015260448082018490528251808303909101815260649091019091526020810180516001600160e01b031663a9059cbb60e01b17905261088e908490611067565b600063ffffffff8316610c8083856119ed565b91508163ffffffff16111561080657600080fd5b6000610ccd66038d7ea4c6800080610cbd610cb8610cb28888611139565b88611154565b61128f565b610cc79190611997565b906112af565b9392505050565b6000610ccd66038d7ea4c6800080610cbd610cb88787611154565b6000610d186ec097ce7bc90715b34b9f1000000000610d1284610cc788886112af565b906112dc565b949350505050565b600080546001600160a01b038381166001600160a01b0319831681178455604051919092169283917f8be0079c531659141344cd1fd0a4f28419497f9722a3daafe3b4186f6b6457e09190a35050565b6001600160a01b0383166000908152600360209081526040808320835460ff600160a01b9091048116855290835281842082516080810184528154815260019091015463ffffffff811694820194909452600160201b8404821692810192909252600160281b909204909116151560608201528215610f255760208181015160008054600160a01b900460ff168152600190925260408220548351610e1d929163ffffffff16908861131e565b9050610e3181670de0b6b3a76400006112dc565b63ffffffff90811660208401528251610e4c91879061138a16565b82526000805460ff600160a01b909104811660408086018281526001600160a01b038b168086526003602090815283872094875293845294829020875181559287015160019093018054915160608901511515600160281b0265ff00000000001991909616600160201b0264ffffffffff1990931663ffffffff909516949094179190911792909216929092179055517f388581407fcab28d7eaeffaf92f1716df2203258960164e8401a02b1efb5c11d90610f149088908590918252602082015260400190565b60405180910390a29150610ccd9050565b8051610f319085611139565b81526001600160a01b0385166000908152600360209081526040808320835460ff600160a01b9091048116855290835292819020845180825592850151600190910180549286015160608701511515600160281b0265ff00000000001991909616600160201b0264ffffffffff1990941663ffffffff90931692909217929092171692909217909155611000576001600160a01b03851660009081526003602090815260408083208354600160a01b900460ff1684529091528120908155600101805465ffffffffffff191690555b846001600160a01b03167f1e301f7726fd710134cc80520b42a10391600bb16c2597bf2932bbad9c82eca985836020015160405161104e92919091825263ffffffff16602082015260400190565b60405180910390a26020015163ffffffff169050610ccd565b60006110bc826040518060400160405280602081526020017f5361666545524332303a206c6f772d6c6576656c2063616c6c206661696c6564815250856001600160a01b03166113a59092919063ffffffff16565b80519091501561088e57808060200190518101906110da919061186c565b61088e5760405162461bcd60e51b815260206004820152602a60248201527f5361666545524332303a204552433230206f7065726174696f6e20646964206e6044820152691bdd081cdd58d8d9595960b21b6064820152608401610382565b60008261114683826119d6565b915081111561080657600080fd5b604080516020810190915260008152600082116111c25760405162461bcd60e51b815260206004820152602660248201527f4669786564506f696e743a3a6672616374696f6e3a206469766973696f6e206260448201526579207a65726f60d01b6064820152608401610382565b826111dc5750604080516020810190915260008152610806565b71ffffffffffffffffffffffffffffffffffff831161127e57600061120583607086901b611997565b90506001600160e01b0381111561125e5760405162461bcd60e51b815260206004820152601e60248201527f4669786564506f696e743a3a6672616374696f6e3a206f766572666c6f7700006044820152606401610382565b6040518060200160405280826001600160e01b0316815250915050610806565b600061120584600160701b856113b4565b8051600090610806906612725dd1d243ab906001600160e01b0316611997565b60008215806112d3575081836112c582826119b7565b92506112d19083611997565b145b61080657600080fd5b6000610ccd83836040518060400160405280601a81526020017f536166654d6174683a206469766973696f6e206279207a65726f000000000000815250611471565b60008061133563ffffffff8088169086906112af16565b9050600061134c4263ffffffff8089169061113916565b9050600061135a85836112af565b90506000611368848361138a565b905061137d81611378898961138a565b610cd4565b9998505050505050505050565b600082611397838261195a565b915081101561080657600080fd5b6060610d1884846000856114a8565b60008060006113c386866115ce565b91509150600084806113e557634e487b7160e01b600052601260045260246000fd5b868809905082811115611400576113fd6001836119d6565b91505b61140a81846119d6565b925084821061145b5760405162461bcd60e51b815260206004820152601a60248201527f46756c6c4d6174683a3a6d756c4469763a206f766572666c6f770000000000006044820152606401610382565b611466838387611610565b979650505050505050565b600081836114925760405162461bcd60e51b815260040161038291906118f2565b50600061149f8486611997565b95945050505050565b6060824710156115095760405162461bcd60e51b815260206004820152602660248201527f416464726573733a20696e73756666696369656e742062616c616e636520666f6044820152651c8818d85b1b60d21b6064820152608401610382565b6001600160a01b0385163b6115605760405162461bcd60e51b815260206004820152601d60248201527f416464726573733a2063616c6c20746f206e6f6e2d636f6e74726163740000006044820152606401610382565b600080866001600160a01b0316858760405161157c91906118d6565b60006040518083038185875af1925050503d80600081146115b9576040519150601f19603f3d011682016040523d82523d6000602084013e6115be565b606091505b5091509150611466828286611791565b6000808060001984860990506115e484866119b7565b92506115f083826119d6565b915082811015611608576116056001836119d6565b91505b509250929050565b60008061161f8319600161195a565b8316905061162d8184611997565b92506116398186611997565b9450806116488119600161195a565b6116529190611997565b61165d90600161195a565b61166790856119b7565b611671908661195a565b9450600161167f81856119b7565b61168a9060026119d6565b61169490826119b7565b90506116a081856119b7565b6116ab9060026119d6565b6116b590826119b7565b90506116c181856119b7565b6116cc9060026119d6565b6116d690826119b7565b90506116e281856119b7565b6116ed9060026119d6565b6116f790826119b7565b905061170381856119b7565b61170e9060026119d6565b61171890826119b7565b905061172481856119b7565b61172f9060026119d6565b61173990826119b7565b905061174581856119b7565b6117509060026119d6565b61175a90826119b7565b905061176681856119b7565b6117719060026119d6565b61177b90826119b7565b905061178781876119b7565b9695505050505050565b606083156117a0575081610ccd565b8251156117b05782518084602001fd5b8160405162461bcd60e51b815260040161038291906118f2565b80356001600160a01b03811681146117e157600080fd5b919050565b803560ff811681146117e157600080fd5b600060208284031215611808578081fd5b610ccd826117ca565b60008060408385031215611823578081fd5b61182c836117ca565b946020939093013593505050565b6000806040838503121561184c578182fd5b611855836117ca565b9150611863602084016117e6565b90509250929050565b60006020828403121561187d578081fd5b81518015158114610ccd578182fd5b60006020828403121561189d578081fd5b5035919050565b6000602082840312156118b5578081fd5b5051919050565b6000602082840312156118cd578081fd5b610ccd826117e6565b600082516118e8818460208701611a12565b9190910192915050565b6020815260008251806020840152611911816040850160208701611a12565b601f01601f19169190910160400192915050565b6020808252818101527f4f776e61626c653a2063616c6c6572206973206e6f7420746865206f776e6572604082015260600190565b6000821982111561196d5761196d611a62565b500190565b600060ff821660ff84168060ff0382111561198f5761198f611a62565b019392505050565b6000826119b257634e487b7160e01b81526012600452602481fd5b500490565b60008160001904831182151516156119d1576119d1611a62565b500290565b6000828210156119e8576119e8611a62565b500390565b600063ffffffff83811690831681811015611a0a57611a0a611a62565b039392505050565b60005b83811015611a2d578181015183820152602001611a15565b83811115611a3c576000848401525b50505050565b600060ff821660ff811415611a5957611a59611a62565b60010192915050565b634e487b7160e01b600052601160045260246000fdfea2646970667358221220ea7c1c28973a9640011fee46e043fa3c54a61096abed0b8f9032e109b78c3db564736f6c63430008040033",
  "linkReferences": {},
  "deployedLinkReferences": {}
}