{
  "_format": "hh-sol-artifact-1",
  "contractName": "RewardDistributor",
  "sourceName": "contracts/RewardDistributor.sol",
  "abi": [
    {
      "inputs": [
        {
          "internalType": "address",
          "name": "stakingContract_",
          "type": "address"
        },
        {
          "internalType": "address",
          "name": "stakedOrfiAddress_",
          "type": "address"
        }
      ],
      "stateMutability": "nonpayable",
      "type": "constructor"
    },
    {
      "anonymous": false,
      "inputs": [
        {
          "indexed": true,
          "internalType": "address",
          "name": "previousOwner",
          "type": "address"
        },
        {
          "indexed": true,
          "internalType": "address",
          "name": "newOwner",
          "type": "address"
        }
      ],
      "name": "OwnershipTransferred",
      "type": "event"
    },
    {
      "anonymous": false,
      "inputs": [
        {
          "indexed": true,
          "internalType": "address",
          "name": "account",
          "type": "address"
        },
        {
          "indexed": false,
          "internalType": "uint256",
          "name": "amount",
          "type": "uint256"
        },
        {
          "indexed": false,
          "internalType": "uint256",
          "name": "rewardCycle",
          "type": "uint256"
        }
      ],
      "name": "RedeemedRewards",
      "type": "event"
    },
    {
      "anonymous": false,
      "inputs": [
        {
          "indexed": false,
          "internalType": "uint256",
          "name": "allocatedRewards",
          "type": "uint256"
        },
        {
          "indexed": false,
          "internalType": "uint256",
          "name": "totalStakedOrfi",
          "type": "uint256"
        },
        {
          "indexed": false,
          "internalType": "uint8",
          "name": "rewardCycle",
          "type": "uint8"
        }
      ],
      "name": "RewardCycleCompleted",
      "type": "event"
    },
    {
      "anonymous": false,
      "inputs": [
        {
          "indexed": true,
          "internalType": "address",
          "name": "account",
          "type": "address"
        },
        {
          "indexed": false,
          "internalType": "uint256",
          "name": "amount",
          "type": "uint256"
        },
        {
          "indexed": false,
          "internalType": "uint256",
          "name": "averageTime",
          "type": "uint256"
        }
      ],
      "name": "StakeBalanceUpdated",
      "type": "event"
    },
    {
      "anonymous": false,
      "inputs": [
        {
          "indexed": true,
          "internalType": "address",
          "name": "account",
          "type": "address"
        },
        {
          "indexed": false,
          "internalType": "uint256",
          "name": "amount",
          "type": "uint256"
        },
        {
          "indexed": false,
          "internalType": "uint256",
          "name": "averageTime",
          "type": "uint256"
        }
      ],
      "name": "UnstakeBalanceUpdated",
      "type": "event"
    },
    {
      "inputs": [
        {
          "internalType": "address",
          "name": "",
          "type": "address"
        },
        {
          "internalType": "uint8",
          "name": "",
          "type": "uint8"
        }
      ],
      "name": "_userStakeInfoToRewardCycleMapping",
      "outputs": [
        {
          "internalType": "uint256",
          "name": "stakedOrfiAmount",
          "type": "uint256"
        },
        {
          "internalType": "uint32",
          "name": "averageInvestedTime",
          "type": "uint32"
        },
        {
          "internalType": "uint8",
          "name": "rewardCycle",
          "type": "uint8"
        },
        {
          "internalType": "bool",
          "name": "redeemed",
          "type": "bool"
        }
      ],
      "stateMutability": "view",
      "type": "function"
    },
    {
      "inputs": [
        {
          "internalType": "uint256",
          "name": "rewardAmount",
          "type": "uint256"
        }
      ],
      "name": "completeRewardCycle",
      "outputs": [],
      "stateMutability": "nonpayable",
      "type": "function"
    },
    {
      "inputs": [],
      "name": "currentRewardCycle",
      "outputs": [
        {
          "internalType": "uint8",
          "name": "",
          "type": "uint8"
        }
      ],
      "stateMutability": "view",
      "type": "function"
    },
    {
      "inputs": [
        {
          "internalType": "uint8",
          "name": "rewardCycleId",
          "type": "uint8"
        }
      ],
      "name": "getRewardCycleTimeWindow",
      "outputs": [
        {
          "internalType": "uint32",
          "name": "startTime_",
          "type": "uint32"
        },
        {
          "internalType": "uint32",
          "name": "endTime_",
          "type": "uint32"
        }
      ],
      "stateMutability": "view",
      "type": "function"
    },
    {
      "inputs": [
        {
          "internalType": "uint8",
          "name": "rewardCycleId",
          "type": "uint8"
        }
      ],
      "name": "getTotalRewardsForCycle",
      "outputs": [
        {
          "internalType": "uint256",
          "name": "",
          "type": "uint256"
        }
      ],
      "stateMutability": "view",
      "type": "function"
    },
    {
      "inputs": [
        {
          "internalType": "address",
          "name": "account_",
          "type": "address"
        }
      ],
      "name": "getTotalRewardsForUser",
      "outputs": [
        {
          "internalType": "uint256",
          "name": "",
          "type": "uint256"
        }
      ],
      "stateMutability": "view",
      "type": "function"
    },
    {
      "inputs": [],
      "name": "owner",
      "outputs": [
        {
          "internalType": "address",
          "name": "",
          "type": "address"
        }
      ],
      "stateMutability": "view",
      "type": "function"
    },
    {
      "inputs": [
        {
          "internalType": "address",
          "name": "account_",
          "type": "address"
        },
        {
          "internalType": "uint8",
          "name": "rewardCycle_",
          "type": "uint8"
        }
      ],
      "name": "redeemRewardsForACycle",
      "outputs": [],
      "stateMutability": "nonpayable",
      "type": "function"
    },
    {
      "inputs": [
        {
          "internalType": "address",
          "name": "account_",
          "type": "address"
        }
      ],
      "name": "redeemTotalRewardsForUser",
      "outputs": [],
      "stateMutability": "nonpayable",
      "type": "function"
    },
    {
      "inputs": [],
      "name": "renounceOwnership",
      "outputs": [],
      "stateMutability": "nonpayable",
      "type": "function"
    },
    {
      "inputs": [
        {
          "internalType": "address",
          "name": "account_",
          "type": "address"
        },
        {
          "internalType": "uint8",
          "name": "rewardCycle_",
          "type": "uint8"
        }
      ],
      "name": "rewardsForACycle",
      "outputs": [
        {
          "internalType": "uint256",
          "name": "",
          "type": "uint256"
        }
      ],
      "stateMutability": "view",
      "type": "function"
    },
    {
      "inputs": [
        {
          "internalType": "address",
          "name": "stableCoinAddress_",
          "type": "address"
        }
      ],
      "name": "setStableCoinAddress",
      "outputs": [],
      "stateMutability": "nonpayable",
      "type": "function"
    },
    {
      "inputs": [
        {
          "internalType": "address",
          "name": "treasuryAddress_",
          "type": "address"
        }
      ],
      "name": "setTreasuryAddress",
      "outputs": [],
      "stateMutability": "nonpayable",
      "type": "function"
    },
    {
      "inputs": [
        {
          "internalType": "address",
          "name": "to_",
          "type": "address"
        },
        {
          "internalType": "uint256",
          "name": "amount",
          "type": "uint256"
        }
      ],
      "name": "stake",
      "outputs": [],
      "stateMutability": "nonpayable",
      "type": "function"
    },
    {
      "inputs": [],
      "name": "stakedOrfiAddress",
      "outputs": [
        {
          "internalType": "address",
          "name": "",
          "type": "address"
        }
      ],
      "stateMutability": "view",
      "type": "function"
    },
    {
      "inputs": [],
      "name": "stakingContract",
      "outputs": [
        {
          "internalType": "address",
          "name": "",
          "type": "address"
        }
      ],
      "stateMutability": "view",
      "type": "function"
    },
    {
      "inputs": [
        {
          "internalType": "address",
          "name": "newOwner",
          "type": "address"
        }
      ],
      "name": "transferOwnership",
      "outputs": [],
      "stateMutability": "nonpayable",
      "type": "function"
    },
    {
      "inputs": [
        {
          "internalType": "address",
          "name": "to_",
          "type": "address"
        },
        {
          "internalType": "uint256",
          "name": "amount",
          "type": "uint256"
        }
      ],
      "name": "unstake",
      "outputs": [],
      "stateMutability": "nonpayable",
      "type": "function"
    }
  ],
  "bytecode": "0x60806040523480156200001157600080fd5b506040516200313e3803806200313e8339818101604052810190620000379190620002a7565b620000576200004b620001c460201b60201c565b620001cc60201b60201c565b600073ffffffffffffffffffffffffffffffffffffffff168273ffffffffffffffffffffffffffffffffffffffff1614156200009257600080fd5b600073ffffffffffffffffffffffffffffffffffffffff168173ffffffffffffffffffffffffffffffffffffffff161415620000cd57600080fd5b6001600060146101000a81548160ff021916908360ff160217905550600060088190555042600160008060149054906101000a900460ff1660ff1660ff16815260200190815260200160002060000160006101000a81548163ffffffff021916908363ffffffff16021790555081600460006101000a81548173ffffffffffffffffffffffffffffffffffffffff021916908373ffffffffffffffffffffffffffffffffffffffff16021790555080600560006101000a81548173ffffffffffffffffffffffffffffffffffffffff021916908373ffffffffffffffffffffffffffffffffffffffff160217905550505062000336565b600033905090565b60008060009054906101000a900473ffffffffffffffffffffffffffffffffffffffff169050816000806101000a81548173ffffffffffffffffffffffffffffffffffffffff021916908373ffffffffffffffffffffffffffffffffffffffff1602179055508173ffffffffffffffffffffffffffffffffffffffff168173ffffffffffffffffffffffffffffffffffffffff167f8be0079c531659141344cd1fd0a4f28419497f9722a3daafe3b4186f6b6457e060405160405180910390a35050565b600081519050620002a1816200031c565b92915050565b60008060408385031215620002bb57600080fd5b6000620002cb8582860162000290565b9250506020620002de8582860162000290565b9150509250929050565b6000620002f582620002fc565b9050919050565b600073ffffffffffffffffffffffffffffffffffffffff82169050919050565b6200032781620002e8565b81146200033357600080fd5b50565b612df880620003466000396000f3fe608060405234801561001057600080fd5b50600436106101165760003560e01c806388d1940f116100a2578063c2a672e011610071578063c2a672e0146102e3578063ce7ae0e6146102ff578063ee99205c1461031b578063f2fde38b14610339578063fa38cdc51461035557610116565b806388d1940f1461025b5780638da5cb5b14610279578063adc9772e14610297578063b5185df6146102b357610116565b806366503312116100e9578063665033121461018d5780636bb65afa146101bd5780636cc81cc4146101ed5780636e93e9f214610220578063715018a61461025157610116565b806344879b3b1461011b57806344a71036146101375780634dd7dee0146101535780636605bfda14610171575b600080fd5b610135600480360381019061013091906122ba565b610371565b005b610151600480360381019061014c919061231f565b610431565b005b61015b6106d8565b604051610168919061289d565b60405180910390f35b61018b600480360381019061018691906122ba565b6106eb565b005b6101a760048036038101906101a291906122ba565b6107ab565b6040516101b49190612762565b60405180910390f35b6101d760048036038101906101d2919061231f565b610896565b6040516101e49190612762565b60405180910390f35b6102076004803603810190610202919061231f565b610b7e565b6040516102179493929190612806565b60405180910390f35b61023a600480360381019061023591906123d6565b610be5565b604051610248929190612874565b60405180910390f35b610259610c4b565b005b610263610cd3565b60405161027091906125dc565b60405180910390f35b610281610cfd565b60405161028e91906125dc565b60405180910390f35b6102b160048036038101906102ac91906122e3565b610d26565b005b6102cd60048036038101906102c891906123d6565b610dc7565b6040516102da9190612762565b60405180910390f35b6102fd60048036038101906102f891906122e3565b610ded565b005b61031960048036038101906103149190612384565b610e8e565b005b6103236111f1565b60405161033091906125dc565b60405180910390f35b610353600480360381019061034e91906122ba565b61121b565b005b61036f600480360381019061036a91906122ba565b611313565b005b6103796113e9565b73ffffffffffffffffffffffffffffffffffffffff16610397610cfd565b73ffffffffffffffffffffffffffffffffffffffff16146103ed576040517f08c379a00000000000000000000000000000000000000000000000000000000081526004016103e4906126e2565b60405180910390fd5b80600660006101000a81548173ffffffffffffffffffffffffffffffffffffffff021916908373ffffffffffffffffffffffffffffffffffffffff16021790555050565b600061043d8383610896565b90506001600360008573ffffffffffffffffffffffffffffffffffffffff1673ffffffffffffffffffffffffffffffffffffffff16815260200190815260200160002060008460ff1660ff16815260200190815260200160002060010160056101000a81548160ff02191690831515021790555080600860008282546104c391906129ec565b9250508190555081600260008573ffffffffffffffffffffffffffffffffffffffff1673ffffffffffffffffffffffffffffffffffffffff16815260200190815260200160002060006101000a81548160ff021916908360ff160217905550600760009054906101000a900473ffffffffffffffffffffffffffffffffffffffff1673ffffffffffffffffffffffffffffffffffffffff16630b0eee30600660009054906101000a900473ffffffffffffffffffffffffffffffffffffffff16836040518363ffffffff1660e01b81526004016105a19291906125f7565b600060405180830381600087803b1580156105bb57600080fd5b505af11580156105cf573d6000803e3d6000fd5b50505050600660009054906101000a900473ffffffffffffffffffffffffffffffffffffffff1673ffffffffffffffffffffffffffffffffffffffff1663a9059cbb84836040518363ffffffff1660e01b81526004016106309291906125f7565b602060405180830381600087803b15801561064a57600080fd5b505af115801561065e573d6000803e3d6000fd5b505050506040513d601f19601f82011682018060405250810190610682919061235b565b508273ffffffffffffffffffffffffffffffffffffffff167f29f54648bf4cdde44fd5ab419946327cf486052f3f89c2a5d87470351ce2850d82846040516106cb92919061284b565b60405180910390a2505050565b600060149054906101000a900460ff1681565b6106f36113e9565b73ffffffffffffffffffffffffffffffffffffffff16610711610cfd565b73ffffffffffffffffffffffffffffffffffffffff1614610767576040517f08c379a000000000000000000000000000000000000000000000000000000000815260040161075e906126e2565b60405180910390fd5b80600760006101000a81548173ffffffffffffffffffffffffffffffffffffffff021916908373ffffffffffffffffffffffffffffffffffffffff16021790555050565b60008073ffffffffffffffffffffffffffffffffffffffff168273ffffffffffffffffffffffffffffffffffffffff1614156107e657600080fd5b6000806001600260008673ffffffffffffffffffffffffffffffffffffffff1673ffffffffffffffffffffffffffffffffffffffff16815260200190815260200160002060009054906101000a900460ff16610842919061292a565b90505b600060149054906101000a900460ff1660ff168160ff16101561088c5761086c8482610896565b8261087791906128d4565b9150808061088490612b10565b915050610845565b5080915050919050565b60008073ffffffffffffffffffffffffffffffffffffffff168373ffffffffffffffffffffffffffffffffffffffff1614156108d157600080fd5b600060149054906101000a900460ff1660ff168260ff1610610928576040517f08c379a000000000000000000000000000000000000000000000000000000000815260040161091f90612722565b60405180910390fd5b6000600360008573ffffffffffffffffffffffffffffffffffffffff1673ffffffffffffffffffffffffffffffffffffffff16815260200190815260200160002060008460ff1660ff168152602001908152602001600020604051806080016040529081600082015481526020016001820160009054906101000a900463ffffffff1663ffffffff1663ffffffff1681526020016001820160049054906101000a900460ff1660ff1660ff1681526020016001820160059054906101000a900460ff1615151515815250509050806060015115610a3a576040517f08c379a0000000000000000000000000000000000000000000000000000000008152600401610a31906126c2565b60405180910390fd5b6000816000015111610a81576040517f08c379a0000000000000000000000000000000000000000000000000000000008152600401610a7890612742565b60405180910390fd5b6000600160008560ff1660ff1681526020019081526020016000206040518060800160405290816000820160009054906101000a900463ffffffff1663ffffffff1663ffffffff1681526020016000820160049054906101000a900463ffffffff1663ffffffff1663ffffffff1681526020016001820154815260200160028201548152505090506000610b2c8260000151836020015163ffffffff166113f190919063ffffffff16565b90506000610b4a8263ffffffff16856020015163ffffffff16611420565b90506000610b6085600001518560400151611472565b9050610b71828286606001516114b2565b9550505050505092915050565b6003602052816000526040600020602052806000526040600020600091509150508060000154908060010160009054906101000a900463ffffffff16908060010160049054906101000a900460ff16908060010160059054906101000a900460ff16905084565b600080600160008460ff1660ff16815260200190815260200160002060000160009054906101000a900463ffffffff169150600160008460ff1660ff16815260200190815260200160002060000160049054906101000a900463ffffffff169050915091565b610c536113e9565b73ffffffffffffffffffffffffffffffffffffffff16610c71610cfd565b73ffffffffffffffffffffffffffffffffffffffff1614610cc7576040517f08c379a0000000000000000000000000000000000000000000000000000000008152600401610cbe906126e2565b60405180910390fd5b610cd16000611503565b565b6000600560009054906101000a900473ffffffffffffffffffffffffffffffffffffffff16905090565b60008060009054906101000a900473ffffffffffffffffffffffffffffffffffffffff16905090565b600460009054906101000a900473ffffffffffffffffffffffffffffffffffffffff1673ffffffffffffffffffffffffffffffffffffffff163373ffffffffffffffffffffffffffffffffffffffff1614610db6576040517f08c379a0000000000000000000000000000000000000000000000000000000008152600401610dad90612662565b60405180910390fd5b610dc2828260016115c7565b505050565b6000600160008360ff1660ff168152602001908152602001600020600201549050919050565b600460009054906101000a900473ffffffffffffffffffffffffffffffffffffffff1673ffffffffffffffffffffffffffffffffffffffff163373ffffffffffffffffffffffffffffffffffffffff1614610e7d576040517f08c379a0000000000000000000000000000000000000000000000000000000008152600401610e7490612662565b60405180910390fd5b610e89828260006115c7565b505050565b610e966113e9565b73ffffffffffffffffffffffffffffffffffffffff16610eb4610cfd565b73ffffffffffffffffffffffffffffffffffffffff1614610f0a576040517f08c379a0000000000000000000000000000000000000000000000000000000008152600401610f01906126e2565b60405180910390fd5b60008111610f1757600080fd5b6000600160008060149054906101000a900460ff1660ff1660ff1681526020019081526020016000206040518060800160405290816000820160009054906101000a900463ffffffff1663ffffffff1663ffffffff1681526020016000820160049054906101000a900463ffffffff1663ffffffff1663ffffffff16815260200160018201548152602001600282015481525050905042816020019063ffffffff16908163ffffffff168152505081816060018181525050600560009054906101000a900473ffffffffffffffffffffffffffffffffffffffff1673ffffffffffffffffffffffffffffffffffffffff166318160ddd6040518163ffffffff1660e01b815260040160206040518083038186803b15801561103757600080fd5b505afa15801561104b573d6000803e3d6000fd5b505050506040513d601f19601f8201168201806040525081019061106f91906123ad565b81604001818152505080600160008060149054906101000a900460ff1660ff1660ff16815260200190815260200160002060008201518160000160006101000a81548163ffffffff021916908363ffffffff16021790555060208201518160000160046101000a81548163ffffffff021916908363ffffffff16021790555060408201518160010155606082015181600201559050507fb5a927304116e39aa3a6faa912604add4565a926be6ec77c5caa602e5811b5bf828260400151600060149054906101000a900460ff1660405161114b939291906127a6565b60405180910390a16000601481819054906101000a900460ff168092919061117290612b10565b91906101000a81548160ff021916908360ff16021790555050816008600082825461119d91906128d4565b9250508190555042600160008060149054906101000a900460ff1660ff1660ff16815260200190815260200160002060000160006101000a81548163ffffffff021916908363ffffffff1602179055505050565b6000600460009054906101000a900473ffffffffffffffffffffffffffffffffffffffff16905090565b6112236113e9565b73ffffffffffffffffffffffffffffffffffffffff16611241610cfd565b73ffffffffffffffffffffffffffffffffffffffff1614611297576040517f08c379a000000000000000000000000000000000000000000000000000000000815260040161128e906126e2565b60405180910390fd5b600073ffffffffffffffffffffffffffffffffffffffff168173ffffffffffffffffffffffffffffffffffffffff161415611307576040517f08c379a00000000000000000000000000000000000000000000000000000000081526004016112fe90612642565b60405180910390fd5b61131081611503565b50565b600073ffffffffffffffffffffffffffffffffffffffff168173ffffffffffffffffffffffffffffffffffffffff16141561134d57600080fd5b60006001600260008473ffffffffffffffffffffffffffffffffffffffff1673ffffffffffffffffffffffffffffffffffffffff16815260200190815260200160002060009054906101000a900460ff166113a8919061292a565b90505b600060149054906101000a900460ff1660ff168160ff1610156113e5576113d28282610431565b80806113dd90612b10565b9150506113ab565b5050565b600033905090565b60008263ffffffff1682846114069190612a20565b91508163ffffffff16111561141a57600080fd5b92915050565b600061146a66038d7ea4c680008061145261144d6114478789611ac290919063ffffffff16565b88611ae5565b611cec565b61145c9190612961565b611d2a90919063ffffffff16565b905092915050565b60006114aa66038d7ea4c680008061149261148d8787611ae5565b611cec565b61149c9190612961565b611d2a90919063ffffffff16565b905092915050565b60006114fa6ec097ce7bc90715b34b9f10000000006114ec846114de8789611d2a90919063ffffffff16565b611d2a90919063ffffffff16565b611d6190919063ffffffff16565b90509392505050565b60008060009054906101000a900473ffffffffffffffffffffffffffffffffffffffff169050816000806101000a81548173ffffffffffffffffffffffffffffffffffffffff021916908373ffffffffffffffffffffffffffffffffffffffff1602179055508173ffffffffffffffffffffffffffffffffffffffff168173ffffffffffffffffffffffffffffffffffffffff167f8be0079c531659141344cd1fd0a4f28419497f9722a3daafe3b4186f6b6457e060405160405180910390a35050565b600080600360008673ffffffffffffffffffffffffffffffffffffffff1673ffffffffffffffffffffffffffffffffffffffff16815260200190815260200160002060008060149054906101000a900460ff1660ff1660ff168152602001908152602001600020604051806080016040529081600082015481526020016001820160009054906101000a900463ffffffff1663ffffffff1663ffffffff1681526020016001820160049054906101000a900460ff1660ff1660ff1681526020016001820160059054906101000a900460ff161515151581525050905082156118a25760006116f98260200151600160008060149054906101000a900460ff1660ff1660ff16815260200190815260200160002060000160009054906101000a900463ffffffff16846000015188611dab565b9050611716670de0b6b3a764000082611d6190919063ffffffff16565b826020019063ffffffff16908163ffffffff1681525050611744858360000151611e3e90919063ffffffff16565b826000018181525050600060149054906101000a900460ff16826040019060ff16908160ff168152505081600360008873ffffffffffffffffffffffffffffffffffffffff1673ffffffffffffffffffffffffffffffffffffffff16815260200190815260200160002060008060149054906101000a900460ff1660ff1660ff1681526020019081526020016000206000820151816000015560208201518160010160006101000a81548163ffffffff021916908363ffffffff16021790555060408201518160010160046101000a81548160ff021916908360ff16021790555060608201518160010160056101000a81548160ff0219169083151502179055509050508573ffffffffffffffffffffffffffffffffffffffff167f388581407fcab28d7eaeffaf92f1716df2203258960164e8401a02b1efb5c11d868360405161189092919061277d565b60405180910390a28092505050611abb565b6118b9848260000151611ac290919063ffffffff16565b81600001818152505080600360008773ffffffffffffffffffffffffffffffffffffffff1673ffffffffffffffffffffffffffffffffffffffff16815260200190815260200160002060008060149054906101000a900460ff1660ff1660ff1681526020019081526020016000206000820151816000015560208201518160010160006101000a81548163ffffffff021916908363ffffffff16021790555060408201518160010160046101000a81548160ff021916908360ff16021790555060608201518160010160056101000a81548160ff021916908315150217905550905050600081600001511415611a5857600360008673ffffffffffffffffffffffffffffffffffffffff1673ffffffffffffffffffffffffffffffffffffffff16815260200190815260200160002060008060149054906101000a900460ff1660ff1660ff1681526020019081526020016000206000808201600090556001820160006101000a81549063ffffffff02191690556001820160046101000a81549060ff02191690556001820160056101000a81549060ff021916905550505b8473ffffffffffffffffffffffffffffffffffffffff167f1e301f7726fd710134cc80520b42a10391600bb16c2597bf2932bbad9c82eca9858360200151604051611aa49291906127dd565b60405180910390a2806020015163ffffffff169150505b9392505050565b6000828284611ad191906129ec565b9150811115611adf57600080fd5b92915050565b611aed612220565b60008211611b30576040517f08c379a0000000000000000000000000000000000000000000000000000000008152600401611b2790612682565b60405180910390fd5b6000831415611b6e57604051806020016040528060007bffffffffffffffffffffffffffffffffffffffffffffffffffffffff168152509050611ce6565b71ffffffffffffffffffffffffffffffffffff80168311611c3657600082607060ff1685901b611b9e9190612961565b90507bffffffffffffffffffffffffffffffffffffffffffffffffffffffff8016811115611c01576040517f08c379a0000000000000000000000000000000000000000000000000000000008152600401611bf890612702565b60405180910390fd5b6040518060200160405280827bffffffffffffffffffffffffffffffffffffffffffffffffffffffff16815250915050611ce6565b6000611c52846e01000000000000000000000000000085611e61565b90507bffffffffffffffffffffffffffffffffffffffffffffffffffffffff8016811115611cb5576040517f08c379a0000000000000000000000000000000000000000000000000000000008152600401611cac90612702565b60405180910390fd5b6040518060200160405280827bffffffffffffffffffffffffffffffffffffffffffffffffffffffff168152509150505b92915050565b60006612725dd1d243ab82600001517bffffffffffffffffffffffffffffffffffffffffffffffffffffffff16611d239190612961565b9050919050565b600080831480611d52575081838385611d439190612992565b925082611d509190612961565b145b611d5b57600080fd5b92915050565b6000611da383836040518060400160405280601a81526020017f536166654d6174683a206469766973696f6e206279207a65726f000000000000815250611f2f565b905092915050565b600080611dc7848763ffffffff16611d2a90919063ffffffff16565b90506000611de48663ffffffff1642611ac290919063ffffffff16565b90506000611dfb8286611d2a90919063ffffffff16565b90506000611e128285611e3e90919063ffffffff16565b9050611e3081611e2b888a611e3e90919063ffffffff16565b611f92565b945050505050949350505050565b6000828284611e4d91906128d4565b9150811015611e5b57600080fd5b92915050565b6000806000611e708686611fd2565b9150915060008480611eab577f4e487b7100000000000000000000000000000000000000000000000000000000600052601260045260246000fd5b868809905082811115611ec857600182611ec591906129ec565b91505b8083611ed491906129ec565b9250848210611f18576040517f08c379a0000000000000000000000000000000000000000000000000000000008152600401611f0f906126a2565b60405180910390fd5b611f2383838761206d565b93505050509392505050565b60008083118290611f76576040517f08c379a0000000000000000000000000000000000000000000000000000000008152600401611f6d9190612620565b60405180910390fd5b5060008385611f859190612961565b9050809150509392505050565b6000611fca66038d7ea4c6800080611fb2611fad8787611ae5565b611cec565b611fbc9190612961565b611d2a90919063ffffffff16565b905092915050565b60008060007fffffffffffffffffffffffffffffffffffffffffffffffffffffffffffffffff8061202c577f4e487b7100000000000000000000000000000000000000000000000000000000600052601260045260246000fd5b8486099050838561203d9190612992565b9250828161204b91906129ec565b9150828110156120655760018261206291906129ec565b91505b509250929050565b6000806001831961207e91906128d4565b83169050808361208e9190612961565b9250808561209c9190612961565b9450600181600183196120af91906128d4565b6120b99190612961565b6120c391906128d4565b846120ce9190612992565b856120d991906128d4565b945060006001905080846120ed9190612992565b60026120f991906129ec565b816121049190612992565b905080846121129190612992565b600261211e91906129ec565b816121299190612992565b905080846121379190612992565b600261214391906129ec565b8161214e9190612992565b9050808461215c9190612992565b600261216891906129ec565b816121739190612992565b905080846121819190612992565b600261218d91906129ec565b816121989190612992565b905080846121a69190612992565b60026121b291906129ec565b816121bd9190612992565b905080846121cb9190612992565b60026121d791906129ec565b816121e29190612992565b905080846121f09190612992565b60026121fc91906129ec565b816122079190612992565b905080866122159190612992565b925050509392505050565b604051806020016040528060007bffffffffffffffffffffffffffffffffffffffffffffffffffffffff1681525090565b60008135905061226081612d66565b92915050565b60008151905061227581612d7d565b92915050565b60008135905061228a81612d94565b92915050565b60008151905061229f81612d94565b92915050565b6000813590506122b481612dab565b92915050565b6000602082840312156122cc57600080fd5b60006122da84828501612251565b91505092915050565b600080604083850312156122f657600080fd5b600061230485828601612251565b92505060206123158582860161227b565b9150509250929050565b6000806040838503121561233257600080fd5b600061234085828601612251565b9250506020612351858286016122a5565b9150509250929050565b60006020828403121561236d57600080fd5b600061237b84828501612266565b91505092915050565b60006020828403121561239657600080fd5b60006123a48482850161227b565b91505092915050565b6000602082840312156123bf57600080fd5b60006123cd84828501612290565b91505092915050565b6000602082840312156123e857600080fd5b60006123f6848285016122a5565b91505092915050565b61240881612a54565b82525050565b61241781612a66565b82525050565b6000612428826128b8565b61243281856128c3565b9350612442818560208601612add565b61244b81612b98565b840191505092915050565b60006124636026836128c3565b915061246e82612ba9565b604082019050919050565b60006124866003836128c3565b915061249182612bf8565b602082019050919050565b60006124a96026836128c3565b91506124b482612c21565b604082019050919050565b60006124cc601a836128c3565b91506124d782612c70565b602082019050919050565b60006124ef6019836128c3565b91506124fa82612c99565b602082019050919050565b60006125126020836128c3565b915061251d82612cc2565b602082019050919050565b6000612535601e836128c3565b915061254082612ceb565b602082019050919050565b60006125586014836128c3565b915061256382612d14565b602082019050919050565b600061257b6012836128c3565b915061258682612d3d565b602082019050919050565b61259a81612a92565b82525050565b6125a981612ab9565b82525050565b6125b881612a9c565b82525050565b6125c781612acb565b82525050565b6125d681612aac565b82525050565b60006020820190506125f160008301846123ff565b92915050565b600060408201905061260c60008301856123ff565b6126196020830184612591565b9392505050565b6000602082019050818103600083015261263a818461241d565b905092915050565b6000602082019050818103600083015261265b81612456565b9050919050565b6000602082019050818103600083015261267b81612479565b9050919050565b6000602082019050818103600083015261269b8161249c565b9050919050565b600060208201905081810360008301526126bb816124bf565b9050919050565b600060208201905081810360008301526126db816124e2565b9050919050565b600060208201905081810360008301526126fb81612505565b9050919050565b6000602082019050818103600083015261271b81612528565b9050919050565b6000602082019050818103600083015261273b8161254b565b9050919050565b6000602082019050818103600083015261275b8161256e565b9050919050565b60006020820190506127776000830184612591565b92915050565b60006040820190506127926000830185612591565b61279f6020830184612591565b9392505050565b60006060820190506127bb6000830186612591565b6127c86020830185612591565b6127d560408301846125cd565b949350505050565b60006040820190506127f26000830185612591565b6127ff60208301846125a0565b9392505050565b600060808201905061281b6000830187612591565b61282860208301866125af565b61283560408301856125cd565b612842606083018461240e565b95945050505050565b60006040820190506128606000830185612591565b61286d60208301846125be565b9392505050565b600060408201905061288960008301856125af565b61289660208301846125af565b9392505050565b60006020820190506128b260008301846125cd565b92915050565b600081519050919050565b600082825260208201905092915050565b60006128df82612a92565b91506128ea83612a92565b9250827fffffffffffffffffffffffffffffffffffffffffffffffffffffffffffffffff0382111561291f5761291e612b3a565b5b828201905092915050565b600061293582612aac565b915061294083612aac565b92508260ff0382111561295657612955612b3a565b5b828201905092915050565b600061296c82612a92565b915061297783612a92565b92508261298757612986612b69565b5b828204905092915050565b600061299d82612a92565b91506129a883612a92565b9250817fffffffffffffffffffffffffffffffffffffffffffffffffffffffffffffffff04831182151516156129e1576129e0612b3a565b5b828202905092915050565b60006129f782612a92565b9150612a0283612a92565b925082821015612a1557612a14612b3a565b5b828203905092915050565b6000612a2b82612a9c565b9150612a3683612a9c565b925082821015612a4957612a48612b3a565b5b828203905092915050565b6000612a5f82612a72565b9050919050565b60008115159050919050565b600073ffffffffffffffffffffffffffffffffffffffff82169050919050565b6000819050919050565b600063ffffffff82169050919050565b600060ff82169050919050565b6000612ac482612a9c565b9050919050565b6000612ad682612aac565b9050919050565b60005b83811015612afb578082015181840152602081019050612ae0565b83811115612b0a576000848401525b50505050565b6000612b1b82612aac565b915060ff821415612b2f57612b2e612b3a565b5b600182019050919050565b7f4e487b7100000000000000000000000000000000000000000000000000000000600052601160045260246000fd5b7f4e487b7100000000000000000000000000000000000000000000000000000000600052601260045260246000fd5b6000601f19601f8301169050919050565b7f4f776e61626c653a206e6577206f776e657220697320746865207a65726f206160008201527f6464726573730000000000000000000000000000000000000000000000000000602082015250565b7f4f53430000000000000000000000000000000000000000000000000000000000600082015250565b7f4669786564506f696e743a3a6672616374696f6e3a206469766973696f6e206260008201527f79207a65726f0000000000000000000000000000000000000000000000000000602082015250565b7f46756c6c4d6174683a3a6d756c4469763a206f766572666c6f77000000000000600082015250565b7f557365722048617320616c72656164792052656465656d656400000000000000600082015250565b7f4f776e61626c653a2063616c6c6572206973206e6f7420746865206f776e6572600082015250565b7f4669786564506f696e743a3a6672616374696f6e3a206f766572666c6f770000600082015250565b7f496e76616c696420526577617264204379636c65000000000000000000000000600082015250565b7f5374616b656420416d6f756e7420697320300000000000000000000000000000600082015250565b612d6f81612a54565b8114612d7a57600080fd5b50565b612d8681612a66565b8114612d9157600080fd5b50565b612d9d81612a92565b8114612da857600080fd5b50565b612db481612aac565b8114612dbf57600080fd5b5056fea2646970667358221220efa113b2866099d0750898e03c67f40b254dc2ace153cf5e1adffe4d215d855b64736f6c63430008040033",
  "linkReferences": {},
  "deployedLinkReferences": {}
}