{
  "_format": "hh-sol-artifact-1",
  "contractName": "RewardDistributor",
  "sourceName": "contracts/RewardDistributor.sol",
  "abi": [
    {
      "inputs": [
        {
          "internalType": "address",
          "name": "stakingContract_",
          "type": "address"
        },
        {
          "internalType": "address",
          "name": "stakedOrclAddress_",
          "type": "address"
        }
      ],
      "stateMutability": "nonpayable",
      "type": "constructor"
    },
    {
      "anonymous": false,
      "inputs": [
        {
          "indexed": true,
          "internalType": "address",
          "name": "previousOwner",
          "type": "address"
        },
        {
          "indexed": true,
          "internalType": "address",
          "name": "newOwner",
          "type": "address"
        }
      ],
      "name": "OwnershipTransferred",
      "type": "event"
    },
    {
      "anonymous": false,
      "inputs": [
        {
          "indexed": true,
          "internalType": "address",
          "name": "account",
          "type": "address"
        },
        {
          "indexed": false,
          "internalType": "uint256",
          "name": "amount",
          "type": "uint256"
        },
        {
          "indexed": false,
          "internalType": "uint256",
          "name": "rewardCycle",
          "type": "uint256"
        }
      ],
      "name": "RedeemedRewards",
      "type": "event"
    },
    {
      "anonymous": false,
      "inputs": [
        {
          "indexed": false,
          "internalType": "uint256",
          "name": "allocatedRewards",
          "type": "uint256"
        },
        {
          "indexed": false,
          "internalType": "uint256",
          "name": "totalStakedOrcl",
          "type": "uint256"
        },
        {
          "indexed": false,
          "internalType": "uint8",
          "name": "rewardCycle",
          "type": "uint8"
        }
      ],
      "name": "RewardCycleCompleted",
      "type": "event"
    },
    {
      "anonymous": false,
      "inputs": [
        {
          "indexed": true,
          "internalType": "address",
          "name": "account",
          "type": "address"
        },
        {
          "indexed": false,
          "internalType": "uint256",
          "name": "amount",
          "type": "uint256"
        },
        {
          "indexed": false,
          "internalType": "uint256",
          "name": "averageTime",
          "type": "uint256"
        }
      ],
      "name": "StakeBalanceUpdated",
      "type": "event"
    },
    {
      "anonymous": false,
      "inputs": [
        {
          "indexed": true,
          "internalType": "address",
          "name": "account",
          "type": "address"
        },
        {
          "indexed": false,
          "internalType": "uint256",
          "name": "amount",
          "type": "uint256"
        },
        {
          "indexed": false,
          "internalType": "uint256",
          "name": "averageTime",
          "type": "uint256"
        }
      ],
      "name": "UnstakeBalanceUpdated",
      "type": "event"
    },
    {
      "inputs": [
        {
          "internalType": "address",
          "name": "",
          "type": "address"
        },
        {
          "internalType": "uint8",
          "name": "",
          "type": "uint8"
        }
      ],
      "name": "_userStakeInfoToRewardCycleMapping",
      "outputs": [
        {
          "internalType": "uint256",
          "name": "stakedOrclAmount",
          "type": "uint256"
        },
        {
          "internalType": "uint32",
          "name": "averageInvestedTime",
          "type": "uint32"
        },
        {
          "internalType": "uint8",
          "name": "rewardCycle",
          "type": "uint8"
        },
        {
          "internalType": "bool",
          "name": "redeemed",
          "type": "bool"
        }
      ],
      "stateMutability": "view",
      "type": "function"
    },
    {
      "inputs": [
        {
          "internalType": "uint256",
          "name": "rewardAmount",
          "type": "uint256"
        }
      ],
      "name": "completeRewardCycle",
      "outputs": [],
      "stateMutability": "nonpayable",
      "type": "function"
    },
    {
      "inputs": [],
      "name": "currentRewardCycle",
      "outputs": [
        {
          "internalType": "uint8",
          "name": "",
          "type": "uint8"
        }
      ],
      "stateMutability": "view",
      "type": "function"
    },
    {
      "inputs": [
        {
          "internalType": "uint8",
          "name": "rewardCycleId",
          "type": "uint8"
        }
      ],
      "name": "getRewardCycleTimeWindow",
      "outputs": [
        {
          "internalType": "uint32",
          "name": "startTime_",
          "type": "uint32"
        },
        {
          "internalType": "uint32",
          "name": "endTime_",
          "type": "uint32"
        }
      ],
      "stateMutability": "view",
      "type": "function"
    },
    {
      "inputs": [
        {
          "internalType": "uint8",
          "name": "rewardCycleId",
          "type": "uint8"
        }
      ],
      "name": "getTotalRewardsForCycle",
      "outputs": [
        {
          "internalType": "uint256",
          "name": "",
          "type": "uint256"
        }
      ],
      "stateMutability": "view",
      "type": "function"
    },
    {
      "inputs": [
        {
          "internalType": "address",
          "name": "account_",
          "type": "address"
        }
      ],
      "name": "getTotalRewardsForUser",
      "outputs": [
        {
          "internalType": "uint256",
          "name": "",
          "type": "uint256"
        }
      ],
      "stateMutability": "view",
      "type": "function"
    },
    {
      "inputs": [],
      "name": "owner",
      "outputs": [
        {
          "internalType": "address",
          "name": "",
          "type": "address"
        }
      ],
      "stateMutability": "view",
      "type": "function"
    },
    {
      "inputs": [
        {
          "internalType": "address",
          "name": "account_",
          "type": "address"
        },
        {
          "internalType": "uint8",
          "name": "rewardCycle_",
          "type": "uint8"
        }
      ],
      "name": "redeemRewardsForACycle",
      "outputs": [],
      "stateMutability": "nonpayable",
      "type": "function"
    },
    {
      "inputs": [
        {
          "internalType": "address",
          "name": "account_",
          "type": "address"
        }
      ],
      "name": "redeemTotalRewardsForUser",
      "outputs": [],
      "stateMutability": "nonpayable",
      "type": "function"
    },
    {
      "inputs": [],
      "name": "renounceOwnership",
      "outputs": [],
      "stateMutability": "nonpayable",
      "type": "function"
    },
    {
      "inputs": [
        {
          "internalType": "address",
          "name": "account_",
          "type": "address"
        },
        {
          "internalType": "uint8",
          "name": "rewardCycle_",
          "type": "uint8"
        }
      ],
      "name": "rewardsForACycle",
      "outputs": [
        {
          "internalType": "uint256",
          "name": "",
          "type": "uint256"
        }
      ],
      "stateMutability": "view",
      "type": "function"
    },
    {
      "inputs": [
        {
          "internalType": "address",
          "name": "stableCoinAddress_",
          "type": "address"
        }
      ],
      "name": "setStableCoinAddress",
      "outputs": [],
      "stateMutability": "nonpayable",
      "type": "function"
    },
    {
      "inputs": [
        {
          "internalType": "address",
          "name": "treasuryAddress_",
          "type": "address"
        }
      ],
      "name": "setTreasuryAddress",
      "outputs": [],
      "stateMutability": "nonpayable",
      "type": "function"
    },
    {
      "inputs": [
        {
          "internalType": "address",
          "name": "to_",
          "type": "address"
        },
        {
          "internalType": "uint256",
          "name": "amount",
          "type": "uint256"
        }
      ],
      "name": "stake",
      "outputs": [],
      "stateMutability": "nonpayable",
      "type": "function"
    },
    {
      "inputs": [],
      "name": "stakedOrclAddress",
      "outputs": [
        {
          "internalType": "address",
          "name": "",
          "type": "address"
        }
      ],
      "stateMutability": "view",
      "type": "function"
    },
    {
      "inputs": [],
      "name": "stakingContract",
      "outputs": [
        {
          "internalType": "address",
          "name": "",
          "type": "address"
        }
      ],
      "stateMutability": "view",
      "type": "function"
    },
    {
      "inputs": [
        {
          "internalType": "address",
          "name": "newOwner",
          "type": "address"
        }
      ],
      "name": "transferOwnership",
      "outputs": [],
      "stateMutability": "nonpayable",
      "type": "function"
    },
    {
      "inputs": [
        {
          "internalType": "address",
          "name": "to_",
          "type": "address"
        },
        {
          "internalType": "uint256",
          "name": "amount",
          "type": "uint256"
        }
      ],
      "name": "unstake",
      "outputs": [],
      "stateMutability": "nonpayable",
      "type": "function"
    }
  ],
  "bytecode": "0x60806040523480156200001157600080fd5b50604051620030f5380380620030f58339818101604052810190620000379190620002a7565b620000576200004b620001c460201b60201c565b620001cc60201b60201c565b600073ffffffffffffffffffffffffffffffffffffffff168273ffffffffffffffffffffffffffffffffffffffff1614156200009257600080fd5b600073ffffffffffffffffffffffffffffffffffffffff168173ffffffffffffffffffffffffffffffffffffffff161415620000cd57600080fd5b6001600060146101000a81548160ff021916908360ff160217905550600060088190555042600160008060149054906101000a900460ff1660ff1660ff16815260200190815260200160002060000160006101000a81548163ffffffff021916908363ffffffff16021790555081600460006101000a81548173ffffffffffffffffffffffffffffffffffffffff021916908373ffffffffffffffffffffffffffffffffffffffff16021790555080600560006101000a81548173ffffffffffffffffffffffffffffffffffffffff021916908373ffffffffffffffffffffffffffffffffffffffff160217905550505062000336565b600033905090565b60008060009054906101000a900473ffffffffffffffffffffffffffffffffffffffff169050816000806101000a81548173ffffffffffffffffffffffffffffffffffffffff021916908373ffffffffffffffffffffffffffffffffffffffff1602179055508173ffffffffffffffffffffffffffffffffffffffff168173ffffffffffffffffffffffffffffffffffffffff167f8be0079c531659141344cd1fd0a4f28419497f9722a3daafe3b4186f6b6457e060405160405180910390a35050565b600081519050620002a1816200031c565b92915050565b60008060408385031215620002bb57600080fd5b6000620002cb8582860162000290565b9250506020620002de8582860162000290565b9150509250929050565b6000620002f582620002fc565b9050919050565b600073ffffffffffffffffffffffffffffffffffffffff82169050919050565b6200032781620002e8565b81146200033357600080fd5b50565b612daf80620003466000396000f3fe608060405234801561001057600080fd5b50600436106101165760003560e01c80638da5cb5b116100a2578063ce7ae0e611610071578063ce7ae0e6146102e1578063e78dbb4b146102fd578063ee99205c1461031b578063f2fde38b14610339578063fa38cdc51461035557610116565b80638da5cb5b1461025b578063adc9772e14610279578063b5185df614610295578063c2a672e0146102c557610116565b806366503312116100e9578063665033121461018d5780636bb65afa146101bd5780636cc81cc4146101ed5780636e93e9f214610220578063715018a61461025157610116565b806344879b3b1461011b57806344a71036146101375780634dd7dee0146101535780636605bfda14610171575b600080fd5b61013560048036038101906101309190612271565b610371565b005b610151600480360381019061014c91906122d6565b610431565b005b61015b6106d8565b6040516101689190612854565b60405180910390f35b61018b60048036038101906101869190612271565b6106eb565b005b6101a760048036038101906101a29190612271565b6107ab565b6040516101b49190612719565b60405180910390f35b6101d760048036038101906101d291906122d6565b610896565b6040516101e49190612719565b60405180910390f35b610207600480360381019061020291906122d6565b610b7e565b60405161021794939291906127bd565b60405180910390f35b61023a6004803603810190610235919061238d565b610be5565b60405161024892919061282b565b60405180910390f35b610259610c4b565b005b610263610cd3565b6040516102709190612593565b60405180910390f35b610293600480360381019061028e919061229a565b610cfc565b005b6102af60048036038101906102aa919061238d565b610d9d565b6040516102bc9190612719565b60405180910390f35b6102df60048036038101906102da919061229a565b610dc3565b005b6102fb60048036038101906102f6919061233b565b610e64565b005b61030561117e565b6040516103129190612593565b60405180910390f35b6103236111a8565b6040516103309190612593565b60405180910390f35b610353600480360381019061034e9190612271565b6111d2565b005b61036f600480360381019061036a9190612271565b6112ca565b005b6103796113a0565b73ffffffffffffffffffffffffffffffffffffffff16610397610cd3565b73ffffffffffffffffffffffffffffffffffffffff16146103ed576040517f08c379a00000000000000000000000000000000000000000000000000000000081526004016103e490612699565b60405180910390fd5b80600660006101000a81548173ffffffffffffffffffffffffffffffffffffffff021916908373ffffffffffffffffffffffffffffffffffffffff16021790555050565b600061043d8383610896565b90506001600360008573ffffffffffffffffffffffffffffffffffffffff1673ffffffffffffffffffffffffffffffffffffffff16815260200190815260200160002060008460ff1660ff16815260200190815260200160002060010160056101000a81548160ff02191690831515021790555080600860008282546104c391906129a3565b9250508190555081600260008573ffffffffffffffffffffffffffffffffffffffff1673ffffffffffffffffffffffffffffffffffffffff16815260200190815260200160002060006101000a81548160ff021916908360ff160217905550600760009054906101000a900473ffffffffffffffffffffffffffffffffffffffff1673ffffffffffffffffffffffffffffffffffffffff16630b0eee30600660009054906101000a900473ffffffffffffffffffffffffffffffffffffffff16836040518363ffffffff1660e01b81526004016105a19291906125ae565b600060405180830381600087803b1580156105bb57600080fd5b505af11580156105cf573d6000803e3d6000fd5b50505050600660009054906101000a900473ffffffffffffffffffffffffffffffffffffffff1673ffffffffffffffffffffffffffffffffffffffff1663a9059cbb84836040518363ffffffff1660e01b81526004016106309291906125ae565b602060405180830381600087803b15801561064a57600080fd5b505af115801561065e573d6000803e3d6000fd5b505050506040513d601f19601f820116820180604052508101906106829190612312565b508273ffffffffffffffffffffffffffffffffffffffff167f29f54648bf4cdde44fd5ab419946327cf486052f3f89c2a5d87470351ce2850d82846040516106cb929190612802565b60405180910390a2505050565b600060149054906101000a900460ff1681565b6106f36113a0565b73ffffffffffffffffffffffffffffffffffffffff16610711610cd3565b73ffffffffffffffffffffffffffffffffffffffff1614610767576040517f08c379a000000000000000000000000000000000000000000000000000000000815260040161075e90612699565b60405180910390fd5b80600760006101000a81548173ffffffffffffffffffffffffffffffffffffffff021916908373ffffffffffffffffffffffffffffffffffffffff16021790555050565b60008073ffffffffffffffffffffffffffffffffffffffff168273ffffffffffffffffffffffffffffffffffffffff1614156107e657600080fd5b6000806001600260008673ffffffffffffffffffffffffffffffffffffffff1673ffffffffffffffffffffffffffffffffffffffff16815260200190815260200160002060009054906101000a900460ff1661084291906128e1565b90505b600060149054906101000a900460ff1660ff168160ff16101561088c5761086c8482610896565b82610877919061288b565b9150808061088490612ac7565b915050610845565b5080915050919050565b60008073ffffffffffffffffffffffffffffffffffffffff168373ffffffffffffffffffffffffffffffffffffffff1614156108d157600080fd5b600060149054906101000a900460ff1660ff168260ff1610610928576040517f08c379a000000000000000000000000000000000000000000000000000000000815260040161091f906126d9565b60405180910390fd5b6000600360008573ffffffffffffffffffffffffffffffffffffffff1673ffffffffffffffffffffffffffffffffffffffff16815260200190815260200160002060008460ff1660ff168152602001908152602001600020604051806080016040529081600082015481526020016001820160009054906101000a900463ffffffff1663ffffffff1663ffffffff1681526020016001820160049054906101000a900460ff1660ff1660ff1681526020016001820160059054906101000a900460ff1615151515815250509050806060015115610a3a576040517f08c379a0000000000000000000000000000000000000000000000000000000008152600401610a3190612679565b60405180910390fd5b6000816000015111610a81576040517f08c379a0000000000000000000000000000000000000000000000000000000008152600401610a78906126f9565b60405180910390fd5b6000600160008560ff1660ff1681526020019081526020016000206040518060800160405290816000820160009054906101000a900463ffffffff1663ffffffff1663ffffffff1681526020016000820160049054906101000a900463ffffffff1663ffffffff1663ffffffff1681526020016001820154815260200160028201548152505090506000610b2c8260000151836020015163ffffffff166113a890919063ffffffff16565b90506000610b4a8263ffffffff16856020015163ffffffff166113d7565b90506000610b6085600001518560400151611429565b9050610b7182828660600151611469565b9550505050505092915050565b6003602052816000526040600020602052806000526040600020600091509150508060000154908060010160009054906101000a900463ffffffff16908060010160049054906101000a900460ff16908060010160059054906101000a900460ff16905084565b600080600160008460ff1660ff16815260200190815260200160002060000160009054906101000a900463ffffffff169150600160008460ff1660ff16815260200190815260200160002060000160049054906101000a900463ffffffff169050915091565b610c536113a0565b73ffffffffffffffffffffffffffffffffffffffff16610c71610cd3565b73ffffffffffffffffffffffffffffffffffffffff1614610cc7576040517f08c379a0000000000000000000000000000000000000000000000000000000008152600401610cbe90612699565b60405180910390fd5b610cd160006114ba565b565b60008060009054906101000a900473ffffffffffffffffffffffffffffffffffffffff16905090565b600460009054906101000a900473ffffffffffffffffffffffffffffffffffffffff1673ffffffffffffffffffffffffffffffffffffffff163373ffffffffffffffffffffffffffffffffffffffff1614610d8c576040517f08c379a0000000000000000000000000000000000000000000000000000000008152600401610d8390612619565b60405180910390fd5b610d988282600161157e565b505050565b6000600160008360ff1660ff168152602001908152602001600020600201549050919050565b600460009054906101000a900473ffffffffffffffffffffffffffffffffffffffff1673ffffffffffffffffffffffffffffffffffffffff163373ffffffffffffffffffffffffffffffffffffffff1614610e53576040517f08c379a0000000000000000000000000000000000000000000000000000000008152600401610e4a90612619565b60405180910390fd5b610e5f8282600061157e565b505050565b610e6c6113a0565b73ffffffffffffffffffffffffffffffffffffffff16610e8a610cd3565b73ffffffffffffffffffffffffffffffffffffffff1614610ee0576040517f08c379a0000000000000000000000000000000000000000000000000000000008152600401610ed790612699565b60405180910390fd5b60008111610eed57600080fd5b6000600160008060149054906101000a900460ff1660ff1660ff1681526020019081526020016000206040518060800160405290816000820160009054906101000a900463ffffffff1663ffffffff1663ffffffff1681526020016000820160049054906101000a900463ffffffff1663ffffffff1663ffffffff16815260200160018201548152602001600282015481525050905042816020019063ffffffff16908163ffffffff168152505081816060018181525050600560009054906101000a900473ffffffffffffffffffffffffffffffffffffffff1673ffffffffffffffffffffffffffffffffffffffff166318160ddd6040518163ffffffff1660e01b815260040160206040518083038186803b15801561100d57600080fd5b505afa158015611021573d6000803e3d6000fd5b505050506040513d601f19601f820116820180604052508101906110459190612364565b81604001818152505080600160008060149054906101000a900460ff1660ff1660ff16815260200190815260200160002060008201518160000160006101000a81548163ffffffff021916908363ffffffff16021790555060208201518160000160046101000a81548163ffffffff021916908363ffffffff16021790555060408201518160010155606082015181600201559050507fb5a927304116e39aa3a6faa912604add4565a926be6ec77c5caa602e5811b5bf828260400151600060149054906101000a900460ff166040516111219392919061275d565b60405180910390a16000601481819054906101000a900460ff168092919061114890612ac7565b91906101000a81548160ff021916908360ff160217905550508160086000828254611173919061288b565b925050819055505050565b6000600560009054906101000a900473ffffffffffffffffffffffffffffffffffffffff16905090565b6000600460009054906101000a900473ffffffffffffffffffffffffffffffffffffffff16905090565b6111da6113a0565b73ffffffffffffffffffffffffffffffffffffffff166111f8610cd3565b73ffffffffffffffffffffffffffffffffffffffff161461124e576040517f08c379a000000000000000000000000000000000000000000000000000000000815260040161124590612699565b60405180910390fd5b600073ffffffffffffffffffffffffffffffffffffffff168173ffffffffffffffffffffffffffffffffffffffff1614156112be576040517f08c379a00000000000000000000000000000000000000000000000000000000081526004016112b5906125f9565b60405180910390fd5b6112c7816114ba565b50565b600073ffffffffffffffffffffffffffffffffffffffff168173ffffffffffffffffffffffffffffffffffffffff16141561130457600080fd5b60006001600260008473ffffffffffffffffffffffffffffffffffffffff1673ffffffffffffffffffffffffffffffffffffffff16815260200190815260200160002060009054906101000a900460ff1661135f91906128e1565b90505b600060149054906101000a900460ff1660ff168160ff16101561139c576113898282610431565b808061139490612ac7565b915050611362565b5050565b600033905090565b60008263ffffffff1682846113bd91906129d7565b91508163ffffffff1611156113d157600080fd5b92915050565b600061142166038d7ea4c68000806114096114046113fe8789611a7990919063ffffffff16565b88611a9c565b611ca3565b6114139190612918565b611ce190919063ffffffff16565b905092915050565b600061146166038d7ea4c68000806114496114448787611a9c565b611ca3565b6114539190612918565b611ce190919063ffffffff16565b905092915050565b60006114b16ec097ce7bc90715b34b9f10000000006114a3846114958789611ce190919063ffffffff16565b611ce190919063ffffffff16565b611d1890919063ffffffff16565b90509392505050565b60008060009054906101000a900473ffffffffffffffffffffffffffffffffffffffff169050816000806101000a81548173ffffffffffffffffffffffffffffffffffffffff021916908373ffffffffffffffffffffffffffffffffffffffff1602179055508173ffffffffffffffffffffffffffffffffffffffff168173ffffffffffffffffffffffffffffffffffffffff167f8be0079c531659141344cd1fd0a4f28419497f9722a3daafe3b4186f6b6457e060405160405180910390a35050565b600080600360008673ffffffffffffffffffffffffffffffffffffffff1673ffffffffffffffffffffffffffffffffffffffff16815260200190815260200160002060008060149054906101000a900460ff1660ff1660ff168152602001908152602001600020604051806080016040529081600082015481526020016001820160009054906101000a900463ffffffff1663ffffffff1663ffffffff1681526020016001820160049054906101000a900460ff1660ff1660ff1681526020016001820160059054906101000a900460ff161515151581525050905082156118595760006116b08260200151600160008060149054906101000a900460ff1660ff1660ff16815260200190815260200160002060000160009054906101000a900463ffffffff16846000015188611d62565b90506116cd670de0b6b3a764000082611d1890919063ffffffff16565b826020019063ffffffff16908163ffffffff16815250506116fb858360000151611df590919063ffffffff16565b826000018181525050600060149054906101000a900460ff16826040019060ff16908160ff168152505081600360008873ffffffffffffffffffffffffffffffffffffffff1673ffffffffffffffffffffffffffffffffffffffff16815260200190815260200160002060008060149054906101000a900460ff1660ff1660ff1681526020019081526020016000206000820151816000015560208201518160010160006101000a81548163ffffffff021916908363ffffffff16021790555060408201518160010160046101000a81548160ff021916908360ff16021790555060608201518160010160056101000a81548160ff0219169083151502179055509050508573ffffffffffffffffffffffffffffffffffffffff167f388581407fcab28d7eaeffaf92f1716df2203258960164e8401a02b1efb5c11d8683604051611847929190612734565b60405180910390a28092505050611a72565b611870848260000151611a7990919063ffffffff16565b81600001818152505080600360008773ffffffffffffffffffffffffffffffffffffffff1673ffffffffffffffffffffffffffffffffffffffff16815260200190815260200160002060008060149054906101000a900460ff1660ff1660ff1681526020019081526020016000206000820151816000015560208201518160010160006101000a81548163ffffffff021916908363ffffffff16021790555060408201518160010160046101000a81548160ff021916908360ff16021790555060608201518160010160056101000a81548160ff021916908315150217905550905050600081600001511415611a0f57600360008673ffffffffffffffffffffffffffffffffffffffff1673ffffffffffffffffffffffffffffffffffffffff16815260200190815260200160002060008060149054906101000a900460ff1660ff1660ff1681526020019081526020016000206000808201600090556001820160006101000a81549063ffffffff02191690556001820160046101000a81549060ff02191690556001820160056101000a81549060ff021916905550505b8473ffffffffffffffffffffffffffffffffffffffff167f1e301f7726fd710134cc80520b42a10391600bb16c2597bf2932bbad9c82eca9858360200151604051611a5b929190612794565b60405180910390a2806020015163ffffffff169150505b9392505050565b6000828284611a8891906129a3565b9150811115611a9657600080fd5b92915050565b611aa46121d7565b60008211611ae7576040517f08c379a0000000000000000000000000000000000000000000000000000000008152600401611ade90612639565b60405180910390fd5b6000831415611b2557604051806020016040528060007bffffffffffffffffffffffffffffffffffffffffffffffffffffffff168152509050611c9d565b71ffffffffffffffffffffffffffffffffffff80168311611bed57600082607060ff1685901b611b559190612918565b90507bffffffffffffffffffffffffffffffffffffffffffffffffffffffff8016811115611bb8576040517f08c379a0000000000000000000000000000000000000000000000000000000008152600401611baf906126b9565b60405180910390fd5b6040518060200160405280827bffffffffffffffffffffffffffffffffffffffffffffffffffffffff16815250915050611c9d565b6000611c09846e01000000000000000000000000000085611e18565b90507bffffffffffffffffffffffffffffffffffffffffffffffffffffffff8016811115611c6c576040517f08c379a0000000000000000000000000000000000000000000000000000000008152600401611c63906126b9565b60405180910390fd5b6040518060200160405280827bffffffffffffffffffffffffffffffffffffffffffffffffffffffff168152509150505b92915050565b60006612725dd1d243ab82600001517bffffffffffffffffffffffffffffffffffffffffffffffffffffffff16611cda9190612918565b9050919050565b600080831480611d09575081838385611cfa9190612949565b925082611d079190612918565b145b611d1257600080fd5b92915050565b6000611d5a83836040518060400160405280601a81526020017f536166654d6174683a206469766973696f6e206279207a65726f000000000000815250611ee6565b905092915050565b600080611d7e848763ffffffff16611ce190919063ffffffff16565b90506000611d9b8663ffffffff1642611a7990919063ffffffff16565b90506000611db28286611ce190919063ffffffff16565b90506000611dc98285611df590919063ffffffff16565b9050611de781611de2888a611df590919063ffffffff16565b611f49565b945050505050949350505050565b6000828284611e04919061288b565b9150811015611e1257600080fd5b92915050565b6000806000611e278686611f89565b9150915060008480611e62577f4e487b7100000000000000000000000000000000000000000000000000000000600052601260045260246000fd5b868809905082811115611e7f57600182611e7c91906129a3565b91505b8083611e8b91906129a3565b9250848210611ecf576040517f08c379a0000000000000000000000000000000000000000000000000000000008152600401611ec690612659565b60405180910390fd5b611eda838387612024565b93505050509392505050565b60008083118290611f2d576040517f08c379a0000000000000000000000000000000000000000000000000000000008152600401611f2491906125d7565b60405180910390fd5b5060008385611f3c9190612918565b9050809150509392505050565b6000611f8166038d7ea4c6800080611f69611f648787611a9c565b611ca3565b611f739190612918565b611ce190919063ffffffff16565b905092915050565b60008060007fffffffffffffffffffffffffffffffffffffffffffffffffffffffffffffffff80611fe3577f4e487b7100000000000000000000000000000000000000000000000000000000600052601260045260246000fd5b84860990508385611ff49190612949565b9250828161200291906129a3565b91508281101561201c5760018261201991906129a3565b91505b509250929050565b60008060018319612035919061288b565b8316905080836120459190612918565b925080856120539190612918565b945060018160018319612066919061288b565b6120709190612918565b61207a919061288b565b846120859190612949565b85612090919061288b565b945060006001905080846120a49190612949565b60026120b091906129a3565b816120bb9190612949565b905080846120c99190612949565b60026120d591906129a3565b816120e09190612949565b905080846120ee9190612949565b60026120fa91906129a3565b816121059190612949565b905080846121139190612949565b600261211f91906129a3565b8161212a9190612949565b905080846121389190612949565b600261214491906129a3565b8161214f9190612949565b9050808461215d9190612949565b600261216991906129a3565b816121749190612949565b905080846121829190612949565b600261218e91906129a3565b816121999190612949565b905080846121a79190612949565b60026121b391906129a3565b816121be9190612949565b905080866121cc9190612949565b925050509392505050565b604051806020016040528060007bffffffffffffffffffffffffffffffffffffffffffffffffffffffff1681525090565b60008135905061221781612d1d565b92915050565b60008151905061222c81612d34565b92915050565b60008135905061224181612d4b565b92915050565b60008151905061225681612d4b565b92915050565b60008135905061226b81612d62565b92915050565b60006020828403121561228357600080fd5b600061229184828501612208565b91505092915050565b600080604083850312156122ad57600080fd5b60006122bb85828601612208565b92505060206122cc85828601612232565b9150509250929050565b600080604083850312156122e957600080fd5b60006122f785828601612208565b92505060206123088582860161225c565b9150509250929050565b60006020828403121561232457600080fd5b60006123328482850161221d565b91505092915050565b60006020828403121561234d57600080fd5b600061235b84828501612232565b91505092915050565b60006020828403121561237657600080fd5b600061238484828501612247565b91505092915050565b60006020828403121561239f57600080fd5b60006123ad8482850161225c565b91505092915050565b6123bf81612a0b565b82525050565b6123ce81612a1d565b82525050565b60006123df8261286f565b6123e9818561287a565b93506123f9818560208601612a94565b61240281612b4f565b840191505092915050565b600061241a60268361287a565b915061242582612b60565b604082019050919050565b600061243d60038361287a565b915061244882612baf565b602082019050919050565b600061246060268361287a565b915061246b82612bd8565b604082019050919050565b6000612483601a8361287a565b915061248e82612c27565b602082019050919050565b60006124a660198361287a565b91506124b182612c50565b602082019050919050565b60006124c960208361287a565b91506124d482612c79565b602082019050919050565b60006124ec601e8361287a565b91506124f782612ca2565b602082019050919050565b600061250f60148361287a565b915061251a82612ccb565b602082019050919050565b600061253260128361287a565b915061253d82612cf4565b602082019050919050565b61255181612a49565b82525050565b61256081612a70565b82525050565b61256f81612a53565b82525050565b61257e81612a82565b82525050565b61258d81612a63565b82525050565b60006020820190506125a860008301846123b6565b92915050565b60006040820190506125c360008301856123b6565b6125d06020830184612548565b9392505050565b600060208201905081810360008301526125f181846123d4565b905092915050565b600060208201905081810360008301526126128161240d565b9050919050565b6000602082019050818103600083015261263281612430565b9050919050565b6000602082019050818103600083015261265281612453565b9050919050565b6000602082019050818103600083015261267281612476565b9050919050565b6000602082019050818103600083015261269281612499565b9050919050565b600060208201905081810360008301526126b2816124bc565b9050919050565b600060208201905081810360008301526126d2816124df565b9050919050565b600060208201905081810360008301526126f281612502565b9050919050565b6000602082019050818103600083015261271281612525565b9050919050565b600060208201905061272e6000830184612548565b92915050565b60006040820190506127496000830185612548565b6127566020830184612548565b9392505050565b60006060820190506127726000830186612548565b61277f6020830185612548565b61278c6040830184612584565b949350505050565b60006040820190506127a96000830185612548565b6127b66020830184612557565b9392505050565b60006080820190506127d26000830187612548565b6127df6020830186612566565b6127ec6040830185612584565b6127f960608301846123c5565b95945050505050565b60006040820190506128176000830185612548565b6128246020830184612575565b9392505050565b60006040820190506128406000830185612566565b61284d6020830184612566565b9392505050565b60006020820190506128696000830184612584565b92915050565b600081519050919050565b600082825260208201905092915050565b600061289682612a49565b91506128a183612a49565b9250827fffffffffffffffffffffffffffffffffffffffffffffffffffffffffffffffff038211156128d6576128d5612af1565b5b828201905092915050565b60006128ec82612a63565b91506128f783612a63565b92508260ff0382111561290d5761290c612af1565b5b828201905092915050565b600061292382612a49565b915061292e83612a49565b92508261293e5761293d612b20565b5b828204905092915050565b600061295482612a49565b915061295f83612a49565b9250817fffffffffffffffffffffffffffffffffffffffffffffffffffffffffffffffff048311821515161561299857612997612af1565b5b828202905092915050565b60006129ae82612a49565b91506129b983612a49565b9250828210156129cc576129cb612af1565b5b828203905092915050565b60006129e282612a53565b91506129ed83612a53565b925082821015612a00576129ff612af1565b5b828203905092915050565b6000612a1682612a29565b9050919050565b60008115159050919050565b600073ffffffffffffffffffffffffffffffffffffffff82169050919050565b6000819050919050565b600063ffffffff82169050919050565b600060ff82169050919050565b6000612a7b82612a53565b9050919050565b6000612a8d82612a63565b9050919050565b60005b83811015612ab2578082015181840152602081019050612a97565b83811115612ac1576000848401525b50505050565b6000612ad282612a63565b915060ff821415612ae657612ae5612af1565b5b600182019050919050565b7f4e487b7100000000000000000000000000000000000000000000000000000000600052601160045260246000fd5b7f4e487b7100000000000000000000000000000000000000000000000000000000600052601260045260246000fd5b6000601f19601f8301169050919050565b7f4f776e61626c653a206e6577206f776e657220697320746865207a65726f206160008201527f6464726573730000000000000000000000000000000000000000000000000000602082015250565b7f4f53430000000000000000000000000000000000000000000000000000000000600082015250565b7f4669786564506f696e743a3a6672616374696f6e3a206469766973696f6e206260008201527f79207a65726f0000000000000000000000000000000000000000000000000000602082015250565b7f46756c6c4d6174683a3a6d756c4469763a206f766572666c6f77000000000000600082015250565b7f557365722048617320616c72656164792052656465656d656400000000000000600082015250565b7f4f776e61626c653a2063616c6c6572206973206e6f7420746865206f776e6572600082015250565b7f4669786564506f696e743a3a6672616374696f6e3a206f766572666c6f770000600082015250565b7f496e76616c696420526577617264204379636c65000000000000000000000000600082015250565b7f5374616b656420416d6f756e7420697320300000000000000000000000000000600082015250565b612d2681612a0b565b8114612d3157600080fd5b50565b612d3d81612a1d565b8114612d4857600080fd5b50565b612d5481612a49565b8114612d5f57600080fd5b50565b612d6b81612a63565b8114612d7657600080fd5b5056fea2646970667358221220e9b79637cffd5542559aa179e49780d01dd26cff2e787a5c25eabacc53e5f46464736f6c63430008040033",
  "linkReferences": {},
  "deployedLinkReferences": {}
}