{
  "_format": "hh-sol-artifact-1",
  "contractName": "RewardDistributor",
  "sourceName": "contracts/coreContracts/RewardDistributor.sol",
  "abi": [
    {
      "inputs": [
        {
          "internalType": "address",
          "name": "stakingContract_",
          "type": "address"
        },
        {
          "internalType": "address",
          "name": "stakedOrfiAddress_",
          "type": "address"
        }
      ],
      "stateMutability": "nonpayable",
      "type": "constructor"
    },
    {
      "anonymous": false,
      "inputs": [
        {
          "indexed": true,
          "internalType": "address",
          "name": "previousOwner",
          "type": "address"
        },
        {
          "indexed": true,
          "internalType": "address",
          "name": "newOwner",
          "type": "address"
        }
      ],
      "name": "OwnershipTransferred",
      "type": "event"
    },
    {
      "anonymous": false,
      "inputs": [
        {
          "indexed": true,
          "internalType": "address",
          "name": "account",
          "type": "address"
        },
        {
          "indexed": false,
          "internalType": "uint256",
          "name": "amount",
          "type": "uint256"
        },
        {
          "indexed": false,
          "internalType": "uint256",
          "name": "rewardCycle",
          "type": "uint256"
        }
      ],
      "name": "RedeemedRewards",
      "type": "event"
    },
    {
      "anonymous": false,
      "inputs": [
        {
          "indexed": false,
          "internalType": "uint256",
          "name": "allocatedRewards",
          "type": "uint256"
        },
        {
          "indexed": false,
          "internalType": "uint256",
          "name": "totalStakedOrfi",
          "type": "uint256"
        },
        {
          "indexed": false,
          "internalType": "uint8",
          "name": "rewardCycle",
          "type": "uint8"
        }
      ],
      "name": "RewardCycleCompleted",
      "type": "event"
    },
    {
      "anonymous": false,
      "inputs": [
        {
          "indexed": true,
          "internalType": "address",
          "name": "account",
          "type": "address"
        },
        {
          "indexed": false,
          "internalType": "uint256",
          "name": "amount",
          "type": "uint256"
        },
        {
          "indexed": false,
          "internalType": "uint256",
          "name": "averageTime",
          "type": "uint256"
        }
      ],
      "name": "StakeBalanceUpdated",
      "type": "event"
    },
    {
      "anonymous": false,
      "inputs": [
        {
          "indexed": true,
          "internalType": "address",
          "name": "account",
          "type": "address"
        },
        {
          "indexed": false,
          "internalType": "uint256",
          "name": "amount",
          "type": "uint256"
        },
        {
          "indexed": false,
          "internalType": "uint256",
          "name": "averageTime",
          "type": "uint256"
        }
      ],
      "name": "UnstakeBalanceUpdated",
      "type": "event"
    },
    {
      "inputs": [
        {
          "internalType": "uint8",
          "name": "",
          "type": "uint8"
        }
      ],
      "name": "_rewardCycleMapping",
      "outputs": [
        {
          "internalType": "uint32",
          "name": "startTimestamp",
          "type": "uint32"
        },
        {
          "internalType": "uint32",
          "name": "endTimestamp",
          "type": "uint32"
        },
        {
          "internalType": "uint256",
          "name": "totalStakedOrfiAmount",
          "type": "uint256"
        },
        {
          "internalType": "uint256",
          "name": "totalAllocatedRewards",
          "type": "uint256"
        }
      ],
      "stateMutability": "view",
      "type": "function"
    },
    {
      "inputs": [
        {
          "internalType": "address",
          "name": "",
          "type": "address"
        }
      ],
      "name": "_userActivityMapping",
      "outputs": [
        {
          "internalType": "uint8",
          "name": "",
          "type": "uint8"
        }
      ],
      "stateMutability": "view",
      "type": "function"
    },
    {
      "inputs": [
        {
          "internalType": "address",
          "name": "",
          "type": "address"
        },
        {
          "internalType": "uint8",
          "name": "",
          "type": "uint8"
        }
      ],
      "name": "_userStakeInfoToRewardCycleMapping",
      "outputs": [
        {
          "internalType": "uint256",
          "name": "stakedOrfiAmount",
          "type": "uint256"
        },
        {
          "internalType": "uint32",
          "name": "averageInvestedTime",
          "type": "uint32"
        },
        {
          "internalType": "uint8",
          "name": "rewardCycle",
          "type": "uint8"
        },
        {
          "internalType": "bool",
          "name": "redeemed",
          "type": "bool"
        }
      ],
      "stateMutability": "view",
      "type": "function"
    },
    {
      "inputs": [
        {
          "internalType": "uint256",
          "name": "rewardAmount",
          "type": "uint256"
        }
      ],
      "name": "completeRewardCycle",
      "outputs": [],
      "stateMutability": "nonpayable",
      "type": "function"
    },
    {
      "inputs": [],
      "name": "currentRewardCycle",
      "outputs": [
        {
          "internalType": "uint8",
          "name": "",
          "type": "uint8"
        }
      ],
      "stateMutability": "view",
      "type": "function"
    },
    {
      "inputs": [
        {
          "internalType": "uint8",
          "name": "rewardCycleId",
          "type": "uint8"
        }
      ],
      "name": "getRewardCycleTimeWindow",
      "outputs": [
        {
          "internalType": "uint32",
          "name": "startTime_",
          "type": "uint32"
        },
        {
          "internalType": "uint32",
          "name": "endTime_",
          "type": "uint32"
        }
      ],
      "stateMutability": "view",
      "type": "function"
    },
    {
      "inputs": [
        {
          "internalType": "uint8",
          "name": "rewardCycleId",
          "type": "uint8"
        }
      ],
      "name": "getTotalRewardsForCycle",
      "outputs": [
        {
          "internalType": "uint256",
          "name": "",
          "type": "uint256"
        }
      ],
      "stateMutability": "view",
      "type": "function"
    },
    {
      "inputs": [
        {
          "internalType": "address",
          "name": "account_",
          "type": "address"
        }
      ],
      "name": "getTotalRewardsForUser",
      "outputs": [
        {
          "internalType": "uint256",
          "name": "",
          "type": "uint256"
        }
      ],
      "stateMutability": "view",
      "type": "function"
    },
    {
      "inputs": [
        {
          "internalType": "uint8",
          "name": "rewardCycle",
          "type": "uint8"
        }
      ],
      "name": "getTotalStakedOrfiForACycle",
      "outputs": [
        {
          "internalType": "uint256",
          "name": "amount_",
          "type": "uint256"
        }
      ],
      "stateMutability": "view",
      "type": "function"
    },
    {
      "inputs": [
        {
          "internalType": "address",
          "name": "account_",
          "type": "address"
        },
        {
          "internalType": "uint8",
          "name": "rewardCycle",
          "type": "uint8"
        }
      ],
      "name": "getTotalStakedOrfiOfUserForACycle",
      "outputs": [
        {
          "internalType": "uint256",
          "name": "amount_",
          "type": "uint256"
        }
      ],
      "stateMutability": "view",
      "type": "function"
    },
    {
      "inputs": [],
      "name": "owner",
      "outputs": [
        {
          "internalType": "address",
          "name": "",
          "type": "address"
        }
      ],
      "stateMutability": "view",
      "type": "function"
    },
    {
      "inputs": [
        {
          "internalType": "address",
          "name": "account_",
          "type": "address"
        },
        {
          "internalType": "uint8",
          "name": "rewardCycle_",
          "type": "uint8"
        }
      ],
      "name": "redeemRewardsForACycle",
      "outputs": [],
      "stateMutability": "nonpayable",
      "type": "function"
    },
    {
      "inputs": [
        {
          "internalType": "address",
          "name": "account_",
          "type": "address"
        }
      ],
      "name": "redeemTotalRewardsForUser",
      "outputs": [],
      "stateMutability": "nonpayable",
      "type": "function"
    },
    {
      "inputs": [],
      "name": "renounceOwnership",
      "outputs": [],
      "stateMutability": "nonpayable",
      "type": "function"
    },
    {
      "inputs": [
        {
          "internalType": "address",
          "name": "account_",
          "type": "address"
        },
        {
          "internalType": "uint8",
          "name": "rewardCycle_",
          "type": "uint8"
        }
      ],
      "name": "rewardsForACycle",
      "outputs": [
        {
          "internalType": "uint256",
          "name": "",
          "type": "uint256"
        }
      ],
      "stateMutability": "view",
      "type": "function"
    },
    {
      "inputs": [
        {
          "internalType": "address",
          "name": "stableCoinAddress_",
          "type": "address"
        }
      ],
      "name": "setStableCoinAddress",
      "outputs": [],
      "stateMutability": "nonpayable",
      "type": "function"
    },
    {
      "inputs": [
        {
          "internalType": "address",
          "name": "treasuryAddress_",
          "type": "address"
        }
      ],
      "name": "setTreasuryAddress",
      "outputs": [],
      "stateMutability": "nonpayable",
      "type": "function"
    },
    {
      "inputs": [
        {
          "internalType": "address",
          "name": "to_",
          "type": "address"
        },
        {
          "internalType": "uint256",
          "name": "amount",
          "type": "uint256"
        }
      ],
      "name": "stake",
      "outputs": [],
      "stateMutability": "nonpayable",
      "type": "function"
    },
    {
      "inputs": [],
      "name": "stakedOrfiAddress",
      "outputs": [
        {
          "internalType": "address",
          "name": "",
          "type": "address"
        }
      ],
      "stateMutability": "view",
      "type": "function"
    },
    {
      "inputs": [],
      "name": "stakingContract",
      "outputs": [
        {
          "internalType": "address",
          "name": "",
          "type": "address"
        }
      ],
      "stateMutability": "view",
      "type": "function"
    },
    {
      "inputs": [
        {
          "internalType": "address",
          "name": "newOwner",
          "type": "address"
        }
      ],
      "name": "transferOwnership",
      "outputs": [],
      "stateMutability": "nonpayable",
      "type": "function"
    },
    {
      "inputs": [
        {
          "internalType": "address",
          "name": "to_",
          "type": "address"
        },
        {
          "internalType": "uint256",
          "name": "amount",
          "type": "uint256"
        }
      ],
      "name": "unstake",
      "outputs": [],
      "stateMutability": "nonpayable",
      "type": "function"
    }
  ],
  "bytecode": "0x60806040523480156200001157600080fd5b5060405162003ed738038062003ed78339818101604052810190620000379190620002a7565b620000576200004b620001c460201b60201c565b620001cc60201b60201c565b600073ffffffffffffffffffffffffffffffffffffffff168273ffffffffffffffffffffffffffffffffffffffff1614156200009257600080fd5b600073ffffffffffffffffffffffffffffffffffffffff168173ffffffffffffffffffffffffffffffffffffffff161415620000cd57600080fd5b6001600060146101000a81548160ff021916908360ff160217905550600060098190555042600160008060149054906101000a900460ff1660ff1660ff16815260200190815260200160002060000160006101000a81548163ffffffff021916908363ffffffff16021790555081600560006101000a81548173ffffffffffffffffffffffffffffffffffffffff021916908373ffffffffffffffffffffffffffffffffffffffff16021790555080600660006101000a81548173ffffffffffffffffffffffffffffffffffffffff021916908373ffffffffffffffffffffffffffffffffffffffff160217905550505062000336565b600033905090565b60008060009054906101000a900473ffffffffffffffffffffffffffffffffffffffff169050816000806101000a81548173ffffffffffffffffffffffffffffffffffffffff021916908373ffffffffffffffffffffffffffffffffffffffff1602179055508173ffffffffffffffffffffffffffffffffffffffff168173ffffffffffffffffffffffffffffffffffffffff167f8be0079c531659141344cd1fd0a4f28419497f9722a3daafe3b4186f6b6457e060405160405180910390a35050565b600081519050620002a1816200031c565b92915050565b60008060408385031215620002bb57600080fd5b6000620002cb8582860162000290565b9250506020620002de8582860162000290565b9150509250929050565b6000620002f582620002fc565b9050919050565b600073ffffffffffffffffffffffffffffffffffffffff82169050919050565b6200032781620002e8565b81146200033357600080fd5b50565b613b9180620003466000396000f3fe608060405234801561001057600080fd5b50600436106101425760003560e01c8063715018a6116100b8578063c2a672e01161007c578063c2a672e01461039f578063c65a376e146103bb578063ce7ae0e6146103ee578063ee99205c1461040a578063f2fde38b14610428578063fa38cdc51461044457610142565b8063715018a61461030d57806388d1940f146103175780638da5cb5b14610335578063adc9772e14610353578063b5185df61461036f57610142565b80636605bfda1161010a5780636605bfda146101fd57806366503312146102195780636bb65afa146102495780636cc6e5d0146102795780636cc81cc4146102a95780636e93e9f2146102dc57610142565b8063316dfa721461014757806332c8e76c1461017757806344879b3b146101a757806344a71036146101c35780634dd7dee0146101df575b600080fd5b610161600480360381019061015c9190612d5a565b610460565b60405161016e91906134d6565b60405180910390f35b610191600480360381019061018c9190612dbf565b610480565b60405161019e9190613356565b60405180910390f35b6101c160048036038101906101bc9190612d5a565b6104e4565b005b6101dd60048036038101906101d89190612dbf565b6105de565b005b6101e761082b565b6040516101f491906134d6565b60405180910390f35b61021760048036038101906102129190612d5a565b61083e565b005b610233600480360381019061022e9190612d5a565b610938565b6040516102409190613356565b60405180910390f35b610263600480360381019061025e9190612dbf565b610a23565b6040516102709190613356565b60405180910390f35b610293600480360381019061028e9190612e76565b610e5b565b6040516102a09190613356565b60405180910390f35b6102c360048036038101906102be9190612dbf565b610e81565b6040516102d394939291906133fa565b60405180910390f35b6102f660048036038101906102f19190612e76565b610ee8565b604051610304929190613468565b60405180910390f35b610315610f4e565b005b61031f610fd6565b60405161032c9190613150565b60405180910390f35b61033d611000565b60405161034a9190613150565b60405180910390f35b61036d60048036038101906103689190612d83565b611029565b005b61038960048036038101906103849190612e76565b6110ca565b6040516103969190613356565b60405180910390f35b6103b960048036038101906103b49190612d83565b6110f0565b005b6103d560048036038101906103d09190612e76565b611191565b6040516103e59493929190613491565b60405180910390f35b61040860048036038101906104039190612e24565b6111e1565b005b610412611590565b60405161041f9190613150565b60405180910390f35b610442600480360381019061043d9190612d5a565b6115ba565b005b61045e60048036038101906104599190612d5a565b6116b2565b005b60046020528060005260406000206000915054906101000a900460ff1681565b6000600360008473ffffffffffffffffffffffffffffffffffffffff1673ffffffffffffffffffffffffffffffffffffffff16815260200190815260200160002060008360ff1660ff16815260200190815260200160002060000154905092915050565b6104ec611788565b73ffffffffffffffffffffffffffffffffffffffff1661050a611000565b73ffffffffffffffffffffffffffffffffffffffff1614610560576040517f08c379a000000000000000000000000000000000000000000000000000000000815260040161055790613276565b60405180910390fd5b600073ffffffffffffffffffffffffffffffffffffffff168173ffffffffffffffffffffffffffffffffffffffff16141561059a57600080fd5b80600760006101000a81548173ffffffffffffffffffffffffffffffffffffffff021916908373ffffffffffffffffffffffffffffffffffffffff16021790555050565b6105e782611790565b60006105f38383610a23565b90506001600360008573ffffffffffffffffffffffffffffffffffffffff1673ffffffffffffffffffffffffffffffffffffffff16815260200190815260200160002060008460ff1660ff16815260200190815260200160002060010160056101000a81548160ff0219169083151502179055508060096000828254610679919061363b565b9250508190555081600260008573ffffffffffffffffffffffffffffffffffffffff1673ffffffffffffffffffffffffffffffffffffffff16815260200190815260200160002060006101000a81548160ff021916908360ff160217905550600860009054906101000a900473ffffffffffffffffffffffffffffffffffffffff1673ffffffffffffffffffffffffffffffffffffffff16630b0eee30600760009054906101000a900473ffffffffffffffffffffffffffffffffffffffff16836040518363ffffffff1660e01b815260040161075792919061316b565b600060405180830381600087803b15801561077157600080fd5b505af1158015610785573d6000803e3d6000fd5b505050506107d68382600760009054906101000a900473ffffffffffffffffffffffffffffffffffffffff1673ffffffffffffffffffffffffffffffffffffffff16611aea9092919063ffffffff16565b8273ffffffffffffffffffffffffffffffffffffffff167f29f54648bf4cdde44fd5ab419946327cf486052f3f89c2a5d87470351ce2850d828460405161081e92919061343f565b60405180910390a2505050565b600060149054906101000a900460ff1681565b610846611788565b73ffffffffffffffffffffffffffffffffffffffff16610864611000565b73ffffffffffffffffffffffffffffffffffffffff16146108ba576040517f08c379a00000000000000000000000000000000000000000000000000000000081526004016108b190613276565b60405180910390fd5b600073ffffffffffffffffffffffffffffffffffffffff168173ffffffffffffffffffffffffffffffffffffffff1614156108f457600080fd5b80600860006101000a81548173ffffffffffffffffffffffffffffffffffffffff021916908373ffffffffffffffffffffffffffffffffffffffff16021790555050565b60008073ffffffffffffffffffffffffffffffffffffffff168273ffffffffffffffffffffffffffffffffffffffff16141561097357600080fd5b6000806001600260008673ffffffffffffffffffffffffffffffffffffffff1673ffffffffffffffffffffffffffffffffffffffff16815260200190815260200160002060009054906101000a900460ff166109cf9190613579565b90505b600060149054906101000a900460ff1660ff168160ff161015610a19576109f98482610a23565b82610a049190613523565b91508080610a1190613793565b9150506109d2565b5080915050919050565b60008073ffffffffffffffffffffffffffffffffffffffff168373ffffffffffffffffffffffffffffffffffffffff161415610a5e57600080fd5b600060149054906101000a900460ff1660ff168260ff1610610ab5576040517f08c379a0000000000000000000000000000000000000000000000000000000008152600401610aac906132b6565b60405180910390fd5b6000600460008573ffffffffffffffffffffffffffffffffffffffff1673ffffffffffffffffffffffffffffffffffffffff16815260200190815260200160002060009054906101000a900460ff169050610b0e612c8d565b8160ff168460ff161115610c0557600360008673ffffffffffffffffffffffffffffffffffffffff1673ffffffffffffffffffffffffffffffffffffffff16815260200190815260200160002060008360ff1660ff168152602001908152602001600020604051806080016040529081600082015481526020016001820160009054906101000a900463ffffffff1663ffffffff1663ffffffff1681526020016001820160049054906101000a900460ff1660ff1660ff1681526020016001820160059054906101000a900460ff16151515158152505090506000816020019063ffffffff16908163ffffffff1681525050610cd1565b600360008673ffffffffffffffffffffffffffffffffffffffff1673ffffffffffffffffffffffffffffffffffffffff16815260200190815260200160002060008560ff1660ff168152602001908152602001600020604051806080016040529081600082015481526020016001820160009054906101000a900463ffffffff1663ffffffff1663ffffffff1681526020016001820160049054906101000a900460ff1660ff1660ff1681526020016001820160059054906101000a900460ff16151515158152505090505b806060015115610d16576040517f08c379a0000000000000000000000000000000000000000000000000000000008152600401610d0d90613256565b60405180910390fd5b6000816000015111610d5d576040517f08c379a0000000000000000000000000000000000000000000000000000000008152600401610d54906132f6565b60405180910390fd5b6000600160008660ff1660ff1681526020019081526020016000206040518060800160405290816000820160009054906101000a900463ffffffff1663ffffffff1663ffffffff1681526020016000820160049054906101000a900463ffffffff1663ffffffff1663ffffffff1681526020016001820154815260200160028201548152505090506000610e088260000151836020015163ffffffff16611b7090919063ffffffff16565b90506000610e268263ffffffff16856020015163ffffffff16611b9f565b90506000610e3c85600001518560400151611bf1565b9050610e4d82828660600151611c31565b965050505050505092915050565b6000600160008360ff1660ff168152602001908152602001600020600101549050919050565b6003602052816000526040600020602052806000526040600020600091509150508060000154908060010160009054906101000a900463ffffffff16908060010160049054906101000a900460ff16908060010160059054906101000a900460ff16905084565b600080600160008460ff1660ff16815260200190815260200160002060000160009054906101000a900463ffffffff169150600160008460ff1660ff16815260200190815260200160002060000160049054906101000a900463ffffffff169050915091565b610f56611788565b73ffffffffffffffffffffffffffffffffffffffff16610f74611000565b73ffffffffffffffffffffffffffffffffffffffff1614610fca576040517f08c379a0000000000000000000000000000000000000000000000000000000008152600401610fc190613276565b60405180910390fd5b610fd46000611c82565b565b6000600660009054906101000a900473ffffffffffffffffffffffffffffffffffffffff16905090565b60008060009054906101000a900473ffffffffffffffffffffffffffffffffffffffff16905090565b600560009054906101000a900473ffffffffffffffffffffffffffffffffffffffff1673ffffffffffffffffffffffffffffffffffffffff163373ffffffffffffffffffffffffffffffffffffffff16146110b9576040517f08c379a00000000000000000000000000000000000000000000000000000000081526004016110b0906131d6565b60405180910390fd5b6110c582826001611d46565b505050565b6000600160008360ff1660ff168152602001908152602001600020600201549050919050565b600560009054906101000a900473ffffffffffffffffffffffffffffffffffffffff1673ffffffffffffffffffffffffffffffffffffffff163373ffffffffffffffffffffffffffffffffffffffff1614611180576040517f08c379a0000000000000000000000000000000000000000000000000000000008152600401611177906131d6565b60405180910390fd5b61118c82826000611d46565b505050565b60016020528060005260406000206000915090508060000160009054906101000a900463ffffffff16908060000160049054906101000a900463ffffffff16908060010154908060020154905084565b6111e9611788565b73ffffffffffffffffffffffffffffffffffffffff16611207611000565b73ffffffffffffffffffffffffffffffffffffffff161461125d576040517f08c379a000000000000000000000000000000000000000000000000000000000815260040161125490613276565b60405180910390fd5b6000811161126a57600080fd5b6000600160008060149054906101000a900460ff1660ff1660ff1681526020019081526020016000206040518060800160405290816000820160009054906101000a900463ffffffff1663ffffffff1663ffffffff1681526020016000820160049054906101000a900463ffffffff1663ffffffff1663ffffffff16815260200160018201548152602001600282015481525050905042816000015163ffffffff161061134c576040517f08c379a000000000000000000000000000000000000000000000000000000000815260040161134390613336565b60405180910390fd5b42816020019063ffffffff16908163ffffffff168152505081816060018181525050600660009054906101000a900473ffffffffffffffffffffffffffffffffffffffff1673ffffffffffffffffffffffffffffffffffffffff166318160ddd6040518163ffffffff1660e01b815260040160206040518083038186803b1580156113d657600080fd5b505afa1580156113ea573d6000803e3d6000fd5b505050506040513d601f19601f8201168201806040525081019061140e9190612e4d565b81604001818152505080600160008060149054906101000a900460ff1660ff1660ff16815260200190815260200160002060008201518160000160006101000a81548163ffffffff021916908363ffffffff16021790555060208201518160000160046101000a81548163ffffffff021916908363ffffffff16021790555060408201518160010155606082015181600201559050507fb5a927304116e39aa3a6faa912604add4565a926be6ec77c5caa602e5811b5bf828260400151600060149054906101000a900460ff166040516114ea9392919061339a565b60405180910390a16000601481819054906101000a900460ff168092919061151190613793565b91906101000a81548160ff021916908360ff16021790555050816009600082825461153c9190613523565b9250508190555042600160008060149054906101000a900460ff1660ff1660ff16815260200190815260200160002060000160006101000a81548163ffffffff021916908363ffffffff1602179055505050565b6000600560009054906101000a900473ffffffffffffffffffffffffffffffffffffffff16905090565b6115c2611788565b73ffffffffffffffffffffffffffffffffffffffff166115e0611000565b73ffffffffffffffffffffffffffffffffffffffff1614611636576040517f08c379a000000000000000000000000000000000000000000000000000000000815260040161162d90613276565b60405180910390fd5b600073ffffffffffffffffffffffffffffffffffffffff168173ffffffffffffffffffffffffffffffffffffffff1614156116a6576040517f08c379a000000000000000000000000000000000000000000000000000000000815260040161169d906131b6565b60405180910390fd5b6116af81611c82565b50565b600073ffffffffffffffffffffffffffffffffffffffff168173ffffffffffffffffffffffffffffffffffffffff1614156116ec57600080fd5b60006001600260008473ffffffffffffffffffffffffffffffffffffffff1673ffffffffffffffffffffffffffffffffffffffff16815260200190815260200160002060009054906101000a900460ff166117479190613579565b90505b600060149054906101000a900460ff1660ff168160ff1610156117845761177182826105de565b808061177c90613793565b91505061174a565b5050565b600033905090565b600060149054906101000a900460ff1660ff16600460008373ffffffffffffffffffffffffffffffffffffffff1673ffffffffffffffffffffffffffffffffffffffff16815260200190815260200160002060009054906101000a900460ff1660ff1614611ae75760006001600460008473ffffffffffffffffffffffffffffffffffffffff1673ffffffffffffffffffffffffffffffffffffffff16815260200190815260200160002060009054906101000a900460ff166118539190613579565b90505b600060149054906101000a900460ff1660ff168160ff1611611a7e576000600360008473ffffffffffffffffffffffffffffffffffffffff1673ffffffffffffffffffffffffffffffffffffffff16815260200190815260200160002060006001846118c291906136a3565b60ff1660ff168152602001908152602001600020604051806080016040529081600082015481526020016001820160009054906101000a900463ffffffff1663ffffffff1663ffffffff1681526020016001820160049054906101000a900460ff1660ff1660ff1681526020016001820160059054906101000a900460ff1615151515815250509050611953612c8d565b6000816020019063ffffffff16908163ffffffff168152505082816040019060ff16908160ff16815250508160000151816000018181525050600081606001901515908115158152505080600360008673ffffffffffffffffffffffffffffffffffffffff1673ffffffffffffffffffffffffffffffffffffffff16815260200190815260200160002060008560ff1660ff1681526020019081526020016000206000820151816000015560208201518160010160006101000a81548163ffffffff021916908363ffffffff16021790555060408201518160010160046101000a81548160ff021916908360ff16021790555060608201518160010160056101000a81548160ff02191690831515021790555090505050508080611a7690613793565b915050611856565b50600060149054906101000a900460ff16600460008373ffffffffffffffffffffffffffffffffffffffff1673ffffffffffffffffffffffffffffffffffffffff16815260200190815260200160002060006101000a81548160ff021916908360ff1602179055505b50565b611b6b8363a9059cbb60e01b8484604051602401611b0992919061316b565b604051602081830303815290604052907bffffffffffffffffffffffffffffffffffffffffffffffffffffffff19166020820180517bffffffffffffffffffffffffffffffffffffffffffffffffffffffff83818316178352505050506122b2565b505050565b60008263ffffffff168284611b85919061366f565b91508163ffffffff161115611b9957600080fd5b92915050565b6000611be966038d7ea4c6800080611bd1611bcc611bc6878961237990919063ffffffff16565b8861239c565b6125a3565b611bdb91906135b0565b6125e190919063ffffffff16565b905092915050565b6000611c2966038d7ea4c6800080611c11611c0c878761239c565b6125a3565b611c1b91906135b0565b6125e190919063ffffffff16565b905092915050565b6000611c796ec097ce7bc90715b34b9f1000000000611c6b84611c5d87896125e190919063ffffffff16565b6125e190919063ffffffff16565b61261890919063ffffffff16565b90509392505050565b60008060009054906101000a900473ffffffffffffffffffffffffffffffffffffffff169050816000806101000a81548173ffffffffffffffffffffffffffffffffffffffff021916908373ffffffffffffffffffffffffffffffffffffffff1602179055508173ffffffffffffffffffffffffffffffffffffffff168173ffffffffffffffffffffffffffffffffffffffff167f8be0079c531659141344cd1fd0a4f28419497f9722a3daafe3b4186f6b6457e060405160405180910390a35050565b6000611d5184611790565b6000600360008673ffffffffffffffffffffffffffffffffffffffff1673ffffffffffffffffffffffffffffffffffffffff16815260200190815260200160002060008060149054906101000a900460ff1660ff1660ff168152602001908152602001600020604051806080016040529081600082015481526020016001820160009054906101000a900463ffffffff1663ffffffff1663ffffffff1681526020016001820160049054906101000a900460ff1660ff1660ff1681526020016001820160059054906101000a900460ff1615151515815250509050600060149054906101000a900460ff16600460008773ffffffffffffffffffffffffffffffffffffffff1673ffffffffffffffffffffffffffffffffffffffff16815260200190815260200160002060006101000a81548160ff021916908360ff1602179055508215612092576000611ee98260200151600160008060149054906101000a900460ff1660ff1660ff16815260200190815260200160002060000160009054906101000a900463ffffffff16846000015188612662565b9050611f06670de0b6b3a76400008261261890919063ffffffff16565b826020019063ffffffff16908163ffffffff1681525050611f348583600001516126f590919063ffffffff16565b826000018181525050600060149054906101000a900460ff16826040019060ff16908160ff168152505081600360008873ffffffffffffffffffffffffffffffffffffffff1673ffffffffffffffffffffffffffffffffffffffff16815260200190815260200160002060008060149054906101000a900460ff1660ff1660ff1681526020019081526020016000206000820151816000015560208201518160010160006101000a81548163ffffffff021916908363ffffffff16021790555060408201518160010160046101000a81548160ff021916908360ff16021790555060608201518160010160056101000a81548160ff0219169083151502179055509050508573ffffffffffffffffffffffffffffffffffffffff167f388581407fcab28d7eaeffaf92f1716df2203258960164e8401a02b1efb5c11d8683604051612080929190613371565b60405180910390a280925050506122ab565b6120a984826000015161237990919063ffffffff16565b81600001818152505080600360008773ffffffffffffffffffffffffffffffffffffffff1673ffffffffffffffffffffffffffffffffffffffff16815260200190815260200160002060008060149054906101000a900460ff1660ff1660ff1681526020019081526020016000206000820151816000015560208201518160010160006101000a81548163ffffffff021916908363ffffffff16021790555060408201518160010160046101000a81548160ff021916908360ff16021790555060608201518160010160056101000a81548160ff02191690831515021790555090505060008160000151141561224857600360008673ffffffffffffffffffffffffffffffffffffffff1673ffffffffffffffffffffffffffffffffffffffff16815260200190815260200160002060008060149054906101000a900460ff1660ff1660ff1681526020019081526020016000206000808201600090556001820160006101000a81549063ffffffff02191690556001820160046101000a81549060ff02191690556001820160056101000a81549060ff021916905550505b8473ffffffffffffffffffffffffffffffffffffffff167f1e301f7726fd710134cc80520b42a10391600bb16c2597bf2932bbad9c82eca98583602001516040516122949291906133d1565b60405180910390a2806020015163ffffffff169150505b9392505050565b6000612314826040518060400160405280602081526020017f5361666545524332303a206c6f772d6c6576656c2063616c6c206661696c65648152508573ffffffffffffffffffffffffffffffffffffffff166127189092919063ffffffff16565b905060008151111561237457808060200190518101906123349190612dfb565b612373576040517f08c379a000000000000000000000000000000000000000000000000000000000815260040161236a90613316565b60405180910390fd5b5b505050565b6000828284612388919061363b565b915081111561239657600080fd5b92915050565b6123a4612cc0565b600082116123e7576040517f08c379a00000000000000000000000000000000000000000000000000000000081526004016123de90613216565b60405180910390fd5b600083141561242557604051806020016040528060007bffffffffffffffffffffffffffffffffffffffffffffffffffffffff16815250905061259d565b71ffffffffffffffffffffffffffffffffffff801683116124ed57600082607060ff1685901b61245591906135b0565b90507bffffffffffffffffffffffffffffffffffffffffffffffffffffffff80168111156124b8576040517f08c379a00000000000000000000000000000000000000000000000000000000081526004016124af90613296565b60405180910390fd5b6040518060200160405280827bffffffffffffffffffffffffffffffffffffffffffffffffffffffff1681525091505061259d565b6000612509846e01000000000000000000000000000085612730565b90507bffffffffffffffffffffffffffffffffffffffffffffffffffffffff801681111561256c576040517f08c379a000000000000000000000000000000000000000000000000000000000815260040161256390613296565b60405180910390fd5b6040518060200160405280827bffffffffffffffffffffffffffffffffffffffffffffffffffffffff168152509150505b92915050565b60006612725dd1d243ab82600001517bffffffffffffffffffffffffffffffffffffffffffffffffffffffff166125da91906135b0565b9050919050565b6000808314806126095750818383856125fa91906135e1565b92508261260791906135b0565b145b61261257600080fd5b92915050565b600061265a83836040518060400160405280601a81526020017f536166654d6174683a206469766973696f6e206279207a65726f0000000000008152506127fe565b905092915050565b60008061267e848763ffffffff166125e190919063ffffffff16565b9050600061269b8663ffffffff164261237990919063ffffffff16565b905060006126b282866125e190919063ffffffff16565b905060006126c982856126f590919063ffffffff16565b90506126e7816126e2888a6126f590919063ffffffff16565b612861565b945050505050949350505050565b60008282846127049190613523565b915081101561271257600080fd5b92915050565b606061272784846000856128a1565b90509392505050565b600080600061273f86866129b5565b915091506000848061277a577f4e487b7100000000000000000000000000000000000000000000000000000000600052601260045260246000fd5b86880990508281111561279757600182612794919061363b565b91505b80836127a3919061363b565b92508482106127e7576040517f08c379a00000000000000000000000000000000000000000000000000000000081526004016127de90613236565b60405180910390fd5b6127f2838387612a50565b93505050509392505050565b60008083118290612845576040517f08c379a000000000000000000000000000000000000000000000000000000000815260040161283c9190613194565b60405180910390fd5b506000838561285491906135b0565b9050809150509392505050565b600061289966038d7ea4c680008061288161287c878761239c565b6125a3565b61288b91906135b0565b6125e190919063ffffffff16565b905092915050565b6060824710156128e6576040517f08c379a00000000000000000000000000000000000000000000000000000000081526004016128dd906131f6565b60405180910390fd5b6128ef85612c03565b61292e576040517f08c379a0000000000000000000000000000000000000000000000000000000008152600401612925906132d6565b60405180910390fd5b6000808673ffffffffffffffffffffffffffffffffffffffff1685876040516129579190613139565b60006040518083038185875af1925050503d8060008114612994576040519150601f19603f3d011682016040523d82523d6000602084013e612999565b606091505b50915091506129a9828286612c26565b92505050949350505050565b60008060007fffffffffffffffffffffffffffffffffffffffffffffffffffffffffffffffff80612a0f577f4e487b7100000000000000000000000000000000000000000000000000000000600052601260045260246000fd5b84860990508385612a2091906135e1565b92508281612a2e919061363b565b915082811015612a4857600182612a45919061363b565b91505b509250929050565b60008060018319612a619190613523565b831690508083612a7191906135b0565b92508085612a7f91906135b0565b945060018160018319612a929190613523565b612a9c91906135b0565b612aa69190613523565b84612ab191906135e1565b85612abc9190613523565b94506000600190508084612ad091906135e1565b6002612adc919061363b565b81612ae791906135e1565b90508084612af591906135e1565b6002612b01919061363b565b81612b0c91906135e1565b90508084612b1a91906135e1565b6002612b26919061363b565b81612b3191906135e1565b90508084612b3f91906135e1565b6002612b4b919061363b565b81612b5691906135e1565b90508084612b6491906135e1565b6002612b70919061363b565b81612b7b91906135e1565b90508084612b8991906135e1565b6002612b95919061363b565b81612ba091906135e1565b90508084612bae91906135e1565b6002612bba919061363b565b81612bc591906135e1565b90508084612bd391906135e1565b6002612bdf919061363b565b81612bea91906135e1565b90508086612bf891906135e1565b925050509392505050565b6000808273ffffffffffffffffffffffffffffffffffffffff163b119050919050565b60608315612c3657829050612c86565b600083511115612c495782518084602001fd5b816040517f08c379a0000000000000000000000000000000000000000000000000000000008152600401612c7d9190613194565b60405180910390fd5b9392505050565b604051806080016040528060008152602001600063ffffffff168152602001600060ff1681526020016000151581525090565b604051806020016040528060007bffffffffffffffffffffffffffffffffffffffffffffffffffffffff1681525090565b600081359050612d0081613aff565b92915050565b600081519050612d1581613b16565b92915050565b600081359050612d2a81613b2d565b92915050565b600081519050612d3f81613b2d565b92915050565b600081359050612d5481613b44565b92915050565b600060208284031215612d6c57600080fd5b6000612d7a84828501612cf1565b91505092915050565b60008060408385031215612d9657600080fd5b6000612da485828601612cf1565b9250506020612db585828601612d1b565b9150509250929050565b60008060408385031215612dd257600080fd5b6000612de085828601612cf1565b9250506020612df185828601612d45565b9150509250929050565b600060208284031215612e0d57600080fd5b6000612e1b84828501612d06565b91505092915050565b600060208284031215612e3657600080fd5b6000612e4484828501612d1b565b91505092915050565b600060208284031215612e5f57600080fd5b6000612e6d84828501612d30565b91505092915050565b600060208284031215612e8857600080fd5b6000612e9684828501612d45565b91505092915050565b612ea8816136d7565b82525050565b612eb7816136e9565b82525050565b6000612ec8826134f1565b612ed28185613507565b9350612ee2818560208601613760565b80840191505092915050565b6000612ef9826134fc565b612f038185613512565b9350612f13818560208601613760565b612f1c8161381b565b840191505092915050565b6000612f34602683613512565b9150612f3f8261382c565b604082019050919050565b6000612f57600383613512565b9150612f628261387b565b602082019050919050565b6000612f7a602683613512565b9150612f85826138a4565b604082019050919050565b6000612f9d602683613512565b9150612fa8826138f3565b604082019050919050565b6000612fc0601a83613512565b9150612fcb82613942565b602082019050919050565b6000612fe3601983613512565b9150612fee8261396b565b602082019050919050565b6000613006602083613512565b915061301182613994565b602082019050919050565b6000613029601e83613512565b9150613034826139bd565b602082019050919050565b600061304c601483613512565b9150613057826139e6565b602082019050919050565b600061306f601d83613512565b915061307a82613a0f565b602082019050919050565b6000613092601283613512565b915061309d82613a38565b602082019050919050565b60006130b5602a83613512565b91506130c082613a61565b604082019050919050565b60006130d8602783613512565b91506130e382613ab0565b604082019050919050565b6130f781613715565b82525050565b6131068161373c565b82525050565b6131158161371f565b82525050565b6131248161374e565b82525050565b6131338161372f565b82525050565b60006131458284612ebd565b915081905092915050565b60006020820190506131656000830184612e9f565b92915050565b60006040820190506131806000830185612e9f565b61318d60208301846130ee565b9392505050565b600060208201905081810360008301526131ae8184612eee565b905092915050565b600060208201905081810360008301526131cf81612f27565b9050919050565b600060208201905081810360008301526131ef81612f4a565b9050919050565b6000602082019050818103600083015261320f81612f6d565b9050919050565b6000602082019050818103600083015261322f81612f90565b9050919050565b6000602082019050818103600083015261324f81612fb3565b9050919050565b6000602082019050818103600083015261326f81612fd6565b9050919050565b6000602082019050818103600083015261328f81612ff9565b9050919050565b600060208201905081810360008301526132af8161301c565b9050919050565b600060208201905081810360008301526132cf8161303f565b9050919050565b600060208201905081810360008301526132ef81613062565b9050919050565b6000602082019050818103600083015261330f81613085565b9050919050565b6000602082019050818103600083015261332f816130a8565b9050919050565b6000602082019050818103600083015261334f816130cb565b9050919050565b600060208201905061336b60008301846130ee565b92915050565b600060408201905061338660008301856130ee565b61339360208301846130ee565b9392505050565b60006060820190506133af60008301866130ee565b6133bc60208301856130ee565b6133c9604083018461312a565b949350505050565b60006040820190506133e660008301856130ee565b6133f360208301846130fd565b9392505050565b600060808201905061340f60008301876130ee565b61341c602083018661310c565b613429604083018561312a565b6134366060830184612eae565b95945050505050565b600060408201905061345460008301856130ee565b613461602083018461311b565b9392505050565b600060408201905061347d600083018561310c565b61348a602083018461310c565b9392505050565b60006080820190506134a6600083018761310c565b6134b3602083018661310c565b6134c060408301856130ee565b6134cd60608301846130ee565b95945050505050565b60006020820190506134eb600083018461312a565b92915050565b600081519050919050565b600081519050919050565b600081905092915050565b600082825260208201905092915050565b600061352e82613715565b915061353983613715565b9250827fffffffffffffffffffffffffffffffffffffffffffffffffffffffffffffffff0382111561356e5761356d6137bd565b5b828201905092915050565b60006135848261372f565b915061358f8361372f565b92508260ff038211156135a5576135a46137bd565b5b828201905092915050565b60006135bb82613715565b91506135c683613715565b9250826135d6576135d56137ec565b5b828204905092915050565b60006135ec82613715565b91506135f783613715565b9250817fffffffffffffffffffffffffffffffffffffffffffffffffffffffffffffffff04831182151516156136305761362f6137bd565b5b828202905092915050565b600061364682613715565b915061365183613715565b925082821015613664576136636137bd565b5b828203905092915050565b600061367a8261371f565b91506136858361371f565b925082821015613698576136976137bd565b5b828203905092915050565b60006136ae8261372f565b91506136b98361372f565b9250828210156136cc576136cb6137bd565b5b828203905092915050565b60006136e2826136f5565b9050919050565b60008115159050919050565b600073ffffffffffffffffffffffffffffffffffffffff82169050919050565b6000819050919050565b600063ffffffff82169050919050565b600060ff82169050919050565b60006137478261371f565b9050919050565b60006137598261372f565b9050919050565b60005b8381101561377e578082015181840152602081019050613763565b8381111561378d576000848401525b50505050565b600061379e8261372f565b915060ff8214156137b2576137b16137bd565b5b600182019050919050565b7f4e487b7100000000000000000000000000000000000000000000000000000000600052601160045260246000fd5b7f4e487b7100000000000000000000000000000000000000000000000000000000600052601260045260246000fd5b6000601f19601f8301169050919050565b7f4f776e61626c653a206e6577206f776e657220697320746865207a65726f206160008201527f6464726573730000000000000000000000000000000000000000000000000000602082015250565b7f4f53430000000000000000000000000000000000000000000000000000000000600082015250565b7f416464726573733a20696e73756666696369656e742062616c616e636520666f60008201527f722063616c6c0000000000000000000000000000000000000000000000000000602082015250565b7f4669786564506f696e743a3a6672616374696f6e3a206469766973696f6e206260008201527f79207a65726f0000000000000000000000000000000000000000000000000000602082015250565b7f46756c6c4d6174683a3a6d756c4469763a206f766572666c6f77000000000000600082015250565b7f557365722048617320616c72656164792052656465656d656400000000000000600082015250565b7f4f776e61626c653a2063616c6c6572206973206e6f7420746865206f776e6572600082015250565b7f4669786564506f696e743a3a6672616374696f6e3a206f766572666c6f770000600082015250565b7f496e76616c696420526577617264204379636c65000000000000000000000000600082015250565b7f416464726573733a2063616c6c20746f206e6f6e2d636f6e7472616374000000600082015250565b7f5374616b656420416d6f756e7420697320300000000000000000000000000000600082015250565b7f5361666545524332303a204552433230206f7065726174696f6e20646964206e60008201527f6f74207375636365656400000000000000000000000000000000000000000000602082015250565b7f546865206379636c6520656e6454696d652073686f756c64206265204754207360008201527f74617274696d6500000000000000000000000000000000000000000000000000602082015250565b613b08816136d7565b8114613b1357600080fd5b50565b613b1f816136e9565b8114613b2a57600080fd5b50565b613b3681613715565b8114613b4157600080fd5b50565b613b4d8161372f565b8114613b5857600080fd5b5056fea2646970667358221220b6e96253763c254ecd0252d7a178d3bd85c6c7e0b62464653bebd605c102ff5264736f6c63430008040033",
  "linkReferences": {},
  "deployedLinkReferences": {}
}