{
  "_format": "hh-sol-artifact-1",
  "contractName": "RewardDistributor",
  "sourceName": "contracts/coreContracts/RewardDistributor.sol",
  "abi": [
    {
      "inputs": [
        {
          "internalType": "address",
          "name": "stakingContract_",
          "type": "address"
        },
        {
          "internalType": "address",
          "name": "stakedOrfiAddress_",
          "type": "address"
        }
      ],
      "stateMutability": "nonpayable",
      "type": "constructor"
    },
    {
      "anonymous": false,
      "inputs": [
        {
          "indexed": true,
          "internalType": "address",
          "name": "previousOwner",
          "type": "address"
        },
        {
          "indexed": true,
          "internalType": "address",
          "name": "newOwner",
          "type": "address"
        }
      ],
      "name": "OwnershipTransferred",
      "type": "event"
    },
    {
      "anonymous": false,
      "inputs": [
        {
          "indexed": true,
          "internalType": "address",
          "name": "account",
          "type": "address"
        },
        {
          "indexed": false,
          "internalType": "uint256",
          "name": "amount",
          "type": "uint256"
        },
        {
          "indexed": false,
          "internalType": "uint256",
          "name": "rewardCycle",
          "type": "uint256"
        }
      ],
      "name": "RedeemedRewards",
      "type": "event"
    },
    {
      "anonymous": false,
      "inputs": [
        {
          "indexed": false,
          "internalType": "uint256",
          "name": "allocatedRewards",
          "type": "uint256"
        },
        {
          "indexed": false,
          "internalType": "uint256",
          "name": "totalStakedOrfi",
          "type": "uint256"
        },
        {
          "indexed": false,
          "internalType": "uint8",
          "name": "rewardCycle",
          "type": "uint8"
        }
      ],
      "name": "RewardCycleCompleted",
      "type": "event"
    },
    {
      "anonymous": false,
      "inputs": [
        {
          "indexed": true,
          "internalType": "address",
          "name": "account",
          "type": "address"
        },
        {
          "indexed": false,
          "internalType": "uint256",
          "name": "amount",
          "type": "uint256"
        },
        {
          "indexed": false,
          "internalType": "uint256",
          "name": "averageTime",
          "type": "uint256"
        }
      ],
      "name": "StakeBalanceUpdated",
      "type": "event"
    },
    {
      "anonymous": false,
      "inputs": [
        {
          "indexed": true,
          "internalType": "address",
          "name": "account",
          "type": "address"
        },
        {
          "indexed": false,
          "internalType": "uint256",
          "name": "amount",
          "type": "uint256"
        },
        {
          "indexed": false,
          "internalType": "uint256",
          "name": "averageTime",
          "type": "uint256"
        }
      ],
      "name": "UnstakeBalanceUpdated",
      "type": "event"
    },
    {
      "inputs": [
        {
          "internalType": "uint8",
          "name": "",
          "type": "uint8"
        }
      ],
      "name": "_rewardCycleMapping",
      "outputs": [
        {
          "internalType": "uint32",
          "name": "startTimestamp",
          "type": "uint32"
        },
        {
          "internalType": "uint32",
          "name": "endTimestamp",
          "type": "uint32"
        },
        {
          "internalType": "uint256",
          "name": "totalStakedOrfiAmount",
          "type": "uint256"
        },
        {
          "internalType": "uint256",
          "name": "totalAllocatedRewards",
          "type": "uint256"
        }
      ],
      "stateMutability": "view",
      "type": "function"
    },
    {
      "inputs": [
        {
          "internalType": "address",
          "name": "",
          "type": "address"
        }
      ],
      "name": "_userActivityMapping",
      "outputs": [
        {
          "internalType": "uint8",
          "name": "",
          "type": "uint8"
        }
      ],
      "stateMutability": "view",
      "type": "function"
    },
    {
      "inputs": [
        {
          "internalType": "address",
          "name": "",
          "type": "address"
        },
        {
          "internalType": "uint8",
          "name": "",
          "type": "uint8"
        }
      ],
      "name": "_userStakeInfoToRewardCycleMapping",
      "outputs": [
        {
          "internalType": "uint256",
          "name": "stakedOrfiAmount",
          "type": "uint256"
        },
        {
          "internalType": "uint32",
          "name": "averageInvestedTime",
          "type": "uint32"
        },
        {
          "internalType": "uint8",
          "name": "rewardCycle",
          "type": "uint8"
        },
        {
          "internalType": "bool",
          "name": "redeemed",
          "type": "bool"
        }
      ],
      "stateMutability": "view",
      "type": "function"
    },
    {
      "inputs": [
        {
          "internalType": "uint256",
          "name": "rewardAmount",
          "type": "uint256"
        }
      ],
      "name": "completeRewardCycle",
      "outputs": [],
      "stateMutability": "nonpayable",
      "type": "function"
    },
    {
      "inputs": [],
      "name": "currentRewardCycle",
      "outputs": [
        {
          "internalType": "uint8",
          "name": "",
          "type": "uint8"
        }
      ],
      "stateMutability": "view",
      "type": "function"
    },
    {
      "inputs": [
        {
          "internalType": "uint8",
          "name": "rewardCycleId",
          "type": "uint8"
        }
      ],
      "name": "getRewardCycleTimeWindow",
      "outputs": [
        {
          "internalType": "uint32",
          "name": "startTime_",
          "type": "uint32"
        },
        {
          "internalType": "uint32",
          "name": "endTime_",
          "type": "uint32"
        }
      ],
      "stateMutability": "view",
      "type": "function"
    },
    {
      "inputs": [
        {
          "internalType": "uint8",
          "name": "rewardCycleId",
          "type": "uint8"
        }
      ],
      "name": "getTotalRewardsForCycle",
      "outputs": [
        {
          "internalType": "uint256",
          "name": "",
          "type": "uint256"
        }
      ],
      "stateMutability": "view",
      "type": "function"
    },
    {
      "inputs": [
        {
          "internalType": "address",
          "name": "account_",
          "type": "address"
        }
      ],
      "name": "getTotalRewardsForUser",
      "outputs": [
        {
          "internalType": "uint256",
          "name": "",
          "type": "uint256"
        }
      ],
      "stateMutability": "view",
      "type": "function"
    },
    {
      "inputs": [
        {
          "internalType": "uint8",
          "name": "rewardCycle",
          "type": "uint8"
        }
      ],
      "name": "getTotalStakedOrfiForACycle",
      "outputs": [
        {
          "internalType": "uint256",
          "name": "amount_",
          "type": "uint256"
        }
      ],
      "stateMutability": "view",
      "type": "function"
    },
    {
      "inputs": [
        {
          "internalType": "address",
          "name": "account_",
          "type": "address"
        },
        {
          "internalType": "uint8",
          "name": "rewardCycle",
          "type": "uint8"
        }
      ],
      "name": "getTotalStakedOrfiOfUserForACycle",
      "outputs": [
        {
          "internalType": "uint256",
          "name": "amount_",
          "type": "uint256"
        }
      ],
      "stateMutability": "view",
      "type": "function"
    },
    {
      "inputs": [],
      "name": "owner",
      "outputs": [
        {
          "internalType": "address",
          "name": "",
          "type": "address"
        }
      ],
      "stateMutability": "view",
      "type": "function"
    },
    {
      "inputs": [
        {
          "internalType": "address",
          "name": "account_",
          "type": "address"
        },
        {
          "internalType": "uint8",
          "name": "rewardCycle_",
          "type": "uint8"
        }
      ],
      "name": "redeemRewardsForACycle",
      "outputs": [],
      "stateMutability": "nonpayable",
      "type": "function"
    },
    {
      "inputs": [
        {
          "internalType": "address",
          "name": "account_",
          "type": "address"
        }
      ],
      "name": "redeemTotalRewardsForUser",
      "outputs": [],
      "stateMutability": "nonpayable",
      "type": "function"
    },
    {
      "inputs": [],
      "name": "renounceOwnership",
      "outputs": [],
      "stateMutability": "nonpayable",
      "type": "function"
    },
    {
      "inputs": [
        {
          "internalType": "address",
          "name": "account_",
          "type": "address"
        },
        {
          "internalType": "uint8",
          "name": "rewardCycle_",
          "type": "uint8"
        }
      ],
      "name": "rewardsForACycle",
      "outputs": [
        {
          "internalType": "uint256",
          "name": "",
          "type": "uint256"
        }
      ],
      "stateMutability": "view",
      "type": "function"
    },
    {
      "inputs": [
        {
          "internalType": "address",
          "name": "stableCoinAddress_",
          "type": "address"
        }
      ],
      "name": "setStableCoinAddress",
      "outputs": [],
      "stateMutability": "nonpayable",
      "type": "function"
    },
    {
      "inputs": [
        {
          "internalType": "address",
          "name": "treasuryAddress_",
          "type": "address"
        }
      ],
      "name": "setTreasuryAddress",
      "outputs": [],
      "stateMutability": "nonpayable",
      "type": "function"
    },
    {
      "inputs": [
        {
          "internalType": "address",
          "name": "to_",
          "type": "address"
        },
        {
          "internalType": "uint256",
          "name": "amount",
          "type": "uint256"
        }
      ],
      "name": "stake",
      "outputs": [],
      "stateMutability": "nonpayable",
      "type": "function"
    },
    {
      "inputs": [],
      "name": "stakedOrfiAddress",
      "outputs": [
        {
          "internalType": "address",
          "name": "",
          "type": "address"
        }
      ],
      "stateMutability": "view",
      "type": "function"
    },
    {
      "inputs": [],
      "name": "stakingContract",
      "outputs": [
        {
          "internalType": "address",
          "name": "",
          "type": "address"
        }
      ],
      "stateMutability": "view",
      "type": "function"
    },
    {
      "inputs": [
        {
          "internalType": "address",
          "name": "newOwner",
          "type": "address"
        }
      ],
      "name": "transferOwnership",
      "outputs": [],
      "stateMutability": "nonpayable",
      "type": "function"
    },
    {
      "inputs": [
        {
          "internalType": "address",
          "name": "to_",
          "type": "address"
        },
        {
          "internalType": "uint256",
          "name": "amount",
          "type": "uint256"
        }
      ],
      "name": "unstake",
      "outputs": [],
      "stateMutability": "nonpayable",
      "type": "function"
    }
  ],
  "bytecode": "0x60806040523480156200001157600080fd5b5060405162003e2438038062003e248339818101604052810190620000379190620002a7565b620000576200004b620001c460201b60201c565b620001cc60201b60201c565b600073ffffffffffffffffffffffffffffffffffffffff168273ffffffffffffffffffffffffffffffffffffffff1614156200009257600080fd5b600073ffffffffffffffffffffffffffffffffffffffff168173ffffffffffffffffffffffffffffffffffffffff161415620000cd57600080fd5b6001600060146101000a81548160ff021916908360ff160217905550600060098190555042600160008060149054906101000a900460ff1660ff1660ff16815260200190815260200160002060000160006101000a81548163ffffffff021916908363ffffffff16021790555081600560006101000a81548173ffffffffffffffffffffffffffffffffffffffff021916908373ffffffffffffffffffffffffffffffffffffffff16021790555080600660006101000a81548173ffffffffffffffffffffffffffffffffffffffff021916908373ffffffffffffffffffffffffffffffffffffffff160217905550505062000336565b600033905090565b60008060009054906101000a900473ffffffffffffffffffffffffffffffffffffffff169050816000806101000a81548173ffffffffffffffffffffffffffffffffffffffff021916908373ffffffffffffffffffffffffffffffffffffffff1602179055508173ffffffffffffffffffffffffffffffffffffffff168173ffffffffffffffffffffffffffffffffffffffff167f8be0079c531659141344cd1fd0a4f28419497f9722a3daafe3b4186f6b6457e060405160405180910390a35050565b600081519050620002a1816200031c565b92915050565b60008060408385031215620002bb57600080fd5b6000620002cb8582860162000290565b9250506020620002de8582860162000290565b9150509250929050565b6000620002f582620002fc565b9050919050565b600073ffffffffffffffffffffffffffffffffffffffff82169050919050565b6200032781620002e8565b81146200033357600080fd5b50565b613ade80620003466000396000f3fe608060405234801561001057600080fd5b50600436106101425760003560e01c8063715018a6116100b8578063c2a672e01161007c578063c2a672e01461039f578063c65a376e146103bb578063ce7ae0e6146103ee578063ee99205c1461040a578063f2fde38b14610428578063fa38cdc51461044457610142565b8063715018a61461030d57806388d1940f146103175780638da5cb5b14610335578063adc9772e14610353578063b5185df61461036f57610142565b80636605bfda1161010a5780636605bfda146101fd57806366503312146102195780636bb65afa146102495780636cc6e5d0146102795780636cc81cc4146102a95780636e93e9f2146102dc57610142565b8063316dfa721461014757806332c8e76c1461017757806344879b3b146101a757806344a71036146101c35780634dd7dee0146101df575b600080fd5b610161600480360381019061015c9190612d13565b610460565b60405161016e919061344c565b60405180910390f35b610191600480360381019061018c9190612d78565b610480565b60405161019e91906132cc565b60405180910390f35b6101c160048036038101906101bc9190612d13565b6104e4565b005b6101dd60048036038101906101d89190612d78565b6105de565b005b6101e761082b565b6040516101f4919061344c565b60405180910390f35b61021760048036038101906102129190612d13565b61083e565b005b610233600480360381019061022e9190612d13565b610938565b60405161024091906132cc565b60405180910390f35b610263600480360381019061025e9190612d78565b610a23565b60405161027091906132cc565b60405180910390f35b610293600480360381019061028e9190612e2f565b610e14565b6040516102a091906132cc565b60405180910390f35b6102c360048036038101906102be9190612d78565b610e3a565b6040516102d39493929190613370565b60405180910390f35b6102f660048036038101906102f19190612e2f565b610ea1565b6040516103049291906133de565b60405180910390f35b610315610f07565b005b61031f610f8f565b60405161032c91906130e6565b60405180910390f35b61033d610fb9565b60405161034a91906130e6565b60405180910390f35b61036d60048036038101906103689190612d3c565b610fe2565b005b61038960048036038101906103849190612e2f565b611083565b60405161039691906132cc565b60405180910390f35b6103b960048036038101906103b49190612d3c565b6110a9565b005b6103d560048036038101906103d09190612e2f565b61114a565b6040516103e59493929190613407565b60405180910390f35b61040860048036038101906104039190612ddd565b61119a565b005b610412611549565b60405161041f91906130e6565b60405180910390f35b610442600480360381019061043d9190612d13565b611573565b005b61045e60048036038101906104599190612d13565b61166b565b005b60046020528060005260406000206000915054906101000a900460ff1681565b6000600360008473ffffffffffffffffffffffffffffffffffffffff1673ffffffffffffffffffffffffffffffffffffffff16815260200190815260200160002060008360ff1660ff16815260200190815260200160002060000154905092915050565b6104ec611741565b73ffffffffffffffffffffffffffffffffffffffff1661050a610fb9565b73ffffffffffffffffffffffffffffffffffffffff1614610560576040517f08c379a00000000000000000000000000000000000000000000000000000000081526004016105579061320c565b60405180910390fd5b600073ffffffffffffffffffffffffffffffffffffffff168173ffffffffffffffffffffffffffffffffffffffff16141561059a57600080fd5b80600760006101000a81548173ffffffffffffffffffffffffffffffffffffffff021916908373ffffffffffffffffffffffffffffffffffffffff16021790555050565b6105e782611749565b60006105f38383610a23565b90506001600360008573ffffffffffffffffffffffffffffffffffffffff1673ffffffffffffffffffffffffffffffffffffffff16815260200190815260200160002060008460ff1660ff16815260200190815260200160002060010160056101000a81548160ff021916908315150217905550806009600082825461067991906135b1565b9250508190555081600260008573ffffffffffffffffffffffffffffffffffffffff1673ffffffffffffffffffffffffffffffffffffffff16815260200190815260200160002060006101000a81548160ff021916908360ff160217905550600860009054906101000a900473ffffffffffffffffffffffffffffffffffffffff1673ffffffffffffffffffffffffffffffffffffffff16630b0eee30600760009054906101000a900473ffffffffffffffffffffffffffffffffffffffff16836040518363ffffffff1660e01b8152600401610757929190613101565b600060405180830381600087803b15801561077157600080fd5b505af1158015610785573d6000803e3d6000fd5b505050506107d68382600760009054906101000a900473ffffffffffffffffffffffffffffffffffffffff1673ffffffffffffffffffffffffffffffffffffffff16611aa39092919063ffffffff16565b8273ffffffffffffffffffffffffffffffffffffffff167f29f54648bf4cdde44fd5ab419946327cf486052f3f89c2a5d87470351ce2850d828460405161081e9291906133b5565b60405180910390a2505050565b600060149054906101000a900460ff1681565b610846611741565b73ffffffffffffffffffffffffffffffffffffffff16610864610fb9565b73ffffffffffffffffffffffffffffffffffffffff16146108ba576040517f08c379a00000000000000000000000000000000000000000000000000000000081526004016108b19061320c565b60405180910390fd5b600073ffffffffffffffffffffffffffffffffffffffff168173ffffffffffffffffffffffffffffffffffffffff1614156108f457600080fd5b80600860006101000a81548173ffffffffffffffffffffffffffffffffffffffff021916908373ffffffffffffffffffffffffffffffffffffffff16021790555050565b60008073ffffffffffffffffffffffffffffffffffffffff168273ffffffffffffffffffffffffffffffffffffffff16141561097357600080fd5b6000806001600260008673ffffffffffffffffffffffffffffffffffffffff1673ffffffffffffffffffffffffffffffffffffffff16815260200190815260200160002060009054906101000a900460ff166109cf91906134ef565b90505b600060149054906101000a900460ff1660ff168160ff161015610a19576109f98482610a23565b82610a049190613499565b91508080610a1190613709565b9150506109d2565b5080915050919050565b60008073ffffffffffffffffffffffffffffffffffffffff168373ffffffffffffffffffffffffffffffffffffffff161415610a5e57600080fd5b600060149054906101000a900460ff1660ff168260ff1610610ab5576040517f08c379a0000000000000000000000000000000000000000000000000000000008152600401610aac9061324c565b60405180910390fd5b6000600460008573ffffffffffffffffffffffffffffffffffffffff1673ffffffffffffffffffffffffffffffffffffffff16815260200190815260200160002060009054906101000a900460ff169050610b0e612c46565b8160ff168460ff161115610c0557600360008673ffffffffffffffffffffffffffffffffffffffff1673ffffffffffffffffffffffffffffffffffffffff16815260200190815260200160002060008360ff1660ff168152602001908152602001600020604051806080016040529081600082015481526020016001820160009054906101000a900463ffffffff1663ffffffff1663ffffffff1681526020016001820160049054906101000a900460ff1660ff1660ff1681526020016001820160059054906101000a900460ff16151515158152505090506000816020019063ffffffff16908163ffffffff1681525050610cd1565b600360008673ffffffffffffffffffffffffffffffffffffffff1673ffffffffffffffffffffffffffffffffffffffff16815260200190815260200160002060008560ff1660ff168152602001908152602001600020604051806080016040529081600082015481526020016001820160009054906101000a900463ffffffff1663ffffffff1663ffffffff1681526020016001820160049054906101000a900460ff1660ff1660ff1681526020016001820160059054906101000a900460ff16151515158152505090505b806060015115610d16576040517f08c379a0000000000000000000000000000000000000000000000000000000008152600401610d0d906131ec565b60405180910390fd5b6000600160008660ff1660ff1681526020019081526020016000206040518060800160405290816000820160009054906101000a900463ffffffff1663ffffffff1663ffffffff1681526020016000820160049054906101000a900463ffffffff1663ffffffff1663ffffffff1681526020016001820154815260200160028201548152505090506000610dc18260000151836020015163ffffffff16611b2990919063ffffffff16565b90506000610ddf8263ffffffff16856020015163ffffffff16611b58565b90506000610df585600001518560400151611baa565b9050610e0682828660600151611bea565b965050505050505092915050565b6000600160008360ff1660ff168152602001908152602001600020600101549050919050565b6003602052816000526040600020602052806000526040600020600091509150508060000154908060010160009054906101000a900463ffffffff16908060010160049054906101000a900460ff16908060010160059054906101000a900460ff16905084565b600080600160008460ff1660ff16815260200190815260200160002060000160009054906101000a900463ffffffff169150600160008460ff1660ff16815260200190815260200160002060000160049054906101000a900463ffffffff169050915091565b610f0f611741565b73ffffffffffffffffffffffffffffffffffffffff16610f2d610fb9565b73ffffffffffffffffffffffffffffffffffffffff1614610f83576040517f08c379a0000000000000000000000000000000000000000000000000000000008152600401610f7a9061320c565b60405180910390fd5b610f8d6000611c3b565b565b6000600660009054906101000a900473ffffffffffffffffffffffffffffffffffffffff16905090565b60008060009054906101000a900473ffffffffffffffffffffffffffffffffffffffff16905090565b600560009054906101000a900473ffffffffffffffffffffffffffffffffffffffff1673ffffffffffffffffffffffffffffffffffffffff163373ffffffffffffffffffffffffffffffffffffffff1614611072576040517f08c379a00000000000000000000000000000000000000000000000000000000081526004016110699061316c565b60405180910390fd5b61107e82826001611cff565b505050565b6000600160008360ff1660ff168152602001908152602001600020600201549050919050565b600560009054906101000a900473ffffffffffffffffffffffffffffffffffffffff1673ffffffffffffffffffffffffffffffffffffffff163373ffffffffffffffffffffffffffffffffffffffff1614611139576040517f08c379a00000000000000000000000000000000000000000000000000000000081526004016111309061316c565b60405180910390fd5b61114582826000611cff565b505050565b60016020528060005260406000206000915090508060000160009054906101000a900463ffffffff16908060000160049054906101000a900463ffffffff16908060010154908060020154905084565b6111a2611741565b73ffffffffffffffffffffffffffffffffffffffff166111c0610fb9565b73ffffffffffffffffffffffffffffffffffffffff1614611216576040517f08c379a000000000000000000000000000000000000000000000000000000000815260040161120d9061320c565b60405180910390fd5b6000811161122357600080fd5b6000600160008060149054906101000a900460ff1660ff1660ff1681526020019081526020016000206040518060800160405290816000820160009054906101000a900463ffffffff1663ffffffff1663ffffffff1681526020016000820160049054906101000a900463ffffffff1663ffffffff1663ffffffff16815260200160018201548152602001600282015481525050905042816000015163ffffffff1610611305576040517f08c379a00000000000000000000000000000000000000000000000000000000081526004016112fc906132ac565b60405180910390fd5b42816020019063ffffffff16908163ffffffff168152505081816060018181525050600660009054906101000a900473ffffffffffffffffffffffffffffffffffffffff1673ffffffffffffffffffffffffffffffffffffffff166318160ddd6040518163ffffffff1660e01b815260040160206040518083038186803b15801561138f57600080fd5b505afa1580156113a3573d6000803e3d6000fd5b505050506040513d601f19601f820116820180604052508101906113c79190612e06565b81604001818152505080600160008060149054906101000a900460ff1660ff1660ff16815260200190815260200160002060008201518160000160006101000a81548163ffffffff021916908363ffffffff16021790555060208201518160000160046101000a81548163ffffffff021916908363ffffffff16021790555060408201518160010155606082015181600201559050507fb5a927304116e39aa3a6faa912604add4565a926be6ec77c5caa602e5811b5bf828260400151600060149054906101000a900460ff166040516114a393929190613310565b60405180910390a16000601481819054906101000a900460ff16809291906114ca90613709565b91906101000a81548160ff021916908360ff1602179055505081600960008282546114f59190613499565b9250508190555042600160008060149054906101000a900460ff1660ff1660ff16815260200190815260200160002060000160006101000a81548163ffffffff021916908363ffffffff1602179055505050565b6000600560009054906101000a900473ffffffffffffffffffffffffffffffffffffffff16905090565b61157b611741565b73ffffffffffffffffffffffffffffffffffffffff16611599610fb9565b73ffffffffffffffffffffffffffffffffffffffff16146115ef576040517f08c379a00000000000000000000000000000000000000000000000000000000081526004016115e69061320c565b60405180910390fd5b600073ffffffffffffffffffffffffffffffffffffffff168173ffffffffffffffffffffffffffffffffffffffff16141561165f576040517f08c379a00000000000000000000000000000000000000000000000000000000081526004016116569061314c565b60405180910390fd5b61166881611c3b565b50565b600073ffffffffffffffffffffffffffffffffffffffff168173ffffffffffffffffffffffffffffffffffffffff1614156116a557600080fd5b60006001600260008473ffffffffffffffffffffffffffffffffffffffff1673ffffffffffffffffffffffffffffffffffffffff16815260200190815260200160002060009054906101000a900460ff1661170091906134ef565b90505b600060149054906101000a900460ff1660ff168160ff16101561173d5761172a82826105de565b808061173590613709565b915050611703565b5050565b600033905090565b600060149054906101000a900460ff1660ff16600460008373ffffffffffffffffffffffffffffffffffffffff1673ffffffffffffffffffffffffffffffffffffffff16815260200190815260200160002060009054906101000a900460ff1660ff1614611aa05760006001600460008473ffffffffffffffffffffffffffffffffffffffff1673ffffffffffffffffffffffffffffffffffffffff16815260200190815260200160002060009054906101000a900460ff1661180c91906134ef565b90505b600060149054906101000a900460ff1660ff168160ff1611611a37576000600360008473ffffffffffffffffffffffffffffffffffffffff1673ffffffffffffffffffffffffffffffffffffffff168152602001908152602001600020600060018461187b9190613619565b60ff1660ff168152602001908152602001600020604051806080016040529081600082015481526020016001820160009054906101000a900463ffffffff1663ffffffff1663ffffffff1681526020016001820160049054906101000a900460ff1660ff1660ff1681526020016001820160059054906101000a900460ff161515151581525050905061190c612c46565b6000816020019063ffffffff16908163ffffffff168152505082816040019060ff16908160ff16815250508160000151816000018181525050600081606001901515908115158152505080600360008673ffffffffffffffffffffffffffffffffffffffff1673ffffffffffffffffffffffffffffffffffffffff16815260200190815260200160002060008560ff1660ff1681526020019081526020016000206000820151816000015560208201518160010160006101000a81548163ffffffff021916908363ffffffff16021790555060408201518160010160046101000a81548160ff021916908360ff16021790555060608201518160010160056101000a81548160ff02191690831515021790555090505050508080611a2f90613709565b91505061180f565b50600060149054906101000a900460ff16600460008373ffffffffffffffffffffffffffffffffffffffff1673ffffffffffffffffffffffffffffffffffffffff16815260200190815260200160002060006101000a81548160ff021916908360ff1602179055505b50565b611b248363a9059cbb60e01b8484604051602401611ac2929190613101565b604051602081830303815290604052907bffffffffffffffffffffffffffffffffffffffffffffffffffffffff19166020820180517bffffffffffffffffffffffffffffffffffffffffffffffffffffffff838183161783525050505061226b565b505050565b60008263ffffffff168284611b3e91906135e5565b91508163ffffffff161115611b5257600080fd5b92915050565b6000611ba266038d7ea4c6800080611b8a611b85611b7f878961233290919063ffffffff16565b88612355565b61255c565b611b949190613526565b61259a90919063ffffffff16565b905092915050565b6000611be266038d7ea4c6800080611bca611bc58787612355565b61255c565b611bd49190613526565b61259a90919063ffffffff16565b905092915050565b6000611c326ec097ce7bc90715b34b9f1000000000611c2484611c16878961259a90919063ffffffff16565b61259a90919063ffffffff16565b6125d190919063ffffffff16565b90509392505050565b60008060009054906101000a900473ffffffffffffffffffffffffffffffffffffffff169050816000806101000a81548173ffffffffffffffffffffffffffffffffffffffff021916908373ffffffffffffffffffffffffffffffffffffffff1602179055508173ffffffffffffffffffffffffffffffffffffffff168173ffffffffffffffffffffffffffffffffffffffff167f8be0079c531659141344cd1fd0a4f28419497f9722a3daafe3b4186f6b6457e060405160405180910390a35050565b6000611d0a84611749565b6000600360008673ffffffffffffffffffffffffffffffffffffffff1673ffffffffffffffffffffffffffffffffffffffff16815260200190815260200160002060008060149054906101000a900460ff1660ff1660ff168152602001908152602001600020604051806080016040529081600082015481526020016001820160009054906101000a900463ffffffff1663ffffffff1663ffffffff1681526020016001820160049054906101000a900460ff1660ff1660ff1681526020016001820160059054906101000a900460ff1615151515815250509050600060149054906101000a900460ff16600460008773ffffffffffffffffffffffffffffffffffffffff1673ffffffffffffffffffffffffffffffffffffffff16815260200190815260200160002060006101000a81548160ff021916908360ff160217905550821561204b576000611ea28260200151600160008060149054906101000a900460ff1660ff1660ff16815260200190815260200160002060000160009054906101000a900463ffffffff1684600001518861261b565b9050611ebf670de0b6b3a7640000826125d190919063ffffffff16565b826020019063ffffffff16908163ffffffff1681525050611eed8583600001516126ae90919063ffffffff16565b826000018181525050600060149054906101000a900460ff16826040019060ff16908160ff168152505081600360008873ffffffffffffffffffffffffffffffffffffffff1673ffffffffffffffffffffffffffffffffffffffff16815260200190815260200160002060008060149054906101000a900460ff1660ff1660ff1681526020019081526020016000206000820151816000015560208201518160010160006101000a81548163ffffffff021916908363ffffffff16021790555060408201518160010160046101000a81548160ff021916908360ff16021790555060608201518160010160056101000a81548160ff0219169083151502179055509050508573ffffffffffffffffffffffffffffffffffffffff167f388581407fcab28d7eaeffaf92f1716df2203258960164e8401a02b1efb5c11d86836040516120399291906132e7565b60405180910390a28092505050612264565b61206284826000015161233290919063ffffffff16565b81600001818152505080600360008773ffffffffffffffffffffffffffffffffffffffff1673ffffffffffffffffffffffffffffffffffffffff16815260200190815260200160002060008060149054906101000a900460ff1660ff1660ff1681526020019081526020016000206000820151816000015560208201518160010160006101000a81548163ffffffff021916908363ffffffff16021790555060408201518160010160046101000a81548160ff021916908360ff16021790555060608201518160010160056101000a81548160ff02191690831515021790555090505060008160000151141561220157600360008673ffffffffffffffffffffffffffffffffffffffff1673ffffffffffffffffffffffffffffffffffffffff16815260200190815260200160002060008060149054906101000a900460ff1660ff1660ff1681526020019081526020016000206000808201600090556001820160006101000a81549063ffffffff02191690556001820160046101000a81549060ff02191690556001820160056101000a81549060ff021916905550505b8473ffffffffffffffffffffffffffffffffffffffff167f1e301f7726fd710134cc80520b42a10391600bb16c2597bf2932bbad9c82eca985836020015160405161224d929190613347565b60405180910390a2806020015163ffffffff169150505b9392505050565b60006122cd826040518060400160405280602081526020017f5361666545524332303a206c6f772d6c6576656c2063616c6c206661696c65648152508573ffffffffffffffffffffffffffffffffffffffff166126d19092919063ffffffff16565b905060008151111561232d57808060200190518101906122ed9190612db4565b61232c576040517f08c379a00000000000000000000000000000000000000000000000000000000081526004016123239061328c565b60405180910390fd5b5b505050565b600082828461234191906135b1565b915081111561234f57600080fd5b92915050565b61235d612c79565b600082116123a0576040517f08c379a0000000000000000000000000000000000000000000000000000000008152600401612397906131ac565b60405180910390fd5b60008314156123de57604051806020016040528060007bffffffffffffffffffffffffffffffffffffffffffffffffffffffff168152509050612556565b71ffffffffffffffffffffffffffffffffffff801683116124a657600082607060ff1685901b61240e9190613526565b90507bffffffffffffffffffffffffffffffffffffffffffffffffffffffff8016811115612471576040517f08c379a00000000000000000000000000000000000000000000000000000000081526004016124689061322c565b60405180910390fd5b6040518060200160405280827bffffffffffffffffffffffffffffffffffffffffffffffffffffffff16815250915050612556565b60006124c2846e010000000000000000000000000000856126e9565b90507bffffffffffffffffffffffffffffffffffffffffffffffffffffffff8016811115612525576040517f08c379a000000000000000000000000000000000000000000000000000000000815260040161251c9061322c565b60405180910390fd5b6040518060200160405280827bffffffffffffffffffffffffffffffffffffffffffffffffffffffff168152509150505b92915050565b60006612725dd1d243ab82600001517bffffffffffffffffffffffffffffffffffffffffffffffffffffffff166125939190613526565b9050919050565b6000808314806125c25750818383856125b39190613557565b9250826125c09190613526565b145b6125cb57600080fd5b92915050565b600061261383836040518060400160405280601a81526020017f536166654d6174683a206469766973696f6e206279207a65726f0000000000008152506127b7565b905092915050565b600080612637848763ffffffff1661259a90919063ffffffff16565b905060006126548663ffffffff164261233290919063ffffffff16565b9050600061266b828661259a90919063ffffffff16565b9050600061268282856126ae90919063ffffffff16565b90506126a08161269b888a6126ae90919063ffffffff16565b61281a565b945050505050949350505050565b60008282846126bd9190613499565b91508110156126cb57600080fd5b92915050565b60606126e0848460008561285a565b90509392505050565b60008060006126f8868661296e565b9150915060008480612733577f4e487b7100000000000000000000000000000000000000000000000000000000600052601260045260246000fd5b8688099050828111156127505760018261274d91906135b1565b91505b808361275c91906135b1565b92508482106127a0576040517f08c379a0000000000000000000000000000000000000000000000000000000008152600401612797906131cc565b60405180910390fd5b6127ab838387612a09565b93505050509392505050565b600080831182906127fe576040517f08c379a00000000000000000000000000000000000000000000000000000000081526004016127f5919061312a565b60405180910390fd5b506000838561280d9190613526565b9050809150509392505050565b600061285266038d7ea4c680008061283a6128358787612355565b61255c565b6128449190613526565b61259a90919063ffffffff16565b905092915050565b60608247101561289f576040517f08c379a00000000000000000000000000000000000000000000000000000000081526004016128969061318c565b60405180910390fd5b6128a885612bbc565b6128e7576040517f08c379a00000000000000000000000000000000000000000000000000000000081526004016128de9061326c565b60405180910390fd5b6000808673ffffffffffffffffffffffffffffffffffffffff16858760405161291091906130cf565b60006040518083038185875af1925050503d806000811461294d576040519150601f19603f3d011682016040523d82523d6000602084013e612952565b606091505b5091509150612962828286612bdf565b92505050949350505050565b60008060007fffffffffffffffffffffffffffffffffffffffffffffffffffffffffffffffff806129c8577f4e487b7100000000000000000000000000000000000000000000000000000000600052601260045260246000fd5b848609905083856129d99190613557565b925082816129e791906135b1565b915082811015612a01576001826129fe91906135b1565b91505b509250929050565b60008060018319612a1a9190613499565b831690508083612a2a9190613526565b92508085612a389190613526565b945060018160018319612a4b9190613499565b612a559190613526565b612a5f9190613499565b84612a6a9190613557565b85612a759190613499565b94506000600190508084612a899190613557565b6002612a9591906135b1565b81612aa09190613557565b90508084612aae9190613557565b6002612aba91906135b1565b81612ac59190613557565b90508084612ad39190613557565b6002612adf91906135b1565b81612aea9190613557565b90508084612af89190613557565b6002612b0491906135b1565b81612b0f9190613557565b90508084612b1d9190613557565b6002612b2991906135b1565b81612b349190613557565b90508084612b429190613557565b6002612b4e91906135b1565b81612b599190613557565b90508084612b679190613557565b6002612b7391906135b1565b81612b7e9190613557565b90508084612b8c9190613557565b6002612b9891906135b1565b81612ba39190613557565b90508086612bb19190613557565b925050509392505050565b6000808273ffffffffffffffffffffffffffffffffffffffff163b119050919050565b60608315612bef57829050612c3f565b600083511115612c025782518084602001fd5b816040517f08c379a0000000000000000000000000000000000000000000000000000000008152600401612c36919061312a565b60405180910390fd5b9392505050565b604051806080016040528060008152602001600063ffffffff168152602001600060ff1681526020016000151581525090565b604051806020016040528060007bffffffffffffffffffffffffffffffffffffffffffffffffffffffff1681525090565b600081359050612cb981613a4c565b92915050565b600081519050612cce81613a63565b92915050565b600081359050612ce381613a7a565b92915050565b600081519050612cf881613a7a565b92915050565b600081359050612d0d81613a91565b92915050565b600060208284031215612d2557600080fd5b6000612d3384828501612caa565b91505092915050565b60008060408385031215612d4f57600080fd5b6000612d5d85828601612caa565b9250506020612d6e85828601612cd4565b9150509250929050565b60008060408385031215612d8b57600080fd5b6000612d9985828601612caa565b9250506020612daa85828601612cfe565b9150509250929050565b600060208284031215612dc657600080fd5b6000612dd484828501612cbf565b91505092915050565b600060208284031215612def57600080fd5b6000612dfd84828501612cd4565b91505092915050565b600060208284031215612e1857600080fd5b6000612e2684828501612ce9565b91505092915050565b600060208284031215612e4157600080fd5b6000612e4f84828501612cfe565b91505092915050565b612e618161364d565b82525050565b612e708161365f565b82525050565b6000612e8182613467565b612e8b818561347d565b9350612e9b8185602086016136d6565b80840191505092915050565b6000612eb282613472565b612ebc8185613488565b9350612ecc8185602086016136d6565b612ed581613791565b840191505092915050565b6000612eed602683613488565b9150612ef8826137a2565b604082019050919050565b6000612f10600383613488565b9150612f1b826137f1565b602082019050919050565b6000612f33602683613488565b9150612f3e8261381a565b604082019050919050565b6000612f56602683613488565b9150612f6182613869565b604082019050919050565b6000612f79601a83613488565b9150612f84826138b8565b602082019050919050565b6000612f9c601983613488565b9150612fa7826138e1565b602082019050919050565b6000612fbf602083613488565b9150612fca8261390a565b602082019050919050565b6000612fe2601e83613488565b9150612fed82613933565b602082019050919050565b6000613005601483613488565b91506130108261395c565b602082019050919050565b6000613028601d83613488565b915061303382613985565b602082019050919050565b600061304b602a83613488565b9150613056826139ae565b604082019050919050565b600061306e602783613488565b9150613079826139fd565b604082019050919050565b61308d8161368b565b82525050565b61309c816136b2565b82525050565b6130ab81613695565b82525050565b6130ba816136c4565b82525050565b6130c9816136a5565b82525050565b60006130db8284612e76565b915081905092915050565b60006020820190506130fb6000830184612e58565b92915050565b60006040820190506131166000830185612e58565b6131236020830184613084565b9392505050565b600060208201905081810360008301526131448184612ea7565b905092915050565b6000602082019050818103600083015261316581612ee0565b9050919050565b6000602082019050818103600083015261318581612f03565b9050919050565b600060208201905081810360008301526131a581612f26565b9050919050565b600060208201905081810360008301526131c581612f49565b9050919050565b600060208201905081810360008301526131e581612f6c565b9050919050565b6000602082019050818103600083015261320581612f8f565b9050919050565b6000602082019050818103600083015261322581612fb2565b9050919050565b6000602082019050818103600083015261324581612fd5565b9050919050565b6000602082019050818103600083015261326581612ff8565b9050919050565b600060208201905081810360008301526132858161301b565b9050919050565b600060208201905081810360008301526132a58161303e565b9050919050565b600060208201905081810360008301526132c581613061565b9050919050565b60006020820190506132e16000830184613084565b92915050565b60006040820190506132fc6000830185613084565b6133096020830184613084565b9392505050565b60006060820190506133256000830186613084565b6133326020830185613084565b61333f60408301846130c0565b949350505050565b600060408201905061335c6000830185613084565b6133696020830184613093565b9392505050565b60006080820190506133856000830187613084565b61339260208301866130a2565b61339f60408301856130c0565b6133ac6060830184612e67565b95945050505050565b60006040820190506133ca6000830185613084565b6133d760208301846130b1565b9392505050565b60006040820190506133f360008301856130a2565b61340060208301846130a2565b9392505050565b600060808201905061341c60008301876130a2565b61342960208301866130a2565b6134366040830185613084565b6134436060830184613084565b95945050505050565b600060208201905061346160008301846130c0565b92915050565b600081519050919050565b600081519050919050565b600081905092915050565b600082825260208201905092915050565b60006134a48261368b565b91506134af8361368b565b9250827fffffffffffffffffffffffffffffffffffffffffffffffffffffffffffffffff038211156134e4576134e3613733565b5b828201905092915050565b60006134fa826136a5565b9150613505836136a5565b92508260ff0382111561351b5761351a613733565b5b828201905092915050565b60006135318261368b565b915061353c8361368b565b92508261354c5761354b613762565b5b828204905092915050565b60006135628261368b565b915061356d8361368b565b9250817fffffffffffffffffffffffffffffffffffffffffffffffffffffffffffffffff04831182151516156135a6576135a5613733565b5b828202905092915050565b60006135bc8261368b565b91506135c78361368b565b9250828210156135da576135d9613733565b5b828203905092915050565b60006135f082613695565b91506135fb83613695565b92508282101561360e5761360d613733565b5b828203905092915050565b6000613624826136a5565b915061362f836136a5565b92508282101561364257613641613733565b5b828203905092915050565b60006136588261366b565b9050919050565b60008115159050919050565b600073ffffffffffffffffffffffffffffffffffffffff82169050919050565b6000819050919050565b600063ffffffff82169050919050565b600060ff82169050919050565b60006136bd82613695565b9050919050565b60006136cf826136a5565b9050919050565b60005b838110156136f45780820151818401526020810190506136d9565b83811115613703576000848401525b50505050565b6000613714826136a5565b915060ff82141561372857613727613733565b5b600182019050919050565b7f4e487b7100000000000000000000000000000000000000000000000000000000600052601160045260246000fd5b7f4e487b7100000000000000000000000000000000000000000000000000000000600052601260045260246000fd5b6000601f19601f8301169050919050565b7f4f776e61626c653a206e6577206f776e657220697320746865207a65726f206160008201527f6464726573730000000000000000000000000000000000000000000000000000602082015250565b7f4f53430000000000000000000000000000000000000000000000000000000000600082015250565b7f416464726573733a20696e73756666696369656e742062616c616e636520666f60008201527f722063616c6c0000000000000000000000000000000000000000000000000000602082015250565b7f4669786564506f696e743a3a6672616374696f6e3a206469766973696f6e206260008201527f79207a65726f0000000000000000000000000000000000000000000000000000602082015250565b7f46756c6c4d6174683a3a6d756c4469763a206f766572666c6f77000000000000600082015250565b7f557365722048617320616c72656164792052656465656d656400000000000000600082015250565b7f4f776e61626c653a2063616c6c6572206973206e6f7420746865206f776e6572600082015250565b7f4669786564506f696e743a3a6672616374696f6e3a206f766572666c6f770000600082015250565b7f496e76616c696420526577617264204379636c65000000000000000000000000600082015250565b7f416464726573733a2063616c6c20746f206e6f6e2d636f6e7472616374000000600082015250565b7f5361666545524332303a204552433230206f7065726174696f6e20646964206e60008201527f6f74207375636365656400000000000000000000000000000000000000000000602082015250565b7f546865206379636c6520656e6454696d652073686f756c64206265204754207360008201527f74617274696d6500000000000000000000000000000000000000000000000000602082015250565b613a558161364d565b8114613a6057600080fd5b50565b613a6c8161365f565b8114613a7757600080fd5b50565b613a838161368b565b8114613a8e57600080fd5b50565b613a9a816136a5565b8114613aa557600080fd5b5056fea264697066735822122010bef9ec94e40e1439ae9705993324c76e7b95e7353a0508a366afebd0fb44b064736f6c63430008040033",
  "linkReferences": {},
  "deployedLinkReferences": {}
}