{
  "_format": "hh-sol-artifact-1",
  "contractName": "RewardDistributor",
  "sourceName": "contracts/coreContracts/RewardDistributor.sol",
  "abi": [
    {
      "inputs": [
        {
          "internalType": "address",
          "name": "stakingContract_",
          "type": "address"
        },
        {
          "internalType": "address",
          "name": "stakedOrfiAddress_",
          "type": "address"
        }
      ],
      "stateMutability": "nonpayable",
      "type": "constructor"
    },
    {
      "anonymous": false,
      "inputs": [
        {
          "indexed": true,
          "internalType": "address",
          "name": "previousOwner",
          "type": "address"
        },
        {
          "indexed": true,
          "internalType": "address",
          "name": "newOwner",
          "type": "address"
        }
      ],
      "name": "OwnershipTransferred",
      "type": "event"
    },
    {
      "anonymous": false,
      "inputs": [
        {
          "indexed": true,
          "internalType": "address",
          "name": "account",
          "type": "address"
        },
        {
          "indexed": false,
          "internalType": "uint256",
          "name": "amount",
          "type": "uint256"
        },
        {
          "indexed": false,
          "internalType": "uint256",
          "name": "rewardCycle",
          "type": "uint256"
        }
      ],
      "name": "RedeemedRewards",
      "type": "event"
    },
    {
      "anonymous": false,
      "inputs": [
        {
          "indexed": false,
          "internalType": "uint256",
          "name": "allocatedRewards",
          "type": "uint256"
        },
        {
          "indexed": false,
          "internalType": "uint256",
          "name": "totalStakedOrfi",
          "type": "uint256"
        },
        {
          "indexed": false,
          "internalType": "uint8",
          "name": "rewardCycle",
          "type": "uint8"
        }
      ],
      "name": "RewardCycleCompleted",
      "type": "event"
    },
    {
      "anonymous": false,
      "inputs": [
        {
          "indexed": true,
          "internalType": "address",
          "name": "account",
          "type": "address"
        },
        {
          "indexed": false,
          "internalType": "uint256",
          "name": "amount",
          "type": "uint256"
        },
        {
          "indexed": false,
          "internalType": "uint256",
          "name": "averageTime",
          "type": "uint256"
        }
      ],
      "name": "StakeBalanceUpdated",
      "type": "event"
    },
    {
      "anonymous": false,
      "inputs": [
        {
          "indexed": true,
          "internalType": "address",
          "name": "account",
          "type": "address"
        },
        {
          "indexed": false,
          "internalType": "uint256",
          "name": "amount",
          "type": "uint256"
        },
        {
          "indexed": false,
          "internalType": "uint256",
          "name": "averageTime",
          "type": "uint256"
        }
      ],
      "name": "UnstakeBalanceUpdated",
      "type": "event"
    },
    {
      "inputs": [
        {
          "internalType": "address",
          "name": "",
          "type": "address"
        }
      ],
      "name": "_userActivityMapping",
      "outputs": [
        {
          "internalType": "uint8",
          "name": "",
          "type": "uint8"
        }
      ],
      "stateMutability": "view",
      "type": "function"
    },
    {
      "inputs": [
        {
          "internalType": "address",
          "name": "",
          "type": "address"
        },
        {
          "internalType": "uint8",
          "name": "",
          "type": "uint8"
        }
      ],
      "name": "_userStakeInfoToRewardCycleMapping",
      "outputs": [
        {
          "internalType": "uint256",
          "name": "stakedOrfiAmount",
          "type": "uint256"
        },
        {
          "internalType": "uint32",
          "name": "averageInvestedTime",
          "type": "uint32"
        },
        {
          "internalType": "uint8",
          "name": "rewardCycle",
          "type": "uint8"
        },
        {
          "internalType": "bool",
          "name": "redeemed",
          "type": "bool"
        }
      ],
      "stateMutability": "view",
      "type": "function"
    },
    {
      "inputs": [
        {
          "internalType": "uint256",
          "name": "rewardAmount",
          "type": "uint256"
        }
      ],
      "name": "completeRewardCycle",
      "outputs": [],
      "stateMutability": "nonpayable",
      "type": "function"
    },
    {
      "inputs": [],
      "name": "currentRewardCycle",
      "outputs": [
        {
          "internalType": "uint8",
          "name": "",
          "type": "uint8"
        }
      ],
      "stateMutability": "view",
      "type": "function"
    },
    {
      "inputs": [
        {
          "internalType": "uint8",
          "name": "rewardCycleId",
          "type": "uint8"
        }
      ],
      "name": "getRewardCycleTimeWindow",
      "outputs": [
        {
          "internalType": "uint32",
          "name": "startTime_",
          "type": "uint32"
        },
        {
          "internalType": "uint32",
          "name": "endTime_",
          "type": "uint32"
        }
      ],
      "stateMutability": "view",
      "type": "function"
    },
    {
      "inputs": [
        {
          "internalType": "uint8",
          "name": "rewardCycleId",
          "type": "uint8"
        }
      ],
      "name": "getTotalRewardsForCycle",
      "outputs": [
        {
          "internalType": "uint256",
          "name": "",
          "type": "uint256"
        }
      ],
      "stateMutability": "view",
      "type": "function"
    },
    {
      "inputs": [
        {
          "internalType": "address",
          "name": "account_",
          "type": "address"
        }
      ],
      "name": "getTotalRewardsForUser",
      "outputs": [
        {
          "internalType": "uint256",
          "name": "",
          "type": "uint256"
        }
      ],
      "stateMutability": "view",
      "type": "function"
    },
    {
      "inputs": [
        {
          "internalType": "uint8",
          "name": "rewardCycle",
          "type": "uint8"
        }
      ],
      "name": "getTotalStakedOrfiForACycle",
      "outputs": [
        {
          "internalType": "uint256",
          "name": "amount_",
          "type": "uint256"
        }
      ],
      "stateMutability": "view",
      "type": "function"
    },
    {
      "inputs": [
        {
          "internalType": "address",
          "name": "account_",
          "type": "address"
        },
        {
          "internalType": "uint8",
          "name": "rewardCycle",
          "type": "uint8"
        }
      ],
      "name": "getTotalStakedOrfiOfUserForACycle",
      "outputs": [
        {
          "internalType": "uint256",
          "name": "amount_",
          "type": "uint256"
        }
      ],
      "stateMutability": "view",
      "type": "function"
    },
    {
      "inputs": [],
      "name": "owner",
      "outputs": [
        {
          "internalType": "address",
          "name": "",
          "type": "address"
        }
      ],
      "stateMutability": "view",
      "type": "function"
    },
    {
      "inputs": [
        {
          "internalType": "address",
          "name": "account_",
          "type": "address"
        },
        {
          "internalType": "uint8",
          "name": "rewardCycle_",
          "type": "uint8"
        }
      ],
      "name": "redeemRewardsForACycle",
      "outputs": [],
      "stateMutability": "nonpayable",
      "type": "function"
    },
    {
      "inputs": [
        {
          "internalType": "address",
          "name": "account_",
          "type": "address"
        }
      ],
      "name": "redeemTotalRewardsForUser",
      "outputs": [],
      "stateMutability": "nonpayable",
      "type": "function"
    },
    {
      "inputs": [],
      "name": "renounceOwnership",
      "outputs": [],
      "stateMutability": "nonpayable",
      "type": "function"
    },
    {
      "inputs": [
        {
          "internalType": "address",
          "name": "account_",
          "type": "address"
        },
        {
          "internalType": "uint8",
          "name": "rewardCycle_",
          "type": "uint8"
        }
      ],
      "name": "rewardsForACycle",
      "outputs": [
        {
          "internalType": "uint256",
          "name": "",
          "type": "uint256"
        }
      ],
      "stateMutability": "view",
      "type": "function"
    },
    {
      "inputs": [
        {
          "internalType": "address",
          "name": "stableCoinAddress_",
          "type": "address"
        }
      ],
      "name": "setStableCoinAddress",
      "outputs": [],
      "stateMutability": "nonpayable",
      "type": "function"
    },
    {
      "inputs": [
        {
          "internalType": "address",
          "name": "treasuryAddress_",
          "type": "address"
        }
      ],
      "name": "setTreasuryAddress",
      "outputs": [],
      "stateMutability": "nonpayable",
      "type": "function"
    },
    {
      "inputs": [
        {
          "internalType": "address",
          "name": "to_",
          "type": "address"
        },
        {
          "internalType": "uint256",
          "name": "amount",
          "type": "uint256"
        }
      ],
      "name": "stake",
      "outputs": [],
      "stateMutability": "nonpayable",
      "type": "function"
    },
    {
      "inputs": [],
      "name": "stakedOrfiAddress",
      "outputs": [
        {
          "internalType": "address",
          "name": "",
          "type": "address"
        }
      ],
      "stateMutability": "view",
      "type": "function"
    },
    {
      "inputs": [],
      "name": "stakingContract",
      "outputs": [
        {
          "internalType": "address",
          "name": "",
          "type": "address"
        }
      ],
      "stateMutability": "view",
      "type": "function"
    },
    {
      "inputs": [
        {
          "internalType": "address",
          "name": "newOwner",
          "type": "address"
        }
      ],
      "name": "transferOwnership",
      "outputs": [],
      "stateMutability": "nonpayable",
      "type": "function"
    },
    {
      "inputs": [
        {
          "internalType": "address",
          "name": "to_",
          "type": "address"
        },
        {
          "internalType": "uint256",
          "name": "amount",
          "type": "uint256"
        }
      ],
      "name": "unstake",
      "outputs": [],
      "stateMutability": "nonpayable",
      "type": "function"
    }
  ],
  "bytecode": "0x60806040523480156200001157600080fd5b5060405162003d0d38038062003d0d8339818101604052810190620000379190620002a7565b620000576200004b620001c460201b60201c565b620001cc60201b60201c565b600073ffffffffffffffffffffffffffffffffffffffff168273ffffffffffffffffffffffffffffffffffffffff1614156200009257600080fd5b600073ffffffffffffffffffffffffffffffffffffffff168173ffffffffffffffffffffffffffffffffffffffff161415620000cd57600080fd5b6001600060146101000a81548160ff021916908360ff160217905550600060098190555042600160008060149054906101000a900460ff1660ff1660ff16815260200190815260200160002060000160006101000a81548163ffffffff021916908363ffffffff16021790555081600560006101000a81548173ffffffffffffffffffffffffffffffffffffffff021916908373ffffffffffffffffffffffffffffffffffffffff16021790555080600660006101000a81548173ffffffffffffffffffffffffffffffffffffffff021916908373ffffffffffffffffffffffffffffffffffffffff160217905550505062000336565b600033905090565b60008060009054906101000a900473ffffffffffffffffffffffffffffffffffffffff169050816000806101000a81548173ffffffffffffffffffffffffffffffffffffffff021916908373ffffffffffffffffffffffffffffffffffffffff1602179055508173ffffffffffffffffffffffffffffffffffffffff168173ffffffffffffffffffffffffffffffffffffffff167f8be0079c531659141344cd1fd0a4f28419497f9722a3daafe3b4186f6b6457e060405160405180910390a35050565b600081519050620002a1816200031c565b92915050565b60008060408385031215620002bb57600080fd5b6000620002cb8582860162000290565b9250506020620002de8582860162000290565b9150509250929050565b6000620002f582620002fc565b9050919050565b600073ffffffffffffffffffffffffffffffffffffffff82169050919050565b6200032781620002e8565b81146200033357600080fd5b50565b6139c780620003466000396000f3fe608060405234801561001057600080fd5b50600436106101375760003560e01c80636e93e9f2116100b8578063b5185df61161007c578063b5185df614610364578063c2a672e014610394578063ce7ae0e6146103b0578063ee99205c146103cc578063f2fde38b146103ea578063fa38cdc51461040657610137565b80636e93e9f2146102d1578063715018a61461030257806388d1940f1461030c5780638da5cb5b1461032a578063adc9772e1461034857610137565b80636605bfda116100ff5780636605bfda146101f2578063665033121461020e5780636bb65afa1461023e5780636cc6e5d01461026e5780636cc81cc41461029e57610137565b8063316dfa721461013c57806332c8e76c1461016c57806344879b3b1461019c57806344a71036146101b85780634dd7dee0146101d4575b600080fd5b61015660048036038101906101519190612c67565b610422565b604051610163919061335b565b60405180910390f35b61018660048036038101906101819190612ccc565b610442565b6040516101939190613220565b60405180910390f35b6101b660048036038101906101b19190612c67565b6104a6565b005b6101d260048036038101906101cd9190612ccc565b6105a0565b005b6101dc6107ed565b6040516101e9919061335b565b60405180910390f35b61020c60048036038101906102079190612c67565b610800565b005b61022860048036038101906102239190612c67565b6108fa565b6040516102359190613220565b60405180910390f35b61025860048036038101906102539190612ccc565b6109e5565b6040516102659190613220565b60405180910390f35b61028860048036038101906102839190612d83565b610e04565b6040516102959190613220565b60405180910390f35b6102b860048036038101906102b39190612ccc565b610e2a565b6040516102c894939291906132c4565b60405180910390f35b6102eb60048036038101906102e69190612d83565b610e91565b6040516102f9929190613332565b60405180910390f35b61030a610ef7565b005b610314610f7f565b604051610321919061303a565b60405180910390f35b610332610fa9565b60405161033f919061303a565b60405180910390f35b610362600480360381019061035d9190612c90565b610fd2565b005b61037e60048036038101906103799190612d83565b611073565b60405161038b9190613220565b60405180910390f35b6103ae60048036038101906103a99190612c90565b611099565b005b6103ca60048036038101906103c59190612d31565b61113a565b005b6103d461149d565b6040516103e1919061303a565b60405180910390f35b61040460048036038101906103ff9190612c67565b6114c7565b005b610420600480360381019061041b9190612c67565b6115bf565b005b60046020528060005260406000206000915054906101000a900460ff1681565b6000600360008473ffffffffffffffffffffffffffffffffffffffff1673ffffffffffffffffffffffffffffffffffffffff16815260200190815260200160002060008360ff1660ff16815260200190815260200160002060000154905092915050565b6104ae611695565b73ffffffffffffffffffffffffffffffffffffffff166104cc610fa9565b73ffffffffffffffffffffffffffffffffffffffff1614610522576040517f08c379a000000000000000000000000000000000000000000000000000000000815260040161051990613160565b60405180910390fd5b600073ffffffffffffffffffffffffffffffffffffffff168173ffffffffffffffffffffffffffffffffffffffff16141561055c57600080fd5b80600760006101000a81548173ffffffffffffffffffffffffffffffffffffffff021916908373ffffffffffffffffffffffffffffffffffffffff16021790555050565b6105a98261169d565b60006105b583836109e5565b90506001600360008573ffffffffffffffffffffffffffffffffffffffff1673ffffffffffffffffffffffffffffffffffffffff16815260200190815260200160002060008460ff1660ff16815260200190815260200160002060010160056101000a81548160ff021916908315150217905550806009600082825461063b91906134c0565b9250508190555081600260008573ffffffffffffffffffffffffffffffffffffffff1673ffffffffffffffffffffffffffffffffffffffff16815260200190815260200160002060006101000a81548160ff021916908360ff160217905550600860009054906101000a900473ffffffffffffffffffffffffffffffffffffffff1673ffffffffffffffffffffffffffffffffffffffff16630b0eee30600760009054906101000a900473ffffffffffffffffffffffffffffffffffffffff16836040518363ffffffff1660e01b8152600401610719929190613055565b600060405180830381600087803b15801561073357600080fd5b505af1158015610747573d6000803e3d6000fd5b505050506107988382600760009054906101000a900473ffffffffffffffffffffffffffffffffffffffff1673ffffffffffffffffffffffffffffffffffffffff166119f79092919063ffffffff16565b8273ffffffffffffffffffffffffffffffffffffffff167f29f54648bf4cdde44fd5ab419946327cf486052f3f89c2a5d87470351ce2850d82846040516107e0929190613309565b60405180910390a2505050565b600060149054906101000a900460ff1681565b610808611695565b73ffffffffffffffffffffffffffffffffffffffff16610826610fa9565b73ffffffffffffffffffffffffffffffffffffffff161461087c576040517f08c379a000000000000000000000000000000000000000000000000000000000815260040161087390613160565b60405180910390fd5b600073ffffffffffffffffffffffffffffffffffffffff168173ffffffffffffffffffffffffffffffffffffffff1614156108b657600080fd5b80600860006101000a81548173ffffffffffffffffffffffffffffffffffffffff021916908373ffffffffffffffffffffffffffffffffffffffff16021790555050565b60008073ffffffffffffffffffffffffffffffffffffffff168273ffffffffffffffffffffffffffffffffffffffff16141561093557600080fd5b6000806001600260008673ffffffffffffffffffffffffffffffffffffffff1673ffffffffffffffffffffffffffffffffffffffff16815260200190815260200160002060009054906101000a900460ff1661099191906133fe565b90505b600060149054906101000a900460ff1660ff168160ff1610156109db576109bb84826109e5565b826109c691906133a8565b915080806109d390613618565b915050610994565b5080915050919050565b60008073ffffffffffffffffffffffffffffffffffffffff168373ffffffffffffffffffffffffffffffffffffffff161415610a2057600080fd5b600060149054906101000a900460ff1660ff168260ff1610610a77576040517f08c379a0000000000000000000000000000000000000000000000000000000008152600401610a6e906131a0565b60405180910390fd5b6000600460008573ffffffffffffffffffffffffffffffffffffffff1673ffffffffffffffffffffffffffffffffffffffff16815260200190815260200160002060009054906101000a900460ff169050610ad0612b9a565b8160ff168460ff161115610bae57600360008673ffffffffffffffffffffffffffffffffffffffff1673ffffffffffffffffffffffffffffffffffffffff16815260200190815260200160002060008360ff1660ff168152602001908152602001600020604051806080016040529081600082015481526020016001820160009054906101000a900463ffffffff1663ffffffff1663ffffffff1681526020016001820160049054906101000a900460ff1660ff1660ff1681526020016001820160059054906101000a900460ff1615151515815250509050610c7a565b600360008673ffffffffffffffffffffffffffffffffffffffff1673ffffffffffffffffffffffffffffffffffffffff16815260200190815260200160002060008560ff1660ff168152602001908152602001600020604051806080016040529081600082015481526020016001820160009054906101000a900463ffffffff1663ffffffff1663ffffffff1681526020016001820160049054906101000a900460ff1660ff1660ff1681526020016001820160059054906101000a900460ff16151515158152505090505b806060015115610cbf576040517f08c379a0000000000000000000000000000000000000000000000000000000008152600401610cb690613140565b60405180910390fd5b6000816000015111610d06576040517f08c379a0000000000000000000000000000000000000000000000000000000008152600401610cfd906131e0565b60405180910390fd5b6000600160008660ff1660ff1681526020019081526020016000206040518060800160405290816000820160009054906101000a900463ffffffff1663ffffffff1663ffffffff1681526020016000820160049054906101000a900463ffffffff1663ffffffff1663ffffffff1681526020016001820154815260200160028201548152505090506000610db18260000151836020015163ffffffff16611a7d90919063ffffffff16565b90506000610dcf8263ffffffff16856020015163ffffffff16611aac565b90506000610de585600001518560400151611afe565b9050610df682828660600151611b3e565b965050505050505092915050565b6000600160008360ff1660ff168152602001908152602001600020600101549050919050565b6003602052816000526040600020602052806000526040600020600091509150508060000154908060010160009054906101000a900463ffffffff16908060010160049054906101000a900460ff16908060010160059054906101000a900460ff16905084565b600080600160008460ff1660ff16815260200190815260200160002060000160009054906101000a900463ffffffff169150600160008460ff1660ff16815260200190815260200160002060000160049054906101000a900463ffffffff169050915091565b610eff611695565b73ffffffffffffffffffffffffffffffffffffffff16610f1d610fa9565b73ffffffffffffffffffffffffffffffffffffffff1614610f73576040517f08c379a0000000000000000000000000000000000000000000000000000000008152600401610f6a90613160565b60405180910390fd5b610f7d6000611b8f565b565b6000600660009054906101000a900473ffffffffffffffffffffffffffffffffffffffff16905090565b60008060009054906101000a900473ffffffffffffffffffffffffffffffffffffffff16905090565b600560009054906101000a900473ffffffffffffffffffffffffffffffffffffffff1673ffffffffffffffffffffffffffffffffffffffff163373ffffffffffffffffffffffffffffffffffffffff1614611062576040517f08c379a0000000000000000000000000000000000000000000000000000000008152600401611059906130c0565b60405180910390fd5b61106e82826001611c53565b505050565b6000600160008360ff1660ff168152602001908152602001600020600201549050919050565b600560009054906101000a900473ffffffffffffffffffffffffffffffffffffffff1673ffffffffffffffffffffffffffffffffffffffff163373ffffffffffffffffffffffffffffffffffffffff1614611129576040517f08c379a0000000000000000000000000000000000000000000000000000000008152600401611120906130c0565b60405180910390fd5b61113582826000611c53565b505050565b611142611695565b73ffffffffffffffffffffffffffffffffffffffff16611160610fa9565b73ffffffffffffffffffffffffffffffffffffffff16146111b6576040517f08c379a00000000000000000000000000000000000000000000000000000000081526004016111ad90613160565b60405180910390fd5b600081116111c357600080fd5b6000600160008060149054906101000a900460ff1660ff1660ff1681526020019081526020016000206040518060800160405290816000820160009054906101000a900463ffffffff1663ffffffff1663ffffffff1681526020016000820160049054906101000a900463ffffffff1663ffffffff1663ffffffff16815260200160018201548152602001600282015481525050905042816020019063ffffffff16908163ffffffff168152505081816060018181525050600660009054906101000a900473ffffffffffffffffffffffffffffffffffffffff1673ffffffffffffffffffffffffffffffffffffffff166318160ddd6040518163ffffffff1660e01b815260040160206040518083038186803b1580156112e357600080fd5b505afa1580156112f7573d6000803e3d6000fd5b505050506040513d601f19601f8201168201806040525081019061131b9190612d5a565b81604001818152505080600160008060149054906101000a900460ff1660ff1660ff16815260200190815260200160002060008201518160000160006101000a81548163ffffffff021916908363ffffffff16021790555060208201518160000160046101000a81548163ffffffff021916908363ffffffff16021790555060408201518160010155606082015181600201559050507fb5a927304116e39aa3a6faa912604add4565a926be6ec77c5caa602e5811b5bf828260400151600060149054906101000a900460ff166040516113f793929190613264565b60405180910390a16000601481819054906101000a900460ff168092919061141e90613618565b91906101000a81548160ff021916908360ff16021790555050816009600082825461144991906133a8565b9250508190555042600160008060149054906101000a900460ff1660ff1660ff16815260200190815260200160002060000160006101000a81548163ffffffff021916908363ffffffff1602179055505050565b6000600560009054906101000a900473ffffffffffffffffffffffffffffffffffffffff16905090565b6114cf611695565b73ffffffffffffffffffffffffffffffffffffffff166114ed610fa9565b73ffffffffffffffffffffffffffffffffffffffff1614611543576040517f08c379a000000000000000000000000000000000000000000000000000000000815260040161153a90613160565b60405180910390fd5b600073ffffffffffffffffffffffffffffffffffffffff168173ffffffffffffffffffffffffffffffffffffffff1614156115b3576040517f08c379a00000000000000000000000000000000000000000000000000000000081526004016115aa906130a0565b60405180910390fd5b6115bc81611b8f565b50565b600073ffffffffffffffffffffffffffffffffffffffff168173ffffffffffffffffffffffffffffffffffffffff1614156115f957600080fd5b60006001600260008473ffffffffffffffffffffffffffffffffffffffff1673ffffffffffffffffffffffffffffffffffffffff16815260200190815260200160002060009054906101000a900460ff1661165491906133fe565b90505b600060149054906101000a900460ff1660ff168160ff1610156116915761167e82826105a0565b808061168990613618565b915050611657565b5050565b600033905090565b600060149054906101000a900460ff1660ff16600460008373ffffffffffffffffffffffffffffffffffffffff1673ffffffffffffffffffffffffffffffffffffffff16815260200190815260200160002060009054906101000a900460ff1660ff16146119f45760006001600460008473ffffffffffffffffffffffffffffffffffffffff1673ffffffffffffffffffffffffffffffffffffffff16815260200190815260200160002060009054906101000a900460ff1661176091906133fe565b90505b600060149054906101000a900460ff1660ff168160ff161161198b576000600360008473ffffffffffffffffffffffffffffffffffffffff1673ffffffffffffffffffffffffffffffffffffffff16815260200190815260200160002060006001846117cf9190613528565b60ff1660ff168152602001908152602001600020604051806080016040529081600082015481526020016001820160009054906101000a900463ffffffff1663ffffffff1663ffffffff1681526020016001820160049054906101000a900460ff1660ff1660ff1681526020016001820160059054906101000a900460ff1615151515815250509050611860612b9a565b6000816020019063ffffffff16908163ffffffff168152505082816040019060ff16908160ff16815250508160000151816000018181525050600081606001901515908115158152505080600360008673ffffffffffffffffffffffffffffffffffffffff1673ffffffffffffffffffffffffffffffffffffffff16815260200190815260200160002060008560ff1660ff1681526020019081526020016000206000820151816000015560208201518160010160006101000a81548163ffffffff021916908363ffffffff16021790555060408201518160010160046101000a81548160ff021916908360ff16021790555060608201518160010160056101000a81548160ff0219169083151502179055509050505050808061198390613618565b915050611763565b50600060149054906101000a900460ff16600460008373ffffffffffffffffffffffffffffffffffffffff1673ffffffffffffffffffffffffffffffffffffffff16815260200190815260200160002060006101000a81548160ff021916908360ff1602179055505b50565b611a788363a9059cbb60e01b8484604051602401611a16929190613055565b604051602081830303815290604052907bffffffffffffffffffffffffffffffffffffffffffffffffffffffff19166020820180517bffffffffffffffffffffffffffffffffffffffffffffffffffffffff83818316178352505050506121bf565b505050565b60008263ffffffff168284611a9291906134f4565b91508163ffffffff161115611aa657600080fd5b92915050565b6000611af666038d7ea4c6800080611ade611ad9611ad3878961228690919063ffffffff16565b886122a9565b6124b0565b611ae89190613435565b6124ee90919063ffffffff16565b905092915050565b6000611b3666038d7ea4c6800080611b1e611b1987876122a9565b6124b0565b611b289190613435565b6124ee90919063ffffffff16565b905092915050565b6000611b866ec097ce7bc90715b34b9f1000000000611b7884611b6a87896124ee90919063ffffffff16565b6124ee90919063ffffffff16565b61252590919063ffffffff16565b90509392505050565b60008060009054906101000a900473ffffffffffffffffffffffffffffffffffffffff169050816000806101000a81548173ffffffffffffffffffffffffffffffffffffffff021916908373ffffffffffffffffffffffffffffffffffffffff1602179055508173ffffffffffffffffffffffffffffffffffffffff168173ffffffffffffffffffffffffffffffffffffffff167f8be0079c531659141344cd1fd0a4f28419497f9722a3daafe3b4186f6b6457e060405160405180910390a35050565b6000611c5e8461169d565b6000600360008673ffffffffffffffffffffffffffffffffffffffff1673ffffffffffffffffffffffffffffffffffffffff16815260200190815260200160002060008060149054906101000a900460ff1660ff1660ff168152602001908152602001600020604051806080016040529081600082015481526020016001820160009054906101000a900463ffffffff1663ffffffff1663ffffffff1681526020016001820160049054906101000a900460ff1660ff1660ff1681526020016001820160059054906101000a900460ff1615151515815250509050600060149054906101000a900460ff16600460008773ffffffffffffffffffffffffffffffffffffffff1673ffffffffffffffffffffffffffffffffffffffff16815260200190815260200160002060006101000a81548160ff021916908360ff1602179055508215611f9f576000611df68260200151600160008060149054906101000a900460ff1660ff1660ff16815260200190815260200160002060000160009054906101000a900463ffffffff1684600001518861256f565b9050611e13670de0b6b3a76400008261252590919063ffffffff16565b826020019063ffffffff16908163ffffffff1681525050611e4185836000015161260290919063ffffffff16565b826000018181525050600060149054906101000a900460ff16826040019060ff16908160ff168152505081600360008873ffffffffffffffffffffffffffffffffffffffff1673ffffffffffffffffffffffffffffffffffffffff16815260200190815260200160002060008060149054906101000a900460ff1660ff1660ff1681526020019081526020016000206000820151816000015560208201518160010160006101000a81548163ffffffff021916908363ffffffff16021790555060408201518160010160046101000a81548160ff021916908360ff16021790555060608201518160010160056101000a81548160ff0219169083151502179055509050508573ffffffffffffffffffffffffffffffffffffffff167f388581407fcab28d7eaeffaf92f1716df2203258960164e8401a02b1efb5c11d8683604051611f8d92919061323b565b60405180910390a280925050506121b8565b611fb684826000015161228690919063ffffffff16565b81600001818152505080600360008773ffffffffffffffffffffffffffffffffffffffff1673ffffffffffffffffffffffffffffffffffffffff16815260200190815260200160002060008060149054906101000a900460ff1660ff1660ff1681526020019081526020016000206000820151816000015560208201518160010160006101000a81548163ffffffff021916908363ffffffff16021790555060408201518160010160046101000a81548160ff021916908360ff16021790555060608201518160010160056101000a81548160ff02191690831515021790555090505060008160000151141561215557600360008673ffffffffffffffffffffffffffffffffffffffff1673ffffffffffffffffffffffffffffffffffffffff16815260200190815260200160002060008060149054906101000a900460ff1660ff1660ff1681526020019081526020016000206000808201600090556001820160006101000a81549063ffffffff02191690556001820160046101000a81549060ff02191690556001820160056101000a81549060ff021916905550505b8473ffffffffffffffffffffffffffffffffffffffff167f1e301f7726fd710134cc80520b42a10391600bb16c2597bf2932bbad9c82eca98583602001516040516121a192919061329b565b60405180910390a2806020015163ffffffff169150505b9392505050565b6000612221826040518060400160405280602081526020017f5361666545524332303a206c6f772d6c6576656c2063616c6c206661696c65648152508573ffffffffffffffffffffffffffffffffffffffff166126259092919063ffffffff16565b905060008151111561228157808060200190518101906122419190612d08565b612280576040517f08c379a000000000000000000000000000000000000000000000000000000000815260040161227790613200565b60405180910390fd5b5b505050565b600082828461229591906134c0565b91508111156122a357600080fd5b92915050565b6122b1612bcd565b600082116122f4576040517f08c379a00000000000000000000000000000000000000000000000000000000081526004016122eb90613100565b60405180910390fd5b600083141561233257604051806020016040528060007bffffffffffffffffffffffffffffffffffffffffffffffffffffffff1681525090506124aa565b71ffffffffffffffffffffffffffffffffffff801683116123fa57600082607060ff1685901b6123629190613435565b90507bffffffffffffffffffffffffffffffffffffffffffffffffffffffff80168111156123c5576040517f08c379a00000000000000000000000000000000000000000000000000000000081526004016123bc90613180565b60405180910390fd5b6040518060200160405280827bffffffffffffffffffffffffffffffffffffffffffffffffffffffff168152509150506124aa565b6000612416846e0100000000000000000000000000008561263d565b90507bffffffffffffffffffffffffffffffffffffffffffffffffffffffff8016811115612479576040517f08c379a000000000000000000000000000000000000000000000000000000000815260040161247090613180565b60405180910390fd5b6040518060200160405280827bffffffffffffffffffffffffffffffffffffffffffffffffffffffff168152509150505b92915050565b60006612725dd1d243ab82600001517bffffffffffffffffffffffffffffffffffffffffffffffffffffffff166124e79190613435565b9050919050565b6000808314806125165750818383856125079190613466565b9250826125149190613435565b145b61251f57600080fd5b92915050565b600061256783836040518060400160405280601a81526020017f536166654d6174683a206469766973696f6e206279207a65726f00000000000081525061270b565b905092915050565b60008061258b848763ffffffff166124ee90919063ffffffff16565b905060006125a88663ffffffff164261228690919063ffffffff16565b905060006125bf82866124ee90919063ffffffff16565b905060006125d6828561260290919063ffffffff16565b90506125f4816125ef888a61260290919063ffffffff16565b61276e565b945050505050949350505050565b600082828461261191906133a8565b915081101561261f57600080fd5b92915050565b606061263484846000856127ae565b90509392505050565b600080600061264c86866128c2565b9150915060008480612687577f4e487b7100000000000000000000000000000000000000000000000000000000600052601260045260246000fd5b8688099050828111156126a4576001826126a191906134c0565b91505b80836126b091906134c0565b92508482106126f4576040517f08c379a00000000000000000000000000000000000000000000000000000000081526004016126eb90613120565b60405180910390fd5b6126ff83838761295d565b93505050509392505050565b60008083118290612752576040517f08c379a0000000000000000000000000000000000000000000000000000000008152600401612749919061307e565b60405180910390fd5b50600083856127619190613435565b9050809150509392505050565b60006127a666038d7ea4c680008061278e61278987876122a9565b6124b0565b6127989190613435565b6124ee90919063ffffffff16565b905092915050565b6060824710156127f3576040517f08c379a00000000000000000000000000000000000000000000000000000000081526004016127ea906130e0565b60405180910390fd5b6127fc85612b10565b61283b576040517f08c379a0000000000000000000000000000000000000000000000000000000008152600401612832906131c0565b60405180910390fd5b6000808673ffffffffffffffffffffffffffffffffffffffff1685876040516128649190613023565b60006040518083038185875af1925050503d80600081146128a1576040519150601f19603f3d011682016040523d82523d6000602084013e6128a6565b606091505b50915091506128b6828286612b33565b92505050949350505050565b60008060007fffffffffffffffffffffffffffffffffffffffffffffffffffffffffffffffff8061291c577f4e487b7100000000000000000000000000000000000000000000000000000000600052601260045260246000fd5b8486099050838561292d9190613466565b9250828161293b91906134c0565b9150828110156129555760018261295291906134c0565b91505b509250929050565b6000806001831961296e91906133a8565b83169050808361297e9190613435565b9250808561298c9190613435565b94506001816001831961299f91906133a8565b6129a99190613435565b6129b391906133a8565b846129be9190613466565b856129c991906133a8565b945060006001905080846129dd9190613466565b60026129e991906134c0565b816129f49190613466565b90508084612a029190613466565b6002612a0e91906134c0565b81612a199190613466565b90508084612a279190613466565b6002612a3391906134c0565b81612a3e9190613466565b90508084612a4c9190613466565b6002612a5891906134c0565b81612a639190613466565b90508084612a719190613466565b6002612a7d91906134c0565b81612a889190613466565b90508084612a969190613466565b6002612aa291906134c0565b81612aad9190613466565b90508084612abb9190613466565b6002612ac791906134c0565b81612ad29190613466565b90508084612ae09190613466565b6002612aec91906134c0565b81612af79190613466565b90508086612b059190613466565b925050509392505050565b6000808273ffffffffffffffffffffffffffffffffffffffff163b119050919050565b60608315612b4357829050612b93565b600083511115612b565782518084602001fd5b816040517f08c379a0000000000000000000000000000000000000000000000000000000008152600401612b8a919061307e565b60405180910390fd5b9392505050565b604051806080016040528060008152602001600063ffffffff168152602001600060ff1681526020016000151581525090565b604051806020016040528060007bffffffffffffffffffffffffffffffffffffffffffffffffffffffff1681525090565b600081359050612c0d81613935565b92915050565b600081519050612c228161394c565b92915050565b600081359050612c3781613963565b92915050565b600081519050612c4c81613963565b92915050565b600081359050612c618161397a565b92915050565b600060208284031215612c7957600080fd5b6000612c8784828501612bfe565b91505092915050565b60008060408385031215612ca357600080fd5b6000612cb185828601612bfe565b9250506020612cc285828601612c28565b9150509250929050565b60008060408385031215612cdf57600080fd5b6000612ced85828601612bfe565b9250506020612cfe85828601612c52565b9150509250929050565b600060208284031215612d1a57600080fd5b6000612d2884828501612c13565b91505092915050565b600060208284031215612d4357600080fd5b6000612d5184828501612c28565b91505092915050565b600060208284031215612d6c57600080fd5b6000612d7a84828501612c3d565b91505092915050565b600060208284031215612d9557600080fd5b6000612da384828501612c52565b91505092915050565b612db58161355c565b82525050565b612dc48161356e565b82525050565b6000612dd582613376565b612ddf818561338c565b9350612def8185602086016135e5565b80840191505092915050565b6000612e0682613381565b612e108185613397565b9350612e208185602086016135e5565b612e29816136a0565b840191505092915050565b6000612e41602683613397565b9150612e4c826136b1565b604082019050919050565b6000612e64600383613397565b9150612e6f82613700565b602082019050919050565b6000612e87602683613397565b9150612e9282613729565b604082019050919050565b6000612eaa602683613397565b9150612eb582613778565b604082019050919050565b6000612ecd601a83613397565b9150612ed8826137c7565b602082019050919050565b6000612ef0601983613397565b9150612efb826137f0565b602082019050919050565b6000612f13602083613397565b9150612f1e82613819565b602082019050919050565b6000612f36601e83613397565b9150612f4182613842565b602082019050919050565b6000612f59601483613397565b9150612f648261386b565b602082019050919050565b6000612f7c601d83613397565b9150612f8782613894565b602082019050919050565b6000612f9f601283613397565b9150612faa826138bd565b602082019050919050565b6000612fc2602a83613397565b9150612fcd826138e6565b604082019050919050565b612fe18161359a565b82525050565b612ff0816135c1565b82525050565b612fff816135a4565b82525050565b61300e816135d3565b82525050565b61301d816135b4565b82525050565b600061302f8284612dca565b915081905092915050565b600060208201905061304f6000830184612dac565b92915050565b600060408201905061306a6000830185612dac565b6130776020830184612fd8565b9392505050565b600060208201905081810360008301526130988184612dfb565b905092915050565b600060208201905081810360008301526130b981612e34565b9050919050565b600060208201905081810360008301526130d981612e57565b9050919050565b600060208201905081810360008301526130f981612e7a565b9050919050565b6000602082019050818103600083015261311981612e9d565b9050919050565b6000602082019050818103600083015261313981612ec0565b9050919050565b6000602082019050818103600083015261315981612ee3565b9050919050565b6000602082019050818103600083015261317981612f06565b9050919050565b6000602082019050818103600083015261319981612f29565b9050919050565b600060208201905081810360008301526131b981612f4c565b9050919050565b600060208201905081810360008301526131d981612f6f565b9050919050565b600060208201905081810360008301526131f981612f92565b9050919050565b6000602082019050818103600083015261321981612fb5565b9050919050565b60006020820190506132356000830184612fd8565b92915050565b60006040820190506132506000830185612fd8565b61325d6020830184612fd8565b9392505050565b60006060820190506132796000830186612fd8565b6132866020830185612fd8565b6132936040830184613014565b949350505050565b60006040820190506132b06000830185612fd8565b6132bd6020830184612fe7565b9392505050565b60006080820190506132d96000830187612fd8565b6132e66020830186612ff6565b6132f36040830185613014565b6133006060830184612dbb565b95945050505050565b600060408201905061331e6000830185612fd8565b61332b6020830184613005565b9392505050565b60006040820190506133476000830185612ff6565b6133546020830184612ff6565b9392505050565b60006020820190506133706000830184613014565b92915050565b600081519050919050565b600081519050919050565b600081905092915050565b600082825260208201905092915050565b60006133b38261359a565b91506133be8361359a565b9250827fffffffffffffffffffffffffffffffffffffffffffffffffffffffffffffffff038211156133f3576133f2613642565b5b828201905092915050565b6000613409826135b4565b9150613414836135b4565b92508260ff0382111561342a57613429613642565b5b828201905092915050565b60006134408261359a565b915061344b8361359a565b92508261345b5761345a613671565b5b828204905092915050565b60006134718261359a565b915061347c8361359a565b9250817fffffffffffffffffffffffffffffffffffffffffffffffffffffffffffffffff04831182151516156134b5576134b4613642565b5b828202905092915050565b60006134cb8261359a565b91506134d68361359a565b9250828210156134e9576134e8613642565b5b828203905092915050565b60006134ff826135a4565b915061350a836135a4565b92508282101561351d5761351c613642565b5b828203905092915050565b6000613533826135b4565b915061353e836135b4565b92508282101561355157613550613642565b5b828203905092915050565b60006135678261357a565b9050919050565b60008115159050919050565b600073ffffffffffffffffffffffffffffffffffffffff82169050919050565b6000819050919050565b600063ffffffff82169050919050565b600060ff82169050919050565b60006135cc826135a4565b9050919050565b60006135de826135b4565b9050919050565b60005b838110156136035780820151818401526020810190506135e8565b83811115613612576000848401525b50505050565b6000613623826135b4565b915060ff82141561363757613636613642565b5b600182019050919050565b7f4e487b7100000000000000000000000000000000000000000000000000000000600052601160045260246000fd5b7f4e487b7100000000000000000000000000000000000000000000000000000000600052601260045260246000fd5b6000601f19601f8301169050919050565b7f4f776e61626c653a206e6577206f776e657220697320746865207a65726f206160008201527f6464726573730000000000000000000000000000000000000000000000000000602082015250565b7f4f53430000000000000000000000000000000000000000000000000000000000600082015250565b7f416464726573733a20696e73756666696369656e742062616c616e636520666f60008201527f722063616c6c0000000000000000000000000000000000000000000000000000602082015250565b7f4669786564506f696e743a3a6672616374696f6e3a206469766973696f6e206260008201527f79207a65726f0000000000000000000000000000000000000000000000000000602082015250565b7f46756c6c4d6174683a3a6d756c4469763a206f766572666c6f77000000000000600082015250565b7f557365722048617320616c72656164792052656465656d656400000000000000600082015250565b7f4f776e61626c653a2063616c6c6572206973206e6f7420746865206f776e6572600082015250565b7f4669786564506f696e743a3a6672616374696f6e3a206f766572666c6f770000600082015250565b7f496e76616c696420526577617264204379636c65000000000000000000000000600082015250565b7f416464726573733a2063616c6c20746f206e6f6e2d636f6e7472616374000000600082015250565b7f5374616b656420416d6f756e7420697320300000000000000000000000000000600082015250565b7f5361666545524332303a204552433230206f7065726174696f6e20646964206e60008201527f6f74207375636365656400000000000000000000000000000000000000000000602082015250565b61393e8161355c565b811461394957600080fd5b50565b6139558161356e565b811461396057600080fd5b50565b61396c8161359a565b811461397757600080fd5b50565b613983816135b4565b811461398e57600080fd5b5056fea2646970667358221220256008d8695e66234c9ec1abda602b52fa91a87ecc721d52ed1e62885166057964736f6c63430008040033",
  "linkReferences": {},
  "deployedLinkReferences": {}
}