{
  "_format": "hh-sol-artifact-1",
  "contractName": "Staking",
  "sourceName": "contracts/Staking.sol",
  "abi": [
    {
      "inputs": [
        {
          "internalType": "address",
          "name": "_orcl",
          "type": "address"
        },
        {
          "internalType": "address",
          "name": "_sorcl",
          "type": "address"
        }
      ],
      "stateMutability": "nonpayable",
      "type": "constructor"
    },
    {
      "anonymous": false,
      "inputs": [
        {
          "indexed": true,
          "internalType": "address",
          "name": "previousOwner",
          "type": "address"
        },
        {
          "indexed": true,
          "internalType": "address",
          "name": "newOwner",
          "type": "address"
        }
      ],
      "name": "OwnershipTransferred",
      "type": "event"
    },
    {
      "anonymous": false,
      "inputs": [
        {
          "indexed": false,
          "internalType": "uint256",
          "name": "warmup",
          "type": "uint256"
        }
      ],
      "name": "WarmupSet",
      "type": "event"
    },
    {
      "inputs": [],
      "name": "ORCL",
      "outputs": [
        {
          "internalType": "contract IERC20",
          "name": "",
          "type": "address"
        }
      ],
      "stateMutability": "view",
      "type": "function"
    },
    {
      "inputs": [
        {
          "internalType": "address",
          "name": "_to",
          "type": "address"
        }
      ],
      "name": "claim",
      "outputs": [
        {
          "internalType": "uint256",
          "name": "",
          "type": "uint256"
        }
      ],
      "stateMutability": "nonpayable",
      "type": "function"
    },
    {
      "inputs": [],
      "name": "contractORCLBalance",
      "outputs": [
        {
          "internalType": "uint256",
          "name": "",
          "type": "uint256"
        }
      ],
      "stateMutability": "view",
      "type": "function"
    },
    {
      "inputs": [],
      "name": "forfeit",
      "outputs": [
        {
          "internalType": "uint256",
          "name": "",
          "type": "uint256"
        }
      ],
      "stateMutability": "nonpayable",
      "type": "function"
    },
    {
      "inputs": [],
      "name": "getRewardDistributorAddress",
      "outputs": [
        {
          "internalType": "address",
          "name": "",
          "type": "address"
        }
      ],
      "stateMutability": "view",
      "type": "function"
    },
    {
      "inputs": [],
      "name": "owner",
      "outputs": [
        {
          "internalType": "address",
          "name": "",
          "type": "address"
        }
      ],
      "stateMutability": "view",
      "type": "function"
    },
    {
      "inputs": [],
      "name": "renounceOwnership",
      "outputs": [],
      "stateMutability": "nonpayable",
      "type": "function"
    },
    {
      "inputs": [],
      "name": "rewardDistributor",
      "outputs": [
        {
          "internalType": "contract IRewardDistributor",
          "name": "",
          "type": "address"
        }
      ],
      "stateMutability": "view",
      "type": "function"
    },
    {
      "inputs": [],
      "name": "sORCL",
      "outputs": [
        {
          "internalType": "contract IERC20",
          "name": "",
          "type": "address"
        }
      ],
      "stateMutability": "view",
      "type": "function"
    },
    {
      "inputs": [
        {
          "internalType": "address",
          "name": "rewardDistributor_",
          "type": "address"
        }
      ],
      "name": "setRewardDistributor",
      "outputs": [],
      "stateMutability": "nonpayable",
      "type": "function"
    },
    {
      "inputs": [
        {
          "internalType": "uint256",
          "name": "_warmupPeriod",
          "type": "uint256"
        }
      ],
      "name": "setWarmupLength",
      "outputs": [],
      "stateMutability": "nonpayable",
      "type": "function"
    },
    {
      "inputs": [
        {
          "internalType": "address",
          "name": "_to",
          "type": "address"
        },
        {
          "internalType": "uint256",
          "name": "_amount",
          "type": "uint256"
        }
      ],
      "name": "stake",
      "outputs": [
        {
          "internalType": "uint256",
          "name": "",
          "type": "uint256"
        }
      ],
      "stateMutability": "nonpayable",
      "type": "function"
    },
    {
      "inputs": [],
      "name": "supplyInWarmup",
      "outputs": [
        {
          "internalType": "uint256",
          "name": "",
          "type": "uint256"
        }
      ],
      "stateMutability": "view",
      "type": "function"
    },
    {
      "inputs": [],
      "name": "toggleLock",
      "outputs": [],
      "stateMutability": "nonpayable",
      "type": "function"
    },
    {
      "inputs": [
        {
          "internalType": "address",
          "name": "newOwner",
          "type": "address"
        }
      ],
      "name": "transferOwnership",
      "outputs": [],
      "stateMutability": "nonpayable",
      "type": "function"
    },
    {
      "inputs": [
        {
          "internalType": "address",
          "name": "_to",
          "type": "address"
        },
        {
          "internalType": "uint256",
          "name": "_amount",
          "type": "uint256"
        }
      ],
      "name": "unstake",
      "outputs": [
        {
          "internalType": "uint256",
          "name": "amount_",
          "type": "uint256"
        }
      ],
      "stateMutability": "nonpayable",
      "type": "function"
    },
    {
      "inputs": [
        {
          "internalType": "address",
          "name": "",
          "type": "address"
        }
      ],
      "name": "warmupInfo",
      "outputs": [
        {
          "internalType": "uint256",
          "name": "deposit",
          "type": "uint256"
        },
        {
          "internalType": "uint256",
          "name": "expiry",
          "type": "uint256"
        },
        {
          "internalType": "bool",
          "name": "lock",
          "type": "bool"
        }
      ],
      "stateMutability": "view",
      "type": "function"
    },
    {
      "inputs": [],
      "name": "warmupPeriod",
      "outputs": [
        {
          "internalType": "uint256",
          "name": "",
          "type": "uint256"
        }
      ],
      "stateMutability": "view",
      "type": "function"
    }
  ],
  "bytecode": "0x60c06040523480156200001157600080fd5b50604051620023ba380380620023ba833981810160405281019062000037919062000296565b620000576200004b620001b360201b60201c565b620001bb60201b60201c565b600073ffffffffffffffffffffffffffffffffffffffff168273ffffffffffffffffffffffffffffffffffffffff161415620000ca576040517f08c379a0000000000000000000000000000000000000000000000000000000008152600401620000c19062000325565b60405180910390fd5b8173ffffffffffffffffffffffffffffffffffffffff1660808173ffffffffffffffffffffffffffffffffffffffff1660601b81525050600073ffffffffffffffffffffffffffffffffffffffff168173ffffffffffffffffffffffffffffffffffffffff16141562000174576040517f08c379a00000000000000000000000000000000000000000000000000000000081526004016200016b9062000347565b60405180910390fd5b8073ffffffffffffffffffffffffffffffffffffffff1660a08173ffffffffffffffffffffffffffffffffffffffff1660601b8152505050506200041a565b600033905090565b60008060009054906101000a900473ffffffffffffffffffffffffffffffffffffffff169050816000806101000a81548173ffffffffffffffffffffffffffffffffffffffff021916908373ffffffffffffffffffffffffffffffffffffffff1602179055508173ffffffffffffffffffffffffffffffffffffffff168173ffffffffffffffffffffffffffffffffffffffff167f8be0079c531659141344cd1fd0a4f28419497f9722a3daafe3b4186f6b6457e060405160405180910390a35050565b600081519050620002908162000400565b92915050565b60008060408385031215620002aa57600080fd5b6000620002ba858286016200027f565b9250506020620002cd858286016200027f565b9150509250929050565b6000620002e660128362000369565b9150620002f382620003ae565b602082019050919050565b60006200030d60138362000369565b91506200031a82620003d7565b602082019050919050565b600060208201905081810360008301526200034081620002d7565b9050919050565b600060208201905081810360008301526200036281620002fe565b9050919050565b600082825260208201905092915050565b600062000387826200038e565b9050919050565b600073ffffffffffffffffffffffffffffffffffffffff82169050919050565b7f5a65726f20616464726573733a204f52434c0000000000000000000000000000600082015250565b7f5a65726f20616464726573733a20734f52434c00000000000000000000000000600082015250565b6200040b816200037a565b81146200041757600080fd5b50565b60805160601c60a05160601c611f43620004776000396000818161053d01528181610afa015261109e015260008181610519015281816105630152818161082801528181610b8701528181610c770152610f890152611f436000f3fe608060405234801561001057600080fd5b50600436106101165760003560e01c8063a1809b95116100a2578063c467d65011610071578063c467d650146102d3578063deac361a146102f1578063f2fde38b1461030f578063f3d86e4a1461032b578063ff9413d81461034957610116565b8063a1809b9514610239578063acc2166a14610255578063adc9772e14610273578063c2a672e0146102a357610116565b806362746c40116100e957806362746c40146101a55780636746f4c2146101c3578063715018a6146101f55780638da5cb5b146101ff5780639238d5921461021d57610116565b80631e83409a1461011b578063201386411461014b57806333483ffd1461016957806361e39a2814610187575b600080fd5b610135600480360381019061013091906115f4565b610353565b6040516101429190611a8b565b60405180910390f35b61015361050d565b6040516101609190611a8b565b60405180910390f35b610171610517565b60405161017e9190611933565b60405180910390f35b61018f61053b565b60405161019c9190611933565b60405180910390f35b6101ad61055f565b6040516101ba9190611a8b565b60405180910390f35b6101dd60048036038101906101d891906115f4565b61060f565b6040516101ec93929190611aa6565b60405180910390f35b6101fd610646565b005b6102076106ce565b60405161021491906118b8565b60405180910390f35b61023760048036038101906102329190611682565b6106f7565b005b610253600480360381019061024e91906115f4565b6107b4565b005b61025d6107f8565b60405161026a919061194e565b60405180910390f35b61028d6004803603810190610288919061161d565b61081e565b60405161029a9190611a8b565b60405180910390f35b6102bd60048036038101906102b8919061161d565b610af6565b6040516102ca9190611a8b565b60405180910390f35b6102db610d53565b6040516102e891906118b8565b60405180910390f35b6102f9610d7d565b6040516103069190611a8b565b60405180910390f35b610329600480360381019061032491906115f4565b610d83565b005b610333610e7b565b6040516103409190611a8b565b60405180910390f35b610351610fd8565b005b600080600260008473ffffffffffffffffffffffffffffffffffffffff1673ffffffffffffffffffffffffffffffffffffffff16815260200190815260200160002060405180606001604052908160008201548152602001600182015481526020016002820160009054906101000a900460ff16151515158152505090508060400151610449573373ffffffffffffffffffffffffffffffffffffffff168373ffffffffffffffffffffffffffffffffffffffff1614610448576040517f08c379a000000000000000000000000000000000000000000000000000000000815260040161043f906119eb565b60405180910390fd5b5b8060200151421015801561046257506000816020015114155b1561050257600260008473ffffffffffffffffffffffffffffffffffffffff1673ffffffffffffffffffffffffffffffffffffffff16815260200190815260200160002060008082016000905560018201600090556002820160006101000a81549060ff021916905550506104e6816000015160045461108490919063ffffffff16565b6004819055506104fa83826000015161109a565b915050610508565b60009150505b919050565b6000600454905090565b7f000000000000000000000000000000000000000000000000000000000000000081565b7f000000000000000000000000000000000000000000000000000000000000000081565b60007f000000000000000000000000000000000000000000000000000000000000000073ffffffffffffffffffffffffffffffffffffffff166370a08231306040518263ffffffff1660e01b81526004016105ba91906118b8565b60206040518083038186803b1580156105d257600080fd5b505afa1580156105e6573d6000803e3d6000fd5b505050506040513d601f19601f8201168201806040525081019061060a91906116ab565b905090565b60026020528060005260406000206000915090508060000154908060010154908060020160009054906101000a900460ff16905083565b61064e611132565b73ffffffffffffffffffffffffffffffffffffffff1661066c6106ce565b73ffffffffffffffffffffffffffffffffffffffff16146106c2576040517f08c379a00000000000000000000000000000000000000000000000000000000081526004016106b990611a2b565b60405180910390fd5b6106cc600061113a565b565b60008060009054906101000a900473ffffffffffffffffffffffffffffffffffffffff16905090565b6106ff611132565b73ffffffffffffffffffffffffffffffffffffffff1661071d6106ce565b73ffffffffffffffffffffffffffffffffffffffff1614610773576040517f08c379a000000000000000000000000000000000000000000000000000000000815260040161076a90611a2b565b60405180910390fd5b806003819055507fac17d51c35ac71d3eddc155985908430e88946d51e2f6093e93c1c0aba08f6c4816040516107a99190611a8b565b60405180910390a150565b80600160006101000a81548173ffffffffffffffffffffffffffffffffffffffff021916908373ffffffffffffffffffffffffffffffffffffffff16021790555050565b600160009054906101000a900473ffffffffffffffffffffffffffffffffffffffff1681565b600061086d3330847f000000000000000000000000000000000000000000000000000000000000000073ffffffffffffffffffffffffffffffffffffffff166111fe909392919063ffffffff16565b6000600354141561091a57610882838361109a565b50600160009054906101000a900473ffffffffffffffffffffffffffffffffffffffff1673ffffffffffffffffffffffffffffffffffffffff1663adc9772e84846040518363ffffffff1660e01b81526004016108e092919061190a565b600060405180830381600087803b1580156108fa57600080fd5b505af115801561090e573d6000803e3d6000fd5b50505050819050610af0565b6000600260008573ffffffffffffffffffffffffffffffffffffffff1673ffffffffffffffffffffffffffffffffffffffff16815260200190815260200160002060405180606001604052908160008201548152602001600182015481526020016002820160009054906101000a900460ff16151515158152505090508060400151610a0f573373ffffffffffffffffffffffffffffffffffffffff168473ffffffffffffffffffffffffffffffffffffffff1614610a0e576040517f08c379a0000000000000000000000000000000000000000000000000000000008152600401610a05906119cb565b60405180910390fd5b5b6040518060600160405280610a3185846000015161128790919063ffffffff16565b8152602001610a4b6003544261128790919063ffffffff16565b815260200182604001511515815250600260008673ffffffffffffffffffffffffffffffffffffffff1673ffffffffffffffffffffffffffffffffffffffff168152602001908152602001600020600082015181600001556020820151816001015560408201518160020160006101000a81548160ff021916908315150217905550905050610ae58360045461128790919063ffffffff16565b600481905550829150505b92915050565b60007f000000000000000000000000000000000000000000000000000000000000000073ffffffffffffffffffffffffffffffffffffffff16639dc29fac33846040518363ffffffff1660e01b8152600401610b5392919061190a565b600060405180830381600087803b158015610b6d57600080fd5b505af1158015610b81573d6000803e3d6000fd5b505050507f000000000000000000000000000000000000000000000000000000000000000073ffffffffffffffffffffffffffffffffffffffff166370a08231306040518263ffffffff1660e01b8152600401610bde91906118b8565b60206040518083038186803b158015610bf657600080fd5b505afa158015610c0a573d6000803e3d6000fd5b505050506040513d601f19601f82011682018060405250810190610c2e91906116ab565b821115610c70576040517f08c379a0000000000000000000000000000000000000000000000000000000008152600401610c679061198b565b60405180910390fd5b610cbb83837f000000000000000000000000000000000000000000000000000000000000000073ffffffffffffffffffffffffffffffffffffffff1661129d9092919063ffffffff16565b600160009054906101000a900473ffffffffffffffffffffffffffffffffffffffff1673ffffffffffffffffffffffffffffffffffffffff1663c2a672e084836040518363ffffffff1660e01b8152600401610d1892919061190a565b600060405180830381600087803b158015610d3257600080fd5b505af1158015610d46573d6000803e3d6000fd5b5050505081905092915050565b6000600160009054906101000a900473ffffffffffffffffffffffffffffffffffffffff16905090565b60035481565b610d8b611132565b73ffffffffffffffffffffffffffffffffffffffff16610da96106ce565b73ffffffffffffffffffffffffffffffffffffffff1614610dff576040517f08c379a0000000000000000000000000000000000000000000000000000000008152600401610df690611a2b565b60405180910390fd5b600073ffffffffffffffffffffffffffffffffffffffff168173ffffffffffffffffffffffffffffffffffffffff161415610e6f576040517f08c379a0000000000000000000000000000000000000000000000000000000008152600401610e66906119ab565b60405180910390fd5b610e788161113a565b50565b600080600260003373ffffffffffffffffffffffffffffffffffffffff1673ffffffffffffffffffffffffffffffffffffffff16815260200190815260200160002060405180606001604052908160008201548152602001600182015481526020016002820160009054906101000a900460ff1615151515815250509050600260003373ffffffffffffffffffffffffffffffffffffffff1673ffffffffffffffffffffffffffffffffffffffff16815260200190815260200160002060008082016000905560018201600090556002820160006101000a81549060ff02191690555050610f78816000015160045461108490919063ffffffff16565b600481905550610fcd3382600001517f000000000000000000000000000000000000000000000000000000000000000073ffffffffffffffffffffffffffffffffffffffff1661129d9092919063ffffffff16565b806000015191505090565b600260003373ffffffffffffffffffffffffffffffffffffffff1673ffffffffffffffffffffffffffffffffffffffff16815260200190815260200160002060020160009054906101000a900460ff1615600260003373ffffffffffffffffffffffffffffffffffffffff1673ffffffffffffffffffffffffffffffffffffffff16815260200190815260200160002060020160006101000a81548160ff021916908315150217905550565b600081836110929190611b65565b905092915050565b60007f000000000000000000000000000000000000000000000000000000000000000073ffffffffffffffffffffffffffffffffffffffff166340c10f1984846040518363ffffffff1660e01b81526004016110f792919061190a565b600060405180830381600087803b15801561111157600080fd5b505af1158015611125573d6000803e3d6000fd5b5050505081905092915050565b600033905090565b60008060009054906101000a900473ffffffffffffffffffffffffffffffffffffffff169050816000806101000a81548173ffffffffffffffffffffffffffffffffffffffff021916908373ffffffffffffffffffffffffffffffffffffffff1602179055508173ffffffffffffffffffffffffffffffffffffffff168173ffffffffffffffffffffffffffffffffffffffff167f8be0079c531659141344cd1fd0a4f28419497f9722a3daafe3b4186f6b6457e060405160405180910390a35050565b611281846323b872dd60e01b85858560405160240161121f939291906118d3565b604051602081830303815290604052907bffffffffffffffffffffffffffffffffffffffffffffffffffffffff19166020820180517bffffffffffffffffffffffffffffffffffffffffffffffffffffffff8381831617835250505050611323565b50505050565b600081836112959190611b0f565b905092915050565b61131e8363a9059cbb60e01b84846040516024016112bc92919061190a565b604051602081830303815290604052907bffffffffffffffffffffffffffffffffffffffffffffffffffffffff19166020820180517bffffffffffffffffffffffffffffffffffffffffffffffffffffffff8381831617835250505050611323565b505050565b6000611385826040518060400160405280602081526020017f5361666545524332303a206c6f772d6c6576656c2063616c6c206661696c65648152508573ffffffffffffffffffffffffffffffffffffffff166113ea9092919063ffffffff16565b90506000815111156113e557808060200190518101906113a59190611659565b6113e4576040517f08c379a00000000000000000000000000000000000000000000000000000000081526004016113db90611a6b565b60405180910390fd5b5b505050565b60606113f98484600085611402565b90509392505050565b606082471015611447576040517f08c379a000000000000000000000000000000000000000000000000000000000815260040161143e90611a0b565b60405180910390fd5b61145085611516565b61148f576040517f08c379a000000000000000000000000000000000000000000000000000000000815260040161148690611a4b565b60405180910390fd5b6000808673ffffffffffffffffffffffffffffffffffffffff1685876040516114b891906118a1565b60006040518083038185875af1925050503d80600081146114f5576040519150601f19603f3d011682016040523d82523d6000602084013e6114fa565b606091505b509150915061150a828286611539565b92505050949350505050565b6000808273ffffffffffffffffffffffffffffffffffffffff163b119050919050565b6060831561154957829050611599565b60008351111561155c5782518084602001fd5b816040517f08c379a00000000000000000000000000000000000000000000000000000000081526004016115909190611969565b60405180910390fd5b9392505050565b6000813590506115af81611ec8565b92915050565b6000815190506115c481611edf565b92915050565b6000813590506115d981611ef6565b92915050565b6000815190506115ee81611ef6565b92915050565b60006020828403121561160657600080fd5b6000611614848285016115a0565b91505092915050565b6000806040838503121561163057600080fd5b600061163e858286016115a0565b925050602061164f858286016115ca565b9150509250929050565b60006020828403121561166b57600080fd5b6000611679848285016115b5565b91505092915050565b60006020828403121561169457600080fd5b60006116a2848285016115ca565b91505092915050565b6000602082840312156116bd57600080fd5b60006116cb848285016115df565b91505092915050565b6116dd81611b99565b82525050565b6116ec81611bab565b82525050565b60006116fd82611add565b6117078185611af3565b9350611717818560208601611c29565b80840191505092915050565b61172c81611be1565b82525050565b61173b81611c05565b82525050565b600061174c82611ae8565b6117568185611afe565b9350611766818560208601611c29565b61176f81611c8b565b840191505092915050565b6000611787602583611afe565b915061179282611c9c565b604082019050919050565b60006117aa602683611afe565b91506117b582611ceb565b604082019050919050565b60006117cd602883611afe565b91506117d882611d3a565b604082019050919050565b60006117f0602683611afe565b91506117fb82611d89565b604082019050919050565b6000611813602683611afe565b915061181e82611dd8565b604082019050919050565b6000611836602083611afe565b915061184182611e27565b602082019050919050565b6000611859601d83611afe565b915061186482611e50565b602082019050919050565b600061187c602a83611afe565b915061188782611e79565b604082019050919050565b61189b81611bd7565b82525050565b60006118ad82846116f2565b915081905092915050565b60006020820190506118cd60008301846116d4565b92915050565b60006060820190506118e860008301866116d4565b6118f560208301856116d4565b6119026040830184611892565b949350505050565b600060408201905061191f60008301856116d4565b61192c6020830184611892565b9392505050565b60006020820190506119486000830184611723565b92915050565b60006020820190506119636000830184611732565b92915050565b600060208201905081810360008301526119838184611741565b905092915050565b600060208201905081810360008301526119a48161177a565b9050919050565b600060208201905081810360008301526119c48161179d565b9050919050565b600060208201905081810360008301526119e4816117c0565b9050919050565b60006020820190508181036000830152611a04816117e3565b9050919050565b60006020820190508181036000830152611a2481611806565b9050919050565b60006020820190508181036000830152611a4481611829565b9050919050565b60006020820190508181036000830152611a648161184c565b9050919050565b60006020820190508181036000830152611a848161186f565b9050919050565b6000602082019050611aa06000830184611892565b92915050565b6000606082019050611abb6000830186611892565b611ac86020830185611892565b611ad560408301846116e3565b949350505050565b600081519050919050565b600081519050919050565b600081905092915050565b600082825260208201905092915050565b6000611b1a82611bd7565b9150611b2583611bd7565b9250827fffffffffffffffffffffffffffffffffffffffffffffffffffffffffffffffff03821115611b5a57611b59611c5c565b5b828201905092915050565b6000611b7082611bd7565b9150611b7b83611bd7565b925082821015611b8e57611b8d611c5c565b5b828203905092915050565b6000611ba482611bb7565b9050919050565b60008115159050919050565b600073ffffffffffffffffffffffffffffffffffffffff82169050919050565b6000819050919050565b6000611bec82611bf3565b9050919050565b6000611bfe82611bb7565b9050919050565b6000611c1082611c17565b9050919050565b6000611c2282611bb7565b9050919050565b60005b83811015611c47578082015181840152602081019050611c2c565b83811115611c56576000848401525b50505050565b7f4e487b7100000000000000000000000000000000000000000000000000000000600052601160045260246000fd5b6000601f19601f8301169050919050565b7f496e73756666696369656e74204f52434c2062616c616e636520696e20636f6e60008201527f7472616374000000000000000000000000000000000000000000000000000000602082015250565b7f4f776e61626c653a206e6577206f776e657220697320746865207a65726f206160008201527f6464726573730000000000000000000000000000000000000000000000000000602082015250565b7f45787465726e616c206465706f7369747320666f72206163636f756e7420617260008201527f65206c6f636b6564000000000000000000000000000000000000000000000000602082015250565b7f45787465726e616c20636c61696d7320666f72206163636f756e74206172652060008201527f6c6f636b65640000000000000000000000000000000000000000000000000000602082015250565b7f416464726573733a20696e73756666696369656e742062616c616e636520666f60008201527f722063616c6c0000000000000000000000000000000000000000000000000000602082015250565b7f4f776e61626c653a2063616c6c6572206973206e6f7420746865206f776e6572600082015250565b7f416464726573733a2063616c6c20746f206e6f6e2d636f6e7472616374000000600082015250565b7f5361666545524332303a204552433230206f7065726174696f6e20646964206e60008201527f6f74207375636365656400000000000000000000000000000000000000000000602082015250565b611ed181611b99565b8114611edc57600080fd5b50565b611ee881611bab565b8114611ef357600080fd5b50565b611eff81611bd7565b8114611f0a57600080fd5b5056fea2646970667358221220c4482a167e71e3f5105ef77196fe432b5b4d4bb51a92002139711161d41f1d8564736f6c63430008040033",
  "linkReferences": {},
  "deployedLinkReferences": {}
}