{
  "_format": "hh-sol-artifact-1",
  "contractName": "StakedORFI",
  "sourceName": "contracts/coreContracts/StakedORFI.sol",
  "abi": [
    {
      "inputs": [],
      "stateMutability": "nonpayable",
      "type": "constructor"
    },
    {
      "anonymous": false,
      "inputs": [
        {
          "indexed": true,
          "internalType": "address",
          "name": "owner",
          "type": "address"
        },
        {
          "indexed": true,
          "internalType": "address",
          "name": "spender",
          "type": "address"
        },
        {
          "indexed": false,
          "internalType": "uint256",
          "name": "value",
          "type": "uint256"
        }
      ],
      "name": "Approval",
      "type": "event"
    },
    {
      "anonymous": false,
      "inputs": [
        {
          "indexed": false,
          "internalType": "address",
          "name": "stakingContract",
          "type": "address"
        }
      ],
      "name": "LogStakingContractUpdated",
      "type": "event"
    },
    {
      "anonymous": false,
      "inputs": [
        {
          "indexed": true,
          "internalType": "address",
          "name": "from",
          "type": "address"
        },
        {
          "indexed": true,
          "internalType": "address",
          "name": "to",
          "type": "address"
        },
        {
          "indexed": false,
          "internalType": "uint256",
          "name": "value",
          "type": "uint256"
        }
      ],
      "name": "Transfer",
      "type": "event"
    },
    {
      "inputs": [
        {
          "internalType": "address",
          "name": "owner",
          "type": "address"
        },
        {
          "internalType": "address",
          "name": "spender",
          "type": "address"
        }
      ],
      "name": "allowance",
      "outputs": [
        {
          "internalType": "uint256",
          "name": "",
          "type": "uint256"
        }
      ],
      "stateMutability": "view",
      "type": "function"
    },
    {
      "inputs": [
        {
          "internalType": "address",
          "name": "spender",
          "type": "address"
        },
        {
          "internalType": "uint256",
          "name": "amount",
          "type": "uint256"
        }
      ],
      "name": "approve",
      "outputs": [
        {
          "internalType": "bool",
          "name": "",
          "type": "bool"
        }
      ],
      "stateMutability": "nonpayable",
      "type": "function"
    },
    {
      "inputs": [
        {
          "internalType": "address",
          "name": "account",
          "type": "address"
        }
      ],
      "name": "balanceOf",
      "outputs": [
        {
          "internalType": "uint256",
          "name": "",
          "type": "uint256"
        }
      ],
      "stateMutability": "view",
      "type": "function"
    },
    {
      "inputs": [
        {
          "internalType": "address",
          "name": "to",
          "type": "address"
        },
        {
          "internalType": "uint256",
          "name": "amount",
          "type": "uint256"
        }
      ],
      "name": "burn",
      "outputs": [],
      "stateMutability": "nonpayable",
      "type": "function"
    },
    {
      "inputs": [],
      "name": "decimals",
      "outputs": [
        {
          "internalType": "uint8",
          "name": "",
          "type": "uint8"
        }
      ],
      "stateMutability": "view",
      "type": "function"
    },
    {
      "inputs": [
        {
          "internalType": "address",
          "name": "spender",
          "type": "address"
        },
        {
          "internalType": "uint256",
          "name": "subtractedValue",
          "type": "uint256"
        }
      ],
      "name": "decreaseAllowance",
      "outputs": [
        {
          "internalType": "bool",
          "name": "",
          "type": "bool"
        }
      ],
      "stateMutability": "nonpayable",
      "type": "function"
    },
    {
      "inputs": [
        {
          "internalType": "address",
          "name": "spender",
          "type": "address"
        },
        {
          "internalType": "uint256",
          "name": "addedValue",
          "type": "uint256"
        }
      ],
      "name": "increaseAllowance",
      "outputs": [
        {
          "internalType": "bool",
          "name": "",
          "type": "bool"
        }
      ],
      "stateMutability": "nonpayable",
      "type": "function"
    },
    {
      "inputs": [
        {
          "internalType": "address",
          "name": "stakingContract_",
          "type": "address"
        }
      ],
      "name": "initialize",
      "outputs": [
        {
          "internalType": "bool",
          "name": "",
          "type": "bool"
        }
      ],
      "stateMutability": "nonpayable",
      "type": "function"
    },
    {
      "inputs": [],
      "name": "initializer",
      "outputs": [
        {
          "internalType": "address",
          "name": "",
          "type": "address"
        }
      ],
      "stateMutability": "view",
      "type": "function"
    },
    {
      "inputs": [
        {
          "internalType": "address",
          "name": "to",
          "type": "address"
        },
        {
          "internalType": "uint256",
          "name": "amount",
          "type": "uint256"
        }
      ],
      "name": "mint",
      "outputs": [],
      "stateMutability": "nonpayable",
      "type": "function"
    },
    {
      "inputs": [],
      "name": "name",
      "outputs": [
        {
          "internalType": "string",
          "name": "",
          "type": "string"
        }
      ],
      "stateMutability": "view",
      "type": "function"
    },
    {
      "inputs": [],
      "name": "stakingContract",
      "outputs": [
        {
          "internalType": "address",
          "name": "",
          "type": "address"
        }
      ],
      "stateMutability": "view",
      "type": "function"
    },
    {
      "inputs": [],
      "name": "symbol",
      "outputs": [
        {
          "internalType": "string",
          "name": "",
          "type": "string"
        }
      ],
      "stateMutability": "view",
      "type": "function"
    },
    {
      "inputs": [],
      "name": "totalSupply",
      "outputs": [
        {
          "internalType": "uint256",
          "name": "",
          "type": "uint256"
        }
      ],
      "stateMutability": "view",
      "type": "function"
    },
    {
      "inputs": [
        {
          "internalType": "address",
          "name": "to",
          "type": "address"
        },
        {
          "internalType": "uint256",
          "name": "amount",
          "type": "uint256"
        }
      ],
      "name": "transfer",
      "outputs": [
        {
          "internalType": "bool",
          "name": "",
          "type": "bool"
        }
      ],
      "stateMutability": "nonpayable",
      "type": "function"
    },
    {
      "inputs": [
        {
          "internalType": "address",
          "name": "from",
          "type": "address"
        },
        {
          "internalType": "address",
          "name": "to",
          "type": "address"
        },
        {
          "internalType": "uint256",
          "name": "amount",
          "type": "uint256"
        }
      ],
      "name": "transferFrom",
      "outputs": [
        {
          "internalType": "bool",
          "name": "",
          "type": "bool"
        }
      ],
      "stateMutability": "nonpayable",
      "type": "function"
    }
  ],
  "bytecode": "0x60806040523480156200001157600080fd5b50604080518082018252600d81526c5374616b6564204f7261636c6560981b602080830191825283518085019094526005845264734f52464960d81b908401528151919291620000649160039162000095565b5080516200007a90600490602084019062000095565b5050600680546001600160a01b031916331790555062000178565b828054620000a3906200013b565b90600052602060002090601f016020900481019282620000c7576000855562000112565b82601f10620000e257805160ff191683800117855562000112565b8280016001018555821562000112579182015b8281111562000112578251825591602001919060010190620000f5565b506200012092915062000124565b5090565b5b8082111562000120576000815560010162000125565b600181811c908216806200015057607f821691505b602082108114156200017257634e487b7160e01b600052602260045260246000fd5b50919050565b610db880620001886000396000f3fe608060405234801561001057600080fd5b50600436106101005760003560e01c806395d89b4111610097578063a9059cbb11610066578063a9059cbb14610224578063c4d66de814610237578063dd62ed3e1461024a578063ee99205c1461028357600080fd5b806395d89b41146101cb5780639ce110d7146101d35780639dc29fac146101fe578063a457c2d71461021157600080fd5b8063313ce567116100d3578063313ce5671461016b578063395093511461017a57806340c10f191461018d57806370a08231146101a257600080fd5b806306fdde0314610105578063095ea7b31461012357806318160ddd1461014657806323b872dd14610158575b600080fd5b61010d610296565b60405161011a9190610c7f565b60405180910390f35b610136610131366004610c56565b610328565b604051901515815260200161011a565b6002545b60405190815260200161011a565b610136610166366004610c1b565b610340565b6040516012815260200161011a565b610136610188366004610c56565b610398565b6101a061019b366004610c56565b6103d7565b005b61014a6101b0366004610bc8565b6001600160a01b031660009081526020819052604090205490565b61010d61040f565b6006546101e6906001600160a01b031681565b6040516001600160a01b03909116815260200161011a565b6101a061020c366004610c56565b61041e565b61013661021f366004610c56565b610452565b610136610232366004610c56565b6104e4565b610136610245366004610bc8565b61051d565b61014a610258366004610be9565b6001600160a01b03918216600090815260016020908152604080832093909416825291909152205490565b6005546101e6906001600160a01b031681565b6060600380546102a590610d31565b80601f01602080910402602001604051908101604052809291908181526020018280546102d190610d31565b801561031e5780601f106102f35761010080835404028352916020019161031e565b820191906000526020600020905b81548152906001019060200180831161030157829003601f168201915b5050505050905090565b600033610336818585610602565b5060019392505050565b6005546000906001600160a01b031633146103765760405162461bcd60e51b815260040161036d90610cd2565b60405180910390fd5b33610382858285610727565b61038d8585856107b9565b506001949350505050565b3360008181526001602090815260408083206001600160a01b038716845290915281205490919061033690829086906103d2908790610d02565b610602565b6005546001600160a01b031633146104015760405162461bcd60e51b815260040161036d90610cd2565b61040b8282610987565b5050565b6060600480546102a590610d31565b6005546001600160a01b031633146104485760405162461bcd60e51b815260040161036d90610cd2565b61040b8282610a66565b3360008181526001602090815260408083206001600160a01b0387168452909152812054909190838110156104d75760405162461bcd60e51b815260206004820152602560248201527f45524332303a2064656372656173656420616c6c6f77616e63652062656c6f77604482015264207a65726f60d81b606482015260840161036d565b61038d8286868403610602565b6005546000906001600160a01b031633146105115760405162461bcd60e51b815260040161036d90610cd2565b336103368185856107b9565b6006546000906001600160a01b0316331461055f5760405162461bcd60e51b81526020600482015260026024820152614e4160f01b604482015260640161036d565b6001600160a01b03821661059a5760405162461bcd60e51b8152602060048201526002602482015261494160f01b604482015260640161036d565b600580546001600160a01b0319166001600160a01b0384169081179091556040519081527f817c653428858ed536dc085c5d8273734c517b55de44b55f5c5877a75e3373a19060200160405180910390a15050600680546001600160a01b0319169055600190565b6001600160a01b0383166106645760405162461bcd60e51b8152602060048201526024808201527f45524332303a20617070726f76652066726f6d20746865207a65726f206164646044820152637265737360e01b606482015260840161036d565b6001600160a01b0382166106c55760405162461bcd60e51b815260206004820152602260248201527f45524332303a20617070726f766520746f20746865207a65726f206164647265604482015261737360f01b606482015260840161036d565b6001600160a01b0383811660008181526001602090815260408083209487168084529482529182902085905590518481527f8c5be1e5ebec7d5bd14f71427d1e84f3dd0314c0f7b2291e5b200ac8c7c3b92591015b60405180910390a3505050565b6001600160a01b0383811660009081526001602090815260408083209386168352929052205460001981146107b357818110156107a65760405162461bcd60e51b815260206004820152601d60248201527f45524332303a20696e73756666696369656e7420616c6c6f77616e6365000000604482015260640161036d565b6107b38484848403610602565b50505050565b6001600160a01b03831661081d5760405162461bcd60e51b815260206004820152602560248201527f45524332303a207472616e736665722066726f6d20746865207a65726f206164604482015264647265737360d81b606482015260840161036d565b6001600160a01b03821661087f5760405162461bcd60e51b815260206004820152602360248201527f45524332303a207472616e7366657220746f20746865207a65726f206164647260448201526265737360e81b606482015260840161036d565b6001600160a01b038316600090815260208190526040902054818110156108f75760405162461bcd60e51b815260206004820152602660248201527f45524332303a207472616e7366657220616d6f756e7420657863656564732062604482015265616c616e636560d01b606482015260840161036d565b6001600160a01b0380851660009081526020819052604080822085850390559185168152908120805484929061092e908490610d02565b92505081905550826001600160a01b0316846001600160a01b03167fddf252ad1be2c89b69c2b068fc378daa952ba7f163c4a11628f55a4df523b3ef8460405161097a91815260200190565b60405180910390a36107b3565b6001600160a01b0382166109dd5760405162461bcd60e51b815260206004820152601f60248201527f45524332303a206d696e7420746f20746865207a65726f206164647265737300604482015260640161036d565b80600260008282546109ef9190610d02565b90915550506001600160a01b03821660009081526020819052604081208054839290610a1c908490610d02565b90915550506040518181526001600160a01b038316906000907fddf252ad1be2c89b69c2b068fc378daa952ba7f163c4a11628f55a4df523b3ef9060200160405180910390a35050565b6001600160a01b038216610ac65760405162461bcd60e51b815260206004820152602160248201527f45524332303a206275726e2066726f6d20746865207a65726f206164647265736044820152607360f81b606482015260840161036d565b6001600160a01b03821660009081526020819052604090205481811015610b3a5760405162461bcd60e51b815260206004820152602260248201527f45524332303a206275726e20616d6f756e7420657863656564732062616c616e604482015261636560f01b606482015260840161036d565b6001600160a01b0383166000908152602081905260408120838303905560028054849290610b69908490610d1a565b90915550506040518281526000906001600160a01b038516907fddf252ad1be2c89b69c2b068fc378daa952ba7f163c4a11628f55a4df523b3ef9060200161071a565b80356001600160a01b0381168114610bc357600080fd5b919050565b600060208284031215610bd9578081fd5b610be282610bac565b9392505050565b60008060408385031215610bfb578081fd5b610c0483610bac565b9150610c1260208401610bac565b90509250929050565b600080600060608486031215610c2f578081fd5b610c3884610bac565b9250610c4660208501610bac565b9150604084013590509250925092565b60008060408385031215610c68578182fd5b610c7183610bac565b946020939093013593505050565b6000602080835283518082850152825b81811015610cab57858101830151858201604001528201610c8f565b81811115610cbc5783604083870101525b50601f01601f1916929092016040019392505050565b602080825260169082015275139bdd0818481cdd185ada5b99c818dbdb9d1c9858dd60521b604082015260600190565b60008219821115610d1557610d15610d6c565b500190565b600082821015610d2c57610d2c610d6c565b500390565b600181811c90821680610d4557607f821691505b60208210811415610d6657634e487b7160e01b600052602260045260246000fd5b50919050565b634e487b7160e01b600052601160045260246000fdfea2646970667358221220e91a0e346d9543a90b83de5fa6b9e04bafcdba697d661ee832186882d937401964736f6c63430008040033",
  "linkReferences": {},
  "deployedLinkReferences": {}
}