{
  "_format": "hh-sol-artifact-1",
  "contractName": "StakedORFI",
  "sourceName": "contracts/StakedORFI.sol",
  "abi": [
    {
      "inputs": [],
      "stateMutability": "nonpayable",
      "type": "constructor"
    },
    {
      "anonymous": false,
      "inputs": [
        {
          "indexed": true,
          "internalType": "address",
          "name": "owner",
          "type": "address"
        },
        {
          "indexed": true,
          "internalType": "address",
          "name": "spender",
          "type": "address"
        },
        {
          "indexed": false,
          "internalType": "uint256",
          "name": "value",
          "type": "uint256"
        }
      ],
      "name": "Approval",
      "type": "event"
    },
    {
      "anonymous": false,
      "inputs": [
        {
          "indexed": false,
          "internalType": "address",
          "name": "stakingContract",
          "type": "address"
        }
      ],
      "name": "LogStakingContractUpdated",
      "type": "event"
    },
    {
      "anonymous": false,
      "inputs": [
        {
          "indexed": true,
          "internalType": "address",
          "name": "from",
          "type": "address"
        },
        {
          "indexed": true,
          "internalType": "address",
          "name": "to",
          "type": "address"
        },
        {
          "indexed": false,
          "internalType": "uint256",
          "name": "value",
          "type": "uint256"
        }
      ],
      "name": "Transfer",
      "type": "event"
    },
    {
      "inputs": [
        {
          "internalType": "address",
          "name": "owner",
          "type": "address"
        },
        {
          "internalType": "address",
          "name": "spender",
          "type": "address"
        }
      ],
      "name": "allowance",
      "outputs": [
        {
          "internalType": "uint256",
          "name": "",
          "type": "uint256"
        }
      ],
      "stateMutability": "view",
      "type": "function"
    },
    {
      "inputs": [
        {
          "internalType": "address",
          "name": "spender",
          "type": "address"
        },
        {
          "internalType": "uint256",
          "name": "amount",
          "type": "uint256"
        }
      ],
      "name": "approve",
      "outputs": [
        {
          "internalType": "bool",
          "name": "",
          "type": "bool"
        }
      ],
      "stateMutability": "nonpayable",
      "type": "function"
    },
    {
      "inputs": [
        {
          "internalType": "address",
          "name": "account",
          "type": "address"
        }
      ],
      "name": "balanceOf",
      "outputs": [
        {
          "internalType": "uint256",
          "name": "",
          "type": "uint256"
        }
      ],
      "stateMutability": "view",
      "type": "function"
    },
    {
      "inputs": [
        {
          "internalType": "address",
          "name": "to",
          "type": "address"
        },
        {
          "internalType": "uint256",
          "name": "amount",
          "type": "uint256"
        }
      ],
      "name": "burn",
      "outputs": [],
      "stateMutability": "nonpayable",
      "type": "function"
    },
    {
      "inputs": [],
      "name": "decimals",
      "outputs": [
        {
          "internalType": "uint8",
          "name": "",
          "type": "uint8"
        }
      ],
      "stateMutability": "view",
      "type": "function"
    },
    {
      "inputs": [
        {
          "internalType": "address",
          "name": "spender",
          "type": "address"
        },
        {
          "internalType": "uint256",
          "name": "subtractedValue",
          "type": "uint256"
        }
      ],
      "name": "decreaseAllowance",
      "outputs": [
        {
          "internalType": "bool",
          "name": "",
          "type": "bool"
        }
      ],
      "stateMutability": "nonpayable",
      "type": "function"
    },
    {
      "inputs": [
        {
          "internalType": "address",
          "name": "spender",
          "type": "address"
        },
        {
          "internalType": "uint256",
          "name": "addedValue",
          "type": "uint256"
        }
      ],
      "name": "increaseAllowance",
      "outputs": [
        {
          "internalType": "bool",
          "name": "",
          "type": "bool"
        }
      ],
      "stateMutability": "nonpayable",
      "type": "function"
    },
    {
      "inputs": [
        {
          "internalType": "address",
          "name": "stakingContract_",
          "type": "address"
        }
      ],
      "name": "initialize",
      "outputs": [
        {
          "internalType": "bool",
          "name": "",
          "type": "bool"
        }
      ],
      "stateMutability": "nonpayable",
      "type": "function"
    },
    {
      "inputs": [],
      "name": "initializer",
      "outputs": [
        {
          "internalType": "address",
          "name": "",
          "type": "address"
        }
      ],
      "stateMutability": "view",
      "type": "function"
    },
    {
      "inputs": [
        {
          "internalType": "address",
          "name": "to",
          "type": "address"
        },
        {
          "internalType": "uint256",
          "name": "amount",
          "type": "uint256"
        }
      ],
      "name": "mint",
      "outputs": [],
      "stateMutability": "nonpayable",
      "type": "function"
    },
    {
      "inputs": [],
      "name": "name",
      "outputs": [
        {
          "internalType": "string",
          "name": "",
          "type": "string"
        }
      ],
      "stateMutability": "view",
      "type": "function"
    },
    {
      "inputs": [],
      "name": "stakingContract",
      "outputs": [
        {
          "internalType": "address",
          "name": "",
          "type": "address"
        }
      ],
      "stateMutability": "view",
      "type": "function"
    },
    {
      "inputs": [],
      "name": "symbol",
      "outputs": [
        {
          "internalType": "string",
          "name": "",
          "type": "string"
        }
      ],
      "stateMutability": "view",
      "type": "function"
    },
    {
      "inputs": [],
      "name": "totalSupply",
      "outputs": [
        {
          "internalType": "uint256",
          "name": "",
          "type": "uint256"
        }
      ],
      "stateMutability": "view",
      "type": "function"
    },
    {
      "inputs": [
        {
          "internalType": "address",
          "name": "to",
          "type": "address"
        },
        {
          "internalType": "uint256",
          "name": "amount",
          "type": "uint256"
        }
      ],
      "name": "transfer",
      "outputs": [
        {
          "internalType": "bool",
          "name": "",
          "type": "bool"
        }
      ],
      "stateMutability": "nonpayable",
      "type": "function"
    },
    {
      "inputs": [
        {
          "internalType": "address",
          "name": "from",
          "type": "address"
        },
        {
          "internalType": "address",
          "name": "to",
          "type": "address"
        },
        {
          "internalType": "uint256",
          "name": "amount",
          "type": "uint256"
        }
      ],
      "name": "transferFrom",
      "outputs": [
        {
          "internalType": "bool",
          "name": "",
          "type": "bool"
        }
      ],
      "stateMutability": "nonpayable",
      "type": "function"
    }
  ],
  "bytecode": "0x60806040523480156200001157600080fd5b506040518060400160405280600d81526020017f5374616b6564204f7261636c65000000000000000000000000000000000000008152506040518060400160405280600581526020017f734f524649000000000000000000000000000000000000000000000000000000815250816003908051906020019062000096929190620000f9565b508060049080519060200190620000af929190620000f9565b50505033600660006101000a81548173ffffffffffffffffffffffffffffffffffffffff021916908373ffffffffffffffffffffffffffffffffffffffff1602179055506200020e565b8280546200010790620001a9565b90600052602060002090601f0160209004810192826200012b576000855562000177565b82601f106200014657805160ff191683800117855562000177565b8280016001018555821562000177579182015b828111156200017657825182559160200191906001019062000159565b5b5090506200018691906200018a565b5090565b5b80821115620001a55760008160009055506001016200018b565b5090565b60006002820490506001821680620001c257607f821691505b60208210811415620001d957620001d8620001df565b5b50919050565b7f4e487b7100000000000000000000000000000000000000000000000000000000600052602260045260246000fd5b611f0c806200021e6000396000f3fe608060405234801561001057600080fd5b50600436106101005760003560e01c806395d89b4111610097578063a9059cbb11610066578063a9059cbb146102c3578063c4d66de8146102f3578063dd62ed3e14610323578063ee99205c1461035357610100565b806395d89b411461023b5780639ce110d7146102595780639dc29fac14610277578063a457c2d71461029357610100565b8063313ce567116100d3578063313ce567146101a157806339509351146101bf57806340c10f19146101ef57806370a082311461020b57610100565b806306fdde0314610105578063095ea7b31461012357806318160ddd1461015357806323b872dd14610171575b600080fd5b61010d610371565b60405161011a919061179c565b60405180910390f35b61013d600480360381019061013891906114ee565b610403565b60405161014a9190611781565b60405180910390f35b61015b610426565b604051610168919061195e565b60405180910390f35b61018b6004803603810190610186919061149f565b610430565b6040516101989190611781565b60405180910390f35b6101a96104f0565b6040516101b69190611979565b60405180910390f35b6101d960048036038101906101d491906114ee565b6104f9565b6040516101e69190611781565b60405180910390f35b610209600480360381019061020491906114ee565b6105a3565b005b6102256004803603810190610220919061143a565b610641565b604051610232919061195e565b60405180910390f35b610243610689565b604051610250919061179c565b60405180910390f35b61026161071b565b60405161026e9190611766565b60405180910390f35b610291600480360381019061028c91906114ee565b610741565b005b6102ad60048036038101906102a891906114ee565b6107df565b6040516102ba9190611781565b60405180910390f35b6102dd60048036038101906102d891906114ee565b6108c9565b6040516102ea9190611781565b60405180910390f35b61030d6004803603810190610308919061143a565b61097d565b60405161031a9190611781565b60405180910390f35b61033d60048036038101906103389190611463565b610b42565b60405161034a919061195e565b60405180910390f35b61035b610bc9565b6040516103689190611766565b60405180910390f35b60606003805461038090611ac2565b80601f01602080910402602001604051908101604052809291908181526020018280546103ac90611ac2565b80156103f95780601f106103ce576101008083540402835291602001916103f9565b820191906000526020600020905b8154815290600101906020018083116103dc57829003601f168201915b5050505050905090565b60008061040e610bef565b905061041b818585610bf7565b600191505092915050565b6000600254905090565b6000600560009054906101000a900473ffffffffffffffffffffffffffffffffffffffff1673ffffffffffffffffffffffffffffffffffffffff163373ffffffffffffffffffffffffffffffffffffffff16146104c2576040517f08c379a00000000000000000000000000000000000000000000000000000000081526004016104b99061185e565b60405180910390fd5b60006104cc610bef565b90506104d9858285610dc2565b6104e4858585610e4e565b60019150509392505050565b60006012905090565b600080610504610bef565b9050610598818585600160008673ffffffffffffffffffffffffffffffffffffffff1673ffffffffffffffffffffffffffffffffffffffff16815260200190815260200160002060008973ffffffffffffffffffffffffffffffffffffffff1673ffffffffffffffffffffffffffffffffffffffff1681526020019081526020016000205461059391906119b0565b610bf7565b600191505092915050565b600560009054906101000a900473ffffffffffffffffffffffffffffffffffffffff1673ffffffffffffffffffffffffffffffffffffffff163373ffffffffffffffffffffffffffffffffffffffff1614610633576040517f08c379a000000000000000000000000000000000000000000000000000000000815260040161062a9061185e565b60405180910390fd5b61063d82826110cf565b5050565b60008060008373ffffffffffffffffffffffffffffffffffffffff1673ffffffffffffffffffffffffffffffffffffffff168152602001908152602001600020549050919050565b60606004805461069890611ac2565b80601f01602080910402602001604051908101604052809291908181526020018280546106c490611ac2565b80156107115780601f106106e657610100808354040283529160200191610711565b820191906000526020600020905b8154815290600101906020018083116106f457829003601f168201915b5050505050905090565b600660009054906101000a900473ffffffffffffffffffffffffffffffffffffffff1681565b600560009054906101000a900473ffffffffffffffffffffffffffffffffffffffff1673ffffffffffffffffffffffffffffffffffffffff163373ffffffffffffffffffffffffffffffffffffffff16146107d1576040517f08c379a00000000000000000000000000000000000000000000000000000000081526004016107c89061185e565b60405180910390fd5b6107db828261122f565b5050565b6000806107ea610bef565b90506000600160008373ffffffffffffffffffffffffffffffffffffffff1673ffffffffffffffffffffffffffffffffffffffff16815260200190815260200160002060008673ffffffffffffffffffffffffffffffffffffffff1673ffffffffffffffffffffffffffffffffffffffff168152602001908152602001600020549050838110156108b0576040517f08c379a00000000000000000000000000000000000000000000000000000000081526004016108a79061191e565b60405180910390fd5b6108bd8286868403610bf7565b60019250505092915050565b6000600560009054906101000a900473ffffffffffffffffffffffffffffffffffffffff1673ffffffffffffffffffffffffffffffffffffffff163373ffffffffffffffffffffffffffffffffffffffff161461095b576040517f08c379a00000000000000000000000000000000000000000000000000000000081526004016109529061185e565b60405180910390fd5b6000610965610bef565b9050610972818585610e4e565b600191505092915050565b6000600660009054906101000a900473ffffffffffffffffffffffffffffffffffffffff1673ffffffffffffffffffffffffffffffffffffffff163373ffffffffffffffffffffffffffffffffffffffff1614610a0f576040517f08c379a0000000000000000000000000000000000000000000000000000000008152600401610a06906118de565b60405180910390fd5b600073ffffffffffffffffffffffffffffffffffffffff168273ffffffffffffffffffffffffffffffffffffffff161415610a7f576040517f08c379a0000000000000000000000000000000000000000000000000000000008152600401610a769061187e565b60405180910390fd5b81600560006101000a81548173ffffffffffffffffffffffffffffffffffffffff021916908373ffffffffffffffffffffffffffffffffffffffff1602179055507f817c653428858ed536dc085c5d8273734c517b55de44b55f5c5877a75e3373a182604051610aef9190611766565b60405180910390a16000600660006101000a81548173ffffffffffffffffffffffffffffffffffffffff021916908373ffffffffffffffffffffffffffffffffffffffff16021790555060019050919050565b6000600160008473ffffffffffffffffffffffffffffffffffffffff1673ffffffffffffffffffffffffffffffffffffffff16815260200190815260200160002060008373ffffffffffffffffffffffffffffffffffffffff1673ffffffffffffffffffffffffffffffffffffffff16815260200190815260200160002054905092915050565b600560009054906101000a900473ffffffffffffffffffffffffffffffffffffffff1681565b600033905090565b600073ffffffffffffffffffffffffffffffffffffffff168373ffffffffffffffffffffffffffffffffffffffff161415610c67576040517f08c379a0000000000000000000000000000000000000000000000000000000008152600401610c5e906118fe565b60405180910390fd5b600073ffffffffffffffffffffffffffffffffffffffff168273ffffffffffffffffffffffffffffffffffffffff161415610cd7576040517f08c379a0000000000000000000000000000000000000000000000000000000008152600401610cce906117fe565b60405180910390fd5b80600160008573ffffffffffffffffffffffffffffffffffffffff1673ffffffffffffffffffffffffffffffffffffffff16815260200190815260200160002060008473ffffffffffffffffffffffffffffffffffffffff1673ffffffffffffffffffffffffffffffffffffffff168152602001908152602001600020819055508173ffffffffffffffffffffffffffffffffffffffff168373ffffffffffffffffffffffffffffffffffffffff167f8c5be1e5ebec7d5bd14f71427d1e84f3dd0314c0f7b2291e5b200ac8c7c3b92583604051610db5919061195e565b60405180910390a3505050565b6000610dce8484610b42565b90507fffffffffffffffffffffffffffffffffffffffffffffffffffffffffffffffff8114610e485781811015610e3a576040517f08c379a0000000000000000000000000000000000000000000000000000000008152600401610e319061181e565b60405180910390fd5b610e478484848403610bf7565b5b50505050565b600073ffffffffffffffffffffffffffffffffffffffff168373ffffffffffffffffffffffffffffffffffffffff161415610ebe576040517f08c379a0000000000000000000000000000000000000000000000000000000008152600401610eb5906118be565b60405180910390fd5b600073ffffffffffffffffffffffffffffffffffffffff168273ffffffffffffffffffffffffffffffffffffffff161415610f2e576040517f08c379a0000000000000000000000000000000000000000000000000000000008152600401610f25906117be565b60405180910390fd5b610f39838383611406565b60008060008573ffffffffffffffffffffffffffffffffffffffff1673ffffffffffffffffffffffffffffffffffffffff16815260200190815260200160002054905081811015610fbf576040517f08c379a0000000000000000000000000000000000000000000000000000000008152600401610fb69061183e565b60405180910390fd5b8181036000808673ffffffffffffffffffffffffffffffffffffffff1673ffffffffffffffffffffffffffffffffffffffff16815260200190815260200160002081905550816000808573ffffffffffffffffffffffffffffffffffffffff1673ffffffffffffffffffffffffffffffffffffffff168152602001908152602001600020600082825461105291906119b0565b925050819055508273ffffffffffffffffffffffffffffffffffffffff168473ffffffffffffffffffffffffffffffffffffffff167fddf252ad1be2c89b69c2b068fc378daa952ba7f163c4a11628f55a4df523b3ef846040516110b6919061195e565b60405180910390a36110c984848461140b565b50505050565b600073ffffffffffffffffffffffffffffffffffffffff168273ffffffffffffffffffffffffffffffffffffffff16141561113f576040517f08c379a00000000000000000000000000000000000000000000000000000000081526004016111369061193e565b60405180910390fd5b61114b60008383611406565b806002600082825461115d91906119b0565b92505081905550806000808473ffffffffffffffffffffffffffffffffffffffff1673ffffffffffffffffffffffffffffffffffffffff16815260200190815260200160002060008282546111b291906119b0565b925050819055508173ffffffffffffffffffffffffffffffffffffffff16600073ffffffffffffffffffffffffffffffffffffffff167fddf252ad1be2c89b69c2b068fc378daa952ba7f163c4a11628f55a4df523b3ef83604051611217919061195e565b60405180910390a361122b6000838361140b565b5050565b600073ffffffffffffffffffffffffffffffffffffffff168273ffffffffffffffffffffffffffffffffffffffff16141561129f576040517f08c379a00000000000000000000000000000000000000000000000000000000081526004016112969061189e565b60405180910390fd5b6112ab82600083611406565b60008060008473ffffffffffffffffffffffffffffffffffffffff1673ffffffffffffffffffffffffffffffffffffffff16815260200190815260200160002054905081811015611331576040517f08c379a0000000000000000000000000000000000000000000000000000000008152600401611328906117de565b60405180910390fd5b8181036000808573ffffffffffffffffffffffffffffffffffffffff1673ffffffffffffffffffffffffffffffffffffffff1681526020019081526020016000208190555081600260008282546113889190611a06565b92505081905550600073ffffffffffffffffffffffffffffffffffffffff168373ffffffffffffffffffffffffffffffffffffffff167fddf252ad1be2c89b69c2b068fc378daa952ba7f163c4a11628f55a4df523b3ef846040516113ed919061195e565b60405180910390a36114018360008461140b565b505050565b505050565b505050565b60008135905061141f81611ea8565b92915050565b60008135905061143481611ebf565b92915050565b60006020828403121561144c57600080fd5b600061145a84828501611410565b91505092915050565b6000806040838503121561147657600080fd5b600061148485828601611410565b925050602061149585828601611410565b9150509250929050565b6000806000606084860312156114b457600080fd5b60006114c286828701611410565b93505060206114d386828701611410565b92505060406114e486828701611425565b9150509250925092565b6000806040838503121561150157600080fd5b600061150f85828601611410565b925050602061152085828601611425565b9150509250929050565b61153381611a3a565b82525050565b61154281611a4c565b82525050565b600061155382611994565b61155d818561199f565b935061156d818560208601611a8f565b61157681611b52565b840191505092915050565b600061158e60238361199f565b915061159982611b63565b604082019050919050565b60006115b160228361199f565b91506115bc82611bb2565b604082019050919050565b60006115d460228361199f565b91506115df82611c01565b604082019050919050565b60006115f7601d8361199f565b915061160282611c50565b602082019050919050565b600061161a60268361199f565b915061162582611c79565b604082019050919050565b600061163d60038361199f565b915061164882611cc8565b602082019050919050565b600061166060028361199f565b915061166b82611cf1565b602082019050919050565b600061168360218361199f565b915061168e82611d1a565b604082019050919050565b60006116a660258361199f565b91506116b182611d69565b604082019050919050565b60006116c960028361199f565b91506116d482611db8565b602082019050919050565b60006116ec60248361199f565b91506116f782611de1565b604082019050919050565b600061170f60258361199f565b915061171a82611e30565b604082019050919050565b6000611732601f8361199f565b915061173d82611e7f565b602082019050919050565b61175181611a78565b82525050565b61176081611a82565b82525050565b600060208201905061177b600083018461152a565b92915050565b60006020820190506117966000830184611539565b92915050565b600060208201905081810360008301526117b68184611548565b905092915050565b600060208201905081810360008301526117d781611581565b9050919050565b600060208201905081810360008301526117f7816115a4565b9050919050565b60006020820190508181036000830152611817816115c7565b9050919050565b60006020820190508181036000830152611837816115ea565b9050919050565b600060208201905081810360008301526118578161160d565b9050919050565b6000602082019050818103600083015261187781611630565b9050919050565b6000602082019050818103600083015261189781611653565b9050919050565b600060208201905081810360008301526118b781611676565b9050919050565b600060208201905081810360008301526118d781611699565b9050919050565b600060208201905081810360008301526118f7816116bc565b9050919050565b60006020820190508181036000830152611917816116df565b9050919050565b6000602082019050818103600083015261193781611702565b9050919050565b6000602082019050818103600083015261195781611725565b9050919050565b60006020820190506119736000830184611748565b92915050565b600060208201905061198e6000830184611757565b92915050565b600081519050919050565b600082825260208201905092915050565b60006119bb82611a78565b91506119c683611a78565b9250827fffffffffffffffffffffffffffffffffffffffffffffffffffffffffffffffff038211156119fb576119fa611af4565b5b828201905092915050565b6000611a1182611a78565b9150611a1c83611a78565b925082821015611a2f57611a2e611af4565b5b828203905092915050565b6000611a4582611a58565b9050919050565b60008115159050919050565b600073ffffffffffffffffffffffffffffffffffffffff82169050919050565b6000819050919050565b600060ff82169050919050565b60005b83811015611aad578082015181840152602081019050611a92565b83811115611abc576000848401525b50505050565b60006002820490506001821680611ada57607f821691505b60208210811415611aee57611aed611b23565b5b50919050565b7f4e487b7100000000000000000000000000000000000000000000000000000000600052601160045260246000fd5b7f4e487b7100000000000000000000000000000000000000000000000000000000600052602260045260246000fd5b6000601f19601f8301169050919050565b7f45524332303a207472616e7366657220746f20746865207a65726f206164647260008201527f6573730000000000000000000000000000000000000000000000000000000000602082015250565b7f45524332303a206275726e20616d6f756e7420657863656564732062616c616e60008201527f6365000000000000000000000000000000000000000000000000000000000000602082015250565b7f45524332303a20617070726f766520746f20746865207a65726f20616464726560008201527f7373000000000000000000000000000000000000000000000000000000000000602082015250565b7f45524332303a20696e73756666696369656e7420616c6c6f77616e6365000000600082015250565b7f45524332303a207472616e7366657220616d6f756e742065786365656473206260008201527f616c616e63650000000000000000000000000000000000000000000000000000602082015250565b7f4f53430000000000000000000000000000000000000000000000000000000000600082015250565b7f4941000000000000000000000000000000000000000000000000000000000000600082015250565b7f45524332303a206275726e2066726f6d20746865207a65726f2061646472657360008201527f7300000000000000000000000000000000000000000000000000000000000000602082015250565b7f45524332303a207472616e736665722066726f6d20746865207a65726f20616460008201527f6472657373000000000000000000000000000000000000000000000000000000602082015250565b7f4e41000000000000000000000000000000000000000000000000000000000000600082015250565b7f45524332303a20617070726f76652066726f6d20746865207a65726f2061646460008201527f7265737300000000000000000000000000000000000000000000000000000000602082015250565b7f45524332303a2064656372656173656420616c6c6f77616e63652062656c6f7760008201527f207a65726f000000000000000000000000000000000000000000000000000000602082015250565b7f45524332303a206d696e7420746f20746865207a65726f206164647265737300600082015250565b611eb181611a3a565b8114611ebc57600080fd5b50565b611ec881611a78565b8114611ed357600080fd5b5056fea26469706673582212208e3ffbb773a28bbf465aca19237f95f8762154f7de14f73a8717e2f20af00a0264736f6c63430008040033",
  "linkReferences": {},
  "deployedLinkReferences": {}
}