{
  "_format": "hh-sol-artifact-1",
  "contractName": "Staking",
  "sourceName": "contracts/coreContracts/Staking.sol",
  "abi": [
    {
      "inputs": [
        {
          "internalType": "address",
          "name": "_orfi",
          "type": "address"
        },
        {
          "internalType": "address",
          "name": "_sorfi",
          "type": "address"
        }
      ],
      "stateMutability": "nonpayable",
      "type": "constructor"
    },
    {
      "anonymous": false,
      "inputs": [
        {
          "indexed": true,
          "internalType": "address",
          "name": "previousOwner",
          "type": "address"
        },
        {
          "indexed": true,
          "internalType": "address",
          "name": "newOwner",
          "type": "address"
        }
      ],
      "name": "OwnershipTransferred",
      "type": "event"
    },
    {
      "anonymous": false,
      "inputs": [
        {
          "indexed": false,
          "internalType": "uint256",
          "name": "warmup",
          "type": "uint256"
        }
      ],
      "name": "WarmupSet",
      "type": "event"
    },
    {
      "inputs": [],
      "name": "ORFI",
      "outputs": [
        {
          "internalType": "contract IERC20",
          "name": "",
          "type": "address"
        }
      ],
      "stateMutability": "view",
      "type": "function"
    },
    {
      "inputs": [
        {
          "internalType": "address",
          "name": "_to",
          "type": "address"
        }
      ],
      "name": "claim",
      "outputs": [
        {
          "internalType": "uint256",
          "name": "",
          "type": "uint256"
        }
      ],
      "stateMutability": "nonpayable",
      "type": "function"
    },
    {
      "inputs": [],
      "name": "contractORFIBalance",
      "outputs": [
        {
          "internalType": "uint256",
          "name": "",
          "type": "uint256"
        }
      ],
      "stateMutability": "view",
      "type": "function"
    },
    {
      "inputs": [],
      "name": "forfeit",
      "outputs": [
        {
          "internalType": "uint256",
          "name": "",
          "type": "uint256"
        }
      ],
      "stateMutability": "nonpayable",
      "type": "function"
    },
    {
      "inputs": [],
      "name": "getRewardDistributorAddress",
      "outputs": [
        {
          "internalType": "address",
          "name": "",
          "type": "address"
        }
      ],
      "stateMutability": "view",
      "type": "function"
    },
    {
      "inputs": [],
      "name": "owner",
      "outputs": [
        {
          "internalType": "address",
          "name": "",
          "type": "address"
        }
      ],
      "stateMutability": "view",
      "type": "function"
    },
    {
      "inputs": [],
      "name": "renounceOwnership",
      "outputs": [],
      "stateMutability": "nonpayable",
      "type": "function"
    },
    {
      "inputs": [],
      "name": "rewardDistributor",
      "outputs": [
        {
          "internalType": "contract IRewardDistributor",
          "name": "",
          "type": "address"
        }
      ],
      "stateMutability": "view",
      "type": "function"
    },
    {
      "inputs": [],
      "name": "sORFI",
      "outputs": [
        {
          "internalType": "contract IERC20",
          "name": "",
          "type": "address"
        }
      ],
      "stateMutability": "view",
      "type": "function"
    },
    {
      "inputs": [
        {
          "internalType": "address",
          "name": "rewardDistributor_",
          "type": "address"
        }
      ],
      "name": "setRewardDistributor",
      "outputs": [],
      "stateMutability": "nonpayable",
      "type": "function"
    },
    {
      "inputs": [
        {
          "internalType": "uint256",
          "name": "_warmupPeriod",
          "type": "uint256"
        }
      ],
      "name": "setWarmupLength",
      "outputs": [],
      "stateMutability": "nonpayable",
      "type": "function"
    },
    {
      "inputs": [
        {
          "internalType": "address",
          "name": "_to",
          "type": "address"
        },
        {
          "internalType": "uint256",
          "name": "_amount",
          "type": "uint256"
        }
      ],
      "name": "stake",
      "outputs": [
        {
          "internalType": "uint256",
          "name": "",
          "type": "uint256"
        }
      ],
      "stateMutability": "nonpayable",
      "type": "function"
    },
    {
      "inputs": [],
      "name": "supplyInWarmup",
      "outputs": [
        {
          "internalType": "uint256",
          "name": "",
          "type": "uint256"
        }
      ],
      "stateMutability": "view",
      "type": "function"
    },
    {
      "inputs": [],
      "name": "toggleLock",
      "outputs": [],
      "stateMutability": "nonpayable",
      "type": "function"
    },
    {
      "inputs": [
        {
          "internalType": "address",
          "name": "newOwner",
          "type": "address"
        }
      ],
      "name": "transferOwnership",
      "outputs": [],
      "stateMutability": "nonpayable",
      "type": "function"
    },
    {
      "inputs": [
        {
          "internalType": "address",
          "name": "_to",
          "type": "address"
        },
        {
          "internalType": "uint256",
          "name": "_amount",
          "type": "uint256"
        }
      ],
      "name": "unstake",
      "outputs": [
        {
          "internalType": "uint256",
          "name": "amount_",
          "type": "uint256"
        }
      ],
      "stateMutability": "nonpayable",
      "type": "function"
    },
    {
      "inputs": [
        {
          "internalType": "address",
          "name": "",
          "type": "address"
        }
      ],
      "name": "warmupInfo",
      "outputs": [
        {
          "internalType": "uint256",
          "name": "deposit",
          "type": "uint256"
        },
        {
          "internalType": "uint256",
          "name": "expiry",
          "type": "uint256"
        },
        {
          "internalType": "bool",
          "name": "lock",
          "type": "bool"
        }
      ],
      "stateMutability": "view",
      "type": "function"
    },
    {
      "inputs": [],
      "name": "warmupPeriod",
      "outputs": [
        {
          "internalType": "uint256",
          "name": "",
          "type": "uint256"
        }
      ],
      "stateMutability": "view",
      "type": "function"
    }
  ],
  "bytecode": "0x60c06040523480156200001157600080fd5b506040516200125b3803806200125b83398101604081905262000034916200017e565b6200003f3362000111565b6001600160a01b038216620000905760405162461bcd60e51b81526020600482015260126024820152715a65726f20616464726573733a204f52464960701b60448201526064015b60405180910390fd5b6001600160601b0319606083901b166080526001600160a01b038116620000fa5760405162461bcd60e51b815260206004820152601360248201527f5a65726f20616464726573733a20734f52464900000000000000000000000000604482015260640162000087565b60601b6001600160601b03191660a05250620001b5565b600080546001600160a01b038381166001600160a01b0319831681178455604051919092169283917f8be0079c531659141344cd1fd0a4f28419497f9722a3daafe3b4186f6b6457e09190a35050565b80516001600160a01b03811681146200017957600080fd5b919050565b6000806040838503121562000191578182fd5b6200019c8362000161565b9150620001ac6020840162000161565b90509250929050565b60805160601c60a05160601c611049620002126000396000818161014e015281816106dd0152610ae90152600081816101db015281816104ce0152818161075401528181610842015281816108ef0152610a8601526110496000f3fe608060405234801561001057600080fd5b50600436106101165760003560e01c8063acc2166a116100a2578063deac361a11610071578063deac361a146102a5578063f20775ad146102ae578063f2fde38b146102b6578063f3d86e4a146102c9578063ff9413d8146102d157600080fd5b8063acc2166a1461025b578063adc9772e1461026e578063c2a672e014610281578063c467d6501461029457600080fd5b80636d90e5b8116100e95780636d90e5b8146101d6578063715018a6146101fd5780638da5cb5b146102075780639238d59214610218578063a1809b951461022b57600080fd5b80631e83409a1461011b57806320138641146101415780634b290d30146101495780636746f4c214610188575b600080fd5b61012e610129366004610e8b565b6102f9565b6040519081526020015b60405180910390f35b60045461012e565b6101707f000000000000000000000000000000000000000000000000000000000000000081565b6040516001600160a01b039091168152602001610138565b6101b9610196366004610e8b565b600260208190526000918252604090912080546001820154919092015460ff1683565b604080519384526020840192909252151590820152606001610138565b6101707f000000000000000000000000000000000000000000000000000000000000000081565b610205610424565b005b6000546001600160a01b0316610170565b610205610226366004610eee565b61045a565b610205610239366004610e8b565b600180546001600160a01b0319166001600160a01b0392909216919091179055565b600154610170906001600160a01b031681565b61012e61027c366004610ea5565b6104bf565b61012e61028f366004610ea5565b6106be565b6001546001600160a01b0316610170565b61012e60035481565b61012e6108d7565b6102056102c4366004610e8b565b610976565b61012e610a11565b61020533600090815260026020819052604090912001805460ff19811660ff90911615179055565b6001600160a01b03811660009081526002602081815260408084208151606081018352815481526001820154938101939093529092015460ff161515918101829052906103ac576001600160a01b03831633146103ac5760405162461bcd60e51b815260206004820152602660248201527f45787465726e616c20636c61696d7320666f72206163636f756e7420617265206044820152651b1bd8dad95960d21b60648201526084015b60405180910390fd5b806020015142101580156103c35750602081015115155b1561041b576001600160a01b03831660009081526002602081905260408220828155600181019290925501805460ff19169055805160045461040491610ab4565b6004558051610414908490610ac0565b9392505050565b50600092915050565b6000546001600160a01b0316331461044e5760405162461bcd60e51b81526004016103a390610f6d565b6104586000610b1a565b565b6000546001600160a01b031633146104845760405162461bcd60e51b81526004016103a390610f6d565b60038190556040518181527fac17d51c35ac71d3eddc155985908430e88946d51e2f6093e93c1c0aba08f6c49060200160405180910390a150565b60006104f66001600160a01b037f000000000000000000000000000000000000000000000000000000000000000016333085610b6a565b600354610576576105078383610ac0565b506001546040516356e4bb9760e11b81526001600160a01b038581166004830152602482018590529091169063adc9772e90604401600060405180830381600087803b15801561055657600080fd5b505af115801561056a573d6000803e3d6000fd5b505050508190506106b8565b6001600160a01b0383166000908152600260208181526040928390208351606081018552815481526001820154928101929092529091015460ff16151591810182905290610627576001600160a01b03841633146106275760405162461bcd60e51b815260206004820152602860248201527f45787465726e616c206465706f7369747320666f72206163636f756e7420617260448201526719481b1bd8dad95960c21b60648201526084016103a3565b6040805160608101909152815181906106409086610bdb565b815260200161065a60035442610bdb90919063ffffffff16565b815260408381015115156020928301526001600160a01b0387166000908152600280845290829020845181559284015160018401559201519101805460ff19169115159190911790556004546106b09084610bdb565b600455508190505b92915050565b604051632770a7eb60e21b8152336004820152602481018290526000907f00000000000000000000000000000000000000000000000000000000000000006001600160a01b031690639dc29fac90604401600060405180830381600087803b15801561072957600080fd5b505af115801561073d573d6000803e3d6000fd5b50506040516370a0823160e01b81523060048201527f00000000000000000000000000000000000000000000000000000000000000006001600160a01b031692506370a08231915060240160206040518083038186803b1580156107a057600080fd5b505afa1580156107b4573d6000803e3d6000fd5b505050506040513d601f19601f820116820180604052508101906107d89190610f06565b8211156108355760405162461bcd60e51b815260206004820152602560248201527f496e73756666696369656e74204f5246492062616c616e636520696e20636f6e6044820152641d1c9858dd60da1b60648201526084016103a3565b6108696001600160a01b037f0000000000000000000000000000000000000000000000000000000000000000168484610be7565b600154604051630615339760e51b81526001600160a01b038581166004830152602482018490529091169063c2a672e0906044015b600060405180830381600087803b1580156108b857600080fd5b505af11580156108cc573d6000803e3d6000fd5b509395945050505050565b6040516370a0823160e01b81523060048201526000907f00000000000000000000000000000000000000000000000000000000000000006001600160a01b0316906370a082319060240160206040518083038186803b15801561093957600080fd5b505afa15801561094d573d6000803e3d6000fd5b505050506040513d601f19601f820116820180604052508101906109719190610f06565b905090565b6000546001600160a01b031633146109a05760405162461bcd60e51b81526004016103a390610f6d565b6001600160a01b038116610a055760405162461bcd60e51b815260206004820152602660248201527f4f776e61626c653a206e6577206f776e657220697320746865207a65726f206160448201526564647265737360d01b60648201526084016103a3565b610a0e81610b1a565b50565b33600081815260026020818152604080842081516060810183528154815260018201805482860152828601805460ff8116151595840195909552978752949093528490559183905560ff199091169092558151600454919291610a7391610ab4565b6004558051610aae906001600160a01b037f000000000000000000000000000000000000000000000000000000000000000016903390610be7565b51919050565b60006104148284610fba565b6040516340c10f1960e01b81526001600160a01b038381166004830152602482018390526000917f0000000000000000000000000000000000000000000000000000000000000000909116906340c10f199060440161089e565b600080546001600160a01b038381166001600160a01b0319831681178455604051919092169283917f8be0079c531659141344cd1fd0a4f28419497f9722a3daafe3b4186f6b6457e09190a35050565b6040516001600160a01b0380851660248301528316604482015260648101829052610bd59085906323b872dd60e01b906084015b60408051601f198184030181529190526020810180516001600160e01b03166001600160e01b031990931692909217909152610c1c565b50505050565b60006104148284610fa2565b6040516001600160a01b038316602482015260448101829052610c1790849063a9059cbb60e01b90606401610b9e565b505050565b6000610c71826040518060400160405280602081526020017f5361666545524332303a206c6f772d6c6576656c2063616c6c206661696c6564815250856001600160a01b0316610cee9092919063ffffffff16565b805190915015610c175780806020019051810190610c8f9190610ece565b610c175760405162461bcd60e51b815260206004820152602a60248201527f5361666545524332303a204552433230206f7065726174696f6e20646964206e6044820152691bdd081cdd58d8d9595960b21b60648201526084016103a3565b6060610cfd8484600085610d05565b949350505050565b606082471015610d665760405162461bcd60e51b815260206004820152602660248201527f416464726573733a20696e73756666696369656e742062616c616e636520666f6044820152651c8818d85b1b60d21b60648201526084016103a3565b6001600160a01b0385163b610dbd5760405162461bcd60e51b815260206004820152601d60248201527f416464726573733a2063616c6c20746f206e6f6e2d636f6e747261637400000060448201526064016103a3565b600080866001600160a01b03168587604051610dd99190610f1e565b60006040518083038185875af1925050503d8060008114610e16576040519150601f19603f3d011682016040523d82523d6000602084013e610e1b565b606091505b5091509150610e2b828286610e36565b979650505050505050565b60608315610e45575081610414565b825115610e555782518084602001fd5b8160405162461bcd60e51b81526004016103a39190610f3a565b80356001600160a01b0381168114610e8657600080fd5b919050565b600060208284031215610e9c578081fd5b61041482610e6f565b60008060408385031215610eb7578081fd5b610ec083610e6f565b946020939093013593505050565b600060208284031215610edf578081fd5b81518015158114610414578182fd5b600060208284031215610eff578081fd5b5035919050565b600060208284031215610f17578081fd5b5051919050565b60008251610f30818460208701610fd1565b9190910192915050565b6020815260008251806020840152610f59816040850160208701610fd1565b601f01601f19169190910160400192915050565b6020808252818101527f4f776e61626c653a2063616c6c6572206973206e6f7420746865206f776e6572604082015260600190565b60008219821115610fb557610fb5610ffd565b500190565b600082821015610fcc57610fcc610ffd565b500390565b60005b83811015610fec578181015183820152602001610fd4565b83811115610bd55750506000910152565b634e487b7160e01b600052601160045260246000fdfea26469706673582212205b07538d57a031d28d73e652d11bab93197211f5f15594c73b2327c0464468a264736f6c63430008040033",
  "linkReferences": {},
  "deployedLinkReferences": {}
}