{
  "_format": "hh-sol-artifact-1",
  "contractName": "Staking",
  "sourceName": "contracts/coreContracts/Staking.sol",
  "abi": [
    {
      "inputs": [
        {
          "internalType": "address",
          "name": "_orfi",
          "type": "address"
        },
        {
          "internalType": "address",
          "name": "_sorfi",
          "type": "address"
        }
      ],
      "stateMutability": "nonpayable",
      "type": "constructor"
    },
    {
      "anonymous": false,
      "inputs": [
        {
          "indexed": true,
          "internalType": "address",
          "name": "previousOwner",
          "type": "address"
        },
        {
          "indexed": true,
          "internalType": "address",
          "name": "newOwner",
          "type": "address"
        }
      ],
      "name": "OwnershipTransferred",
      "type": "event"
    },
    {
      "anonymous": false,
      "inputs": [
        {
          "indexed": false,
          "internalType": "uint256",
          "name": "warmup",
          "type": "uint256"
        }
      ],
      "name": "WarmupSet",
      "type": "event"
    },
    {
      "inputs": [],
      "name": "ORFI",
      "outputs": [
        {
          "internalType": "contract IERC20",
          "name": "",
          "type": "address"
        }
      ],
      "stateMutability": "view",
      "type": "function"
    },
    {
      "inputs": [
        {
          "internalType": "address",
          "name": "_to",
          "type": "address"
        }
      ],
      "name": "claim",
      "outputs": [
        {
          "internalType": "uint256",
          "name": "",
          "type": "uint256"
        }
      ],
      "stateMutability": "nonpayable",
      "type": "function"
    },
    {
      "inputs": [],
      "name": "contractORFIBalance",
      "outputs": [
        {
          "internalType": "uint256",
          "name": "",
          "type": "uint256"
        }
      ],
      "stateMutability": "view",
      "type": "function"
    },
    {
      "inputs": [],
      "name": "forfeit",
      "outputs": [
        {
          "internalType": "uint256",
          "name": "",
          "type": "uint256"
        }
      ],
      "stateMutability": "nonpayable",
      "type": "function"
    },
    {
      "inputs": [],
      "name": "getRewardDistributorAddress",
      "outputs": [
        {
          "internalType": "address",
          "name": "",
          "type": "address"
        }
      ],
      "stateMutability": "view",
      "type": "function"
    },
    {
      "inputs": [],
      "name": "owner",
      "outputs": [
        {
          "internalType": "address",
          "name": "",
          "type": "address"
        }
      ],
      "stateMutability": "view",
      "type": "function"
    },
    {
      "inputs": [],
      "name": "renounceOwnership",
      "outputs": [],
      "stateMutability": "nonpayable",
      "type": "function"
    },
    {
      "inputs": [],
      "name": "rewardDistributor",
      "outputs": [
        {
          "internalType": "contract IRewardDistributor",
          "name": "",
          "type": "address"
        }
      ],
      "stateMutability": "view",
      "type": "function"
    },
    {
      "inputs": [],
      "name": "sORFI",
      "outputs": [
        {
          "internalType": "contract IERC20",
          "name": "",
          "type": "address"
        }
      ],
      "stateMutability": "view",
      "type": "function"
    },
    {
      "inputs": [
        {
          "internalType": "address",
          "name": "rewardDistributor_",
          "type": "address"
        }
      ],
      "name": "setRewardDistributor",
      "outputs": [],
      "stateMutability": "nonpayable",
      "type": "function"
    },
    {
      "inputs": [
        {
          "internalType": "uint256",
          "name": "_warmupPeriod",
          "type": "uint256"
        }
      ],
      "name": "setWarmupLength",
      "outputs": [],
      "stateMutability": "nonpayable",
      "type": "function"
    },
    {
      "inputs": [
        {
          "internalType": "address",
          "name": "_to",
          "type": "address"
        },
        {
          "internalType": "uint256",
          "name": "_amount",
          "type": "uint256"
        }
      ],
      "name": "stake",
      "outputs": [
        {
          "internalType": "uint256",
          "name": "",
          "type": "uint256"
        }
      ],
      "stateMutability": "nonpayable",
      "type": "function"
    },
    {
      "inputs": [],
      "name": "supplyInWarmup",
      "outputs": [
        {
          "internalType": "uint256",
          "name": "",
          "type": "uint256"
        }
      ],
      "stateMutability": "view",
      "type": "function"
    },
    {
      "inputs": [],
      "name": "toggleLock",
      "outputs": [],
      "stateMutability": "nonpayable",
      "type": "function"
    },
    {
      "inputs": [
        {
          "internalType": "address",
          "name": "newOwner",
          "type": "address"
        }
      ],
      "name": "transferOwnership",
      "outputs": [],
      "stateMutability": "nonpayable",
      "type": "function"
    },
    {
      "inputs": [
        {
          "internalType": "address",
          "name": "_to",
          "type": "address"
        },
        {
          "internalType": "uint256",
          "name": "_amount",
          "type": "uint256"
        }
      ],
      "name": "unstake",
      "outputs": [
        {
          "internalType": "uint256",
          "name": "amount_",
          "type": "uint256"
        }
      ],
      "stateMutability": "nonpayable",
      "type": "function"
    },
    {
      "inputs": [
        {
          "internalType": "address",
          "name": "",
          "type": "address"
        }
      ],
      "name": "warmupInfo",
      "outputs": [
        {
          "internalType": "uint256",
          "name": "deposit",
          "type": "uint256"
        },
        {
          "internalType": "uint256",
          "name": "expiry",
          "type": "uint256"
        },
        {
          "internalType": "bool",
          "name": "lock",
          "type": "bool"
        }
      ],
      "stateMutability": "view",
      "type": "function"
    },
    {
      "inputs": [],
      "name": "warmupPeriod",
      "outputs": [
        {
          "internalType": "uint256",
          "name": "",
          "type": "uint256"
        }
      ],
      "stateMutability": "view",
      "type": "function"
    }
  ],
  "bytecode": "0x60c06040523480156200001157600080fd5b506040516200243638038062002436833981810160405281019062000037919062000296565b620000576200004b620001b360201b60201c565b620001bb60201b60201c565b600073ffffffffffffffffffffffffffffffffffffffff168273ffffffffffffffffffffffffffffffffffffffff161415620000ca576040517f08c379a0000000000000000000000000000000000000000000000000000000008152600401620000c19062000325565b60405180910390fd5b8173ffffffffffffffffffffffffffffffffffffffff1660808173ffffffffffffffffffffffffffffffffffffffff1660601b81525050600073ffffffffffffffffffffffffffffffffffffffff168173ffffffffffffffffffffffffffffffffffffffff16141562000174576040517f08c379a00000000000000000000000000000000000000000000000000000000081526004016200016b9062000347565b60405180910390fd5b8073ffffffffffffffffffffffffffffffffffffffff1660a08173ffffffffffffffffffffffffffffffffffffffff1660601b8152505050506200041a565b600033905090565b60008060009054906101000a900473ffffffffffffffffffffffffffffffffffffffff169050816000806101000a81548173ffffffffffffffffffffffffffffffffffffffff021916908373ffffffffffffffffffffffffffffffffffffffff1602179055508173ffffffffffffffffffffffffffffffffffffffff168173ffffffffffffffffffffffffffffffffffffffff167f8be0079c531659141344cd1fd0a4f28419497f9722a3daafe3b4186f6b6457e060405160405180910390a35050565b600081519050620002908162000400565b92915050565b60008060408385031215620002aa57600080fd5b6000620002ba858286016200027f565b9250506020620002cd858286016200027f565b9150509250929050565b6000620002e660128362000369565b9150620002f382620003ae565b602082019050919050565b60006200030d60138362000369565b91506200031a82620003d7565b602082019050919050565b600060208201905081810360008301526200034081620002d7565b9050919050565b600060208201905081810360008301526200036281620002fe565b9050919050565b600082825260208201905092915050565b600062000387826200038e565b9050919050565b600073ffffffffffffffffffffffffffffffffffffffff82169050919050565b7f5a65726f20616464726573733a204f5246490000000000000000000000000000600082015250565b7f5a65726f20616464726573733a20734f52464900000000000000000000000000600082015250565b6200040b816200037a565b81146200041757600080fd5b50565b60805160601c60a05160601c611fbf620004776000396000818161051901528181610ac6015261111a015260008181610574015281816107f401528181610b5301528181610c4301528181610d5301526110050152611fbf6000f3fe608060405234801561001057600080fd5b50600436106101165760003560e01c8063acc2166a116100a2578063deac361a11610071578063deac361a146102d3578063f20775ad146102f1578063f2fde38b1461030f578063f3d86e4a1461032b578063ff9413d81461034957610116565b8063acc2166a14610237578063adc9772e14610255578063c2a672e014610285578063c467d650146102b557610116565b80636d90e5b8116100e95780636d90e5b8146101b9578063715018a6146101d75780638da5cb5b146101e15780639238d592146101ff578063a1809b951461021b57610116565b80631e83409a1461011b578063201386411461014b5780634b290d30146101695780636746f4c214610187575b600080fd5b61013560048036038101906101309190611670565b610353565b6040516101429190611b07565b60405180910390f35b61015361050d565b6040516101609190611b07565b60405180910390f35b610171610517565b60405161017e91906119af565b60405180910390f35b6101a1600480360381019061019c9190611670565b61053b565b6040516101b093929190611b22565b60405180910390f35b6101c1610572565b6040516101ce91906119af565b60405180910390f35b6101df610596565b005b6101e961061e565b6040516101f69190611934565b60405180910390f35b610219600480360381019061021491906116fe565b610647565b005b61023560048036038101906102309190611670565b610704565b005b61023f6107c4565b60405161024c91906119ca565b60405180910390f35b61026f600480360381019061026a9190611699565b6107ea565b60405161027c9190611b07565b60405180910390f35b61029f600480360381019061029a9190611699565b610ac2565b6040516102ac9190611b07565b60405180910390f35b6102bd610d1f565b6040516102ca9190611934565b60405180910390f35b6102db610d49565b6040516102e89190611b07565b60405180910390f35b6102f9610d4f565b6040516103069190611b07565b60405180910390f35b61032960048036038101906103249190611670565b610dff565b005b610333610ef7565b6040516103409190611b07565b60405180910390f35b610351611054565b005b600080600260008473ffffffffffffffffffffffffffffffffffffffff1673ffffffffffffffffffffffffffffffffffffffff16815260200190815260200160002060405180606001604052908160008201548152602001600182015481526020016002820160009054906101000a900460ff16151515158152505090508060400151610449573373ffffffffffffffffffffffffffffffffffffffff168373ffffffffffffffffffffffffffffffffffffffff1614610448576040517f08c379a000000000000000000000000000000000000000000000000000000000815260040161043f90611a67565b60405180910390fd5b5b8060200151421015801561046257506000816020015114155b1561050257600260008473ffffffffffffffffffffffffffffffffffffffff1673ffffffffffffffffffffffffffffffffffffffff16815260200190815260200160002060008082016000905560018201600090556002820160006101000a81549060ff021916905550506104e6816000015160045461110090919063ffffffff16565b6004819055506104fa838260000151611116565b915050610508565b60009150505b919050565b6000600454905090565b7f000000000000000000000000000000000000000000000000000000000000000081565b60026020528060005260406000206000915090508060000154908060010154908060020160009054906101000a900460ff16905083565b7f000000000000000000000000000000000000000000000000000000000000000081565b61059e6111ae565b73ffffffffffffffffffffffffffffffffffffffff166105bc61061e565b73ffffffffffffffffffffffffffffffffffffffff1614610612576040517f08c379a000000000000000000000000000000000000000000000000000000000815260040161060990611aa7565b60405180910390fd5b61061c60006111b6565b565b60008060009054906101000a900473ffffffffffffffffffffffffffffffffffffffff16905090565b61064f6111ae565b73ffffffffffffffffffffffffffffffffffffffff1661066d61061e565b73ffffffffffffffffffffffffffffffffffffffff16146106c3576040517f08c379a00000000000000000000000000000000000000000000000000000000081526004016106ba90611aa7565b60405180910390fd5b806003819055507fac17d51c35ac71d3eddc155985908430e88946d51e2f6093e93c1c0aba08f6c4816040516106f99190611b07565b60405180910390a150565b61070c6111ae565b73ffffffffffffffffffffffffffffffffffffffff1661072a61061e565b73ffffffffffffffffffffffffffffffffffffffff1614610780576040517f08c379a000000000000000000000000000000000000000000000000000000000815260040161077790611aa7565b60405180910390fd5b80600160006101000a81548173ffffffffffffffffffffffffffffffffffffffff021916908373ffffffffffffffffffffffffffffffffffffffff16021790555050565b600160009054906101000a900473ffffffffffffffffffffffffffffffffffffffff1681565b60006108393330847f000000000000000000000000000000000000000000000000000000000000000073ffffffffffffffffffffffffffffffffffffffff1661127a909392919063ffffffff16565b600060035414156108e65761084e8383611116565b50600160009054906101000a900473ffffffffffffffffffffffffffffffffffffffff1673ffffffffffffffffffffffffffffffffffffffff1663adc9772e84846040518363ffffffff1660e01b81526004016108ac929190611986565b600060405180830381600087803b1580156108c657600080fd5b505af11580156108da573d6000803e3d6000fd5b50505050819050610abc565b6000600260008573ffffffffffffffffffffffffffffffffffffffff1673ffffffffffffffffffffffffffffffffffffffff16815260200190815260200160002060405180606001604052908160008201548152602001600182015481526020016002820160009054906101000a900460ff161515151581525050905080604001516109db573373ffffffffffffffffffffffffffffffffffffffff168473ffffffffffffffffffffffffffffffffffffffff16146109da576040517f08c379a00000000000000000000000000000000000000000000000000000000081526004016109d190611a47565b60405180910390fd5b5b60405180606001604052806109fd85846000015161130390919063ffffffff16565b8152602001610a176003544261130390919063ffffffff16565b815260200182604001511515815250600260008673ffffffffffffffffffffffffffffffffffffffff1673ffffffffffffffffffffffffffffffffffffffff168152602001908152602001600020600082015181600001556020820151816001015560408201518160020160006101000a81548160ff021916908315150217905550905050610ab18360045461130390919063ffffffff16565b600481905550829150505b92915050565b60007f000000000000000000000000000000000000000000000000000000000000000073ffffffffffffffffffffffffffffffffffffffff16639dc29fac33846040518363ffffffff1660e01b8152600401610b1f929190611986565b600060405180830381600087803b158015610b3957600080fd5b505af1158015610b4d573d6000803e3d6000fd5b505050507f000000000000000000000000000000000000000000000000000000000000000073ffffffffffffffffffffffffffffffffffffffff166370a08231306040518263ffffffff1660e01b8152600401610baa9190611934565b60206040518083038186803b158015610bc257600080fd5b505afa158015610bd6573d6000803e3d6000fd5b505050506040513d601f19601f82011682018060405250810190610bfa9190611727565b821115610c3c576040517f08c379a0000000000000000000000000000000000000000000000000000000008152600401610c3390611a27565b60405180910390fd5b610c8783837f000000000000000000000000000000000000000000000000000000000000000073ffffffffffffffffffffffffffffffffffffffff166113199092919063ffffffff16565b600160009054906101000a900473ffffffffffffffffffffffffffffffffffffffff1673ffffffffffffffffffffffffffffffffffffffff1663c2a672e084836040518363ffffffff1660e01b8152600401610ce4929190611986565b600060405180830381600087803b158015610cfe57600080fd5b505af1158015610d12573d6000803e3d6000fd5b5050505081905092915050565b6000600160009054906101000a900473ffffffffffffffffffffffffffffffffffffffff16905090565b60035481565b60007f000000000000000000000000000000000000000000000000000000000000000073ffffffffffffffffffffffffffffffffffffffff166370a08231306040518263ffffffff1660e01b8152600401610daa9190611934565b60206040518083038186803b158015610dc257600080fd5b505afa158015610dd6573d6000803e3d6000fd5b505050506040513d601f19601f82011682018060405250810190610dfa9190611727565b905090565b610e076111ae565b73ffffffffffffffffffffffffffffffffffffffff16610e2561061e565b73ffffffffffffffffffffffffffffffffffffffff1614610e7b576040517f08c379a0000000000000000000000000000000000000000000000000000000008152600401610e7290611aa7565b60405180910390fd5b600073ffffffffffffffffffffffffffffffffffffffff168173ffffffffffffffffffffffffffffffffffffffff161415610eeb576040517f08c379a0000000000000000000000000000000000000000000000000000000008152600401610ee290611a07565b60405180910390fd5b610ef4816111b6565b50565b600080600260003373ffffffffffffffffffffffffffffffffffffffff1673ffffffffffffffffffffffffffffffffffffffff16815260200190815260200160002060405180606001604052908160008201548152602001600182015481526020016002820160009054906101000a900460ff1615151515815250509050600260003373ffffffffffffffffffffffffffffffffffffffff1673ffffffffffffffffffffffffffffffffffffffff16815260200190815260200160002060008082016000905560018201600090556002820160006101000a81549060ff02191690555050610ff4816000015160045461110090919063ffffffff16565b6004819055506110493382600001517f000000000000000000000000000000000000000000000000000000000000000073ffffffffffffffffffffffffffffffffffffffff166113199092919063ffffffff16565b806000015191505090565b600260003373ffffffffffffffffffffffffffffffffffffffff1673ffffffffffffffffffffffffffffffffffffffff16815260200190815260200160002060020160009054906101000a900460ff1615600260003373ffffffffffffffffffffffffffffffffffffffff1673ffffffffffffffffffffffffffffffffffffffff16815260200190815260200160002060020160006101000a81548160ff021916908315150217905550565b6000818361110e9190611be1565b905092915050565b60007f000000000000000000000000000000000000000000000000000000000000000073ffffffffffffffffffffffffffffffffffffffff166340c10f1984846040518363ffffffff1660e01b8152600401611173929190611986565b600060405180830381600087803b15801561118d57600080fd5b505af11580156111a1573d6000803e3d6000fd5b5050505081905092915050565b600033905090565b60008060009054906101000a900473ffffffffffffffffffffffffffffffffffffffff169050816000806101000a81548173ffffffffffffffffffffffffffffffffffffffff021916908373ffffffffffffffffffffffffffffffffffffffff1602179055508173ffffffffffffffffffffffffffffffffffffffff168173ffffffffffffffffffffffffffffffffffffffff167f8be0079c531659141344cd1fd0a4f28419497f9722a3daafe3b4186f6b6457e060405160405180910390a35050565b6112fd846323b872dd60e01b85858560405160240161129b9392919061194f565b604051602081830303815290604052907bffffffffffffffffffffffffffffffffffffffffffffffffffffffff19166020820180517bffffffffffffffffffffffffffffffffffffffffffffffffffffffff838183161783525050505061139f565b50505050565b600081836113119190611b8b565b905092915050565b61139a8363a9059cbb60e01b8484604051602401611338929190611986565b604051602081830303815290604052907bffffffffffffffffffffffffffffffffffffffffffffffffffffffff19166020820180517bffffffffffffffffffffffffffffffffffffffffffffffffffffffff838183161783525050505061139f565b505050565b6000611401826040518060400160405280602081526020017f5361666545524332303a206c6f772d6c6576656c2063616c6c206661696c65648152508573ffffffffffffffffffffffffffffffffffffffff166114669092919063ffffffff16565b9050600081511115611461578080602001905181019061142191906116d5565b611460576040517f08c379a000000000000000000000000000000000000000000000000000000000815260040161145790611ae7565b60405180910390fd5b5b505050565b6060611475848460008561147e565b90509392505050565b6060824710156114c3576040517f08c379a00000000000000000000000000000000000000000000000000000000081526004016114ba90611a87565b60405180910390fd5b6114cc85611592565b61150b576040517f08c379a000000000000000000000000000000000000000000000000000000000815260040161150290611ac7565b60405180910390fd5b6000808673ffffffffffffffffffffffffffffffffffffffff168587604051611534919061191d565b60006040518083038185875af1925050503d8060008114611571576040519150601f19603f3d011682016040523d82523d6000602084013e611576565b606091505b50915091506115868282866115b5565b92505050949350505050565b6000808273ffffffffffffffffffffffffffffffffffffffff163b119050919050565b606083156115c557829050611615565b6000835111156115d85782518084602001fd5b816040517f08c379a000000000000000000000000000000000000000000000000000000000815260040161160c91906119e5565b60405180910390fd5b9392505050565b60008135905061162b81611f44565b92915050565b60008151905061164081611f5b565b92915050565b60008135905061165581611f72565b92915050565b60008151905061166a81611f72565b92915050565b60006020828403121561168257600080fd5b60006116908482850161161c565b91505092915050565b600080604083850312156116ac57600080fd5b60006116ba8582860161161c565b92505060206116cb85828601611646565b9150509250929050565b6000602082840312156116e757600080fd5b60006116f584828501611631565b91505092915050565b60006020828403121561171057600080fd5b600061171e84828501611646565b91505092915050565b60006020828403121561173957600080fd5b60006117478482850161165b565b91505092915050565b61175981611c15565b82525050565b61176881611c27565b82525050565b600061177982611b59565b6117838185611b6f565b9350611793818560208601611ca5565b80840191505092915050565b6117a881611c5d565b82525050565b6117b781611c81565b82525050565b60006117c882611b64565b6117d28185611b7a565b93506117e2818560208601611ca5565b6117eb81611d07565b840191505092915050565b6000611803602683611b7a565b915061180e82611d18565b604082019050919050565b6000611826602583611b7a565b915061183182611d67565b604082019050919050565b6000611849602883611b7a565b915061185482611db6565b604082019050919050565b600061186c602683611b7a565b915061187782611e05565b604082019050919050565b600061188f602683611b7a565b915061189a82611e54565b604082019050919050565b60006118b2602083611b7a565b91506118bd82611ea3565b602082019050919050565b60006118d5601d83611b7a565b91506118e082611ecc565b602082019050919050565b60006118f8602a83611b7a565b915061190382611ef5565b604082019050919050565b61191781611c53565b82525050565b6000611929828461176e565b915081905092915050565b60006020820190506119496000830184611750565b92915050565b60006060820190506119646000830186611750565b6119716020830185611750565b61197e604083018461190e565b949350505050565b600060408201905061199b6000830185611750565b6119a8602083018461190e565b9392505050565b60006020820190506119c4600083018461179f565b92915050565b60006020820190506119df60008301846117ae565b92915050565b600060208201905081810360008301526119ff81846117bd565b905092915050565b60006020820190508181036000830152611a20816117f6565b9050919050565b60006020820190508181036000830152611a4081611819565b9050919050565b60006020820190508181036000830152611a608161183c565b9050919050565b60006020820190508181036000830152611a808161185f565b9050919050565b60006020820190508181036000830152611aa081611882565b9050919050565b60006020820190508181036000830152611ac0816118a5565b9050919050565b60006020820190508181036000830152611ae0816118c8565b9050919050565b60006020820190508181036000830152611b00816118eb565b9050919050565b6000602082019050611b1c600083018461190e565b92915050565b6000606082019050611b37600083018661190e565b611b44602083018561190e565b611b51604083018461175f565b949350505050565b600081519050919050565b600081519050919050565b600081905092915050565b600082825260208201905092915050565b6000611b9682611c53565b9150611ba183611c53565b9250827fffffffffffffffffffffffffffffffffffffffffffffffffffffffffffffffff03821115611bd657611bd5611cd8565b5b828201905092915050565b6000611bec82611c53565b9150611bf783611c53565b925082821015611c0a57611c09611cd8565b5b828203905092915050565b6000611c2082611c33565b9050919050565b60008115159050919050565b600073ffffffffffffffffffffffffffffffffffffffff82169050919050565b6000819050919050565b6000611c6882611c6f565b9050919050565b6000611c7a82611c33565b9050919050565b6000611c8c82611c93565b9050919050565b6000611c9e82611c33565b9050919050565b60005b83811015611cc3578082015181840152602081019050611ca8565b83811115611cd2576000848401525b50505050565b7f4e487b7100000000000000000000000000000000000000000000000000000000600052601160045260246000fd5b6000601f19601f8301169050919050565b7f4f776e61626c653a206e6577206f776e657220697320746865207a65726f206160008201527f6464726573730000000000000000000000000000000000000000000000000000602082015250565b7f496e73756666696369656e74204f5246492062616c616e636520696e20636f6e60008201527f7472616374000000000000000000000000000000000000000000000000000000602082015250565b7f45787465726e616c206465706f7369747320666f72206163636f756e7420617260008201527f65206c6f636b6564000000000000000000000000000000000000000000000000602082015250565b7f45787465726e616c20636c61696d7320666f72206163636f756e74206172652060008201527f6c6f636b65640000000000000000000000000000000000000000000000000000602082015250565b7f416464726573733a20696e73756666696369656e742062616c616e636520666f60008201527f722063616c6c0000000000000000000000000000000000000000000000000000602082015250565b7f4f776e61626c653a2063616c6c6572206973206e6f7420746865206f776e6572600082015250565b7f416464726573733a2063616c6c20746f206e6f6e2d636f6e7472616374000000600082015250565b7f5361666545524332303a204552433230206f7065726174696f6e20646964206e60008201527f6f74207375636365656400000000000000000000000000000000000000000000602082015250565b611f4d81611c15565b8114611f5857600080fd5b50565b611f6481611c27565b8114611f6f57600080fd5b50565b611f7b81611c53565b8114611f8657600080fd5b5056fea2646970667358221220fa6e845c9ade63762da4be063b78214c25d003708f2db40c74533e694ff9a62464736f6c63430008040033",
  "linkReferences": {},
  "deployedLinkReferences": {}
}