{
  "_format": "hh-sol-artifact-1",
  "contractName": "Staking",
  "sourceName": "contracts/Staking.sol",
  "abi": [
    {
      "inputs": [
        {
          "internalType": "address",
          "name": "_orcl",
          "type": "address"
        },
        {
          "internalType": "address",
          "name": "_sorcl",
          "type": "address"
        }
      ],
      "stateMutability": "nonpayable",
      "type": "constructor"
    },
    {
      "anonymous": false,
      "inputs": [
        {
          "indexed": true,
          "internalType": "address",
          "name": "previousOwner",
          "type": "address"
        },
        {
          "indexed": true,
          "internalType": "address",
          "name": "newOwner",
          "type": "address"
        }
      ],
      "name": "OwnershipTransferred",
      "type": "event"
    },
    {
      "anonymous": false,
      "inputs": [
        {
          "indexed": false,
          "internalType": "uint256",
          "name": "warmup",
          "type": "uint256"
        }
      ],
      "name": "WarmupSet",
      "type": "event"
    },
    {
      "inputs": [],
      "name": "ORCL",
      "outputs": [
        {
          "internalType": "contract IERC20",
          "name": "",
          "type": "address"
        }
      ],
      "stateMutability": "view",
      "type": "function"
    },
    {
      "inputs": [
        {
          "internalType": "address",
          "name": "_to",
          "type": "address"
        }
      ],
      "name": "claim",
      "outputs": [
        {
          "internalType": "uint256",
          "name": "",
          "type": "uint256"
        }
      ],
      "stateMutability": "nonpayable",
      "type": "function"
    },
    {
      "inputs": [],
      "name": "contractORCLBalance",
      "outputs": [
        {
          "internalType": "uint256",
          "name": "",
          "type": "uint256"
        }
      ],
      "stateMutability": "view",
      "type": "function"
    },
    {
      "inputs": [],
      "name": "forfeit",
      "outputs": [
        {
          "internalType": "uint256",
          "name": "",
          "type": "uint256"
        }
      ],
      "stateMutability": "nonpayable",
      "type": "function"
    },
    {
      "inputs": [],
      "name": "owner",
      "outputs": [
        {
          "internalType": "address",
          "name": "",
          "type": "address"
        }
      ],
      "stateMutability": "view",
      "type": "function"
    },
    {
      "inputs": [],
      "name": "renounceOwnership",
      "outputs": [],
      "stateMutability": "nonpayable",
      "type": "function"
    },
    {
      "inputs": [],
      "name": "sORCL",
      "outputs": [
        {
          "internalType": "contract IERC20",
          "name": "",
          "type": "address"
        }
      ],
      "stateMutability": "view",
      "type": "function"
    },
    {
      "inputs": [
        {
          "internalType": "uint256",
          "name": "_warmupPeriod",
          "type": "uint256"
        }
      ],
      "name": "setWarmupLength",
      "outputs": [],
      "stateMutability": "nonpayable",
      "type": "function"
    },
    {
      "inputs": [
        {
          "internalType": "address",
          "name": "_to",
          "type": "address"
        },
        {
          "internalType": "uint256",
          "name": "_amount",
          "type": "uint256"
        }
      ],
      "name": "stake",
      "outputs": [
        {
          "internalType": "uint256",
          "name": "",
          "type": "uint256"
        }
      ],
      "stateMutability": "nonpayable",
      "type": "function"
    },
    {
      "inputs": [],
      "name": "supplyInWarmup",
      "outputs": [
        {
          "internalType": "uint256",
          "name": "",
          "type": "uint256"
        }
      ],
      "stateMutability": "view",
      "type": "function"
    },
    {
      "inputs": [],
      "name": "toggleLock",
      "outputs": [],
      "stateMutability": "nonpayable",
      "type": "function"
    },
    {
      "inputs": [
        {
          "internalType": "address",
          "name": "newOwner",
          "type": "address"
        }
      ],
      "name": "transferOwnership",
      "outputs": [],
      "stateMutability": "nonpayable",
      "type": "function"
    },
    {
      "inputs": [
        {
          "internalType": "address",
          "name": "_to",
          "type": "address"
        },
        {
          "internalType": "uint256",
          "name": "_amount",
          "type": "uint256"
        }
      ],
      "name": "unstake",
      "outputs": [
        {
          "internalType": "uint256",
          "name": "amount_",
          "type": "uint256"
        }
      ],
      "stateMutability": "nonpayable",
      "type": "function"
    },
    {
      "inputs": [
        {
          "internalType": "address",
          "name": "",
          "type": "address"
        }
      ],
      "name": "warmupInfo",
      "outputs": [
        {
          "internalType": "uint256",
          "name": "deposit",
          "type": "uint256"
        },
        {
          "internalType": "uint256",
          "name": "expiry",
          "type": "uint256"
        },
        {
          "internalType": "bool",
          "name": "lock",
          "type": "bool"
        }
      ],
      "stateMutability": "view",
      "type": "function"
    },
    {
      "inputs": [],
      "name": "warmupPeriod",
      "outputs": [
        {
          "internalType": "uint256",
          "name": "",
          "type": "uint256"
        }
      ],
      "stateMutability": "view",
      "type": "function"
    }
  ],
  "bytecode": "0x60c06040523480156200001157600080fd5b506040516200213f3803806200213f833981810160405281019062000037919062000296565b620000576200004b620001b360201b60201c565b620001bb60201b60201c565b600073ffffffffffffffffffffffffffffffffffffffff168273ffffffffffffffffffffffffffffffffffffffff161415620000ca576040517f08c379a0000000000000000000000000000000000000000000000000000000008152600401620000c19062000325565b60405180910390fd5b8173ffffffffffffffffffffffffffffffffffffffff1660808173ffffffffffffffffffffffffffffffffffffffff1660601b81525050600073ffffffffffffffffffffffffffffffffffffffff168173ffffffffffffffffffffffffffffffffffffffff16141562000174576040517f08c379a00000000000000000000000000000000000000000000000000000000081526004016200016b9062000347565b60405180910390fd5b8073ffffffffffffffffffffffffffffffffffffffff1660a08173ffffffffffffffffffffffffffffffffffffffff1660601b8152505050506200041a565b600033905090565b60008060009054906101000a900473ffffffffffffffffffffffffffffffffffffffff169050816000806101000a81548173ffffffffffffffffffffffffffffffffffffffff021916908373ffffffffffffffffffffffffffffffffffffffff1602179055508173ffffffffffffffffffffffffffffffffffffffff168173ffffffffffffffffffffffffffffffffffffffff167f8be0079c531659141344cd1fd0a4f28419497f9722a3daafe3b4186f6b6457e060405160405180910390a35050565b600081519050620002908162000400565b92915050565b60008060408385031215620002aa57600080fd5b6000620002ba858286016200027f565b9250506020620002cd858286016200027f565b9150509250929050565b6000620002e660128362000369565b9150620002f382620003ae565b602082019050919050565b60006200030d60138362000369565b91506200031a82620003d7565b602082019050919050565b600060208201905081810360008301526200034081620002d7565b9050919050565b600060208201905081810360008301526200036281620002fe565b9050919050565b600082825260208201905092915050565b600062000387826200038e565b9050919050565b600073ffffffffffffffffffffffffffffffffffffffff82169050919050565b7f5a65726f20616464726573733a204f52434c0000000000000000000000000000600082015250565b7f5a65726f20616464726573733a20734f52434c00000000000000000000000000600082015250565b6200040b816200037a565b81146200041757600080fd5b50565b60805160601c60a05160601c611cc862000477600039600081816104c4015281816109860152610e710152600081816104a0015281816104ea0152818161074501528181610a1301528181610b030152610d5c0152611cc86000f3fe608060405234801561001057600080fd5b50600436106100f55760003560e01c80638da5cb5b11610097578063deac361a11610066578063deac361a14610278578063f2fde38b14610296578063f3d86e4a146102b2578063ff9413d8146102d0576100f5565b80638da5cb5b146101de5780639238d592146101fc578063adc9772e14610218578063c2a672e014610248576100f5565b806361e39a28116100d357806361e39a281461016657806362746c40146101845780636746f4c2146101a2578063715018a6146101d4576100f5565b80631e83409a146100fa578063201386411461012a57806333483ffd14610148575b600080fd5b610114600480360381019061010f91906113c7565b6102da565b6040516101219190611834565b60405180910390f35b610132610494565b60405161013f9190611834565b60405180910390f35b61015061049e565b60405161015d91906116f7565b60405180910390f35b61016e6104c2565b60405161017b91906116f7565b60405180910390f35b61018c6104e6565b6040516101999190611834565b60405180910390f35b6101bc60048036038101906101b791906113c7565b610596565b6040516101cb9392919061184f565b60405180910390f35b6101dc6105cd565b005b6101e6610655565b6040516101f3919061167c565b60405180910390f35b61021660048036038101906102119190611455565b61067e565b005b610232600480360381019061022d91906113f0565b61073b565b60405161023f9190611834565b60405180910390f35b610262600480360381019061025d91906113f0565b610982565b60405161026f9190611834565b60405180910390f35b610280610b50565b60405161028d9190611834565b60405180910390f35b6102b060048036038101906102ab91906113c7565b610b56565b005b6102ba610c4e565b6040516102c79190611834565b60405180910390f35b6102d8610dab565b005b600080600160008473ffffffffffffffffffffffffffffffffffffffff1673ffffffffffffffffffffffffffffffffffffffff16815260200190815260200160002060405180606001604052908160008201548152602001600182015481526020016002820160009054906101000a900460ff161515151581525050905080604001516103d0573373ffffffffffffffffffffffffffffffffffffffff168373ffffffffffffffffffffffffffffffffffffffff16146103cf576040517f08c379a00000000000000000000000000000000000000000000000000000000081526004016103c690611794565b60405180910390fd5b5b806020015142101580156103e957506000816020015114155b1561048957600160008473ffffffffffffffffffffffffffffffffffffffff1673ffffffffffffffffffffffffffffffffffffffff16815260200190815260200160002060008082016000905560018201600090556002820160006101000a81549060ff0219169055505061046d8160000151600354610e5790919063ffffffff16565b600381905550610481838260000151610e6d565b91505061048f565b60009150505b919050565b6000600354905090565b7f000000000000000000000000000000000000000000000000000000000000000081565b7f000000000000000000000000000000000000000000000000000000000000000081565b60007f000000000000000000000000000000000000000000000000000000000000000073ffffffffffffffffffffffffffffffffffffffff166370a08231306040518263ffffffff1660e01b8152600401610541919061167c565b60206040518083038186803b15801561055957600080fd5b505afa15801561056d573d6000803e3d6000fd5b505050506040513d601f19601f82011682018060405250810190610591919061147e565b905090565b60016020528060005260406000206000915090508060000154908060010154908060020160009054906101000a900460ff16905083565b6105d5610f05565b73ffffffffffffffffffffffffffffffffffffffff166105f3610655565b73ffffffffffffffffffffffffffffffffffffffff1614610649576040517f08c379a0000000000000000000000000000000000000000000000000000000008152600401610640906117d4565b60405180910390fd5b6106536000610f0d565b565b60008060009054906101000a900473ffffffffffffffffffffffffffffffffffffffff16905090565b610686610f05565b73ffffffffffffffffffffffffffffffffffffffff166106a4610655565b73ffffffffffffffffffffffffffffffffffffffff16146106fa576040517f08c379a00000000000000000000000000000000000000000000000000000000081526004016106f1906117d4565b60405180910390fd5b806002819055507fac17d51c35ac71d3eddc155985908430e88946d51e2f6093e93c1c0aba08f6c4816040516107309190611834565b60405180910390a150565b600061078a3330847f000000000000000000000000000000000000000000000000000000000000000073ffffffffffffffffffffffffffffffffffffffff16610fd1909392919063ffffffff16565b600060025414156107a65761079f8383610e6d565b905061097c565b6000600160008573ffffffffffffffffffffffffffffffffffffffff1673ffffffffffffffffffffffffffffffffffffffff16815260200190815260200160002060405180606001604052908160008201548152602001600182015481526020016002820160009054906101000a900460ff1615151515815250509050806040015161089b573373ffffffffffffffffffffffffffffffffffffffff168473ffffffffffffffffffffffffffffffffffffffff161461089a576040517f08c379a000000000000000000000000000000000000000000000000000000000815260040161089190611774565b60405180910390fd5b5b60405180606001604052806108bd85846000015161105a90919063ffffffff16565b81526020016108d76002544261105a90919063ffffffff16565b815260200182604001511515815250600160008673ffffffffffffffffffffffffffffffffffffffff1673ffffffffffffffffffffffffffffffffffffffff168152602001908152602001600020600082015181600001556020820151816001015560408201518160020160006101000a81548160ff0219169083151502179055509050506109718360035461105a90919063ffffffff16565b600381905550829150505b92915050565b60007f000000000000000000000000000000000000000000000000000000000000000073ffffffffffffffffffffffffffffffffffffffff16639dc29fac33846040518363ffffffff1660e01b81526004016109df9291906116ce565b600060405180830381600087803b1580156109f957600080fd5b505af1158015610a0d573d6000803e3d6000fd5b505050507f000000000000000000000000000000000000000000000000000000000000000073ffffffffffffffffffffffffffffffffffffffff166370a08231306040518263ffffffff1660e01b8152600401610a6a919061167c565b60206040518083038186803b158015610a8257600080fd5b505afa158015610a96573d6000803e3d6000fd5b505050506040513d601f19601f82011682018060405250810190610aba919061147e565b821115610afc576040517f08c379a0000000000000000000000000000000000000000000000000000000008152600401610af390611734565b60405180910390fd5b610b4783837f000000000000000000000000000000000000000000000000000000000000000073ffffffffffffffffffffffffffffffffffffffff166110709092919063ffffffff16565b81905092915050565b60025481565b610b5e610f05565b73ffffffffffffffffffffffffffffffffffffffff16610b7c610655565b73ffffffffffffffffffffffffffffffffffffffff1614610bd2576040517f08c379a0000000000000000000000000000000000000000000000000000000008152600401610bc9906117d4565b60405180910390fd5b600073ffffffffffffffffffffffffffffffffffffffff168173ffffffffffffffffffffffffffffffffffffffff161415610c42576040517f08c379a0000000000000000000000000000000000000000000000000000000008152600401610c3990611754565b60405180910390fd5b610c4b81610f0d565b50565b600080600160003373ffffffffffffffffffffffffffffffffffffffff1673ffffffffffffffffffffffffffffffffffffffff16815260200190815260200160002060405180606001604052908160008201548152602001600182015481526020016002820160009054906101000a900460ff1615151515815250509050600160003373ffffffffffffffffffffffffffffffffffffffff1673ffffffffffffffffffffffffffffffffffffffff16815260200190815260200160002060008082016000905560018201600090556002820160006101000a81549060ff02191690555050610d4b8160000151600354610e5790919063ffffffff16565b600381905550610da03382600001517f000000000000000000000000000000000000000000000000000000000000000073ffffffffffffffffffffffffffffffffffffffff166110709092919063ffffffff16565b806000015191505090565b600160003373ffffffffffffffffffffffffffffffffffffffff1673ffffffffffffffffffffffffffffffffffffffff16815260200190815260200160002060020160009054906101000a900460ff1615600160003373ffffffffffffffffffffffffffffffffffffffff1673ffffffffffffffffffffffffffffffffffffffff16815260200190815260200160002060020160006101000a81548160ff021916908315150217905550565b60008183610e65919061190e565b905092915050565b60007f000000000000000000000000000000000000000000000000000000000000000073ffffffffffffffffffffffffffffffffffffffff166340c10f1984846040518363ffffffff1660e01b8152600401610eca9291906116ce565b600060405180830381600087803b158015610ee457600080fd5b505af1158015610ef8573d6000803e3d6000fd5b5050505081905092915050565b600033905090565b60008060009054906101000a900473ffffffffffffffffffffffffffffffffffffffff169050816000806101000a81548173ffffffffffffffffffffffffffffffffffffffff021916908373ffffffffffffffffffffffffffffffffffffffff1602179055508173ffffffffffffffffffffffffffffffffffffffff168173ffffffffffffffffffffffffffffffffffffffff167f8be0079c531659141344cd1fd0a4f28419497f9722a3daafe3b4186f6b6457e060405160405180910390a35050565b611054846323b872dd60e01b858585604051602401610ff293929190611697565b604051602081830303815290604052907bffffffffffffffffffffffffffffffffffffffffffffffffffffffff19166020820180517bffffffffffffffffffffffffffffffffffffffffffffffffffffffff83818316178352505050506110f6565b50505050565b6000818361106891906118b8565b905092915050565b6110f18363a9059cbb60e01b848460405160240161108f9291906116ce565b604051602081830303815290604052907bffffffffffffffffffffffffffffffffffffffffffffffffffffffff19166020820180517bffffffffffffffffffffffffffffffffffffffffffffffffffffffff83818316178352505050506110f6565b505050565b6000611158826040518060400160405280602081526020017f5361666545524332303a206c6f772d6c6576656c2063616c6c206661696c65648152508573ffffffffffffffffffffffffffffffffffffffff166111bd9092919063ffffffff16565b90506000815111156111b85780806020019051810190611178919061142c565b6111b7576040517f08c379a00000000000000000000000000000000000000000000000000000000081526004016111ae90611814565b60405180910390fd5b5b505050565b60606111cc84846000856111d5565b90509392505050565b60608247101561121a576040517f08c379a0000000000000000000000000000000000000000000000000000000008152600401611211906117b4565b60405180910390fd5b611223856112e9565b611262576040517f08c379a0000000000000000000000000000000000000000000000000000000008152600401611259906117f4565b60405180910390fd5b6000808673ffffffffffffffffffffffffffffffffffffffff16858760405161128b9190611665565b60006040518083038185875af1925050503d80600081146112c8576040519150601f19603f3d011682016040523d82523d6000602084013e6112cd565b606091505b50915091506112dd82828661130c565b92505050949350505050565b6000808273ffffffffffffffffffffffffffffffffffffffff163b119050919050565b6060831561131c5782905061136c565b60008351111561132f5782518084602001fd5b816040517f08c379a00000000000000000000000000000000000000000000000000000000081526004016113639190611712565b60405180910390fd5b9392505050565b60008135905061138281611c4d565b92915050565b60008151905061139781611c64565b92915050565b6000813590506113ac81611c7b565b92915050565b6000815190506113c181611c7b565b92915050565b6000602082840312156113d957600080fd5b60006113e784828501611373565b91505092915050565b6000806040838503121561140357600080fd5b600061141185828601611373565b92505060206114228582860161139d565b9150509250929050565b60006020828403121561143e57600080fd5b600061144c84828501611388565b91505092915050565b60006020828403121561146757600080fd5b60006114758482850161139d565b91505092915050565b60006020828403121561149057600080fd5b600061149e848285016113b2565b91505092915050565b6114b081611942565b82525050565b6114bf81611954565b82525050565b60006114d082611886565b6114da818561189c565b93506114ea8185602086016119ae565b80840191505092915050565b6114ff8161198a565b82525050565b600061151082611891565b61151a81856118a7565b935061152a8185602086016119ae565b61153381611a10565b840191505092915050565b600061154b6025836118a7565b915061155682611a21565b604082019050919050565b600061156e6026836118a7565b915061157982611a70565b604082019050919050565b60006115916028836118a7565b915061159c82611abf565b604082019050919050565b60006115b46026836118a7565b91506115bf82611b0e565b604082019050919050565b60006115d76026836118a7565b91506115e282611b5d565b604082019050919050565b60006115fa6020836118a7565b915061160582611bac565b602082019050919050565b600061161d601d836118a7565b915061162882611bd5565b602082019050919050565b6000611640602a836118a7565b915061164b82611bfe565b604082019050919050565b61165f81611980565b82525050565b600061167182846114c5565b915081905092915050565b600060208201905061169160008301846114a7565b92915050565b60006060820190506116ac60008301866114a7565b6116b960208301856114a7565b6116c66040830184611656565b949350505050565b60006040820190506116e360008301856114a7565b6116f06020830184611656565b9392505050565b600060208201905061170c60008301846114f6565b92915050565b6000602082019050818103600083015261172c8184611505565b905092915050565b6000602082019050818103600083015261174d8161153e565b9050919050565b6000602082019050818103600083015261176d81611561565b9050919050565b6000602082019050818103600083015261178d81611584565b9050919050565b600060208201905081810360008301526117ad816115a7565b9050919050565b600060208201905081810360008301526117cd816115ca565b9050919050565b600060208201905081810360008301526117ed816115ed565b9050919050565b6000602082019050818103600083015261180d81611610565b9050919050565b6000602082019050818103600083015261182d81611633565b9050919050565b60006020820190506118496000830184611656565b92915050565b60006060820190506118646000830186611656565b6118716020830185611656565b61187e60408301846114b6565b949350505050565b600081519050919050565b600081519050919050565b600081905092915050565b600082825260208201905092915050565b60006118c382611980565b91506118ce83611980565b9250827fffffffffffffffffffffffffffffffffffffffffffffffffffffffffffffffff03821115611903576119026119e1565b5b828201905092915050565b600061191982611980565b915061192483611980565b925082821015611937576119366119e1565b5b828203905092915050565b600061194d82611960565b9050919050565b60008115159050919050565b600073ffffffffffffffffffffffffffffffffffffffff82169050919050565b6000819050919050565b60006119958261199c565b9050919050565b60006119a782611960565b9050919050565b60005b838110156119cc5780820151818401526020810190506119b1565b838111156119db576000848401525b50505050565b7f4e487b7100000000000000000000000000000000000000000000000000000000600052601160045260246000fd5b6000601f19601f8301169050919050565b7f496e73756666696369656e74204f52434c2062616c616e636520696e20636f6e60008201527f7472616374000000000000000000000000000000000000000000000000000000602082015250565b7f4f776e61626c653a206e6577206f776e657220697320746865207a65726f206160008201527f6464726573730000000000000000000000000000000000000000000000000000602082015250565b7f45787465726e616c206465706f7369747320666f72206163636f756e7420617260008201527f65206c6f636b6564000000000000000000000000000000000000000000000000602082015250565b7f45787465726e616c20636c61696d7320666f72206163636f756e74206172652060008201527f6c6f636b65640000000000000000000000000000000000000000000000000000602082015250565b7f416464726573733a20696e73756666696369656e742062616c616e636520666f60008201527f722063616c6c0000000000000000000000000000000000000000000000000000602082015250565b7f4f776e61626c653a2063616c6c6572206973206e6f7420746865206f776e6572600082015250565b7f416464726573733a2063616c6c20746f206e6f6e2d636f6e7472616374000000600082015250565b7f5361666545524332303a204552433230206f7065726174696f6e20646964206e60008201527f6f74207375636365656400000000000000000000000000000000000000000000602082015250565b611c5681611942565b8114611c6157600080fd5b50565b611c6d81611954565b8114611c7857600080fd5b50565b611c8481611980565b8114611c8f57600080fd5b5056fea2646970667358221220a464555cad41b4e6ebc22b4eb745bf75a0b676120e8fa907c016b5e2fee5783b64736f6c63430008040033",
  "linkReferences": {},
  "deployedLinkReferences": {}
}