{
  "_format": "hh-sol-artifact-1",
  "contractName": "TAVCalculator",
  "sourceName": "contracts/coreContracts/TAVCalculator.sol",
  "abi": [
    {
      "inputs": [
        {
          "internalType": "address",
          "name": "_orfi",
          "type": "address"
        },
        {
          "internalType": "address",
          "name": "_treasury",
          "type": "address"
        }
      ],
      "stateMutability": "nonpayable",
      "type": "constructor"
    },
    {
      "anonymous": false,
      "inputs": [
        {
          "indexed": true,
          "internalType": "address",
          "name": "assetManagerAddress",
          "type": "address"
        }
      ],
      "name": "AssetManagerAdded",
      "type": "event"
    },
    {
      "inputs": [],
      "name": "ORFI",
      "outputs": [
        {
          "internalType": "contract IORFI",
          "name": "",
          "type": "address"
        }
      ],
      "stateMutability": "view",
      "type": "function"
    },
    {
      "inputs": [],
      "name": "_owner",
      "outputs": [
        {
          "internalType": "address",
          "name": "",
          "type": "address"
        }
      ],
      "stateMutability": "view",
      "type": "function"
    },
    {
      "inputs": [
        {
          "internalType": "address",
          "name": "assetManager_",
          "type": "address"
        }
      ],
      "name": "addAssetManager",
      "outputs": [],
      "stateMutability": "nonpayable",
      "type": "function"
    },
    {
      "inputs": [
        {
          "internalType": "address",
          "name": "account_",
          "type": "address"
        }
      ],
      "name": "blacklistAddress",
      "outputs": [],
      "stateMutability": "nonpayable",
      "type": "function"
    },
    {
      "inputs": [],
      "name": "calculateTAV",
      "outputs": [
        {
          "internalType": "uint256",
          "name": "_TAV",
          "type": "uint256"
        }
      ],
      "stateMutability": "view",
      "type": "function"
    },
    {
      "inputs": [
        {
          "internalType": "address",
          "name": "account_",
          "type": "address"
        }
      ],
      "name": "whitelistAddress",
      "outputs": [],
      "stateMutability": "nonpayable",
      "type": "function"
    }
  ],
  "bytecode": "0x60a06040523480156200001157600080fd5b506040516200150a3803806200150a8339818101604052810190620000379190620001a7565b33600160006101000a81548173ffffffffffffffffffffffffffffffffffffffff021916908373ffffffffffffffffffffffffffffffffffffffff160217905550600073ffffffffffffffffffffffffffffffffffffffff168273ffffffffffffffffffffffffffffffffffffffff161415620000b357600080fd5b8173ffffffffffffffffffffffffffffffffffffffff1660808173ffffffffffffffffffffffffffffffffffffffff1660601b81525050600073ffffffffffffffffffffffffffffffffffffffff168173ffffffffffffffffffffffffffffffffffffffff1614156200012557600080fd5b6000819080600181540180825580915050600190039060005260206000200160009091909190916101000a81548173ffffffffffffffffffffffffffffffffffffffff021916908373ffffffffffffffffffffffffffffffffffffffff160217905550505062000236565b600081519050620001a1816200021c565b92915050565b60008060408385031215620001bb57600080fd5b6000620001cb8582860162000190565b9250506020620001de8582860162000190565b9150509250929050565b6000620001f582620001fc565b9050919050565b600073ffffffffffffffffffffffffffffffffffffffff82169050919050565b6200022781620001e8565b81146200023357600080fd5b50565b60805160601c6112ae6200025c6000396000818161023301526103cd01526112ae6000f3fe608060405234801561001057600080fd5b50600436106100625760003560e01c806341566585146100675780636d90e5b814610083578063987ea899146100a1578063ac3b992a146100bd578063b2bdfa7b146100db578063f3290d75146100f9575b600080fd5b610081600480360381019061007c9190610d77565b610115565b005b61008b610231565b6040516100989190610e9d565b60405180910390f35b6100bb60048036038101906100b69190610d77565b610255565b005b6100c56103c8565b6040516100d29190610f38565b60405180910390f35b6100e3610645565b6040516100f09190610e82565b60405180910390f35b610113600480360381019061010e9190610d77565b61066b565b005b600160009054906101000a900473ffffffffffffffffffffffffffffffffffffffff1673ffffffffffffffffffffffffffffffffffffffff163373ffffffffffffffffffffffffffffffffffffffff16146101a5576040517f08c379a000000000000000000000000000000000000000000000000000000000815260040161019c90610eb8565b60405180910390fd5b600073ffffffffffffffffffffffffffffffffffffffff168173ffffffffffffffffffffffffffffffffffffffff1614156101df57600080fd5b600260008273ffffffffffffffffffffffffffffffffffffffff1673ffffffffffffffffffffffffffffffffffffffff16815260200190815260200160002060006101000a81549060ff021916905550565b7f000000000000000000000000000000000000000000000000000000000000000081565b600160009054906101000a900473ffffffffffffffffffffffffffffffffffffffff1673ffffffffffffffffffffffffffffffffffffffff163373ffffffffffffffffffffffffffffffffffffffff16146102e5576040517f08c379a00000000000000000000000000000000000000000000000000000000081526004016102dc90610eb8565b60405180910390fd5b600073ffffffffffffffffffffffffffffffffffffffff168173ffffffffffffffffffffffffffffffffffffffff16141561031f57600080fd5b8073ffffffffffffffffffffffffffffffffffffffff167f8cf4dd2d46ca2e74b9cc238f9e9c907b5a6a50e2f652162a062d5e8129f35d7a60405160405180910390a26000819080600181540180825580915050600190039060005260206000200160009091909190916101000a81548173ffffffffffffffffffffffffffffffffffffffff021916908373ffffffffffffffffffffffffffffffffffffffff16021790555050565b6000807f000000000000000000000000000000000000000000000000000000000000000073ffffffffffffffffffffffffffffffffffffffff166318160ddd6040518163ffffffff1660e01b815260040160206040518083038186803b15801561043157600080fd5b505afa158015610445573d6000803e3d6000fd5b505050506040513d601f19601f820116820180604052508101906104699190610da0565b90506000805b60008054905081101561063357600260008083815481106104b9577f4e487b7100000000000000000000000000000000000000000000000000000000600052603260045260246000fd5b9060005260206000200160009054906101000a900473ffffffffffffffffffffffffffffffffffffffff1673ffffffffffffffffffffffffffffffffffffffff1673ffffffffffffffffffffffffffffffffffffffff16815260200190815260200160002060009054906101000a900460ff16610620576000818154811061056a577f4e487b7100000000000000000000000000000000000000000000000000000000600052603260045260246000fd5b9060005260206000200160009054906101000a900473ffffffffffffffffffffffffffffffffffffffff1673ffffffffffffffffffffffffffffffffffffffff16638f840ddd6040518163ffffffff1660e01b815260040160206040518083038186803b1580156105da57600080fd5b505afa1580156105ee573d6000803e3d6000fd5b505050506040513d601f19601f820116820180604052508101906106129190610da0565b8261061d9190610f64565b91505b808061062b906110d9565b91505061046f565b5061063e8183610790565b9250505090565b600160009054906101000a900473ffffffffffffffffffffffffffffffffffffffff1681565b600160009054906101000a900473ffffffffffffffffffffffffffffffffffffffff1673ffffffffffffffffffffffffffffffffffffffff163373ffffffffffffffffffffffffffffffffffffffff16146106fb576040517f08c379a00000000000000000000000000000000000000000000000000000000081526004016106f290610eb8565b60405180910390fd5b600073ffffffffffffffffffffffffffffffffffffffff168173ffffffffffffffffffffffffffffffffffffffff16141561073557600080fd5b6001600260008373ffffffffffffffffffffffffffffffffffffffff1673ffffffffffffffffffffffffffffffffffffffff16815260200190815260200160002060006101000a81548160ff02191690831515021790555050565b6000633b9aca006107a96107a485856107bb565b6109c2565b6107b39190610fba565b905092915050565b6107c3610d1c565b60008211610806576040517f08c379a00000000000000000000000000000000000000000000000000000000081526004016107fd90610ed8565b60405180910390fd5b600083141561084457604051806020016040528060007bffffffffffffffffffffffffffffffffffffffffffffffffffffffff1681525090506109bc565b71ffffffffffffffffffffffffffffffffffff8016831161090c57600082607060ff1685901b6108749190610fba565b90507bffffffffffffffffffffffffffffffffffffffffffffffffffffffff80168111156108d7576040517f08c379a00000000000000000000000000000000000000000000000000000000081526004016108ce90610f18565b60405180910390fd5b6040518060200160405280827bffffffffffffffffffffffffffffffffffffffffffffffffffffffff168152509150506109bc565b6000610928846e01000000000000000000000000000085610a00565b90507bffffffffffffffffffffffffffffffffffffffffffffffffffffffff801681111561098b576040517f08c379a000000000000000000000000000000000000000000000000000000000815260040161098290610f18565b60405180910390fd5b6040518060200160405280827bffffffffffffffffffffffffffffffffffffffffffffffffffffffff168152509150505b92915050565b60006612725dd1d243ab82600001517bffffffffffffffffffffffffffffffffffffffffffffffffffffffff166109f99190610fba565b9050919050565b6000806000610a0f8686610ace565b9150915060008480610a4a577f4e487b7100000000000000000000000000000000000000000000000000000000600052601260045260246000fd5b868809905082811115610a6757600182610a649190611045565b91505b8083610a739190611045565b9250848210610ab7576040517f08c379a0000000000000000000000000000000000000000000000000000000008152600401610aae90610ef8565b60405180910390fd5b610ac2838387610b69565b93505050509392505050565b60008060007fffffffffffffffffffffffffffffffffffffffffffffffffffffffffffffffff80610b28577f4e487b7100000000000000000000000000000000000000000000000000000000600052601260045260246000fd5b84860990508385610b399190610feb565b92508281610b479190611045565b915082811015610b6157600182610b5e9190611045565b91505b509250929050565b60008060018319610b7a9190610f64565b831690508083610b8a9190610fba565b92508085610b989190610fba565b945060018160018319610bab9190610f64565b610bb59190610fba565b610bbf9190610f64565b84610bca9190610feb565b85610bd59190610f64565b94506000600190508084610be99190610feb565b6002610bf59190611045565b81610c009190610feb565b90508084610c0e9190610feb565b6002610c1a9190611045565b81610c259190610feb565b90508084610c339190610feb565b6002610c3f9190611045565b81610c4a9190610feb565b90508084610c589190610feb565b6002610c649190611045565b81610c6f9190610feb565b90508084610c7d9190610feb565b6002610c899190611045565b81610c949190610feb565b90508084610ca29190610feb565b6002610cae9190611045565b81610cb99190610feb565b90508084610cc79190610feb565b6002610cd39190611045565b81610cde9190610feb565b90508084610cec9190610feb565b6002610cf89190611045565b81610d039190610feb565b90508086610d119190610feb565b925050509392505050565b604051806020016040528060007bffffffffffffffffffffffffffffffffffffffffffffffffffffffff1681525090565b600081359050610d5c8161124a565b92915050565b600081519050610d7181611261565b92915050565b600060208284031215610d8957600080fd5b6000610d9784828501610d4d565b91505092915050565b600060208284031215610db257600080fd5b6000610dc084828501610d62565b91505092915050565b610dd281611079565b82525050565b610de1816110b5565b82525050565b6000610df4600e83610f53565b9150610dff82611180565b602082019050919050565b6000610e17602683610f53565b9150610e22826111a9565b604082019050919050565b6000610e3a601a83610f53565b9150610e45826111f8565b602082019050919050565b6000610e5d601e83610f53565b9150610e6882611221565b602082019050919050565b610e7c816110ab565b82525050565b6000602082019050610e976000830184610dc9565b92915050565b6000602082019050610eb26000830184610dd8565b92915050565b60006020820190508181036000830152610ed181610de7565b9050919050565b60006020820190508181036000830152610ef181610e0a565b9050919050565b60006020820190508181036000830152610f1181610e2d565b9050919050565b60006020820190508181036000830152610f3181610e50565b9050919050565b6000602082019050610f4d6000830184610e73565b92915050565b600082825260208201905092915050565b6000610f6f826110ab565b9150610f7a836110ab565b9250827fffffffffffffffffffffffffffffffffffffffffffffffffffffffffffffffff03821115610faf57610fae611122565b5b828201905092915050565b6000610fc5826110ab565b9150610fd0836110ab565b925082610fe057610fdf611151565b5b828204905092915050565b6000610ff6826110ab565b9150611001836110ab565b9250817fffffffffffffffffffffffffffffffffffffffffffffffffffffffffffffffff048311821515161561103a57611039611122565b5b828202905092915050565b6000611050826110ab565b915061105b836110ab565b92508282101561106e5761106d611122565b5b828203905092915050565b60006110848261108b565b9050919050565b600073ffffffffffffffffffffffffffffffffffffffff82169050919050565b6000819050919050565b60006110c0826110c7565b9050919050565b60006110d28261108b565b9050919050565b60006110e4826110ab565b91507fffffffffffffffffffffffffffffffffffffffffffffffffffffffffffffffff82141561111757611116611122565b5b600182019050919050565b7f4e487b7100000000000000000000000000000000000000000000000000000000600052601160045260246000fd5b7f4e487b7100000000000000000000000000000000000000000000000000000000600052601260045260246000fd5b7f496e76616c69642043616c6c6572000000000000000000000000000000000000600082015250565b7f4669786564506f696e743a3a6672616374696f6e3a206469766973696f6e206260008201527f79207a65726f0000000000000000000000000000000000000000000000000000602082015250565b7f46756c6c4d6174683a3a6d756c4469763a206f766572666c6f77000000000000600082015250565b7f4669786564506f696e743a3a6672616374696f6e3a206f766572666c6f770000600082015250565b61125381611079565b811461125e57600080fd5b50565b61126a816110ab565b811461127557600080fd5b5056fea26469706673582212209b71754d7da7933505070d94c5750fa06ec88cf94ab3afe41fceca7fdc18ca2664736f6c63430008040033",
  "linkReferences": {},
  "deployedLinkReferences": {}
}