{
  "_format": "hh-sol-artifact-1",
  "contractName": "TAVCalculator",
  "sourceName": "contracts/TAVCalculator.sol",
  "abi": [
    {
      "inputs": [
        {
          "internalType": "address",
          "name": "_orcl",
          "type": "address"
        },
        {
          "internalType": "address",
          "name": "_treasury",
          "type": "address"
        }
      ],
      "stateMutability": "nonpayable",
      "type": "constructor"
    },
    {
      "inputs": [],
      "name": "ORCL",
      "outputs": [
        {
          "internalType": "contract IORCL",
          "name": "",
          "type": "address"
        }
      ],
      "stateMutability": "view",
      "type": "function"
    },
    {
      "inputs": [],
      "name": "calculateTAV",
      "outputs": [
        {
          "internalType": "uint256",
          "name": "_TAV",
          "type": "uint256"
        }
      ],
      "stateMutability": "view",
      "type": "function"
    }
  ],
  "bytecode": "0x60a060405234801561001057600080fd5b50604051610ed7380380610ed78339818101604052810190610032919061015c565b600073ffffffffffffffffffffffffffffffffffffffff168273ffffffffffffffffffffffffffffffffffffffff16141561006c57600080fd5b8173ffffffffffffffffffffffffffffffffffffffff1660808173ffffffffffffffffffffffffffffffffffffffff1660601b81525050600073ffffffffffffffffffffffffffffffffffffffff168173ffffffffffffffffffffffffffffffffffffffff1614156100dd57600080fd5b6000819080600181540180825580915050600190039060005260206000200160009091909190916101000a81548173ffffffffffffffffffffffffffffffffffffffff021916908373ffffffffffffffffffffffffffffffffffffffff16021790555050506101e1565b600081519050610156816101ca565b92915050565b6000806040838503121561016f57600080fd5b600061017d85828601610147565b925050602061018e85828601610147565b9150509250929050565b60006101a3826101aa565b9050919050565b600073ffffffffffffffffffffffffffffffffffffffff82169050919050565b6101d381610198565b81146101de57600080fd5b50565b60805160601c610cd3610204600039600081816079015260a00152610cd36000f3fe608060405234801561001057600080fd5b50600436106100365760003560e01c806333483ffd1461003b578063ac3b992a14610059575b600080fd5b610043610077565b6040516100509190610934565b60405180910390f35b61006161009b565b60405161006e91906109af565b60405180910390f35b7f000000000000000000000000000000000000000000000000000000000000000081565b6000807f000000000000000000000000000000000000000000000000000000000000000073ffffffffffffffffffffffffffffffffffffffff166318160ddd6040518163ffffffff1660e01b815260040160206040518083038186803b15801561010457600080fd5b505afa158015610118573d6000803e3d6000fd5b505050506040513d601f19601f8201168201806040525081019061013c9190610884565b90506000805b6000805490508110156102515760008181548110610189577f4e487b7100000000000000000000000000000000000000000000000000000000600052603260045260246000fd5b9060005260206000200160009054906101000a900473ffffffffffffffffffffffffffffffffffffffff1673ffffffffffffffffffffffffffffffffffffffff16638f840ddd6040518163ffffffff1660e01b815260040160206040518083038186803b1580156101f957600080fd5b505afa15801561020d573d6000803e3d6000fd5b505050506040513d601f19601f820116820180604052508101906102319190610884565b8261023c91906109db565b9150808061024990610b3e565b915050610142565b5061025c8183610263565b9250505090565b600061029e62989680662386f26fc1000061028661028187876102a6565b6104ad565b6102909190610a31565b6104eb90919063ffffffff16565b905092915050565b6102ae61083e565b600082116102f1576040517f08c379a00000000000000000000000000000000000000000000000000000000081526004016102e89061094f565b60405180910390fd5b600083141561032f57604051806020016040528060007bffffffffffffffffffffffffffffffffffffffffffffffffffffffff1681525090506104a7565b71ffffffffffffffffffffffffffffffffffff801683116103f757600082607060ff1685901b61035f9190610a31565b90507bffffffffffffffffffffffffffffffffffffffffffffffffffffffff80168111156103c2576040517f08c379a00000000000000000000000000000000000000000000000000000000081526004016103b99061098f565b60405180910390fd5b6040518060200160405280827bffffffffffffffffffffffffffffffffffffffffffffffffffffffff168152509150506104a7565b6000610413846e01000000000000000000000000000085610522565b90507bffffffffffffffffffffffffffffffffffffffffffffffffffffffff8016811115610476576040517f08c379a000000000000000000000000000000000000000000000000000000000815260040161046d9061098f565b60405180910390fd5b6040518060200160405280827bffffffffffffffffffffffffffffffffffffffffffffffffffffffff168152509150505b92915050565b60006612725dd1d243ab82600001517bffffffffffffffffffffffffffffffffffffffffffffffffffffffff166104e49190610a31565b9050919050565b6000808314806105135750818383856105049190610a62565b9250826105119190610a31565b145b61051c57600080fd5b92915050565b600080600061053186866105f0565b915091506000848061056c577f4e487b7100000000000000000000000000000000000000000000000000000000600052601260045260246000fd5b868809905082811115610589576001826105869190610abc565b91505b80836105959190610abc565b92508482106105d9576040517f08c379a00000000000000000000000000000000000000000000000000000000081526004016105d09061096f565b60405180910390fd5b6105e483838761068b565b93505050509392505050565b60008060007fffffffffffffffffffffffffffffffffffffffffffffffffffffffffffffffff8061064a577f4e487b7100000000000000000000000000000000000000000000000000000000600052601260045260246000fd5b8486099050838561065b9190610a62565b925082816106699190610abc565b915082811015610683576001826106809190610abc565b91505b509250929050565b6000806001831961069c91906109db565b8316905080836106ac9190610a31565b925080856106ba9190610a31565b9450600181600183196106cd91906109db565b6106d79190610a31565b6106e191906109db565b846106ec9190610a62565b856106f791906109db565b9450600060019050808461070b9190610a62565b60026107179190610abc565b816107229190610a62565b905080846107309190610a62565b600261073c9190610abc565b816107479190610a62565b905080846107559190610a62565b60026107619190610abc565b8161076c9190610a62565b9050808461077a9190610a62565b60026107869190610abc565b816107919190610a62565b9050808461079f9190610a62565b60026107ab9190610abc565b816107b69190610a62565b905080846107c49190610a62565b60026107d09190610abc565b816107db9190610a62565b905080846107e99190610a62565b60026107f59190610abc565b816108009190610a62565b9050808461080e9190610a62565b600261081a9190610abc565b816108259190610a62565b905080866108339190610a62565b925050509392505050565b604051806020016040528060007bffffffffffffffffffffffffffffffffffffffffffffffffffffffff1681525090565b60008151905061087e81610c86565b92915050565b60006020828403121561089657600080fd5b60006108a48482850161086f565b91505092915050565b6108b681610b1a565b82525050565b60006108c96026836109ca565b91506108d482610be5565b604082019050919050565b60006108ec601a836109ca565b91506108f782610c34565b602082019050919050565b600061090f601e836109ca565b915061091a82610c5d565b602082019050919050565b61092e81610b10565b82525050565b600060208201905061094960008301846108ad565b92915050565b60006020820190508181036000830152610968816108bc565b9050919050565b60006020820190508181036000830152610988816108df565b9050919050565b600060208201905081810360008301526109a881610902565b9050919050565b60006020820190506109c46000830184610925565b92915050565b600082825260208201905092915050565b60006109e682610b10565b91506109f183610b10565b9250827fffffffffffffffffffffffffffffffffffffffffffffffffffffffffffffffff03821115610a2657610a25610b87565b5b828201905092915050565b6000610a3c82610b10565b9150610a4783610b10565b925082610a5757610a56610bb6565b5b828204905092915050565b6000610a6d82610b10565b9150610a7883610b10565b9250817fffffffffffffffffffffffffffffffffffffffffffffffffffffffffffffffff0483118215151615610ab157610ab0610b87565b5b828202905092915050565b6000610ac782610b10565b9150610ad283610b10565b925082821015610ae557610ae4610b87565b5b828203905092915050565b600073ffffffffffffffffffffffffffffffffffffffff82169050919050565b6000819050919050565b6000610b2582610b2c565b9050919050565b6000610b3782610af0565b9050919050565b6000610b4982610b10565b91507fffffffffffffffffffffffffffffffffffffffffffffffffffffffffffffffff821415610b7c57610b7b610b87565b5b600182019050919050565b7f4e487b7100000000000000000000000000000000000000000000000000000000600052601160045260246000fd5b7f4e487b7100000000000000000000000000000000000000000000000000000000600052601260045260246000fd5b7f4669786564506f696e743a3a6672616374696f6e3a206469766973696f6e206260008201527f79207a65726f0000000000000000000000000000000000000000000000000000602082015250565b7f46756c6c4d6174683a3a6d756c4469763a206f766572666c6f77000000000000600082015250565b7f4669786564506f696e743a3a6672616374696f6e3a206f766572666c6f770000600082015250565b610c8f81610b10565b8114610c9a57600080fd5b5056fea2646970667358221220684f043ff21bb371d838070993c489eb50f3df0eb62da11c285fb14d3ba35a0764736f6c63430008040033",
  "linkReferences": {},
  "deployedLinkReferences": {}
}