{
  "_format": "hh-sol-artifact-1",
  "contractName": "TAVCalculator",
  "sourceName": "contracts/TAVCalculator.sol",
  "abi": [
    {
      "inputs": [
        {
          "internalType": "address",
          "name": "_orcl",
          "type": "address"
        },
        {
          "internalType": "address",
          "name": "_treasury",
          "type": "address"
        }
      ],
      "stateMutability": "nonpayable",
      "type": "constructor"
    },
    {
      "inputs": [],
      "name": "ORCL",
      "outputs": [
        {
          "internalType": "contract IORCL",
          "name": "",
          "type": "address"
        }
      ],
      "stateMutability": "view",
      "type": "function"
    },
    {
      "inputs": [],
      "name": "calculateTAV",
      "outputs": [
        {
          "internalType": "uint256",
          "name": "_TAV",
          "type": "uint256"
        }
      ],
      "stateMutability": "view",
      "type": "function"
    }
  ],
  "bytecode": "0x60a060405234801561001057600080fd5b50604051610e88380380610e888339818101604052810190610032919061015c565b600073ffffffffffffffffffffffffffffffffffffffff168273ffffffffffffffffffffffffffffffffffffffff16141561006c57600080fd5b8173ffffffffffffffffffffffffffffffffffffffff1660808173ffffffffffffffffffffffffffffffffffffffff1660601b81525050600073ffffffffffffffffffffffffffffffffffffffff168173ffffffffffffffffffffffffffffffffffffffff1614156100dd57600080fd5b6000819080600181540180825580915050600190039060005260206000200160009091909190916101000a81548173ffffffffffffffffffffffffffffffffffffffff021916908373ffffffffffffffffffffffffffffffffffffffff16021790555050506101e1565b600081519050610156816101ca565b92915050565b6000806040838503121561016f57600080fd5b600061017d85828601610147565b925050602061018e85828601610147565b9150509250929050565b60006101a3826101aa565b9050919050565b600073ffffffffffffffffffffffffffffffffffffffff82169050919050565b6101d381610198565b81146101de57600080fd5b50565b60805160601c610c84610204600039600081816079015260a00152610c846000f3fe608060405234801561001057600080fd5b50600436106100365760003560e01c806333483ffd1461003b578063ac3b992a14610059575b600080fd5b610043610077565b60405161005091906108e5565b60405180910390f35b61006161009b565b60405161006e9190610960565b60405180910390f35b7f000000000000000000000000000000000000000000000000000000000000000081565b6000807f000000000000000000000000000000000000000000000000000000000000000073ffffffffffffffffffffffffffffffffffffffff166318160ddd6040518163ffffffff1660e01b815260040160206040518083038186803b15801561010457600080fd5b505afa158015610118573d6000803e3d6000fd5b505050506040513d601f19601f8201168201806040525081019061013c9190610835565b90506000805b6000805490508110156102515760008181548110610189577f4e487b7100000000000000000000000000000000000000000000000000000000600052603260045260246000fd5b9060005260206000200160009054906101000a900473ffffffffffffffffffffffffffffffffffffffff1673ffffffffffffffffffffffffffffffffffffffff16638f840ddd6040518163ffffffff1660e01b815260040160206040518083038186803b1580156101f957600080fd5b505afa15801561020d573d6000803e3d6000fd5b505050506040513d601f19601f820116820180604052508101906102319190610835565b8261023c919061098c565b9150808061024990610aef565b915050610142565b5061025c8183610263565b9250505090565b6000633b9aca0061027c610277858561028e565b610495565b61028691906109e2565b905092915050565b6102966107ef565b600082116102d9576040517f08c379a00000000000000000000000000000000000000000000000000000000081526004016102d090610900565b60405180910390fd5b600083141561031757604051806020016040528060007bffffffffffffffffffffffffffffffffffffffffffffffffffffffff16815250905061048f565b71ffffffffffffffffffffffffffffffffffff801683116103df57600082607060ff1685901b61034791906109e2565b90507bffffffffffffffffffffffffffffffffffffffffffffffffffffffff80168111156103aa576040517f08c379a00000000000000000000000000000000000000000000000000000000081526004016103a190610940565b60405180910390fd5b6040518060200160405280827bffffffffffffffffffffffffffffffffffffffffffffffffffffffff1681525091505061048f565b60006103fb846e010000000000000000000000000000856104d3565b90507bffffffffffffffffffffffffffffffffffffffffffffffffffffffff801681111561045e576040517f08c379a000000000000000000000000000000000000000000000000000000000815260040161045590610940565b60405180910390fd5b6040518060200160405280827bffffffffffffffffffffffffffffffffffffffffffffffffffffffff168152509150505b92915050565b60006612725dd1d243ab82600001517bffffffffffffffffffffffffffffffffffffffffffffffffffffffff166104cc91906109e2565b9050919050565b60008060006104e286866105a1565b915091506000848061051d577f4e487b7100000000000000000000000000000000000000000000000000000000600052601260045260246000fd5b86880990508281111561053a576001826105379190610a6d565b91505b80836105469190610a6d565b925084821061058a576040517f08c379a000000000000000000000000000000000000000000000000000000000815260040161058190610920565b60405180910390fd5b61059583838761063c565b93505050509392505050565b60008060007fffffffffffffffffffffffffffffffffffffffffffffffffffffffffffffffff806105fb577f4e487b7100000000000000000000000000000000000000000000000000000000600052601260045260246000fd5b8486099050838561060c9190610a13565b9250828161061a9190610a6d565b915082811015610634576001826106319190610a6d565b91505b509250929050565b6000806001831961064d919061098c565b83169050808361065d91906109e2565b9250808561066b91906109e2565b94506001816001831961067e919061098c565b61068891906109e2565b610692919061098c565b8461069d9190610a13565b856106a8919061098c565b945060006001905080846106bc9190610a13565b60026106c89190610a6d565b816106d39190610a13565b905080846106e19190610a13565b60026106ed9190610a6d565b816106f89190610a13565b905080846107069190610a13565b60026107129190610a6d565b8161071d9190610a13565b9050808461072b9190610a13565b60026107379190610a6d565b816107429190610a13565b905080846107509190610a13565b600261075c9190610a6d565b816107679190610a13565b905080846107759190610a13565b60026107819190610a6d565b8161078c9190610a13565b9050808461079a9190610a13565b60026107a69190610a6d565b816107b19190610a13565b905080846107bf9190610a13565b60026107cb9190610a6d565b816107d69190610a13565b905080866107e49190610a13565b925050509392505050565b604051806020016040528060007bffffffffffffffffffffffffffffffffffffffffffffffffffffffff1681525090565b60008151905061082f81610c37565b92915050565b60006020828403121561084757600080fd5b600061085584828501610820565b91505092915050565b61086781610acb565b82525050565b600061087a60268361097b565b915061088582610b96565b604082019050919050565b600061089d601a8361097b565b91506108a882610be5565b602082019050919050565b60006108c0601e8361097b565b91506108cb82610c0e565b602082019050919050565b6108df81610ac1565b82525050565b60006020820190506108fa600083018461085e565b92915050565b600060208201905081810360008301526109198161086d565b9050919050565b6000602082019050818103600083015261093981610890565b9050919050565b60006020820190508181036000830152610959816108b3565b9050919050565b600060208201905061097560008301846108d6565b92915050565b600082825260208201905092915050565b600061099782610ac1565b91506109a283610ac1565b9250827fffffffffffffffffffffffffffffffffffffffffffffffffffffffffffffffff038211156109d7576109d6610b38565b5b828201905092915050565b60006109ed82610ac1565b91506109f883610ac1565b925082610a0857610a07610b67565b5b828204905092915050565b6000610a1e82610ac1565b9150610a2983610ac1565b9250817fffffffffffffffffffffffffffffffffffffffffffffffffffffffffffffffff0483118215151615610a6257610a61610b38565b5b828202905092915050565b6000610a7882610ac1565b9150610a8383610ac1565b925082821015610a9657610a95610b38565b5b828203905092915050565b600073ffffffffffffffffffffffffffffffffffffffff82169050919050565b6000819050919050565b6000610ad682610add565b9050919050565b6000610ae882610aa1565b9050919050565b6000610afa82610ac1565b91507fffffffffffffffffffffffffffffffffffffffffffffffffffffffffffffffff821415610b2d57610b2c610b38565b5b600182019050919050565b7f4e487b7100000000000000000000000000000000000000000000000000000000600052601160045260246000fd5b7f4e487b7100000000000000000000000000000000000000000000000000000000600052601260045260246000fd5b7f4669786564506f696e743a3a6672616374696f6e3a206469766973696f6e206260008201527f79207a65726f0000000000000000000000000000000000000000000000000000602082015250565b7f46756c6c4d6174683a3a6d756c4469763a206f766572666c6f77000000000000600082015250565b7f4669786564506f696e743a3a6672616374696f6e3a206f766572666c6f770000600082015250565b610c4081610ac1565b8114610c4b57600080fd5b5056fea2646970667358221220454f15ce19397b4e1977a8dc5351ff562a161486b1831920d4c7c326a1e46b8a64736f6c63430008040033",
  "linkReferences": {},
  "deployedLinkReferences": {}
}