{
  "_format": "hh-sol-artifact-1",
  "contractName": "TAVCalculator",
  "sourceName": "contracts/coreContracts/TAVCalculator.sol",
  "abi": [
    {
      "inputs": [
        {
          "internalType": "address",
          "name": "_orfi",
          "type": "address"
        },
        {
          "internalType": "address",
          "name": "_treasury",
          "type": "address"
        }
      ],
      "stateMutability": "nonpayable",
      "type": "constructor"
    },
    {
      "inputs": [],
      "name": "ORFI",
      "outputs": [
        {
          "internalType": "contract IORFI",
          "name": "",
          "type": "address"
        }
      ],
      "stateMutability": "view",
      "type": "function"
    },
    {
      "inputs": [],
      "name": "_owner",
      "outputs": [
        {
          "internalType": "address",
          "name": "",
          "type": "address"
        }
      ],
      "stateMutability": "view",
      "type": "function"
    },
    {
      "inputs": [
        {
          "internalType": "address",
          "name": "assetManager_",
          "type": "address"
        }
      ],
      "name": "addAssetManager",
      "outputs": [],
      "stateMutability": "nonpayable",
      "type": "function"
    },
    {
      "inputs": [],
      "name": "calculateTAV",
      "outputs": [
        {
          "internalType": "uint256",
          "name": "_TAV",
          "type": "uint256"
        }
      ],
      "stateMutability": "view",
      "type": "function"
    }
  ],
  "bytecode": "0x60a060405234801561001057600080fd5b5060405161095b38038061095b83398101604081905261002f916100e8565b600180546001600160a01b031916331790556001600160a01b03821661005457600080fd5b6001600160601b0319606083901b166080526001600160a01b03811661007957600080fd5b600080546001810182559080527f290decd9548b62a8d60345a988386fc84ba6bc95484008f6362f93160ef3e5630180546001600160a01b0319166001600160a01b03929092169190911790555061011a565b80516001600160a01b03811681146100e357600080fd5b919050565b600080604083850312156100fa578182fd5b610103836100cc565b9150610111602084016100cc565b90509250929050565b60805160601c61081d61013e600039600081816056015261018a015261081d6000f3fe608060405234801561001057600080fd5b506004361061004c5760003560e01c80636d90e5b814610051578063987ea89914610095578063ac3b992a146100aa578063b2bdfa7b146100c0575b600080fd5b6100787f000000000000000000000000000000000000000000000000000000000000000081565b6040516001600160a01b0390911681526020015b60405180910390f35b6100a86100a3366004610702565b6100d3565b005b6100b2610185565b60405190815260200161008c565b600154610078906001600160a01b031681565b6001546001600160a01b031633146101235760405162461bcd60e51b815260206004820152600e60248201526d24b73b30b634b21021b0b63632b960911b60448201526064015b60405180910390fd5b6001600160a01b03811661013657600080fd5b600080546001810182559080527f290decd9548b62a8d60345a988386fc84ba6bc95484008f6362f93160ef3e5630180546001600160a01b0319166001600160a01b0392909216919091179055565b6000807f00000000000000000000000000000000000000000000000000000000000000006001600160a01b03166318160ddd6040518163ffffffff1660e01b815260040160206040518083038186803b1580156101e157600080fd5b505afa1580156101f5573d6000803e3d6000fd5b505050506040513d601f19601f820116820180604052508101906102199190610730565b90506000805b6000548110156102e9576000818154811061024a57634e487b7160e01b600052603260045260246000fd5b6000918252602091829020015460408051638f840ddd60e01b815290516001600160a01b0390921692638f840ddd92600480840193829003018186803b15801561029357600080fd5b505afa1580156102a7573d6000803e3d6000fd5b505050506040513d601f19601f820116820180604052508101906102cb9190610730565b6102d59083610748565b9150806102e1816107b6565b91505061021f565b506102f481836102fb565b9250505090565b6000633b9aca0061031461030f8585610327565b610462565b61031e9190610760565b90505b92915050565b604080516020810190915260008152600082116103955760405162461bcd60e51b815260206004820152602660248201527f4669786564506f696e743a3a6672616374696f6e3a206469766973696f6e206260448201526579207a65726f60d01b606482015260840161011a565b826103af5750604080516020810190915260008152610321565b71ffffffffffffffffffffffffffffffffffff83116104515760006103d883607086901b610760565b90506001600160e01b038111156104315760405162461bcd60e51b815260206004820152601e60248201527f4669786564506f696e743a3a6672616374696f6e3a206f766572666c6f770000604482015260640161011a565b6040518060200160405280826001600160e01b0316815250915050610321565b60006103d884600160701b85610482565b8051600090610321906612725dd1d243ab906001600160e01b0316610760565b6000806000610491868661053f565b91509150600084806104b357634e487b7160e01b600052601260045260246000fd5b8688099050828111156104ce576104cb60018361079f565b91505b6104d8818461079f565b92508482106105295760405162461bcd60e51b815260206004820152601a60248201527f46756c6c4d6174683a3a6d756c4469763a206f766572666c6f77000000000000604482015260640161011a565b610534838387610581565b979650505050505050565b6000808060001984860990506105558486610780565b9250610561838261079f565b9150828110156105795761057660018361079f565b91505b509250929050565b60008061059083196001610748565b8316905061059e8184610760565b92506105aa8186610760565b9450806105b981196001610748565b6105c39190610760565b6105ce906001610748565b6105d89085610780565b6105e29086610748565b945060016105f08185610780565b6105fb90600261079f565b6106059082610780565b90506106118185610780565b61061c90600261079f565b6106269082610780565b90506106328185610780565b61063d90600261079f565b6106479082610780565b90506106538185610780565b61065e90600261079f565b6106689082610780565b90506106748185610780565b61067f90600261079f565b6106899082610780565b90506106958185610780565b6106a090600261079f565b6106aa9082610780565b90506106b68185610780565b6106c190600261079f565b6106cb9082610780565b90506106d78185610780565b6106e290600261079f565b6106ec9082610780565b90506106f88187610780565b9695505050505050565b600060208284031215610713578081fd5b81356001600160a01b0381168114610729578182fd5b9392505050565b600060208284031215610741578081fd5b5051919050565b6000821982111561075b5761075b6107d1565b500190565b60008261077b57634e487b7160e01b81526012600452602481fd5b500490565b600081600019048311821515161561079a5761079a6107d1565b500290565b6000828210156107b1576107b16107d1565b500390565b60006000198214156107ca576107ca6107d1565b5060010190565b634e487b7160e01b600052601160045260246000fdfea2646970667358221220cc036f9b47f6a5ee7aa2329332a436eb0f908486f3a3e8a43dc57893e0bfc12664736f6c63430008040033",
  "linkReferences": {},
  "deployedLinkReferences": {}
}