{
  "_format": "hh-sol-artifact-1",
  "contractName": "Treasury",
  "sourceName": "contracts/coreContracts/Treasury.sol",
  "abi": [
    {
      "inputs": [
        {
          "internalType": "address",
          "name": "_ORFI",
          "type": "address"
        },
        {
          "internalType": "address",
          "name": "_treasuryHelper",
          "type": "address"
        }
      ],
      "stateMutability": "nonpayable",
      "type": "constructor"
    },
    {
      "anonymous": false,
      "inputs": [
        {
          "indexed": true,
          "internalType": "address",
          "name": "debtor",
          "type": "address"
        },
        {
          "indexed": true,
          "internalType": "address",
          "name": "token",
          "type": "address"
        },
        {
          "indexed": false,
          "internalType": "uint256",
          "name": "amount",
          "type": "uint256"
        },
        {
          "indexed": false,
          "internalType": "uint256",
          "name": "value",
          "type": "uint256"
        }
      ],
      "name": "CreateDebt",
      "type": "event"
    },
    {
      "anonymous": false,
      "inputs": [
        {
          "indexed": true,
          "internalType": "address",
          "name": "token",
          "type": "address"
        },
        {
          "indexed": false,
          "internalType": "uint256",
          "name": "amount",
          "type": "uint256"
        },
        {
          "indexed": false,
          "internalType": "uint256",
          "name": "orfiMinted",
          "type": "uint256"
        }
      ],
      "name": "Deposit",
      "type": "event"
    },
    {
      "anonymous": false,
      "inputs": [
        {
          "indexed": true,
          "internalType": "address",
          "name": "previousOwner",
          "type": "address"
        },
        {
          "indexed": true,
          "internalType": "address",
          "name": "newOwner",
          "type": "address"
        }
      ],
      "name": "OwnershipTransferred",
      "type": "event"
    },
    {
      "anonymous": false,
      "inputs": [
        {
          "indexed": true,
          "internalType": "address",
          "name": "debtor",
          "type": "address"
        },
        {
          "indexed": true,
          "internalType": "address",
          "name": "token",
          "type": "address"
        },
        {
          "indexed": false,
          "internalType": "uint256",
          "name": "amount",
          "type": "uint256"
        },
        {
          "indexed": false,
          "internalType": "uint256",
          "name": "value",
          "type": "uint256"
        }
      ],
      "name": "RepayDebt",
      "type": "event"
    },
    {
      "anonymous": false,
      "inputs": [
        {
          "indexed": true,
          "internalType": "address",
          "name": "token",
          "type": "address"
        },
        {
          "indexed": false,
          "internalType": "uint256",
          "name": "amount",
          "type": "uint256"
        }
      ],
      "name": "ReservesManaged",
      "type": "event"
    },
    {
      "anonymous": false,
      "inputs": [
        {
          "indexed": true,
          "internalType": "uint256",
          "name": "totalReserves",
          "type": "uint256"
        }
      ],
      "name": "ReservesUpdated",
      "type": "event"
    },
    {
      "anonymous": false,
      "inputs": [
        {
          "indexed": true,
          "internalType": "address",
          "name": "token",
          "type": "address"
        },
        {
          "indexed": false,
          "internalType": "uint256",
          "name": "amount",
          "type": "uint256"
        },
        {
          "indexed": false,
          "internalType": "uint256",
          "name": "orfiBurned",
          "type": "uint256"
        }
      ],
      "name": "Withdrawal",
      "type": "event"
    },
    {
      "inputs": [],
      "name": "ORFI",
      "outputs": [
        {
          "internalType": "address",
          "name": "",
          "type": "address"
        }
      ],
      "stateMutability": "view",
      "type": "function"
    },
    {
      "inputs": [
        {
          "internalType": "address",
          "name": "_token",
          "type": "address"
        },
        {
          "internalType": "address",
          "name": "_liquidityBond",
          "type": "address"
        }
      ],
      "name": "addLiquidityBond",
      "outputs": [],
      "stateMutability": "nonpayable",
      "type": "function"
    },
    {
      "inputs": [],
      "name": "auditOwner",
      "outputs": [
        {
          "internalType": "address",
          "name": "",
          "type": "address"
        }
      ],
      "stateMutability": "view",
      "type": "function"
    },
    {
      "inputs": [
        {
          "internalType": "address",
          "name": "",
          "type": "address"
        }
      ],
      "name": "bondCalculator",
      "outputs": [
        {
          "internalType": "address",
          "name": "",
          "type": "address"
        }
      ],
      "stateMutability": "view",
      "type": "function"
    },
    {
      "inputs": [
        {
          "internalType": "address",
          "name": "",
          "type": "address"
        }
      ],
      "name": "debtorBalance",
      "outputs": [
        {
          "internalType": "uint256",
          "name": "",
          "type": "uint256"
        }
      ],
      "stateMutability": "view",
      "type": "function"
    },
    {
      "inputs": [
        {
          "internalType": "uint256",
          "name": "_amount",
          "type": "uint256"
        },
        {
          "internalType": "address",
          "name": "_token",
          "type": "address"
        },
        {
          "internalType": "uint256",
          "name": "_orfiAmount",
          "type": "uint256"
        }
      ],
      "name": "deposit",
      "outputs": [],
      "stateMutability": "nonpayable",
      "type": "function"
    },
    {
      "inputs": [
        {
          "internalType": "address",
          "name": "_token",
          "type": "address"
        },
        {
          "internalType": "uint256",
          "name": "_amount",
          "type": "uint256"
        }
      ],
      "name": "manage",
      "outputs": [],
      "stateMutability": "nonpayable",
      "type": "function"
    },
    {
      "inputs": [
        {
          "internalType": "uint256",
          "name": "_amount",
          "type": "uint256"
        }
      ],
      "name": "orfiEqValue",
      "outputs": [
        {
          "internalType": "uint256",
          "name": "value_",
          "type": "uint256"
        }
      ],
      "stateMutability": "view",
      "type": "function"
    },
    {
      "inputs": [],
      "name": "owner",
      "outputs": [
        {
          "internalType": "address",
          "name": "",
          "type": "address"
        }
      ],
      "stateMutability": "view",
      "type": "function"
    },
    {
      "inputs": [
        {
          "internalType": "address",
          "name": "_liquidityBond",
          "type": "address"
        }
      ],
      "name": "removeLiquidityBond",
      "outputs": [],
      "stateMutability": "nonpayable",
      "type": "function"
    },
    {
      "inputs": [],
      "name": "renounceOwnership",
      "outputs": [],
      "stateMutability": "nonpayable",
      "type": "function"
    },
    {
      "inputs": [],
      "name": "sORFI",
      "outputs": [
        {
          "internalType": "address",
          "name": "",
          "type": "address"
        }
      ],
      "stateMutability": "view",
      "type": "function"
    },
    {
      "inputs": [
        {
          "internalType": "address",
          "name": "_sORFI",
          "type": "address"
        }
      ],
      "name": "setStakedORFI",
      "outputs": [],
      "stateMutability": "nonpayable",
      "type": "function"
    },
    {
      "inputs": [
        {
          "internalType": "address",
          "name": "_tavCalculator",
          "type": "address"
        }
      ],
      "name": "setTAVCalculator",
      "outputs": [],
      "stateMutability": "nonpayable",
      "type": "function"
    },
    {
      "inputs": [],
      "name": "tavCalculator",
      "outputs": [
        {
          "internalType": "address",
          "name": "",
          "type": "address"
        }
      ],
      "stateMutability": "view",
      "type": "function"
    },
    {
      "inputs": [],
      "name": "totalORFIMinted",
      "outputs": [
        {
          "internalType": "uint256",
          "name": "",
          "type": "uint256"
        }
      ],
      "stateMutability": "view",
      "type": "function"
    },
    {
      "inputs": [],
      "name": "totalReserves",
      "outputs": [
        {
          "internalType": "uint256",
          "name": "",
          "type": "uint256"
        }
      ],
      "stateMutability": "view",
      "type": "function"
    },
    {
      "inputs": [
        {
          "internalType": "address",
          "name": "newOwner",
          "type": "address"
        }
      ],
      "name": "transferOwnership",
      "outputs": [],
      "stateMutability": "nonpayable",
      "type": "function"
    },
    {
      "inputs": [],
      "name": "treasuryHelper",
      "outputs": [
        {
          "internalType": "address",
          "name": "",
          "type": "address"
        }
      ],
      "stateMutability": "view",
      "type": "function"
    },
    {
      "inputs": [
        {
          "internalType": "address",
          "name": "_token",
          "type": "address"
        },
        {
          "internalType": "uint256",
          "name": "_amount",
          "type": "uint256"
        },
        {
          "internalType": "bool",
          "name": "isReserveToken",
          "type": "bool"
        },
        {
          "internalType": "bool",
          "name": "isLiquidToken",
          "type": "bool"
        }
      ],
      "name": "valueOfToken",
      "outputs": [
        {
          "internalType": "uint256",
          "name": "",
          "type": "uint256"
        }
      ],
      "stateMutability": "view",
      "type": "function"
    },
    {
      "inputs": [
        {
          "internalType": "uint256",
          "name": "_amount",
          "type": "uint256"
        },
        {
          "internalType": "address",
          "name": "_token",
          "type": "address"
        }
      ],
      "name": "withdraw",
      "outputs": [],
      "stateMutability": "nonpayable",
      "type": "function"
    }
  ],
  "bytecode": "0x60a06040523480156200001157600080fd5b50604051620034ee380380620034ee833981810160405281019062000037919062000230565b620000576200004b6200014d60201b60201c565b6200015560201b60201c565b600073ffffffffffffffffffffffffffffffffffffffff168273ffffffffffffffffffffffffffffffffffffffff1614156200009257600080fd5b8173ffffffffffffffffffffffffffffffffffffffff1660808173ffffffffffffffffffffffffffffffffffffffff1660601b81525050600073ffffffffffffffffffffffffffffffffffffffff168173ffffffffffffffffffffffffffffffffffffffff1614156200010457600080fd5b80600360006101000a81548173ffffffffffffffffffffffffffffffffffffffff021916908373ffffffffffffffffffffffffffffffffffffffff1602179055505050620002bf565b600033905090565b60008060009054906101000a900473ffffffffffffffffffffffffffffffffffffffff169050816000806101000a81548173ffffffffffffffffffffffffffffffffffffffff021916908373ffffffffffffffffffffffffffffffffffffffff1602179055508173ffffffffffffffffffffffffffffffffffffffff168173ffffffffffffffffffffffffffffffffffffffff167f8be0079c531659141344cd1fd0a4f28419497f9722a3daafe3b4186f6b6457e060405160405180910390a35050565b6000815190506200022a81620002a5565b92915050565b600080604083850312156200024457600080fd5b6000620002548582860162000219565b9250506020620002678582860162000219565b9150509250929050565b60006200027e8262000285565b9050919050565b600073ffffffffffffffffffffffffffffffffffffffff82169050919050565b620002b08162000271565b8114620002bc57600080fd5b50565b60805160601c6131fb620002f36000396000818161062f01528181610dc90152818161149a015261167601526131fb6000f3fe608060405234801561001057600080fd5b50600436106101365760003560e01c806379cdf620116100b8578063bc157ac11161007c578063bc157ac114610315578063de317e6f14610331578063df19aebd1461034f578063f20796231461036d578063f2fde38b1461039d578063fb87b272146103b957610136565b806379cdf6201461026f5780638da5cb5b1461028d5780638f840ddd146102ab5780639d5c9e8d146102c9578063ae022d57146102e557610136565b80631fe8aac5116100ff5780631fe8aac5146101ef5780634b290d301461020d57806367db67ba1461022b5780636d90e5b814610247578063715018a61461026557610136565b8062f714ce1461013b578063094a8651146101575780630b0eee30146101875780631af4da70146101a35780631c30dcdd146101d3575b600080fd5b6101556004803603810190610150919061263d565b6103d5565b005b610171600480360381019061016c91906124be565b61073b565b60405161017e9190612b0e565b60405180910390f35b6101a1600480360381019061019c9190612523565b610753565b005b6101bd60048036038101906101b891906124be565b610b6d565b6040516101ca9190612911565b60405180910390f35b6101ed60048036038101906101e891906124be565b610ba0565b005b6101f7610c9a565b6040516102049190612911565b60405180910390f35b610215610cc0565b6040516102229190612911565b60405180910390f35b610245600480360381019061024091906124be565b610ce6565b005b61024f610dc7565b60405161025c9190612911565b60405180910390f35b61026d610deb565b005b610277610e73565b6040516102849190612911565b60405180910390f35b610295610e99565b6040516102a29190612911565b60405180910390f35b6102b3610ec2565b6040516102c09190612b0e565b60405180910390f35b6102e360048036038101906102de91906124e7565b610ecc565b005b6102ff60048036038101906102fa91906125eb565b610fca565b60405161030c9190612b0e565b60405180910390f35b61032f600480360381019061032a9190612679565b61109f565b005b6103396115ac565b6040516103469190612911565b60405180910390f35b6103576115d2565b6040516103649190612b0e565b60405180910390f35b6103876004803603810190610382919061255f565b6115dc565b6040516103949190612b0e565b60405180910390f35b6103b760048036038101906103b291906124be565b611846565b005b6103d360048036038101906103ce91906124be565b61193e565b005b600360009054906101000a900473ffffffffffffffffffffffffffffffffffffffff1673ffffffffffffffffffffffffffffffffffffffff166368c31dd5826040518263ffffffff1660e01b81526004016104309190612911565b60206040518083038186803b15801561044857600080fd5b505afa15801561045c573d6000803e3d6000fd5b505050506040513d601f19601f8201168201806040525081019061048091906125c2565b6104bf576040517f08c379a00000000000000000000000000000000000000000000000000000000081526004016104b690612aae565b60405180910390fd5b600360009054906101000a900473ffffffffffffffffffffffffffffffffffffffff1673ffffffffffffffffffffffffffffffffffffffff166387d67dff336040518263ffffffff1660e01b815260040161051a9190612911565b60206040518083038186803b15801561053257600080fd5b505afa158015610546573d6000803e3d6000fd5b505050506040513d601f19601f8201168201806040525081019061056a91906125c2565b6105a9576040517f08c379a00000000000000000000000000000000000000000000000000000000081526004016105a0906129ce565b60405180910390fd5b60006105b98284600160006115dc565b905060006105c682610fca565b90506105dd816008546119fe90919063ffffffff16565b6008819055506105f8826007546119fe90919063ffffffff16565b6007819055506007547f93bb8edd35984706eee1b92541281f7f62d33c01c5b2ec0929a113603bd21d6660405160405180910390a27f000000000000000000000000000000000000000000000000000000000000000073ffffffffffffffffffffffffffffffffffffffff166379cc679033836040518363ffffffff1660e01b8152600401610688929190612963565b600060405180830381600087803b1580156106a257600080fd5b505af11580156106b6573d6000803e3d6000fd5b505050506106e533858573ffffffffffffffffffffffffffffffffffffffff16611a149092919063ffffffff16565b8273ffffffffffffffffffffffffffffffffffffffff167fdf273cb619d95419a9cd0ec88123a0538c85064229baa6363788f743fff90deb858360405161072d929190612b29565b60405180910390a250505050565b60066020528060005260406000206000915090505481565b6000600360009054906101000a900473ffffffffffffffffffffffffffffffffffffffff1673ffffffffffffffffffffffffffffffffffffffff1663a569e571846040518263ffffffff1660e01b81526004016107b09190612911565b60206040518083038186803b1580156107c857600080fd5b505afa1580156107dc573d6000803e3d6000fd5b505050506040513d601f19601f8201168201806040525081019061080091906125c2565b90506000600360009054906101000a900473ffffffffffffffffffffffffffffffffffffffff1673ffffffffffffffffffffffffffffffffffffffff166368c31dd5856040518263ffffffff1660e01b815260040161085f9190612911565b60206040518083038186803b15801561087757600080fd5b505afa15801561088b573d6000803e3d6000fd5b505050506040513d601f19601f820116820180604052508101906108af91906125c2565b905081156109a257600360009054906101000a900473ffffffffffffffffffffffffffffffffffffffff1673ffffffffffffffffffffffffffffffffffffffff1663df89b344336040518263ffffffff1660e01b81526004016109129190612911565b60206040518083038186803b15801561092a57600080fd5b505afa15801561093e573d6000803e3d6000fd5b505050506040513d601f19601f8201168201806040525081019061096291906125c2565b6109a1576040517f08c379a0000000000000000000000000000000000000000000000000000000008152600401610998906129ce565b60405180910390fd5b5b8015610a9357600360009054906101000a900473ffffffffffffffffffffffffffffffffffffffff1673ffffffffffffffffffffffffffffffffffffffff1663ebd83cd8336040518263ffffffff1660e01b8152600401610a039190612911565b60206040518083038186803b158015610a1b57600080fd5b505afa158015610a2f573d6000803e3d6000fd5b505050506040513d601f19601f82011682018060405250810190610a5391906125c2565b610a92576040517f08c379a0000000000000000000000000000000000000000000000000000000008152600401610a89906129ce565b60405180910390fd5b5b6000610aa1858584866115dc565b9050610ab8816007546119fe90919063ffffffff16565b6007819055506007547f93bb8edd35984706eee1b92541281f7f62d33c01c5b2ec0929a113603bd21d6660405160405180910390a2610b1833858773ffffffffffffffffffffffffffffffffffffffff16611a149092919063ffffffff16565b8473ffffffffffffffffffffffffffffffffffffffff167f2bb2640731848fe9820ba48dbc978c1fc9bbd5f11b948bfab05b7dee3378fd8085604051610b5e9190612b0e565b60405180910390a25050505050565b60056020528060005260406000206000915054906101000a900473ffffffffffffffffffffffffffffffffffffffff1681565b610ba8611a9a565b73ffffffffffffffffffffffffffffffffffffffff16610bc6610e99565b73ffffffffffffffffffffffffffffffffffffffff1614610c1c576040517f08c379a0000000000000000000000000000000000000000000000000000000008152600401610c1390612a6e565b60405180910390fd5b600073ffffffffffffffffffffffffffffffffffffffff168173ffffffffffffffffffffffffffffffffffffffff161415610c5657600080fd5b80600160006101000a81548173ffffffffffffffffffffffffffffffffffffffff021916908373ffffffffffffffffffffffffffffffffffffffff16021790555050565b600460009054906101000a900473ffffffffffffffffffffffffffffffffffffffff1681565b600160009054906101000a900473ffffffffffffffffffffffffffffffffffffffff1681565b610cee611a9a565b73ffffffffffffffffffffffffffffffffffffffff16610d0c610e99565b73ffffffffffffffffffffffffffffffffffffffff1614610d62576040517f08c379a0000000000000000000000000000000000000000000000000000000008152600401610d5990612a6e565b60405180910390fd5b600560008273ffffffffffffffffffffffffffffffffffffffff1673ffffffffffffffffffffffffffffffffffffffff16815260200190815260200160002060006101000a81549073ffffffffffffffffffffffffffffffffffffffff021916905550565b7f000000000000000000000000000000000000000000000000000000000000000081565b610df3611a9a565b73ffffffffffffffffffffffffffffffffffffffff16610e11610e99565b73ffffffffffffffffffffffffffffffffffffffff1614610e67576040517f08c379a0000000000000000000000000000000000000000000000000000000008152600401610e5e90612a6e565b60405180910390fd5b610e716000611aa2565b565b600260009054906101000a900473ffffffffffffffffffffffffffffffffffffffff1681565b60008060009054906101000a900473ffffffffffffffffffffffffffffffffffffffff16905090565b6000600754905090565b610ed4611a9a565b73ffffffffffffffffffffffffffffffffffffffff16610ef2610e99565b73ffffffffffffffffffffffffffffffffffffffff1614610f48576040517f08c379a0000000000000000000000000000000000000000000000000000000008152600401610f3f90612a6e565b60405180910390fd5b80600560008473ffffffffffffffffffffffffffffffffffffffff1673ffffffffffffffffffffffffffffffffffffffff16815260200190815260200160002060006101000a81548173ffffffffffffffffffffffffffffffffffffffff021916908373ffffffffffffffffffffffffffffffffffffffff1602179055505050565b600080611083633b9aca00600260009054906101000a900473ffffffffffffffffffffffffffffffffffffffff1673ffffffffffffffffffffffffffffffffffffffff1663ac3b992a6040518163ffffffff1660e01b815260040160206040518083038186803b15801561103d57600080fd5b505afa158015611051573d6000803e3d6000fd5b505050506040513d601f19601f820116820180604052508101906110759190612614565b611b6690919063ffffffff16565b90506110976110928483611b7c565b611d83565b915050919050565b6000600360009054906101000a900473ffffffffffffffffffffffffffffffffffffffff1673ffffffffffffffffffffffffffffffffffffffff166368c31dd5846040518263ffffffff1660e01b81526004016110fc9190612911565b60206040518083038186803b15801561111457600080fd5b505afa158015611128573d6000803e3d6000fd5b505050506040513d601f19601f8201168201806040525081019061114c91906125c2565b90506000600360009054906101000a900473ffffffffffffffffffffffffffffffffffffffff1673ffffffffffffffffffffffffffffffffffffffff1663a569e571856040518263ffffffff1660e01b81526004016111ab9190612911565b60206040518083038186803b1580156111c357600080fd5b505afa1580156111d7573d6000803e3d6000fd5b505050506040513d601f19601f820116820180604052508101906111fb91906125c2565b905081806112065750805b611245576040517f08c379a000000000000000000000000000000000000000000000000000000000815260040161123c90612aae565b60405180910390fd5b811561133a57600360009054906101000a900473ffffffffffffffffffffffffffffffffffffffff1673ffffffffffffffffffffffffffffffffffffffff1663124154ca336040518263ffffffff1660e01b81526004016112a69190612911565b60206040518083038186803b1580156112be57600080fd5b505afa1580156112d2573d6000803e3d6000fd5b505050506040513d601f19601f820116820180604052508101906112f691906125c2565b611335576040517f08c379a000000000000000000000000000000000000000000000000000000000815260040161132c90612a2e565b60405180910390fd5b611425565b600360009054906101000a900473ffffffffffffffffffffffffffffffffffffffff1673ffffffffffffffffffffffffffffffffffffffff1663a1210a2d336040518263ffffffff1660e01b81526004016113959190612911565b60206040518083038186803b1580156113ad57600080fd5b505afa1580156113c1573d6000803e3d6000fd5b505050506040513d601f19601f820116820180604052508101906113e591906125c2565b611424576040517f08c379a000000000000000000000000000000000000000000000000000000000815260040161141b90612a2e565b60405180910390fd5b5b6000611433858785856115dc565b905061144a81600754611dc190919063ffffffff16565b60078190555061146584600854611dc190919063ffffffff16565b6008819055506114983330888873ffffffffffffffffffffffffffffffffffffffff16611dd7909392919063ffffffff16565b7f000000000000000000000000000000000000000000000000000000000000000073ffffffffffffffffffffffffffffffffffffffff166340c10f1933866040518363ffffffff1660e01b81526004016114f3929190612963565b600060405180830381600087803b15801561150d57600080fd5b505af1158015611521573d6000803e3d6000fd5b505050506007547f93bb8edd35984706eee1b92541281f7f62d33c01c5b2ec0929a113603bd21d6660405160405180910390a28473ffffffffffffffffffffffffffffffffffffffff167f90890809c654f11d6e72a28fa60149770a0d11ec6c92319d6ceb2bb0a4ea1a15878660405161159c929190612b29565b60405180910390a2505050505050565b600360009054906101000a900473ffffffffffffffffffffffffffffffffffffffff1681565b6000600854905090565b600082156117425761173b8573ffffffffffffffffffffffffffffffffffffffff1663313ce5676040518163ffffffff1660e01b815260040160206040518083038186803b15801561162d57600080fd5b505afa158015611641573d6000803e3d6000fd5b505050506040513d601f19601f8201168201806040525081019061166591906126c8565b600a6116719190612c5e565b61172d7f000000000000000000000000000000000000000000000000000000000000000073ffffffffffffffffffffffffffffffffffffffff1663313ce5676040518163ffffffff1660e01b815260040160206040518083038186803b1580156116da57600080fd5b505afa1580156116ee573d6000803e3d6000fd5b505050506040513d601f19601f8201168201806040525081019061171291906126c8565b600a61171e9190612c5e565b87611b6690919063ffffffff16565b611e6090919063ffffffff16565b905061183e565b811561183957600560008673ffffffffffffffffffffffffffffffffffffffff1673ffffffffffffffffffffffffffffffffffffffff16815260200190815260200160002060009054906101000a900473ffffffffffffffffffffffffffffffffffffffff1673ffffffffffffffffffffffffffffffffffffffff16634249719f86866040518363ffffffff1660e01b81526004016117e2929190612963565b60206040518083038186803b1580156117fa57600080fd5b505afa15801561180e573d6000803e3d6000fd5b505050506040513d601f19601f820116820180604052508101906118329190612614565b905061183e565b600090505b949350505050565b61184e611a9a565b73ffffffffffffffffffffffffffffffffffffffff1661186c610e99565b73ffffffffffffffffffffffffffffffffffffffff16146118c2576040517f08c379a00000000000000000000000000000000000000000000000000000000081526004016118b990612a6e565b60405180910390fd5b600073ffffffffffffffffffffffffffffffffffffffff168173ffffffffffffffffffffffffffffffffffffffff161415611932576040517f08c379a0000000000000000000000000000000000000000000000000000000008152600401611929906129ae565b60405180910390fd5b61193b81611aa2565b50565b611946611a9a565b73ffffffffffffffffffffffffffffffffffffffff16611964610e99565b73ffffffffffffffffffffffffffffffffffffffff16146119ba576040517f08c379a00000000000000000000000000000000000000000000000000000000081526004016119b190612a6e565b60405180910390fd5b80600260006101000a81548173ffffffffffffffffffffffffffffffffffffffff021916908373ffffffffffffffffffffffffffffffffffffffff16021790555050565b60008183611a0c9190612dd6565b905092915050565b611a958363a9059cbb60e01b8484604051602401611a33929190612963565b604051602081830303815290604052907bffffffffffffffffffffffffffffffffffffffffffffffffffffffff19166020820180517bffffffffffffffffffffffffffffffffffffffffffffffffffffffff8381831617835250505050611e76565b505050565b600033905090565b60008060009054906101000a900473ffffffffffffffffffffffffffffffffffffffff169050816000806101000a81548173ffffffffffffffffffffffffffffffffffffffff021916908373ffffffffffffffffffffffffffffffffffffffff1602179055508173ffffffffffffffffffffffffffffffffffffffff168173ffffffffffffffffffffffffffffffffffffffff167f8be0079c531659141344cd1fd0a4f28419497f9722a3daafe3b4186f6b6457e060405160405180910390a35050565b60008183611b749190612d7c565b905092915050565b611b8461240f565b60008211611bc7576040517f08c379a0000000000000000000000000000000000000000000000000000000008152600401611bbe90612a0e565b60405180910390fd5b6000831415611c0557604051806020016040528060007bffffffffffffffffffffffffffffffffffffffffffffffffffffffff168152509050611d7d565b71ffffffffffffffffffffffffffffffffffff80168311611ccd57600082607060ff1685901b611c359190612bda565b90507bffffffffffffffffffffffffffffffffffffffffffffffffffffffff8016811115611c98576040517f08c379a0000000000000000000000000000000000000000000000000000000008152600401611c8f90612a8e565b60405180910390fd5b6040518060200160405280827bffffffffffffffffffffffffffffffffffffffffffffffffffffffff16815250915050611d7d565b6000611ce9846e01000000000000000000000000000085611f3d565b90507bffffffffffffffffffffffffffffffffffffffffffffffffffffffff8016811115611d4c576040517f08c379a0000000000000000000000000000000000000000000000000000000008152600401611d4390612a8e565b60405180910390fd5b6040518060200160405280827bffffffffffffffffffffffffffffffffffffffffffffffffffffffff168152509150505b92915050565b60006612725dd1d243ab82600001517bffffffffffffffffffffffffffffffffffffffffffffffffffffffff16611dba9190612bda565b9050919050565b60008183611dcf9190612b84565b905092915050565b611e5a846323b872dd60e01b858585604051602401611df89392919061292c565b604051602081830303815290604052907bffffffffffffffffffffffffffffffffffffffffffffffffffffffff19166020820180517bffffffffffffffffffffffffffffffffffffffffffffffffffffffff8381831617835250505050611e76565b50505050565b60008183611e6e9190612bda565b905092915050565b6000611ed8826040518060400160405280602081526020017f5361666545524332303a206c6f772d6c6576656c2063616c6c206661696c65648152508573ffffffffffffffffffffffffffffffffffffffff1661200b9092919063ffffffff16565b9050600081511115611f385780806020019051810190611ef891906125c2565b611f37576040517f08c379a0000000000000000000000000000000000000000000000000000000008152600401611f2e90612aee565b60405180910390fd5b5b505050565b6000806000611f4c8686612023565b9150915060008480611f87577f4e487b7100000000000000000000000000000000000000000000000000000000600052601260045260246000fd5b868809905082811115611fa457600182611fa19190612dd6565b91505b8083611fb09190612dd6565b9250848210611ff4576040517f08c379a0000000000000000000000000000000000000000000000000000000008152600401611feb90612a4e565b60405180910390fd5b611fff8383876120be565b93505050509392505050565b606061201a8484600085612271565b90509392505050565b60008060007fffffffffffffffffffffffffffffffffffffffffffffffffffffffffffffffff8061207d577f4e487b7100000000000000000000000000000000000000000000000000000000600052601260045260246000fd5b8486099050838561208e9190612d7c565b9250828161209c9190612dd6565b9150828110156120b6576001826120b39190612dd6565b91505b509250929050565b600080600183196120cf9190612b84565b8316905080836120df9190612bda565b925080856120ed9190612bda565b9450600181600183196121009190612b84565b61210a9190612bda565b6121149190612b84565b8461211f9190612d7c565b8561212a9190612b84565b9450600060019050808461213e9190612d7c565b600261214a9190612dd6565b816121559190612d7c565b905080846121639190612d7c565b600261216f9190612dd6565b8161217a9190612d7c565b905080846121889190612d7c565b60026121949190612dd6565b8161219f9190612d7c565b905080846121ad9190612d7c565b60026121b99190612dd6565b816121c49190612d7c565b905080846121d29190612d7c565b60026121de9190612dd6565b816121e99190612d7c565b905080846121f79190612d7c565b60026122039190612dd6565b8161220e9190612d7c565b9050808461221c9190612d7c565b60026122289190612dd6565b816122339190612d7c565b905080846122419190612d7c565b600261224d9190612dd6565b816122589190612d7c565b905080866122669190612d7c565b925050509392505050565b6060824710156122b6576040517f08c379a00000000000000000000000000000000000000000000000000000000081526004016122ad906129ee565b60405180910390fd5b6122bf85612385565b6122fe576040517f08c379a00000000000000000000000000000000000000000000000000000000081526004016122f590612ace565b60405180910390fd5b6000808673ffffffffffffffffffffffffffffffffffffffff16858760405161232791906128fa565b60006040518083038185875af1925050503d8060008114612364576040519150601f19603f3d011682016040523d82523d6000602084013e612369565b606091505b50915091506123798282866123a8565b92505050949350505050565b6000808273ffffffffffffffffffffffffffffffffffffffff163b119050919050565b606083156123b857829050612408565b6000835111156123cb5782518084602001fd5b816040517f08c379a00000000000000000000000000000000000000000000000000000000081526004016123ff919061298c565b60405180910390fd5b9392505050565b604051806020016040528060007bffffffffffffffffffffffffffffffffffffffffffffffffffffffff1681525090565b60008135905061244f81613169565b92915050565b60008135905061246481613180565b92915050565b60008151905061247981613180565b92915050565b60008135905061248e81613197565b92915050565b6000815190506124a381613197565b92915050565b6000815190506124b8816131ae565b92915050565b6000602082840312156124d057600080fd5b60006124de84828501612440565b91505092915050565b600080604083850312156124fa57600080fd5b600061250885828601612440565b925050602061251985828601612440565b9150509250929050565b6000806040838503121561253657600080fd5b600061254485828601612440565b92505060206125558582860161247f565b9150509250929050565b6000806000806080858703121561257557600080fd5b600061258387828801612440565b94505060206125948782880161247f565b93505060406125a587828801612455565b92505060606125b687828801612455565b91505092959194509250565b6000602082840312156125d457600080fd5b60006125e28482850161246a565b91505092915050565b6000602082840312156125fd57600080fd5b600061260b8482850161247f565b91505092915050565b60006020828403121561262657600080fd5b600061263484828501612494565b91505092915050565b6000806040838503121561265057600080fd5b600061265e8582860161247f565b925050602061266f85828601612440565b9150509250929050565b60008060006060848603121561268e57600080fd5b600061269c8682870161247f565b93505060206126ad86828701612440565b92505060406126be8682870161247f565b9150509250925092565b6000602082840312156126da57600080fd5b60006126e8848285016124a9565b91505092915050565b6126fa81612e0a565b82525050565b600061270b82612b52565b6127158185612b68565b9350612725818560208601612e5f565b80840191505092915050565b600061273c82612b5d565b6127468185612b73565b9350612756818560208601612e5f565b61275f81612ef0565b840191505092915050565b6000612777602683612b73565b915061278282612f0e565b604082019050919050565b600061279a600983612b73565b91506127a582612f5d565b602082019050919050565b60006127bd602683612b73565b91506127c882612f86565b604082019050919050565b60006127e0602683612b73565b91506127eb82612fd5565b604082019050919050565b6000612803600983612b73565b915061280e82613024565b602082019050919050565b6000612826601a83612b73565b91506128318261304d565b602082019050919050565b6000612849602083612b73565b915061285482613076565b602082019050919050565b600061286c601e83612b73565b91506128778261309f565b602082019050919050565b600061288f600283612b73565b915061289a826130c8565b602082019050919050565b60006128b2601d83612b73565b91506128bd826130f1565b602082019050919050565b60006128d5602a83612b73565b91506128e08261311a565b604082019050919050565b6128f481612e48565b82525050565b60006129068284612700565b915081905092915050565b600060208201905061292660008301846126f1565b92915050565b600060608201905061294160008301866126f1565b61294e60208301856126f1565b61295b60408301846128eb565b949350505050565b600060408201905061297860008301856126f1565b61298560208301846128eb565b9392505050565b600060208201905081810360008301526129a68184612731565b905092915050565b600060208201905081810360008301526129c78161276a565b9050919050565b600060208201905081810360008301526129e78161278d565b9050919050565b60006020820190508181036000830152612a07816127b0565b9050919050565b60006020820190508181036000830152612a27816127d3565b9050919050565b60006020820190508181036000830152612a47816127f6565b9050919050565b60006020820190508181036000830152612a6781612819565b9050919050565b60006020820190508181036000830152612a878161283c565b9050919050565b60006020820190508181036000830152612aa78161285f565b9050919050565b60006020820190508181036000830152612ac781612882565b9050919050565b60006020820190508181036000830152612ae7816128a5565b9050919050565b60006020820190508181036000830152612b07816128c8565b9050919050565b6000602082019050612b2360008301846128eb565b92915050565b6000604082019050612b3e60008301856128eb565b612b4b60208301846128eb565b9392505050565b600081519050919050565b600081519050919050565b600081905092915050565b600082825260208201905092915050565b6000612b8f82612e48565b9150612b9a83612e48565b9250827fffffffffffffffffffffffffffffffffffffffffffffffffffffffffffffffff03821115612bcf57612bce612e92565b5b828201905092915050565b6000612be582612e48565b9150612bf083612e48565b925082612c0057612bff612ec1565b5b828204905092915050565b6000808291508390505b6001851115612c5557808604811115612c3157612c30612e92565b5b6001851615612c405780820291505b8081029050612c4e85612f01565b9450612c15565b94509492505050565b6000612c6982612e48565b9150612c7483612e52565b9250612ca17fffffffffffffffffffffffffffffffffffffffffffffffffffffffffffffffff8484612ca9565b905092915050565b600082612cb95760019050612d75565b81612cc75760009050612d75565b8160018114612cdd5760028114612ce757612d16565b6001915050612d75565b60ff841115612cf957612cf8612e92565b5b8360020a915084821115612d1057612d0f612e92565b5b50612d75565b5060208310610133831016604e8410600b8410161715612d4b5782820a905083811115612d4657612d45612e92565b5b612d75565b612d588484846001612c0b565b92509050818404811115612d6f57612d6e612e92565b5b81810290505b9392505050565b6000612d8782612e48565b9150612d9283612e48565b9250817fffffffffffffffffffffffffffffffffffffffffffffffffffffffffffffffff0483118215151615612dcb57612dca612e92565b5b828202905092915050565b6000612de182612e48565b9150612dec83612e48565b925082821015612dff57612dfe612e92565b5b828203905092915050565b6000612e1582612e28565b9050919050565b60008115159050919050565b600073ffffffffffffffffffffffffffffffffffffffff82169050919050565b6000819050919050565b600060ff82169050919050565b60005b83811015612e7d578082015181840152602081019050612e62565b83811115612e8c576000848401525b50505050565b7f4e487b7100000000000000000000000000000000000000000000000000000000600052601160045260246000fd5b7f4e487b7100000000000000000000000000000000000000000000000000000000600052601260045260246000fd5b6000601f19601f8301169050919050565b60008160011c9050919050565b7f4f776e61626c653a206e6577206f776e657220697320746865207a65726f206160008201527f6464726573730000000000000000000000000000000000000000000000000000602082015250565b7f4e417070726f7665640000000000000000000000000000000000000000000000600082015250565b7f416464726573733a20696e73756666696369656e742062616c616e636520666f60008201527f722063616c6c0000000000000000000000000000000000000000000000000000602082015250565b7f4669786564506f696e743a3a6672616374696f6e3a206469766973696f6e206260008201527f79207a65726f0000000000000000000000000000000000000000000000000000602082015250565b7f4e415050524f5645440000000000000000000000000000000000000000000000600082015250565b7f46756c6c4d6174683a3a6d756c4469763a206f766572666c6f77000000000000600082015250565b7f4f776e61626c653a2063616c6c6572206973206e6f7420746865206f776e6572600082015250565b7f4669786564506f696e743a3a6672616374696f6e3a206f766572666c6f770000600082015250565b7f4e41000000000000000000000000000000000000000000000000000000000000600082015250565b7f416464726573733a2063616c6c20746f206e6f6e2d636f6e7472616374000000600082015250565b7f5361666545524332303a204552433230206f7065726174696f6e20646964206e60008201527f6f74207375636365656400000000000000000000000000000000000000000000602082015250565b61317281612e0a565b811461317d57600080fd5b50565b61318981612e1c565b811461319457600080fd5b50565b6131a081612e48565b81146131ab57600080fd5b50565b6131b781612e52565b81146131c257600080fd5b5056fea2646970667358221220cde718df1e77f1d8b36372d3369751fc0cce9eed647ebc63998e98c1b089178264736f6c63430008040033",
  "linkReferences": {},
  "deployedLinkReferences": {}
}