{
  "_format": "hh-sol-artifact-1",
  "contractName": "TreasuryHelper",
  "sourceName": "contracts/TreasuryHelper.sol",
  "abi": [
    {
      "inputs": [
        {
          "internalType": "address",
          "name": "_ORCL",
          "type": "address"
        },
        {
          "internalType": "address",
          "name": "_MIM",
          "type": "address"
        },
        {
          "internalType": "uint256",
          "name": "_blocksNeededForQueue",
          "type": "uint256"
        }
      ],
      "stateMutability": "nonpayable",
      "type": "constructor"
    },
    {
      "anonymous": false,
      "inputs": [
        {
          "indexed": true,
          "internalType": "enum TreasuryHelper.MANAGING",
          "name": "managing",
          "type": "uint8"
        },
        {
          "indexed": false,
          "internalType": "address",
          "name": "activated",
          "type": "address"
        },
        {
          "indexed": false,
          "internalType": "bool",
          "name": "result",
          "type": "bool"
        }
      ],
      "name": "ChangeActivated",
      "type": "event"
    },
    {
      "anonymous": false,
      "inputs": [
        {
          "indexed": true,
          "internalType": "enum TreasuryHelper.MANAGING",
          "name": "managing",
          "type": "uint8"
        },
        {
          "indexed": false,
          "internalType": "address",
          "name": "queued",
          "type": "address"
        }
      ],
      "name": "ChangeQueued",
      "type": "event"
    },
    {
      "anonymous": false,
      "inputs": [
        {
          "indexed": true,
          "internalType": "address",
          "name": "previousOwner",
          "type": "address"
        },
        {
          "indexed": true,
          "internalType": "address",
          "name": "newOwner",
          "type": "address"
        }
      ],
      "name": "OwnershipTransferred",
      "type": "event"
    },
    {
      "anonymous": false,
      "inputs": [
        {
          "indexed": true,
          "internalType": "uint256",
          "name": "totalReserves",
          "type": "uint256"
        }
      ],
      "name": "ReservesAudited",
      "type": "event"
    },
    {
      "anonymous": false,
      "inputs": [
        {
          "indexed": true,
          "internalType": "uint256",
          "name": "totalReserves",
          "type": "uint256"
        }
      ],
      "name": "ReservesUpdated",
      "type": "event"
    },
    {
      "inputs": [
        {
          "internalType": "address",
          "name": "",
          "type": "address"
        }
      ],
      "name": "LiquidityDepositorQueue",
      "outputs": [
        {
          "internalType": "uint256",
          "name": "",
          "type": "uint256"
        }
      ],
      "stateMutability": "view",
      "type": "function"
    },
    {
      "inputs": [
        {
          "internalType": "address",
          "name": "",
          "type": "address"
        }
      ],
      "name": "LiquidityManagerQueue",
      "outputs": [
        {
          "internalType": "uint256",
          "name": "",
          "type": "uint256"
        }
      ],
      "stateMutability": "view",
      "type": "function"
    },
    {
      "inputs": [
        {
          "internalType": "address",
          "name": "",
          "type": "address"
        }
      ],
      "name": "LiquidityTokenQueue",
      "outputs": [
        {
          "internalType": "uint256",
          "name": "",
          "type": "uint256"
        }
      ],
      "stateMutability": "view",
      "type": "function"
    },
    {
      "inputs": [],
      "name": "ORCL",
      "outputs": [
        {
          "internalType": "address",
          "name": "",
          "type": "address"
        }
      ],
      "stateMutability": "view",
      "type": "function"
    },
    {
      "inputs": [
        {
          "internalType": "address",
          "name": "",
          "type": "address"
        }
      ],
      "name": "ReserveManagerQueue",
      "outputs": [
        {
          "internalType": "uint256",
          "name": "",
          "type": "uint256"
        }
      ],
      "stateMutability": "view",
      "type": "function"
    },
    {
      "inputs": [],
      "name": "auditReserves",
      "outputs": [],
      "stateMutability": "nonpayable",
      "type": "function"
    },
    {
      "inputs": [],
      "name": "blocksNeededForQueue",
      "outputs": [
        {
          "internalType": "uint256",
          "name": "",
          "type": "uint256"
        }
      ],
      "stateMutability": "view",
      "type": "function"
    },
    {
      "inputs": [
        {
          "internalType": "address",
          "name": "",
          "type": "address"
        }
      ],
      "name": "bondCalculator",
      "outputs": [
        {
          "internalType": "address",
          "name": "",
          "type": "address"
        }
      ],
      "stateMutability": "view",
      "type": "function"
    },
    {
      "inputs": [
        {
          "internalType": "address",
          "name": "",
          "type": "address"
        }
      ],
      "name": "debtorQueue",
      "outputs": [
        {
          "internalType": "uint256",
          "name": "",
          "type": "uint256"
        }
      ],
      "stateMutability": "view",
      "type": "function"
    },
    {
      "inputs": [
        {
          "internalType": "uint256",
          "name": "",
          "type": "uint256"
        }
      ],
      "name": "debtors",
      "outputs": [
        {
          "internalType": "address",
          "name": "",
          "type": "address"
        }
      ],
      "stateMutability": "view",
      "type": "function"
    },
    {
      "inputs": [
        {
          "internalType": "address",
          "name": "",
          "type": "address"
        }
      ],
      "name": "isDebtor",
      "outputs": [
        {
          "internalType": "bool",
          "name": "",
          "type": "bool"
        }
      ],
      "stateMutability": "view",
      "type": "function"
    },
    {
      "inputs": [
        {
          "internalType": "address",
          "name": "",
          "type": "address"
        }
      ],
      "name": "isLiquidityDepositor",
      "outputs": [
        {
          "internalType": "bool",
          "name": "",
          "type": "bool"
        }
      ],
      "stateMutability": "view",
      "type": "function"
    },
    {
      "inputs": [
        {
          "internalType": "address",
          "name": "",
          "type": "address"
        }
      ],
      "name": "isLiquidityManager",
      "outputs": [
        {
          "internalType": "bool",
          "name": "",
          "type": "bool"
        }
      ],
      "stateMutability": "view",
      "type": "function"
    },
    {
      "inputs": [
        {
          "internalType": "address",
          "name": "",
          "type": "address"
        }
      ],
      "name": "isLiquidityToken",
      "outputs": [
        {
          "internalType": "bool",
          "name": "",
          "type": "bool"
        }
      ],
      "stateMutability": "view",
      "type": "function"
    },
    {
      "inputs": [
        {
          "internalType": "address",
          "name": "",
          "type": "address"
        }
      ],
      "name": "isReserveDepositor",
      "outputs": [
        {
          "internalType": "bool",
          "name": "",
          "type": "bool"
        }
      ],
      "stateMutability": "view",
      "type": "function"
    },
    {
      "inputs": [
        {
          "internalType": "address",
          "name": "",
          "type": "address"
        }
      ],
      "name": "isReserveManager",
      "outputs": [
        {
          "internalType": "bool",
          "name": "",
          "type": "bool"
        }
      ],
      "stateMutability": "view",
      "type": "function"
    },
    {
      "inputs": [
        {
          "internalType": "address",
          "name": "",
          "type": "address"
        }
      ],
      "name": "isReserveSpender",
      "outputs": [
        {
          "internalType": "bool",
          "name": "",
          "type": "bool"
        }
      ],
      "stateMutability": "view",
      "type": "function"
    },
    {
      "inputs": [
        {
          "internalType": "address",
          "name": "",
          "type": "address"
        }
      ],
      "name": "isReserveToken",
      "outputs": [
        {
          "internalType": "bool",
          "name": "",
          "type": "bool"
        }
      ],
      "stateMutability": "view",
      "type": "function"
    },
    {
      "inputs": [
        {
          "internalType": "address",
          "name": "",
          "type": "address"
        }
      ],
      "name": "isRewardManager",
      "outputs": [
        {
          "internalType": "bool",
          "name": "",
          "type": "bool"
        }
      ],
      "stateMutability": "view",
      "type": "function"
    },
    {
      "inputs": [
        {
          "internalType": "uint256",
          "name": "",
          "type": "uint256"
        }
      ],
      "name": "liquidityDepositors",
      "outputs": [
        {
          "internalType": "address",
          "name": "",
          "type": "address"
        }
      ],
      "stateMutability": "view",
      "type": "function"
    },
    {
      "inputs": [
        {
          "internalType": "uint256",
          "name": "",
          "type": "uint256"
        }
      ],
      "name": "liquidityManagers",
      "outputs": [
        {
          "internalType": "address",
          "name": "",
          "type": "address"
        }
      ],
      "stateMutability": "view",
      "type": "function"
    },
    {
      "inputs": [
        {
          "internalType": "uint256",
          "name": "",
          "type": "uint256"
        }
      ],
      "name": "liquidityTokens",
      "outputs": [
        {
          "internalType": "address",
          "name": "",
          "type": "address"
        }
      ],
      "stateMutability": "view",
      "type": "function"
    },
    {
      "inputs": [],
      "name": "owner",
      "outputs": [
        {
          "internalType": "address",
          "name": "",
          "type": "address"
        }
      ],
      "stateMutability": "view",
      "type": "function"
    },
    {
      "inputs": [
        {
          "internalType": "enum TreasuryHelper.MANAGING",
          "name": "_managing",
          "type": "uint8"
        },
        {
          "internalType": "address",
          "name": "_address",
          "type": "address"
        }
      ],
      "name": "queue",
      "outputs": [
        {
          "internalType": "bool",
          "name": "",
          "type": "bool"
        }
      ],
      "stateMutability": "nonpayable",
      "type": "function"
    },
    {
      "inputs": [],
      "name": "renounceOwnership",
      "outputs": [],
      "stateMutability": "nonpayable",
      "type": "function"
    },
    {
      "inputs": [
        {
          "internalType": "address",
          "name": "",
          "type": "address"
        }
      ],
      "name": "reserveDepositorQueue",
      "outputs": [
        {
          "internalType": "uint256",
          "name": "",
          "type": "uint256"
        }
      ],
      "stateMutability": "view",
      "type": "function"
    },
    {
      "inputs": [
        {
          "internalType": "uint256",
          "name": "",
          "type": "uint256"
        }
      ],
      "name": "reserveDepositors",
      "outputs": [
        {
          "internalType": "address",
          "name": "",
          "type": "address"
        }
      ],
      "stateMutability": "view",
      "type": "function"
    },
    {
      "inputs": [
        {
          "internalType": "uint256",
          "name": "",
          "type": "uint256"
        }
      ],
      "name": "reserveManagers",
      "outputs": [
        {
          "internalType": "address",
          "name": "",
          "type": "address"
        }
      ],
      "stateMutability": "view",
      "type": "function"
    },
    {
      "inputs": [
        {
          "internalType": "address",
          "name": "",
          "type": "address"
        }
      ],
      "name": "reserveSpenderQueue",
      "outputs": [
        {
          "internalType": "uint256",
          "name": "",
          "type": "uint256"
        }
      ],
      "stateMutability": "view",
      "type": "function"
    },
    {
      "inputs": [
        {
          "internalType": "uint256",
          "name": "",
          "type": "uint256"
        }
      ],
      "name": "reserveSpenders",
      "outputs": [
        {
          "internalType": "address",
          "name": "",
          "type": "address"
        }
      ],
      "stateMutability": "view",
      "type": "function"
    },
    {
      "inputs": [
        {
          "internalType": "address",
          "name": "",
          "type": "address"
        }
      ],
      "name": "reserveTokenQueue",
      "outputs": [
        {
          "internalType": "uint256",
          "name": "",
          "type": "uint256"
        }
      ],
      "stateMutability": "view",
      "type": "function"
    },
    {
      "inputs": [
        {
          "internalType": "uint256",
          "name": "",
          "type": "uint256"
        }
      ],
      "name": "reserveTokens",
      "outputs": [
        {
          "internalType": "address",
          "name": "",
          "type": "address"
        }
      ],
      "stateMutability": "view",
      "type": "function"
    },
    {
      "inputs": [
        {
          "internalType": "address",
          "name": "",
          "type": "address"
        }
      ],
      "name": "rewardManagerQueue",
      "outputs": [
        {
          "internalType": "uint256",
          "name": "",
          "type": "uint256"
        }
      ],
      "stateMutability": "view",
      "type": "function"
    },
    {
      "inputs": [
        {
          "internalType": "uint256",
          "name": "",
          "type": "uint256"
        }
      ],
      "name": "rewardManagers",
      "outputs": [
        {
          "internalType": "address",
          "name": "",
          "type": "address"
        }
      ],
      "stateMutability": "view",
      "type": "function"
    },
    {
      "inputs": [],
      "name": "sORCL",
      "outputs": [
        {
          "internalType": "address",
          "name": "",
          "type": "address"
        }
      ],
      "stateMutability": "view",
      "type": "function"
    },
    {
      "inputs": [],
      "name": "sORCLQueue",
      "outputs": [
        {
          "internalType": "uint256",
          "name": "",
          "type": "uint256"
        }
      ],
      "stateMutability": "view",
      "type": "function"
    },
    {
      "inputs": [
        {
          "internalType": "address",
          "name": "_treasuryAddress",
          "type": "address"
        }
      ],
      "name": "setTreasuryAddress",
      "outputs": [],
      "stateMutability": "nonpayable",
      "type": "function"
    },
    {
      "inputs": [
        {
          "internalType": "enum TreasuryHelper.MANAGING",
          "name": "_managing",
          "type": "uint8"
        },
        {
          "internalType": "address",
          "name": "_address",
          "type": "address"
        },
        {
          "internalType": "address",
          "name": "_calculator",
          "type": "address"
        }
      ],
      "name": "toggle",
      "outputs": [
        {
          "internalType": "bool",
          "name": "",
          "type": "bool"
        }
      ],
      "stateMutability": "nonpayable",
      "type": "function"
    },
    {
      "inputs": [
        {
          "internalType": "address",
          "name": "newOwner",
          "type": "address"
        }
      ],
      "name": "transferOwnership",
      "outputs": [],
      "stateMutability": "nonpayable",
      "type": "function"
    },
    {
      "inputs": [],
      "name": "treasuryAddress",
      "outputs": [
        {
          "internalType": "address",
          "name": "",
          "type": "address"
        }
      ],
      "stateMutability": "view",
      "type": "function"
    },
    {
      "inputs": [
        {
          "internalType": "address",
          "name": "_token",
          "type": "address"
        },
        {
          "internalType": "uint256",
          "name": "_amount",
          "type": "uint256"
        }
      ],
      "name": "valueOfToken",
      "outputs": [
        {
          "internalType": "uint256",
          "name": "value_",
          "type": "uint256"
        }
      ],
      "stateMutability": "view",
      "type": "function"
    }
  ],
  "bytecode": "0x60c06040523480156200001157600080fd5b50604051620046ea380380620046ea833981810160405281019062000037919062000254565b620000576200004b6200015a60201b60201c565b6200016260201b60201c565b8273ffffffffffffffffffffffffffffffffffffffff1660808173ffffffffffffffffffffffffffffffffffffffff1660601b815250506002829080600181540180825580915050600190039060005260206000200160009091909190916101000a81548173ffffffffffffffffffffffffffffffffffffffff021916908373ffffffffffffffffffffffffffffffffffffffff1602179055506001600360008473ffffffffffffffffffffffffffffffffffffffff1673ffffffffffffffffffffffffffffffffffffffff16815260200190815260200160002060006101000a81548160ff0219169083151502179055508060a081815250505050506200031c565b600033905090565b60008060009054906101000a900473ffffffffffffffffffffffffffffffffffffffff169050816000806101000a81548173ffffffffffffffffffffffffffffffffffffffff021916908373ffffffffffffffffffffffffffffffffffffffff1602179055508173ffffffffffffffffffffffffffffffffffffffff168173ffffffffffffffffffffffffffffffffffffffff167f8be0079c531659141344cd1fd0a4f28419497f9722a3daafe3b4186f6b6457e060405160405180910390a35050565b6000815190506200023781620002e8565b92915050565b6000815190506200024e8162000302565b92915050565b6000806000606084860312156200026a57600080fd5b60006200027a8682870162000226565b93505060206200028d8682870162000226565b9250506040620002a0868287016200023d565b9150509250925092565b6000620002b782620002be565b9050919050565b600073ffffffffffffffffffffffffffffffffffffffff82169050919050565b6000819050919050565b620002f381620002aa565b8114620002ff57600080fd5b50565b6200030d81620002de565b81146200031957600080fd5b50565b60805160601c60a051614358620003926000396000818161132d015281816117a60152818161189a0152818161198e01528181611a8701528181611b8901528181611c7d01528181611d7601528181611e7801528181611f6c015261205f015260008181610e4b015261143501526143586000f3fe608060405234801561001057600080fd5b50600436106102535760003560e01c8063a1210a2d11610146578063d1b317e5116100c3578063f2fde38b11610087578063f2fde38b1461082e578063f432bf7c1461084a578063fb93958814610868578063fbfd393b14610898578063fd1ec010146108c8578063fff9ee87146108f857610253565b8063d1b317e51461073e578063df89b3441461076e578063e83afee31461079e578063ebd83cd8146107ce578063ee4e19a1146107fe57610253565b8063c24ad43e1161010a578063c24ad43e14610672578063c5f956af146106a2578063cd85641a146106c0578063d031370b146106f0578063d07f390f1461072057610253565b8063a1210a2d14610582578063a569e571146105b2578063ab319c9a146105e2578063b1bd38b014610612578063b5b1d5601461064257610253565b80636b5e40a7116101d457806387d67dff1161019857806387d67dff146104a45780638da5cb5b146104d45780638f59c727146104f25780638f6a7b5714610522578063932cc8c31461055257610253565b80636b5e40a7146103da57806370a0502a1461040a578063715018a61461043a578063788c6c0114610444578063869871bf1461047457610253565b8063437f79121161021b578063437f7912146103105780634e83423c1461034057806361e39a28146103705780636605bfda1461038e57806368c31dd5146103aa57610253565b80630619aff114610258578063124154ca146102885780631af4da70146102b85780632b7ce500146102e857806333483ffd146102f2575b600080fd5b610272600480360381019061026d9190613c40565b610928565b60405161027f9190613d74565b60405180910390f35b6102a2600480360381019061029d9190613b50565b610967565b6040516102af9190613de1565b60405180910390f35b6102d260048036038101906102cd9190613b50565b610987565b6040516102df9190613d74565b60405180910390f35b6102f06109ba565b005b6102fa610e49565b6040516103079190613d74565b60405180910390f35b61032a60048036038101906103259190613c40565b610e6d565b6040516103379190613d74565b60405180910390f35b61035a60048036038101906103559190613b50565b610eac565b6040516103679190613de1565b60405180910390f35b610378610ecc565b6040516103859190613d74565b60405180910390f35b6103a860048036038101906103a39190613b50565b610ef2565b005b6103c460048036038101906103bf9190613b50565b610fb2565b6040516103d19190613de1565b60405180910390f35b6103f460048036038101906103ef9190613c40565b610fd2565b6040516104019190613d74565b60405180910390f35b610424600480360381019061041f9190613c40565b611011565b6040516104319190613d74565b60405180910390f35b610442611050565b005b61045e60048036038101906104599190613b50565b6110d8565b60405161046b9190613e7c565b60405180910390f35b61048e60048036038101906104899190613c40565b6110f0565b60405161049b9190613d74565b60405180910390f35b6104be60048036038101906104b99190613b50565b61112f565b6040516104cb9190613de1565b60405180910390f35b6104dc61114f565b6040516104e99190613d74565b60405180910390f35b61050c60048036038101906105079190613b50565b611178565b6040516105199190613e7c565b60405180910390f35b61053c60048036038101906105379190613c40565b611190565b6040516105499190613d74565b60405180910390f35b61056c60048036038101906105679190613b50565b6111cf565b6040516105799190613e7c565b60405180910390f35b61059c60048036038101906105979190613b50565b6111e7565b6040516105a99190613de1565b60405180910390f35b6105cc60048036038101906105c79190613b50565b611207565b6040516105d99190613de1565b60405180910390f35b6105fc60048036038101906105f79190613b50565b611227565b6040516106099190613e7c565b60405180910390f35b61062c60048036038101906106279190613b50565b61123f565b6040516106399190613e7c565b60405180910390f35b61065c60048036038101906106579190613c40565b611257565b6040516106699190613d74565b60405180910390f35b61068c60048036038101906106879190613b50565b611296565b6040516106999190613e7c565b60405180910390f35b6106aa6112ae565b6040516106b79190613d74565b60405180910390f35b6106da60048036038101906106d59190613b50565b6112d4565b6040516106e79190613e7c565b60405180910390f35b61070a60048036038101906107059190613c40565b6112ec565b6040516107179190613d74565b60405180910390f35b61072861132b565b6040516107359190613e7c565b60405180910390f35b61075860048036038101906107539190613b79565b61134f565b6040516107659190613e7c565b60405180910390f35b61078860048036038101906107839190613b50565b611650565b6040516107959190613de1565b60405180910390f35b6107b860048036038101906107b39190613bb5565b611670565b6040516107c59190613de1565b60405180910390f35b6107e860048036038101906107e39190613b50565b612125565b6040516107f59190613de1565b60405180910390f35b61081860048036038101906108139190613b50565b612145565b6040516108259190613de1565b60405180910390f35b61084860048036038101906108439190613b50565b612165565b005b61085261225d565b60405161085f9190613e7c565b60405180910390f35b610882600480360381019061087d9190613b50565b612263565b60405161088f9190613e7c565b60405180910390f35b6108b260048036038101906108ad9190613bf1565b61227b565b6040516108bf9190613de1565b60405180910390f35b6108e260048036038101906108dd9190613c40565b613744565b6040516108ef9190613d74565b60405180910390f35b610912600480360381019061090d9190613b50565b613783565b60405161091f9190613e7c565b60405180910390f35b6012818154811061093857600080fd5b906000526020600020016000915054906101000a900473ffffffffffffffffffffffffffffffffffffffff1681565b60066020528060005260406000206000915054906101000a900460ff1681565b60116020528060005260406000206000915054906101000a900473ffffffffffffffffffffffffffffffffffffffff1681565b6109c261379b565b73ffffffffffffffffffffffffffffffffffffffff166109e061114f565b73ffffffffffffffffffffffffffffffffffffffff1614610a36576040517f08c379a0000000000000000000000000000000000000000000000000000000008152600401610a2d90613e3c565b60405180910390fd5b600080600090505b600280549050811015610bcc57610bb7610ba860028381548110610a8b577f4e487b7100000000000000000000000000000000000000000000000000000000600052603260045260246000fd5b9060005260206000200160009054906101000a900473ffffffffffffffffffffffffffffffffffffffff1660028481548110610af0577f4e487b7100000000000000000000000000000000000000000000000000000000600052603260045260246000fd5b9060005260206000200160009054906101000a900473ffffffffffffffffffffffffffffffffffffffff1673ffffffffffffffffffffffffffffffffffffffff166370a08231306040518263ffffffff1660e01b8152600401610b539190613d74565b60206040518083038186803b158015610b6b57600080fd5b505afa158015610b7f573d6000803e3d6000fd5b505050506040513d601f19601f82011682018060405250810190610ba39190613c69565b61134f565b836137a390919063ffffffff16565b91508080610bc49061414f565b915050610a3e565b5060005b600b80549050811015610d5e57610d49610d3a600b8381548110610c1d577f4e487b7100000000000000000000000000000000000000000000000000000000600052603260045260246000fd5b9060005260206000200160009054906101000a900473ffffffffffffffffffffffffffffffffffffffff16600b8481548110610c82577f4e487b7100000000000000000000000000000000000000000000000000000000600052603260045260246000fd5b9060005260206000200160009054906101000a900473ffffffffffffffffffffffffffffffffffffffff1673ffffffffffffffffffffffffffffffffffffffff166370a08231306040518263ffffffff1660e01b8152600401610ce59190613d74565b60206040518083038186803b158015610cfd57600080fd5b505afa158015610d11573d6000803e3d6000fd5b505050506040513d601f19601f82011682018060405250810190610d359190613c69565b61134f565b836137a390919063ffffffff16565b91508080610d569061414f565b915050610bd0565b50600160009054906101000a900473ffffffffffffffffffffffffffffffffffffffff1673ffffffffffffffffffffffffffffffffffffffff16634f547369826040518263ffffffff1660e01b8152600401610dba9190613e7c565b600060405180830381600087803b158015610dd457600080fd5b505af1158015610de8573d6000803e3d6000fd5b50505050807f93bb8edd35984706eee1b92541281f7f62d33c01c5b2ec0929a113603bd21d6660405160405180910390a2807fec691f09f6924b27932253f85caf99bacc30360cc0e50a1cc4d2acc24601446660405160405180910390a250565b7f000000000000000000000000000000000000000000000000000000000000000081565b60088181548110610e7d57600080fd5b906000526020600020016000915054906101000a900473ffffffffffffffffffffffffffffffffffffffff1681565b601c6020528060005260406000206000915054906101000a900460ff1681565b601e60009054906101000a900473ffffffffffffffffffffffffffffffffffffffff1681565b610efa61379b565b73ffffffffffffffffffffffffffffffffffffffff16610f1861114f565b73ffffffffffffffffffffffffffffffffffffffff1614610f6e576040517f08c379a0000000000000000000000000000000000000000000000000000000008152600401610f6590613e3c565b60405180910390fd5b80600160006101000a81548173ffffffffffffffffffffffffffffffffffffffff021916908373ffffffffffffffffffffffffffffffffffffffff16021790555050565b60036020528060005260406000206000915054906101000a900460ff1681565b60058181548110610fe257600080fd5b906000526020600020016000915054906101000a900473ffffffffffffffffffffffffffffffffffffffff1681565b6015818154811061102157600080fd5b906000526020600020016000915054906101000a900473ffffffffffffffffffffffffffffffffffffffff1681565b61105861379b565b73ffffffffffffffffffffffffffffffffffffffff1661107661114f565b73ffffffffffffffffffffffffffffffffffffffff16146110cc576040517f08c379a00000000000000000000000000000000000000000000000000000000081526004016110c390613e3c565b60405180910390fd5b6110d660006137b9565b565b60046020528060005260406000206000915090505481565b6018818154811061110057600080fd5b906000526020600020016000915054906101000a900473ffffffffffffffffffffffffffffffffffffffff1681565b60096020528060005260406000206000915054906101000a900460ff1681565b60008060009054906101000a900473ffffffffffffffffffffffffffffffffffffffff16905090565b600d6020528060005260406000206000915090505481565b600e81815481106111a057600080fd5b906000526020600020016000915054906101000a900473ffffffffffffffffffffffffffffffffffffffff1681565b60076020528060005260406000206000915090505481565b600f6020528060005260406000206000915054906101000a900460ff1681565b600c6020528060005260406000206000915054906101000a900460ff1681565b60176020528060005260406000206000915090505481565b60146020528060005260406000206000915090505481565b601b818154811061126757600080fd5b906000526020600020016000915054906101000a900473ffffffffffffffffffffffffffffffffffffffff1681565b600a6020528060005260406000206000915090505481565b600160009054906101000a900473ffffffffffffffffffffffffffffffffffffffff1681565b601a6020528060005260406000206000915090505481565b600281815481106112fc57600080fd5b906000526020600020016000915054906101000a900473ffffffffffffffffffffffffffffffffffffffff1681565b7f000000000000000000000000000000000000000000000000000000000000000081565b6000600360008473ffffffffffffffffffffffffffffffffffffffff1673ffffffffffffffffffffffffffffffffffffffff16815260200190815260200160002060009054906101000a900460ff1615611501576114fa8373ffffffffffffffffffffffffffffffffffffffff1663313ce5676040518163ffffffff1660e01b815260040160206040518083038186803b1580156113ec57600080fd5b505afa158015611400573d6000803e3d6000fd5b505050506040513d601f19601f820116820180604052508101906114249190613c92565b600a6114309190613f82565b6114ec7f000000000000000000000000000000000000000000000000000000000000000073ffffffffffffffffffffffffffffffffffffffff1663313ce5676040518163ffffffff1660e01b815260040160206040518083038186803b15801561149957600080fd5b505afa1580156114ad573d6000803e3d6000fd5b505050506040513d601f19601f820116820180604052508101906114d19190613c92565b600a6114dd9190613f82565b8561387d90919063ffffffff16565b61389390919063ffffffff16565b905061164a565b600c60008473ffffffffffffffffffffffffffffffffffffffff1673ffffffffffffffffffffffffffffffffffffffff16815260200190815260200160002060009054906101000a900460ff161561164457601160008473ffffffffffffffffffffffffffffffffffffffff1673ffffffffffffffffffffffffffffffffffffffff16815260200190815260200160002060009054906101000a900473ffffffffffffffffffffffffffffffffffffffff1673ffffffffffffffffffffffffffffffffffffffff16634249719f84846040518363ffffffff1660e01b81526004016115ed929190613db8565b60206040518083038186803b15801561160557600080fd5b505afa158015611619573d6000803e3d6000fd5b505050506040513d601f19601f8201168201806040525081019061163d9190613c69565b9050611649565b600090505b5b92915050565b60166020528060005260406000206000915054906101000a900460ff1681565b600061167a61379b565b73ffffffffffffffffffffffffffffffffffffffff1661169861114f565b73ffffffffffffffffffffffffffffffffffffffff16146116ee576040517f08c379a00000000000000000000000000000000000000000000000000000000081526004016116e590613e3c565b60405180910390fd5b600073ffffffffffffffffffffffffffffffffffffffff168273ffffffffffffffffffffffffffffffffffffffff16141561172857600080fd5b60006009811115611762577f4e487b7100000000000000000000000000000000000000000000000000000000600052602160045260246000fd5b83600981111561179b577f4e487b7100000000000000000000000000000000000000000000000000000000600052602160045260246000fd5b141561181c576117d47f0000000000000000000000000000000000000000000000000000000000000000436137a390919063ffffffff16565b600760008473ffffffffffffffffffffffffffffffffffffffff1673ffffffffffffffffffffffffffffffffffffffff168152602001908152602001600020819055506120aa565b60016009811115611856577f4e487b7100000000000000000000000000000000000000000000000000000000600052602160045260246000fd5b83600981111561188f577f4e487b7100000000000000000000000000000000000000000000000000000000600052602160045260246000fd5b1415611910576118c87f0000000000000000000000000000000000000000000000000000000000000000436137a390919063ffffffff16565b600a60008473ffffffffffffffffffffffffffffffffffffffff1673ffffffffffffffffffffffffffffffffffffffff168152602001908152602001600020819055506120a9565b6002600981111561194a577f4e487b7100000000000000000000000000000000000000000000000000000000600052602160045260246000fd5b836009811115611983577f4e487b7100000000000000000000000000000000000000000000000000000000600052602160045260246000fd5b1415611a04576119bc7f0000000000000000000000000000000000000000000000000000000000000000436137a390919063ffffffff16565b600460008473ffffffffffffffffffffffffffffffffffffffff1673ffffffffffffffffffffffffffffffffffffffff168152602001908152602001600020819055506120a8565b60036009811115611a3e577f4e487b7100000000000000000000000000000000000000000000000000000000600052602160045260246000fd5b836009811115611a77577f4e487b7100000000000000000000000000000000000000000000000000000000600052602160045260246000fd5b1415611b0b57611ac3611ab460027f000000000000000000000000000000000000000000000000000000000000000061387d90919063ffffffff16565b436137a390919063ffffffff16565b601460008473ffffffffffffffffffffffffffffffffffffffff1673ffffffffffffffffffffffffffffffffffffffff168152602001908152602001600020819055506120a7565b60046009811115611b45577f4e487b7100000000000000000000000000000000000000000000000000000000600052602160045260246000fd5b836009811115611b7e577f4e487b7100000000000000000000000000000000000000000000000000000000600052602160045260246000fd5b1415611bff57611bb77f0000000000000000000000000000000000000000000000000000000000000000436137a390919063ffffffff16565b601060008473ffffffffffffffffffffffffffffffffffffffff1673ffffffffffffffffffffffffffffffffffffffff168152602001908152602001600020819055506120a6565b60056009811115611c39577f4e487b7100000000000000000000000000000000000000000000000000000000600052602160045260246000fd5b836009811115611c72577f4e487b7100000000000000000000000000000000000000000000000000000000600052602160045260246000fd5b1415611cf357611cab7f0000000000000000000000000000000000000000000000000000000000000000436137a390919063ffffffff16565b600d60008473ffffffffffffffffffffffffffffffffffffffff1673ffffffffffffffffffffffffffffffffffffffff168152602001908152602001600020819055506120a5565b60066009811115611d2d577f4e487b7100000000000000000000000000000000000000000000000000000000600052602160045260246000fd5b836009811115611d66577f4e487b7100000000000000000000000000000000000000000000000000000000600052602160045260246000fd5b1415611dfa57611db2611da360027f000000000000000000000000000000000000000000000000000000000000000061387d90919063ffffffff16565b436137a390919063ffffffff16565b601760008473ffffffffffffffffffffffffffffffffffffffff1673ffffffffffffffffffffffffffffffffffffffff168152602001908152602001600020819055506120a4565b60076009811115611e34577f4e487b7100000000000000000000000000000000000000000000000000000000600052602160045260246000fd5b836009811115611e6d577f4e487b7100000000000000000000000000000000000000000000000000000000600052602160045260246000fd5b1415611eee57611ea67f0000000000000000000000000000000000000000000000000000000000000000436137a390919063ffffffff16565b601a60008473ffffffffffffffffffffffffffffffffffffffff1673ffffffffffffffffffffffffffffffffffffffff168152602001908152602001600020819055506120a3565b60086009811115611f28577f4e487b7100000000000000000000000000000000000000000000000000000000600052602160045260246000fd5b836009811115611f61577f4e487b7100000000000000000000000000000000000000000000000000000000600052602160045260246000fd5b1415611fe257611f9a7f0000000000000000000000000000000000000000000000000000000000000000436137a390919063ffffffff16565b601d60008473ffffffffffffffffffffffffffffffffffffffff1673ffffffffffffffffffffffffffffffffffffffff168152602001908152602001600020819055506120a2565b60098081111561201b577f4e487b7100000000000000000000000000000000000000000000000000000000600052602160045260246000fd5b836009811115612054577f4e487b7100000000000000000000000000000000000000000000000000000000600052602160045260246000fd5b14156120985761208d7f0000000000000000000000000000000000000000000000000000000000000000436137a390919063ffffffff16565b601f819055506120a1565b6000905061211f565b5b5b5b5b5b5b5b5b5b8260098111156120e3577f4e487b7100000000000000000000000000000000000000000000000000000000600052602160045260246000fd5b7f0e4f2c4b5bc209d509bc3d49348c787fefadc66a79351b470599ac0f5be52eaf836040516121129190613d74565b60405180910390a2600190505b92915050565b60136020528060005260406000206000915054906101000a900460ff1681565b60196020528060005260406000206000915054906101000a900460ff1681565b61216d61379b565b73ffffffffffffffffffffffffffffffffffffffff1661218b61114f565b73ffffffffffffffffffffffffffffffffffffffff16146121e1576040517f08c379a00000000000000000000000000000000000000000000000000000000081526004016121d890613e3c565b60405180910390fd5b600073ffffffffffffffffffffffffffffffffffffffff168173ffffffffffffffffffffffffffffffffffffffff161415612251576040517f08c379a000000000000000000000000000000000000000000000000000000000815260040161224890613e1c565b60405180910390fd5b61225a816137b9565b50565b601f5481565b601d6020528060005260406000206000915090505481565b600061228561379b565b73ffffffffffffffffffffffffffffffffffffffff166122a361114f565b73ffffffffffffffffffffffffffffffffffffffff16146122f9576040517f08c379a00000000000000000000000000000000000000000000000000000000081526004016122f090613e3c565b60405180910390fd5b600073ffffffffffffffffffffffffffffffffffffffff168373ffffffffffffffffffffffffffffffffffffffff16141561233357600080fd5b600080600981111561236e577f4e487b7100000000000000000000000000000000000000000000000000000000600052602160045260246000fd5b8560098111156123a7577f4e487b7100000000000000000000000000000000000000000000000000000000600052602160045260246000fd5b1415612524576123ba60076006866138a9565b15612478576000600760008673ffffffffffffffffffffffffffffffffffffffff1673ffffffffffffffffffffffffffffffffffffffff1681526020019081526020016000208190555061240f600585613a13565b612477576005849080600181540180825580915050600190039060005260206000200160009091909190916101000a81548173ffffffffffffffffffffffffffffffffffffffff021916908373ffffffffffffffffffffffffffffffffffffffff1602179055505b5b600660008573ffffffffffffffffffffffffffffffffffffffff1673ffffffffffffffffffffffffffffffffffffffff16815260200190815260200160002060009054906101000a900460ff1615905080600660008673ffffffffffffffffffffffffffffffffffffffff1673ffffffffffffffffffffffffffffffffffffffff16815260200190815260200160002060006101000a81548160ff0219169083151502179055506136c5565b6001600981111561255e577f4e487b7100000000000000000000000000000000000000000000000000000000600052602160045260246000fd5b856009811115612597577f4e487b7100000000000000000000000000000000000000000000000000000000600052602160045260246000fd5b1415612714576125aa600a6009866138a9565b15612668576000600a60008673ffffffffffffffffffffffffffffffffffffffff1673ffffffffffffffffffffffffffffffffffffffff168152602001908152602001600020819055506125ff600885613a13565b612667576008849080600181540180825580915050600190039060005260206000200160009091909190916101000a81548173ffffffffffffffffffffffffffffffffffffffff021916908373ffffffffffffffffffffffffffffffffffffffff1602179055505b5b600960008573ffffffffffffffffffffffffffffffffffffffff1673ffffffffffffffffffffffffffffffffffffffff16815260200190815260200160002060009054906101000a900460ff1615905080600960008673ffffffffffffffffffffffffffffffffffffffff1673ffffffffffffffffffffffffffffffffffffffff16815260200190815260200160002060006101000a81548160ff0219169083151502179055506136c4565b6002600981111561274e577f4e487b7100000000000000000000000000000000000000000000000000000000600052602160045260246000fd5b856009811115612787577f4e487b7100000000000000000000000000000000000000000000000000000000600052602160045260246000fd5b14156129045761279a60046003866138a9565b15612858576000600460008673ffffffffffffffffffffffffffffffffffffffff1673ffffffffffffffffffffffffffffffffffffffff168152602001908152602001600020819055506127ef600285613a13565b612857576002849080600181540180825580915050600190039060005260206000200160009091909190916101000a81548173ffffffffffffffffffffffffffffffffffffffff021916908373ffffffffffffffffffffffffffffffffffffffff1602179055505b5b600360008573ffffffffffffffffffffffffffffffffffffffff1673ffffffffffffffffffffffffffffffffffffffff16815260200190815260200160002060009054906101000a900460ff1615905080600360008673ffffffffffffffffffffffffffffffffffffffff1673ffffffffffffffffffffffffffffffffffffffff16815260200190815260200160002060006101000a81548160ff0219169083151502179055506136c3565b6003600981111561293e577f4e487b7100000000000000000000000000000000000000000000000000000000600052602160045260246000fd5b856009811115612977577f4e487b7100000000000000000000000000000000000000000000000000000000600052602160045260246000fd5b1415612b575761298a60146013866138a9565b15612aab576012849080600181540180825580915050600190039060005260206000200160009091909190916101000a81548173ffffffffffffffffffffffffffffffffffffffff021916908373ffffffffffffffffffffffffffffffffffffffff1602179055506000601460008673ffffffffffffffffffffffffffffffffffffffff1673ffffffffffffffffffffffffffffffffffffffff16815260200190815260200160002081905550612a42601285613a13565b612aaa576012849080600181540180825580915050600190039060005260206000200160009091909190916101000a81548173ffffffffffffffffffffffffffffffffffffffff021916908373ffffffffffffffffffffffffffffffffffffffff1602179055505b5b601360008573ffffffffffffffffffffffffffffffffffffffff1673ffffffffffffffffffffffffffffffffffffffff16815260200190815260200160002060009054906101000a900460ff1615905080601360008673ffffffffffffffffffffffffffffffffffffffff1673ffffffffffffffffffffffffffffffffffffffff16815260200190815260200160002060006101000a81548160ff0219169083151502179055506136c2565b60046009811115612b91577f4e487b7100000000000000000000000000000000000000000000000000000000600052602160045260246000fd5b856009811115612bca577f4e487b7100000000000000000000000000000000000000000000000000000000600052602160045260246000fd5b1415612daa57612bdd6010600f866138a9565b15612cfe57600e849080600181540180825580915050600190039060005260206000200160009091909190916101000a81548173ffffffffffffffffffffffffffffffffffffffff021916908373ffffffffffffffffffffffffffffffffffffffff1602179055506000601060008673ffffffffffffffffffffffffffffffffffffffff1673ffffffffffffffffffffffffffffffffffffffff16815260200190815260200160002081905550612c95600e85613a13565b612cfd57600e849080600181540180825580915050600190039060005260206000200160009091909190916101000a81548173ffffffffffffffffffffffffffffffffffffffff021916908373ffffffffffffffffffffffffffffffffffffffff1602179055505b5b600f60008573ffffffffffffffffffffffffffffffffffffffff1673ffffffffffffffffffffffffffffffffffffffff16815260200190815260200160002060009054906101000a900460ff1615905080600f60008673ffffffffffffffffffffffffffffffffffffffff1673ffffffffffffffffffffffffffffffffffffffff16815260200190815260200160002060006101000a81548160ff0219169083151502179055506136c1565b60056009811115612de4577f4e487b7100000000000000000000000000000000000000000000000000000000600052602160045260246000fd5b856009811115612e1d577f4e487b7100000000000000000000000000000000000000000000000000000000600052602160045260246000fd5b141561301857612e30600d600c866138a9565b15612eee576000600d60008673ffffffffffffffffffffffffffffffffffffffff1673ffffffffffffffffffffffffffffffffffffffff16815260200190815260200160002081905550612e85600b85613a13565b612eed57600b849080600181540180825580915050600190039060005260206000200160009091909190916101000a81548173ffffffffffffffffffffffffffffffffffffffff021916908373ffffffffffffffffffffffffffffffffffffffff1602179055505b5b600c60008573ffffffffffffffffffffffffffffffffffffffff1673ffffffffffffffffffffffffffffffffffffffff16815260200190815260200160002060009054906101000a900460ff1615905080600c60008673ffffffffffffffffffffffffffffffffffffffff1673ffffffffffffffffffffffffffffffffffffffff16815260200190815260200160002060006101000a81548160ff02191690831515021790555082601160008673ffffffffffffffffffffffffffffffffffffffff1673ffffffffffffffffffffffffffffffffffffffff16815260200190815260200160002060006101000a81548173ffffffffffffffffffffffffffffffffffffffff021916908373ffffffffffffffffffffffffffffffffffffffff1602179055506136c0565b60066009811115613052577f4e487b7100000000000000000000000000000000000000000000000000000000600052602160045260246000fd5b85600981111561308b577f4e487b7100000000000000000000000000000000000000000000000000000000600052602160045260246000fd5b14156132085761309e60176016866138a9565b1561315c576000601760008673ffffffffffffffffffffffffffffffffffffffff1673ffffffffffffffffffffffffffffffffffffffff168152602001908152602001600020819055506130f3601585613a13565b61315b576015849080600181540180825580915050600190039060005260206000200160009091909190916101000a81548173ffffffffffffffffffffffffffffffffffffffff021916908373ffffffffffffffffffffffffffffffffffffffff1602179055505b5b601660008573ffffffffffffffffffffffffffffffffffffffff1673ffffffffffffffffffffffffffffffffffffffff16815260200190815260200160002060009054906101000a900460ff1615905080601660008673ffffffffffffffffffffffffffffffffffffffff1673ffffffffffffffffffffffffffffffffffffffff16815260200190815260200160002060006101000a81548160ff0219169083151502179055506136bf565b60076009811115613242577f4e487b7100000000000000000000000000000000000000000000000000000000600052602160045260246000fd5b85600981111561327b577f4e487b7100000000000000000000000000000000000000000000000000000000600052602160045260246000fd5b14156133f85761328e601a6019866138a9565b1561334c576000601a60008673ffffffffffffffffffffffffffffffffffffffff1673ffffffffffffffffffffffffffffffffffffffff168152602001908152602001600020819055506132e3601885613a13565b61334b576018849080600181540180825580915050600190039060005260206000200160009091909190916101000a81548173ffffffffffffffffffffffffffffffffffffffff021916908373ffffffffffffffffffffffffffffffffffffffff1602179055505b5b601960008573ffffffffffffffffffffffffffffffffffffffff1673ffffffffffffffffffffffffffffffffffffffff16815260200190815260200160002060009054906101000a900460ff1615905080601960008673ffffffffffffffffffffffffffffffffffffffff1673ffffffffffffffffffffffffffffffffffffffff16815260200190815260200160002060006101000a81548160ff0219169083151502179055506136be565b60086009811115613432577f4e487b7100000000000000000000000000000000000000000000000000000000600052602160045260246000fd5b85600981111561346b577f4e487b7100000000000000000000000000000000000000000000000000000000600052602160045260246000fd5b14156135e85761347e601d601c866138a9565b1561353c576000601d60008673ffffffffffffffffffffffffffffffffffffffff1673ffffffffffffffffffffffffffffffffffffffff168152602001908152602001600020819055506134d3601b85613a13565b61353b57601b849080600181540180825580915050600190039060005260206000200160009091909190916101000a81548173ffffffffffffffffffffffffffffffffffffffff021916908373ffffffffffffffffffffffffffffffffffffffff1602179055505b5b601c60008573ffffffffffffffffffffffffffffffffffffffff1673ffffffffffffffffffffffffffffffffffffffff16815260200190815260200160002060009054906101000a900460ff1615905080601c60008673ffffffffffffffffffffffffffffffffffffffff1673ffffffffffffffffffffffffffffffffffffffff16815260200190815260200160002060006101000a81548160ff0219169083151502179055506136bd565b600980811115613621577f4e487b7100000000000000000000000000000000000000000000000000000000600052602160045260246000fd5b85600981111561365a577f4e487b7100000000000000000000000000000000000000000000000000000000600052602160045260246000fd5b14156136b2576000601f8190555083601e60006101000a81548173ffffffffffffffffffffffffffffffffffffffff021916908373ffffffffffffffffffffffffffffffffffffffff160217905550600190506136bc565b600091505061373d565b5b5b5b5b5b5b5b5b5b8460098111156136fe577f4e487b7100000000000000000000000000000000000000000000000000000000600052602160045260246000fd5b7f0dcacb7e392f3d6a216ed2660e3dcfd40b7793d33591db2ba185a6b8e44fc477858360405161372f929190613d8f565b60405180910390a260019150505b9392505050565b600b818154811061375457600080fd5b906000526020600020016000915054906101000a900473ffffffffffffffffffffffffffffffffffffffff1681565b60106020528060005260406000206000915090505481565b600033905090565b600081836137b19190613ea8565b905092915050565b60008060009054906101000a900473ffffffffffffffffffffffffffffffffffffffff169050816000806101000a81548173ffffffffffffffffffffffffffffffffffffffff021916908373ffffffffffffffffffffffffffffffffffffffff1602179055508173ffffffffffffffffffffffffffffffffffffffff168173ffffffffffffffffffffffffffffffffffffffff167f8be0079c531659141344cd1fd0a4f28419497f9722a3daafe3b4186f6b6457e060405160405180910390a35050565b6000818361388b91906140a0565b905092915050565b600081836138a19190613efe565b905092915050565b60008260008373ffffffffffffffffffffffffffffffffffffffff1673ffffffffffffffffffffffffffffffffffffffff16815260200190815260200160002060009054906101000a900460ff16613a075760008460008473ffffffffffffffffffffffffffffffffffffffff1673ffffffffffffffffffffffffffffffffffffffff16815260200190815260200160002054141561397d576040517f08c379a000000000000000000000000000000000000000000000000000000000815260040161397490613e5c565b60405180910390fd5b438460008473ffffffffffffffffffffffffffffffffffffffff1673ffffffffffffffffffffffffffffffffffffffff1681526020019081526020016000205411156139fe576040517f08c379a00000000000000000000000000000000000000000000000000000000081526004016139f590613dfc565b60405180910390fd5b60019050613a0c565b600090505b9392505050565b600080600090505b8380549050811015613adb578273ffffffffffffffffffffffffffffffffffffffff16848281548110613a77577f4e487b7100000000000000000000000000000000000000000000000000000000600052603260045260246000fd5b9060005260206000200160009054906101000a900473ffffffffffffffffffffffffffffffffffffffff1673ffffffffffffffffffffffffffffffffffffffff161415613ac8576001915050613ae1565b8080613ad39061414f565b915050613a1b565b50600090505b92915050565b600081359050613af6816142cd565b92915050565b600081359050613b0b816142e4565b92915050565b600081359050613b20816142f4565b92915050565b600081519050613b35816142f4565b92915050565b600081519050613b4a8161430b565b92915050565b600060208284031215613b6257600080fd5b6000613b7084828501613ae7565b91505092915050565b60008060408385031215613b8c57600080fd5b6000613b9a85828601613ae7565b9250506020613bab85828601613b11565b9150509250929050565b60008060408385031215613bc857600080fd5b6000613bd685828601613afc565b9250506020613be785828601613ae7565b9150509250929050565b600080600060608486031215613c0657600080fd5b6000613c1486828701613afc565b9350506020613c2586828701613ae7565b9250506040613c3686828701613ae7565b9150509250925092565b600060208284031215613c5257600080fd5b6000613c6084828501613b11565b91505092915050565b600060208284031215613c7b57600080fd5b6000613c8984828501613b26565b91505092915050565b600060208284031215613ca457600080fd5b6000613cb284828501613b3b565b91505092915050565b613cc4816140fa565b82525050565b613cd38161410c565b82525050565b6000613ce6601183613e97565b9150613cf182614203565b602082019050919050565b6000613d09602683613e97565b9150613d148261422c565b604082019050919050565b6000613d2c602083613e97565b9150613d378261427b565b602082019050919050565b6000613d4f600a83613e97565b9150613d5a826142a4565b602082019050919050565b613d6e81614138565b82525050565b6000602082019050613d896000830184613cbb565b92915050565b6000604082019050613da46000830185613cbb565b613db16020830184613cca565b9392505050565b6000604082019050613dcd6000830185613cbb565b613dda6020830184613d65565b9392505050565b6000602082019050613df66000830184613cca565b92915050565b60006020820190508181036000830152613e1581613cd9565b9050919050565b60006020820190508181036000830152613e3581613cfc565b9050919050565b60006020820190508181036000830152613e5581613d1f565b9050919050565b60006020820190508181036000830152613e7581613d42565b9050919050565b6000602082019050613e916000830184613d65565b92915050565b600082825260208201905092915050565b6000613eb382614138565b9150613ebe83614138565b9250827fffffffffffffffffffffffffffffffffffffffffffffffffffffffffffffffff03821115613ef357613ef2614198565b5b828201905092915050565b6000613f0982614138565b9150613f1483614138565b925082613f2457613f236141c7565b5b828204905092915050565b6000808291508390505b6001851115613f7957808604811115613f5557613f54614198565b5b6001851615613f645780820291505b8081029050613f72856141f6565b9450613f39565b94509492505050565b6000613f8d82614138565b9150613f9883614142565b9250613fc57fffffffffffffffffffffffffffffffffffffffffffffffffffffffffffffffff8484613fcd565b905092915050565b600082613fdd5760019050614099565b81613feb5760009050614099565b8160018114614001576002811461400b5761403a565b6001915050614099565b60ff84111561401d5761401c614198565b5b8360020a91508482111561403457614033614198565b5b50614099565b5060208310610133831016604e8410600b841016171561406f5782820a90508381111561406a57614069614198565b5b614099565b61407c8484846001613f2f565b9250905081840481111561409357614092614198565b5b81810290505b9392505050565b60006140ab82614138565b91506140b683614138565b9250817fffffffffffffffffffffffffffffffffffffffffffffffffffffffffffffffff04831182151516156140ef576140ee614198565b5b828202905092915050565b600061410582614118565b9050919050565b60008115159050919050565b600073ffffffffffffffffffffffffffffffffffffffff82169050919050565b6000819050919050565b600060ff82169050919050565b600061415a82614138565b91507fffffffffffffffffffffffffffffffffffffffffffffffffffffffffffffffff82141561418d5761418c614198565b5b600182019050919050565b7f4e487b7100000000000000000000000000000000000000000000000000000000600052601160045260246000fd5b7f4e487b7100000000000000000000000000000000000000000000000000000000600052601260045260246000fd5b60008160011c9050919050565b7f5175657565206e6f742065787069726564000000000000000000000000000000600082015250565b7f4f776e61626c653a206e6577206f776e657220697320746865207a65726f206160008201527f6464726573730000000000000000000000000000000000000000000000000000602082015250565b7f4f776e61626c653a2063616c6c6572206973206e6f7420746865206f776e6572600082015250565b7f4d75737420717565756500000000000000000000000000000000000000000000600082015250565b6142d6816140fa565b81146142e157600080fd5b50565b600a81106142f157600080fd5b50565b6142fd81614138565b811461430857600080fd5b50565b61431481614142565b811461431f57600080fd5b5056fea26469706673582212203e977ce3df16c8e06a4c9174c1cd8743b6efae49b45a4aceb483642cb2585e2664736f6c63430008040033",
  "linkReferences": {},
  "deployedLinkReferences": {}
}