{
  "_format": "hh-sol-artifact-1",
  "contractName": "TreasuryHelper",
  "sourceName": "contracts/coreContracts/TreasuryHelper.sol",
  "abi": [
    {
      "inputs": [
        {
          "internalType": "address",
          "name": "_CHRF",
          "type": "address"
        },
        {
          "internalType": "address",
          "name": "_MIM",
          "type": "address"
        },
        {
          "internalType": "uint256",
          "name": "_blocksNeededForQueue",
          "type": "uint256"
        }
      ],
      "stateMutability": "nonpayable",
      "type": "constructor"
    },
    {
      "anonymous": false,
      "inputs": [
        {
          "indexed": true,
          "internalType": "enum TreasuryHelper.MANAGING",
          "name": "managing",
          "type": "uint8"
        },
        {
          "indexed": false,
          "internalType": "address",
          "name": "activated",
          "type": "address"
        },
        {
          "indexed": false,
          "internalType": "bool",
          "name": "result",
          "type": "bool"
        }
      ],
      "name": "ChangeActivated",
      "type": "event"
    },
    {
      "anonymous": false,
      "inputs": [
        {
          "indexed": true,
          "internalType": "enum TreasuryHelper.MANAGING",
          "name": "managing",
          "type": "uint8"
        },
        {
          "indexed": false,
          "internalType": "address",
          "name": "queued",
          "type": "address"
        }
      ],
      "name": "ChangeQueued",
      "type": "event"
    },
    {
      "anonymous": false,
      "inputs": [
        {
          "indexed": true,
          "internalType": "address",
          "name": "previousOwner",
          "type": "address"
        },
        {
          "indexed": true,
          "internalType": "address",
          "name": "newOwner",
          "type": "address"
        }
      ],
      "name": "OwnershipTransferred",
      "type": "event"
    },
    {
      "anonymous": false,
      "inputs": [
        {
          "indexed": true,
          "internalType": "uint256",
          "name": "totalReserves",
          "type": "uint256"
        }
      ],
      "name": "ReservesAudited",
      "type": "event"
    },
    {
      "anonymous": false,
      "inputs": [
        {
          "indexed": true,
          "internalType": "uint256",
          "name": "totalReserves",
          "type": "uint256"
        }
      ],
      "name": "ReservesUpdated",
      "type": "event"
    },
    {
      "inputs": [],
      "name": "CHRF",
      "outputs": [
        {
          "internalType": "address",
          "name": "",
          "type": "address"
        }
      ],
      "stateMutability": "view",
      "type": "function"
    },
    {
      "inputs": [
        {
          "internalType": "address",
          "name": "",
          "type": "address"
        }
      ],
      "name": "LiquidityDepositorQueue",
      "outputs": [
        {
          "internalType": "uint256",
          "name": "",
          "type": "uint256"
        }
      ],
      "stateMutability": "view",
      "type": "function"
    },
    {
      "inputs": [
        {
          "internalType": "address",
          "name": "",
          "type": "address"
        }
      ],
      "name": "LiquidityManagerQueue",
      "outputs": [
        {
          "internalType": "uint256",
          "name": "",
          "type": "uint256"
        }
      ],
      "stateMutability": "view",
      "type": "function"
    },
    {
      "inputs": [
        {
          "internalType": "address",
          "name": "",
          "type": "address"
        }
      ],
      "name": "LiquidityTokenQueue",
      "outputs": [
        {
          "internalType": "uint256",
          "name": "",
          "type": "uint256"
        }
      ],
      "stateMutability": "view",
      "type": "function"
    },
    {
      "inputs": [
        {
          "internalType": "address",
          "name": "",
          "type": "address"
        }
      ],
      "name": "ReserveManagerQueue",
      "outputs": [
        {
          "internalType": "uint256",
          "name": "",
          "type": "uint256"
        }
      ],
      "stateMutability": "view",
      "type": "function"
    },
    {
      "inputs": [],
      "name": "blocksNeededForQueue",
      "outputs": [
        {
          "internalType": "uint256",
          "name": "",
          "type": "uint256"
        }
      ],
      "stateMutability": "view",
      "type": "function"
    },
    {
      "inputs": [
        {
          "internalType": "address",
          "name": "",
          "type": "address"
        }
      ],
      "name": "bondCalculator",
      "outputs": [
        {
          "internalType": "address",
          "name": "",
          "type": "address"
        }
      ],
      "stateMutability": "view",
      "type": "function"
    },
    {
      "inputs": [
        {
          "internalType": "address",
          "name": "",
          "type": "address"
        }
      ],
      "name": "debtorQueue",
      "outputs": [
        {
          "internalType": "uint256",
          "name": "",
          "type": "uint256"
        }
      ],
      "stateMutability": "view",
      "type": "function"
    },
    {
      "inputs": [
        {
          "internalType": "uint256",
          "name": "",
          "type": "uint256"
        }
      ],
      "name": "debtors",
      "outputs": [
        {
          "internalType": "address",
          "name": "",
          "type": "address"
        }
      ],
      "stateMutability": "view",
      "type": "function"
    },
    {
      "inputs": [
        {
          "internalType": "address",
          "name": "",
          "type": "address"
        }
      ],
      "name": "isDebtor",
      "outputs": [
        {
          "internalType": "bool",
          "name": "",
          "type": "bool"
        }
      ],
      "stateMutability": "view",
      "type": "function"
    },
    {
      "inputs": [
        {
          "internalType": "address",
          "name": "",
          "type": "address"
        }
      ],
      "name": "isLiquidityDepositor",
      "outputs": [
        {
          "internalType": "bool",
          "name": "",
          "type": "bool"
        }
      ],
      "stateMutability": "view",
      "type": "function"
    },
    {
      "inputs": [
        {
          "internalType": "address",
          "name": "",
          "type": "address"
        }
      ],
      "name": "isLiquidityManager",
      "outputs": [
        {
          "internalType": "bool",
          "name": "",
          "type": "bool"
        }
      ],
      "stateMutability": "view",
      "type": "function"
    },
    {
      "inputs": [
        {
          "internalType": "address",
          "name": "",
          "type": "address"
        }
      ],
      "name": "isLiquidityToken",
      "outputs": [
        {
          "internalType": "bool",
          "name": "",
          "type": "bool"
        }
      ],
      "stateMutability": "view",
      "type": "function"
    },
    {
      "inputs": [
        {
          "internalType": "address",
          "name": "",
          "type": "address"
        }
      ],
      "name": "isReserveDepositor",
      "outputs": [
        {
          "internalType": "bool",
          "name": "",
          "type": "bool"
        }
      ],
      "stateMutability": "view",
      "type": "function"
    },
    {
      "inputs": [
        {
          "internalType": "address",
          "name": "",
          "type": "address"
        }
      ],
      "name": "isReserveManager",
      "outputs": [
        {
          "internalType": "bool",
          "name": "",
          "type": "bool"
        }
      ],
      "stateMutability": "view",
      "type": "function"
    },
    {
      "inputs": [
        {
          "internalType": "address",
          "name": "",
          "type": "address"
        }
      ],
      "name": "isReserveSpender",
      "outputs": [
        {
          "internalType": "bool",
          "name": "",
          "type": "bool"
        }
      ],
      "stateMutability": "view",
      "type": "function"
    },
    {
      "inputs": [
        {
          "internalType": "address",
          "name": "",
          "type": "address"
        }
      ],
      "name": "isReserveToken",
      "outputs": [
        {
          "internalType": "bool",
          "name": "",
          "type": "bool"
        }
      ],
      "stateMutability": "view",
      "type": "function"
    },
    {
      "inputs": [
        {
          "internalType": "address",
          "name": "",
          "type": "address"
        }
      ],
      "name": "isRewardManager",
      "outputs": [
        {
          "internalType": "bool",
          "name": "",
          "type": "bool"
        }
      ],
      "stateMutability": "view",
      "type": "function"
    },
    {
      "inputs": [
        {
          "internalType": "uint256",
          "name": "",
          "type": "uint256"
        }
      ],
      "name": "liquidityDepositors",
      "outputs": [
        {
          "internalType": "address",
          "name": "",
          "type": "address"
        }
      ],
      "stateMutability": "view",
      "type": "function"
    },
    {
      "inputs": [
        {
          "internalType": "uint256",
          "name": "",
          "type": "uint256"
        }
      ],
      "name": "liquidityManagers",
      "outputs": [
        {
          "internalType": "address",
          "name": "",
          "type": "address"
        }
      ],
      "stateMutability": "view",
      "type": "function"
    },
    {
      "inputs": [
        {
          "internalType": "uint256",
          "name": "",
          "type": "uint256"
        }
      ],
      "name": "liquidityTokens",
      "outputs": [
        {
          "internalType": "address",
          "name": "",
          "type": "address"
        }
      ],
      "stateMutability": "view",
      "type": "function"
    },
    {
      "inputs": [],
      "name": "owner",
      "outputs": [
        {
          "internalType": "address",
          "name": "",
          "type": "address"
        }
      ],
      "stateMutability": "view",
      "type": "function"
    },
    {
      "inputs": [
        {
          "internalType": "enum TreasuryHelper.MANAGING",
          "name": "_managing",
          "type": "uint8"
        },
        {
          "internalType": "address",
          "name": "_address",
          "type": "address"
        }
      ],
      "name": "queue",
      "outputs": [
        {
          "internalType": "bool",
          "name": "",
          "type": "bool"
        }
      ],
      "stateMutability": "nonpayable",
      "type": "function"
    },
    {
      "inputs": [],
      "name": "renounceOwnership",
      "outputs": [],
      "stateMutability": "nonpayable",
      "type": "function"
    },
    {
      "inputs": [
        {
          "internalType": "address",
          "name": "",
          "type": "address"
        }
      ],
      "name": "reserveDepositorQueue",
      "outputs": [
        {
          "internalType": "uint256",
          "name": "",
          "type": "uint256"
        }
      ],
      "stateMutability": "view",
      "type": "function"
    },
    {
      "inputs": [
        {
          "internalType": "uint256",
          "name": "",
          "type": "uint256"
        }
      ],
      "name": "reserveDepositors",
      "outputs": [
        {
          "internalType": "address",
          "name": "",
          "type": "address"
        }
      ],
      "stateMutability": "view",
      "type": "function"
    },
    {
      "inputs": [
        {
          "internalType": "uint256",
          "name": "",
          "type": "uint256"
        }
      ],
      "name": "reserveManagers",
      "outputs": [
        {
          "internalType": "address",
          "name": "",
          "type": "address"
        }
      ],
      "stateMutability": "view",
      "type": "function"
    },
    {
      "inputs": [
        {
          "internalType": "address",
          "name": "",
          "type": "address"
        }
      ],
      "name": "reserveSpenderQueue",
      "outputs": [
        {
          "internalType": "uint256",
          "name": "",
          "type": "uint256"
        }
      ],
      "stateMutability": "view",
      "type": "function"
    },
    {
      "inputs": [
        {
          "internalType": "uint256",
          "name": "",
          "type": "uint256"
        }
      ],
      "name": "reserveSpenders",
      "outputs": [
        {
          "internalType": "address",
          "name": "",
          "type": "address"
        }
      ],
      "stateMutability": "view",
      "type": "function"
    },
    {
      "inputs": [
        {
          "internalType": "address",
          "name": "",
          "type": "address"
        }
      ],
      "name": "reserveTokenQueue",
      "outputs": [
        {
          "internalType": "uint256",
          "name": "",
          "type": "uint256"
        }
      ],
      "stateMutability": "view",
      "type": "function"
    },
    {
      "inputs": [
        {
          "internalType": "uint256",
          "name": "",
          "type": "uint256"
        }
      ],
      "name": "reserveTokens",
      "outputs": [
        {
          "internalType": "address",
          "name": "",
          "type": "address"
        }
      ],
      "stateMutability": "view",
      "type": "function"
    },
    {
      "inputs": [
        {
          "internalType": "address",
          "name": "",
          "type": "address"
        }
      ],
      "name": "rewardManagerQueue",
      "outputs": [
        {
          "internalType": "uint256",
          "name": "",
          "type": "uint256"
        }
      ],
      "stateMutability": "view",
      "type": "function"
    },
    {
      "inputs": [
        {
          "internalType": "uint256",
          "name": "",
          "type": "uint256"
        }
      ],
      "name": "rewardManagers",
      "outputs": [
        {
          "internalType": "address",
          "name": "",
          "type": "address"
        }
      ],
      "stateMutability": "view",
      "type": "function"
    },
    {
      "inputs": [],
      "name": "sCHRF",
      "outputs": [
        {
          "internalType": "address",
          "name": "",
          "type": "address"
        }
      ],
      "stateMutability": "view",
      "type": "function"
    },
    {
      "inputs": [],
      "name": "sCHRFQueue",
      "outputs": [
        {
          "internalType": "uint256",
          "name": "",
          "type": "uint256"
        }
      ],
      "stateMutability": "view",
      "type": "function"
    },
    {
      "inputs": [
        {
          "internalType": "address",
          "name": "_treasuryAddress",
          "type": "address"
        }
      ],
      "name": "setTreasuryAddress",
      "outputs": [],
      "stateMutability": "nonpayable",
      "type": "function"
    },
    {
      "inputs": [
        {
          "internalType": "enum TreasuryHelper.MANAGING",
          "name": "_managing",
          "type": "uint8"
        },
        {
          "internalType": "address",
          "name": "_address",
          "type": "address"
        },
        {
          "internalType": "address",
          "name": "_calculator",
          "type": "address"
        }
      ],
      "name": "toggle",
      "outputs": [
        {
          "internalType": "bool",
          "name": "",
          "type": "bool"
        }
      ],
      "stateMutability": "nonpayable",
      "type": "function"
    },
    {
      "inputs": [
        {
          "internalType": "address",
          "name": "newOwner",
          "type": "address"
        }
      ],
      "name": "transferOwnership",
      "outputs": [],
      "stateMutability": "nonpayable",
      "type": "function"
    },
    {
      "inputs": [],
      "name": "treasury",
      "outputs": [
        {
          "internalType": "contract ITreasury",
          "name": "",
          "type": "address"
        }
      ],
      "stateMutability": "view",
      "type": "function"
    },
    {
      "inputs": [
        {
          "internalType": "address",
          "name": "_token",
          "type": "address"
        },
        {
          "internalType": "uint256",
          "name": "_amount",
          "type": "uint256"
        }
      ],
      "name": "valueOfToken",
      "outputs": [
        {
          "internalType": "uint256",
          "name": "value_",
          "type": "uint256"
        }
      ],
      "stateMutability": "view",
      "type": "function"
    }
  ],
  "bytecode": "0x60c06040523480156200001157600080fd5b5060405162004344380380620043448339818101604052810190620000379190620002ca565b620000576200004b620001d060201b60201c565b620001d860201b60201c565b600073ffffffffffffffffffffffffffffffffffffffff168373ffffffffffffffffffffffffffffffffffffffff1614156200009257600080fd5b8273ffffffffffffffffffffffffffffffffffffffff1660808173ffffffffffffffffffffffffffffffffffffffff1660601b81525050600073ffffffffffffffffffffffffffffffffffffffff168273ffffffffffffffffffffffffffffffffffffffff1614156200010457600080fd5b6002829080600181540180825580915050600190039060005260206000200160009091909190916101000a81548173ffffffffffffffffffffffffffffffffffffffff021916908373ffffffffffffffffffffffffffffffffffffffff1602179055506001600360008473ffffffffffffffffffffffffffffffffffffffff1673ffffffffffffffffffffffffffffffffffffffff16815260200190815260200160002060006101000a81548160ff0219169083151502179055508060a0818152505050505062000392565b600033905090565b60008060009054906101000a900473ffffffffffffffffffffffffffffffffffffffff169050816000806101000a81548173ffffffffffffffffffffffffffffffffffffffff021916908373ffffffffffffffffffffffffffffffffffffffff1602179055508173ffffffffffffffffffffffffffffffffffffffff168173ffffffffffffffffffffffffffffffffffffffff167f8be0079c531659141344cd1fd0a4f28419497f9722a3daafe3b4186f6b6457e060405160405180910390a35050565b600081519050620002ad816200035e565b92915050565b600081519050620002c48162000378565b92915050565b600080600060608486031215620002e057600080fd5b6000620002f0868287016200029c565b935050602062000303868287016200029c565b92505060406200031686828701620002b3565b9150509250925092565b60006200032d8262000334565b9050919050565b600073ffffffffffffffffffffffffffffffffffffffff82169050919050565b6000819050919050565b620003698162000320565b81146200037557600080fd5b50565b620003838162000354565b81146200038f57600080fd5b50565b60805160601c60a051613f3c6200040860003960008181610ec901528181611342015281816114360152818161152a0152818161162301528181611725015281816118190152818161191201528181611a1401528181611b080152611bfb015260008181610ccf0152610fd10152613f3c6000f3fe608060405234801561001057600080fd5b50600436106102485760003560e01c8063932cc8c31161013b578063d1b317e5116100b8578063f2fde38b1161007c578063f2fde38b14610837578063fb93958814610853578063fbfd393b14610883578063fd1ec010146108b3578063fff9ee87146108e357610248565b8063d1b317e514610747578063df89b34414610777578063e83afee3146107a7578063ebd83cd8146107d7578063ee4e19a11461080757610248565b8063b5b1d560116100ff578063b5b1d56014610669578063c24ad43e14610699578063cd85641a146106c9578063d031370b146106f9578063d07f390f1461072957610248565b8063932cc8c314610579578063a1210a2d146105a9578063a569e571146105d9578063ab319c9a14610609578063b1bd38b01461063957610248565b80636b5e40a7116101c9578063879095891161018d57806387909589146104ad57806387d67dff146104cb5780638da5cb5b146104fb5780638f59c727146105195780638f6a7b571461054957610248565b80636b5e40a7146103e357806370a0502a14610413578063715018a614610443578063788c6c011461044d578063869871bf1461047d57610248565b80634e83423c116102105780634e83423c1461032b5780635e206cee1461035b57806361d027b3146103795780636605bfda1461039757806368c31dd5146103b357610248565b80630619aff11461024d578063124154ca1461027d5780631af4da70146102ad578063437f7912146102dd57806345f2d6461461030d575b600080fd5b610267600480360381019061026291906137d6565b610913565b6040516102749190613919565b60405180910390f35b610297600480360381019061029291906136e6565b610952565b6040516102a49190613986565b60405180910390f35b6102c760048036038101906102c291906136e6565b610972565b6040516102d49190613919565b60405180910390f35b6102f760048036038101906102f291906137d6565b6109a5565b6040516103049190613919565b60405180910390f35b6103156109e4565b6040516103229190613919565b60405180910390f35b610345600480360381019061034091906136e6565b610a0a565b6040516103529190613986565b60405180910390f35b610363610a2a565b6040516103709190613a3c565b60405180910390f35b610381610a30565b60405161038e91906139a1565b60405180910390f35b6103b160048036038101906103ac91906136e6565b610a56565b005b6103cd60048036038101906103c891906136e6565b610b50565b6040516103da9190613986565b60405180910390f35b6103fd60048036038101906103f891906137d6565b610b70565b60405161040a9190613919565b60405180910390f35b61042d600480360381019061042891906137d6565b610baf565b60405161043a9190613919565b60405180910390f35b61044b610bee565b005b610467600480360381019061046291906136e6565b610c76565b6040516104749190613a3c565b60405180910390f35b610497600480360381019061049291906137d6565b610c8e565b6040516104a49190613919565b60405180910390f35b6104b5610ccd565b6040516104c29190613919565b60405180910390f35b6104e560048036038101906104e091906136e6565b610cf1565b6040516104f29190613986565b60405180910390f35b610503610d11565b6040516105109190613919565b60405180910390f35b610533600480360381019061052e91906136e6565b610d3a565b6040516105409190613a3c565b60405180910390f35b610563600480360381019061055e91906137d6565b610d52565b6040516105709190613919565b60405180910390f35b610593600480360381019061058e91906136e6565b610d91565b6040516105a09190613a3c565b60405180910390f35b6105c360048036038101906105be91906136e6565b610da9565b6040516105d09190613986565b60405180910390f35b6105f360048036038101906105ee91906136e6565b610dc9565b6040516106009190613986565b60405180910390f35b610623600480360381019061061e91906136e6565b610de9565b6040516106309190613a3c565b60405180910390f35b610653600480360381019061064e91906136e6565b610e01565b6040516106609190613a3c565b60405180910390f35b610683600480360381019061067e91906137d6565b610e19565b6040516106909190613919565b60405180910390f35b6106b360048036038101906106ae91906136e6565b610e58565b6040516106c09190613a3c565b60405180910390f35b6106e360048036038101906106de91906136e6565b610e70565b6040516106f09190613a3c565b60405180910390f35b610713600480360381019061070e91906137d6565b610e88565b6040516107209190613919565b60405180910390f35b610731610ec7565b60405161073e9190613a3c565b60405180910390f35b610761600480360381019061075c919061370f565b610eeb565b60405161076e9190613a3c565b60405180910390f35b610791600480360381019061078c91906136e6565b6111ec565b60405161079e9190613986565b60405180910390f35b6107c160048036038101906107bc919061374b565b61120c565b6040516107ce9190613986565b60405180910390f35b6107f160048036038101906107ec91906136e6565b611cc1565b6040516107fe9190613986565b60405180910390f35b610821600480360381019061081c91906136e6565b611ce1565b60405161082e9190613986565b60405180910390f35b610851600480360381019061084c91906136e6565b611d01565b005b61086d600480360381019061086891906136e6565b611df9565b60405161087a9190613a3c565b60405180910390f35b61089d60048036038101906108989190613787565b611e11565b6040516108aa9190613986565b60405180910390f35b6108cd60048036038101906108c891906137d6565b6132da565b6040516108da9190613919565b60405180910390f35b6108fd60048036038101906108f891906136e6565b613319565b60405161090a9190613a3c565b60405180910390f35b6012818154811061092357600080fd5b906000526020600020016000915054906101000a900473ffffffffffffffffffffffffffffffffffffffff1681565b60066020528060005260406000206000915054906101000a900460ff1681565b60116020528060005260406000206000915054906101000a900473ffffffffffffffffffffffffffffffffffffffff1681565b600881815481106109b557600080fd5b906000526020600020016000915054906101000a900473ffffffffffffffffffffffffffffffffffffffff1681565b601e60009054906101000a900473ffffffffffffffffffffffffffffffffffffffff1681565b601c6020528060005260406000206000915054906101000a900460ff1681565b601f5481565b600160009054906101000a900473ffffffffffffffffffffffffffffffffffffffff1681565b610a5e613331565b73ffffffffffffffffffffffffffffffffffffffff16610a7c610d11565b73ffffffffffffffffffffffffffffffffffffffff1614610ad2576040517f08c379a0000000000000000000000000000000000000000000000000000000008152600401610ac9906139fc565b60405180910390fd5b600073ffffffffffffffffffffffffffffffffffffffff168173ffffffffffffffffffffffffffffffffffffffff161415610b0c57600080fd5b80600160006101000a81548173ffffffffffffffffffffffffffffffffffffffff021916908373ffffffffffffffffffffffffffffffffffffffff16021790555050565b60036020528060005260406000206000915054906101000a900460ff1681565b60058181548110610b8057600080fd5b906000526020600020016000915054906101000a900473ffffffffffffffffffffffffffffffffffffffff1681565b60158181548110610bbf57600080fd5b906000526020600020016000915054906101000a900473ffffffffffffffffffffffffffffffffffffffff1681565b610bf6613331565b73ffffffffffffffffffffffffffffffffffffffff16610c14610d11565b73ffffffffffffffffffffffffffffffffffffffff1614610c6a576040517f08c379a0000000000000000000000000000000000000000000000000000000008152600401610c61906139fc565b60405180910390fd5b610c746000613339565b565b60046020528060005260406000206000915090505481565b60188181548110610c9e57600080fd5b906000526020600020016000915054906101000a900473ffffffffffffffffffffffffffffffffffffffff1681565b7f000000000000000000000000000000000000000000000000000000000000000081565b60096020528060005260406000206000915054906101000a900460ff1681565b60008060009054906101000a900473ffffffffffffffffffffffffffffffffffffffff16905090565b600d6020528060005260406000206000915090505481565b600e8181548110610d6257600080fd5b906000526020600020016000915054906101000a900473ffffffffffffffffffffffffffffffffffffffff1681565b60076020528060005260406000206000915090505481565b600f6020528060005260406000206000915054906101000a900460ff1681565b600c6020528060005260406000206000915054906101000a900460ff1681565b60176020528060005260406000206000915090505481565b60146020528060005260406000206000915090505481565b601b8181548110610e2957600080fd5b906000526020600020016000915054906101000a900473ffffffffffffffffffffffffffffffffffffffff1681565b600a6020528060005260406000206000915090505481565b601a6020528060005260406000206000915090505481565b60028181548110610e9857600080fd5b906000526020600020016000915054906101000a900473ffffffffffffffffffffffffffffffffffffffff1681565b7f000000000000000000000000000000000000000000000000000000000000000081565b6000600360008473ffffffffffffffffffffffffffffffffffffffff1673ffffffffffffffffffffffffffffffffffffffff16815260200190815260200160002060009054906101000a900460ff161561109d576110968373ffffffffffffffffffffffffffffffffffffffff1663313ce5676040518163ffffffff1660e01b815260040160206040518083038186803b158015610f8857600080fd5b505afa158015610f9c573d6000803e3d6000fd5b505050506040513d601f19601f82011682018060405250810190610fc09190613828565b600a610fcc9190613b42565b6110887f000000000000000000000000000000000000000000000000000000000000000073ffffffffffffffffffffffffffffffffffffffff1663313ce5676040518163ffffffff1660e01b815260040160206040518083038186803b15801561103557600080fd5b505afa158015611049573d6000803e3d6000fd5b505050506040513d601f19601f8201168201806040525081019061106d9190613828565b600a6110799190613b42565b856133fd90919063ffffffff16565b61341390919063ffffffff16565b90506111e6565b600c60008473ffffffffffffffffffffffffffffffffffffffff1673ffffffffffffffffffffffffffffffffffffffff16815260200190815260200160002060009054906101000a900460ff16156111e057601160008473ffffffffffffffffffffffffffffffffffffffff1673ffffffffffffffffffffffffffffffffffffffff16815260200190815260200160002060009054906101000a900473ffffffffffffffffffffffffffffffffffffffff1673ffffffffffffffffffffffffffffffffffffffff16634249719f84846040518363ffffffff1660e01b815260040161118992919061395d565b60206040518083038186803b1580156111a157600080fd5b505afa1580156111b5573d6000803e3d6000fd5b505050506040513d601f19601f820116820180604052508101906111d991906137ff565b90506111e5565b600090505b5b92915050565b60166020528060005260406000206000915054906101000a900460ff1681565b6000611216613331565b73ffffffffffffffffffffffffffffffffffffffff16611234610d11565b73ffffffffffffffffffffffffffffffffffffffff161461128a576040517f08c379a0000000000000000000000000000000000000000000000000000000008152600401611281906139fc565b60405180910390fd5b600073ffffffffffffffffffffffffffffffffffffffff168273ffffffffffffffffffffffffffffffffffffffff1614156112c457600080fd5b600060098111156112fe577f4e487b7100000000000000000000000000000000000000000000000000000000600052602160045260246000fd5b836009811115611337577f4e487b7100000000000000000000000000000000000000000000000000000000600052602160045260246000fd5b14156113b8576113707f00000000000000000000000000000000000000000000000000000000000000004361342990919063ffffffff16565b600760008473ffffffffffffffffffffffffffffffffffffffff1673ffffffffffffffffffffffffffffffffffffffff16815260200190815260200160002081905550611c46565b600160098111156113f2577f4e487b7100000000000000000000000000000000000000000000000000000000600052602160045260246000fd5b83600981111561142b577f4e487b7100000000000000000000000000000000000000000000000000000000600052602160045260246000fd5b14156114ac576114647f00000000000000000000000000000000000000000000000000000000000000004361342990919063ffffffff16565b600a60008473ffffffffffffffffffffffffffffffffffffffff1673ffffffffffffffffffffffffffffffffffffffff16815260200190815260200160002081905550611c45565b600260098111156114e6577f4e487b7100000000000000000000000000000000000000000000000000000000600052602160045260246000fd5b83600981111561151f577f4e487b7100000000000000000000000000000000000000000000000000000000600052602160045260246000fd5b14156115a0576115587f00000000000000000000000000000000000000000000000000000000000000004361342990919063ffffffff16565b600460008473ffffffffffffffffffffffffffffffffffffffff1673ffffffffffffffffffffffffffffffffffffffff16815260200190815260200160002081905550611c44565b600360098111156115da577f4e487b7100000000000000000000000000000000000000000000000000000000600052602160045260246000fd5b836009811115611613577f4e487b7100000000000000000000000000000000000000000000000000000000600052602160045260246000fd5b14156116a75761165f61165060027f00000000000000000000000000000000000000000000000000000000000000006133fd90919063ffffffff16565b4361342990919063ffffffff16565b601460008473ffffffffffffffffffffffffffffffffffffffff1673ffffffffffffffffffffffffffffffffffffffff16815260200190815260200160002081905550611c43565b600460098111156116e1577f4e487b7100000000000000000000000000000000000000000000000000000000600052602160045260246000fd5b83600981111561171a577f4e487b7100000000000000000000000000000000000000000000000000000000600052602160045260246000fd5b141561179b576117537f00000000000000000000000000000000000000000000000000000000000000004361342990919063ffffffff16565b601060008473ffffffffffffffffffffffffffffffffffffffff1673ffffffffffffffffffffffffffffffffffffffff16815260200190815260200160002081905550611c42565b600560098111156117d5577f4e487b7100000000000000000000000000000000000000000000000000000000600052602160045260246000fd5b83600981111561180e577f4e487b7100000000000000000000000000000000000000000000000000000000600052602160045260246000fd5b141561188f576118477f00000000000000000000000000000000000000000000000000000000000000004361342990919063ffffffff16565b600d60008473ffffffffffffffffffffffffffffffffffffffff1673ffffffffffffffffffffffffffffffffffffffff16815260200190815260200160002081905550611c41565b600660098111156118c9577f4e487b7100000000000000000000000000000000000000000000000000000000600052602160045260246000fd5b836009811115611902577f4e487b7100000000000000000000000000000000000000000000000000000000600052602160045260246000fd5b14156119965761194e61193f60027f00000000000000000000000000000000000000000000000000000000000000006133fd90919063ffffffff16565b4361342990919063ffffffff16565b601760008473ffffffffffffffffffffffffffffffffffffffff1673ffffffffffffffffffffffffffffffffffffffff16815260200190815260200160002081905550611c40565b600760098111156119d0577f4e487b7100000000000000000000000000000000000000000000000000000000600052602160045260246000fd5b836009811115611a09577f4e487b7100000000000000000000000000000000000000000000000000000000600052602160045260246000fd5b1415611a8a57611a427f00000000000000000000000000000000000000000000000000000000000000004361342990919063ffffffff16565b601a60008473ffffffffffffffffffffffffffffffffffffffff1673ffffffffffffffffffffffffffffffffffffffff16815260200190815260200160002081905550611c3f565b60086009811115611ac4577f4e487b7100000000000000000000000000000000000000000000000000000000600052602160045260246000fd5b836009811115611afd577f4e487b7100000000000000000000000000000000000000000000000000000000600052602160045260246000fd5b1415611b7e57611b367f00000000000000000000000000000000000000000000000000000000000000004361342990919063ffffffff16565b601d60008473ffffffffffffffffffffffffffffffffffffffff1673ffffffffffffffffffffffffffffffffffffffff16815260200190815260200160002081905550611c3e565b600980811115611bb7577f4e487b7100000000000000000000000000000000000000000000000000000000600052602160045260246000fd5b836009811115611bf0577f4e487b7100000000000000000000000000000000000000000000000000000000600052602160045260246000fd5b1415611c3457611c297f00000000000000000000000000000000000000000000000000000000000000004361342990919063ffffffff16565b601f81905550611c3d565b60009050611cbb565b5b5b5b5b5b5b5b5b5b826009811115611c7f577f4e487b7100000000000000000000000000000000000000000000000000000000600052602160045260246000fd5b7f0e4f2c4b5bc209d509bc3d49348c787fefadc66a79351b470599ac0f5be52eaf83604051611cae9190613919565b60405180910390a2600190505b92915050565b60136020528060005260406000206000915054906101000a900460ff1681565b60196020528060005260406000206000915054906101000a900460ff1681565b611d09613331565b73ffffffffffffffffffffffffffffffffffffffff16611d27610d11565b73ffffffffffffffffffffffffffffffffffffffff1614611d7d576040517f08c379a0000000000000000000000000000000000000000000000000000000008152600401611d74906139fc565b60405180910390fd5b600073ffffffffffffffffffffffffffffffffffffffff168173ffffffffffffffffffffffffffffffffffffffff161415611ded576040517f08c379a0000000000000000000000000000000000000000000000000000000008152600401611de4906139dc565b60405180910390fd5b611df681613339565b50565b601d6020528060005260406000206000915090505481565b6000611e1b613331565b73ffffffffffffffffffffffffffffffffffffffff16611e39610d11565b73ffffffffffffffffffffffffffffffffffffffff1614611e8f576040517f08c379a0000000000000000000000000000000000000000000000000000000008152600401611e86906139fc565b60405180910390fd5b600073ffffffffffffffffffffffffffffffffffffffff168373ffffffffffffffffffffffffffffffffffffffff161415611ec957600080fd5b6000806009811115611f04577f4e487b7100000000000000000000000000000000000000000000000000000000600052602160045260246000fd5b856009811115611f3d577f4e487b7100000000000000000000000000000000000000000000000000000000600052602160045260246000fd5b14156120ba57611f50600760068661343f565b1561200e576000600760008673ffffffffffffffffffffffffffffffffffffffff1673ffffffffffffffffffffffffffffffffffffffff16815260200190815260200160002081905550611fa56005856135a9565b61200d576005849080600181540180825580915050600190039060005260206000200160009091909190916101000a81548173ffffffffffffffffffffffffffffffffffffffff021916908373ffffffffffffffffffffffffffffffffffffffff1602179055505b5b600660008573ffffffffffffffffffffffffffffffffffffffff1673ffffffffffffffffffffffffffffffffffffffff16815260200190815260200160002060009054906101000a900460ff1615905080600660008673ffffffffffffffffffffffffffffffffffffffff1673ffffffffffffffffffffffffffffffffffffffff16815260200190815260200160002060006101000a81548160ff02191690831515021790555061325b565b600160098111156120f4577f4e487b7100000000000000000000000000000000000000000000000000000000600052602160045260246000fd5b85600981111561212d577f4e487b7100000000000000000000000000000000000000000000000000000000600052602160045260246000fd5b14156122aa57612140600a60098661343f565b156121fe576000600a60008673ffffffffffffffffffffffffffffffffffffffff1673ffffffffffffffffffffffffffffffffffffffff168152602001908152602001600020819055506121956008856135a9565b6121fd576008849080600181540180825580915050600190039060005260206000200160009091909190916101000a81548173ffffffffffffffffffffffffffffffffffffffff021916908373ffffffffffffffffffffffffffffffffffffffff1602179055505b5b600960008573ffffffffffffffffffffffffffffffffffffffff1673ffffffffffffffffffffffffffffffffffffffff16815260200190815260200160002060009054906101000a900460ff1615905080600960008673ffffffffffffffffffffffffffffffffffffffff1673ffffffffffffffffffffffffffffffffffffffff16815260200190815260200160002060006101000a81548160ff02191690831515021790555061325a565b600260098111156122e4577f4e487b7100000000000000000000000000000000000000000000000000000000600052602160045260246000fd5b85600981111561231d577f4e487b7100000000000000000000000000000000000000000000000000000000600052602160045260246000fd5b141561249a57612330600460038661343f565b156123ee576000600460008673ffffffffffffffffffffffffffffffffffffffff1673ffffffffffffffffffffffffffffffffffffffff168152602001908152602001600020819055506123856002856135a9565b6123ed576002849080600181540180825580915050600190039060005260206000200160009091909190916101000a81548173ffffffffffffffffffffffffffffffffffffffff021916908373ffffffffffffffffffffffffffffffffffffffff1602179055505b5b600360008573ffffffffffffffffffffffffffffffffffffffff1673ffffffffffffffffffffffffffffffffffffffff16815260200190815260200160002060009054906101000a900460ff1615905080600360008673ffffffffffffffffffffffffffffffffffffffff1673ffffffffffffffffffffffffffffffffffffffff16815260200190815260200160002060006101000a81548160ff021916908315150217905550613259565b600360098111156124d4577f4e487b7100000000000000000000000000000000000000000000000000000000600052602160045260246000fd5b85600981111561250d577f4e487b7100000000000000000000000000000000000000000000000000000000600052602160045260246000fd5b14156126ed57612520601460138661343f565b15612641576012849080600181540180825580915050600190039060005260206000200160009091909190916101000a81548173ffffffffffffffffffffffffffffffffffffffff021916908373ffffffffffffffffffffffffffffffffffffffff1602179055506000601460008673ffffffffffffffffffffffffffffffffffffffff1673ffffffffffffffffffffffffffffffffffffffff168152602001908152602001600020819055506125d86012856135a9565b612640576012849080600181540180825580915050600190039060005260206000200160009091909190916101000a81548173ffffffffffffffffffffffffffffffffffffffff021916908373ffffffffffffffffffffffffffffffffffffffff1602179055505b5b601360008573ffffffffffffffffffffffffffffffffffffffff1673ffffffffffffffffffffffffffffffffffffffff16815260200190815260200160002060009054906101000a900460ff1615905080601360008673ffffffffffffffffffffffffffffffffffffffff1673ffffffffffffffffffffffffffffffffffffffff16815260200190815260200160002060006101000a81548160ff021916908315150217905550613258565b60046009811115612727577f4e487b7100000000000000000000000000000000000000000000000000000000600052602160045260246000fd5b856009811115612760577f4e487b7100000000000000000000000000000000000000000000000000000000600052602160045260246000fd5b1415612940576127736010600f8661343f565b1561289457600e849080600181540180825580915050600190039060005260206000200160009091909190916101000a81548173ffffffffffffffffffffffffffffffffffffffff021916908373ffffffffffffffffffffffffffffffffffffffff1602179055506000601060008673ffffffffffffffffffffffffffffffffffffffff1673ffffffffffffffffffffffffffffffffffffffff1681526020019081526020016000208190555061282b600e856135a9565b61289357600e849080600181540180825580915050600190039060005260206000200160009091909190916101000a81548173ffffffffffffffffffffffffffffffffffffffff021916908373ffffffffffffffffffffffffffffffffffffffff1602179055505b5b600f60008573ffffffffffffffffffffffffffffffffffffffff1673ffffffffffffffffffffffffffffffffffffffff16815260200190815260200160002060009054906101000a900460ff1615905080600f60008673ffffffffffffffffffffffffffffffffffffffff1673ffffffffffffffffffffffffffffffffffffffff16815260200190815260200160002060006101000a81548160ff021916908315150217905550613257565b6005600981111561297a577f4e487b7100000000000000000000000000000000000000000000000000000000600052602160045260246000fd5b8560098111156129b3577f4e487b7100000000000000000000000000000000000000000000000000000000600052602160045260246000fd5b1415612bae576129c6600d600c8661343f565b15612a84576000600d60008673ffffffffffffffffffffffffffffffffffffffff1673ffffffffffffffffffffffffffffffffffffffff16815260200190815260200160002081905550612a1b600b856135a9565b612a8357600b849080600181540180825580915050600190039060005260206000200160009091909190916101000a81548173ffffffffffffffffffffffffffffffffffffffff021916908373ffffffffffffffffffffffffffffffffffffffff1602179055505b5b600c60008573ffffffffffffffffffffffffffffffffffffffff1673ffffffffffffffffffffffffffffffffffffffff16815260200190815260200160002060009054906101000a900460ff1615905080600c60008673ffffffffffffffffffffffffffffffffffffffff1673ffffffffffffffffffffffffffffffffffffffff16815260200190815260200160002060006101000a81548160ff02191690831515021790555082601160008673ffffffffffffffffffffffffffffffffffffffff1673ffffffffffffffffffffffffffffffffffffffff16815260200190815260200160002060006101000a81548173ffffffffffffffffffffffffffffffffffffffff021916908373ffffffffffffffffffffffffffffffffffffffff160217905550613256565b60066009811115612be8577f4e487b7100000000000000000000000000000000000000000000000000000000600052602160045260246000fd5b856009811115612c21577f4e487b7100000000000000000000000000000000000000000000000000000000600052602160045260246000fd5b1415612d9e57612c34601760168661343f565b15612cf2576000601760008673ffffffffffffffffffffffffffffffffffffffff1673ffffffffffffffffffffffffffffffffffffffff16815260200190815260200160002081905550612c896015856135a9565b612cf1576015849080600181540180825580915050600190039060005260206000200160009091909190916101000a81548173ffffffffffffffffffffffffffffffffffffffff021916908373ffffffffffffffffffffffffffffffffffffffff1602179055505b5b601660008573ffffffffffffffffffffffffffffffffffffffff1673ffffffffffffffffffffffffffffffffffffffff16815260200190815260200160002060009054906101000a900460ff1615905080601660008673ffffffffffffffffffffffffffffffffffffffff1673ffffffffffffffffffffffffffffffffffffffff16815260200190815260200160002060006101000a81548160ff021916908315150217905550613255565b60076009811115612dd8577f4e487b7100000000000000000000000000000000000000000000000000000000600052602160045260246000fd5b856009811115612e11577f4e487b7100000000000000000000000000000000000000000000000000000000600052602160045260246000fd5b1415612f8e57612e24601a60198661343f565b15612ee2576000601a60008673ffffffffffffffffffffffffffffffffffffffff1673ffffffffffffffffffffffffffffffffffffffff16815260200190815260200160002081905550612e796018856135a9565b612ee1576018849080600181540180825580915050600190039060005260206000200160009091909190916101000a81548173ffffffffffffffffffffffffffffffffffffffff021916908373ffffffffffffffffffffffffffffffffffffffff1602179055505b5b601960008573ffffffffffffffffffffffffffffffffffffffff1673ffffffffffffffffffffffffffffffffffffffff16815260200190815260200160002060009054906101000a900460ff1615905080601960008673ffffffffffffffffffffffffffffffffffffffff1673ffffffffffffffffffffffffffffffffffffffff16815260200190815260200160002060006101000a81548160ff021916908315150217905550613254565b60086009811115612fc8577f4e487b7100000000000000000000000000000000000000000000000000000000600052602160045260246000fd5b856009811115613001577f4e487b7100000000000000000000000000000000000000000000000000000000600052602160045260246000fd5b141561317e57613014601d601c8661343f565b156130d2576000601d60008673ffffffffffffffffffffffffffffffffffffffff1673ffffffffffffffffffffffffffffffffffffffff16815260200190815260200160002081905550613069601b856135a9565b6130d157601b849080600181540180825580915050600190039060005260206000200160009091909190916101000a81548173ffffffffffffffffffffffffffffffffffffffff021916908373ffffffffffffffffffffffffffffffffffffffff1602179055505b5b601c60008573ffffffffffffffffffffffffffffffffffffffff1673ffffffffffffffffffffffffffffffffffffffff16815260200190815260200160002060009054906101000a900460ff1615905080601c60008673ffffffffffffffffffffffffffffffffffffffff1673ffffffffffffffffffffffffffffffffffffffff16815260200190815260200160002060006101000a81548160ff021916908315150217905550613253565b6009808111156131b7577f4e487b7100000000000000000000000000000000000000000000000000000000600052602160045260246000fd5b8560098111156131f0577f4e487b7100000000000000000000000000000000000000000000000000000000600052602160045260246000fd5b1415613248576000601f8190555083601e60006101000a81548173ffffffffffffffffffffffffffffffffffffffff021916908373ffffffffffffffffffffffffffffffffffffffff16021790555060019050613252565b60009150506132d3565b5b5b5b5b5b5b5b5b5b846009811115613294577f4e487b7100000000000000000000000000000000000000000000000000000000600052602160045260246000fd5b7f0dcacb7e392f3d6a216ed2660e3dcfd40b7793d33591db2ba185a6b8e44fc47785836040516132c5929190613934565b60405180910390a260019150505b9392505050565b600b81815481106132ea57600080fd5b906000526020600020016000915054906101000a900473ffffffffffffffffffffffffffffffffffffffff1681565b60106020528060005260406000206000915090505481565b600033905090565b60008060009054906101000a900473ffffffffffffffffffffffffffffffffffffffff169050816000806101000a81548173ffffffffffffffffffffffffffffffffffffffff021916908373ffffffffffffffffffffffffffffffffffffffff1602179055508173ffffffffffffffffffffffffffffffffffffffff168173ffffffffffffffffffffffffffffffffffffffff167f8be0079c531659141344cd1fd0a4f28419497f9722a3daafe3b4186f6b6457e060405160405180910390a35050565b6000818361340b9190613c60565b905092915050565b600081836134219190613abe565b905092915050565b600081836134379190613a68565b905092915050565b60008260008373ffffffffffffffffffffffffffffffffffffffff1673ffffffffffffffffffffffffffffffffffffffff16815260200190815260200160002060009054906101000a900460ff1661359d5760008460008473ffffffffffffffffffffffffffffffffffffffff1673ffffffffffffffffffffffffffffffffffffffff168152602001908152602001600020541415613513576040517f08c379a000000000000000000000000000000000000000000000000000000000815260040161350a90613a1c565b60405180910390fd5b438460008473ffffffffffffffffffffffffffffffffffffffff1673ffffffffffffffffffffffffffffffffffffffff168152602001908152602001600020541115613594576040517f08c379a000000000000000000000000000000000000000000000000000000000815260040161358b906139bc565b60405180910390fd5b600190506135a2565b600090505b9392505050565b600080600090505b8380549050811015613671578273ffffffffffffffffffffffffffffffffffffffff1684828154811061360d577f4e487b7100000000000000000000000000000000000000000000000000000000600052603260045260246000fd5b9060005260206000200160009054906101000a900473ffffffffffffffffffffffffffffffffffffffff1673ffffffffffffffffffffffffffffffffffffffff16141561365e576001915050613677565b808061366990613d33565b9150506135b1565b50600090505b92915050565b60008135905061368c81613eb1565b92915050565b6000813590506136a181613ec8565b92915050565b6000813590506136b681613ed8565b92915050565b6000815190506136cb81613ed8565b92915050565b6000815190506136e081613eef565b92915050565b6000602082840312156136f857600080fd5b60006137068482850161367d565b91505092915050565b6000806040838503121561372257600080fd5b60006137308582860161367d565b9250506020613741858286016136a7565b9150509250929050565b6000806040838503121561375e57600080fd5b600061376c85828601613692565b925050602061377d8582860161367d565b9150509250929050565b60008060006060848603121561379c57600080fd5b60006137aa86828701613692565b93505060206137bb8682870161367d565b92505060406137cc8682870161367d565b9150509250925092565b6000602082840312156137e857600080fd5b60006137f6848285016136a7565b91505092915050565b60006020828403121561381157600080fd5b600061381f848285016136bc565b91505092915050565b60006020828403121561383a57600080fd5b6000613848848285016136d1565b91505092915050565b61385a81613cba565b82525050565b61386981613ccc565b82525050565b61387881613d0f565b82525050565b600061388b601183613a57565b915061389682613de7565b602082019050919050565b60006138ae602683613a57565b91506138b982613e10565b604082019050919050565b60006138d1602083613a57565b91506138dc82613e5f565b602082019050919050565b60006138f4600a83613a57565b91506138ff82613e88565b602082019050919050565b61391381613cf8565b82525050565b600060208201905061392e6000830184613851565b92915050565b60006040820190506139496000830185613851565b6139566020830184613860565b9392505050565b60006040820190506139726000830185613851565b61397f602083018461390a565b9392505050565b600060208201905061399b6000830184613860565b92915050565b60006020820190506139b6600083018461386f565b92915050565b600060208201905081810360008301526139d58161387e565b9050919050565b600060208201905081810360008301526139f5816138a1565b9050919050565b60006020820190508181036000830152613a15816138c4565b9050919050565b60006020820190508181036000830152613a35816138e7565b9050919050565b6000602082019050613a51600083018461390a565b92915050565b600082825260208201905092915050565b6000613a7382613cf8565b9150613a7e83613cf8565b9250827fffffffffffffffffffffffffffffffffffffffffffffffffffffffffffffffff03821115613ab357613ab2613d7c565b5b828201905092915050565b6000613ac982613cf8565b9150613ad483613cf8565b925082613ae457613ae3613dab565b5b828204905092915050565b6000808291508390505b6001851115613b3957808604811115613b1557613b14613d7c565b5b6001851615613b245780820291505b8081029050613b3285613dda565b9450613af9565b94509492505050565b6000613b4d82613cf8565b9150613b5883613d02565b9250613b857fffffffffffffffffffffffffffffffffffffffffffffffffffffffffffffffff8484613b8d565b905092915050565b600082613b9d5760019050613c59565b81613bab5760009050613c59565b8160018114613bc15760028114613bcb57613bfa565b6001915050613c59565b60ff841115613bdd57613bdc613d7c565b5b8360020a915084821115613bf457613bf3613d7c565b5b50613c59565b5060208310610133831016604e8410600b8410161715613c2f5782820a905083811115613c2a57613c29613d7c565b5b613c59565b613c3c8484846001613aef565b92509050818404811115613c5357613c52613d7c565b5b81810290505b9392505050565b6000613c6b82613cf8565b9150613c7683613cf8565b9250817fffffffffffffffffffffffffffffffffffffffffffffffffffffffffffffffff0483118215151615613caf57613cae613d7c565b5b828202905092915050565b6000613cc582613cd8565b9050919050565b60008115159050919050565b600073ffffffffffffffffffffffffffffffffffffffff82169050919050565b6000819050919050565b600060ff82169050919050565b6000613d1a82613d21565b9050919050565b6000613d2c82613cd8565b9050919050565b6000613d3e82613cf8565b91507fffffffffffffffffffffffffffffffffffffffffffffffffffffffffffffffff821415613d7157613d70613d7c565b5b600182019050919050565b7f4e487b7100000000000000000000000000000000000000000000000000000000600052601160045260246000fd5b7f4e487b7100000000000000000000000000000000000000000000000000000000600052601260045260246000fd5b60008160011c9050919050565b7f5175657565206e6f742065787069726564000000000000000000000000000000600082015250565b7f4f776e61626c653a206e6577206f776e657220697320746865207a65726f206160008201527f6464726573730000000000000000000000000000000000000000000000000000602082015250565b7f4f776e61626c653a2063616c6c6572206973206e6f7420746865206f776e6572600082015250565b7f4d75737420717565756500000000000000000000000000000000000000000000600082015250565b613eba81613cba565b8114613ec557600080fd5b50565b600a8110613ed557600080fd5b50565b613ee181613cf8565b8114613eec57600080fd5b50565b613ef881613d02565b8114613f0357600080fd5b5056fea264697066735822122024b121ed5c2c836b3398b1a8c1032a5abcdcb9326d8e4107d97e46d515f6093264736f6c63430008040033",
  "linkReferences": {},
  "deployedLinkReferences": {}
}