{
  "_format": "hh-sol-artifact-1",
  "contractName": "TreasuryHelper",
  "sourceName": "contracts/TreasuryHelper.sol",
  "abi": [
    {
      "inputs": [
        {
          "internalType": "address",
          "name": "_ORFI",
          "type": "address"
        },
        {
          "internalType": "address",
          "name": "_MIM",
          "type": "address"
        },
        {
          "internalType": "uint256",
          "name": "_blocksNeededForQueue",
          "type": "uint256"
        }
      ],
      "stateMutability": "nonpayable",
      "type": "constructor"
    },
    {
      "anonymous": false,
      "inputs": [
        {
          "indexed": true,
          "internalType": "enum TreasuryHelper.MANAGING",
          "name": "managing",
          "type": "uint8"
        },
        {
          "indexed": false,
          "internalType": "address",
          "name": "activated",
          "type": "address"
        },
        {
          "indexed": false,
          "internalType": "bool",
          "name": "result",
          "type": "bool"
        }
      ],
      "name": "ChangeActivated",
      "type": "event"
    },
    {
      "anonymous": false,
      "inputs": [
        {
          "indexed": true,
          "internalType": "enum TreasuryHelper.MANAGING",
          "name": "managing",
          "type": "uint8"
        },
        {
          "indexed": false,
          "internalType": "address",
          "name": "queued",
          "type": "address"
        }
      ],
      "name": "ChangeQueued",
      "type": "event"
    },
    {
      "anonymous": false,
      "inputs": [
        {
          "indexed": true,
          "internalType": "address",
          "name": "previousOwner",
          "type": "address"
        },
        {
          "indexed": true,
          "internalType": "address",
          "name": "newOwner",
          "type": "address"
        }
      ],
      "name": "OwnershipTransferred",
      "type": "event"
    },
    {
      "anonymous": false,
      "inputs": [
        {
          "indexed": true,
          "internalType": "uint256",
          "name": "totalReserves",
          "type": "uint256"
        }
      ],
      "name": "ReservesAudited",
      "type": "event"
    },
    {
      "anonymous": false,
      "inputs": [
        {
          "indexed": true,
          "internalType": "uint256",
          "name": "totalReserves",
          "type": "uint256"
        }
      ],
      "name": "ReservesUpdated",
      "type": "event"
    },
    {
      "inputs": [
        {
          "internalType": "address",
          "name": "",
          "type": "address"
        }
      ],
      "name": "LiquidityDepositorQueue",
      "outputs": [
        {
          "internalType": "uint256",
          "name": "",
          "type": "uint256"
        }
      ],
      "stateMutability": "view",
      "type": "function"
    },
    {
      "inputs": [
        {
          "internalType": "address",
          "name": "",
          "type": "address"
        }
      ],
      "name": "LiquidityManagerQueue",
      "outputs": [
        {
          "internalType": "uint256",
          "name": "",
          "type": "uint256"
        }
      ],
      "stateMutability": "view",
      "type": "function"
    },
    {
      "inputs": [
        {
          "internalType": "address",
          "name": "",
          "type": "address"
        }
      ],
      "name": "LiquidityTokenQueue",
      "outputs": [
        {
          "internalType": "uint256",
          "name": "",
          "type": "uint256"
        }
      ],
      "stateMutability": "view",
      "type": "function"
    },
    {
      "inputs": [],
      "name": "ORFI",
      "outputs": [
        {
          "internalType": "address",
          "name": "",
          "type": "address"
        }
      ],
      "stateMutability": "view",
      "type": "function"
    },
    {
      "inputs": [
        {
          "internalType": "address",
          "name": "",
          "type": "address"
        }
      ],
      "name": "ReserveManagerQueue",
      "outputs": [
        {
          "internalType": "uint256",
          "name": "",
          "type": "uint256"
        }
      ],
      "stateMutability": "view",
      "type": "function"
    },
    {
      "inputs": [],
      "name": "auditReserves",
      "outputs": [],
      "stateMutability": "nonpayable",
      "type": "function"
    },
    {
      "inputs": [],
      "name": "blocksNeededForQueue",
      "outputs": [
        {
          "internalType": "uint256",
          "name": "",
          "type": "uint256"
        }
      ],
      "stateMutability": "view",
      "type": "function"
    },
    {
      "inputs": [
        {
          "internalType": "address",
          "name": "",
          "type": "address"
        }
      ],
      "name": "bondCalculator",
      "outputs": [
        {
          "internalType": "address",
          "name": "",
          "type": "address"
        }
      ],
      "stateMutability": "view",
      "type": "function"
    },
    {
      "inputs": [
        {
          "internalType": "address",
          "name": "",
          "type": "address"
        }
      ],
      "name": "debtorQueue",
      "outputs": [
        {
          "internalType": "uint256",
          "name": "",
          "type": "uint256"
        }
      ],
      "stateMutability": "view",
      "type": "function"
    },
    {
      "inputs": [
        {
          "internalType": "uint256",
          "name": "",
          "type": "uint256"
        }
      ],
      "name": "debtors",
      "outputs": [
        {
          "internalType": "address",
          "name": "",
          "type": "address"
        }
      ],
      "stateMutability": "view",
      "type": "function"
    },
    {
      "inputs": [
        {
          "internalType": "address",
          "name": "",
          "type": "address"
        }
      ],
      "name": "isDebtor",
      "outputs": [
        {
          "internalType": "bool",
          "name": "",
          "type": "bool"
        }
      ],
      "stateMutability": "view",
      "type": "function"
    },
    {
      "inputs": [
        {
          "internalType": "address",
          "name": "",
          "type": "address"
        }
      ],
      "name": "isLiquidityDepositor",
      "outputs": [
        {
          "internalType": "bool",
          "name": "",
          "type": "bool"
        }
      ],
      "stateMutability": "view",
      "type": "function"
    },
    {
      "inputs": [
        {
          "internalType": "address",
          "name": "",
          "type": "address"
        }
      ],
      "name": "isLiquidityManager",
      "outputs": [
        {
          "internalType": "bool",
          "name": "",
          "type": "bool"
        }
      ],
      "stateMutability": "view",
      "type": "function"
    },
    {
      "inputs": [
        {
          "internalType": "address",
          "name": "",
          "type": "address"
        }
      ],
      "name": "isLiquidityToken",
      "outputs": [
        {
          "internalType": "bool",
          "name": "",
          "type": "bool"
        }
      ],
      "stateMutability": "view",
      "type": "function"
    },
    {
      "inputs": [
        {
          "internalType": "address",
          "name": "",
          "type": "address"
        }
      ],
      "name": "isReserveDepositor",
      "outputs": [
        {
          "internalType": "bool",
          "name": "",
          "type": "bool"
        }
      ],
      "stateMutability": "view",
      "type": "function"
    },
    {
      "inputs": [
        {
          "internalType": "address",
          "name": "",
          "type": "address"
        }
      ],
      "name": "isReserveManager",
      "outputs": [
        {
          "internalType": "bool",
          "name": "",
          "type": "bool"
        }
      ],
      "stateMutability": "view",
      "type": "function"
    },
    {
      "inputs": [
        {
          "internalType": "address",
          "name": "",
          "type": "address"
        }
      ],
      "name": "isReserveSpender",
      "outputs": [
        {
          "internalType": "bool",
          "name": "",
          "type": "bool"
        }
      ],
      "stateMutability": "view",
      "type": "function"
    },
    {
      "inputs": [
        {
          "internalType": "address",
          "name": "",
          "type": "address"
        }
      ],
      "name": "isReserveToken",
      "outputs": [
        {
          "internalType": "bool",
          "name": "",
          "type": "bool"
        }
      ],
      "stateMutability": "view",
      "type": "function"
    },
    {
      "inputs": [
        {
          "internalType": "address",
          "name": "",
          "type": "address"
        }
      ],
      "name": "isRewardManager",
      "outputs": [
        {
          "internalType": "bool",
          "name": "",
          "type": "bool"
        }
      ],
      "stateMutability": "view",
      "type": "function"
    },
    {
      "inputs": [
        {
          "internalType": "uint256",
          "name": "",
          "type": "uint256"
        }
      ],
      "name": "liquidityDepositors",
      "outputs": [
        {
          "internalType": "address",
          "name": "",
          "type": "address"
        }
      ],
      "stateMutability": "view",
      "type": "function"
    },
    {
      "inputs": [
        {
          "internalType": "uint256",
          "name": "",
          "type": "uint256"
        }
      ],
      "name": "liquidityManagers",
      "outputs": [
        {
          "internalType": "address",
          "name": "",
          "type": "address"
        }
      ],
      "stateMutability": "view",
      "type": "function"
    },
    {
      "inputs": [
        {
          "internalType": "uint256",
          "name": "",
          "type": "uint256"
        }
      ],
      "name": "liquidityTokens",
      "outputs": [
        {
          "internalType": "address",
          "name": "",
          "type": "address"
        }
      ],
      "stateMutability": "view",
      "type": "function"
    },
    {
      "inputs": [],
      "name": "owner",
      "outputs": [
        {
          "internalType": "address",
          "name": "",
          "type": "address"
        }
      ],
      "stateMutability": "view",
      "type": "function"
    },
    {
      "inputs": [
        {
          "internalType": "enum TreasuryHelper.MANAGING",
          "name": "_managing",
          "type": "uint8"
        },
        {
          "internalType": "address",
          "name": "_address",
          "type": "address"
        }
      ],
      "name": "queue",
      "outputs": [
        {
          "internalType": "bool",
          "name": "",
          "type": "bool"
        }
      ],
      "stateMutability": "nonpayable",
      "type": "function"
    },
    {
      "inputs": [],
      "name": "renounceOwnership",
      "outputs": [],
      "stateMutability": "nonpayable",
      "type": "function"
    },
    {
      "inputs": [
        {
          "internalType": "address",
          "name": "",
          "type": "address"
        }
      ],
      "name": "reserveDepositorQueue",
      "outputs": [
        {
          "internalType": "uint256",
          "name": "",
          "type": "uint256"
        }
      ],
      "stateMutability": "view",
      "type": "function"
    },
    {
      "inputs": [
        {
          "internalType": "uint256",
          "name": "",
          "type": "uint256"
        }
      ],
      "name": "reserveDepositors",
      "outputs": [
        {
          "internalType": "address",
          "name": "",
          "type": "address"
        }
      ],
      "stateMutability": "view",
      "type": "function"
    },
    {
      "inputs": [
        {
          "internalType": "uint256",
          "name": "",
          "type": "uint256"
        }
      ],
      "name": "reserveManagers",
      "outputs": [
        {
          "internalType": "address",
          "name": "",
          "type": "address"
        }
      ],
      "stateMutability": "view",
      "type": "function"
    },
    {
      "inputs": [
        {
          "internalType": "address",
          "name": "",
          "type": "address"
        }
      ],
      "name": "reserveSpenderQueue",
      "outputs": [
        {
          "internalType": "uint256",
          "name": "",
          "type": "uint256"
        }
      ],
      "stateMutability": "view",
      "type": "function"
    },
    {
      "inputs": [
        {
          "internalType": "uint256",
          "name": "",
          "type": "uint256"
        }
      ],
      "name": "reserveSpenders",
      "outputs": [
        {
          "internalType": "address",
          "name": "",
          "type": "address"
        }
      ],
      "stateMutability": "view",
      "type": "function"
    },
    {
      "inputs": [
        {
          "internalType": "address",
          "name": "",
          "type": "address"
        }
      ],
      "name": "reserveTokenQueue",
      "outputs": [
        {
          "internalType": "uint256",
          "name": "",
          "type": "uint256"
        }
      ],
      "stateMutability": "view",
      "type": "function"
    },
    {
      "inputs": [
        {
          "internalType": "uint256",
          "name": "",
          "type": "uint256"
        }
      ],
      "name": "reserveTokens",
      "outputs": [
        {
          "internalType": "address",
          "name": "",
          "type": "address"
        }
      ],
      "stateMutability": "view",
      "type": "function"
    },
    {
      "inputs": [
        {
          "internalType": "address",
          "name": "",
          "type": "address"
        }
      ],
      "name": "rewardManagerQueue",
      "outputs": [
        {
          "internalType": "uint256",
          "name": "",
          "type": "uint256"
        }
      ],
      "stateMutability": "view",
      "type": "function"
    },
    {
      "inputs": [
        {
          "internalType": "uint256",
          "name": "",
          "type": "uint256"
        }
      ],
      "name": "rewardManagers",
      "outputs": [
        {
          "internalType": "address",
          "name": "",
          "type": "address"
        }
      ],
      "stateMutability": "view",
      "type": "function"
    },
    {
      "inputs": [],
      "name": "sORFI",
      "outputs": [
        {
          "internalType": "address",
          "name": "",
          "type": "address"
        }
      ],
      "stateMutability": "view",
      "type": "function"
    },
    {
      "inputs": [],
      "name": "sORFIQueue",
      "outputs": [
        {
          "internalType": "uint256",
          "name": "",
          "type": "uint256"
        }
      ],
      "stateMutability": "view",
      "type": "function"
    },
    {
      "inputs": [
        {
          "internalType": "address",
          "name": "_treasuryAddress",
          "type": "address"
        }
      ],
      "name": "setTreasuryAddress",
      "outputs": [],
      "stateMutability": "nonpayable",
      "type": "function"
    },
    {
      "inputs": [
        {
          "internalType": "enum TreasuryHelper.MANAGING",
          "name": "_managing",
          "type": "uint8"
        },
        {
          "internalType": "address",
          "name": "_address",
          "type": "address"
        },
        {
          "internalType": "address",
          "name": "_calculator",
          "type": "address"
        }
      ],
      "name": "toggle",
      "outputs": [
        {
          "internalType": "bool",
          "name": "",
          "type": "bool"
        }
      ],
      "stateMutability": "nonpayable",
      "type": "function"
    },
    {
      "inputs": [
        {
          "internalType": "address",
          "name": "newOwner",
          "type": "address"
        }
      ],
      "name": "transferOwnership",
      "outputs": [],
      "stateMutability": "nonpayable",
      "type": "function"
    },
    {
      "inputs": [],
      "name": "treasuryAddress",
      "outputs": [
        {
          "internalType": "address",
          "name": "",
          "type": "address"
        }
      ],
      "stateMutability": "view",
      "type": "function"
    },
    {
      "inputs": [
        {
          "internalType": "address",
          "name": "_token",
          "type": "address"
        },
        {
          "internalType": "uint256",
          "name": "_amount",
          "type": "uint256"
        }
      ],
      "name": "valueOfToken",
      "outputs": [
        {
          "internalType": "uint256",
          "name": "value_",
          "type": "uint256"
        }
      ],
      "stateMutability": "view",
      "type": "function"
    }
  ],
  "bytecode": "0x60c06040523480156200001157600080fd5b50604051620046ea380380620046ea833981810160405281019062000037919062000254565b620000576200004b6200015a60201b60201c565b6200016260201b60201c565b8273ffffffffffffffffffffffffffffffffffffffff1660808173ffffffffffffffffffffffffffffffffffffffff1660601b815250506002829080600181540180825580915050600190039060005260206000200160009091909190916101000a81548173ffffffffffffffffffffffffffffffffffffffff021916908373ffffffffffffffffffffffffffffffffffffffff1602179055506001600360008473ffffffffffffffffffffffffffffffffffffffff1673ffffffffffffffffffffffffffffffffffffffff16815260200190815260200160002060006101000a81548160ff0219169083151502179055508060a081815250505050506200031c565b600033905090565b60008060009054906101000a900473ffffffffffffffffffffffffffffffffffffffff169050816000806101000a81548173ffffffffffffffffffffffffffffffffffffffff021916908373ffffffffffffffffffffffffffffffffffffffff1602179055508173ffffffffffffffffffffffffffffffffffffffff168173ffffffffffffffffffffffffffffffffffffffff167f8be0079c531659141344cd1fd0a4f28419497f9722a3daafe3b4186f6b6457e060405160405180910390a35050565b6000815190506200023781620002e8565b92915050565b6000815190506200024e8162000302565b92915050565b6000806000606084860312156200026a57600080fd5b60006200027a8682870162000226565b93505060206200028d8682870162000226565b9250506040620002a0868287016200023d565b9150509250925092565b6000620002b782620002be565b9050919050565b600073ffffffffffffffffffffffffffffffffffffffff82169050919050565b6000819050919050565b620002f381620002aa565b8114620002ff57600080fd5b50565b6200030d81620002de565b81146200031957600080fd5b50565b60805160601c60a0516143586200039260003960008181611333015281816117ac015281816118a00152818161199401528181611a8d01528181611b8f01528181611c8301528181611d7c01528181611e7e01528181611f720152612065015260008181610ff5015261143b01526143586000f3fe608060405234801561001057600080fd5b50600436106102535760003560e01c8063932cc8c311610146578063d07f390f116100c3578063ee4e19a111610087578063ee4e19a11461081c578063f2fde38b1461084c578063fb93958814610868578063fbfd393b14610898578063fd1ec010146108c8578063fff9ee87146108f857610253565b8063d07f390f1461073e578063d1b317e51461075c578063df89b3441461078c578063e83afee3146107bc578063ebd83cd8146107ec57610253565b8063b5b1d5601161010a578063b5b1d56014610660578063c24ad43e14610690578063c5f956af146106c0578063cd85641a146106de578063d031370b1461070e57610253565b8063932cc8c314610570578063a1210a2d146105a0578063a569e571146105d0578063ab319c9a14610600578063b1bd38b01461063057610253565b80636b5e40a7116101d4578063869871bf11610198578063869871bf1461049257806387d67dff146104c25780638da5cb5b146104f25780638f59c727146105105780638f6a7b571461054057610253565b80636b5e40a7146103da5780636d90e5b81461040a57806370a0502a14610428578063715018a614610458578063788c6c011461046257610253565b806345b609c31161021b57806345b609c3146103225780634b290d30146103405780634e83423c1461035e5780636605bfda1461038e57806368c31dd5146103aa57610253565b80630619aff114610258578063124154ca146102885780631af4da70146102b85780632b7ce500146102e8578063437f7912146102f2575b600080fd5b610272600480360381019061026d9190613c40565b610928565b60405161027f9190613d74565b60405180910390f35b6102a2600480360381019061029d9190613b50565b610967565b6040516102af9190613de1565b60405180910390f35b6102d260048036038101906102cd9190613b50565b610987565b6040516102df9190613d74565b60405180910390f35b6102f06109ba565b005b61030c60048036038101906103079190613c40565b610e49565b6040516103199190613d74565b60405180910390f35b61032a610e88565b6040516103379190613e7c565b60405180910390f35b610348610e8e565b6040516103559190613d74565b60405180910390f35b61037860048036038101906103739190613b50565b610eb4565b6040516103859190613de1565b60405180910390f35b6103a860048036038101906103a39190613b50565b610ed4565b005b6103c460048036038101906103bf9190613b50565b610f94565b6040516103d19190613de1565b60405180910390f35b6103f460048036038101906103ef9190613c40565b610fb4565b6040516104019190613d74565b60405180910390f35b610412610ff3565b60405161041f9190613d74565b60405180910390f35b610442600480360381019061043d9190613c40565b611017565b60405161044f9190613d74565b60405180910390f35b610460611056565b005b61047c60048036038101906104779190613b50565b6110de565b6040516104899190613e7c565b60405180910390f35b6104ac60048036038101906104a79190613c40565b6110f6565b6040516104b99190613d74565b60405180910390f35b6104dc60048036038101906104d79190613b50565b611135565b6040516104e99190613de1565b60405180910390f35b6104fa611155565b6040516105079190613d74565b60405180910390f35b61052a60048036038101906105259190613b50565b61117e565b6040516105379190613e7c565b60405180910390f35b61055a60048036038101906105559190613c40565b611196565b6040516105679190613d74565b60405180910390f35b61058a60048036038101906105859190613b50565b6111d5565b6040516105979190613e7c565b60405180910390f35b6105ba60048036038101906105b59190613b50565b6111ed565b6040516105c79190613de1565b60405180910390f35b6105ea60048036038101906105e59190613b50565b61120d565b6040516105f79190613de1565b60405180910390f35b61061a60048036038101906106159190613b50565b61122d565b6040516106279190613e7c565b60405180910390f35b61064a60048036038101906106459190613b50565b611245565b6040516106579190613e7c565b60405180910390f35b61067a60048036038101906106759190613c40565b61125d565b6040516106879190613d74565b60405180910390f35b6106aa60048036038101906106a59190613b50565b61129c565b6040516106b79190613e7c565b60405180910390f35b6106c86112b4565b6040516106d59190613d74565b60405180910390f35b6106f860048036038101906106f39190613b50565b6112da565b6040516107059190613e7c565b60405180910390f35b61072860048036038101906107239190613c40565b6112f2565b6040516107359190613d74565b60405180910390f35b610746611331565b6040516107539190613e7c565b60405180910390f35b61077660048036038101906107719190613b79565b611355565b6040516107839190613e7c565b60405180910390f35b6107a660048036038101906107a19190613b50565b611656565b6040516107b39190613de1565b60405180910390f35b6107d660048036038101906107d19190613bb5565b611676565b6040516107e39190613de1565b60405180910390f35b61080660048036038101906108019190613b50565b61212b565b6040516108139190613de1565b60405180910390f35b61083660048036038101906108319190613b50565b61214b565b6040516108439190613de1565b60405180910390f35b61086660048036038101906108619190613b50565b61216b565b005b610882600480360381019061087d9190613b50565b612263565b60405161088f9190613e7c565b60405180910390f35b6108b260048036038101906108ad9190613bf1565b61227b565b6040516108bf9190613de1565b60405180910390f35b6108e260048036038101906108dd9190613c40565b613744565b6040516108ef9190613d74565b60405180910390f35b610912600480360381019061090d9190613b50565b613783565b60405161091f9190613e7c565b60405180910390f35b6012818154811061093857600080fd5b906000526020600020016000915054906101000a900473ffffffffffffffffffffffffffffffffffffffff1681565b60066020528060005260406000206000915054906101000a900460ff1681565b60116020528060005260406000206000915054906101000a900473ffffffffffffffffffffffffffffffffffffffff1681565b6109c261379b565b73ffffffffffffffffffffffffffffffffffffffff166109e0611155565b73ffffffffffffffffffffffffffffffffffffffff1614610a36576040517f08c379a0000000000000000000000000000000000000000000000000000000008152600401610a2d90613e3c565b60405180910390fd5b600080600090505b600280549050811015610bcc57610bb7610ba860028381548110610a8b577f4e487b7100000000000000000000000000000000000000000000000000000000600052603260045260246000fd5b9060005260206000200160009054906101000a900473ffffffffffffffffffffffffffffffffffffffff1660028481548110610af0577f4e487b7100000000000000000000000000000000000000000000000000000000600052603260045260246000fd5b9060005260206000200160009054906101000a900473ffffffffffffffffffffffffffffffffffffffff1673ffffffffffffffffffffffffffffffffffffffff166370a08231306040518263ffffffff1660e01b8152600401610b539190613d74565b60206040518083038186803b158015610b6b57600080fd5b505afa158015610b7f573d6000803e3d6000fd5b505050506040513d601f19601f82011682018060405250810190610ba39190613c69565b611355565b836137a390919063ffffffff16565b91508080610bc49061414f565b915050610a3e565b5060005b600b80549050811015610d5e57610d49610d3a600b8381548110610c1d577f4e487b7100000000000000000000000000000000000000000000000000000000600052603260045260246000fd5b9060005260206000200160009054906101000a900473ffffffffffffffffffffffffffffffffffffffff16600b8481548110610c82577f4e487b7100000000000000000000000000000000000000000000000000000000600052603260045260246000fd5b9060005260206000200160009054906101000a900473ffffffffffffffffffffffffffffffffffffffff1673ffffffffffffffffffffffffffffffffffffffff166370a08231306040518263ffffffff1660e01b8152600401610ce59190613d74565b60206040518083038186803b158015610cfd57600080fd5b505afa158015610d11573d6000803e3d6000fd5b505050506040513d601f19601f82011682018060405250810190610d359190613c69565b611355565b836137a390919063ffffffff16565b91508080610d569061414f565b915050610bd0565b50600160009054906101000a900473ffffffffffffffffffffffffffffffffffffffff1673ffffffffffffffffffffffffffffffffffffffff16634f547369826040518263ffffffff1660e01b8152600401610dba9190613e7c565b600060405180830381600087803b158015610dd457600080fd5b505af1158015610de8573d6000803e3d6000fd5b50505050807f93bb8edd35984706eee1b92541281f7f62d33c01c5b2ec0929a113603bd21d6660405160405180910390a2807fec691f09f6924b27932253f85caf99bacc30360cc0e50a1cc4d2acc24601446660405160405180910390a250565b60088181548110610e5957600080fd5b906000526020600020016000915054906101000a900473ffffffffffffffffffffffffffffffffffffffff1681565b601f5481565b601e60009054906101000a900473ffffffffffffffffffffffffffffffffffffffff1681565b601c6020528060005260406000206000915054906101000a900460ff1681565b610edc61379b565b73ffffffffffffffffffffffffffffffffffffffff16610efa611155565b73ffffffffffffffffffffffffffffffffffffffff1614610f50576040517f08c379a0000000000000000000000000000000000000000000000000000000008152600401610f4790613e3c565b60405180910390fd5b80600160006101000a81548173ffffffffffffffffffffffffffffffffffffffff021916908373ffffffffffffffffffffffffffffffffffffffff16021790555050565b60036020528060005260406000206000915054906101000a900460ff1681565b60058181548110610fc457600080fd5b906000526020600020016000915054906101000a900473ffffffffffffffffffffffffffffffffffffffff1681565b7f000000000000000000000000000000000000000000000000000000000000000081565b6015818154811061102757600080fd5b906000526020600020016000915054906101000a900473ffffffffffffffffffffffffffffffffffffffff1681565b61105e61379b565b73ffffffffffffffffffffffffffffffffffffffff1661107c611155565b73ffffffffffffffffffffffffffffffffffffffff16146110d2576040517f08c379a00000000000000000000000000000000000000000000000000000000081526004016110c990613e3c565b60405180910390fd5b6110dc60006137b9565b565b60046020528060005260406000206000915090505481565b6018818154811061110657600080fd5b906000526020600020016000915054906101000a900473ffffffffffffffffffffffffffffffffffffffff1681565b60096020528060005260406000206000915054906101000a900460ff1681565b60008060009054906101000a900473ffffffffffffffffffffffffffffffffffffffff16905090565b600d6020528060005260406000206000915090505481565b600e81815481106111a657600080fd5b906000526020600020016000915054906101000a900473ffffffffffffffffffffffffffffffffffffffff1681565b60076020528060005260406000206000915090505481565b600f6020528060005260406000206000915054906101000a900460ff1681565b600c6020528060005260406000206000915054906101000a900460ff1681565b60176020528060005260406000206000915090505481565b60146020528060005260406000206000915090505481565b601b818154811061126d57600080fd5b906000526020600020016000915054906101000a900473ffffffffffffffffffffffffffffffffffffffff1681565b600a6020528060005260406000206000915090505481565b600160009054906101000a900473ffffffffffffffffffffffffffffffffffffffff1681565b601a6020528060005260406000206000915090505481565b6002818154811061130257600080fd5b906000526020600020016000915054906101000a900473ffffffffffffffffffffffffffffffffffffffff1681565b7f000000000000000000000000000000000000000000000000000000000000000081565b6000600360008473ffffffffffffffffffffffffffffffffffffffff1673ffffffffffffffffffffffffffffffffffffffff16815260200190815260200160002060009054906101000a900460ff1615611507576115008373ffffffffffffffffffffffffffffffffffffffff1663313ce5676040518163ffffffff1660e01b815260040160206040518083038186803b1580156113f257600080fd5b505afa158015611406573d6000803e3d6000fd5b505050506040513d601f19601f8201168201806040525081019061142a9190613c92565b600a6114369190613f82565b6114f27f000000000000000000000000000000000000000000000000000000000000000073ffffffffffffffffffffffffffffffffffffffff1663313ce5676040518163ffffffff1660e01b815260040160206040518083038186803b15801561149f57600080fd5b505afa1580156114b3573d6000803e3d6000fd5b505050506040513d601f19601f820116820180604052508101906114d79190613c92565b600a6114e39190613f82565b8561387d90919063ffffffff16565b61389390919063ffffffff16565b9050611650565b600c60008473ffffffffffffffffffffffffffffffffffffffff1673ffffffffffffffffffffffffffffffffffffffff16815260200190815260200160002060009054906101000a900460ff161561164a57601160008473ffffffffffffffffffffffffffffffffffffffff1673ffffffffffffffffffffffffffffffffffffffff16815260200190815260200160002060009054906101000a900473ffffffffffffffffffffffffffffffffffffffff1673ffffffffffffffffffffffffffffffffffffffff16634249719f84846040518363ffffffff1660e01b81526004016115f3929190613db8565b60206040518083038186803b15801561160b57600080fd5b505afa15801561161f573d6000803e3d6000fd5b505050506040513d601f19601f820116820180604052508101906116439190613c69565b905061164f565b600090505b5b92915050565b60166020528060005260406000206000915054906101000a900460ff1681565b600061168061379b565b73ffffffffffffffffffffffffffffffffffffffff1661169e611155565b73ffffffffffffffffffffffffffffffffffffffff16146116f4576040517f08c379a00000000000000000000000000000000000000000000000000000000081526004016116eb90613e3c565b60405180910390fd5b600073ffffffffffffffffffffffffffffffffffffffff168273ffffffffffffffffffffffffffffffffffffffff16141561172e57600080fd5b60006009811115611768577f4e487b7100000000000000000000000000000000000000000000000000000000600052602160045260246000fd5b8360098111156117a1577f4e487b7100000000000000000000000000000000000000000000000000000000600052602160045260246000fd5b1415611822576117da7f0000000000000000000000000000000000000000000000000000000000000000436137a390919063ffffffff16565b600760008473ffffffffffffffffffffffffffffffffffffffff1673ffffffffffffffffffffffffffffffffffffffff168152602001908152602001600020819055506120b0565b6001600981111561185c577f4e487b7100000000000000000000000000000000000000000000000000000000600052602160045260246000fd5b836009811115611895577f4e487b7100000000000000000000000000000000000000000000000000000000600052602160045260246000fd5b1415611916576118ce7f0000000000000000000000000000000000000000000000000000000000000000436137a390919063ffffffff16565b600a60008473ffffffffffffffffffffffffffffffffffffffff1673ffffffffffffffffffffffffffffffffffffffff168152602001908152602001600020819055506120af565b60026009811115611950577f4e487b7100000000000000000000000000000000000000000000000000000000600052602160045260246000fd5b836009811115611989577f4e487b7100000000000000000000000000000000000000000000000000000000600052602160045260246000fd5b1415611a0a576119c27f0000000000000000000000000000000000000000000000000000000000000000436137a390919063ffffffff16565b600460008473ffffffffffffffffffffffffffffffffffffffff1673ffffffffffffffffffffffffffffffffffffffff168152602001908152602001600020819055506120ae565b60036009811115611a44577f4e487b7100000000000000000000000000000000000000000000000000000000600052602160045260246000fd5b836009811115611a7d577f4e487b7100000000000000000000000000000000000000000000000000000000600052602160045260246000fd5b1415611b1157611ac9611aba60027f000000000000000000000000000000000000000000000000000000000000000061387d90919063ffffffff16565b436137a390919063ffffffff16565b601460008473ffffffffffffffffffffffffffffffffffffffff1673ffffffffffffffffffffffffffffffffffffffff168152602001908152602001600020819055506120ad565b60046009811115611b4b577f4e487b7100000000000000000000000000000000000000000000000000000000600052602160045260246000fd5b836009811115611b84577f4e487b7100000000000000000000000000000000000000000000000000000000600052602160045260246000fd5b1415611c0557611bbd7f0000000000000000000000000000000000000000000000000000000000000000436137a390919063ffffffff16565b601060008473ffffffffffffffffffffffffffffffffffffffff1673ffffffffffffffffffffffffffffffffffffffff168152602001908152602001600020819055506120ac565b60056009811115611c3f577f4e487b7100000000000000000000000000000000000000000000000000000000600052602160045260246000fd5b836009811115611c78577f4e487b7100000000000000000000000000000000000000000000000000000000600052602160045260246000fd5b1415611cf957611cb17f0000000000000000000000000000000000000000000000000000000000000000436137a390919063ffffffff16565b600d60008473ffffffffffffffffffffffffffffffffffffffff1673ffffffffffffffffffffffffffffffffffffffff168152602001908152602001600020819055506120ab565b60066009811115611d33577f4e487b7100000000000000000000000000000000000000000000000000000000600052602160045260246000fd5b836009811115611d6c577f4e487b7100000000000000000000000000000000000000000000000000000000600052602160045260246000fd5b1415611e0057611db8611da960027f000000000000000000000000000000000000000000000000000000000000000061387d90919063ffffffff16565b436137a390919063ffffffff16565b601760008473ffffffffffffffffffffffffffffffffffffffff1673ffffffffffffffffffffffffffffffffffffffff168152602001908152602001600020819055506120aa565b60076009811115611e3a577f4e487b7100000000000000000000000000000000000000000000000000000000600052602160045260246000fd5b836009811115611e73577f4e487b7100000000000000000000000000000000000000000000000000000000600052602160045260246000fd5b1415611ef457611eac7f0000000000000000000000000000000000000000000000000000000000000000436137a390919063ffffffff16565b601a60008473ffffffffffffffffffffffffffffffffffffffff1673ffffffffffffffffffffffffffffffffffffffff168152602001908152602001600020819055506120a9565b60086009811115611f2e577f4e487b7100000000000000000000000000000000000000000000000000000000600052602160045260246000fd5b836009811115611f67577f4e487b7100000000000000000000000000000000000000000000000000000000600052602160045260246000fd5b1415611fe857611fa07f0000000000000000000000000000000000000000000000000000000000000000436137a390919063ffffffff16565b601d60008473ffffffffffffffffffffffffffffffffffffffff1673ffffffffffffffffffffffffffffffffffffffff168152602001908152602001600020819055506120a8565b600980811115612021577f4e487b7100000000000000000000000000000000000000000000000000000000600052602160045260246000fd5b83600981111561205a577f4e487b7100000000000000000000000000000000000000000000000000000000600052602160045260246000fd5b141561209e576120937f0000000000000000000000000000000000000000000000000000000000000000436137a390919063ffffffff16565b601f819055506120a7565b60009050612125565b5b5b5b5b5b5b5b5b5b8260098111156120e9577f4e487b7100000000000000000000000000000000000000000000000000000000600052602160045260246000fd5b7f0e4f2c4b5bc209d509bc3d49348c787fefadc66a79351b470599ac0f5be52eaf836040516121189190613d74565b60405180910390a2600190505b92915050565b60136020528060005260406000206000915054906101000a900460ff1681565b60196020528060005260406000206000915054906101000a900460ff1681565b61217361379b565b73ffffffffffffffffffffffffffffffffffffffff16612191611155565b73ffffffffffffffffffffffffffffffffffffffff16146121e7576040517f08c379a00000000000000000000000000000000000000000000000000000000081526004016121de90613e3c565b60405180910390fd5b600073ffffffffffffffffffffffffffffffffffffffff168173ffffffffffffffffffffffffffffffffffffffff161415612257576040517f08c379a000000000000000000000000000000000000000000000000000000000815260040161224e90613e1c565b60405180910390fd5b612260816137b9565b50565b601d6020528060005260406000206000915090505481565b600061228561379b565b73ffffffffffffffffffffffffffffffffffffffff166122a3611155565b73ffffffffffffffffffffffffffffffffffffffff16146122f9576040517f08c379a00000000000000000000000000000000000000000000000000000000081526004016122f090613e3c565b60405180910390fd5b600073ffffffffffffffffffffffffffffffffffffffff168373ffffffffffffffffffffffffffffffffffffffff16141561233357600080fd5b600080600981111561236e577f4e487b7100000000000000000000000000000000000000000000000000000000600052602160045260246000fd5b8560098111156123a7577f4e487b7100000000000000000000000000000000000000000000000000000000600052602160045260246000fd5b1415612524576123ba60076006866138a9565b15612478576000600760008673ffffffffffffffffffffffffffffffffffffffff1673ffffffffffffffffffffffffffffffffffffffff1681526020019081526020016000208190555061240f600585613a13565b612477576005849080600181540180825580915050600190039060005260206000200160009091909190916101000a81548173ffffffffffffffffffffffffffffffffffffffff021916908373ffffffffffffffffffffffffffffffffffffffff1602179055505b5b600660008573ffffffffffffffffffffffffffffffffffffffff1673ffffffffffffffffffffffffffffffffffffffff16815260200190815260200160002060009054906101000a900460ff1615905080600660008673ffffffffffffffffffffffffffffffffffffffff1673ffffffffffffffffffffffffffffffffffffffff16815260200190815260200160002060006101000a81548160ff0219169083151502179055506136c5565b6001600981111561255e577f4e487b7100000000000000000000000000000000000000000000000000000000600052602160045260246000fd5b856009811115612597577f4e487b7100000000000000000000000000000000000000000000000000000000600052602160045260246000fd5b1415612714576125aa600a6009866138a9565b15612668576000600a60008673ffffffffffffffffffffffffffffffffffffffff1673ffffffffffffffffffffffffffffffffffffffff168152602001908152602001600020819055506125ff600885613a13565b612667576008849080600181540180825580915050600190039060005260206000200160009091909190916101000a81548173ffffffffffffffffffffffffffffffffffffffff021916908373ffffffffffffffffffffffffffffffffffffffff1602179055505b5b600960008573ffffffffffffffffffffffffffffffffffffffff1673ffffffffffffffffffffffffffffffffffffffff16815260200190815260200160002060009054906101000a900460ff1615905080600960008673ffffffffffffffffffffffffffffffffffffffff1673ffffffffffffffffffffffffffffffffffffffff16815260200190815260200160002060006101000a81548160ff0219169083151502179055506136c4565b6002600981111561274e577f4e487b7100000000000000000000000000000000000000000000000000000000600052602160045260246000fd5b856009811115612787577f4e487b7100000000000000000000000000000000000000000000000000000000600052602160045260246000fd5b14156129045761279a60046003866138a9565b15612858576000600460008673ffffffffffffffffffffffffffffffffffffffff1673ffffffffffffffffffffffffffffffffffffffff168152602001908152602001600020819055506127ef600285613a13565b612857576002849080600181540180825580915050600190039060005260206000200160009091909190916101000a81548173ffffffffffffffffffffffffffffffffffffffff021916908373ffffffffffffffffffffffffffffffffffffffff1602179055505b5b600360008573ffffffffffffffffffffffffffffffffffffffff1673ffffffffffffffffffffffffffffffffffffffff16815260200190815260200160002060009054906101000a900460ff1615905080600360008673ffffffffffffffffffffffffffffffffffffffff1673ffffffffffffffffffffffffffffffffffffffff16815260200190815260200160002060006101000a81548160ff0219169083151502179055506136c3565b6003600981111561293e577f4e487b7100000000000000000000000000000000000000000000000000000000600052602160045260246000fd5b856009811115612977577f4e487b7100000000000000000000000000000000000000000000000000000000600052602160045260246000fd5b1415612b575761298a60146013866138a9565b15612aab576012849080600181540180825580915050600190039060005260206000200160009091909190916101000a81548173ffffffffffffffffffffffffffffffffffffffff021916908373ffffffffffffffffffffffffffffffffffffffff1602179055506000601460008673ffffffffffffffffffffffffffffffffffffffff1673ffffffffffffffffffffffffffffffffffffffff16815260200190815260200160002081905550612a42601285613a13565b612aaa576012849080600181540180825580915050600190039060005260206000200160009091909190916101000a81548173ffffffffffffffffffffffffffffffffffffffff021916908373ffffffffffffffffffffffffffffffffffffffff1602179055505b5b601360008573ffffffffffffffffffffffffffffffffffffffff1673ffffffffffffffffffffffffffffffffffffffff16815260200190815260200160002060009054906101000a900460ff1615905080601360008673ffffffffffffffffffffffffffffffffffffffff1673ffffffffffffffffffffffffffffffffffffffff16815260200190815260200160002060006101000a81548160ff0219169083151502179055506136c2565b60046009811115612b91577f4e487b7100000000000000000000000000000000000000000000000000000000600052602160045260246000fd5b856009811115612bca577f4e487b7100000000000000000000000000000000000000000000000000000000600052602160045260246000fd5b1415612daa57612bdd6010600f866138a9565b15612cfe57600e849080600181540180825580915050600190039060005260206000200160009091909190916101000a81548173ffffffffffffffffffffffffffffffffffffffff021916908373ffffffffffffffffffffffffffffffffffffffff1602179055506000601060008673ffffffffffffffffffffffffffffffffffffffff1673ffffffffffffffffffffffffffffffffffffffff16815260200190815260200160002081905550612c95600e85613a13565b612cfd57600e849080600181540180825580915050600190039060005260206000200160009091909190916101000a81548173ffffffffffffffffffffffffffffffffffffffff021916908373ffffffffffffffffffffffffffffffffffffffff1602179055505b5b600f60008573ffffffffffffffffffffffffffffffffffffffff1673ffffffffffffffffffffffffffffffffffffffff16815260200190815260200160002060009054906101000a900460ff1615905080600f60008673ffffffffffffffffffffffffffffffffffffffff1673ffffffffffffffffffffffffffffffffffffffff16815260200190815260200160002060006101000a81548160ff0219169083151502179055506136c1565b60056009811115612de4577f4e487b7100000000000000000000000000000000000000000000000000000000600052602160045260246000fd5b856009811115612e1d577f4e487b7100000000000000000000000000000000000000000000000000000000600052602160045260246000fd5b141561301857612e30600d600c866138a9565b15612eee576000600d60008673ffffffffffffffffffffffffffffffffffffffff1673ffffffffffffffffffffffffffffffffffffffff16815260200190815260200160002081905550612e85600b85613a13565b612eed57600b849080600181540180825580915050600190039060005260206000200160009091909190916101000a81548173ffffffffffffffffffffffffffffffffffffffff021916908373ffffffffffffffffffffffffffffffffffffffff1602179055505b5b600c60008573ffffffffffffffffffffffffffffffffffffffff1673ffffffffffffffffffffffffffffffffffffffff16815260200190815260200160002060009054906101000a900460ff1615905080600c60008673ffffffffffffffffffffffffffffffffffffffff1673ffffffffffffffffffffffffffffffffffffffff16815260200190815260200160002060006101000a81548160ff02191690831515021790555082601160008673ffffffffffffffffffffffffffffffffffffffff1673ffffffffffffffffffffffffffffffffffffffff16815260200190815260200160002060006101000a81548173ffffffffffffffffffffffffffffffffffffffff021916908373ffffffffffffffffffffffffffffffffffffffff1602179055506136c0565b60066009811115613052577f4e487b7100000000000000000000000000000000000000000000000000000000600052602160045260246000fd5b85600981111561308b577f4e487b7100000000000000000000000000000000000000000000000000000000600052602160045260246000fd5b14156132085761309e60176016866138a9565b1561315c576000601760008673ffffffffffffffffffffffffffffffffffffffff1673ffffffffffffffffffffffffffffffffffffffff168152602001908152602001600020819055506130f3601585613a13565b61315b576015849080600181540180825580915050600190039060005260206000200160009091909190916101000a81548173ffffffffffffffffffffffffffffffffffffffff021916908373ffffffffffffffffffffffffffffffffffffffff1602179055505b5b601660008573ffffffffffffffffffffffffffffffffffffffff1673ffffffffffffffffffffffffffffffffffffffff16815260200190815260200160002060009054906101000a900460ff1615905080601660008673ffffffffffffffffffffffffffffffffffffffff1673ffffffffffffffffffffffffffffffffffffffff16815260200190815260200160002060006101000a81548160ff0219169083151502179055506136bf565b60076009811115613242577f4e487b7100000000000000000000000000000000000000000000000000000000600052602160045260246000fd5b85600981111561327b577f4e487b7100000000000000000000000000000000000000000000000000000000600052602160045260246000fd5b14156133f85761328e601a6019866138a9565b1561334c576000601a60008673ffffffffffffffffffffffffffffffffffffffff1673ffffffffffffffffffffffffffffffffffffffff168152602001908152602001600020819055506132e3601885613a13565b61334b576018849080600181540180825580915050600190039060005260206000200160009091909190916101000a81548173ffffffffffffffffffffffffffffffffffffffff021916908373ffffffffffffffffffffffffffffffffffffffff1602179055505b5b601960008573ffffffffffffffffffffffffffffffffffffffff1673ffffffffffffffffffffffffffffffffffffffff16815260200190815260200160002060009054906101000a900460ff1615905080601960008673ffffffffffffffffffffffffffffffffffffffff1673ffffffffffffffffffffffffffffffffffffffff16815260200190815260200160002060006101000a81548160ff0219169083151502179055506136be565b60086009811115613432577f4e487b7100000000000000000000000000000000000000000000000000000000600052602160045260246000fd5b85600981111561346b577f4e487b7100000000000000000000000000000000000000000000000000000000600052602160045260246000fd5b14156135e85761347e601d601c866138a9565b1561353c576000601d60008673ffffffffffffffffffffffffffffffffffffffff1673ffffffffffffffffffffffffffffffffffffffff168152602001908152602001600020819055506134d3601b85613a13565b61353b57601b849080600181540180825580915050600190039060005260206000200160009091909190916101000a81548173ffffffffffffffffffffffffffffffffffffffff021916908373ffffffffffffffffffffffffffffffffffffffff1602179055505b5b601c60008573ffffffffffffffffffffffffffffffffffffffff1673ffffffffffffffffffffffffffffffffffffffff16815260200190815260200160002060009054906101000a900460ff1615905080601c60008673ffffffffffffffffffffffffffffffffffffffff1673ffffffffffffffffffffffffffffffffffffffff16815260200190815260200160002060006101000a81548160ff0219169083151502179055506136bd565b600980811115613621577f4e487b7100000000000000000000000000000000000000000000000000000000600052602160045260246000fd5b85600981111561365a577f4e487b7100000000000000000000000000000000000000000000000000000000600052602160045260246000fd5b14156136b2576000601f8190555083601e60006101000a81548173ffffffffffffffffffffffffffffffffffffffff021916908373ffffffffffffffffffffffffffffffffffffffff160217905550600190506136bc565b600091505061373d565b5b5b5b5b5b5b5b5b5b8460098111156136fe577f4e487b7100000000000000000000000000000000000000000000000000000000600052602160045260246000fd5b7f0dcacb7e392f3d6a216ed2660e3dcfd40b7793d33591db2ba185a6b8e44fc477858360405161372f929190613d8f565b60405180910390a260019150505b9392505050565b600b818154811061375457600080fd5b906000526020600020016000915054906101000a900473ffffffffffffffffffffffffffffffffffffffff1681565b60106020528060005260406000206000915090505481565b600033905090565b600081836137b19190613ea8565b905092915050565b60008060009054906101000a900473ffffffffffffffffffffffffffffffffffffffff169050816000806101000a81548173ffffffffffffffffffffffffffffffffffffffff021916908373ffffffffffffffffffffffffffffffffffffffff1602179055508173ffffffffffffffffffffffffffffffffffffffff168173ffffffffffffffffffffffffffffffffffffffff167f8be0079c531659141344cd1fd0a4f28419497f9722a3daafe3b4186f6b6457e060405160405180910390a35050565b6000818361388b91906140a0565b905092915050565b600081836138a19190613efe565b905092915050565b60008260008373ffffffffffffffffffffffffffffffffffffffff1673ffffffffffffffffffffffffffffffffffffffff16815260200190815260200160002060009054906101000a900460ff16613a075760008460008473ffffffffffffffffffffffffffffffffffffffff1673ffffffffffffffffffffffffffffffffffffffff16815260200190815260200160002054141561397d576040517f08c379a000000000000000000000000000000000000000000000000000000000815260040161397490613e5c565b60405180910390fd5b438460008473ffffffffffffffffffffffffffffffffffffffff1673ffffffffffffffffffffffffffffffffffffffff1681526020019081526020016000205411156139fe576040517f08c379a00000000000000000000000000000000000000000000000000000000081526004016139f590613dfc565b60405180910390fd5b60019050613a0c565b600090505b9392505050565b600080600090505b8380549050811015613adb578273ffffffffffffffffffffffffffffffffffffffff16848281548110613a77577f4e487b7100000000000000000000000000000000000000000000000000000000600052603260045260246000fd5b9060005260206000200160009054906101000a900473ffffffffffffffffffffffffffffffffffffffff1673ffffffffffffffffffffffffffffffffffffffff161415613ac8576001915050613ae1565b8080613ad39061414f565b915050613a1b565b50600090505b92915050565b600081359050613af6816142cd565b92915050565b600081359050613b0b816142e4565b92915050565b600081359050613b20816142f4565b92915050565b600081519050613b35816142f4565b92915050565b600081519050613b4a8161430b565b92915050565b600060208284031215613b6257600080fd5b6000613b7084828501613ae7565b91505092915050565b60008060408385031215613b8c57600080fd5b6000613b9a85828601613ae7565b9250506020613bab85828601613b11565b9150509250929050565b60008060408385031215613bc857600080fd5b6000613bd685828601613afc565b9250506020613be785828601613ae7565b9150509250929050565b600080600060608486031215613c0657600080fd5b6000613c1486828701613afc565b9350506020613c2586828701613ae7565b9250506040613c3686828701613ae7565b9150509250925092565b600060208284031215613c5257600080fd5b6000613c6084828501613b11565b91505092915050565b600060208284031215613c7b57600080fd5b6000613c8984828501613b26565b91505092915050565b600060208284031215613ca457600080fd5b6000613cb284828501613b3b565b91505092915050565b613cc4816140fa565b82525050565b613cd38161410c565b82525050565b6000613ce6601183613e97565b9150613cf182614203565b602082019050919050565b6000613d09602683613e97565b9150613d148261422c565b604082019050919050565b6000613d2c602083613e97565b9150613d378261427b565b602082019050919050565b6000613d4f600a83613e97565b9150613d5a826142a4565b602082019050919050565b613d6e81614138565b82525050565b6000602082019050613d896000830184613cbb565b92915050565b6000604082019050613da46000830185613cbb565b613db16020830184613cca565b9392505050565b6000604082019050613dcd6000830185613cbb565b613dda6020830184613d65565b9392505050565b6000602082019050613df66000830184613cca565b92915050565b60006020820190508181036000830152613e1581613cd9565b9050919050565b60006020820190508181036000830152613e3581613cfc565b9050919050565b60006020820190508181036000830152613e5581613d1f565b9050919050565b60006020820190508181036000830152613e7581613d42565b9050919050565b6000602082019050613e916000830184613d65565b92915050565b600082825260208201905092915050565b6000613eb382614138565b9150613ebe83614138565b9250827fffffffffffffffffffffffffffffffffffffffffffffffffffffffffffffffff03821115613ef357613ef2614198565b5b828201905092915050565b6000613f0982614138565b9150613f1483614138565b925082613f2457613f236141c7565b5b828204905092915050565b6000808291508390505b6001851115613f7957808604811115613f5557613f54614198565b5b6001851615613f645780820291505b8081029050613f72856141f6565b9450613f39565b94509492505050565b6000613f8d82614138565b9150613f9883614142565b9250613fc57fffffffffffffffffffffffffffffffffffffffffffffffffffffffffffffffff8484613fcd565b905092915050565b600082613fdd5760019050614099565b81613feb5760009050614099565b8160018114614001576002811461400b5761403a565b6001915050614099565b60ff84111561401d5761401c614198565b5b8360020a91508482111561403457614033614198565b5b50614099565b5060208310610133831016604e8410600b841016171561406f5782820a90508381111561406a57614069614198565b5b614099565b61407c8484846001613f2f565b9250905081840481111561409357614092614198565b5b81810290505b9392505050565b60006140ab82614138565b91506140b683614138565b9250817fffffffffffffffffffffffffffffffffffffffffffffffffffffffffffffffff04831182151516156140ef576140ee614198565b5b828202905092915050565b600061410582614118565b9050919050565b60008115159050919050565b600073ffffffffffffffffffffffffffffffffffffffff82169050919050565b6000819050919050565b600060ff82169050919050565b600061415a82614138565b91507fffffffffffffffffffffffffffffffffffffffffffffffffffffffffffffffff82141561418d5761418c614198565b5b600182019050919050565b7f4e487b7100000000000000000000000000000000000000000000000000000000600052601160045260246000fd5b7f4e487b7100000000000000000000000000000000000000000000000000000000600052601260045260246000fd5b60008160011c9050919050565b7f5175657565206e6f742065787069726564000000000000000000000000000000600082015250565b7f4f776e61626c653a206e6577206f776e657220697320746865207a65726f206160008201527f6464726573730000000000000000000000000000000000000000000000000000602082015250565b7f4f776e61626c653a2063616c6c6572206973206e6f7420746865206f776e6572600082015250565b7f4d75737420717565756500000000000000000000000000000000000000000000600082015250565b6142d6816140fa565b81146142e157600080fd5b50565b600a81106142f157600080fd5b50565b6142fd81614138565b811461430857600080fd5b50565b61431481614142565b811461431f57600080fd5b5056fea2646970667358221220ec3766809c9d4546abb0a45fa5053b9abd8e8e24425371f040e02af9b1e45e7964736f6c63430008040033",
  "linkReferences": {},
  "deployedLinkReferences": {}
}