{
  "_format": "hh-sol-artifact-1",
  "contractName": "Treasury",
  "sourceName": "contracts/coreContracts/Treasury.sol",
  "abi": [
    {
      "inputs": [
        {
          "internalType": "address",
          "name": "_ORFI",
          "type": "address"
        },
        {
          "internalType": "address",
          "name": "_treasuryHelper",
          "type": "address"
        }
      ],
      "stateMutability": "nonpayable",
      "type": "constructor"
    },
    {
      "anonymous": false,
      "inputs": [
        {
          "indexed": true,
          "internalType": "address",
          "name": "debtor",
          "type": "address"
        },
        {
          "indexed": true,
          "internalType": "address",
          "name": "token",
          "type": "address"
        },
        {
          "indexed": false,
          "internalType": "uint256",
          "name": "amount",
          "type": "uint256"
        },
        {
          "indexed": false,
          "internalType": "uint256",
          "name": "value",
          "type": "uint256"
        }
      ],
      "name": "CreateDebt",
      "type": "event"
    },
    {
      "anonymous": false,
      "inputs": [
        {
          "indexed": true,
          "internalType": "address",
          "name": "token",
          "type": "address"
        },
        {
          "indexed": false,
          "internalType": "uint256",
          "name": "amount",
          "type": "uint256"
        },
        {
          "indexed": false,
          "internalType": "uint256",
          "name": "orfiMinted",
          "type": "uint256"
        }
      ],
      "name": "Deposit",
      "type": "event"
    },
    {
      "anonymous": false,
      "inputs": [
        {
          "indexed": true,
          "internalType": "address",
          "name": "previousOwner",
          "type": "address"
        },
        {
          "indexed": true,
          "internalType": "address",
          "name": "newOwner",
          "type": "address"
        }
      ],
      "name": "OwnershipTransferred",
      "type": "event"
    },
    {
      "anonymous": false,
      "inputs": [
        {
          "indexed": true,
          "internalType": "address",
          "name": "debtor",
          "type": "address"
        },
        {
          "indexed": true,
          "internalType": "address",
          "name": "token",
          "type": "address"
        },
        {
          "indexed": false,
          "internalType": "uint256",
          "name": "amount",
          "type": "uint256"
        },
        {
          "indexed": false,
          "internalType": "uint256",
          "name": "value",
          "type": "uint256"
        }
      ],
      "name": "RepayDebt",
      "type": "event"
    },
    {
      "anonymous": false,
      "inputs": [
        {
          "indexed": true,
          "internalType": "address",
          "name": "token",
          "type": "address"
        },
        {
          "indexed": false,
          "internalType": "uint256",
          "name": "amount",
          "type": "uint256"
        }
      ],
      "name": "ReservesManaged",
      "type": "event"
    },
    {
      "anonymous": false,
      "inputs": [
        {
          "indexed": true,
          "internalType": "uint256",
          "name": "totalReserves",
          "type": "uint256"
        }
      ],
      "name": "ReservesUpdated",
      "type": "event"
    },
    {
      "anonymous": false,
      "inputs": [
        {
          "indexed": true,
          "internalType": "address",
          "name": "token",
          "type": "address"
        },
        {
          "indexed": false,
          "internalType": "uint256",
          "name": "amount",
          "type": "uint256"
        },
        {
          "indexed": false,
          "internalType": "uint256",
          "name": "orfiBurned",
          "type": "uint256"
        }
      ],
      "name": "Withdrawal",
      "type": "event"
    },
    {
      "inputs": [],
      "name": "ORFI",
      "outputs": [
        {
          "internalType": "address",
          "name": "",
          "type": "address"
        }
      ],
      "stateMutability": "view",
      "type": "function"
    },
    {
      "inputs": [
        {
          "internalType": "address",
          "name": "_token",
          "type": "address"
        },
        {
          "internalType": "address",
          "name": "_liquidityBond",
          "type": "address"
        }
      ],
      "name": "addLiquidityBond",
      "outputs": [],
      "stateMutability": "nonpayable",
      "type": "function"
    },
    {
      "inputs": [],
      "name": "auditOwner",
      "outputs": [
        {
          "internalType": "address",
          "name": "",
          "type": "address"
        }
      ],
      "stateMutability": "view",
      "type": "function"
    },
    {
      "inputs": [
        {
          "internalType": "address",
          "name": "",
          "type": "address"
        }
      ],
      "name": "bondCalculator",
      "outputs": [
        {
          "internalType": "address",
          "name": "",
          "type": "address"
        }
      ],
      "stateMutability": "view",
      "type": "function"
    },
    {
      "inputs": [
        {
          "internalType": "address",
          "name": "",
          "type": "address"
        }
      ],
      "name": "debtorBalance",
      "outputs": [
        {
          "internalType": "uint256",
          "name": "",
          "type": "uint256"
        }
      ],
      "stateMutability": "view",
      "type": "function"
    },
    {
      "inputs": [
        {
          "internalType": "uint256",
          "name": "_amount",
          "type": "uint256"
        },
        {
          "internalType": "address",
          "name": "_token",
          "type": "address"
        },
        {
          "internalType": "uint256",
          "name": "_orfiAmount",
          "type": "uint256"
        }
      ],
      "name": "deposit",
      "outputs": [],
      "stateMutability": "nonpayable",
      "type": "function"
    },
    {
      "inputs": [
        {
          "internalType": "address",
          "name": "_token",
          "type": "address"
        },
        {
          "internalType": "uint256",
          "name": "_amount",
          "type": "uint256"
        }
      ],
      "name": "manage",
      "outputs": [],
      "stateMutability": "nonpayable",
      "type": "function"
    },
    {
      "inputs": [
        {
          "internalType": "uint256",
          "name": "_amount",
          "type": "uint256"
        }
      ],
      "name": "orfiEqValue",
      "outputs": [
        {
          "internalType": "uint256",
          "name": "value_",
          "type": "uint256"
        }
      ],
      "stateMutability": "view",
      "type": "function"
    },
    {
      "inputs": [],
      "name": "owner",
      "outputs": [
        {
          "internalType": "address",
          "name": "",
          "type": "address"
        }
      ],
      "stateMutability": "view",
      "type": "function"
    },
    {
      "inputs": [
        {
          "internalType": "address",
          "name": "_liquidityBond",
          "type": "address"
        }
      ],
      "name": "removeLiquidityBond",
      "outputs": [],
      "stateMutability": "nonpayable",
      "type": "function"
    },
    {
      "inputs": [],
      "name": "renounceOwnership",
      "outputs": [],
      "stateMutability": "nonpayable",
      "type": "function"
    },
    {
      "inputs": [],
      "name": "sORFI",
      "outputs": [
        {
          "internalType": "address",
          "name": "",
          "type": "address"
        }
      ],
      "stateMutability": "view",
      "type": "function"
    },
    {
      "inputs": [
        {
          "internalType": "address",
          "name": "_sORFI",
          "type": "address"
        }
      ],
      "name": "setStakedORFI",
      "outputs": [],
      "stateMutability": "nonpayable",
      "type": "function"
    },
    {
      "inputs": [
        {
          "internalType": "address",
          "name": "_tavCalculator",
          "type": "address"
        }
      ],
      "name": "setTAVCalculator",
      "outputs": [],
      "stateMutability": "nonpayable",
      "type": "function"
    },
    {
      "inputs": [],
      "name": "tavCalculator",
      "outputs": [
        {
          "internalType": "address",
          "name": "",
          "type": "address"
        }
      ],
      "stateMutability": "view",
      "type": "function"
    },
    {
      "inputs": [],
      "name": "totalORFIMinted",
      "outputs": [
        {
          "internalType": "uint256",
          "name": "",
          "type": "uint256"
        }
      ],
      "stateMutability": "view",
      "type": "function"
    },
    {
      "inputs": [],
      "name": "totalReserves",
      "outputs": [
        {
          "internalType": "uint256",
          "name": "",
          "type": "uint256"
        }
      ],
      "stateMutability": "view",
      "type": "function"
    },
    {
      "inputs": [
        {
          "internalType": "address",
          "name": "newOwner",
          "type": "address"
        }
      ],
      "name": "transferOwnership",
      "outputs": [],
      "stateMutability": "nonpayable",
      "type": "function"
    },
    {
      "inputs": [],
      "name": "treasuryHelper",
      "outputs": [
        {
          "internalType": "address",
          "name": "",
          "type": "address"
        }
      ],
      "stateMutability": "view",
      "type": "function"
    },
    {
      "inputs": [
        {
          "internalType": "address",
          "name": "_token",
          "type": "address"
        },
        {
          "internalType": "uint256",
          "name": "_amount",
          "type": "uint256"
        },
        {
          "internalType": "bool",
          "name": "isReserveToken",
          "type": "bool"
        },
        {
          "internalType": "bool",
          "name": "isLiquidToken",
          "type": "bool"
        }
      ],
      "name": "valueOfToken",
      "outputs": [
        {
          "internalType": "uint256",
          "name": "",
          "type": "uint256"
        }
      ],
      "stateMutability": "view",
      "type": "function"
    },
    {
      "inputs": [
        {
          "internalType": "uint256",
          "name": "_amount",
          "type": "uint256"
        },
        {
          "internalType": "address",
          "name": "_token",
          "type": "address"
        }
      ],
      "name": "withdraw",
      "outputs": [],
      "stateMutability": "nonpayable",
      "type": "function"
    }
  ],
  "bytecode": "0x60a06040523480156200001157600080fd5b5060405162001dde38038062001dde83398101604081905262000034916200010d565b6200003f33620000a0565b6001600160a01b0382166200005357600080fd5b6001600160601b0319606083901b166080526001600160a01b0381166200007957600080fd5b600380546001600160a01b0319166001600160a01b03929092169190911790555062000144565b600080546001600160a01b038381166001600160a01b0319831681178455604051919092169283917f8be0079c531659141344cd1fd0a4f28419497f9722a3daafe3b4186f6b6457e09190a35050565b80516001600160a01b03811681146200010857600080fd5b919050565b6000806040838503121562000120578182fd5b6200012b83620000f0565b91506200013b60208401620000f0565b90509250929050565b60805160601c611c666200017860003960008181610228015281816104d201528181610d580152610ec10152611c666000f3fe608060405234801561001057600080fd5b50600436106101365760003560e01c806379cdf620116100b8578063bc157ac11161007c578063bc157ac1146102a4578063de317e6f146102b7578063df19aebd146102ca578063f2079623146102d2578063f2fde38b146102e5578063fb87b272146102f857600080fd5b806379cdf620146102525780638da5cb5b146102655780638f840ddd146102765780639d5c9e8d1461027e578063ae022d571461029157600080fd5b80631fe8aac5116100ff5780631fe8aac5146101ea5780634b290d30146101fd57806367db67ba146102105780636d90e5b814610223578063715018a61461024a57600080fd5b8062f714ce1461013b578063094a8651146101505780630b0eee30146101835780631af4da70146101965780631c30dcdd146101d7575b600080fd5b61014e61014936600461196e565b61030b565b005b61017061015e36600461185d565b60066020526000908152604090205481565b6040519081526020015b60405180910390f35b61014e6101913660046118a9565b610594565b6101bf6101a436600461185d565b6005602052600090815260409020546001600160a01b031681565b6040516001600160a01b03909116815260200161017a565b61014e6101e536600461185d565b610869565b6004546101bf906001600160a01b031681565b6001546101bf906001600160a01b031681565b61014e61021e36600461185d565b6108c8565b6101bf7f000000000000000000000000000000000000000000000000000000000000000081565b61014e610919565b6002546101bf906001600160a01b031681565b6000546001600160a01b03166101bf565b600754610170565b61014e61028c366004611877565b61094f565b61017061029f36600461193e565b6109a7565b61014e6102b2366004611990565b610a59565b6003546101bf906001600160a01b031681565b600854610170565b6101706102e03660046118d2565b610e35565b61014e6102f336600461185d565b611015565b61014e61030636600461185d565b6110b0565b6003546040516368c31dd560e01b81526001600160a01b038381166004830152909116906368c31dd59060240160206040518083038186803b15801561035057600080fd5b505afa158015610364573d6000803e3d6000fd5b505050506040513d601f19601f820116820180604052508101906103889190611922565b6103be5760405162461bcd60e51b81526020600482015260026024820152614e4160f01b60448201526064015b60405180910390fd5b6003546040516387d67dff60e01b81523360048201526001600160a01b03909116906387d67dff9060240160206040518083038186803b15801561040157600080fd5b505afa158015610415573d6000803e3d6000fd5b505050506040513d601f19601f820116820180604052508101906104399190611922565b6104555760405162461bcd60e51b81526004016103b590611a34565b600061046861029f838560016000610e35565b60085490915061047890826110fc565b60085560075461048890846110fc565b60078190556040517f93bb8edd35984706eee1b92541281f7f62d33c01c5b2ec0929a113603bd21d6690600090a260405163079cc67960e41b8152336004820152602481018290527f00000000000000000000000000000000000000000000000000000000000000006001600160a01b0316906379cc679090604401600060405180830381600087803b15801561051e57600080fd5b505af1158015610532573d6000803e3d6000fd5b5061054b925050506001600160a01b0383163385611111565b60408051848152602081018390526001600160a01b038416917fdf273cb619d95419a9cd0ec88123a0538c85064229baa6363788f743fff90deb910160405180910390a2505050565b60035460405163a569e57160e01b81526001600160a01b038481166004830152600092169063a569e5719060240160206040518083038186803b1580156105da57600080fd5b505afa1580156105ee573d6000803e3d6000fd5b505050506040513d601f19601f820116820180604052508101906106129190611922565b6003546040516368c31dd560e01b81526001600160a01b038681166004830152929350600092909116906368c31dd59060240160206040518083038186803b15801561065d57600080fd5b505afa158015610671573d6000803e3d6000fd5b505050506040513d601f19601f820116820180604052508101906106959190611922565b90508115610734576003546040516337e26cd160e21b81523360048201526001600160a01b039091169063df89b3449060240160206040518083038186803b1580156106e057600080fd5b505afa1580156106f4573d6000803e3d6000fd5b505050506040513d601f19601f820116820180604052508101906107189190611922565b6107345760405162461bcd60e51b81526004016103b590611a34565b80156107d157600354604051631d7b079b60e31b81523360048201526001600160a01b039091169063ebd83cd89060240160206040518083038186803b15801561077d57600080fd5b505afa158015610791573d6000803e3d6000fd5b505050506040513d601f19601f820116820180604052508101906107b59190611922565b6107d15760405162461bcd60e51b81526004016103b590611a34565b6007546107de90846110fc565b60078190556040517f93bb8edd35984706eee1b92541281f7f62d33c01c5b2ec0929a113603bd21d6690600090a26108206001600160a01b0385163385611111565b836001600160a01b03167f2bb2640731848fe9820ba48dbc978c1fc9bbd5f11b948bfab05b7dee3378fd808460405161085b91815260200190565b60405180910390a250505050565b6000546001600160a01b031633146108935760405162461bcd60e51b81526004016103b590611a57565b6001600160a01b0381166108a657600080fd5b600180546001600160a01b0319166001600160a01b0392909216919091179055565b6000546001600160a01b031633146108f25760405162461bcd60e51b81526004016103b590611a57565b6001600160a01b0316600090815260056020526040902080546001600160a01b0319169055565b6000546001600160a01b031633146109435760405162461bcd60e51b81526004016103b590611a57565b61094d6000611179565b565b6000546001600160a01b031633146109795760405162461bcd60e51b81526004016103b590611a57565b6001600160a01b03918216600090815260056020526040902080546001600160a01b03191691909216179055565b600080610a3e633b9aca00600260009054906101000a90046001600160a01b03166001600160a01b031663ac3b992a6040518163ffffffff1660e01b815260040160206040518083038186803b158015610a0057600080fd5b505afa158015610a14573d6000803e3d6000fd5b505050506040513d601f19601f82011682018060405250810190610a389190611956565b906111c9565b9050610a52610a4d84836111d5565b611310565b9392505050565b6003546040516368c31dd560e01b81526001600160a01b03848116600483015260009216906368c31dd59060240160206040518083038186803b158015610a9f57600080fd5b505afa158015610ab3573d6000803e3d6000fd5b505050506040513d601f19601f82011682018060405250810190610ad79190611922565b60035460405163a569e57160e01b81526001600160a01b0386811660048301529293506000929091169063a569e5719060240160206040518083038186803b158015610b2257600080fd5b505afa158015610b36573d6000803e3d6000fd5b505050506040513d601f19601f82011682018060405250810190610b5a9190611922565b90508180610b655750805b610b965760405162461bcd60e51b81526020600482015260026024820152614e4160f01b60448201526064016103b5565b8115610c5457600354604051630920aa6560e11b81523360048201526001600160a01b039091169063124154ca9060240160206040518083038186803b158015610bdf57600080fd5b505afa158015610bf3573d6000803e3d6000fd5b505050506040513d601f19601f82011682018060405250810190610c179190611922565b610c4f5760405162461bcd60e51b8152602060048201526009602482015268139054141493d5915160ba1b60448201526064016103b5565b610d07565b60035460405163a1210a2d60e01b81523360048201526001600160a01b039091169063a1210a2d9060240160206040518083038186803b158015610c9757600080fd5b505afa158015610cab573d6000803e3d6000fd5b505050506040513d601f19601f82011682018060405250810190610ccf9190611922565b610d075760405162461bcd60e51b8152602060048201526009602482015268139054141493d5915160ba1b60448201526064016103b5565b600754610d149086611330565b600755600854610d249084611330565b600855610d3c6001600160a01b03851633308861133c565b6040516340c10f1960e01b8152336004820152602481018490527f00000000000000000000000000000000000000000000000000000000000000006001600160a01b0316906340c10f1990604401600060405180830381600087803b158015610da457600080fd5b505af1158015610db8573d6000803e3d6000fd5b50506007546040519092507f93bb8edd35984706eee1b92541281f7f62d33c01c5b2ec0929a113603bd21d669150600090a260408051868152602081018590526001600160a01b038616917f90890809c654f11d6e72a28fa60149770a0d11ec6c92319d6ceb2bb0a4ea1a15910160405180910390a25050505050565b60008215610f6f57610f68856001600160a01b031663313ce5676040518163ffffffff1660e01b815260040160206040518083038186803b158015610e7957600080fd5b505afa158015610e8d573d6000803e3d6000fd5b505050506040513d601f19601f82011682018060405250810190610eb191906119c4565b610ebc90600a611aff565b610f627f00000000000000000000000000000000000000000000000000000000000000006001600160a01b031663313ce5676040518163ffffffff1660e01b815260040160206040518083038186803b158015610f1857600080fd5b505afa158015610f2c573d6000803e3d6000fd5b505050506040513d601f19601f82011682018060405250810190610f5091906119c4565b610f5b90600a611aff565b87906111c9565b9061137a565b905061100d565b8115611009576001600160a01b0385811660008181526005602052604090819020549051634249719f60e01b815260048101929092526024820187905290911690634249719f9060440160206040518083038186803b158015610fd157600080fd5b505afa158015610fe5573d6000803e3d6000fd5b505050506040513d601f19601f82011682018060405250810190610f689190611956565b5060005b949350505050565b6000546001600160a01b0316331461103f5760405162461bcd60e51b81526004016103b590611a57565b6001600160a01b0381166110a45760405162461bcd60e51b815260206004820152602660248201527f4f776e61626c653a206e6577206f776e657220697320746865207a65726f206160448201526564647265737360d01b60648201526084016103b5565b6110ad81611179565b50565b6000546001600160a01b031633146110da5760405162461bcd60e51b81526004016103b590611a57565b600280546001600160a01b0319166001600160a01b0392909216919091179055565b60006111088284611bc9565b90505b92915050565b6040516001600160a01b03831660248201526044810182905261117490849063a9059cbb60e01b906064015b60408051601f198184030181529190526020810180516001600160e01b03166001600160e01b031990931692909217909152611386565b505050565b600080546001600160a01b038381166001600160a01b0319831681178455604051919092169283917f8be0079c531659141344cd1fd0a4f28419497f9722a3daafe3b4186f6b6457e09190a35050565b60006111088284611baa565b604080516020810190915260008152600082116112435760405162461bcd60e51b815260206004820152602660248201527f4669786564506f696e743a3a6672616374696f6e3a206469766973696f6e206260448201526579207a65726f60d01b60648201526084016103b5565b8261125d575060408051602081019091526000815261110b565b71ffffffffffffffffffffffffffffffffffff83116112ff57600061128683607086901b611aa4565b90506001600160e01b038111156112df5760405162461bcd60e51b815260206004820152601e60248201527f4669786564506f696e743a3a6672616374696f6e3a206f766572666c6f77000060448201526064016103b5565b6040518060200160405280826001600160e01b031681525091505061110b565b600061128684600160701b85611458565b805160009061110b906612725dd1d243ab906001600160e01b0316611aa4565b60006111088284611a8c565b6040516001600160a01b03808516602483015283166044820152606481018290526113749085906323b872dd60e01b9060840161113d565b50505050565b60006111088284611aa4565b60006113db826040518060400160405280602081526020017f5361666545524332303a206c6f772d6c6576656c2063616c6c206661696c6564815250856001600160a01b03166115159092919063ffffffff16565b80519091501561117457808060200190518101906113f99190611922565b6111745760405162461bcd60e51b815260206004820152602a60248201527f5361666545524332303a204552433230206f7065726174696f6e20646964206e6044820152691bdd081cdd58d8d9595960b21b60648201526084016103b5565b60008060006114678686611524565b915091506000848061148957634e487b7160e01b600052601260045260246000fd5b8688099050828111156114a4576114a1600183611bc9565b91505b6114ae8184611bc9565b92508482106114ff5760405162461bcd60e51b815260206004820152601a60248201527f46756c6c4d6174683a3a6d756c4469763a206f766572666c6f7700000000000060448201526064016103b5565b61150a838387611566565b979650505050505050565b606061100d84846000856116e7565b60008080600019848609905061153a8486611baa565b92506115468382611bc9565b91508281101561155e5761155b600183611bc9565b91505b509250929050565b60008061157583196001611a8c565b831690506115838184611aa4565b925061158f8186611aa4565b94508061159e81196001611a8c565b6115a89190611aa4565b6115b3906001611a8c565b6115bd9085611baa565b6115c79086611a8c565b945060016115d58185611baa565b6115e0906002611bc9565b6115ea9082611baa565b90506115f68185611baa565b611601906002611bc9565b61160b9082611baa565b90506116178185611baa565b611622906002611bc9565b61162c9082611baa565b90506116388185611baa565b611643906002611bc9565b61164d9082611baa565b90506116598185611baa565b611664906002611bc9565b61166e9082611baa565b905061167a8185611baa565b611685906002611bc9565b61168f9082611baa565b905061169b8185611baa565b6116a6906002611bc9565b6116b09082611baa565b90506116bc8185611baa565b6116c7906002611bc9565b6116d19082611baa565b90506116dd8187611baa565b9695505050505050565b6060824710156117485760405162461bcd60e51b815260206004820152602660248201527f416464726573733a20696e73756666696369656e742062616c616e636520666f6044820152651c8818d85b1b60d21b60648201526084016103b5565b6001600160a01b0385163b61179f5760405162461bcd60e51b815260206004820152601d60248201527f416464726573733a2063616c6c20746f206e6f6e2d636f6e747261637400000060448201526064016103b5565b600080866001600160a01b031685876040516117bb91906119e5565b60006040518083038185875af1925050503d80600081146117f8576040519150601f19603f3d011682016040523d82523d6000602084013e6117fd565b606091505b509150915061150a82828660608315611817575081610a52565b8251156118275782518084602001fd5b8160405162461bcd60e51b81526004016103b59190611a01565b80356001600160a01b038116811461185857600080fd5b919050565b60006020828403121561186e578081fd5b61110882611841565b60008060408385031215611889578081fd5b61189283611841565b91506118a060208401611841565b90509250929050565b600080604083850312156118bb578182fd5b6118c483611841565b946020939093013593505050565b600080600080608085870312156118e7578182fd5b6118f085611841565b935060208501359250604085013561190781611c22565b9150606085013561191781611c22565b939692955090935050565b600060208284031215611933578081fd5b8151610a5281611c22565b60006020828403121561194f578081fd5b5035919050565b600060208284031215611967578081fd5b5051919050565b60008060408385031215611980578182fd5b823591506118a060208401611841565b6000806000606084860312156119a4578283fd5b833592506119b460208501611841565b9150604084013590509250925092565b6000602082840312156119d5578081fd5b815160ff81168114610a52578182fd5b600082516119f7818460208701611be0565b9190910192915050565b6020815260008251806020840152611a20816040850160208701611be0565b601f01601f19169190910160400192915050565b60208082526009908201526813905c1c1c9bdd995960ba1b604082015260600190565b6020808252818101527f4f776e61626c653a2063616c6c6572206973206e6f7420746865206f776e6572604082015260600190565b60008219821115611a9f57611a9f611c0c565b500190565b600082611abf57634e487b7160e01b81526012600452602481fd5b500490565b600181815b8085111561155e578160001904821115611ae557611ae5611c0c565b80851615611af257918102915b93841c9390800290611ac9565b600061110860ff841683600082611b185750600161110b565b81611b255750600061110b565b8160018114611b3b5760028114611b4557611b61565b600191505061110b565b60ff841115611b5657611b56611c0c565b50506001821b61110b565b5060208310610133831016604e8410600b8410161715611b84575081810a61110b565b611b8e8383611ac4565b8060001904821115611ba257611ba2611c0c565b029392505050565b6000816000190483118215151615611bc457611bc4611c0c565b500290565b600082821015611bdb57611bdb611c0c565b500390565b60005b83811015611bfb578181015183820152602001611be3565b838111156113745750506000910152565b634e487b7160e01b600052601160045260246000fd5b80151581146110ad57600080fdfea264697066735822122066bdabb30f0a9f2d51b6a00a5d73f0ebc0aff52047db233bf5464a5b53dbd7a164736f6c63430008040033",
  "linkReferences": {},
  "deployedLinkReferences": {}
}