{
  "_format": "hh-sol-artifact-1",
  "contractName": "Treasury",
  "sourceName": "contracts/Treasury.sol",
  "abi": [
    {
      "inputs": [
        {
          "internalType": "address",
          "name": "_ORFI",
          "type": "address"
        },
        {
          "internalType": "address",
          "name": "_treasuryHelper",
          "type": "address"
        }
      ],
      "stateMutability": "nonpayable",
      "type": "constructor"
    },
    {
      "anonymous": false,
      "inputs": [
        {
          "indexed": true,
          "internalType": "address",
          "name": "debtor",
          "type": "address"
        },
        {
          "indexed": true,
          "internalType": "address",
          "name": "token",
          "type": "address"
        },
        {
          "indexed": false,
          "internalType": "uint256",
          "name": "amount",
          "type": "uint256"
        },
        {
          "indexed": false,
          "internalType": "uint256",
          "name": "value",
          "type": "uint256"
        }
      ],
      "name": "CreateDebt",
      "type": "event"
    },
    {
      "anonymous": false,
      "inputs": [
        {
          "indexed": true,
          "internalType": "address",
          "name": "token",
          "type": "address"
        },
        {
          "indexed": false,
          "internalType": "uint256",
          "name": "amount",
          "type": "uint256"
        },
        {
          "indexed": false,
          "internalType": "uint256",
          "name": "orfiMinted",
          "type": "uint256"
        }
      ],
      "name": "Deposit",
      "type": "event"
    },
    {
      "anonymous": false,
      "inputs": [
        {
          "indexed": true,
          "internalType": "address",
          "name": "previousOwner",
          "type": "address"
        },
        {
          "indexed": true,
          "internalType": "address",
          "name": "newOwner",
          "type": "address"
        }
      ],
      "name": "OwnershipTransferred",
      "type": "event"
    },
    {
      "anonymous": false,
      "inputs": [
        {
          "indexed": true,
          "internalType": "address",
          "name": "debtor",
          "type": "address"
        },
        {
          "indexed": true,
          "internalType": "address",
          "name": "token",
          "type": "address"
        },
        {
          "indexed": false,
          "internalType": "uint256",
          "name": "amount",
          "type": "uint256"
        },
        {
          "indexed": false,
          "internalType": "uint256",
          "name": "value",
          "type": "uint256"
        }
      ],
      "name": "RepayDebt",
      "type": "event"
    },
    {
      "anonymous": false,
      "inputs": [
        {
          "indexed": true,
          "internalType": "address",
          "name": "token",
          "type": "address"
        },
        {
          "indexed": false,
          "internalType": "uint256",
          "name": "amount",
          "type": "uint256"
        }
      ],
      "name": "ReservesManaged",
      "type": "event"
    },
    {
      "anonymous": false,
      "inputs": [
        {
          "indexed": true,
          "internalType": "uint256",
          "name": "totalReserves",
          "type": "uint256"
        }
      ],
      "name": "ReservesUpdated",
      "type": "event"
    },
    {
      "anonymous": false,
      "inputs": [
        {
          "indexed": true,
          "internalType": "address",
          "name": "token",
          "type": "address"
        },
        {
          "indexed": false,
          "internalType": "uint256",
          "name": "amount",
          "type": "uint256"
        },
        {
          "indexed": false,
          "internalType": "uint256",
          "name": "orfiBurned",
          "type": "uint256"
        }
      ],
      "name": "Withdrawal",
      "type": "event"
    },
    {
      "inputs": [],
      "name": "ORFI",
      "outputs": [
        {
          "internalType": "address",
          "name": "",
          "type": "address"
        }
      ],
      "stateMutability": "view",
      "type": "function"
    },
    {
      "inputs": [],
      "name": "auditOwner",
      "outputs": [
        {
          "internalType": "address",
          "name": "",
          "type": "address"
        }
      ],
      "stateMutability": "view",
      "type": "function"
    },
    {
      "inputs": [
        {
          "internalType": "address",
          "name": "",
          "type": "address"
        }
      ],
      "name": "bondCalculator",
      "outputs": [
        {
          "internalType": "address",
          "name": "",
          "type": "address"
        }
      ],
      "stateMutability": "view",
      "type": "function"
    },
    {
      "inputs": [
        {
          "internalType": "address",
          "name": "",
          "type": "address"
        }
      ],
      "name": "debtorBalance",
      "outputs": [
        {
          "internalType": "uint256",
          "name": "",
          "type": "uint256"
        }
      ],
      "stateMutability": "view",
      "type": "function"
    },
    {
      "inputs": [
        {
          "internalType": "uint256",
          "name": "_amount",
          "type": "uint256"
        },
        {
          "internalType": "address",
          "name": "_token",
          "type": "address"
        },
        {
          "internalType": "uint256",
          "name": "_orfiAmount",
          "type": "uint256"
        }
      ],
      "name": "deposit",
      "outputs": [],
      "stateMutability": "nonpayable",
      "type": "function"
    },
    {
      "inputs": [
        {
          "internalType": "uint256",
          "name": "_amount",
          "type": "uint256"
        },
        {
          "internalType": "address",
          "name": "_token",
          "type": "address"
        }
      ],
      "name": "incurDebt",
      "outputs": [],
      "stateMutability": "nonpayable",
      "type": "function"
    },
    {
      "inputs": [
        {
          "internalType": "address",
          "name": "_token",
          "type": "address"
        },
        {
          "internalType": "uint256",
          "name": "_amount",
          "type": "uint256"
        }
      ],
      "name": "manage",
      "outputs": [],
      "stateMutability": "nonpayable",
      "type": "function"
    },
    {
      "inputs": [
        {
          "internalType": "uint256",
          "name": "_amount",
          "type": "uint256"
        }
      ],
      "name": "orfiEqValue",
      "outputs": [
        {
          "internalType": "uint256",
          "name": "value_",
          "type": "uint256"
        }
      ],
      "stateMutability": "view",
      "type": "function"
    },
    {
      "inputs": [],
      "name": "owner",
      "outputs": [
        {
          "internalType": "address",
          "name": "",
          "type": "address"
        }
      ],
      "stateMutability": "view",
      "type": "function"
    },
    {
      "inputs": [],
      "name": "renounceOwnership",
      "outputs": [],
      "stateMutability": "nonpayable",
      "type": "function"
    },
    {
      "inputs": [
        {
          "internalType": "uint256",
          "name": "_amount",
          "type": "uint256"
        },
        {
          "internalType": "address",
          "name": "_token",
          "type": "address"
        }
      ],
      "name": "repayDebtWithReserve",
      "outputs": [],
      "stateMutability": "nonpayable",
      "type": "function"
    },
    {
      "inputs": [],
      "name": "sORFI",
      "outputs": [
        {
          "internalType": "address",
          "name": "",
          "type": "address"
        }
      ],
      "stateMutability": "view",
      "type": "function"
    },
    {
      "inputs": [
        {
          "internalType": "address",
          "name": "_sORFI",
          "type": "address"
        }
      ],
      "name": "setStakedORFI",
      "outputs": [],
      "stateMutability": "nonpayable",
      "type": "function"
    },
    {
      "inputs": [
        {
          "internalType": "address",
          "name": "_tavCalculator",
          "type": "address"
        }
      ],
      "name": "setTAVCalculator",
      "outputs": [],
      "stateMutability": "nonpayable",
      "type": "function"
    },
    {
      "inputs": [],
      "name": "tavCalculator",
      "outputs": [
        {
          "internalType": "address",
          "name": "",
          "type": "address"
        }
      ],
      "stateMutability": "view",
      "type": "function"
    },
    {
      "inputs": [],
      "name": "totalORFIMinted",
      "outputs": [
        {
          "internalType": "uint256",
          "name": "",
          "type": "uint256"
        }
      ],
      "stateMutability": "view",
      "type": "function"
    },
    {
      "inputs": [],
      "name": "totalReserves",
      "outputs": [
        {
          "internalType": "uint256",
          "name": "",
          "type": "uint256"
        }
      ],
      "stateMutability": "view",
      "type": "function"
    },
    {
      "inputs": [
        {
          "internalType": "address",
          "name": "newOwner",
          "type": "address"
        }
      ],
      "name": "transferOwnership",
      "outputs": [],
      "stateMutability": "nonpayable",
      "type": "function"
    },
    {
      "inputs": [],
      "name": "treasuryHelper",
      "outputs": [
        {
          "internalType": "address",
          "name": "",
          "type": "address"
        }
      ],
      "stateMutability": "view",
      "type": "function"
    },
    {
      "inputs": [
        {
          "internalType": "address",
          "name": "_token",
          "type": "address"
        },
        {
          "internalType": "uint256",
          "name": "_amount",
          "type": "uint256"
        },
        {
          "internalType": "bool",
          "name": "isReserveToken",
          "type": "bool"
        },
        {
          "internalType": "bool",
          "name": "isLiquidToken",
          "type": "bool"
        }
      ],
      "name": "valueOfToken",
      "outputs": [
        {
          "internalType": "uint256",
          "name": "value_",
          "type": "uint256"
        }
      ],
      "stateMutability": "view",
      "type": "function"
    },
    {
      "inputs": [
        {
          "internalType": "uint256",
          "name": "_amount",
          "type": "uint256"
        },
        {
          "internalType": "address",
          "name": "_token",
          "type": "address"
        }
      ],
      "name": "withdraw",
      "outputs": [],
      "stateMutability": "nonpayable",
      "type": "function"
    }
  ],
  "bytecode": "0x60a06040523480156200001157600080fd5b5060405162003b8238038062003b82833981810160405281019062000037919062000230565b620000576200004b6200014d60201b60201c565b6200015560201b60201c565b600073ffffffffffffffffffffffffffffffffffffffff168273ffffffffffffffffffffffffffffffffffffffff1614156200009257600080fd5b8173ffffffffffffffffffffffffffffffffffffffff1660808173ffffffffffffffffffffffffffffffffffffffff1660601b81525050600073ffffffffffffffffffffffffffffffffffffffff168173ffffffffffffffffffffffffffffffffffffffff1614156200010457600080fd5b80600360006101000a81548173ffffffffffffffffffffffffffffffffffffffff021916908373ffffffffffffffffffffffffffffffffffffffff1602179055505050620002bf565b600033905090565b60008060009054906101000a900473ffffffffffffffffffffffffffffffffffffffff169050816000806101000a81548173ffffffffffffffffffffffffffffffffffffffff021916908373ffffffffffffffffffffffffffffffffffffffff1602179055508173ffffffffffffffffffffffffffffffffffffffff168173ffffffffffffffffffffffffffffffffffffffff167f8be0079c531659141344cd1fd0a4f28419497f9722a3daafe3b4186f6b6457e060405160405180910390a35050565b6000815190506200022a81620002a5565b92915050565b600080604083850312156200024457600080fd5b6000620002548582860162000219565b9250506020620002678582860162000219565b9150509250929050565b60006200027e8262000285565b9050919050565b600073ffffffffffffffffffffffffffffffffffffffff82169050919050565b620002b08162000271565b8114620002bc57600080fd5b50565b60805160601c61388f620002f3600039600081816105c5015281816111c3015281816117860152611ce2015261388f6000f3fe608060405234801561001057600080fd5b50600436106101365760003560e01c806379cdf620116100b8578063d796ffb81161007c578063d796ffb814610315578063de317e6f14610331578063df19aebd1461034f578063f20796231461036d578063f2fde38b1461039d578063fb87b272146103b957610136565b806379cdf6201461026f5780638da5cb5b1461028d5780638f840ddd146102ab578063ae022d57146102c9578063bc157ac1146102f957610136565b80631c30dcdd116100ff5780631c30dcdd146101ef5780631fe8aac51461020b5780634b290d30146102295780636d90e5b814610247578063715018a61461026557610136565b8062f714ce1461013b578063094a8651146101575780630b0eee301461018757806312422d23146101a35780631af4da70146101bf575b600080fd5b61015560048036038101906101509190612c65565b6103d5565b005b610171600480360381019061016c9190612b22565b610735565b60405161017e9190613179565b60405180910390f35b6101a1600480360381019061019c9190612b4b565b61074d565b005b6101bd60048036038101906101b89190612c65565b610b56565b005b6101d960048036038101906101d49190612b22565b611082565b6040516101e69190612f5c565b60405180910390f35b61020960048036038101906102049190612b22565b6110b5565b005b610213611175565b6040516102209190612f5c565b60405180910390f35b61023161119b565b60405161023e9190612f5c565b60405180910390f35b61024f6111c1565b60405161025c9190612f5c565b60405180910390f35b61026d6111e5565b005b61027761126d565b6040516102849190612f5c565b60405180910390f35b610295611293565b6040516102a29190612f5c565b60405180910390f35b6102b36112bc565b6040516102c09190613179565b60405180910390f35b6102e360048036038101906102de9190612c13565b6112c6565b6040516102f09190613179565b60405180910390f35b610313600480360381019061030e9190612ca1565b61139b565b005b61032f600480360381019061032a9190612c65565b611897565b005b610339611c18565b6040516103469190612f5c565b60405180910390f35b610357611c3e565b6040516103649190613179565b60405180910390f35b61038760048036038101906103829190612b87565b611c48565b6040516103949190613179565b60405180910390f35b6103b760048036038101906103b29190612b22565b611eaa565b005b6103d360048036038101906103ce9190612b22565b611fa2565b005b600360009054906101000a900473ffffffffffffffffffffffffffffffffffffffff1673ffffffffffffffffffffffffffffffffffffffff166368c31dd5826040518263ffffffff1660e01b81526004016104309190612f5c565b60206040518083038186803b15801561044857600080fd5b505afa15801561045c573d6000803e3d6000fd5b505050506040513d601f19601f820116820180604052508101906104809190612bea565b6104bf576040517f08c379a00000000000000000000000000000000000000000000000000000000081526004016104b6906130f9565b60405180910390fd5b600360009054906101000a900473ffffffffffffffffffffffffffffffffffffffff1673ffffffffffffffffffffffffffffffffffffffff166387d67dff336040518263ffffffff1660e01b815260040161051a9190612f5c565b60206040518083038186803b15801561053257600080fd5b505afa158015610546573d6000803e3d6000fd5b505050506040513d601f19601f8201168201806040525081019061056a9190612bea565b6105a9576040517f08c379a00000000000000000000000000000000000000000000000000000000081526004016105a090613019565b60405180910390fd5b60006105c16105bc838560016000611c48565b6112c6565b90507f000000000000000000000000000000000000000000000000000000000000000073ffffffffffffffffffffffffffffffffffffffff166379cc679033836040518363ffffffff1660e01b815260040161061e929190612fae565b600060405180830381600087803b15801561063857600080fd5b505af115801561064c573d6000803e3d6000fd5b505050506106658160085461206290919063ffffffff16565b6008819055506106808360075461206290919063ffffffff16565b6007819055506007547f93bb8edd35984706eee1b92541281f7f62d33c01c5b2ec0929a113603bd21d6660405160405180910390a26106e033848473ffffffffffffffffffffffffffffffffffffffff166120789092919063ffffffff16565b8173ffffffffffffffffffffffffffffffffffffffff167fdf273cb619d95419a9cd0ec88123a0538c85064229baa6363788f743fff90deb8483604051610728929190613194565b60405180910390a2505050565b60066020528060005260406000206000915090505481565b6000600360009054906101000a900473ffffffffffffffffffffffffffffffffffffffff1673ffffffffffffffffffffffffffffffffffffffff1663a569e571846040518263ffffffff1660e01b81526004016107aa9190612f5c565b60206040518083038186803b1580156107c257600080fd5b505afa1580156107d6573d6000803e3d6000fd5b505050506040513d601f19601f820116820180604052508101906107fa9190612bea565b90506000600360009054906101000a900473ffffffffffffffffffffffffffffffffffffffff1673ffffffffffffffffffffffffffffffffffffffff166368c31dd5856040518263ffffffff1660e01b81526004016108599190612f5c565b60206040518083038186803b15801561087157600080fd5b505afa158015610885573d6000803e3d6000fd5b505050506040513d601f19601f820116820180604052508101906108a99190612bea565b9050811561099c57600360009054906101000a900473ffffffffffffffffffffffffffffffffffffffff1673ffffffffffffffffffffffffffffffffffffffff1663df89b344336040518263ffffffff1660e01b815260040161090c9190612f5c565b60206040518083038186803b15801561092457600080fd5b505afa158015610938573d6000803e3d6000fd5b505050506040513d601f19601f8201168201806040525081019061095c9190612bea565b61099b576040517f08c379a000000000000000000000000000000000000000000000000000000000815260040161099290613019565b60405180910390fd5b5b8015610a8d57600360009054906101000a900473ffffffffffffffffffffffffffffffffffffffff1673ffffffffffffffffffffffffffffffffffffffff1663ebd83cd8336040518263ffffffff1660e01b81526004016109fd9190612f5c565b60206040518083038186803b158015610a1557600080fd5b505afa158015610a29573d6000803e3d6000fd5b505050506040513d601f19601f82011682018060405250810190610a4d9190612bea565b610a8c576040517f08c379a0000000000000000000000000000000000000000000000000000000008152600401610a8390613019565b60405180910390fd5b5b610aa28360075461206290919063ffffffff16565b6007819055506007547f93bb8edd35984706eee1b92541281f7f62d33c01c5b2ec0929a113603bd21d6660405160405180910390a2610b0233848673ffffffffffffffffffffffffffffffffffffffff166120789092919063ffffffff16565b8373ffffffffffffffffffffffffffffffffffffffff167f2bb2640731848fe9820ba48dbc978c1fc9bbd5f11b948bfab05b7dee3378fd8084604051610b489190613179565b60405180910390a250505050565b600360009054906101000a900473ffffffffffffffffffffffffffffffffffffffff1673ffffffffffffffffffffffffffffffffffffffff1663ee4e19a1336040518263ffffffff1660e01b8152600401610bb19190612f5c565b60206040518083038186803b158015610bc957600080fd5b505afa158015610bdd573d6000803e3d6000fd5b505050506040513d601f19601f82011682018060405250810190610c019190612bea565b610c40576040517f08c379a0000000000000000000000000000000000000000000000000000000008152600401610c3790613019565b60405180910390fd5b600360009054906101000a900473ffffffffffffffffffffffffffffffffffffffff1673ffffffffffffffffffffffffffffffffffffffff166368c31dd5826040518263ffffffff1660e01b8152600401610c9b9190612f5c565b60206040518083038186803b158015610cb357600080fd5b505afa158015610cc7573d6000803e3d6000fd5b505050506040513d601f19601f82011682018060405250810190610ceb9190612bea565b610d2a576040517f08c379a0000000000000000000000000000000000000000000000000000000008152600401610d21906130f9565b60405180910390fd5b6000610d42610d3d838560016000611c48565b6112c6565b90506000600160009054906101000a900473ffffffffffffffffffffffffffffffffffffffff1673ffffffffffffffffffffffffffffffffffffffff166370a08231336040518263ffffffff1660e01b8152600401610da19190612f5c565b60206040518083038186803b158015610db957600080fd5b505afa158015610dcd573d6000803e3d6000fd5b505050506040513d601f19601f82011682018060405250810190610df19190612c3c565b90506000610e47600660003373ffffffffffffffffffffffffffffffffffffffff1673ffffffffffffffffffffffffffffffffffffffff168152602001908152602001600020548361206290919063ffffffff16565b905080831115610e8c576040517f08c379a0000000000000000000000000000000000000000000000000000000008152600401610e8390613159565b60405180910390fd5b610ede83600660003373ffffffffffffffffffffffffffffffffffffffff1673ffffffffffffffffffffffffffffffffffffffff168152602001908152602001600020546120fe90919063ffffffff16565b600660003373ffffffffffffffffffffffffffffffffffffffff1673ffffffffffffffffffffffffffffffffffffffff16815260200190815260200160002081905550610f36836009546120fe90919063ffffffff16565b600981905550610f518560075461206290919063ffffffff16565b6007819055506007547f93bb8edd35984706eee1b92541281f7f62d33c01c5b2ec0929a113603bd21d6660405160405180910390a28373ffffffffffffffffffffffffffffffffffffffff1663a9059cbb33876040518363ffffffff1660e01b8152600401610fc1929190612fae565b602060405180830381600087803b158015610fdb57600080fd5b505af1158015610fef573d6000803e3d6000fd5b505050506040513d601f19601f820116820180604052508101906110139190612bea565b508373ffffffffffffffffffffffffffffffffffffffff163373ffffffffffffffffffffffffffffffffffffffff167f7e1a939bed137a819b5d2979822c67f877689f7a863d5e4cb57cdca97b2977d68786604051611073929190613194565b60405180910390a35050505050565b60056020528060005260406000206000915054906101000a900473ffffffffffffffffffffffffffffffffffffffff1681565b6110bd612114565b73ffffffffffffffffffffffffffffffffffffffff166110db611293565b73ffffffffffffffffffffffffffffffffffffffff1614611131576040517f08c379a0000000000000000000000000000000000000000000000000000000008152600401611128906130b9565b60405180910390fd5b80600160006101000a81548173ffffffffffffffffffffffffffffffffffffffff021916908373ffffffffffffffffffffffffffffffffffffffff16021790555050565b600460009054906101000a900473ffffffffffffffffffffffffffffffffffffffff1681565b600160009054906101000a900473ffffffffffffffffffffffffffffffffffffffff1681565b7f000000000000000000000000000000000000000000000000000000000000000081565b6111ed612114565b73ffffffffffffffffffffffffffffffffffffffff1661120b611293565b73ffffffffffffffffffffffffffffffffffffffff1614611261576040517f08c379a0000000000000000000000000000000000000000000000000000000008152600401611258906130b9565b60405180910390fd5b61126b600061211c565b565b600260009054906101000a900473ffffffffffffffffffffffffffffffffffffffff1681565b60008060009054906101000a900473ffffffffffffffffffffffffffffffffffffffff16905090565b6000600754905090565b60008061137f633b9aca00600260009054906101000a900473ffffffffffffffffffffffffffffffffffffffff1673ffffffffffffffffffffffffffffffffffffffff1663ac3b992a6040518163ffffffff1660e01b815260040160206040518083038186803b15801561133957600080fd5b505afa15801561134d573d6000803e3d6000fd5b505050506040513d601f19601f820116820180604052508101906113719190612c3c565b6121e090919063ffffffff16565b905061139361138e84836121f6565b6123fd565b915050919050565b6000600360009054906101000a900473ffffffffffffffffffffffffffffffffffffffff1673ffffffffffffffffffffffffffffffffffffffff166368c31dd5846040518263ffffffff1660e01b81526004016113f89190612f5c565b60206040518083038186803b15801561141057600080fd5b505afa158015611424573d6000803e3d6000fd5b505050506040513d601f19601f820116820180604052508101906114489190612bea565b90506000600360009054906101000a900473ffffffffffffffffffffffffffffffffffffffff1673ffffffffffffffffffffffffffffffffffffffff1663a569e571856040518263ffffffff1660e01b81526004016114a79190612f5c565b60206040518083038186803b1580156114bf57600080fd5b505afa1580156114d3573d6000803e3d6000fd5b505050506040513d601f19601f820116820180604052508101906114f79190612bea565b905081806115025750805b611541576040517f08c379a0000000000000000000000000000000000000000000000000000000008152600401611538906130f9565b60405180910390fd5b611556856007546120fe90919063ffffffff16565b6007819055506115893330878773ffffffffffffffffffffffffffffffffffffffff1661243b909392919063ffffffff16565b811561167e57600360009054906101000a900473ffffffffffffffffffffffffffffffffffffffff1673ffffffffffffffffffffffffffffffffffffffff1663124154ca336040518263ffffffff1660e01b81526004016115ea9190612f5c565b60206040518083038186803b15801561160257600080fd5b505afa158015611616573d6000803e3d6000fd5b505050506040513d601f19601f8201168201806040525081019061163a9190612bea565b611679576040517f08c379a000000000000000000000000000000000000000000000000000000000815260040161167090613079565b60405180910390fd5b611769565b600360009054906101000a900473ffffffffffffffffffffffffffffffffffffffff1673ffffffffffffffffffffffffffffffffffffffff1663a1210a2d336040518263ffffffff1660e01b81526004016116d99190612f5c565b60206040518083038186803b1580156116f157600080fd5b505afa158015611705573d6000803e3d6000fd5b505050506040513d601f19601f820116820180604052508101906117299190612bea565b611768576040517f08c379a000000000000000000000000000000000000000000000000000000000815260040161175f90613079565b60405180910390fd5b5b61177e836008546120fe90919063ffffffff16565b6008819055507f000000000000000000000000000000000000000000000000000000000000000073ffffffffffffffffffffffffffffffffffffffff166340c10f1933856040518363ffffffff1660e01b81526004016117df929190612fae565b600060405180830381600087803b1580156117f957600080fd5b505af115801561180d573d6000803e3d6000fd5b505050506007547f93bb8edd35984706eee1b92541281f7f62d33c01c5b2ec0929a113603bd21d6660405160405180910390a28373ffffffffffffffffffffffffffffffffffffffff167f90890809c654f11d6e72a28fa60149770a0d11ec6c92319d6ceb2bb0a4ea1a158685604051611888929190613194565b60405180910390a25050505050565b600360009054906101000a900473ffffffffffffffffffffffffffffffffffffffff1673ffffffffffffffffffffffffffffffffffffffff1663ee4e19a1336040518263ffffffff1660e01b81526004016118f29190612f5c565b60206040518083038186803b15801561190a57600080fd5b505afa15801561191e573d6000803e3d6000fd5b505050506040513d601f19601f820116820180604052508101906119429190612bea565b611981576040517f08c379a000000000000000000000000000000000000000000000000000000000815260040161197890613019565b60405180910390fd5b600360009054906101000a900473ffffffffffffffffffffffffffffffffffffffff1673ffffffffffffffffffffffffffffffffffffffff166368c31dd5826040518263ffffffff1660e01b81526004016119dc9190612f5c565b60206040518083038186803b1580156119f457600080fd5b505afa158015611a08573d6000803e3d6000fd5b505050506040513d601f19601f82011682018060405250810190611a2c9190612bea565b611a6b576040517f08c379a0000000000000000000000000000000000000000000000000000000008152600401611a62906130f9565b60405180910390fd5b611a80826007546120fe90919063ffffffff16565b600781905550611ab33330848473ffffffffffffffffffffffffffffffffffffffff1661243b909392919063ffffffff16565b6000611acb611ac6838560016000611c48565b6112c6565b9050611b1f81600660003373ffffffffffffffffffffffffffffffffffffffff1673ffffffffffffffffffffffffffffffffffffffff1681526020019081526020016000205461206290919063ffffffff16565b600660003373ffffffffffffffffffffffffffffffffffffffff1673ffffffffffffffffffffffffffffffffffffffff16815260200190815260200160002081905550611b778160095461206290919063ffffffff16565b6009819055506007547f93bb8edd35984706eee1b92541281f7f62d33c01c5b2ec0929a113603bd21d6660405160405180910390a28173ffffffffffffffffffffffffffffffffffffffff163373ffffffffffffffffffffffffffffffffffffffff167fc6d98eecfc9c78ab62c89a82950079b54874749f1f6f24090f7acc758bc2f3098584604051611c0b929190613194565b60405180910390a3505050565b600360009054906101000a900473ffffffffffffffffffffffffffffffffffffffff1681565b6000600854905090565b60008215611dae57611da78573ffffffffffffffffffffffffffffffffffffffff1663313ce5676040518163ffffffff1660e01b815260040160206040518083038186803b158015611c9957600080fd5b505afa158015611cad573d6000803e3d6000fd5b505050506040513d601f19601f82011682018060405250810190611cd19190612cf0565b600a611cdd91906132c9565b611d997f000000000000000000000000000000000000000000000000000000000000000073ffffffffffffffffffffffffffffffffffffffff1663313ce5676040518163ffffffff1660e01b815260040160206040518083038186803b158015611d4657600080fd5b505afa158015611d5a573d6000803e3d6000fd5b505050506040513d601f19601f82011682018060405250810190611d7e9190612cf0565b600a611d8a91906132c9565b876121e090919063ffffffff16565b6124c490919063ffffffff16565b9050611ea2565b8115611ea157600560008673ffffffffffffffffffffffffffffffffffffffff1673ffffffffffffffffffffffffffffffffffffffff16815260200190815260200160002060009054906101000a900473ffffffffffffffffffffffffffffffffffffffff1673ffffffffffffffffffffffffffffffffffffffff16634249719f86866040518363ffffffff1660e01b8152600401611e4e929190612fae565b60206040518083038186803b158015611e6657600080fd5b505afa158015611e7a573d6000803e3d6000fd5b505050506040513d601f19601f82011682018060405250810190611e9e9190612c3c565b90505b5b949350505050565b611eb2612114565b73ffffffffffffffffffffffffffffffffffffffff16611ed0611293565b73ffffffffffffffffffffffffffffffffffffffff1614611f26576040517f08c379a0000000000000000000000000000000000000000000000000000000008152600401611f1d906130b9565b60405180910390fd5b600073ffffffffffffffffffffffffffffffffffffffff168173ffffffffffffffffffffffffffffffffffffffff161415611f96576040517f08c379a0000000000000000000000000000000000000000000000000000000008152600401611f8d90612ff9565b60405180910390fd5b611f9f8161211c565b50565b611faa612114565b73ffffffffffffffffffffffffffffffffffffffff16611fc8611293565b73ffffffffffffffffffffffffffffffffffffffff161461201e576040517f08c379a0000000000000000000000000000000000000000000000000000000008152600401612015906130b9565b60405180910390fd5b80600260006101000a81548173ffffffffffffffffffffffffffffffffffffffff021916908373ffffffffffffffffffffffffffffffffffffffff16021790555050565b600081836120709190613441565b905092915050565b6120f98363a9059cbb60e01b8484604051602401612097929190612fae565b604051602081830303815290604052907bffffffffffffffffffffffffffffffffffffffffffffffffffffffff19166020820180517bffffffffffffffffffffffffffffffffffffffffffffffffffffffff83818316178352505050506124da565b505050565b6000818361210c91906131ef565b905092915050565b600033905090565b60008060009054906101000a900473ffffffffffffffffffffffffffffffffffffffff169050816000806101000a81548173ffffffffffffffffffffffffffffffffffffffff021916908373ffffffffffffffffffffffffffffffffffffffff1602179055508173ffffffffffffffffffffffffffffffffffffffff168173ffffffffffffffffffffffffffffffffffffffff167f8be0079c531659141344cd1fd0a4f28419497f9722a3daafe3b4186f6b6457e060405160405180910390a35050565b600081836121ee91906133e7565b905092915050565b6121fe612a73565b60008211612241576040517f08c379a000000000000000000000000000000000000000000000000000000000815260040161223890613059565b60405180910390fd5b600083141561227f57604051806020016040528060007bffffffffffffffffffffffffffffffffffffffffffffffffffffffff1681525090506123f7565b71ffffffffffffffffffffffffffffffffffff8016831161234757600082607060ff1685901b6122af9190613245565b90507bffffffffffffffffffffffffffffffffffffffffffffffffffffffff8016811115612312576040517f08c379a0000000000000000000000000000000000000000000000000000000008152600401612309906130d9565b60405180910390fd5b6040518060200160405280827bffffffffffffffffffffffffffffffffffffffffffffffffffffffff168152509150506123f7565b6000612363846e010000000000000000000000000000856125a1565b90507bffffffffffffffffffffffffffffffffffffffffffffffffffffffff80168111156123c6576040517f08c379a00000000000000000000000000000000000000000000000000000000081526004016123bd906130d9565b60405180910390fd5b6040518060200160405280827bffffffffffffffffffffffffffffffffffffffffffffffffffffffff168152509150505b92915050565b60006612725dd1d243ab82600001517bffffffffffffffffffffffffffffffffffffffffffffffffffffffff166124349190613245565b9050919050565b6124be846323b872dd60e01b85858560405160240161245c93929190612f77565b604051602081830303815290604052907bffffffffffffffffffffffffffffffffffffffffffffffffffffffff19166020820180517bffffffffffffffffffffffffffffffffffffffffffffffffffffffff83818316178352505050506124da565b50505050565b600081836124d29190613245565b905092915050565b600061253c826040518060400160405280602081526020017f5361666545524332303a206c6f772d6c6576656c2063616c6c206661696c65648152508573ffffffffffffffffffffffffffffffffffffffff1661266f9092919063ffffffff16565b905060008151111561259c578080602001905181019061255c9190612bea565b61259b576040517f08c379a000000000000000000000000000000000000000000000000000000000815260040161259290613139565b60405180910390fd5b5b505050565b60008060006125b08686612687565b91509150600084806125eb577f4e487b7100000000000000000000000000000000000000000000000000000000600052601260045260246000fd5b868809905082811115612608576001826126059190613441565b91505b80836126149190613441565b9250848210612658576040517f08c379a000000000000000000000000000000000000000000000000000000000815260040161264f90613099565b60405180910390fd5b612663838387612722565b93505050509392505050565b606061267e84846000856128d5565b90509392505050565b60008060007fffffffffffffffffffffffffffffffffffffffffffffffffffffffffffffffff806126e1577f4e487b7100000000000000000000000000000000000000000000000000000000600052601260045260246000fd5b848609905083856126f291906133e7565b925082816127009190613441565b91508281101561271a576001826127179190613441565b91505b509250929050565b6000806001831961273391906131ef565b8316905080836127439190613245565b925080856127519190613245565b94506001816001831961276491906131ef565b61276e9190613245565b61277891906131ef565b8461278391906133e7565b8561278e91906131ef565b945060006001905080846127a291906133e7565b60026127ae9190613441565b816127b991906133e7565b905080846127c791906133e7565b60026127d39190613441565b816127de91906133e7565b905080846127ec91906133e7565b60026127f89190613441565b8161280391906133e7565b9050808461281191906133e7565b600261281d9190613441565b8161282891906133e7565b9050808461283691906133e7565b60026128429190613441565b8161284d91906133e7565b9050808461285b91906133e7565b60026128679190613441565b8161287291906133e7565b9050808461288091906133e7565b600261288c9190613441565b8161289791906133e7565b905080846128a591906133e7565b60026128b19190613441565b816128bc91906133e7565b905080866128ca91906133e7565b925050509392505050565b60608247101561291a576040517f08c379a000000000000000000000000000000000000000000000000000000000815260040161291190613039565b60405180910390fd5b612923856129e9565b612962576040517f08c379a000000000000000000000000000000000000000000000000000000000815260040161295990613119565b60405180910390fd5b6000808673ffffffffffffffffffffffffffffffffffffffff16858760405161298b9190612f45565b60006040518083038185875af1925050503d80600081146129c8576040519150601f19603f3d011682016040523d82523d6000602084013e6129cd565b606091505b50915091506129dd828286612a0c565b92505050949350505050565b6000808273ffffffffffffffffffffffffffffffffffffffff163b119050919050565b60608315612a1c57829050612a6c565b600083511115612a2f5782518084602001fd5b816040517f08c379a0000000000000000000000000000000000000000000000000000000008152600401612a639190612fd7565b60405180910390fd5b9392505050565b604051806020016040528060007bffffffffffffffffffffffffffffffffffffffffffffffffffffffff1681525090565b600081359050612ab3816137fd565b92915050565b600081359050612ac881613814565b92915050565b600081519050612add81613814565b92915050565b600081359050612af28161382b565b92915050565b600081519050612b078161382b565b92915050565b600081519050612b1c81613842565b92915050565b600060208284031215612b3457600080fd5b6000612b4284828501612aa4565b91505092915050565b60008060408385031215612b5e57600080fd5b6000612b6c85828601612aa4565b9250506020612b7d85828601612ae3565b9150509250929050565b60008060008060808587031215612b9d57600080fd5b6000612bab87828801612aa4565b9450506020612bbc87828801612ae3565b9350506040612bcd87828801612ab9565b9250506060612bde87828801612ab9565b91505092959194509250565b600060208284031215612bfc57600080fd5b6000612c0a84828501612ace565b91505092915050565b600060208284031215612c2557600080fd5b6000612c3384828501612ae3565b91505092915050565b600060208284031215612c4e57600080fd5b6000612c5c84828501612af8565b91505092915050565b60008060408385031215612c7857600080fd5b6000612c8685828601612ae3565b9250506020612c9785828601612aa4565b9150509250929050565b600080600060608486031215612cb657600080fd5b6000612cc486828701612ae3565b9350506020612cd586828701612aa4565b9250506040612ce686828701612ae3565b9150509250925092565b600060208284031215612d0257600080fd5b6000612d1084828501612b0d565b91505092915050565b612d2281613475565b82525050565b6000612d33826131bd565b612d3d81856131d3565b9350612d4d8185602086016134ca565b80840191505092915050565b6000612d64826131c8565b612d6e81856131de565b9350612d7e8185602086016134ca565b612d878161355b565b840191505092915050565b6000612d9f6026836131de565b9150612daa82613579565b604082019050919050565b6000612dc26009836131de565b9150612dcd826135c8565b602082019050919050565b6000612de56026836131de565b9150612df0826135f1565b604082019050919050565b6000612e086026836131de565b9150612e1382613640565b604082019050919050565b6000612e2b6009836131de565b9150612e368261368f565b602082019050919050565b6000612e4e601a836131de565b9150612e59826136b8565b602082019050919050565b6000612e716020836131de565b9150612e7c826136e1565b602082019050919050565b6000612e94601e836131de565b9150612e9f8261370a565b602082019050919050565b6000612eb76002836131de565b9150612ec282613733565b602082019050919050565b6000612eda601d836131de565b9150612ee58261375c565b602082019050919050565b6000612efd602a836131de565b9150612f0882613785565b604082019050919050565b6000612f206012836131de565b9150612f2b826137d4565b602082019050919050565b612f3f816134b3565b82525050565b6000612f518284612d28565b915081905092915050565b6000602082019050612f716000830184612d19565b92915050565b6000606082019050612f8c6000830186612d19565b612f996020830185612d19565b612fa66040830184612f36565b949350505050565b6000604082019050612fc36000830185612d19565b612fd06020830184612f36565b9392505050565b60006020820190508181036000830152612ff18184612d59565b905092915050565b6000602082019050818103600083015261301281612d92565b9050919050565b6000602082019050818103600083015261303281612db5565b9050919050565b6000602082019050818103600083015261305281612dd8565b9050919050565b6000602082019050818103600083015261307281612dfb565b9050919050565b6000602082019050818103600083015261309281612e1e565b9050919050565b600060208201905081810360008301526130b281612e41565b9050919050565b600060208201905081810360008301526130d281612e64565b9050919050565b600060208201905081810360008301526130f281612e87565b9050919050565b6000602082019050818103600083015261311281612eaa565b9050919050565b6000602082019050818103600083015261313281612ecd565b9050919050565b6000602082019050818103600083015261315281612ef0565b9050919050565b6000602082019050818103600083015261317281612f13565b9050919050565b600060208201905061318e6000830184612f36565b92915050565b60006040820190506131a96000830185612f36565b6131b66020830184612f36565b9392505050565b600081519050919050565b600081519050919050565b600081905092915050565b600082825260208201905092915050565b60006131fa826134b3565b9150613205836134b3565b9250827fffffffffffffffffffffffffffffffffffffffffffffffffffffffffffffffff0382111561323a576132396134fd565b5b828201905092915050565b6000613250826134b3565b915061325b836134b3565b92508261326b5761326a61352c565b5b828204905092915050565b6000808291508390505b60018511156132c05780860481111561329c5761329b6134fd565b5b60018516156132ab5780820291505b80810290506132b98561356c565b9450613280565b94509492505050565b60006132d4826134b3565b91506132df836134bd565b925061330c7fffffffffffffffffffffffffffffffffffffffffffffffffffffffffffffffff8484613314565b905092915050565b60008261332457600190506133e0565b8161333257600090506133e0565b8160018114613348576002811461335257613381565b60019150506133e0565b60ff841115613364576133636134fd565b5b8360020a91508482111561337b5761337a6134fd565b5b506133e0565b5060208310610133831016604e8410600b84101617156133b65782820a9050838111156133b1576133b06134fd565b5b6133e0565b6133c38484846001613276565b925090508184048111156133da576133d96134fd565b5b81810290505b9392505050565b60006133f2826134b3565b91506133fd836134b3565b9250817fffffffffffffffffffffffffffffffffffffffffffffffffffffffffffffffff0483118215151615613436576134356134fd565b5b828202905092915050565b600061344c826134b3565b9150613457836134b3565b92508282101561346a576134696134fd565b5b828203905092915050565b600061348082613493565b9050919050565b60008115159050919050565b600073ffffffffffffffffffffffffffffffffffffffff82169050919050565b6000819050919050565b600060ff82169050919050565b60005b838110156134e85780820151818401526020810190506134cd565b838111156134f7576000848401525b50505050565b7f4e487b7100000000000000000000000000000000000000000000000000000000600052601160045260246000fd5b7f4e487b7100000000000000000000000000000000000000000000000000000000600052601260045260246000fd5b6000601f19601f8301169050919050565b60008160011c9050919050565b7f4f776e61626c653a206e6577206f776e657220697320746865207a65726f206160008201527f6464726573730000000000000000000000000000000000000000000000000000602082015250565b7f4e417070726f7665640000000000000000000000000000000000000000000000600082015250565b7f416464726573733a20696e73756666696369656e742062616c616e636520666f60008201527f722063616c6c0000000000000000000000000000000000000000000000000000602082015250565b7f4669786564506f696e743a3a6672616374696f6e3a206469766973696f6e206260008201527f79207a65726f0000000000000000000000000000000000000000000000000000602082015250565b7f4e415050524f5645440000000000000000000000000000000000000000000000600082015250565b7f46756c6c4d6174683a3a6d756c4469763a206f766572666c6f77000000000000600082015250565b7f4f776e61626c653a2063616c6c6572206973206e6f7420746865206f776e6572600082015250565b7f4669786564506f696e743a3a6672616374696f6e3a206f766572666c6f770000600082015250565b7f4e41000000000000000000000000000000000000000000000000000000000000600082015250565b7f416464726573733a2063616c6c20746f206e6f6e2d636f6e7472616374000000600082015250565b7f5361666545524332303a204552433230206f7065726174696f6e20646964206e60008201527f6f74207375636365656400000000000000000000000000000000000000000000602082015250565b7f457863656564732064656274206c696d69740000000000000000000000000000600082015250565b61380681613475565b811461381157600080fd5b50565b61381d81613487565b811461382857600080fd5b50565b613834816134b3565b811461383f57600080fd5b50565b61384b816134bd565b811461385657600080fd5b5056fea26469706673582212207aec0ab3a7fe52414bddb2dd1ac6fa654118e4f00fb7f03b6f7892274d59339d64736f6c63430008040033",
  "linkReferences": {},
  "deployedLinkReferences": {}
}