{
  "_format": "hh-sol-artifact-1",
  "contractName": "Treasury",
  "sourceName": "contracts/Treasury.sol",
  "abi": [
    {
      "inputs": [
        {
          "internalType": "address",
          "name": "_ORCL",
          "type": "address"
        },
        {
          "internalType": "address",
          "name": "_treasuryHelper",
          "type": "address"
        }
      ],
      "stateMutability": "nonpayable",
      "type": "constructor"
    },
    {
      "anonymous": false,
      "inputs": [
        {
          "indexed": true,
          "internalType": "address",
          "name": "debtor",
          "type": "address"
        },
        {
          "indexed": true,
          "internalType": "address",
          "name": "token",
          "type": "address"
        },
        {
          "indexed": false,
          "internalType": "uint256",
          "name": "amount",
          "type": "uint256"
        },
        {
          "indexed": false,
          "internalType": "uint256",
          "name": "value",
          "type": "uint256"
        }
      ],
      "name": "CreateDebt",
      "type": "event"
    },
    {
      "anonymous": false,
      "inputs": [
        {
          "indexed": true,
          "internalType": "address",
          "name": "token",
          "type": "address"
        },
        {
          "indexed": false,
          "internalType": "uint256",
          "name": "amount",
          "type": "uint256"
        },
        {
          "indexed": false,
          "internalType": "uint256",
          "name": "orclMinted",
          "type": "uint256"
        }
      ],
      "name": "Deposit",
      "type": "event"
    },
    {
      "anonymous": false,
      "inputs": [
        {
          "indexed": true,
          "internalType": "address",
          "name": "previousOwner",
          "type": "address"
        },
        {
          "indexed": true,
          "internalType": "address",
          "name": "newOwner",
          "type": "address"
        }
      ],
      "name": "OwnershipTransferred",
      "type": "event"
    },
    {
      "anonymous": false,
      "inputs": [
        {
          "indexed": true,
          "internalType": "address",
          "name": "debtor",
          "type": "address"
        },
        {
          "indexed": true,
          "internalType": "address",
          "name": "token",
          "type": "address"
        },
        {
          "indexed": false,
          "internalType": "uint256",
          "name": "amount",
          "type": "uint256"
        },
        {
          "indexed": false,
          "internalType": "uint256",
          "name": "value",
          "type": "uint256"
        }
      ],
      "name": "RepayDebt",
      "type": "event"
    },
    {
      "anonymous": false,
      "inputs": [
        {
          "indexed": true,
          "internalType": "address",
          "name": "token",
          "type": "address"
        },
        {
          "indexed": false,
          "internalType": "uint256",
          "name": "amount",
          "type": "uint256"
        }
      ],
      "name": "ReservesManaged",
      "type": "event"
    },
    {
      "anonymous": false,
      "inputs": [
        {
          "indexed": true,
          "internalType": "uint256",
          "name": "totalReserves",
          "type": "uint256"
        }
      ],
      "name": "ReservesUpdated",
      "type": "event"
    },
    {
      "anonymous": false,
      "inputs": [
        {
          "indexed": true,
          "internalType": "address",
          "name": "token",
          "type": "address"
        },
        {
          "indexed": false,
          "internalType": "uint256",
          "name": "amount",
          "type": "uint256"
        },
        {
          "indexed": false,
          "internalType": "uint256",
          "name": "orclBurned",
          "type": "uint256"
        }
      ],
      "name": "Withdrawal",
      "type": "event"
    },
    {
      "inputs": [],
      "name": "ORCL",
      "outputs": [
        {
          "internalType": "address",
          "name": "",
          "type": "address"
        }
      ],
      "stateMutability": "view",
      "type": "function"
    },
    {
      "inputs": [],
      "name": "auditOwner",
      "outputs": [
        {
          "internalType": "address",
          "name": "",
          "type": "address"
        }
      ],
      "stateMutability": "view",
      "type": "function"
    },
    {
      "inputs": [
        {
          "internalType": "address",
          "name": "",
          "type": "address"
        }
      ],
      "name": "bondCalculator",
      "outputs": [
        {
          "internalType": "address",
          "name": "",
          "type": "address"
        }
      ],
      "stateMutability": "view",
      "type": "function"
    },
    {
      "inputs": [
        {
          "internalType": "address",
          "name": "",
          "type": "address"
        }
      ],
      "name": "debtorBalance",
      "outputs": [
        {
          "internalType": "uint256",
          "name": "",
          "type": "uint256"
        }
      ],
      "stateMutability": "view",
      "type": "function"
    },
    {
      "inputs": [
        {
          "internalType": "uint256",
          "name": "_amount",
          "type": "uint256"
        },
        {
          "internalType": "address",
          "name": "_token",
          "type": "address"
        },
        {
          "internalType": "uint256",
          "name": "_orclAmount",
          "type": "uint256"
        }
      ],
      "name": "deposit",
      "outputs": [],
      "stateMutability": "nonpayable",
      "type": "function"
    },
    {
      "inputs": [
        {
          "internalType": "uint256",
          "name": "_amount",
          "type": "uint256"
        },
        {
          "internalType": "address",
          "name": "_token",
          "type": "address"
        }
      ],
      "name": "incurDebt",
      "outputs": [],
      "stateMutability": "nonpayable",
      "type": "function"
    },
    {
      "inputs": [
        {
          "internalType": "address",
          "name": "_token",
          "type": "address"
        },
        {
          "internalType": "uint256",
          "name": "_amount",
          "type": "uint256"
        }
      ],
      "name": "manage",
      "outputs": [],
      "stateMutability": "nonpayable",
      "type": "function"
    },
    {
      "inputs": [
        {
          "internalType": "uint256",
          "name": "_amount",
          "type": "uint256"
        }
      ],
      "name": "orclEqValue",
      "outputs": [
        {
          "internalType": "uint256",
          "name": "value_",
          "type": "uint256"
        }
      ],
      "stateMutability": "nonpayable",
      "type": "function"
    },
    {
      "inputs": [],
      "name": "owner",
      "outputs": [
        {
          "internalType": "address",
          "name": "",
          "type": "address"
        }
      ],
      "stateMutability": "view",
      "type": "function"
    },
    {
      "inputs": [],
      "name": "renounceOwnership",
      "outputs": [],
      "stateMutability": "nonpayable",
      "type": "function"
    },
    {
      "inputs": [
        {
          "internalType": "uint256",
          "name": "_amount",
          "type": "uint256"
        },
        {
          "internalType": "address",
          "name": "_token",
          "type": "address"
        }
      ],
      "name": "repayDebtWithReserve",
      "outputs": [],
      "stateMutability": "nonpayable",
      "type": "function"
    },
    {
      "inputs": [],
      "name": "sORCL",
      "outputs": [
        {
          "internalType": "address",
          "name": "",
          "type": "address"
        }
      ],
      "stateMutability": "view",
      "type": "function"
    },
    {
      "inputs": [
        {
          "internalType": "address",
          "name": "_sORCL",
          "type": "address"
        }
      ],
      "name": "setStakedORCL",
      "outputs": [],
      "stateMutability": "nonpayable",
      "type": "function"
    },
    {
      "inputs": [
        {
          "internalType": "address",
          "name": "_tavCalculator",
          "type": "address"
        }
      ],
      "name": "setTAVCalculator",
      "outputs": [],
      "stateMutability": "nonpayable",
      "type": "function"
    },
    {
      "inputs": [],
      "name": "tavCalculator",
      "outputs": [
        {
          "internalType": "address",
          "name": "",
          "type": "address"
        }
      ],
      "stateMutability": "view",
      "type": "function"
    },
    {
      "inputs": [],
      "name": "totalORCLMinted",
      "outputs": [
        {
          "internalType": "uint256",
          "name": "",
          "type": "uint256"
        }
      ],
      "stateMutability": "view",
      "type": "function"
    },
    {
      "inputs": [],
      "name": "totalReserves",
      "outputs": [
        {
          "internalType": "uint256",
          "name": "",
          "type": "uint256"
        }
      ],
      "stateMutability": "view",
      "type": "function"
    },
    {
      "inputs": [
        {
          "internalType": "address",
          "name": "newOwner",
          "type": "address"
        }
      ],
      "name": "transferOwnership",
      "outputs": [],
      "stateMutability": "nonpayable",
      "type": "function"
    },
    {
      "inputs": [],
      "name": "treasuryHelper",
      "outputs": [
        {
          "internalType": "address",
          "name": "",
          "type": "address"
        }
      ],
      "stateMutability": "view",
      "type": "function"
    },
    {
      "inputs": [
        {
          "internalType": "address",
          "name": "_token",
          "type": "address"
        },
        {
          "internalType": "uint256",
          "name": "_amount",
          "type": "uint256"
        },
        {
          "internalType": "bool",
          "name": "isReserveToken",
          "type": "bool"
        },
        {
          "internalType": "bool",
          "name": "isLiquidToken",
          "type": "bool"
        }
      ],
      "name": "valueOfToken",
      "outputs": [
        {
          "internalType": "uint256",
          "name": "value_",
          "type": "uint256"
        }
      ],
      "stateMutability": "view",
      "type": "function"
    },
    {
      "inputs": [
        {
          "internalType": "uint256",
          "name": "_amount",
          "type": "uint256"
        },
        {
          "internalType": "address",
          "name": "_token",
          "type": "address"
        }
      ],
      "name": "withdraw",
      "outputs": [],
      "stateMutability": "nonpayable",
      "type": "function"
    }
  ],
  "bytecode": "0x60a06040523480156200001157600080fd5b5060405162003ad038038062003ad0833981810160405281019062000037919062000230565b620000576200004b6200014d60201b60201c565b6200015560201b60201c565b600073ffffffffffffffffffffffffffffffffffffffff168273ffffffffffffffffffffffffffffffffffffffff1614156200009257600080fd5b8173ffffffffffffffffffffffffffffffffffffffff1660808173ffffffffffffffffffffffffffffffffffffffff1660601b81525050600073ffffffffffffffffffffffffffffffffffffffff168173ffffffffffffffffffffffffffffffffffffffff1614156200010457600080fd5b80600360006101000a81548173ffffffffffffffffffffffffffffffffffffffff021916908373ffffffffffffffffffffffffffffffffffffffff1602179055505050620002bf565b600033905090565b60008060009054906101000a900473ffffffffffffffffffffffffffffffffffffffff169050816000806101000a81548173ffffffffffffffffffffffffffffffffffffffff021916908373ffffffffffffffffffffffffffffffffffffffff1602179055508173ffffffffffffffffffffffffffffffffffffffff168173ffffffffffffffffffffffffffffffffffffffff167f8be0079c531659141344cd1fd0a4f28419497f9722a3daafe3b4186f6b6457e060405160405180910390a35050565b6000815190506200022a81620002a5565b92915050565b600080604083850312156200024457600080fd5b6000620002548582860162000219565b9250506020620002678582860162000219565b9150509250929050565b60006200027e8262000285565b9050919050565b600073ffffffffffffffffffffffffffffffffffffffff82169050919050565b620002b08162000271565b8114620002bc57600080fd5b50565b60805160601c6137dd620002f3600039600081816105c50152818161102b015281816116090152611c3001526137dd6000f3fe608060405234801561001057600080fd5b50600436106101365760003560e01c806379cdf620116100b8578063d62199b31161007c578063d62199b314610303578063d796ffb814610333578063de317e6f1461034f578063f20796231461036d578063f2fde38b1461039d578063fb87b272146103b957610136565b806379cdf620146102715780638da5cb5b1461028f5780638f840ddd146102ad578063b3a1ad01146102cb578063bc157ac1146102e757610136565b80631fe8aac5116100ff5780631fe8aac5146101ef57806333483ffd1461020d578063354b1b7f1461022b57806361e39a2814610249578063715018a61461026757610136565b8062f714ce1461013b578063094a8651146101575780630b0eee301461018757806312422d23146101a35780631af4da70146101bf575b600080fd5b61015560048036038101906101509190612bb3565b6103d5565b005b610171600480360381019061016c9190612a70565b610735565b60405161017e91906130c7565b60405180910390f35b6101a1600480360381019061019c9190612a99565b61074d565b005b6101bd60048036038101906101b89190612bb3565b610aa4565b005b6101d960048036038101906101d49190612a70565b610fd0565b6040516101e69190612eaa565b60405180910390f35b6101f7611003565b6040516102049190612eaa565b60405180910390f35b610215611029565b6040516102229190612eaa565b60405180910390f35b61023361104d565b60405161024091906130c7565b60405180910390f35b610251611057565b60405161025e9190612eaa565b60405180910390f35b61026f61107d565b005b610279611105565b6040516102869190612eaa565b60405180910390f35b61029761112b565b6040516102a49190612eaa565b60405180910390f35b6102b5611154565b6040516102c291906130c7565b60405180910390f35b6102e560048036038101906102e09190612a70565b61115e565b005b61030160048036038101906102fc9190612bef565b61121e565b005b61031d60048036038101906103189190612b61565b61171a565b60405161032a91906130c7565b60405180910390f35b61034d60048036038101906103489190612bb3565b6117ef565b005b610357611b70565b6040516103649190612eaa565b60405180910390f35b61038760048036038101906103829190612ad5565b611b96565b60405161039491906130c7565b60405180910390f35b6103b760048036038101906103b29190612a70565b611df8565b005b6103d360048036038101906103ce9190612a70565b611ef0565b005b600360009054906101000a900473ffffffffffffffffffffffffffffffffffffffff1673ffffffffffffffffffffffffffffffffffffffff166368c31dd5826040518263ffffffff1660e01b81526004016104309190612eaa565b60206040518083038186803b15801561044857600080fd5b505afa15801561045c573d6000803e3d6000fd5b505050506040513d601f19601f820116820180604052508101906104809190612b38565b6104bf576040517f08c379a00000000000000000000000000000000000000000000000000000000081526004016104b690613047565b60405180910390fd5b600360009054906101000a900473ffffffffffffffffffffffffffffffffffffffff1673ffffffffffffffffffffffffffffffffffffffff166387d67dff336040518263ffffffff1660e01b815260040161051a9190612eaa565b60206040518083038186803b15801561053257600080fd5b505afa158015610546573d6000803e3d6000fd5b505050506040513d601f19601f8201168201806040525081019061056a9190612b38565b6105a9576040517f08c379a00000000000000000000000000000000000000000000000000000000081526004016105a090612f67565b60405180910390fd5b60006105c16105bc838560016000611b96565b61171a565b90507f000000000000000000000000000000000000000000000000000000000000000073ffffffffffffffffffffffffffffffffffffffff166379cc679033836040518363ffffffff1660e01b815260040161061e929190612efc565b600060405180830381600087803b15801561063857600080fd5b505af115801561064c573d6000803e3d6000fd5b5050505061066581600854611fb090919063ffffffff16565b60088190555061068083600754611fb090919063ffffffff16565b6007819055506007547f93bb8edd35984706eee1b92541281f7f62d33c01c5b2ec0929a113603bd21d6660405160405180910390a26106e033848473ffffffffffffffffffffffffffffffffffffffff16611fc69092919063ffffffff16565b8173ffffffffffffffffffffffffffffffffffffffff167fdf273cb619d95419a9cd0ec88123a0538c85064229baa6363788f743fff90deb84836040516107289291906130e2565b60405180910390a2505050565b60066020528060005260406000206000915090505481565b6000600360009054906101000a900473ffffffffffffffffffffffffffffffffffffffff1673ffffffffffffffffffffffffffffffffffffffff1663a569e571846040518263ffffffff1660e01b81526004016107aa9190612eaa565b60206040518083038186803b1580156107c257600080fd5b505afa1580156107d6573d6000803e3d6000fd5b505050506040513d601f19601f820116820180604052508101906107fa9190612b38565b905080156108f157600360009054906101000a900473ffffffffffffffffffffffffffffffffffffffff1673ffffffffffffffffffffffffffffffffffffffff1663df89b344336040518263ffffffff1660e01b815260040161085d9190612eaa565b60206040518083038186803b15801561087557600080fd5b505afa158015610889573d6000803e3d6000fd5b505050506040513d601f19601f820116820180604052508101906108ad9190612b38565b6108ec576040517f08c379a00000000000000000000000000000000000000000000000000000000081526004016108e390612f67565b60405180910390fd5b6109dc565b600360009054906101000a900473ffffffffffffffffffffffffffffffffffffffff1673ffffffffffffffffffffffffffffffffffffffff1663ebd83cd8336040518263ffffffff1660e01b815260040161094c9190612eaa565b60206040518083038186803b15801561096457600080fd5b505afa158015610978573d6000803e3d6000fd5b505050506040513d601f19601f8201168201806040525081019061099c9190612b38565b6109db576040517f08c379a00000000000000000000000000000000000000000000000000000000081526004016109d290612f67565b60405180910390fd5b5b6109f182600754611fb090919063ffffffff16565b6007819055506007547f93bb8edd35984706eee1b92541281f7f62d33c01c5b2ec0929a113603bd21d6660405160405180910390a2610a5133838573ffffffffffffffffffffffffffffffffffffffff16611fc69092919063ffffffff16565b8273ffffffffffffffffffffffffffffffffffffffff167f2bb2640731848fe9820ba48dbc978c1fc9bbd5f11b948bfab05b7dee3378fd8083604051610a9791906130c7565b60405180910390a2505050565b600360009054906101000a900473ffffffffffffffffffffffffffffffffffffffff1673ffffffffffffffffffffffffffffffffffffffff1663ee4e19a1336040518263ffffffff1660e01b8152600401610aff9190612eaa565b60206040518083038186803b158015610b1757600080fd5b505afa158015610b2b573d6000803e3d6000fd5b505050506040513d601f19601f82011682018060405250810190610b4f9190612b38565b610b8e576040517f08c379a0000000000000000000000000000000000000000000000000000000008152600401610b8590612f67565b60405180910390fd5b600360009054906101000a900473ffffffffffffffffffffffffffffffffffffffff1673ffffffffffffffffffffffffffffffffffffffff166368c31dd5826040518263ffffffff1660e01b8152600401610be99190612eaa565b60206040518083038186803b158015610c0157600080fd5b505afa158015610c15573d6000803e3d6000fd5b505050506040513d601f19601f82011682018060405250810190610c399190612b38565b610c78576040517f08c379a0000000000000000000000000000000000000000000000000000000008152600401610c6f90613047565b60405180910390fd5b6000610c90610c8b838560016000611b96565b61171a565b90506000600160009054906101000a900473ffffffffffffffffffffffffffffffffffffffff1673ffffffffffffffffffffffffffffffffffffffff166370a08231336040518263ffffffff1660e01b8152600401610cef9190612eaa565b60206040518083038186803b158015610d0757600080fd5b505afa158015610d1b573d6000803e3d6000fd5b505050506040513d601f19601f82011682018060405250810190610d3f9190612b8a565b90506000610d95600660003373ffffffffffffffffffffffffffffffffffffffff1673ffffffffffffffffffffffffffffffffffffffff1681526020019081526020016000205483611fb090919063ffffffff16565b905080831115610dda576040517f08c379a0000000000000000000000000000000000000000000000000000000008152600401610dd1906130a7565b60405180910390fd5b610e2c83600660003373ffffffffffffffffffffffffffffffffffffffff1673ffffffffffffffffffffffffffffffffffffffff1681526020019081526020016000205461204c90919063ffffffff16565b600660003373ffffffffffffffffffffffffffffffffffffffff1673ffffffffffffffffffffffffffffffffffffffff16815260200190815260200160002081905550610e848360095461204c90919063ffffffff16565b600981905550610e9f85600754611fb090919063ffffffff16565b6007819055506007547f93bb8edd35984706eee1b92541281f7f62d33c01c5b2ec0929a113603bd21d6660405160405180910390a28373ffffffffffffffffffffffffffffffffffffffff1663a9059cbb33876040518363ffffffff1660e01b8152600401610f0f929190612efc565b602060405180830381600087803b158015610f2957600080fd5b505af1158015610f3d573d6000803e3d6000fd5b505050506040513d601f19601f82011682018060405250810190610f619190612b38565b508373ffffffffffffffffffffffffffffffffffffffff163373ffffffffffffffffffffffffffffffffffffffff167f7e1a939bed137a819b5d2979822c67f877689f7a863d5e4cb57cdca97b2977d68786604051610fc19291906130e2565b60405180910390a35050505050565b60056020528060005260406000206000915054906101000a900473ffffffffffffffffffffffffffffffffffffffff1681565b600460009054906101000a900473ffffffffffffffffffffffffffffffffffffffff1681565b7f000000000000000000000000000000000000000000000000000000000000000081565b6000600854905090565b600160009054906101000a900473ffffffffffffffffffffffffffffffffffffffff1681565b611085612062565b73ffffffffffffffffffffffffffffffffffffffff166110a361112b565b73ffffffffffffffffffffffffffffffffffffffff16146110f9576040517f08c379a00000000000000000000000000000000000000000000000000000000081526004016110f090613007565b60405180910390fd5b611103600061206a565b565b600260009054906101000a900473ffffffffffffffffffffffffffffffffffffffff1681565b60008060009054906101000a900473ffffffffffffffffffffffffffffffffffffffff16905090565b6000600754905090565b611166612062565b73ffffffffffffffffffffffffffffffffffffffff1661118461112b565b73ffffffffffffffffffffffffffffffffffffffff16146111da576040517f08c379a00000000000000000000000000000000000000000000000000000000081526004016111d190613007565b60405180910390fd5b80600160006101000a81548173ffffffffffffffffffffffffffffffffffffffff021916908373ffffffffffffffffffffffffffffffffffffffff16021790555050565b6000600360009054906101000a900473ffffffffffffffffffffffffffffffffffffffff1673ffffffffffffffffffffffffffffffffffffffff166368c31dd5846040518263ffffffff1660e01b815260040161127b9190612eaa565b60206040518083038186803b15801561129357600080fd5b505afa1580156112a7573d6000803e3d6000fd5b505050506040513d601f19601f820116820180604052508101906112cb9190612b38565b90506000600360009054906101000a900473ffffffffffffffffffffffffffffffffffffffff1673ffffffffffffffffffffffffffffffffffffffff1663a569e571856040518263ffffffff1660e01b815260040161132a9190612eaa565b60206040518083038186803b15801561134257600080fd5b505afa158015611356573d6000803e3d6000fd5b505050506040513d601f19601f8201168201806040525081019061137a9190612b38565b905081806113855750805b6113c4576040517f08c379a00000000000000000000000000000000000000000000000000000000081526004016113bb90613047565b60405180910390fd5b6113d98560075461204c90919063ffffffff16565b60078190555061140c3330878773ffffffffffffffffffffffffffffffffffffffff1661212e909392919063ffffffff16565b811561150157600360009054906101000a900473ffffffffffffffffffffffffffffffffffffffff1673ffffffffffffffffffffffffffffffffffffffff1663124154ca336040518263ffffffff1660e01b815260040161146d9190612eaa565b60206040518083038186803b15801561148557600080fd5b505afa158015611499573d6000803e3d6000fd5b505050506040513d601f19601f820116820180604052508101906114bd9190612b38565b6114fc576040517f08c379a00000000000000000000000000000000000000000000000000000000081526004016114f390612fc7565b60405180910390fd5b6115ec565b600360009054906101000a900473ffffffffffffffffffffffffffffffffffffffff1673ffffffffffffffffffffffffffffffffffffffff1663a1210a2d336040518263ffffffff1660e01b815260040161155c9190612eaa565b60206040518083038186803b15801561157457600080fd5b505afa158015611588573d6000803e3d6000fd5b505050506040513d601f19601f820116820180604052508101906115ac9190612b38565b6115eb576040517f08c379a00000000000000000000000000000000000000000000000000000000081526004016115e290612fc7565b60405180910390fd5b5b6116018360085461204c90919063ffffffff16565b6008819055507f000000000000000000000000000000000000000000000000000000000000000073ffffffffffffffffffffffffffffffffffffffff166340c10f1933856040518363ffffffff1660e01b8152600401611662929190612efc565b600060405180830381600087803b15801561167c57600080fd5b505af1158015611690573d6000803e3d6000fd5b505050506007547f93bb8edd35984706eee1b92541281f7f62d33c01c5b2ec0929a113603bd21d6660405160405180910390a28373ffffffffffffffffffffffffffffffffffffffff167f90890809c654f11d6e72a28fa60149770a0d11ec6c92319d6ceb2bb0a4ea1a15868560405161170b9291906130e2565b60405180910390a25050505050565b6000806117d3633b9aca00600260009054906101000a900473ffffffffffffffffffffffffffffffffffffffff1673ffffffffffffffffffffffffffffffffffffffff1663ac3b992a6040518163ffffffff1660e01b815260040160206040518083038186803b15801561178d57600080fd5b505afa1580156117a1573d6000803e3d6000fd5b505050506040513d601f19601f820116820180604052508101906117c59190612b8a565b6121b790919063ffffffff16565b90506117e76117e284836121cd565b6123d4565b915050919050565b600360009054906101000a900473ffffffffffffffffffffffffffffffffffffffff1673ffffffffffffffffffffffffffffffffffffffff1663ee4e19a1336040518263ffffffff1660e01b815260040161184a9190612eaa565b60206040518083038186803b15801561186257600080fd5b505afa158015611876573d6000803e3d6000fd5b505050506040513d601f19601f8201168201806040525081019061189a9190612b38565b6118d9576040517f08c379a00000000000000000000000000000000000000000000000000000000081526004016118d090612f67565b60405180910390fd5b600360009054906101000a900473ffffffffffffffffffffffffffffffffffffffff1673ffffffffffffffffffffffffffffffffffffffff166368c31dd5826040518263ffffffff1660e01b81526004016119349190612eaa565b60206040518083038186803b15801561194c57600080fd5b505afa158015611960573d6000803e3d6000fd5b505050506040513d601f19601f820116820180604052508101906119849190612b38565b6119c3576040517f08c379a00000000000000000000000000000000000000000000000000000000081526004016119ba90613047565b60405180910390fd5b6119d88260075461204c90919063ffffffff16565b600781905550611a0b3330848473ffffffffffffffffffffffffffffffffffffffff1661212e909392919063ffffffff16565b6000611a23611a1e838560016000611b96565b61171a565b9050611a7781600660003373ffffffffffffffffffffffffffffffffffffffff1673ffffffffffffffffffffffffffffffffffffffff16815260200190815260200160002054611fb090919063ffffffff16565b600660003373ffffffffffffffffffffffffffffffffffffffff1673ffffffffffffffffffffffffffffffffffffffff16815260200190815260200160002081905550611acf81600954611fb090919063ffffffff16565b6009819055506007547f93bb8edd35984706eee1b92541281f7f62d33c01c5b2ec0929a113603bd21d6660405160405180910390a28173ffffffffffffffffffffffffffffffffffffffff163373ffffffffffffffffffffffffffffffffffffffff167fc6d98eecfc9c78ab62c89a82950079b54874749f1f6f24090f7acc758bc2f3098584604051611b639291906130e2565b60405180910390a3505050565b600360009054906101000a900473ffffffffffffffffffffffffffffffffffffffff1681565b60008215611cfc57611cf58573ffffffffffffffffffffffffffffffffffffffff1663313ce5676040518163ffffffff1660e01b815260040160206040518083038186803b158015611be757600080fd5b505afa158015611bfb573d6000803e3d6000fd5b505050506040513d601f19601f82011682018060405250810190611c1f9190612c3e565b600a611c2b9190613217565b611ce77f000000000000000000000000000000000000000000000000000000000000000073ffffffffffffffffffffffffffffffffffffffff1663313ce5676040518163ffffffff1660e01b815260040160206040518083038186803b158015611c9457600080fd5b505afa158015611ca8573d6000803e3d6000fd5b505050506040513d601f19601f82011682018060405250810190611ccc9190612c3e565b600a611cd89190613217565b876121b790919063ffffffff16565b61241290919063ffffffff16565b9050611df0565b8115611def57600560008673ffffffffffffffffffffffffffffffffffffffff1673ffffffffffffffffffffffffffffffffffffffff16815260200190815260200160002060009054906101000a900473ffffffffffffffffffffffffffffffffffffffff1673ffffffffffffffffffffffffffffffffffffffff16634249719f86866040518363ffffffff1660e01b8152600401611d9c929190612efc565b60206040518083038186803b158015611db457600080fd5b505afa158015611dc8573d6000803e3d6000fd5b505050506040513d601f19601f82011682018060405250810190611dec9190612b8a565b90505b5b949350505050565b611e00612062565b73ffffffffffffffffffffffffffffffffffffffff16611e1e61112b565b73ffffffffffffffffffffffffffffffffffffffff1614611e74576040517f08c379a0000000000000000000000000000000000000000000000000000000008152600401611e6b90613007565b60405180910390fd5b600073ffffffffffffffffffffffffffffffffffffffff168173ffffffffffffffffffffffffffffffffffffffff161415611ee4576040517f08c379a0000000000000000000000000000000000000000000000000000000008152600401611edb90612f47565b60405180910390fd5b611eed8161206a565b50565b611ef8612062565b73ffffffffffffffffffffffffffffffffffffffff16611f1661112b565b73ffffffffffffffffffffffffffffffffffffffff1614611f6c576040517f08c379a0000000000000000000000000000000000000000000000000000000008152600401611f6390613007565b60405180910390fd5b80600260006101000a81548173ffffffffffffffffffffffffffffffffffffffff021916908373ffffffffffffffffffffffffffffffffffffffff16021790555050565b60008183611fbe919061338f565b905092915050565b6120478363a9059cbb60e01b8484604051602401611fe5929190612efc565b604051602081830303815290604052907bffffffffffffffffffffffffffffffffffffffffffffffffffffffff19166020820180517bffffffffffffffffffffffffffffffffffffffffffffffffffffffff8381831617835250505050612428565b505050565b6000818361205a919061313d565b905092915050565b600033905090565b60008060009054906101000a900473ffffffffffffffffffffffffffffffffffffffff169050816000806101000a81548173ffffffffffffffffffffffffffffffffffffffff021916908373ffffffffffffffffffffffffffffffffffffffff1602179055508173ffffffffffffffffffffffffffffffffffffffff168173ffffffffffffffffffffffffffffffffffffffff167f8be0079c531659141344cd1fd0a4f28419497f9722a3daafe3b4186f6b6457e060405160405180910390a35050565b6121b1846323b872dd60e01b85858560405160240161214f93929190612ec5565b604051602081830303815290604052907bffffffffffffffffffffffffffffffffffffffffffffffffffffffff19166020820180517bffffffffffffffffffffffffffffffffffffffffffffffffffffffff8381831617835250505050612428565b50505050565b600081836121c59190613335565b905092915050565b6121d56129c1565b60008211612218576040517f08c379a000000000000000000000000000000000000000000000000000000000815260040161220f90612fa7565b60405180910390fd5b600083141561225657604051806020016040528060007bffffffffffffffffffffffffffffffffffffffffffffffffffffffff1681525090506123ce565b71ffffffffffffffffffffffffffffffffffff8016831161231e57600082607060ff1685901b6122869190613193565b90507bffffffffffffffffffffffffffffffffffffffffffffffffffffffff80168111156122e9576040517f08c379a00000000000000000000000000000000000000000000000000000000081526004016122e090613027565b60405180910390fd5b6040518060200160405280827bffffffffffffffffffffffffffffffffffffffffffffffffffffffff168152509150506123ce565b600061233a846e010000000000000000000000000000856124ef565b90507bffffffffffffffffffffffffffffffffffffffffffffffffffffffff801681111561239d576040517f08c379a000000000000000000000000000000000000000000000000000000000815260040161239490613027565b60405180910390fd5b6040518060200160405280827bffffffffffffffffffffffffffffffffffffffffffffffffffffffff168152509150505b92915050565b60006612725dd1d243ab82600001517bffffffffffffffffffffffffffffffffffffffffffffffffffffffff1661240b9190613193565b9050919050565b600081836124209190613193565b905092915050565b600061248a826040518060400160405280602081526020017f5361666545524332303a206c6f772d6c6576656c2063616c6c206661696c65648152508573ffffffffffffffffffffffffffffffffffffffff166125bd9092919063ffffffff16565b90506000815111156124ea57808060200190518101906124aa9190612b38565b6124e9576040517f08c379a00000000000000000000000000000000000000000000000000000000081526004016124e090613087565b60405180910390fd5b5b505050565b60008060006124fe86866125d5565b9150915060008480612539577f4e487b7100000000000000000000000000000000000000000000000000000000600052601260045260246000fd5b86880990508281111561255657600182612553919061338f565b91505b8083612562919061338f565b92508482106125a6576040517f08c379a000000000000000000000000000000000000000000000000000000000815260040161259d90612fe7565b60405180910390fd5b6125b1838387612670565b93505050509392505050565b60606125cc8484600085612823565b90509392505050565b60008060007fffffffffffffffffffffffffffffffffffffffffffffffffffffffffffffffff8061262f577f4e487b7100000000000000000000000000000000000000000000000000000000600052601260045260246000fd5b848609905083856126409190613335565b9250828161264e919061338f565b91508281101561266857600182612665919061338f565b91505b509250929050565b60008060018319612681919061313d565b8316905080836126919190613193565b9250808561269f9190613193565b9450600181600183196126b2919061313d565b6126bc9190613193565b6126c6919061313d565b846126d19190613335565b856126dc919061313d565b945060006001905080846126f09190613335565b60026126fc919061338f565b816127079190613335565b905080846127159190613335565b6002612721919061338f565b8161272c9190613335565b9050808461273a9190613335565b6002612746919061338f565b816127519190613335565b9050808461275f9190613335565b600261276b919061338f565b816127769190613335565b905080846127849190613335565b6002612790919061338f565b8161279b9190613335565b905080846127a99190613335565b60026127b5919061338f565b816127c09190613335565b905080846127ce9190613335565b60026127da919061338f565b816127e59190613335565b905080846127f39190613335565b60026127ff919061338f565b8161280a9190613335565b905080866128189190613335565b925050509392505050565b606082471015612868576040517f08c379a000000000000000000000000000000000000000000000000000000000815260040161285f90612f87565b60405180910390fd5b61287185612937565b6128b0576040517f08c379a00000000000000000000000000000000000000000000000000000000081526004016128a790613067565b60405180910390fd5b6000808673ffffffffffffffffffffffffffffffffffffffff1685876040516128d99190612e93565b60006040518083038185875af1925050503d8060008114612916576040519150601f19603f3d011682016040523d82523d6000602084013e61291b565b606091505b509150915061292b82828661295a565b92505050949350505050565b6000808273ffffffffffffffffffffffffffffffffffffffff163b119050919050565b6060831561296a578290506129ba565b60008351111561297d5782518084602001fd5b816040517f08c379a00000000000000000000000000000000000000000000000000000000081526004016129b19190612f25565b60405180910390fd5b9392505050565b604051806020016040528060007bffffffffffffffffffffffffffffffffffffffffffffffffffffffff1681525090565b600081359050612a018161374b565b92915050565b600081359050612a1681613762565b92915050565b600081519050612a2b81613762565b92915050565b600081359050612a4081613779565b92915050565b600081519050612a5581613779565b92915050565b600081519050612a6a81613790565b92915050565b600060208284031215612a8257600080fd5b6000612a90848285016129f2565b91505092915050565b60008060408385031215612aac57600080fd5b6000612aba858286016129f2565b9250506020612acb85828601612a31565b9150509250929050565b60008060008060808587031215612aeb57600080fd5b6000612af9878288016129f2565b9450506020612b0a87828801612a31565b9350506040612b1b87828801612a07565b9250506060612b2c87828801612a07565b91505092959194509250565b600060208284031215612b4a57600080fd5b6000612b5884828501612a1c565b91505092915050565b600060208284031215612b7357600080fd5b6000612b8184828501612a31565b91505092915050565b600060208284031215612b9c57600080fd5b6000612baa84828501612a46565b91505092915050565b60008060408385031215612bc657600080fd5b6000612bd485828601612a31565b9250506020612be5858286016129f2565b9150509250929050565b600080600060608486031215612c0457600080fd5b6000612c1286828701612a31565b9350506020612c23868287016129f2565b9250506040612c3486828701612a31565b9150509250925092565b600060208284031215612c5057600080fd5b6000612c5e84828501612a5b565b91505092915050565b612c70816133c3565b82525050565b6000612c818261310b565b612c8b8185613121565b9350612c9b818560208601613418565b80840191505092915050565b6000612cb282613116565b612cbc818561312c565b9350612ccc818560208601613418565b612cd5816134a9565b840191505092915050565b6000612ced60268361312c565b9150612cf8826134c7565b604082019050919050565b6000612d1060098361312c565b9150612d1b82613516565b602082019050919050565b6000612d3360268361312c565b9150612d3e8261353f565b604082019050919050565b6000612d5660268361312c565b9150612d618261358e565b604082019050919050565b6000612d7960098361312c565b9150612d84826135dd565b602082019050919050565b6000612d9c601a8361312c565b9150612da782613606565b602082019050919050565b6000612dbf60208361312c565b9150612dca8261362f565b602082019050919050565b6000612de2601e8361312c565b9150612ded82613658565b602082019050919050565b6000612e0560028361312c565b9150612e1082613681565b602082019050919050565b6000612e28601d8361312c565b9150612e33826136aa565b602082019050919050565b6000612e4b602a8361312c565b9150612e56826136d3565b604082019050919050565b6000612e6e60128361312c565b9150612e7982613722565b602082019050919050565b612e8d81613401565b82525050565b6000612e9f8284612c76565b915081905092915050565b6000602082019050612ebf6000830184612c67565b92915050565b6000606082019050612eda6000830186612c67565b612ee76020830185612c67565b612ef46040830184612e84565b949350505050565b6000604082019050612f116000830185612c67565b612f1e6020830184612e84565b9392505050565b60006020820190508181036000830152612f3f8184612ca7565b905092915050565b60006020820190508181036000830152612f6081612ce0565b9050919050565b60006020820190508181036000830152612f8081612d03565b9050919050565b60006020820190508181036000830152612fa081612d26565b9050919050565b60006020820190508181036000830152612fc081612d49565b9050919050565b60006020820190508181036000830152612fe081612d6c565b9050919050565b6000602082019050818103600083015261300081612d8f565b9050919050565b6000602082019050818103600083015261302081612db2565b9050919050565b6000602082019050818103600083015261304081612dd5565b9050919050565b6000602082019050818103600083015261306081612df8565b9050919050565b6000602082019050818103600083015261308081612e1b565b9050919050565b600060208201905081810360008301526130a081612e3e565b9050919050565b600060208201905081810360008301526130c081612e61565b9050919050565b60006020820190506130dc6000830184612e84565b92915050565b60006040820190506130f76000830185612e84565b6131046020830184612e84565b9392505050565b600081519050919050565b600081519050919050565b600081905092915050565b600082825260208201905092915050565b600061314882613401565b915061315383613401565b9250827fffffffffffffffffffffffffffffffffffffffffffffffffffffffffffffffff038211156131885761318761344b565b5b828201905092915050565b600061319e82613401565b91506131a983613401565b9250826131b9576131b861347a565b5b828204905092915050565b6000808291508390505b600185111561320e578086048111156131ea576131e961344b565b5b60018516156131f95780820291505b8081029050613207856134ba565b94506131ce565b94509492505050565b600061322282613401565b915061322d8361340b565b925061325a7fffffffffffffffffffffffffffffffffffffffffffffffffffffffffffffffff8484613262565b905092915050565b600082613272576001905061332e565b81613280576000905061332e565b816001811461329657600281146132a0576132cf565b600191505061332e565b60ff8411156132b2576132b161344b565b5b8360020a9150848211156132c9576132c861344b565b5b5061332e565b5060208310610133831016604e8410600b84101617156133045782820a9050838111156132ff576132fe61344b565b5b61332e565b61331184848460016131c4565b925090508184048111156133285761332761344b565b5b81810290505b9392505050565b600061334082613401565b915061334b83613401565b9250817fffffffffffffffffffffffffffffffffffffffffffffffffffffffffffffffff04831182151516156133845761338361344b565b5b828202905092915050565b600061339a82613401565b91506133a583613401565b9250828210156133b8576133b761344b565b5b828203905092915050565b60006133ce826133e1565b9050919050565b60008115159050919050565b600073ffffffffffffffffffffffffffffffffffffffff82169050919050565b6000819050919050565b600060ff82169050919050565b60005b8381101561343657808201518184015260208101905061341b565b83811115613445576000848401525b50505050565b7f4e487b7100000000000000000000000000000000000000000000000000000000600052601160045260246000fd5b7f4e487b7100000000000000000000000000000000000000000000000000000000600052601260045260246000fd5b6000601f19601f8301169050919050565b60008160011c9050919050565b7f4f776e61626c653a206e6577206f776e657220697320746865207a65726f206160008201527f6464726573730000000000000000000000000000000000000000000000000000602082015250565b7f4e417070726f7665640000000000000000000000000000000000000000000000600082015250565b7f416464726573733a20696e73756666696369656e742062616c616e636520666f60008201527f722063616c6c0000000000000000000000000000000000000000000000000000602082015250565b7f4669786564506f696e743a3a6672616374696f6e3a206469766973696f6e206260008201527f79207a65726f0000000000000000000000000000000000000000000000000000602082015250565b7f4e415050524f5645440000000000000000000000000000000000000000000000600082015250565b7f46756c6c4d6174683a3a6d756c4469763a206f766572666c6f77000000000000600082015250565b7f4f776e61626c653a2063616c6c6572206973206e6f7420746865206f776e6572600082015250565b7f4669786564506f696e743a3a6672616374696f6e3a206f766572666c6f770000600082015250565b7f4e41000000000000000000000000000000000000000000000000000000000000600082015250565b7f416464726573733a2063616c6c20746f206e6f6e2d636f6e7472616374000000600082015250565b7f5361666545524332303a204552433230206f7065726174696f6e20646964206e60008201527f6f74207375636365656400000000000000000000000000000000000000000000602082015250565b7f457863656564732064656274206c696d69740000000000000000000000000000600082015250565b613754816133c3565b811461375f57600080fd5b50565b61376b816133d5565b811461377657600080fd5b50565b61378281613401565b811461378d57600080fd5b50565b6137998161340b565b81146137a457600080fd5b5056fea264697066735822122082d0f8c89b39ec72e6a34f2fbdce71fc0f76b95e6342691595dcce2d3a08e84264736f6c63430008040033",
  "linkReferences": {},
  "deployedLinkReferences": {}
}