{
  "_format": "hh-sol-artifact-1",
  "contractName": "Treasury",
  "sourceName": "contracts/Treasury.sol",
  "abi": [
    {
      "inputs": [
        {
          "internalType": "address",
          "name": "_ORCL",
          "type": "address"
        },
        {
          "internalType": "address",
          "name": "_treasuryHelper",
          "type": "address"
        }
      ],
      "stateMutability": "nonpayable",
      "type": "constructor"
    },
    {
      "anonymous": false,
      "inputs": [
        {
          "indexed": true,
          "internalType": "address",
          "name": "debtor",
          "type": "address"
        },
        {
          "indexed": true,
          "internalType": "address",
          "name": "token",
          "type": "address"
        },
        {
          "indexed": false,
          "internalType": "uint256",
          "name": "amount",
          "type": "uint256"
        },
        {
          "indexed": false,
          "internalType": "uint256",
          "name": "value",
          "type": "uint256"
        }
      ],
      "name": "CreateDebt",
      "type": "event"
    },
    {
      "anonymous": false,
      "inputs": [
        {
          "indexed": true,
          "internalType": "address",
          "name": "token",
          "type": "address"
        },
        {
          "indexed": false,
          "internalType": "uint256",
          "name": "amount",
          "type": "uint256"
        },
        {
          "indexed": false,
          "internalType": "uint256",
          "name": "orclMinted",
          "type": "uint256"
        }
      ],
      "name": "Deposit",
      "type": "event"
    },
    {
      "anonymous": false,
      "inputs": [
        {
          "indexed": true,
          "internalType": "address",
          "name": "previousOwner",
          "type": "address"
        },
        {
          "indexed": true,
          "internalType": "address",
          "name": "newOwner",
          "type": "address"
        }
      ],
      "name": "OwnershipTransferred",
      "type": "event"
    },
    {
      "anonymous": false,
      "inputs": [
        {
          "indexed": true,
          "internalType": "address",
          "name": "debtor",
          "type": "address"
        },
        {
          "indexed": true,
          "internalType": "address",
          "name": "token",
          "type": "address"
        },
        {
          "indexed": false,
          "internalType": "uint256",
          "name": "amount",
          "type": "uint256"
        },
        {
          "indexed": false,
          "internalType": "uint256",
          "name": "value",
          "type": "uint256"
        }
      ],
      "name": "RepayDebt",
      "type": "event"
    },
    {
      "anonymous": false,
      "inputs": [
        {
          "indexed": true,
          "internalType": "address",
          "name": "token",
          "type": "address"
        },
        {
          "indexed": false,
          "internalType": "uint256",
          "name": "amount",
          "type": "uint256"
        }
      ],
      "name": "ReservesManaged",
      "type": "event"
    },
    {
      "anonymous": false,
      "inputs": [
        {
          "indexed": true,
          "internalType": "uint256",
          "name": "totalReserves",
          "type": "uint256"
        }
      ],
      "name": "ReservesUpdated",
      "type": "event"
    },
    {
      "anonymous": false,
      "inputs": [
        {
          "indexed": true,
          "internalType": "address",
          "name": "token",
          "type": "address"
        },
        {
          "indexed": false,
          "internalType": "uint256",
          "name": "amount",
          "type": "uint256"
        },
        {
          "indexed": false,
          "internalType": "uint256",
          "name": "orclBurned",
          "type": "uint256"
        }
      ],
      "name": "Withdrawal",
      "type": "event"
    },
    {
      "inputs": [],
      "name": "ORCL",
      "outputs": [
        {
          "internalType": "address",
          "name": "",
          "type": "address"
        }
      ],
      "stateMutability": "view",
      "type": "function"
    },
    {
      "inputs": [],
      "name": "auditOwner",
      "outputs": [
        {
          "internalType": "address",
          "name": "",
          "type": "address"
        }
      ],
      "stateMutability": "view",
      "type": "function"
    },
    {
      "inputs": [
        {
          "internalType": "address",
          "name": "",
          "type": "address"
        }
      ],
      "name": "bondCalculator",
      "outputs": [
        {
          "internalType": "address",
          "name": "",
          "type": "address"
        }
      ],
      "stateMutability": "view",
      "type": "function"
    },
    {
      "inputs": [
        {
          "internalType": "address",
          "name": "",
          "type": "address"
        }
      ],
      "name": "debtorBalance",
      "outputs": [
        {
          "internalType": "uint256",
          "name": "",
          "type": "uint256"
        }
      ],
      "stateMutability": "view",
      "type": "function"
    },
    {
      "inputs": [
        {
          "internalType": "uint256",
          "name": "_amount",
          "type": "uint256"
        },
        {
          "internalType": "address",
          "name": "_token",
          "type": "address"
        },
        {
          "internalType": "uint256",
          "name": "_orclAmount",
          "type": "uint256"
        }
      ],
      "name": "deposit",
      "outputs": [],
      "stateMutability": "nonpayable",
      "type": "function"
    },
    {
      "inputs": [
        {
          "internalType": "uint256",
          "name": "_amount",
          "type": "uint256"
        },
        {
          "internalType": "address",
          "name": "_token",
          "type": "address"
        }
      ],
      "name": "incurDebt",
      "outputs": [],
      "stateMutability": "nonpayable",
      "type": "function"
    },
    {
      "inputs": [
        {
          "internalType": "address",
          "name": "_token",
          "type": "address"
        },
        {
          "internalType": "uint256",
          "name": "_amount",
          "type": "uint256"
        }
      ],
      "name": "manage",
      "outputs": [],
      "stateMutability": "nonpayable",
      "type": "function"
    },
    {
      "inputs": [
        {
          "internalType": "uint256",
          "name": "_amount",
          "type": "uint256"
        }
      ],
      "name": "orclEqValue",
      "outputs": [
        {
          "internalType": "uint256",
          "name": "value_",
          "type": "uint256"
        }
      ],
      "stateMutability": "nonpayable",
      "type": "function"
    },
    {
      "inputs": [],
      "name": "owner",
      "outputs": [
        {
          "internalType": "address",
          "name": "",
          "type": "address"
        }
      ],
      "stateMutability": "view",
      "type": "function"
    },
    {
      "inputs": [],
      "name": "renounceOwnership",
      "outputs": [],
      "stateMutability": "nonpayable",
      "type": "function"
    },
    {
      "inputs": [
        {
          "internalType": "uint256",
          "name": "_amount",
          "type": "uint256"
        },
        {
          "internalType": "address",
          "name": "_token",
          "type": "address"
        }
      ],
      "name": "repayDebtWithReserve",
      "outputs": [],
      "stateMutability": "nonpayable",
      "type": "function"
    },
    {
      "inputs": [],
      "name": "sORCL",
      "outputs": [
        {
          "internalType": "address",
          "name": "",
          "type": "address"
        }
      ],
      "stateMutability": "view",
      "type": "function"
    },
    {
      "inputs": [
        {
          "internalType": "address",
          "name": "_sORCL",
          "type": "address"
        }
      ],
      "name": "setStakedORCL",
      "outputs": [],
      "stateMutability": "nonpayable",
      "type": "function"
    },
    {
      "inputs": [
        {
          "internalType": "address",
          "name": "_tavCalculator",
          "type": "address"
        }
      ],
      "name": "setTAVCalculator",
      "outputs": [],
      "stateMutability": "nonpayable",
      "type": "function"
    },
    {
      "inputs": [],
      "name": "tavCalculator",
      "outputs": [
        {
          "internalType": "address",
          "name": "",
          "type": "address"
        }
      ],
      "stateMutability": "view",
      "type": "function"
    },
    {
      "inputs": [],
      "name": "totalORCLMinted",
      "outputs": [
        {
          "internalType": "uint256",
          "name": "",
          "type": "uint256"
        }
      ],
      "stateMutability": "view",
      "type": "function"
    },
    {
      "inputs": [],
      "name": "totalReserves",
      "outputs": [
        {
          "internalType": "uint256",
          "name": "",
          "type": "uint256"
        }
      ],
      "stateMutability": "view",
      "type": "function"
    },
    {
      "inputs": [
        {
          "internalType": "address",
          "name": "newOwner",
          "type": "address"
        }
      ],
      "name": "transferOwnership",
      "outputs": [],
      "stateMutability": "nonpayable",
      "type": "function"
    },
    {
      "inputs": [],
      "name": "treasuryHelper",
      "outputs": [
        {
          "internalType": "address",
          "name": "",
          "type": "address"
        }
      ],
      "stateMutability": "view",
      "type": "function"
    },
    {
      "inputs": [
        {
          "internalType": "address",
          "name": "_token",
          "type": "address"
        },
        {
          "internalType": "uint256",
          "name": "_amount",
          "type": "uint256"
        },
        {
          "internalType": "bool",
          "name": "isReserveToken",
          "type": "bool"
        },
        {
          "internalType": "bool",
          "name": "isLiquidToken",
          "type": "bool"
        }
      ],
      "name": "valueOfToken",
      "outputs": [
        {
          "internalType": "uint256",
          "name": "value_",
          "type": "uint256"
        }
      ],
      "stateMutability": "view",
      "type": "function"
    },
    {
      "inputs": [
        {
          "internalType": "uint256",
          "name": "_amount",
          "type": "uint256"
        },
        {
          "internalType": "address",
          "name": "_token",
          "type": "address"
        }
      ],
      "name": "withdraw",
      "outputs": [],
      "stateMutability": "nonpayable",
      "type": "function"
    }
  ],
  "bytecode": "0x60a06040523480156200001157600080fd5b5060405162003ad238038062003ad2833981810160405281019062000037919062000230565b620000576200004b6200014d60201b60201c565b6200015560201b60201c565b600073ffffffffffffffffffffffffffffffffffffffff168273ffffffffffffffffffffffffffffffffffffffff1614156200009257600080fd5b8173ffffffffffffffffffffffffffffffffffffffff1660808173ffffffffffffffffffffffffffffffffffffffff1660601b81525050600073ffffffffffffffffffffffffffffffffffffffff168173ffffffffffffffffffffffffffffffffffffffff1614156200010457600080fd5b80600360006101000a81548173ffffffffffffffffffffffffffffffffffffffff021916908373ffffffffffffffffffffffffffffffffffffffff1602179055505050620002bf565b600033905090565b60008060009054906101000a900473ffffffffffffffffffffffffffffffffffffffff169050816000806101000a81548173ffffffffffffffffffffffffffffffffffffffff021916908373ffffffffffffffffffffffffffffffffffffffff1602179055508173ffffffffffffffffffffffffffffffffffffffff168173ffffffffffffffffffffffffffffffffffffffff167f8be0079c531659141344cd1fd0a4f28419497f9722a3daafe3b4186f6b6457e060405160405180910390a35050565b6000815190506200022a81620002a5565b92915050565b600080604083850312156200024457600080fd5b6000620002548582860162000219565b9250506020620002678582860162000219565b9150509250929050565b60006200027e8262000285565b9050919050565b600073ffffffffffffffffffffffffffffffffffffffff82169050919050565b620002b08162000271565b8114620002bc57600080fd5b50565b60805160601c6137df620002f3600039600081816105c50152818161102b015281816116090152611c3201526137df6000f3fe608060405234801561001057600080fd5b50600436106101365760003560e01c806379cdf620116100b8578063d62199b31161007c578063d62199b314610303578063d796ffb814610333578063de317e6f1461034f578063f20796231461036d578063f2fde38b1461039d578063fb87b272146103b957610136565b806379cdf620146102715780638da5cb5b1461028f5780638f840ddd146102ad578063b3a1ad01146102cb578063bc157ac1146102e757610136565b80631fe8aac5116100ff5780631fe8aac5146101ef57806333483ffd1461020d578063354b1b7f1461022b57806361e39a2814610249578063715018a61461026757610136565b8062f714ce1461013b578063094a8651146101575780630b0eee301461018757806312422d23146101a35780631af4da70146101bf575b600080fd5b61015560048036038101906101509190612bb5565b6103d5565b005b610171600480360381019061016c9190612a72565b610735565b60405161017e91906130c9565b60405180910390f35b6101a1600480360381019061019c9190612a9b565b61074d565b005b6101bd60048036038101906101b89190612bb5565b610aa4565b005b6101d960048036038101906101d49190612a72565b610fd0565b6040516101e69190612eac565b60405180910390f35b6101f7611003565b6040516102049190612eac565b60405180910390f35b610215611029565b6040516102229190612eac565b60405180910390f35b61023361104d565b60405161024091906130c9565b60405180910390f35b610251611057565b60405161025e9190612eac565b60405180910390f35b61026f61107d565b005b610279611105565b6040516102869190612eac565b60405180910390f35b61029761112b565b6040516102a49190612eac565b60405180910390f35b6102b5611154565b6040516102c291906130c9565b60405180910390f35b6102e560048036038101906102e09190612a72565b61115e565b005b61030160048036038101906102fc9190612bf1565b61121e565b005b61031d60048036038101906103189190612b63565b61171a565b60405161032a91906130c9565b60405180910390f35b61034d60048036038101906103489190612bb5565b6117f1565b005b610357611b72565b6040516103649190612eac565b60405180910390f35b61038760048036038101906103829190612ad7565b611b98565b60405161039491906130c9565b60405180910390f35b6103b760048036038101906103b29190612a72565b611dfa565b005b6103d360048036038101906103ce9190612a72565b611ef2565b005b600360009054906101000a900473ffffffffffffffffffffffffffffffffffffffff1673ffffffffffffffffffffffffffffffffffffffff166368c31dd5826040518263ffffffff1660e01b81526004016104309190612eac565b60206040518083038186803b15801561044857600080fd5b505afa15801561045c573d6000803e3d6000fd5b505050506040513d601f19601f820116820180604052508101906104809190612b3a565b6104bf576040517f08c379a00000000000000000000000000000000000000000000000000000000081526004016104b690613049565b60405180910390fd5b600360009054906101000a900473ffffffffffffffffffffffffffffffffffffffff1673ffffffffffffffffffffffffffffffffffffffff166387d67dff336040518263ffffffff1660e01b815260040161051a9190612eac565b60206040518083038186803b15801561053257600080fd5b505afa158015610546573d6000803e3d6000fd5b505050506040513d601f19601f8201168201806040525081019061056a9190612b3a565b6105a9576040517f08c379a00000000000000000000000000000000000000000000000000000000081526004016105a090612f69565b60405180910390fd5b60006105c16105bc838560016000611b98565b61171a565b90507f000000000000000000000000000000000000000000000000000000000000000073ffffffffffffffffffffffffffffffffffffffff166379cc679033836040518363ffffffff1660e01b815260040161061e929190612efe565b600060405180830381600087803b15801561063857600080fd5b505af115801561064c573d6000803e3d6000fd5b5050505061066581600854611fb290919063ffffffff16565b60088190555061068083600754611fb290919063ffffffff16565b6007819055506007547f93bb8edd35984706eee1b92541281f7f62d33c01c5b2ec0929a113603bd21d6660405160405180910390a26106e033848473ffffffffffffffffffffffffffffffffffffffff16611fc89092919063ffffffff16565b8173ffffffffffffffffffffffffffffffffffffffff167fdf273cb619d95419a9cd0ec88123a0538c85064229baa6363788f743fff90deb84836040516107289291906130e4565b60405180910390a2505050565b60066020528060005260406000206000915090505481565b6000600360009054906101000a900473ffffffffffffffffffffffffffffffffffffffff1673ffffffffffffffffffffffffffffffffffffffff1663a569e571846040518263ffffffff1660e01b81526004016107aa9190612eac565b60206040518083038186803b1580156107c257600080fd5b505afa1580156107d6573d6000803e3d6000fd5b505050506040513d601f19601f820116820180604052508101906107fa9190612b3a565b905080156108f157600360009054906101000a900473ffffffffffffffffffffffffffffffffffffffff1673ffffffffffffffffffffffffffffffffffffffff1663df89b344336040518263ffffffff1660e01b815260040161085d9190612eac565b60206040518083038186803b15801561087557600080fd5b505afa158015610889573d6000803e3d6000fd5b505050506040513d601f19601f820116820180604052508101906108ad9190612b3a565b6108ec576040517f08c379a00000000000000000000000000000000000000000000000000000000081526004016108e390612f69565b60405180910390fd5b6109dc565b600360009054906101000a900473ffffffffffffffffffffffffffffffffffffffff1673ffffffffffffffffffffffffffffffffffffffff1663ebd83cd8336040518263ffffffff1660e01b815260040161094c9190612eac565b60206040518083038186803b15801561096457600080fd5b505afa158015610978573d6000803e3d6000fd5b505050506040513d601f19601f8201168201806040525081019061099c9190612b3a565b6109db576040517f08c379a00000000000000000000000000000000000000000000000000000000081526004016109d290612f69565b60405180910390fd5b5b6109f182600754611fb290919063ffffffff16565b6007819055506007547f93bb8edd35984706eee1b92541281f7f62d33c01c5b2ec0929a113603bd21d6660405160405180910390a2610a5133838573ffffffffffffffffffffffffffffffffffffffff16611fc89092919063ffffffff16565b8273ffffffffffffffffffffffffffffffffffffffff167f2bb2640731848fe9820ba48dbc978c1fc9bbd5f11b948bfab05b7dee3378fd8083604051610a9791906130c9565b60405180910390a2505050565b600360009054906101000a900473ffffffffffffffffffffffffffffffffffffffff1673ffffffffffffffffffffffffffffffffffffffff1663ee4e19a1336040518263ffffffff1660e01b8152600401610aff9190612eac565b60206040518083038186803b158015610b1757600080fd5b505afa158015610b2b573d6000803e3d6000fd5b505050506040513d601f19601f82011682018060405250810190610b4f9190612b3a565b610b8e576040517f08c379a0000000000000000000000000000000000000000000000000000000008152600401610b8590612f69565b60405180910390fd5b600360009054906101000a900473ffffffffffffffffffffffffffffffffffffffff1673ffffffffffffffffffffffffffffffffffffffff166368c31dd5826040518263ffffffff1660e01b8152600401610be99190612eac565b60206040518083038186803b158015610c0157600080fd5b505afa158015610c15573d6000803e3d6000fd5b505050506040513d601f19601f82011682018060405250810190610c399190612b3a565b610c78576040517f08c379a0000000000000000000000000000000000000000000000000000000008152600401610c6f90613049565b60405180910390fd5b6000610c90610c8b838560016000611b98565b61171a565b90506000600160009054906101000a900473ffffffffffffffffffffffffffffffffffffffff1673ffffffffffffffffffffffffffffffffffffffff166370a08231336040518263ffffffff1660e01b8152600401610cef9190612eac565b60206040518083038186803b158015610d0757600080fd5b505afa158015610d1b573d6000803e3d6000fd5b505050506040513d601f19601f82011682018060405250810190610d3f9190612b8c565b90506000610d95600660003373ffffffffffffffffffffffffffffffffffffffff1673ffffffffffffffffffffffffffffffffffffffff1681526020019081526020016000205483611fb290919063ffffffff16565b905080831115610dda576040517f08c379a0000000000000000000000000000000000000000000000000000000008152600401610dd1906130a9565b60405180910390fd5b610e2c83600660003373ffffffffffffffffffffffffffffffffffffffff1673ffffffffffffffffffffffffffffffffffffffff1681526020019081526020016000205461204e90919063ffffffff16565b600660003373ffffffffffffffffffffffffffffffffffffffff1673ffffffffffffffffffffffffffffffffffffffff16815260200190815260200160002081905550610e848360095461204e90919063ffffffff16565b600981905550610e9f85600754611fb290919063ffffffff16565b6007819055506007547f93bb8edd35984706eee1b92541281f7f62d33c01c5b2ec0929a113603bd21d6660405160405180910390a28373ffffffffffffffffffffffffffffffffffffffff1663a9059cbb33876040518363ffffffff1660e01b8152600401610f0f929190612efe565b602060405180830381600087803b158015610f2957600080fd5b505af1158015610f3d573d6000803e3d6000fd5b505050506040513d601f19601f82011682018060405250810190610f619190612b3a565b508373ffffffffffffffffffffffffffffffffffffffff163373ffffffffffffffffffffffffffffffffffffffff167f7e1a939bed137a819b5d2979822c67f877689f7a863d5e4cb57cdca97b2977d68786604051610fc19291906130e4565b60405180910390a35050505050565b60056020528060005260406000206000915054906101000a900473ffffffffffffffffffffffffffffffffffffffff1681565b600460009054906101000a900473ffffffffffffffffffffffffffffffffffffffff1681565b7f000000000000000000000000000000000000000000000000000000000000000081565b6000600854905090565b600160009054906101000a900473ffffffffffffffffffffffffffffffffffffffff1681565b611085612064565b73ffffffffffffffffffffffffffffffffffffffff166110a361112b565b73ffffffffffffffffffffffffffffffffffffffff16146110f9576040517f08c379a00000000000000000000000000000000000000000000000000000000081526004016110f090613009565b60405180910390fd5b611103600061206c565b565b600260009054906101000a900473ffffffffffffffffffffffffffffffffffffffff1681565b60008060009054906101000a900473ffffffffffffffffffffffffffffffffffffffff16905090565b6000600754905090565b611166612064565b73ffffffffffffffffffffffffffffffffffffffff1661118461112b565b73ffffffffffffffffffffffffffffffffffffffff16146111da576040517f08c379a00000000000000000000000000000000000000000000000000000000081526004016111d190613009565b60405180910390fd5b80600160006101000a81548173ffffffffffffffffffffffffffffffffffffffff021916908373ffffffffffffffffffffffffffffffffffffffff16021790555050565b6000600360009054906101000a900473ffffffffffffffffffffffffffffffffffffffff1673ffffffffffffffffffffffffffffffffffffffff166368c31dd5846040518263ffffffff1660e01b815260040161127b9190612eac565b60206040518083038186803b15801561129357600080fd5b505afa1580156112a7573d6000803e3d6000fd5b505050506040513d601f19601f820116820180604052508101906112cb9190612b3a565b90506000600360009054906101000a900473ffffffffffffffffffffffffffffffffffffffff1673ffffffffffffffffffffffffffffffffffffffff1663a569e571856040518263ffffffff1660e01b815260040161132a9190612eac565b60206040518083038186803b15801561134257600080fd5b505afa158015611356573d6000803e3d6000fd5b505050506040513d601f19601f8201168201806040525081019061137a9190612b3a565b905081806113855750805b6113c4576040517f08c379a00000000000000000000000000000000000000000000000000000000081526004016113bb90613049565b60405180910390fd5b6113d98560075461204e90919063ffffffff16565b60078190555061140c3330878773ffffffffffffffffffffffffffffffffffffffff16612130909392919063ffffffff16565b811561150157600360009054906101000a900473ffffffffffffffffffffffffffffffffffffffff1673ffffffffffffffffffffffffffffffffffffffff1663124154ca336040518263ffffffff1660e01b815260040161146d9190612eac565b60206040518083038186803b15801561148557600080fd5b505afa158015611499573d6000803e3d6000fd5b505050506040513d601f19601f820116820180604052508101906114bd9190612b3a565b6114fc576040517f08c379a00000000000000000000000000000000000000000000000000000000081526004016114f390612fc9565b60405180910390fd5b6115ec565b600360009054906101000a900473ffffffffffffffffffffffffffffffffffffffff1673ffffffffffffffffffffffffffffffffffffffff1663a1210a2d336040518263ffffffff1660e01b815260040161155c9190612eac565b60206040518083038186803b15801561157457600080fd5b505afa158015611588573d6000803e3d6000fd5b505050506040513d601f19601f820116820180604052508101906115ac9190612b3a565b6115eb576040517f08c379a00000000000000000000000000000000000000000000000000000000081526004016115e290612fc9565b60405180910390fd5b5b6116018360085461204e90919063ffffffff16565b6008819055507f000000000000000000000000000000000000000000000000000000000000000073ffffffffffffffffffffffffffffffffffffffff166340c10f1933856040518363ffffffff1660e01b8152600401611662929190612efe565b600060405180830381600087803b15801561167c57600080fd5b505af1158015611690573d6000803e3d6000fd5b505050506007547f93bb8edd35984706eee1b92541281f7f62d33c01c5b2ec0929a113603bd21d6660405160405180910390a28373ffffffffffffffffffffffffffffffffffffffff167f90890809c654f11d6e72a28fa60149770a0d11ec6c92319d6ceb2bb0a4ea1a15868560405161170b9291906130e4565b60405180910390a25050505050565b6000806117d5633b9aca00600260009054906101000a900473ffffffffffffffffffffffffffffffffffffffff1673ffffffffffffffffffffffffffffffffffffffff1663ac3b992a6040518163ffffffff1660e01b8152600401602060405180830381600087803b15801561178f57600080fd5b505af11580156117a3573d6000803e3d6000fd5b505050506040513d601f19601f820116820180604052508101906117c79190612b8c565b6121b990919063ffffffff16565b90506117e96117e484836121cf565b6123d6565b915050919050565b600360009054906101000a900473ffffffffffffffffffffffffffffffffffffffff1673ffffffffffffffffffffffffffffffffffffffff1663ee4e19a1336040518263ffffffff1660e01b815260040161184c9190612eac565b60206040518083038186803b15801561186457600080fd5b505afa158015611878573d6000803e3d6000fd5b505050506040513d601f19601f8201168201806040525081019061189c9190612b3a565b6118db576040517f08c379a00000000000000000000000000000000000000000000000000000000081526004016118d290612f69565b60405180910390fd5b600360009054906101000a900473ffffffffffffffffffffffffffffffffffffffff1673ffffffffffffffffffffffffffffffffffffffff166368c31dd5826040518263ffffffff1660e01b81526004016119369190612eac565b60206040518083038186803b15801561194e57600080fd5b505afa158015611962573d6000803e3d6000fd5b505050506040513d601f19601f820116820180604052508101906119869190612b3a565b6119c5576040517f08c379a00000000000000000000000000000000000000000000000000000000081526004016119bc90613049565b60405180910390fd5b6119da8260075461204e90919063ffffffff16565b600781905550611a0d3330848473ffffffffffffffffffffffffffffffffffffffff16612130909392919063ffffffff16565b6000611a25611a20838560016000611b98565b61171a565b9050611a7981600660003373ffffffffffffffffffffffffffffffffffffffff1673ffffffffffffffffffffffffffffffffffffffff16815260200190815260200160002054611fb290919063ffffffff16565b600660003373ffffffffffffffffffffffffffffffffffffffff1673ffffffffffffffffffffffffffffffffffffffff16815260200190815260200160002081905550611ad181600954611fb290919063ffffffff16565b6009819055506007547f93bb8edd35984706eee1b92541281f7f62d33c01c5b2ec0929a113603bd21d6660405160405180910390a28173ffffffffffffffffffffffffffffffffffffffff163373ffffffffffffffffffffffffffffffffffffffff167fc6d98eecfc9c78ab62c89a82950079b54874749f1f6f24090f7acc758bc2f3098584604051611b659291906130e4565b60405180910390a3505050565b600360009054906101000a900473ffffffffffffffffffffffffffffffffffffffff1681565b60008215611cfe57611cf78573ffffffffffffffffffffffffffffffffffffffff1663313ce5676040518163ffffffff1660e01b815260040160206040518083038186803b158015611be957600080fd5b505afa158015611bfd573d6000803e3d6000fd5b505050506040513d601f19601f82011682018060405250810190611c219190612c40565b600a611c2d9190613219565b611ce97f000000000000000000000000000000000000000000000000000000000000000073ffffffffffffffffffffffffffffffffffffffff1663313ce5676040518163ffffffff1660e01b815260040160206040518083038186803b158015611c9657600080fd5b505afa158015611caa573d6000803e3d6000fd5b505050506040513d601f19601f82011682018060405250810190611cce9190612c40565b600a611cda9190613219565b876121b990919063ffffffff16565b61241490919063ffffffff16565b9050611df2565b8115611df157600560008673ffffffffffffffffffffffffffffffffffffffff1673ffffffffffffffffffffffffffffffffffffffff16815260200190815260200160002060009054906101000a900473ffffffffffffffffffffffffffffffffffffffff1673ffffffffffffffffffffffffffffffffffffffff16634249719f86866040518363ffffffff1660e01b8152600401611d9e929190612efe565b60206040518083038186803b158015611db657600080fd5b505afa158015611dca573d6000803e3d6000fd5b505050506040513d601f19601f82011682018060405250810190611dee9190612b8c565b90505b5b949350505050565b611e02612064565b73ffffffffffffffffffffffffffffffffffffffff16611e2061112b565b73ffffffffffffffffffffffffffffffffffffffff1614611e76576040517f08c379a0000000000000000000000000000000000000000000000000000000008152600401611e6d90613009565b60405180910390fd5b600073ffffffffffffffffffffffffffffffffffffffff168173ffffffffffffffffffffffffffffffffffffffff161415611ee6576040517f08c379a0000000000000000000000000000000000000000000000000000000008152600401611edd90612f49565b60405180910390fd5b611eef8161206c565b50565b611efa612064565b73ffffffffffffffffffffffffffffffffffffffff16611f1861112b565b73ffffffffffffffffffffffffffffffffffffffff1614611f6e576040517f08c379a0000000000000000000000000000000000000000000000000000000008152600401611f6590613009565b60405180910390fd5b80600260006101000a81548173ffffffffffffffffffffffffffffffffffffffff021916908373ffffffffffffffffffffffffffffffffffffffff16021790555050565b60008183611fc09190613391565b905092915050565b6120498363a9059cbb60e01b8484604051602401611fe7929190612efe565b604051602081830303815290604052907bffffffffffffffffffffffffffffffffffffffffffffffffffffffff19166020820180517bffffffffffffffffffffffffffffffffffffffffffffffffffffffff838183161783525050505061242a565b505050565b6000818361205c919061313f565b905092915050565b600033905090565b60008060009054906101000a900473ffffffffffffffffffffffffffffffffffffffff169050816000806101000a81548173ffffffffffffffffffffffffffffffffffffffff021916908373ffffffffffffffffffffffffffffffffffffffff1602179055508173ffffffffffffffffffffffffffffffffffffffff168173ffffffffffffffffffffffffffffffffffffffff167f8be0079c531659141344cd1fd0a4f28419497f9722a3daafe3b4186f6b6457e060405160405180910390a35050565b6121b3846323b872dd60e01b85858560405160240161215193929190612ec7565b604051602081830303815290604052907bffffffffffffffffffffffffffffffffffffffffffffffffffffffff19166020820180517bffffffffffffffffffffffffffffffffffffffffffffffffffffffff838183161783525050505061242a565b50505050565b600081836121c79190613337565b905092915050565b6121d76129c3565b6000821161221a576040517f08c379a000000000000000000000000000000000000000000000000000000000815260040161221190612fa9565b60405180910390fd5b600083141561225857604051806020016040528060007bffffffffffffffffffffffffffffffffffffffffffffffffffffffff1681525090506123d0565b71ffffffffffffffffffffffffffffffffffff8016831161232057600082607060ff1685901b6122889190613195565b90507bffffffffffffffffffffffffffffffffffffffffffffffffffffffff80168111156122eb576040517f08c379a00000000000000000000000000000000000000000000000000000000081526004016122e290613029565b60405180910390fd5b6040518060200160405280827bffffffffffffffffffffffffffffffffffffffffffffffffffffffff168152509150506123d0565b600061233c846e010000000000000000000000000000856124f1565b90507bffffffffffffffffffffffffffffffffffffffffffffffffffffffff801681111561239f576040517f08c379a000000000000000000000000000000000000000000000000000000000815260040161239690613029565b60405180910390fd5b6040518060200160405280827bffffffffffffffffffffffffffffffffffffffffffffffffffffffff168152509150505b92915050565b60006612725dd1d243ab82600001517bffffffffffffffffffffffffffffffffffffffffffffffffffffffff1661240d9190613195565b9050919050565b600081836124229190613195565b905092915050565b600061248c826040518060400160405280602081526020017f5361666545524332303a206c6f772d6c6576656c2063616c6c206661696c65648152508573ffffffffffffffffffffffffffffffffffffffff166125bf9092919063ffffffff16565b90506000815111156124ec57808060200190518101906124ac9190612b3a565b6124eb576040517f08c379a00000000000000000000000000000000000000000000000000000000081526004016124e290613089565b60405180910390fd5b5b505050565b600080600061250086866125d7565b915091506000848061253b577f4e487b7100000000000000000000000000000000000000000000000000000000600052601260045260246000fd5b868809905082811115612558576001826125559190613391565b91505b80836125649190613391565b92508482106125a8576040517f08c379a000000000000000000000000000000000000000000000000000000000815260040161259f90612fe9565b60405180910390fd5b6125b3838387612672565b93505050509392505050565b60606125ce8484600085612825565b90509392505050565b60008060007fffffffffffffffffffffffffffffffffffffffffffffffffffffffffffffffff80612631577f4e487b7100000000000000000000000000000000000000000000000000000000600052601260045260246000fd5b848609905083856126429190613337565b925082816126509190613391565b91508281101561266a576001826126679190613391565b91505b509250929050565b60008060018319612683919061313f565b8316905080836126939190613195565b925080856126a19190613195565b9450600181600183196126b4919061313f565b6126be9190613195565b6126c8919061313f565b846126d39190613337565b856126de919061313f565b945060006001905080846126f29190613337565b60026126fe9190613391565b816127099190613337565b905080846127179190613337565b60026127239190613391565b8161272e9190613337565b9050808461273c9190613337565b60026127489190613391565b816127539190613337565b905080846127619190613337565b600261276d9190613391565b816127789190613337565b905080846127869190613337565b60026127929190613391565b8161279d9190613337565b905080846127ab9190613337565b60026127b79190613391565b816127c29190613337565b905080846127d09190613337565b60026127dc9190613391565b816127e79190613337565b905080846127f59190613337565b60026128019190613391565b8161280c9190613337565b9050808661281a9190613337565b925050509392505050565b60608247101561286a576040517f08c379a000000000000000000000000000000000000000000000000000000000815260040161286190612f89565b60405180910390fd5b61287385612939565b6128b2576040517f08c379a00000000000000000000000000000000000000000000000000000000081526004016128a990613069565b60405180910390fd5b6000808673ffffffffffffffffffffffffffffffffffffffff1685876040516128db9190612e95565b60006040518083038185875af1925050503d8060008114612918576040519150601f19603f3d011682016040523d82523d6000602084013e61291d565b606091505b509150915061292d82828661295c565b92505050949350505050565b6000808273ffffffffffffffffffffffffffffffffffffffff163b119050919050565b6060831561296c578290506129bc565b60008351111561297f5782518084602001fd5b816040517f08c379a00000000000000000000000000000000000000000000000000000000081526004016129b39190612f27565b60405180910390fd5b9392505050565b604051806020016040528060007bffffffffffffffffffffffffffffffffffffffffffffffffffffffff1681525090565b600081359050612a038161374d565b92915050565b600081359050612a1881613764565b92915050565b600081519050612a2d81613764565b92915050565b600081359050612a428161377b565b92915050565b600081519050612a578161377b565b92915050565b600081519050612a6c81613792565b92915050565b600060208284031215612a8457600080fd5b6000612a92848285016129f4565b91505092915050565b60008060408385031215612aae57600080fd5b6000612abc858286016129f4565b9250506020612acd85828601612a33565b9150509250929050565b60008060008060808587031215612aed57600080fd5b6000612afb878288016129f4565b9450506020612b0c87828801612a33565b9350506040612b1d87828801612a09565b9250506060612b2e87828801612a09565b91505092959194509250565b600060208284031215612b4c57600080fd5b6000612b5a84828501612a1e565b91505092915050565b600060208284031215612b7557600080fd5b6000612b8384828501612a33565b91505092915050565b600060208284031215612b9e57600080fd5b6000612bac84828501612a48565b91505092915050565b60008060408385031215612bc857600080fd5b6000612bd685828601612a33565b9250506020612be7858286016129f4565b9150509250929050565b600080600060608486031215612c0657600080fd5b6000612c1486828701612a33565b9350506020612c25868287016129f4565b9250506040612c3686828701612a33565b9150509250925092565b600060208284031215612c5257600080fd5b6000612c6084828501612a5d565b91505092915050565b612c72816133c5565b82525050565b6000612c838261310d565b612c8d8185613123565b9350612c9d81856020860161341a565b80840191505092915050565b6000612cb482613118565b612cbe818561312e565b9350612cce81856020860161341a565b612cd7816134ab565b840191505092915050565b6000612cef60268361312e565b9150612cfa826134c9565b604082019050919050565b6000612d1260098361312e565b9150612d1d82613518565b602082019050919050565b6000612d3560268361312e565b9150612d4082613541565b604082019050919050565b6000612d5860268361312e565b9150612d6382613590565b604082019050919050565b6000612d7b60098361312e565b9150612d86826135df565b602082019050919050565b6000612d9e601a8361312e565b9150612da982613608565b602082019050919050565b6000612dc160208361312e565b9150612dcc82613631565b602082019050919050565b6000612de4601e8361312e565b9150612def8261365a565b602082019050919050565b6000612e0760028361312e565b9150612e1282613683565b602082019050919050565b6000612e2a601d8361312e565b9150612e35826136ac565b602082019050919050565b6000612e4d602a8361312e565b9150612e58826136d5565b604082019050919050565b6000612e7060128361312e565b9150612e7b82613724565b602082019050919050565b612e8f81613403565b82525050565b6000612ea18284612c78565b915081905092915050565b6000602082019050612ec16000830184612c69565b92915050565b6000606082019050612edc6000830186612c69565b612ee96020830185612c69565b612ef66040830184612e86565b949350505050565b6000604082019050612f136000830185612c69565b612f206020830184612e86565b9392505050565b60006020820190508181036000830152612f418184612ca9565b905092915050565b60006020820190508181036000830152612f6281612ce2565b9050919050565b60006020820190508181036000830152612f8281612d05565b9050919050565b60006020820190508181036000830152612fa281612d28565b9050919050565b60006020820190508181036000830152612fc281612d4b565b9050919050565b60006020820190508181036000830152612fe281612d6e565b9050919050565b6000602082019050818103600083015261300281612d91565b9050919050565b6000602082019050818103600083015261302281612db4565b9050919050565b6000602082019050818103600083015261304281612dd7565b9050919050565b6000602082019050818103600083015261306281612dfa565b9050919050565b6000602082019050818103600083015261308281612e1d565b9050919050565b600060208201905081810360008301526130a281612e40565b9050919050565b600060208201905081810360008301526130c281612e63565b9050919050565b60006020820190506130de6000830184612e86565b92915050565b60006040820190506130f96000830185612e86565b6131066020830184612e86565b9392505050565b600081519050919050565b600081519050919050565b600081905092915050565b600082825260208201905092915050565b600061314a82613403565b915061315583613403565b9250827fffffffffffffffffffffffffffffffffffffffffffffffffffffffffffffffff0382111561318a5761318961344d565b5b828201905092915050565b60006131a082613403565b91506131ab83613403565b9250826131bb576131ba61347c565b5b828204905092915050565b6000808291508390505b6001851115613210578086048111156131ec576131eb61344d565b5b60018516156131fb5780820291505b8081029050613209856134bc565b94506131d0565b94509492505050565b600061322482613403565b915061322f8361340d565b925061325c7fffffffffffffffffffffffffffffffffffffffffffffffffffffffffffffffff8484613264565b905092915050565b6000826132745760019050613330565b816132825760009050613330565b816001811461329857600281146132a2576132d1565b6001915050613330565b60ff8411156132b4576132b361344d565b5b8360020a9150848211156132cb576132ca61344d565b5b50613330565b5060208310610133831016604e8410600b84101617156133065782820a9050838111156133015761330061344d565b5b613330565b61331384848460016131c6565b9250905081840481111561332a5761332961344d565b5b81810290505b9392505050565b600061334282613403565b915061334d83613403565b9250817fffffffffffffffffffffffffffffffffffffffffffffffffffffffffffffffff04831182151516156133865761338561344d565b5b828202905092915050565b600061339c82613403565b91506133a783613403565b9250828210156133ba576133b961344d565b5b828203905092915050565b60006133d0826133e3565b9050919050565b60008115159050919050565b600073ffffffffffffffffffffffffffffffffffffffff82169050919050565b6000819050919050565b600060ff82169050919050565b60005b8381101561343857808201518184015260208101905061341d565b83811115613447576000848401525b50505050565b7f4e487b7100000000000000000000000000000000000000000000000000000000600052601160045260246000fd5b7f4e487b7100000000000000000000000000000000000000000000000000000000600052601260045260246000fd5b6000601f19601f8301169050919050565b60008160011c9050919050565b7f4f776e61626c653a206e6577206f776e657220697320746865207a65726f206160008201527f6464726573730000000000000000000000000000000000000000000000000000602082015250565b7f4e417070726f7665640000000000000000000000000000000000000000000000600082015250565b7f416464726573733a20696e73756666696369656e742062616c616e636520666f60008201527f722063616c6c0000000000000000000000000000000000000000000000000000602082015250565b7f4669786564506f696e743a3a6672616374696f6e3a206469766973696f6e206260008201527f79207a65726f0000000000000000000000000000000000000000000000000000602082015250565b7f4e415050524f5645440000000000000000000000000000000000000000000000600082015250565b7f46756c6c4d6174683a3a6d756c4469763a206f766572666c6f77000000000000600082015250565b7f4f776e61626c653a2063616c6c6572206973206e6f7420746865206f776e6572600082015250565b7f4669786564506f696e743a3a6672616374696f6e3a206f766572666c6f770000600082015250565b7f4e41000000000000000000000000000000000000000000000000000000000000600082015250565b7f416464726573733a2063616c6c20746f206e6f6e2d636f6e7472616374000000600082015250565b7f5361666545524332303a204552433230206f7065726174696f6e20646964206e60008201527f6f74207375636365656400000000000000000000000000000000000000000000602082015250565b7f457863656564732064656274206c696d69740000000000000000000000000000600082015250565b613756816133c5565b811461376157600080fd5b50565b61376d816133d7565b811461377857600080fd5b50565b61378481613403565b811461378f57600080fd5b50565b61379b8161340d565b81146137a657600080fd5b5056fea2646970667358221220a1237c7d09105bae0cb0a8994565e82a6ee349922b0c231c009804dda7ee1b0264736f6c63430008040033",
  "linkReferences": {},
  "deployedLinkReferences": {}
}