{
  "_format": "hh-sol-artifact-1",
  "contractName": "TreasuryHelper",
  "sourceName": "contracts/coreContracts/TreasuryHelper.sol",
  "abi": [
    {
      "inputs": [
        {
          "internalType": "address",
          "name": "_ORFI",
          "type": "address"
        },
        {
          "internalType": "address",
          "name": "_MIM",
          "type": "address"
        },
        {
          "internalType": "uint256",
          "name": "_blocksNeededForQueue",
          "type": "uint256"
        }
      ],
      "stateMutability": "nonpayable",
      "type": "constructor"
    },
    {
      "anonymous": false,
      "inputs": [
        {
          "indexed": true,
          "internalType": "enum TreasuryHelper.MANAGING",
          "name": "managing",
          "type": "uint8"
        },
        {
          "indexed": false,
          "internalType": "address",
          "name": "activated",
          "type": "address"
        },
        {
          "indexed": false,
          "internalType": "bool",
          "name": "result",
          "type": "bool"
        }
      ],
      "name": "ChangeActivated",
      "type": "event"
    },
    {
      "anonymous": false,
      "inputs": [
        {
          "indexed": true,
          "internalType": "enum TreasuryHelper.MANAGING",
          "name": "managing",
          "type": "uint8"
        },
        {
          "indexed": false,
          "internalType": "address",
          "name": "queued",
          "type": "address"
        }
      ],
      "name": "ChangeQueued",
      "type": "event"
    },
    {
      "anonymous": false,
      "inputs": [
        {
          "indexed": true,
          "internalType": "address",
          "name": "previousOwner",
          "type": "address"
        },
        {
          "indexed": true,
          "internalType": "address",
          "name": "newOwner",
          "type": "address"
        }
      ],
      "name": "OwnershipTransferred",
      "type": "event"
    },
    {
      "anonymous": false,
      "inputs": [
        {
          "indexed": true,
          "internalType": "uint256",
          "name": "totalReserves",
          "type": "uint256"
        }
      ],
      "name": "ReservesAudited",
      "type": "event"
    },
    {
      "anonymous": false,
      "inputs": [
        {
          "indexed": true,
          "internalType": "uint256",
          "name": "totalReserves",
          "type": "uint256"
        }
      ],
      "name": "ReservesUpdated",
      "type": "event"
    },
    {
      "inputs": [
        {
          "internalType": "address",
          "name": "",
          "type": "address"
        }
      ],
      "name": "LiquidityDepositorQueue",
      "outputs": [
        {
          "internalType": "uint256",
          "name": "",
          "type": "uint256"
        }
      ],
      "stateMutability": "view",
      "type": "function"
    },
    {
      "inputs": [
        {
          "internalType": "address",
          "name": "",
          "type": "address"
        }
      ],
      "name": "LiquidityManagerQueue",
      "outputs": [
        {
          "internalType": "uint256",
          "name": "",
          "type": "uint256"
        }
      ],
      "stateMutability": "view",
      "type": "function"
    },
    {
      "inputs": [
        {
          "internalType": "address",
          "name": "",
          "type": "address"
        }
      ],
      "name": "LiquidityTokenQueue",
      "outputs": [
        {
          "internalType": "uint256",
          "name": "",
          "type": "uint256"
        }
      ],
      "stateMutability": "view",
      "type": "function"
    },
    {
      "inputs": [],
      "name": "ORFI",
      "outputs": [
        {
          "internalType": "address",
          "name": "",
          "type": "address"
        }
      ],
      "stateMutability": "view",
      "type": "function"
    },
    {
      "inputs": [
        {
          "internalType": "address",
          "name": "",
          "type": "address"
        }
      ],
      "name": "ReserveManagerQueue",
      "outputs": [
        {
          "internalType": "uint256",
          "name": "",
          "type": "uint256"
        }
      ],
      "stateMutability": "view",
      "type": "function"
    },
    {
      "inputs": [],
      "name": "blocksNeededForQueue",
      "outputs": [
        {
          "internalType": "uint256",
          "name": "",
          "type": "uint256"
        }
      ],
      "stateMutability": "view",
      "type": "function"
    },
    {
      "inputs": [
        {
          "internalType": "address",
          "name": "",
          "type": "address"
        }
      ],
      "name": "bondCalculator",
      "outputs": [
        {
          "internalType": "address",
          "name": "",
          "type": "address"
        }
      ],
      "stateMutability": "view",
      "type": "function"
    },
    {
      "inputs": [
        {
          "internalType": "address",
          "name": "",
          "type": "address"
        }
      ],
      "name": "debtorQueue",
      "outputs": [
        {
          "internalType": "uint256",
          "name": "",
          "type": "uint256"
        }
      ],
      "stateMutability": "view",
      "type": "function"
    },
    {
      "inputs": [
        {
          "internalType": "uint256",
          "name": "",
          "type": "uint256"
        }
      ],
      "name": "debtors",
      "outputs": [
        {
          "internalType": "address",
          "name": "",
          "type": "address"
        }
      ],
      "stateMutability": "view",
      "type": "function"
    },
    {
      "inputs": [
        {
          "internalType": "address",
          "name": "",
          "type": "address"
        }
      ],
      "name": "isDebtor",
      "outputs": [
        {
          "internalType": "bool",
          "name": "",
          "type": "bool"
        }
      ],
      "stateMutability": "view",
      "type": "function"
    },
    {
      "inputs": [
        {
          "internalType": "address",
          "name": "",
          "type": "address"
        }
      ],
      "name": "isLiquidityDepositor",
      "outputs": [
        {
          "internalType": "bool",
          "name": "",
          "type": "bool"
        }
      ],
      "stateMutability": "view",
      "type": "function"
    },
    {
      "inputs": [
        {
          "internalType": "address",
          "name": "",
          "type": "address"
        }
      ],
      "name": "isLiquidityManager",
      "outputs": [
        {
          "internalType": "bool",
          "name": "",
          "type": "bool"
        }
      ],
      "stateMutability": "view",
      "type": "function"
    },
    {
      "inputs": [
        {
          "internalType": "address",
          "name": "",
          "type": "address"
        }
      ],
      "name": "isLiquidityToken",
      "outputs": [
        {
          "internalType": "bool",
          "name": "",
          "type": "bool"
        }
      ],
      "stateMutability": "view",
      "type": "function"
    },
    {
      "inputs": [
        {
          "internalType": "address",
          "name": "",
          "type": "address"
        }
      ],
      "name": "isReserveDepositor",
      "outputs": [
        {
          "internalType": "bool",
          "name": "",
          "type": "bool"
        }
      ],
      "stateMutability": "view",
      "type": "function"
    },
    {
      "inputs": [
        {
          "internalType": "address",
          "name": "",
          "type": "address"
        }
      ],
      "name": "isReserveManager",
      "outputs": [
        {
          "internalType": "bool",
          "name": "",
          "type": "bool"
        }
      ],
      "stateMutability": "view",
      "type": "function"
    },
    {
      "inputs": [
        {
          "internalType": "address",
          "name": "",
          "type": "address"
        }
      ],
      "name": "isReserveSpender",
      "outputs": [
        {
          "internalType": "bool",
          "name": "",
          "type": "bool"
        }
      ],
      "stateMutability": "view",
      "type": "function"
    },
    {
      "inputs": [
        {
          "internalType": "address",
          "name": "",
          "type": "address"
        }
      ],
      "name": "isReserveToken",
      "outputs": [
        {
          "internalType": "bool",
          "name": "",
          "type": "bool"
        }
      ],
      "stateMutability": "view",
      "type": "function"
    },
    {
      "inputs": [
        {
          "internalType": "address",
          "name": "",
          "type": "address"
        }
      ],
      "name": "isRewardManager",
      "outputs": [
        {
          "internalType": "bool",
          "name": "",
          "type": "bool"
        }
      ],
      "stateMutability": "view",
      "type": "function"
    },
    {
      "inputs": [
        {
          "internalType": "uint256",
          "name": "",
          "type": "uint256"
        }
      ],
      "name": "liquidityDepositors",
      "outputs": [
        {
          "internalType": "address",
          "name": "",
          "type": "address"
        }
      ],
      "stateMutability": "view",
      "type": "function"
    },
    {
      "inputs": [
        {
          "internalType": "uint256",
          "name": "",
          "type": "uint256"
        }
      ],
      "name": "liquidityManagers",
      "outputs": [
        {
          "internalType": "address",
          "name": "",
          "type": "address"
        }
      ],
      "stateMutability": "view",
      "type": "function"
    },
    {
      "inputs": [
        {
          "internalType": "uint256",
          "name": "",
          "type": "uint256"
        }
      ],
      "name": "liquidityTokens",
      "outputs": [
        {
          "internalType": "address",
          "name": "",
          "type": "address"
        }
      ],
      "stateMutability": "view",
      "type": "function"
    },
    {
      "inputs": [],
      "name": "owner",
      "outputs": [
        {
          "internalType": "address",
          "name": "",
          "type": "address"
        }
      ],
      "stateMutability": "view",
      "type": "function"
    },
    {
      "inputs": [
        {
          "internalType": "enum TreasuryHelper.MANAGING",
          "name": "_managing",
          "type": "uint8"
        },
        {
          "internalType": "address",
          "name": "_address",
          "type": "address"
        }
      ],
      "name": "queue",
      "outputs": [
        {
          "internalType": "bool",
          "name": "",
          "type": "bool"
        }
      ],
      "stateMutability": "nonpayable",
      "type": "function"
    },
    {
      "inputs": [],
      "name": "renounceOwnership",
      "outputs": [],
      "stateMutability": "nonpayable",
      "type": "function"
    },
    {
      "inputs": [
        {
          "internalType": "address",
          "name": "",
          "type": "address"
        }
      ],
      "name": "reserveDepositorQueue",
      "outputs": [
        {
          "internalType": "uint256",
          "name": "",
          "type": "uint256"
        }
      ],
      "stateMutability": "view",
      "type": "function"
    },
    {
      "inputs": [
        {
          "internalType": "uint256",
          "name": "",
          "type": "uint256"
        }
      ],
      "name": "reserveDepositors",
      "outputs": [
        {
          "internalType": "address",
          "name": "",
          "type": "address"
        }
      ],
      "stateMutability": "view",
      "type": "function"
    },
    {
      "inputs": [
        {
          "internalType": "uint256",
          "name": "",
          "type": "uint256"
        }
      ],
      "name": "reserveManagers",
      "outputs": [
        {
          "internalType": "address",
          "name": "",
          "type": "address"
        }
      ],
      "stateMutability": "view",
      "type": "function"
    },
    {
      "inputs": [
        {
          "internalType": "address",
          "name": "",
          "type": "address"
        }
      ],
      "name": "reserveSpenderQueue",
      "outputs": [
        {
          "internalType": "uint256",
          "name": "",
          "type": "uint256"
        }
      ],
      "stateMutability": "view",
      "type": "function"
    },
    {
      "inputs": [
        {
          "internalType": "uint256",
          "name": "",
          "type": "uint256"
        }
      ],
      "name": "reserveSpenders",
      "outputs": [
        {
          "internalType": "address",
          "name": "",
          "type": "address"
        }
      ],
      "stateMutability": "view",
      "type": "function"
    },
    {
      "inputs": [
        {
          "internalType": "address",
          "name": "",
          "type": "address"
        }
      ],
      "name": "reserveTokenQueue",
      "outputs": [
        {
          "internalType": "uint256",
          "name": "",
          "type": "uint256"
        }
      ],
      "stateMutability": "view",
      "type": "function"
    },
    {
      "inputs": [
        {
          "internalType": "uint256",
          "name": "",
          "type": "uint256"
        }
      ],
      "name": "reserveTokens",
      "outputs": [
        {
          "internalType": "address",
          "name": "",
          "type": "address"
        }
      ],
      "stateMutability": "view",
      "type": "function"
    },
    {
      "inputs": [
        {
          "internalType": "address",
          "name": "",
          "type": "address"
        }
      ],
      "name": "rewardManagerQueue",
      "outputs": [
        {
          "internalType": "uint256",
          "name": "",
          "type": "uint256"
        }
      ],
      "stateMutability": "view",
      "type": "function"
    },
    {
      "inputs": [
        {
          "internalType": "uint256",
          "name": "",
          "type": "uint256"
        }
      ],
      "name": "rewardManagers",
      "outputs": [
        {
          "internalType": "address",
          "name": "",
          "type": "address"
        }
      ],
      "stateMutability": "view",
      "type": "function"
    },
    {
      "inputs": [],
      "name": "sORFI",
      "outputs": [
        {
          "internalType": "address",
          "name": "",
          "type": "address"
        }
      ],
      "stateMutability": "view",
      "type": "function"
    },
    {
      "inputs": [],
      "name": "sORFIQueue",
      "outputs": [
        {
          "internalType": "uint256",
          "name": "",
          "type": "uint256"
        }
      ],
      "stateMutability": "view",
      "type": "function"
    },
    {
      "inputs": [
        {
          "internalType": "address",
          "name": "_treasuryAddress",
          "type": "address"
        }
      ],
      "name": "setTreasuryAddress",
      "outputs": [],
      "stateMutability": "nonpayable",
      "type": "function"
    },
    {
      "inputs": [
        {
          "internalType": "enum TreasuryHelper.MANAGING",
          "name": "_managing",
          "type": "uint8"
        },
        {
          "internalType": "address",
          "name": "_address",
          "type": "address"
        },
        {
          "internalType": "address",
          "name": "_calculator",
          "type": "address"
        }
      ],
      "name": "toggle",
      "outputs": [
        {
          "internalType": "bool",
          "name": "",
          "type": "bool"
        }
      ],
      "stateMutability": "nonpayable",
      "type": "function"
    },
    {
      "inputs": [
        {
          "internalType": "address",
          "name": "newOwner",
          "type": "address"
        }
      ],
      "name": "transferOwnership",
      "outputs": [],
      "stateMutability": "nonpayable",
      "type": "function"
    },
    {
      "inputs": [],
      "name": "treasury",
      "outputs": [
        {
          "internalType": "contract ITreasury",
          "name": "",
          "type": "address"
        }
      ],
      "stateMutability": "view",
      "type": "function"
    },
    {
      "inputs": [
        {
          "internalType": "address",
          "name": "_token",
          "type": "address"
        },
        {
          "internalType": "uint256",
          "name": "_amount",
          "type": "uint256"
        }
      ],
      "name": "valueOfToken",
      "outputs": [
        {
          "internalType": "uint256",
          "name": "value_",
          "type": "uint256"
        }
      ],
      "stateMutability": "view",
      "type": "function"
    }
  ],
  "bytecode": "0x60c06040523480156200001157600080fd5b5060405162001ffc38038062001ffc833981016040819052620000349162000156565b6200003f33620000e9565b6001600160a01b0383166200005357600080fd5b6001600160601b0319606084901b166080526001600160a01b0382166200007957600080fd5b6002805460018181019092557f405787fa12a823e0f2b7631cc41b3ba8828b3321ca811111fa75cd3aa3bb5ace0180546001600160a01b039094166001600160a01b031990941684179055600092835260036020526040909220805460ff191690921790915560a0525062000196565b600080546001600160a01b038381166001600160a01b0319831681178455604051919092169283917f8be0079c531659141344cd1fd0a4f28419497f9722a3daafe3b4186f6b6457e09190a35050565b80516001600160a01b03811681146200015157600080fd5b919050565b6000806000606084860312156200016b578283fd5b620001768462000139565b9250620001866020850162000139565b9150604084015190509250925092565b60805160601c60a051611df06200020c6000396000818161058401528181610a6401528181610ad401528181610b4401528181610bb601528181610c2f01528181610c9f01528181610d1101528181610d8301528181610df30152610e6301526000818161039c015261088b0152611df06000f3fe608060405234801561001057600080fd5b50600436106102485760003560e01c8063932cc8c31161013b578063d1b317e5116100b8578063f2fde38b1161007c578063f2fde38b14610635578063fb93958814610648578063fbfd393b14610668578063fd1ec0101461067b578063fff9ee871461068e57600080fd5b8063d1b317e5146105a6578063df89b344146105b9578063e83afee3146105dc578063ebd83cd8146105ef578063ee4e19a11461061257600080fd5b8063b5b1d560116100ff578063b5b1d56014610519578063c24ad43e1461052c578063cd85641a1461054c578063d031370b1461056c578063d07f390f1461057f57600080fd5b8063932cc8c314610473578063a1210a2d14610493578063a569e571146104b6578063ab319c9a146104d9578063b1bd38b0146104f957600080fd5b80636b5e40a7116101c9578063869871bf1161018d578063869871bf146103f957806387d67dff1461040c5780638da5cb5b1461042f5780638f59c727146104405780638f6a7b571461046057600080fd5b80636b5e40a7146103845780636d90e5b81461039757806370a0502a146103be578063715018a6146103d1578063788c6c01146103d957600080fd5b80634b290d30116102105780634b290d30146103035780634e83423c1461031657806361d027b3146103395780636605bfda1461034c57806368c31dd51461036157600080fd5b80630619aff11461024d578063124154ca1461027d5780631af4da70146102b0578063437f7912146102d957806345b609c3146102ec575b600080fd5b61026061025b366004611bbe565b6106ae565b6040516001600160a01b0390911681526020015b60405180910390f35b6102a061028b366004611b07565b60066020526000908152604090205460ff1681565b6040519015158152602001610274565b6102606102be366004611b07565b6011602052600090815260409020546001600160a01b031681565b6102606102e7366004611bbe565b6106d8565b6102f5601f5481565b604051908152602001610274565b601e54610260906001600160a01b031681565b6102a0610324366004611b07565b601c6020526000908152604090205460ff1681565b600154610260906001600160a01b031681565b61035f61035a366004611b07565b6106e8565b005b6102a061036f366004611b07565b60036020526000908152604090205460ff1681565b610260610392366004611bbe565b610750565b6102607f000000000000000000000000000000000000000000000000000000000000000081565b6102606103cc366004611bbe565b610760565b61035f610770565b6102f56103e7366004611b07565b60046020526000908152604090205481565b610260610407366004611bbe565b6107a6565b6102a061041a366004611b07565b60096020526000908152604090205460ff1681565b6000546001600160a01b0316610260565b6102f561044e366004611b07565b600d6020526000908152604090205481565b61026061046e366004611bbe565b6107b6565b6102f5610481366004611b07565b60076020526000908152604090205481565b6102a06104a1366004611b07565b600f6020526000908152604090205460ff1681565b6102a06104c4366004611b07565b600c6020526000908152604090205460ff1681565b6102f56104e7366004611b07565b60176020526000908152604090205481565b6102f5610507366004611b07565b60146020526000908152604090205481565b610260610527366004611bbe565b6107c6565b6102f561053a366004611b07565b600a6020526000908152604090205481565b6102f561055a366004611b07565b601a6020526000908152604090205481565b61026061057a366004611bbe565b6107d6565b6102f57f000000000000000000000000000000000000000000000000000000000000000081565b6102f56105b4366004611b21565b6107e6565b6102a06105c7366004611b07565b60166020526000908152604090205460ff1681565b6102a06105ea366004611b4a565b6109f8565b6102a06105fd366004611b07565b60136020526000908152604090205460ff1681565b6102a0610620366004611b07565b60196020526000908152604090205460ff1681565b61035f610643366004611b07565b610efc565b6102f5610656366004611b07565b601d6020526000908152604090205481565b6102a0610676366004611b7c565b610f97565b610260610689366004611bbe565b61190a565b6102f561069c366004611b07565b60106020526000908152604090205481565b601281815481106106be57600080fd5b6000918252602090912001546001600160a01b0316905081565b600881815481106106be57600080fd5b6000546001600160a01b0316331461071b5760405162461bcd60e51b815260040161071290611c0f565b60405180910390fd5b6001600160a01b03811661072e57600080fd5b600180546001600160a01b0319166001600160a01b0392909216919091179055565b600581815481106106be57600080fd5b601581815481106106be57600080fd5b6000546001600160a01b0316331461079a5760405162461bcd60e51b815260040161071290611c0f565b6107a4600061191a565b565b601881815481106106be57600080fd5b600e81815481106106be57600080fd5b601b81815481106106be57600080fd5b600281815481106106be57600080fd5b6001600160a01b03821660009081526003602052604081205460ff161561093957610932836001600160a01b031663313ce5676040518163ffffffff1660e01b815260040160206040518083038186803b15801561084357600080fd5b505afa158015610857573d6000803e3d6000fd5b505050506040513d601f19601f8201168201806040525081019061087b9190611bee565b61088690600a611cbf565b61092c7f00000000000000000000000000000000000000000000000000000000000000006001600160a01b031663313ce5676040518163ffffffff1660e01b815260040160206040518083038186803b1580156108e257600080fd5b505afa1580156108f6573d6000803e3d6000fd5b505050506040513d601f19601f8201168201806040525081019061091a9190611bee565b61092590600a611cbf565b859061196a565b90611976565b90506109f2565b6001600160a01b0383166000908152600c602052604090205460ff16156109ee576001600160a01b0383811660008181526011602052604090819020549051634249719f60e01b815260048101929092526024820185905290911690634249719f9060440160206040518083038186803b1580156109b657600080fd5b505afa1580156109ca573d6000803e3d6000fd5b505050506040513d601f19601f820116820180604052508101906109329190611bd6565b5060005b92915050565b600080546001600160a01b03163314610a235760405162461bcd60e51b815260040161071290611c0f565b6001600160a01b038216610a3657600080fd5b6000836009811115610a5857634e487b7160e01b600052602160045260246000fd5b1415610aa657610a88437f0000000000000000000000000000000000000000000000000000000000000000611982565b6001600160a01b038316600090815260076020526040902055610e97565b6001836009811115610ac857634e487b7160e01b600052602160045260246000fd5b1415610b1657610af8437f0000000000000000000000000000000000000000000000000000000000000000611982565b6001600160a01b0383166000908152600a6020526040902055610e97565b6002836009811115610b3857634e487b7160e01b600052602160045260246000fd5b1415610b8657610b68437f0000000000000000000000000000000000000000000000000000000000000000611982565b6001600160a01b038316600090815260046020526040902055610e97565b6003836009811115610ba857634e487b7160e01b600052602160045260246000fd5b1415610c0157610be3610bdc7f0000000000000000000000000000000000000000000000000000000000000000600261196a565b4390611982565b6001600160a01b038316600090815260146020526040902055610e97565b6004836009811115610c2357634e487b7160e01b600052602160045260246000fd5b1415610c7157610c53437f0000000000000000000000000000000000000000000000000000000000000000611982565b6001600160a01b038316600090815260106020526040902055610e97565b6005836009811115610c9357634e487b7160e01b600052602160045260246000fd5b1415610ce157610cc3437f0000000000000000000000000000000000000000000000000000000000000000611982565b6001600160a01b0383166000908152600d6020526040902055610e97565b6006836009811115610d0357634e487b7160e01b600052602160045260246000fd5b1415610d5557610d37610bdc7f0000000000000000000000000000000000000000000000000000000000000000600261196a565b6001600160a01b038316600090815260176020526040902055610e97565b6007836009811115610d7757634e487b7160e01b600052602160045260246000fd5b1415610dc557610da7437f0000000000000000000000000000000000000000000000000000000000000000611982565b6001600160a01b0383166000908152601a6020526040902055610e97565b6008836009811115610de757634e487b7160e01b600052602160045260246000fd5b1415610e3557610e17437f0000000000000000000000000000000000000000000000000000000000000000611982565b6001600160a01b0383166000908152601d6020526040902055610e97565b6009836009811115610e5757634e487b7160e01b600052602160045260246000fd5b1415610e8f57610e87437f0000000000000000000000000000000000000000000000000000000000000000611982565b601f55610e97565b5060006109f2565b826009811115610eb757634e487b7160e01b600052602160045260246000fd5b6040516001600160a01b03841681527f0e4f2c4b5bc209d509bc3d49348c787fefadc66a79351b470599ac0f5be52eaf9060200160405180910390a250600192915050565b6000546001600160a01b03163314610f265760405162461bcd60e51b815260040161071290611c0f565b6001600160a01b038116610f8b5760405162461bcd60e51b815260206004820152602660248201527f4f776e61626c653a206e6577206f776e657220697320746865207a65726f206160448201526564647265737360d01b6064820152608401610712565b610f948161191a565b50565b600080546001600160a01b03163314610fc25760405162461bcd60e51b815260040161071290611c0f565b6001600160a01b038316610fd557600080fd5b600080856009811115610ff857634e487b7160e01b600052602160045260246000fd5b14156110b45761100b600760068661198e565b15611084576001600160a01b038416600090815260076020526040812055611034600585611a6e565b61108457600580546001810182556000919091527f036b6384b5eca791c62761152d0c79bb0604c104a5fb6f4eb0703f3154bb3db00180546001600160a01b0319166001600160a01b0386161790555b506001600160a01b0383166000908152600660205260409020805460ff81161560ff19909116811790915561189a565b60018560098111156110d657634e487b7160e01b600052602160045260246000fd5b1415611192576110e9600a60098661198e565b15611162576001600160a01b0384166000908152600a6020526040812055611112600885611a6e565b61116257600880546001810182556000919091527ff3f7a9fe364faab93b216da50a3214154f22a0a2b415b23a84c8169e8b636ee30180546001600160a01b0319166001600160a01b0386161790555b506001600160a01b0383166000908152600960205260409020805460ff81161560ff19909116811790915561189a565b60028560098111156111b457634e487b7160e01b600052602160045260246000fd5b1415611270576111c7600460038661198e565b15611240576001600160a01b0384166000908152600460205260408120556111f0600285611a6e565b61124057600280546001810182556000919091527f405787fa12a823e0f2b7631cc41b3ba8828b3321ca811111fa75cd3aa3bb5ace0180546001600160a01b0319166001600160a01b0386161790555b506001600160a01b0383166000908152600360205260409020805460ff81161560ff19909116811790915561189a565b600385600981111561129257634e487b7160e01b600052602160045260246000fd5b141561138b576112a5601460138661198e565b1561135b57601280546001810182557fbb8a6a4669ba250d26cd7a459eca9d215f8307e33aebe50379bc5a3617ec34440180546001600160a01b0319166001600160a01b03871690811790915560009081526014602052604081205561130b9085611a6e565b61135b57601280546001810182556000919091527fbb8a6a4669ba250d26cd7a459eca9d215f8307e33aebe50379bc5a3617ec34440180546001600160a01b0319166001600160a01b0386161790555b506001600160a01b0383166000908152601360205260409020805460ff81161560ff19909116811790915561189a565b60048560098111156113ad57634e487b7160e01b600052602160045260246000fd5b14156114a6576113c06010600f8661198e565b1561147657600e80546001810182557fbb7b4a454dc3493923482f07822329ed19e8244eff582cc204f8554c3620c3fd0180546001600160a01b0319166001600160a01b0387169081179091556000908152601060205260408120556114269085611a6e565b61147657600e80546001810182556000919091527fbb7b4a454dc3493923482f07822329ed19e8244eff582cc204f8554c3620c3fd0180546001600160a01b0319166001600160a01b0386161790555b506001600160a01b0383166000908152600f60205260409020805460ff81161560ff19909116811790915561189a565b60058560098111156114c857634e487b7160e01b600052602160045260246000fd5b14156115a6576114db600d600c8661198e565b15611554576001600160a01b0384166000908152600d6020526040812055611504600b85611a6e565b61155457600b80546001810182556000919091527f0175b7a638427703f0dbe7bb9bbf987a2551717b34e79f33b5b1008d1fa01db90180546001600160a01b0319166001600160a01b0386161790555b506001600160a01b038381166000908152600c60209081526040808320805460ff81161560ff199091168117909155601190925290912080546001600160a01b0319169285169290921790915561189a565b60068560098111156115c857634e487b7160e01b600052602160045260246000fd5b1415611684576115db601760168661198e565b15611654576001600160a01b038416600090815260176020526040812055611604601585611a6e565b61165457601580546001810182556000919091527f55f448fdea98c4d29eb340757ef0a66cd03dbb9538908a6a81d96026b71ec4750180546001600160a01b0319166001600160a01b0386161790555b506001600160a01b0383166000908152601660205260409020805460ff81161560ff19909116811790915561189a565b60078560098111156116a657634e487b7160e01b600052602160045260246000fd5b1415611762576116b9601a60198661198e565b15611732576001600160a01b0384166000908152601a60205260408120556116e2601885611a6e565b61173257601880546001810182556000919091527fb13d2d76d1f4b7be834882e410b3e3a8afaf69f83600ae24db354391d2378d2e0180546001600160a01b0319166001600160a01b0386161790555b506001600160a01b0383166000908152601960205260409020805460ff81161560ff19909116811790915561189a565b600885600981111561178457634e487b7160e01b600052602160045260246000fd5b141561184057611797601d601c8661198e565b15611810576001600160a01b0384166000908152601d60205260408120556117c0601b85611a6e565b61181057601b80546001810182556000919091527f3ad8aa4f87544323a9d1e5dd902f40c356527a7955687113db5f9a85ad579dc10180546001600160a01b0319166001600160a01b0386161790555b506001600160a01b0383166000908152601c60205260409020805460ff81161560ff19909116811790915561189a565b600985600981111561186257634e487b7160e01b600052602160045260246000fd5b141561189057506000601f55601e80546001600160a01b0319166001600160a01b038516179055600161189a565b6000915050611903565b8460098111156118ba57634e487b7160e01b600052602160045260246000fd5b604080516001600160a01b038716815283151560208201527f0dcacb7e392f3d6a216ed2660e3dcfd40b7793d33591db2ba185a6b8e44fc477910160405180910390a260019150505b9392505050565b600b81815481106106be57600080fd5b600080546001600160a01b038381166001600160a01b0319831681178455604051919092169283917f8be0079c531659141344cd1fd0a4f28419497f9722a3daafe3b4186f6b6457e09190a35050565b60006119038284611d6a565b60006119038284611c5c565b60006119038284611c44565b6001600160a01b03811660009081526020839052604081205460ff16611a64576001600160a01b038216600090815260208590526040902054611a005760405162461bcd60e51b815260206004820152600a6024820152694d75737420717565756560b01b6044820152606401610712565b6001600160a01b038216600090815260208590526040902054431015611a5c5760405162461bcd60e51b8152602060048201526011602482015270145d595d59481b9bdd08195e1c1a5c9959607a1b6044820152606401610712565b506001611903565b5060009392505050565b6000805b8354811015611a6457826001600160a01b0316848281548110611aa557634e487b7160e01b600052603260045260246000fd5b6000918252602090912001546001600160a01b03161415611aca5760019150506109f2565b80611ad481611d89565b915050611a72565b80356001600160a01b0381168114611af357600080fd5b919050565b8035600a8110611af357600080fd5b600060208284031215611b18578081fd5b61190382611adc565b60008060408385031215611b33578081fd5b611b3c83611adc565b946020939093013593505050565b60008060408385031215611b5c578182fd5b611b6583611af8565b9150611b7360208401611adc565b90509250929050565b600080600060608486031215611b90578081fd5b611b9984611af8565b9250611ba760208501611adc565b9150611bb560408501611adc565b90509250925092565b600060208284031215611bcf578081fd5b5035919050565b600060208284031215611be7578081fd5b5051919050565b600060208284031215611bff578081fd5b815160ff81168114611903578182fd5b6020808252818101527f4f776e61626c653a2063616c6c6572206973206e6f7420746865206f776e6572604082015260600190565b60008219821115611c5757611c57611da4565b500190565b600082611c7757634e487b7160e01b81526012600452602481fd5b500490565b600181815b80851115611cb7578160001904821115611c9d57611c9d611da4565b80851615611caa57918102915b93841c9390800290611c81565b509250929050565b600061190360ff841683600082611cd8575060016109f2565b81611ce5575060006109f2565b8160018114611cfb5760028114611d0557611d21565b60019150506109f2565b60ff841115611d1657611d16611da4565b50506001821b6109f2565b5060208310610133831016604e8410600b8410161715611d44575081810a6109f2565b611d4e8383611c7c565b8060001904821115611d6257611d62611da4565b029392505050565b6000816000190483118215151615611d8457611d84611da4565b500290565b6000600019821415611d9d57611d9d611da4565b5060010190565b634e487b7160e01b600052601160045260246000fdfea264697066735822122019a7c4f133f1ae010b542d0c769d340d77bfbd25f2026e77b40d54e2b019a3ea64736f6c63430008040033",
  "linkReferences": {},
  "deployedLinkReferences": {}
}